{
  "transactions": [
    {
      "hash": "0x140edd8be35803c62b9c764f5db2a9b2a7b8103111ba4f3357db14270e140df0",
      "transactionType": "CREATE",
      "contractName": "CentralRegistry",
      "contractAddress": "0x9a676e781a523b5d0c0e43731313a708cb607508",
      "function": null,
      "arguments": [
        "0xf39Fd6e51aad88F6F4ce6aB8827279cffFb92266"
      ],
      "transaction": {
        "from": "0xf39fd6e51aad88f6f4ce6ab8827279cfffb92266",
        "gas": "0x6b634",
        "value": "0x0",
        "input": "0x6080604052348015600f57600080fd5b50604051610544380380610544833981016040819052602c916050565b600080546001600160a01b0319166001600160a01b0392909216919091179055607e565b600060208284031215606157600080fd5b81516001600160a01b0381168114607757600080fd5b9392505050565b6104b78061008d6000396000f3fe608060405234801561001057600080fd5b50600436106100885760003560e01c80638f2839701161005b5780638f2839701461015a578063ca8ef41c1461016d578063d90bb72914610180578063f851a4401461019357600080fd5b80630618f1041461008d5780631324da83146100dd5780631dae9454146101115780637563750514610145575b600080fd5b6100c161009b3660046102f7565b80516020818301810180516001825292820191909301209152546001600160a01b031681565b6040516001600160a01b03909116815260200160405180910390f35b6100c16100eb3660046102f7565b80516020818301810180516003825292820191909301209152546001600160a01b031681565b6100c161011f3660046102f7565b80516020818301810180516002825292820191909301209152546001600160a01b031681565b6101586101533660046103cc565b6101a6565b005b61015861016836600461044f565b610218565b61015861017b3660046103cc565b610265565b61015861018e3660046103cc565b6102a3565b6000546100c1906001600160a01b031681565b6000546001600160a01b031633146101d157604051634755657960e01b815260040160405180910390fd5b80600184846040516101e4929190610471565b90815260405190819003602001902080546001600160a01b03929092166001600160a01b0319909216919091179055505050565b6000546001600160a01b0316331461024357604051634755657960e01b815260040160405180910390fd5b600080546001600160a01b0319166001600160a01b0392909216919091179055565b6000546001600160a01b0316331461029057604051634755657960e01b815260040160405180910390fd5b80600384846040516101e4929190610471565b6000546001600160a01b031633146102ce57604051634755657960e01b815260040160405180910390fd5b80600284846040516101e4929190610471565b634e487b7160e01b600052604160045260246000fd5b60006020828403121561030957600080fd5b813567ffffffffffffffff81111561032057600080fd5b8201601f8101841361033157600080fd5b803567ffffffffffffffff81111561034b5761034b6102e1565b604051601f8201601f19908116603f0116810167ffffffffffffffff8111828210171561037a5761037a6102e1565b60405281815282820160200186101561039257600080fd5b81602084016020830137600091810160200191909152949350505050565b80356001600160a01b03811681146103c757600080fd5b919050565b6000806000604084860312156103e157600080fd5b833567ffffffffffffffff8111156103f857600080fd5b8401601f8101861361040957600080fd5b803567ffffffffffffffff81111561042057600080fd5b86602082840101111561043257600080fd5b6020918201945092506104469085016103b0565b90509250925092565b60006020828403121561046157600080fd5b61046a826103b0565b9392505050565b818382376000910190815291905056fea2646970667358221220701e4daf70aed3651dd370651478729c433e67c2337dbf884e3904c2fbe9d7a664736f6c634300081a0033000000000000000000000000f39fd6e51aad88f6f4ce6ab8827279cfffb92266",
        "nonce": "0xe",
        "chainId": "0xe708"
      },
      "additionalContracts": [],
      "isFixedGasLimit": false
    },
    {
      "hash": "0xd6f1c6b7cb95570ace8c46b0ce0787b8e92ab0dccf2c2365d6cc948c93c06696",
      "transactionType": "CREATE",
      "contractName": "Master",
      "contractAddress": "0x0b306bf915c4d645ff596e518faf3f9669b97016",
      "function": null,
      "arguments": [
        "0x9A676e781A523b5d0C0e43731313A708CB607508"
      ],
      "transaction": {
        "from": "0xf39fd6e51aad88f6f4ce6ab8827279cfffb92266",
        "gas": "0x15c6b7",
        "value": "0x0",
        "input": "0x6080604052348015600f57600080fd5b50604051611303380380611303833981016040819052602c916050565b600080546001600160a01b0319166001600160a01b0392909216919091179055607e565b600060208284031215606157600080fd5b81516001600160a01b0381168114607757600080fd5b9392505050565b6112768061008d6000396000f3fe608060405234801561001057600080fd5b50600436106100625760003560e01c80630e826113146100675780631661cc031461007c578063211d9b041461008f57806325a56260146100c4578063458fa58d146100d75780638f73dcfa146100ea575b600080fd5b61007a610075366004610f28565b610115565b005b61007a61008a366004610fcb565b610363565b6100a261009d3660046110a2565b610726565b604080519283526001600160a01b039091166020830152015b60405180910390f35b61007a6100d2366004610fcb565b610910565b6100a26100e53660046110f5565b610b32565b6000546100fd906001600160a01b031681565b6040516001600160a01b0390911681526020016100bb565b60008054604051631324da8360e01b81528492916001600160a01b031690631324da839061014590600401611132565b602060405180830381865afa158015610162573d6000803e3d6000fd5b505050506040513d601f19601f820116820180604052508101906101869190611158565b6040516331a9108f60e11b81526004810184905290915033906001600160a01b03831690636352211e90602401602060405180830381865afa1580156101d0573d6000803e3d6000fd5b505050506040513d601f19601f820116820180604052508101906101f49190611158565b6001600160a01b03161461021b5760405163153e35b760e11b815260040160405180910390fd5b60008054604051631324da8360e01b81526001600160a01b0390911690631324da839061024a90600401611132565b602060405180830381865afa158015610267573d6000803e3d6000fd5b505050506040513d601f19601f8201168201806040525081019061028b9190611158565b60405163594eddfb60e01b8152600481018790529091506000906001600160a01b0383169063594eddfb90602401602060405180830381865afa1580156102d6573d6000803e3d6000fd5b505050506040513d601f19601f820116820180604052508101906102fa9190611158565b60405163e2df600f60e01b81529091506001600160a01b0382169063e2df600f906103299088906004016111bb565b600060405180830381600087803b15801561034357600080fd5b505af1158015610357573d6000803e3d6000fd5b50505050505050505050565b60008054604051631324da8360e01b81528492916001600160a01b031690631324da839061039390600401611132565b602060405180830381865afa1580156103b0573d6000803e3d6000fd5b505050506040513d601f19601f820116820180604052508101906103d49190611158565b6040516331a9108f60e11b81526004810184905290915033906001600160a01b03831690636352211e90602401602060405180830381865afa15801561041e573d6000803e3d6000fd5b505050506040513d601f19601f820116820180604052508101906104429190611158565b6001600160a01b0316146104695760405163153e35b760e11b815260040160405180910390fd5b60008054604051631324da8360e01b81526001600160a01b0390911690631324da839061049890600401611132565b602060405180830381865afa1580156104b5573d6000803e3d6000fd5b505050506040513d601f19601f820116820180604052508101906104d99190611158565b60405163594eddfb60e01b8152600481018790529091506000906001600160a01b0383169063594eddfb90602401602060405180830381865afa158015610524573d6000803e3d6000fd5b505050506040513d601f19601f820116820180604052508101906105489190611158565b905060008190506000866000015190506000826001600160a01b0316639bfc70f96040518163ffffffff1660e01b8152600401602060405180830381865afa158015610598573d6000803e3d6000fd5b505050506040513d601f19601f820116820180604052508101906105bc91906111ce565b905060008160000361064c576000846001600160a01b03166378892cea6040518163ffffffff1660e01b8152600401602060405180830381865afa158015610608573d6000803e3d6000fd5b505050506040513d601f19601f8201168201806040525081019061062c9190611158565b91508190506106466001600160a01b038216338887610b60565b506106ad565b81600103610694576000846001600160a01b031663210663e46040518163ffffffff1660e01b8152600401602060405180830381865afa158015610608573d6000803e3d6000fd5b604051631465a95760e21b815260040160405180910390fd5b885160208a01516040808c01519051634c829ebd60e11b81526001600160a01b038916936399053d7a936106e89391929091906004016111e7565b600060405180830381600087803b15801561070257600080fd5b505af1158015610716573d6000803e3d6000fd5b5050505050505050505050505050565b600080600061073485610bc0565b90506107498560200151866040015183610cb8565b855160408051639bfc70f960e01b81529051939650919450849260009283916001600160a01b03861691639bfc70f99160048083019260209291908290030181865afa15801561079d573d6000803e3d6000fd5b505050506040513d601f19601f820116820180604052508101906107c191906111ce565b90508060000361084f576000846001600160a01b03166378892cea6040518163ffffffff1660e01b8152600401602060405180830381865afa15801561080b573d6000803e3d6000fd5b505050506040513d601f19601f8201168201806040525081019061082f9190611158565b93508390506108496001600160a01b038216338986610b60565b50610897565b80600103610694576000846001600160a01b031663210663e46040518163ffffffff1660e01b8152600401602060405180830381865afa15801561080b573d6000803e3d6000fd5b875160208901516040808b01519051634c829ebd60e11b81526001600160a01b038a16936399053d7a936108d29391929091906004016111e7565b600060405180830381600087803b1580156108ec57600080fd5b505af1158015610900573d6000803e3d6000fd5b5050505050505050509250929050565b60008054604051631324da8360e01b81528492916001600160a01b031690631324da839061094090600401611132565b602060405180830381865afa15801561095d573d6000803e3d6000fd5b505050506040513d601f19601f820116820180604052508101906109819190611158565b6040516331a9108f60e11b81526004810184905290915033906001600160a01b03831690636352211e90602401602060405180830381865afa1580156109cb573d6000803e3d6000fd5b505050506040513d601f19601f820116820180604052508101906109ef9190611158565b6001600160a01b031614610a165760405163153e35b760e11b815260040160405180910390fd5b60008054604051631324da8360e01b81526001600160a01b0390911690631324da8390610a4590600401611132565b602060405180830381865afa158015610a62573d6000803e3d6000fd5b505050506040513d601f19601f82011682018060405250810190610a869190611158565b60405163594eddfb60e01b8152600481018790529091506000906001600160a01b0383169063594eddfb90602401602060405180830381865afa158015610ad1573d6000803e3d6000fd5b505050506040513d601f19601f82011682018060405250810190610af59190611158565b85516020870151604080890151905163291b6d5360e21b81529394506001600160a01b0385169363a46db54c9361032993909290916004016111e7565b6000806000610b4084610bc0565b9050610b558460200151856040015183610cb8565b909590945092505050565b604080516001600160a01b0385811660248301528416604482015260648082018490528251808303909101815260849091019091526020810180516001600160e01b03166323b872dd60e01b179052610bba908590610dd3565b50505050565b6000805482516040516301863c4160e21b815283926001600160a01b031691630618f10491610bf291906004016111bb565b602060405180830381865afa158015610c0f573d6000803e3d6000fd5b505050506040513d601f19601f82011682018060405250810190610c339190611158565b90506001600160a01b038116610c5c5760405163384ddb1b60e11b815260040160405180910390fd5b60208301516001600160a01b0316610c875760405163d92e233d60e01b815260040160405180910390fd5b60408301516001600160a01b0316610cb25760405163d92e233d60e01b815260040160405180910390fd5b92915050565b60008054604051631324da8360e01b8152602060048201526007602482015266464143544f525960c81b6044820152829182916001600160a01b0390911690631324da8390606401602060405180830381865afa158015610d1d573d6000803e3d6000fd5b505050506040513d601f19601f82011682018060405250810190610d419190611158565b604051630789304b60e31b81523360048201526001600160a01b0386811660248301528881166044830152878116606483015291925090821690633c4982589060840160408051808303816000875af1158015610da2573d6000803e3d6000fd5b505050506040513d601f19601f82011682018060405250810190610dc6919061120f565b9097909650945050505050565b600080602060008451602086016000885af180610df6576040513d6000823e3d81fd5b50506000513d91508115610e0e578060011415610e1b565b6001600160a01b0384163b155b15610bba57604051635274afe760e01b81526001600160a01b038516600482015260240160405180910390fd5b634e487b7160e01b600052604160045260246000fd5b6040516060810167ffffffffffffffff81118282101715610e8157610e81610e48565b60405290565b60008067ffffffffffffffff841115610ea257610ea2610e48565b50604051601f19601f85018116603f0116810181811067ffffffffffffffff82111715610ed157610ed1610e48565b604052838152905080828401851015610ee957600080fd5b83836020830137600060208583010152509392505050565b600082601f830112610f1257600080fd5b610f2183833560208501610e87565b9392505050565b60008060408385031215610f3b57600080fd5b82359150602083013567ffffffffffffffff811115610f5957600080fd5b610f6585828601610f01565b9150509250929050565b600060608284031215610f8157600080fd5b610f89610e5e565b82358152602080840135908201529050604082013567ffffffffffffffff811115610fb357600080fd5b610fbf84828501610f01565b60408301525092915050565b60008060408385031215610fde57600080fd5b82359150602083013567ffffffffffffffff811115610ffc57600080fd5b610f6585828601610f6f565b6001600160a01b038116811461101d57600080fd5b50565b60006060828403121561103257600080fd5b61103a610e5e565b9050813567ffffffffffffffff81111561105357600080fd5b8201601f8101841361106457600080fd5b61107384823560208401610e87565b825250602082013561108481611008565b6020820152604082013561109781611008565b604082015292915050565b600080604083850312156110b557600080fd5b823567ffffffffffffffff8111156110cc57600080fd5b6110d885828601611020565b925050602083013567ffffffffffffffff811115610ffc57600080fd5b60006020828403121561110757600080fd5b813567ffffffffffffffff81111561111e57600080fd5b61112a84828501611020565b949350505050565b6020808252600c908201526b13115591549051d157d3919560a21b604082015260600190565b60006020828403121561116a57600080fd5b8151610f2181611008565b6000815180845260005b8181101561119b5760208185018101518683018201520161117f565b506000602082860101526020601f19601f83011685010191505092915050565b602081526000610f216020830184611175565b6000602082840312156111e057600080fd5b5051919050565b8381528260208201526060604082015260006112066060830184611175565b95945050505050565b6000806040838503121561122257600080fd5b8251602084015190925061123581611008565b80915050925092905056fea2646970667358221220f698f276fc93884e6d06b81429e6c973d7b0a1d4a6ee4367e3bab7a26ccd1a8664736f6c634300081a00330000000000000000000000009a676e781a523b5d0c0e43731313a708cb607508",
        "nonce": "0xf",
        "chainId": "0xe708"
      },
      "additionalContracts": [],
      "isFixedGasLimit": false
    },
    {
      "hash": "0xb69d5fcbef86d3db447b8f89ffa16567ebd12f9db2ac9a3b7e9ceaa05cb37280",
      "transactionType": "CREATE",
      "contractName": "Factory",
      "contractAddress": "0x959922be3caee4b8cd9a407cc3ac1c251c2007b1",
      "function": null,
      "arguments": [
        "0x9A676e781A523b5d0C0e43731313A708CB607508"
      ],
      "transaction": {
        "from": "0xf39fd6e51aad88f6f4ce6ab8827279cfffb92266",
        "gas": "0x8fb49",
        "value": "0x0",
        "input": "0x6080604052348015600f57600080fd5b5060405161075b38038061075b833981016040819052602c916050565b600080546001600160a01b0319166001600160a01b0392909216919091179055607e565b600060208284031215606157600080fd5b81516001600160a01b0381168114607757600080fd5b9392505050565b6106ce8061008d6000396000f3fe608060405234801561001057600080fd5b50600436106100415760003560e01c80633c498258146100465780634fa350b01461007b5780638f73dcfa146100a9575b600080fd5b6100596100543660046103e7565b6100d4565b604080519283526001600160a01b039091166020830152015b60405180910390f35b61009b610089366004610443565b60016020526000908152604090205481565b604051908152602001610072565b6000546100bc906001600160a01b031681565b6040516001600160a01b039091168152602001610072565b60008054604051631324da8360e01b815260206004820152600660248201526526a0a9aa22a960d11b6044820152829182916001600160a01b0390911690631324da8390606401602060405180830381865afa158015610138573d6000803e3d6000fd5b505050506040513d601f19601f8201168201806040525081019061015c9190610467565b9050336001600160a01b0382161461017357600080fd5b6001600160a01b03871660009081526001602090815260408083205490516bffffffffffffffffffffffff1960608c901b1692810192909252603482015260540160405160208183030381529060405280519060200120905080876040516101da906103c2565b6001600160a01b0390911681526020018190604051809103906000f590508015801561020a573d6000803e3d6000fd5b5060008054604051631324da8360e01b815260206004820152600c60248201526b13115591549051d157d3919560a21b604482015292955090916001600160a01b0390911690631324da8390606401602060405180830381865afa158015610276573d6000803e3d6000fd5b505050506040513d601f19601f8201168201806040525081019061029a9190610467565b60405163ee1fe2ad60e01b81526001600160a01b038b8116600483015286811660248301529192509082169063ee1fe2ad906044016020604051808303816000875af11580156102ee573d6000803e3d6000fd5b505050506040513d601f19601f820116820180604052508101906103129190610484565b6000546040516306b0729b60e31b81526001600160a01b039182166004820152602481018390528982166044820152888216606482015291965085169063358394d890608401600060405180830381600087803b15801561037257600080fd5b505af1158015610386573d6000803e3d6000fd5b5050506001600160a01b038a16600090815260016020526040812080549092506103af9061049d565b9190508190555050505094509492505050565b6101d4806104c583390190565b6001600160a01b03811681146103e457600080fd5b50565b600080600080608085870312156103fd57600080fd5b8435610408816103cf565b93506020850135610418816103cf565b92506040850135610428816103cf565b91506060850135610438816103cf565b939692955090935050565b60006020828403121561045557600080fd5b8135610460816103cf565b9392505050565b60006020828403121561047957600080fd5b8151610460816103cf565b60006020828403121561049657600080fd5b5051919050565b6000600182016104bd57634e487b7160e01b600052601160045260246000fd5b506001019056fe60a060405234801561001057600080fd5b506040516101d43803806101d483398101604081905261002f9161009a565b6001600160a01b0381166100895760405162461bcd60e51b815260206004820152601e60248201527f496e76616c696420696d706c656d656e746174696f6e20616464726573730000604482015260640160405180910390fd5b6001600160a01b03166080526100ca565b6000602082840312156100ac57600080fd5b81516001600160a01b03811681146100c357600080fd5b9392505050565b60805160ec6100e860003960008181602001526055015260ec6000f3fe608060405260043610601c5760003560e01c80635c60da1b146045575b60437f00000000000000000000000000000000000000000000000000000000000000006093565b005b348015605057600080fd5b5060777f000000000000000000000000000000000000000000000000000000000000000081565b6040516001600160a01b03909116815260200160405180910390f35b3660008037600080366000845af43d6000803e80801560b1573d6000f35b3d6000fdfea2646970667358221220f6020ed423ab8c3633806cc507ff73ce07ea9bade45f63874f1be7c04b23516364736f6c634300081a0033a2646970667358221220334d4d3daf5d3502e5abf0104c5d4d551e7d16f681f95bebc7dbc06e96f676af64736f6c634300081a00330000000000000000000000009a676e781a523b5d0c0e43731313a708cb607508",
        "nonce": "0x10",
        "chainId": "0xe708"
      },
      "additionalContracts": [],
      "isFixedGasLimit": false
    },
    {
      "hash": "0xa41118bc8622e8e46efdedbf28f5726c31a29648e2feeac27883f262e88c6419",
      "transactionType": "CREATE",
      "contractName": "LeveragedNFT",
      "contractAddress": "0x9a9f2ccfde556a7e9ff0848998aa4a0cfd8863ae",
      "function": null,
      "arguments": [
        "0x9A676e781A523b5d0C0e43731313A708CB607508"
      ],
      "transaction": {
        "from": "0xf39fd6e51aad88f6f4ce6ab8827279cfffb92266",
        "gas": "0x14c5b6",
        "value": "0x0",
        "input": "0x608060405234801561001057600080fd5b506040516112e83803806112e883398101604081905261002f916100bd565b6040518060400160405280600c81526020016b13195d995c9859d95913919560a21b8152506040518060400160405280600681526020016513115593919560d21b8152508160029081610082919061018c565b50600361008f828261018c565b506000808055505050600980546001600160a01b0319166001600160a01b039290921691909117905561024a565b6000602082840312156100cf57600080fd5b81516001600160a01b03811681146100e657600080fd5b9392505050565b634e487b7160e01b600052604160045260246000fd5b600181811c9082168061011757607f821691505b60208210810361013757634e487b7160e01b600052602260045260246000fd5b50919050565b601f82111561018757806000526020600020601f840160051c810160208510156101645750805b601f840160051c820191505b818110156101845760008155600101610170565b50505b505050565b81516001600160401b038111156101a5576101a56100ed565b6101b9816101b38454610103565b8461013d565b6020601f8211600181146101ed57600083156101d55750848201515b600019600385901b1c1916600184901b178455610184565b600084815260208120601f198516915b8281101561021d57878501518255602094850194600190920191016101fd565b508482101561023b5786840151600019600387901b60f8161c191681555b50505050600190811b01905550565b61108f806102596000396000f3fe6080604052600436106101095760003560e01c806370a0823111610095578063a22cb46511610064578063a22cb465146102bc578063b88d4fde146102dc578063c87b56dd146102ef578063e985e9c51461030f578063ee1fe2ad1461035857600080fd5b806370a08231146102515780638f73dcfa146102715780639451c99a1461029157806395d89b41146102a757600080fd5b806318160ddd116100dc57806318160ddd146101b257806323b872dd146101d557806342842e0e146101e8578063594eddfb146101fb5780636352211e1461023157600080fd5b806301ffc9a71461010e57806306fdde0314610143578063081812fc14610165578063095ea7b31461019d575b600080fd5b34801561011a57600080fd5b5061012e610129366004610cb2565b610378565b60405190151581526020015b60405180910390f35b34801561014f57600080fd5b506101586103ca565b60405161013a9190610d1f565b34801561017157600080fd5b50610185610180366004610d32565b61045c565b6040516001600160a01b03909116815260200161013a565b6101b06101ab366004610d60565b610497565b005b3480156101be57600080fd5b50600154600054035b60405190815260200161013a565b6101b06101e3366004610d8c565b6104a7565b6101b06101f6366004610d8c565b61060c565b34801561020757600080fd5b50610185610216366004610d32565b600a602052600090815260409020546001600160a01b031681565b34801561023d57600080fd5b5061018561024c366004610d32565b61062c565b34801561025d57600080fd5b506101c761026c366004610dcd565b610637565b34801561027d57600080fd5b50600954610185906001600160a01b031681565b34801561029d57600080fd5b506101c760005481565b3480156102b357600080fd5b5061015861067d565b3480156102c857600080fd5b506101b06102d7366004610dea565b61068c565b6101b06102ea366004610e3e565b6106f8565b3480156102fb57600080fd5b5061015861030a366004610d32565b610739565b34801561031b57600080fd5b5061012e61032a366004610f26565b6001600160a01b03918216600090815260076020908152604080832093909416825291909152205460ff1690565b34801561036457600080fd5b506101c7610373366004610f26565b6107c1565b60006301ffc9a760e01b6001600160e01b0319831614806103a957506380ac58cd60e01b6001600160e01b03198316145b806103c45750635b5e139f60e01b6001600160e01b03198316145b92915050565b6060600280546103d990610f54565b80601f016020809104026020016040519081016040528092919081815260200182805461040590610f54565b80156104525780601f1061042757610100808354040283529160200191610452565b820191906000526020600020905b81548152906001019060200180831161043557829003601f168201915b5050505050905090565b6000610467826108b3565b61047b5761047b6333d1c03960e21b6108f8565b506000908152600660205260409020546001600160a01b031690565b6104a382826001610902565b5050565b60006104b2826109a5565b6001600160a01b0394851694909150811684146104d8576104d862a1148160e81b6108f8565b60008281526006602052604090208054338082146001600160a01b0388169091141761051c57610508863361032a565b61051c5761051c632ce44b5f60e11b6108f8565b801561052757600082555b6001600160a01b038681166000908152600560205260408082208054600019019055918716808252919020805460010190554260a01b17600160e11b17600085815260046020526040812091909155600160e11b841690036105b9576001840160008181526004602052604081205490036105b75760005481146105b75760008181526004602052604090208490555b505b6001600160a01b0385168481887fddf252ad1be2c89b69c2b068fc378daa952ba7f163c4a11628f55a4df523b3ef600080a48060000361060357610603633a954ecd60e21b6108f8565b50505050505050565b610627838383604051806020016040528060008152506106f8565b505050565b60006103c4826109a5565b60006001600160a01b038216610657576106576323d3ad8160e21b6108f8565b506001600160a01b031660009081526005602052604090205467ffffffffffffffff1690565b6060600380546103d990610f54565b3360008181526007602090815260408083206001600160a01b03871680855290835292819020805460ff191686151590811790915590519081529192917f17307eab39ab6107e8899845ad3d59bd9653f200f220920489ca2b5937696c31910160405180910390a35050565b6107038484846104a7565b6001600160a01b0383163b156107335761071f84848484610a3b565b610733576107336368d2bf6b60e11b6108f8565b50505050565b6060610744826108b3565b61075857610758630a14c4b560e41b6108f8565b600061076f60408051602081019091526000815290565b9050805160000361078f57604051806020016040528060008152506107ba565b8061079984610b1d565b6040516020016107aa929190610f8e565b6040516020818303038152906040525b9392505050565b600954604051631324da8360e01b8152602060048201526007602482015266464143544f525960c81b604482015260009182916001600160a01b0390911690631324da8390606401602060405180830381865afa158015610826573d6000803e3d6000fd5b505050506040513d601f19601f8201168201806040525081019061084a9190610fbd565b9050336001600160a01b0382161461087557604051630636a15760e11b815260040160405180910390fd5b60008054808252600a602052604090912080546001600160a01b0319166001600160a01b03861617905591506108ac846001610b61565b5092915050565b600080548210156108f35760005b50600082815260046020526040812054908190036108e9576108e283610fda565b92506108c1565b600160e01b161590505b919050565b8060005260046000fd5b600061090d8361062c565b90508180156109255750336001600160a01b03821614155b1561094857610934813361032a565b610948576109486367d9dca160e11b6108f8565b60008381526006602052604080822080546001600160a01b0319166001600160a01b0388811691821790925591518693918516917f8c5be1e5ebec7d5bd14f71427d1e84f3dd0314c0f7b2291e5b200ac8c7c3b92591a450505050565b60008181526004602052604090205480600003610a185760005482106109d5576109d5636f96cda160e11b6108f8565b5b506000190160008181526004602052604090205480156109d657600160e01b8116600003610a0357919050565b610a13636f96cda160e11b6108f8565b6109d6565b600160e01b8116600003610a2b57919050565b6108f3636f96cda160e11b6108f8565b604051630a85bd0160e11b81526000906001600160a01b0385169063150b7a0290610a70903390899088908890600401610fff565b6020604051808303816000875af1925050508015610aab575060408051601f3d908101601f19168201909252610aa89181019061103c565b60015b610b00573d808015610ad9576040519150601f19603f3d011682016040523d82523d6000602084013e610ade565b606091505b508051600003610af857610af86368d2bf6b60e11b6108f8565b805181602001fd5b6001600160e01b031916630a85bd0160e11b149050949350505050565b606060a06040510180604052602081039150506000815280825b600183039250600a81066030018353600a900480610b375750819003601f19909101908152919050565b6104a3828260405180602001604052806000815250610b808383610bda565b6001600160a01b0383163b15610627576000548281035b610baa6000868380600101945086610a3b565b610bbe57610bbe6368d2bf6b60e11b6108f8565b818110610b97578160005414610bd357600080fd5b5050505050565b6000805490829003610bf657610bf663b562e8dd60e01b6108f8565b60008181526004602090815260408083206001600160a01b0387164260a01b6001881460e11b17811790915580845260059092528220805468010000000000000001860201905590819003610c5457610c54622e076360e81b6108f8565b818301825b808360007fddf252ad1be2c89b69c2b068fc378daa952ba7f163c4a11628f55a4df523b3ef600080a4818160010191508103610c59575060005550505050565b6001600160e01b031981168114610caf57600080fd5b50565b600060208284031215610cc457600080fd5b81356107ba81610c99565b60005b83811015610cea578181015183820152602001610cd2565b50506000910152565b60008151808452610d0b816020860160208601610ccf565b601f01601f19169290920160200192915050565b6020815260006107ba6020830184610cf3565b600060208284031215610d4457600080fd5b5035919050565b6001600160a01b0381168114610caf57600080fd5b60008060408385031215610d7357600080fd5b8235610d7e81610d4b565b946020939093013593505050565b600080600060608486031215610da157600080fd5b8335610dac81610d4b565b92506020840135610dbc81610d4b565b929592945050506040919091013590565b600060208284031215610ddf57600080fd5b81356107ba81610d4b565b60008060408385031215610dfd57600080fd5b8235610e0881610d4b565b915060208301358015158114610e1d57600080fd5b809150509250929050565b634e487b7160e01b600052604160045260246000fd5b60008060008060808587031215610e5457600080fd5b8435610e5f81610d4b565b93506020850135610e6f81610d4b565b925060408501359150606085013567ffffffffffffffff811115610e9257600080fd5b8501601f81018713610ea357600080fd5b803567ffffffffffffffff811115610ebd57610ebd610e28565b604051601f8201601f19908116603f0116810167ffffffffffffffff81118282101715610eec57610eec610e28565b604052818152828201602001891015610f0457600080fd5b8160208401602083013760006020838301015280935050505092959194509250565b60008060408385031215610f3957600080fd5b8235610f4481610d4b565b91506020830135610e1d81610d4b565b600181811c90821680610f6857607f821691505b602082108103610f8857634e487b7160e01b600052602260045260246000fd5b50919050565b60008351610fa0818460208801610ccf565b835190830190610fb4818360208801610ccf565b01949350505050565b600060208284031215610fcf57600080fd5b81516107ba81610d4b565b600081610ff757634e487b7160e01b600052601160045260246000fd5b506000190190565b6001600160a01b038581168252841660208201526040810183905260806060820181905260009061103290830184610cf3565b9695505050505050565b60006020828403121561104e57600080fd5b81516107ba81610c9956fea2646970667358221220fde878eefd65c5f727d56dc2871e53e0ebd6833096f371aaba4a669d95fec81a64736f6c634300081a00330000000000000000000000009a676e781a523b5d0c0e43731313a708cb607508",
        "nonce": "0x11",
        "chainId": "0xe708"
      },
      "additionalContracts": [],
      "isFixedGasLimit": false
    },
    {
      "hash": "0x9d820ddbf2511053548afbaf3afbadad5e3c06d2b87a68fd5595afc7090ac89f",
      "transactionType": "CREATE",
      "contractName": "Long_Quote_Odos_Zerolend",
      "contractAddress": "0x68b1d87f95878fe05b998f19b66f4baba5de1aed",
      "function": null,
      "arguments": null,
      "transaction": {
        "from": "0xf39fd6e51aad88f6f4ce6ab8827279cfffb92266",
        "gas": "0x2905e9",
        "value": "0x0",
        "input": "0x6080604052348015600f57600080fd5b506124758061001f6000396000f3fe608060405234801561001057600080fd5b50600436106100b45760003560e01c806378892cea1161007157806378892cea1461015757806399053d7a1461016a5780639bfc70f91461017d578063a46db54c14610194578063e2df600f146101a7578063f81a03fc146101ba57600080fd5b80630542975c146100b95780631b11d0ff146100de578063210663e414610101578063358394d814610114578063581a2ae8146101295780637535d2461461014f575b600080fd5b6100c16101cd565b6040516001600160a01b0390911681526020015b60405180910390f35b6100f16100ec366004611d59565b610274565b60405190151581526020016100d5565b6004546100c1906001600160a01b031681565b610127610122366004611dd5565b6103f9565b005b60045461013d90600160a01b900460ff1681565b60405160ff90911681526020016100d5565b6100c16104f4565b6003546100c1906001600160a01b031681565b610127610178366004611ef7565b610527565b61018660015481565b6040519081526020016100d5565b6101276101a2366004611f47565b6106ee565b6101276101b5366004611f9a565b6108f1565b6000546100c1906001600160a01b031681565b6000805460405163076ba51560e21b815260206004820152601b60248201527f5a45524f4c454e445f4144445245535345535f50524f5649444552000000000060448201526001600160a01b039091169082908290631dae9454906064015b602060405180830381865afa158015610249573d6000803e3d6000fd5b505050506040513d601f19601f8201168201806040525081019061026d9190611fec565b9392505050565b6000805460405163076ba51560e21b815282916001600160a01b031690631dae9454906102a390600401612009565b602060405180830381865afa1580156102c0573d6000803e3d6000fd5b505050506040513d601f19601f820116820180604052508101906102e49190611fec565b9050336001600160a01b0382161461030e576040516282b42960e81b815260040160405180910390fd5b84306001600160a01b03821614610337576040516282b42960e81b815260040160405180910390fd5b6000610343888a612046565b905060008080610355888a018a612059565b919450925090506000836002811115610370576103706120a0565b03610386576103818c838387610af3565b6103cf565b600183600281111561039a5761039a6120a0565b036103ab576103818c838387610eb9565b60028360028111156103bf576103bf6120a0565b036103cf576103cf8c8286611214565b6003546103e6906001600160a01b031633866115c0565b5060019c9b505050505050505050505050565b600080546001600160a01b038087166001600160a01b0319928316811784556002879055600380548784169416939093179092556004805460018590556001600160a81b031916918516919091178155604051631324da8360e01b8152631324da83916104829101602080825260079082015266464143544f525960c81b604082015260600190565b602060405180830381865afa15801561049f573d6000803e3d6000fd5b505050506040513d601f19601f820116820180604052508101906104c39190611fec565b9050336001600160a01b038216146104ed576040516282b42960e81b815260040160405180910390fd5b5050505050565b6000805460405163076ba51560e21b81526001600160a01b039091169082908290631dae94549061022c90600401612009565b60008054604051631324da8360e01b81526001600160a01b0390911690631324da8390610556906004016120b6565b602060405180830381865afa158015610573573d6000803e3d6000fd5b505050506040513d601f19601f820116820180604052508101906105979190611fec565b9050336001600160a01b038216146105c1576040516282b42960e81b815260040160405180910390fd5b82156106da576000808186856040516020016105df93929190612148565b60408051601f19818403018152908290526000805463076ba51560e21b84529193506001600160a01b03909116918290631dae94549061062190600401612009565b602060405180830381865afa15801561063e573d6000803e3d6000fd5b505050506040513d601f19601f820116820180604052508101906106629190611fec565b6003546040516310ac2ddf60e21b81529192506001600160a01b03808416926342b0b77c9261069f9230929116908c90899060009060040161216e565b600060405180830381600087803b1580156106b957600080fd5b505af11580156106cd573d6000803e3d6000fd5b50505050505050506106e8565b6106e8600085846000610af3565b50505050565b60008054604051631324da8360e01b81526001600160a01b0390911690631324da839061071d906004016120b6565b602060405180830381865afa15801561073a573d6000803e3d6000fd5b505050506040513d601f19601f8201168201806040525081019061075e9190611fec565b9050336001600160a01b03821614610788576040516282b42960e81b815260040160405180910390fd5b836000036107d7576107d260008685858080601f01602080910402602001604051908101604052809392919081815260200183838082843760009201829052509250610eb9915050565b6104ed565b6040516001906000906107f49083908990889088906020016121b7565b60408051601f19818403018152908290526000805463076ba51560e21b84529193506001600160a01b03909116918290631dae94549061083690600401612009565b602060405180830381865afa158015610853573d6000803e3d6000fd5b505050506040513d601f19601f820116820180604052508101906108779190611fec565b6003546040516310ac2ddf60e21b81529192506001600160a01b03808416926342b0b77c926108b49230929116908d90899060009060040161216e565b600060405180830381600087803b1580156108ce57600080fd5b505af11580156108e2573d6000803e3d6000fd5b50505050505050505050505050565b60008054604051631324da8360e01b81526001600160a01b0390911690631324da8390610920906004016120b6565b602060405180830381865afa15801561093d573d6000803e3d6000fd5b505050506040513d601f19601f820116820180604052508101906109619190611fec565b9050336001600160a01b0382161461098b576040516282b42960e81b815260040160405180910390fd5b6003546000906109a3906001600160a01b031661164a565b6040516370a0823160e01b8152306004820152909250600091506001600160a01b038316906370a0823190602401602060405180830381865afa1580156109ee573d6000803e3d6000fd5b505050506040513d601f19601f82011682018060405250810190610a1291906121fb565b9050600060029050600081838888604051602001610a3394939291906121b7565b60408051601f19818403018152908290526000805463076ba51560e21b84529193506001600160a01b03909116918290631dae945490610a7590600401612009565b602060405180830381865afa158015610a92573d6000803e3d6000fd5b505050506040513d601f19601f82011682018060405250810190610ab69190611fec565b6003546040516310ac2ddf60e21b81529192506001600160a01b03808416926342b0b77c926108b49230929116908a90899060009060040161216e565b6003546004546001600160a01b0391821691166000610b128688612046565b6000805460405163076ba51560e21b81529293506001600160a01b0316918290631dae945490610b4490600401612214565b602060405180830381865afa158015610b61573d6000803e3d6000fd5b505050506040513d601f19601f82011682018060405250810190610b859190611fec565b9050610b9b6001600160a01b03861682856115c0565b6000610ba68861174d565b9150506000836001600160a01b0316631dae94546040518163ffffffff1660e01b8152600401610bd590612009565b602060405180830381865afa158015610bf2573d6000803e3d6000fd5b505050506040513d601f19601f82011682018060405250810190610c169190611fec565b905080610c2d6001600160a01b03881682856115c0565b6004805460405163617ba03760e01b81526001600160a01b0391821692810192909252602482018590523060448301526000606483015282169063617ba03790608401600060405180830381600087803b158015610c8a57600080fd5b505af1158015610c9e573d6000803e3d6000fd5b505050506000891115610d265760035460405163a415bcad60e01b81526001600160a01b039182166004820152602481018b905260026044820152600060648201523060848201529082169063a415bcad9060a401600060405180830381600087803b158015610d0d57600080fd5b505af1158015610d21573d6000803e3d6000fd5b505050505b6040516370a0823160e01b81523060048201526000908a906001600160a01b038b16906370a0823190602401602060405180830381865afa158015610d6f573d6000803e3d6000fd5b505050506040513d601f19601f82011682018060405250810190610d9391906121fb565b610d9d9190612239565b90508015610dc157610dc1610db061186a565b6001600160a01b038b16908361196d565b60405163095ea7b360e01b81526001600160a01b038681166004830152600060248301528a169063095ea7b3906044016020604051808303816000875af1158015610e10573d6000803e3d6000fd5b505050506040513d601f19601f82011682018060405250810190610e34919061224c565b5060405163095ea7b360e01b81526001600160a01b0384811660048301526000602483015289169063095ea7b3906044015b6020604051808303816000875af1158015610e85573d6000803e3d6000fd5b505050506040513d601f19601f82011682018060405250810190610ea9919061224c565b5050505050505050505050505050565b600354600480546000805460405163076ba51560e21b81526001600160a01b03958616959384169491909316928391631dae945491610ef89101612009565b602060405180830381865afa158015610f15573d6000803e3d6000fd5b505050506040513d601f19601f82011682018060405250810190610f399190611fec565b9050808815610fdc57610f566001600160a01b038616838b6115c0565b60035460405163573ade8160e01b81526001600160a01b039182166004820152602481018b9052600260448201523060648201529082169063573ade81906084016020604051808303816000875af1158015610fb6573d6000803e3d6000fd5b505050506040513d601f19601f82011682018060405250810190610fda91906121fb565b505b600454600090610ff4906001600160a01b031661164a565b50905061100b6001600160a01b038216848b6115c0565b60048054604051631a4ca37b60e21b81526001600160a01b0391821692810192909252602482018b9052306044830152600091908416906369328dec906064016020604051808303816000875af115801561106a573d6000803e3d6000fd5b505050506040513d601f19601f8201168201806040525081019061108e91906121fb565b90506000856001600160a01b0316631dae94546040518163ffffffff1660e01b81526004016110bc90612214565b602060405180830381865afa1580156110d9573d6000803e3d6000fd5b505050506040513d601f19601f820116820180604052508101906110fd9190611fec565b90506111136001600160a01b03881682846115c0565b600061111e8b6119d1565b9150508915611160578981111561115b57600061113b8b83612239565b905061115961114861186a565b6001600160a01b038c16908361196d565b505b61116b565b61116b610db061186a565b60405163095ea7b360e01b81526001600160a01b038781166004830152600060248301528a169063095ea7b3906044016020604051808303816000875af11580156111ba573d6000803e3d6000fd5b505050506040513d601f19601f820116820180604052508101906111de919061224c565b5060405163095ea7b360e01b81526001600160a01b0383811660048301526000602483015289169063095ea7b390604401610e66565b600354600480546000805460405163076ba51560e21b81526001600160a01b03958616959384169491909316928391631dae9454916112539101612009565b602060405180830381865afa158015611270573d6000803e3d6000fd5b505050506040513d601f19601f820116820180604052508101906112949190611fec565b9050806112ab6001600160a01b038616828a6115c0565b60035460405163573ade8160e01b81526001600160a01b039182166004820152602481018a9052600260448201523060648201529082169063573ade81906084016020604051808303816000875af115801561130b573d6000803e3d6000fd5b505050506040513d601f19601f8201168201806040525081019061132f91906121fb565b50600454600090611348906001600160a01b031661164a565b506040516370a0823160e01b81523060048201529091506000906001600160a01b038316906370a0823190602401602060405180830381865afa158015611393573d6000803e3d6000fd5b505050506040513d601f19601f820116820180604052508101906113b791906121fb565b60048054604051631a4ca37b60e21b81526001600160a01b0391821692810192909252602482018390523060448301529192506000918516906369328dec906064016020604051808303816000875af1158015611418573d6000803e3d6000fd5b505050506040513d601f19601f8201168201806040525081019061143c91906121fb565b90506000866001600160a01b0316631dae94546040518163ffffffff1660e01b815260040161146a90612214565b602060405180830381865afa158015611487573d6000803e3d6000fd5b505050506040513d601f19601f820116820180604052508101906114ab9190611fec565b90506114c16001600160a01b03891682846115c0565b60006114cc8c6119d1565b9150508a811115611517576114eb6001600160a01b038b1688836115c0565b60006114f78c83612239565b905061151561150461186a565b6001600160a01b038d16908361196d565b505b60405163095ea7b360e01b81526001600160a01b038881166004830152600060248301528b169063095ea7b3906044016020604051808303816000875af1158015611566573d6000803e3d6000fd5b505050506040513d601f19601f8201168201806040525081019061158a919061224c565b5060405163095ea7b360e01b81526001600160a01b038381166004830152600060248301528a169063095ea7b390604401610e66565b604051636eb1769f60e11b81523060048201526001600160a01b0383811660248301526000919085169063dd62ed3e90604401602060405180830381865afa158015611610573d6000803e3d6000fd5b505050506040513d601f19601f8201168201806040525081019061163491906121fb565b90506106e884846116458585612046565b611aa1565b6000805460405163076ba51560e21b815282916001600160a01b03169082908290631dae94549061167d90600401612009565b602060405180830381865afa15801561169a573d6000803e3d6000fd5b505050506040513d601f19601f820116820180604052508101906116be9190611fec565b6040516335ea6a7560e01b81526001600160a01b0387811660048301529192508291600091908316906335ea6a75906024016101e060405180830381865afa15801561170e573d6000803e3d6000fd5b505050506040513d601f19601f8201168201806040525081019061173291906122f7565b61010081015161014090910151909890975095505050505050565b6003546040516370a0823160e01b8152306004820152600091829182916001600160a01b0316906370a0823190602401602060405180830381865afa15801561179a573d6000803e3d6000fd5b505050506040513d601f19601f820116820180604052508101906117be91906121fb565b905060006117cb85611b31565b9050808060200190518101906117e191906121fb565b6003546040516370a0823160e01b81523060048201529194506000916001600160a01b03909116906370a08231906024015b602060405180830381865afa158015611830573d6000803e3d6000fd5b505050506040513d601f19601f8201168201806040525081019061185491906121fb565b90506118608184612239565b9450505050915091565b60008054604051631324da8360e01b815260206004820152600c60248201526b13115591549051d157d3919560a21b604482015282916001600160a01b031690631324da8390606401602060405180830381865afa1580156118d0573d6000803e3d6000fd5b505050506040513d601f19601f820116820180604052508101906118f49190611fec565b6002546040516331a9108f60e11b8152600481019190915290915081906001600160a01b03821690636352211e90602401602060405180830381865afa158015611942573d6000803e3d6000fd5b505050506040513d601f19601f820116820180604052508101906119669190611fec565b9250505090565b6040516001600160a01b038381166024830152604482018390526119cc91859182169063a9059cbb906064015b604051602081830303815290604052915060e01b6020820180516001600160e01b038381831617835250505050611c32565b505050565b600480546040516370a0823160e01b81523092810192909252600091829182916001600160a01b03909116906370a0823190602401602060405180830381865afa158015611a23573d6000803e3d6000fd5b505050506040513d601f19601f82011682018060405250810190611a4791906121fb565b90506000611a5485611b31565b905080806020019051810190611a6a91906121fb565b600480546040516370a0823160e01b815230928101929092529194506000916001600160a01b0316906370a0823190602401611813565b604080516001600160a01b038416602482015260448082018490528251808303909101815260649091019091526020810180516001600160e01b031663095ea7b360e01b179052611af28482611ca7565b6106e8576040516001600160a01b03848116602483015260006044830152611b2791869182169063095ea7b39060640161199a565b6106e88482611c32565b6000805460405163076ba51560e21b81526060926001600160a01b0390921691908290631dae945490611b6690600401612214565b602060405180830381865afa158015611b83573d6000803e3d6000fd5b505050506040513d601f19601f82011682018060405250810190611ba79190611fec565b9050600080826001600160a01b031686604051611bc49190612423565b6000604051808303816000865af19150503d8060008114611c01576040519150601f19603f3d011682016040523d82523d6000602084013e611c06565b606091505b509150915081611c295760405163081ceff360e41b815260040160405180910390fd5b95945050505050565b600080602060008451602086016000885af180611c55576040513d6000823e3d81fd5b50506000513d91508115611c6d578060011415611c7a565b6001600160a01b0384163b155b156106e857604051635274afe760e01b81526001600160a01b038516600482015260240160405180910390fd5b6000806000806020600086516020880160008a5af192503d91506000519050828015611cec57508115611cdd5780600114611cec565b6000866001600160a01b03163b115b93505050505b92915050565b6001600160a01b0381168114611d0d57600080fd5b50565b60008083601f840112611d2257600080fd5b50813567ffffffffffffffff811115611d3a57600080fd5b602083019150836020828501011115611d5257600080fd5b9250929050565b60008060008060008060a08789031215611d7257600080fd5b8635611d7d81611cf8565b955060208701359450604087013593506060870135611d9b81611cf8565b9250608087013567ffffffffffffffff811115611db757600080fd5b611dc389828a01611d10565b979a9699509497509295939492505050565b60008060008060808587031215611deb57600080fd5b8435611df681611cf8565b9350602085013592506040850135611e0d81611cf8565b91506060850135611e1d81611cf8565b939692955090935050565b634e487b7160e01b600052604160045260246000fd5b6040516101e0810167ffffffffffffffff81118282101715611e6257611e62611e28565b60405290565b600082601f830112611e7957600080fd5b813567ffffffffffffffff811115611e9357611e93611e28565b604051601f8201601f19908116603f0116810167ffffffffffffffff81118282101715611ec257611ec2611e28565b604052818152838201602001851015611eda57600080fd5b816020850160208301376000918101602001919091529392505050565b600080600060608486031215611f0c57600080fd5b8335925060208401359150604084013567ffffffffffffffff811115611f3157600080fd5b611f3d86828701611e68565b9150509250925092565b60008060008060608587031215611f5d57600080fd5b8435935060208501359250604085013567ffffffffffffffff811115611f8257600080fd5b611f8e87828801611d10565b95989497509550505050565b60008060208385031215611fad57600080fd5b823567ffffffffffffffff811115611fc457600080fd5b611fd085828601611d10565b90969095509350505050565b8051611fe781611cf8565b919050565b600060208284031215611ffe57600080fd5b815161026d81611cf8565b6020808252600d908201526c16915493d311539117d413d3d3609a1b604082015260600190565b634e487b7160e01b600052601160045260246000fd5b80820180821115611cf257611cf2612030565b60008060006060848603121561206e57600080fd5b83356003811061207d57600080fd5b925060208401359150604084013567ffffffffffffffff811115611f3157600080fd5b634e487b7160e01b600052602160045260246000fd5b60208082526006908201526526a0a9aa22a960d11b604082015260600190565b600381106120f457634e487b7160e01b600052602160045260246000fd5b9052565b60005b838110156121135781810151838201526020016120fb565b50506000910152565b600081518084526121348160208601602086016120f8565b601f01601f19169290920160200192915050565b61215281856120d6565b826020820152606060408201526000611c29606083018461211c565b6001600160a01b038681168252851660208201526040810184905260a0606082018190526000906121a19083018561211c565b905061ffff831660808301529695505050505050565b6121c181866120d6565b83602082015260606040820152816060820152818360808301376000818301608090810191909152601f909201601f191601019392505050565b60006020828403121561220d57600080fd5b5051919050565b6020808252600b908201526a27a227a9afa927aaaa22a960a91b604082015260600190565b81810381811115611cf257611cf2612030565b60006020828403121561225e57600080fd5b8151801515811461026d57600080fd5b60006020828403121561228057600080fd5b6040516020810167ffffffffffffffff811182821017156122a3576122a3611e28565b6040529151825250919050565b80516fffffffffffffffffffffffffffffffff81168114611fe757600080fd5b805164ffffffffff81168114611fe757600080fd5b805161ffff81168114611fe757600080fd5b60006101e082840312801561230b57600080fd5b50612314611e3e565b61231e848461226e565b815261232c602084016122b0565b602082015261233d604084016122b0565b604082015261234e606084016122b0565b606082015261235f608084016122b0565b608082015261237060a084016122b0565b60a082015261238160c084016122d0565b60c082015261239260e084016122e5565b60e08201526123a46101008401611fdc565b6101008201526123b76101208401611fdc565b6101208201526123ca6101408401611fdc565b6101408201526123dd6101608401611fdc565b6101608201526123f061018084016122b0565b6101808201526124036101a084016122b0565b6101a08201526124166101c084016122b0565b6101c08201529392505050565b600082516124358184602087016120f8565b919091019291505056fea2646970667358221220b80db51362acba4219d697f1155686b0a4dae1ca14c6856f9f9b212c751d7d7664736f6c634300081a0033",
        "nonce": "0x12",
        "chainId": "0xe708"
      },
      "additionalContracts": [],
      "isFixedGasLimit": false
    },
    {
      "hash": "0x5c9a29cc83c515d7486a1accb5de72ccee7fcdfa5992df8bf9ce5a471890d6dc",
      "transactionType": "CALL",
      "contractName": "CentralRegistry",
      "contractAddress": "0x9a676e781a523b5d0c0e43731313a708cb607508",
      "function": "addCore(string,address)",
      "arguments": [
        "\"MASTER\"",
        "0x0B306BF915C4d645ff596e518fAf3F9669b97016"
      ],
      "transaction": {
        "from": "0xf39fd6e51aad88f6f4ce6ab8827279cfffb92266",
        "to": "0x9a676e781a523b5d0c0e43731313a708cb607508",
        "gas": "0xfd19",
        "value": "0x0",
        "input": "0xca8ef41c00000000000000000000000000000000000000000000000000000000000000400000000000000000000000000b306bf915c4d645ff596e518faf3f9669b9701600000000000000000000000000000000000000000000000000000000000000064d41535445520000000000000000000000000000000000000000000000000000",
        "nonce": "0x13",
        "chainId": "0xe708"
      },
      "additionalContracts": [],
      "isFixedGasLimit": false
    },
    {
      "hash": "0x267d6e8f1012b1500a1cef8379b9f928212fc8b989c907279cfcba5f45fe1c5c",
      "transactionType": "CALL",
      "contractName": "CentralRegistry",
      "contractAddress": "0x9a676e781a523b5d0c0e43731313a708cb607508",
      "function": "addCore(string,address)",
      "arguments": [
        "\"FACTORY\"",
        "0x959922bE3CAee4b8Cd9a407cc3ac1C251C2007B1"
      ],
      "transaction": {
        "from": "0xf39fd6e51aad88f6f4ce6ab8827279cfffb92266",
        "to": "0x9a676e781a523b5d0c0e43731313a708cb607508",
        "gas": "0x10c0f",
        "value": "0x0",
        "input": "0xca8ef41c0000000000000000000000000000000000000000000000000000000000000040000000000000000000000000959922be3caee4b8cd9a407cc3ac1c251c2007b10000000000000000000000000000000000000000000000000000000000000007464143544f525900000000000000000000000000000000000000000000000000",
        "nonce": "0x14",
        "chainId": "0xe708"
      },
      "additionalContracts": [],
      "isFixedGasLimit": false
    },
    {
      "hash": "0x36802228506da215a80f7fe4c83d0bea37db6a88e609ce146ee2daabeb3b7c21",
      "transactionType": "CALL",
      "contractName": "CentralRegistry",
      "contractAddress": "0x9a676e781a523b5d0c0e43731313a708cb607508",
      "function": "addCore(string,address)",
      "arguments": [
        "\"LEVERAGE_NFT\"",
        "0x9A9f2CCfdE556A7E9Ff0848998Aa4a0CFD8863AE"
      ],
      "transaction": {
        "from": "0xf39fd6e51aad88f6f4ce6ab8827279cfffb92266",
        "to": "0x9a676e781a523b5d0c0e43731313a708cb607508",
        "gas": "0xfd7d",
        "value": "0x0",
        "input": "0xca8ef41c00000000000000000000000000000000000000000000000000000000000000400000000000000000000000009a9f2ccfde556a7e9ff0848998aa4a0cfd8863ae000000000000000000000000000000000000000000000000000000000000000c4c455645524147455f4e46540000000000000000000000000000000000000000",
        "nonce": "0x15",
        "chainId": "0xe708"
      },
      "additionalContracts": [],
      "isFixedGasLimit": false
    },
    {
      "hash": "0x6cc722ee96732b61eeb8854783829c3e8bde485f4db8317f0aac53f509de036b",
      "transactionType": "CALL",
      "contractName": "CentralRegistry",
      "contractAddress": "0x9a676e781a523b5d0c0e43731313a708cb607508",
      "function": "addImplementation(string,address)",
      "arguments": [
        "\"LONG_QUOTE_ODOS_ZEROLEND\"",
        "0x68B1D87F95878fE05B998F19b66F4baba5De1aed"
      ],
      "transaction": {
        "from": "0xf39fd6e51aad88f6f4ce6ab8827279cfffb92266",
        "to": "0x9a676e781a523b5d0c0e43731313a708cb607508",
        "gas": "0x10d7b",
        "value": "0x0",
        "input": "0x75637505000000000000000000000000000000000000000000000000000000000000004000000000000000000000000068b1d87f95878fe05b998f19b66f4baba5de1aed00000000000000000000000000000000000000000000000000000000000000184c4f4e475f51554f54455f4f444f535f5a45524f4c454e440000000000000000",
        "nonce": "0x16",
        "chainId": "0xe708"
      },
      "additionalContracts": [],
      "isFixedGasLimit": false
    },
    {
      "hash": "0x2024213a4c3fe07eafd1cde2dec1541e1b39e6e9f48a6d6fb0b4bc96dbaa5b5e",
      "transactionType": "CALL",
      "contractName": "CentralRegistry",
      "contractAddress": "0x9a676e781a523b5d0c0e43731313a708cb607508",
      "function": "addProtocol(string,address)",
      "arguments": [
        "\"ODOS_ROUTER\"",
        "0x2d8879046f1559E53eb052E949e9544bCB72f414"
      ],
      "transaction": {
        "from": "0xf39fd6e51aad88f6f4ce6ab8827279cfffb92266",
        "to": "0x9a676e781a523b5d0c0e43731313a708cb607508",
        "gas": "0xfd8b",
        "value": "0x0",
        "input": "0xd90bb72900000000000000000000000000000000000000000000000000000000000000400000000000000000000000002d8879046f1559e53eb052e949e9544bcb72f414000000000000000000000000000000000000000000000000000000000000000b4f444f535f524f55544552000000000000000000000000000000000000000000",
        "nonce": "0x17",
        "chainId": "0xe708"
      },
      "additionalContracts": [],
      "isFixedGasLimit": false
    },
    {
      "hash": "0xbc4dfecd5152fa8cae91eb41f02dfa1b117a0c6bcffe79b618fe988f0d7eec80",
      "transactionType": "CALL",
      "contractName": "CentralRegistry",
      "contractAddress": "0x9a676e781a523b5d0c0e43731313a708cb607508",
      "function": "addProtocol(string,address)",
      "arguments": [
        "\"ZEROLEND_POOL\"",
        "0x2f9bB73a8e98793e26Cb2F6C4ad037BDf1C6B269"
      ],
      "transaction": {
        "from": "0xf39fd6e51aad88f6f4ce6ab8827279cfffb92266",
        "to": "0x9a676e781a523b5d0c0e43731313a708cb607508",
        "gas": "0xfdac",
        "value": "0x0",
        "input": "0xd90bb72900000000000000000000000000000000000000000000000000000000000000400000000000000000000000002f9bb73a8e98793e26cb2f6c4ad037bdf1c6b269000000000000000000000000000000000000000000000000000000000000000d5a45524f4c454e445f504f4f4c00000000000000000000000000000000000000",
        "nonce": "0x18",
        "chainId": "0xe708"
      },
      "additionalContracts": [],
      "isFixedGasLimit": false
    },
    {
      "hash": "0x020e69f7931a75f6dbe3571994231fd7b6601eafbb6dc5227b81a689e37803ea",
      "transactionType": "CALL",
      "contractName": null,
      "contractAddress": "0xe5d7c2a44ffddf6b295a15c148167daaaf5cf34f",
      "function": "deposit()",
      "arguments": [],
      "transaction": {
        "from": "0xf39fd6e51aad88f6f4ce6ab8827279cfffb92266",
        "to": "0xe5d7c2a44ffddf6b295a15c148167daaaf5cf34f",
        "gas": "0xf2ff",
        "value": "0x8ac7230489e80000",
        "input": "0xd0e30db0",
        "nonce": "0x19",
        "chainId": "0xe708"
      },
      "additionalContracts": [],
      "isFixedGasLimit": false
    },
    {
      "hash": "0x91acc8c97ad87865e8881ca9917be921a26ad43b4d677d82056598507631c364",
      "transactionType": "CALL",
      "contractName": null,
      "contractAddress": "0xe5d7c2a44ffddf6b295a15c148167daaaf5cf34f",
      "function": "approve(address,uint256)",
      "arguments": [
        "0x2d8879046f1559E53eb052E949e9544bCB72f414",
        "115792089237316195423570985008687907853269984665640564039457584007913129639935"
      ],
      "transaction": {
        "from": "0xf39fd6e51aad88f6f4ce6ab8827279cfffb92266",
        "to": "0xe5d7c2a44ffddf6b295a15c148167daaaf5cf34f",
        "gas": "0xfa27",
        "value": "0x0",
        "input": "0x095ea7b30000000000000000000000002d8879046f1559e53eb052e949e9544bcb72f414ffffffffffffffffffffffffffffffffffffffffffffffffffffffffffffffff",
        "nonce": "0x1a",
        "chainId": "0xe708"
      },
      "additionalContracts": [],
      "isFixedGasLimit": false
    },
    {
      "hash": "0xdf48d15ee8aec9673aa6fd7ea7c3d7e9cc1ac3a389d5c7e643a778c851d76d28",
      "transactionType": "CALL",
      "contractName": null,
      "contractAddress": "0x2d8879046f1559e53eb052e949e9544bcb72f414",
      "function": null,
      "arguments": null,
      "transaction": {
        "from": "0xf39fd6e51aad88f6f4ce6ab8827279cfffb92266",
        "to": "0x2d8879046f1559e53eb052e949e9544bcb72f414",
        "gas": "0x1ae613",
        "value": "0x0",
        "input": "0x83bd37f90001e5d7c2a44ffddf6b295a15c148167daaaf5cf34f0001176211869ca2b568f2a7d4ee941e073a821ee1ff080de0b6b3a7640000048c56043b028f5c000156c85a254dd12ee8d9c04049a4ab62769ce9821000000001f39fd6e51aad88f6f4ce6ab8827279cfffb92266000000000a03030b012da12ed40a0101010200016cf7b3c10a01010302000154dd7b840a0101040200013f22a20a0a0101050200017f0e5bed0d0101060200017df39752100101010702000a0200080200040a0101090a00ff0000000000000000000000003cb104f044db23d6513f2a6100a1997fa5e3f587e5d7c2a44ffddf6b295a15c148167daaaf5cf34f64bccad8e7302e81b09894f56f6bba85ae82cd03586733678b9ac9da43dd7cb83bbb41d23677dfc37077f0cff76077d0ebb335b607db5744005105575615a7b1619980f7d6b5e7f69f3dc093dfe0c95cdded227d71a096c6b5d87807c1b5c456771aaa941947b87d35e9f1cd53cede1ad6f7be44c12212b86e9ad0b8a41e2c148e7b0385d3ecbfdb8a216a9ba219439258ca9da29e9cc4ce5596924745e12b93000000000000000000000000000000000000000000000000",
        "nonce": "0x1b",
        "chainId": "0xe708"
      },
      "additionalContracts": [],
      "isFixedGasLimit": false
    },
    {
      "hash": "0x2d2f8efbdeba10290bf90f24321d15a4f8527e549defd2c1e88330e2de18c8c1",
      "transactionType": "CALL",
      "contractName": null,
      "contractAddress": "0x176211869ca2b568f2a7d4ee941e073a821ee1ff",
      "function": "approve(address,uint256)",
      "arguments": [
        "0x0B306BF915C4d645ff596e518fAf3F9669b97016",
        "115792089237316195423570985008687907853269984665640564039457584007913129639935"
      ],
      "transaction": {
        "from": "0xf39fd6e51aad88f6f4ce6ab8827279cfffb92266",
        "to": "0x176211869ca2b568f2a7d4ee941e073a821ee1ff",
        "gas": "0x144c0",
        "value": "0x0",
        "input": "0x095ea7b30000000000000000000000000b306bf915c4d645ff596e518faf3f9669b97016ffffffffffffffffffffffffffffffffffffffffffffffffffffffffffffffff",
        "nonce": "0x1c",
        "chainId": "0xe708"
      },
      "additionalContracts": [],
      "isFixedGasLimit": false
    }
  ],
  "receipts": [
    {
      "status": "0x1",
      "cumulativeGasUsed": "0x52a0a",
      "logs": [],
      "logsBloom": "0x00000000000000000000000000000000000000000000000000000000000000000000000000000000000000000000000000000000000000000000000000000000000000000000000000000000000000000000000000000000000000000000000000000000000000000000000000000000000000000000000000000000000000000000000000000000000000000000000000000000000000000000000000000000000000000000000000000000000000000000000000000000000000000000000000000000000000000000000000000000000000000000000000000000000000000000000000000000000000000000000000000000000000000000000000000000",
      "type": "0x2",
      "transactionHash": "0x140edd8be35803c62b9c764f5db2a9b2a7b8103111ba4f3357db14270e140df0",
      "transactionIndex": "0x0",
      "blockHash": "0xea4520611b426009bd98fe66476bc42078f5f5ac78b32574065f491755eb7b1b",
      "blockNumber": "0x8e94b3",
      "gasUsed": "0x52a0a",
      "effectiveGasPrice": "0x3938707",
      "blobGasPrice": "0x1",
      "from": "0xf39fd6e51aad88f6f4ce6ab8827279cfffb92266",
      "to": null,
      "contractAddress": "0x9a676e781a523b5d0c0e43731313a708cb607508",
      "root": "0x0000000000000000000000000000000000000000000000000000000000000000"
    },
    {
      "status": "0x1",
      "cumulativeGasUsed": "0x10c172",
      "logs": [],
      "logsBloom": "0x00000000000000000000000000000000000000000000000000000000000000000000000000000000000000000000000000000000000000000000000000000000000000000000000000000000000000000000000000000000000000000000000000000000000000000000000000000000000000000000000000000000000000000000000000000000000000000000000000000000000000000000000000000000000000000000000000000000000000000000000000000000000000000000000000000000000000000000000000000000000000000000000000000000000000000000000000000000000000000000000000000000000000000000000000000000",
      "type": "0x2",
      "transactionHash": "0xd6f1c6b7cb95570ace8c46b0ce0787b8e92ab0dccf2c2365d6cc948c93c06696",
      "transactionIndex": "0x0",
      "blockHash": "0x8ae5deabf3436a5fb69f238674f7f4fd27f77be41136670684d4f35624459094",
      "blockNumber": "0x8e94b4",
      "gasUsed": "0x10c172",
      "effectiveGasPrice": "0x3938707",
      "blobGasPrice": "0x1",
      "from": "0xf39fd6e51aad88f6f4ce6ab8827279cfffb92266",
      "to": null,
      "contractAddress": "0x0b306bf915c4d645ff596e518faf3f9669b97016",
      "root": "0x0000000000000000000000000000000000000000000000000000000000000000"
    },
    {
      "status": "0x1",
      "cumulativeGasUsed": "0x6e927",
      "logs": [],
      "logsBloom": "0x00000000000000000000000000000000000000000000000000000000000000000000000000000000000000000000000000000000000000000000000000000000000000000000000000000000000000000000000000000000000000000000000000000000000000000000000000000000000000000000000000000000000000000000000000000000000000000000000000000000000000000000000000000000000000000000000000000000000000000000000000000000000000000000000000000000000000000000000000000000000000000000000000000000000000000000000000000000000000000000000000000000000000000000000000000000",
      "type": "0x2",
      "transactionHash": "0xb69d5fcbef86d3db447b8f89ffa16567ebd12f9db2ac9a3b7e9ceaa05cb37280",
      "transactionIndex": "0x0",
      "blockHash": "0xe804b03b53f3eabd2f6f55dcb26d6c5a4671cdbd4d77c7c4c07da07f5594ae9c",
      "blockNumber": "0x8e94b5",
      "gasUsed": "0x6e927",
      "effectiveGasPrice": "0x3938707",
      "blobGasPrice": "0x1",
      "from": "0xf39fd6e51aad88f6f4ce6ab8827279cfffb92266",
      "to": null,
      "contractAddress": "0x959922be3caee4b8cd9a407cc3ac1c251c2007b1",
      "root": "0x0000000000000000000000000000000000000000000000000000000000000000"
    },
    {
      "status": "0x1",
      "cumulativeGasUsed": "0x16e4e5",
      "logs": [],
      "logsBloom": "0x00000000000000000000000000000000000000000000000000000000000000000000000000000000000000000000000000000000000000000000000000000000000000000000000000000000000000000000000000000000000000000000000000000000000000000000000000000000000000000000000000000000000000000000000000000000000000000000000000000000000000000000000000000000000000000000000000000000000000000000000000000000000000000000000000000000000000000000000000000000000000000000000000000000000000000000000000000000000000000000000000000000000000000000000000000000",
      "type": "0x2",
      "transactionHash": "0xa41118bc8622e8e46efdedbf28f5726c31a29648e2feeac27883f262e88c6419",
      "transactionIndex": "0x1",
      "blockHash": "0xe804b03b53f3eabd2f6f55dcb26d6c5a4671cdbd4d77c7c4c07da07f5594ae9c",
      "blockNumber": "0x8e94b5",
      "gasUsed": "0xffbbe",
      "effectiveGasPrice": "0x3938707",
      "blobGasPrice": "0x1",
      "from": "0xf39fd6e51aad88f6f4ce6ab8827279cfffb92266",
      "to": null,
      "contractAddress": "0x9a9f2ccfde556a7e9ff0848998aa4a0cfd8863ae",
      "root": "0x0000000000000000000000000000000000000000000000000000000000000000"
    },
    {
      "status": "0x1",
      "cumulativeGasUsed": "0x367594",
      "logs": [],
      "logsBloom": "0x00000000000000000000000000000000000000000000000000000000000000000000000000000000000000000000000000000000000000000000000000000000000000000000000000000000000000000000000000000000000000000000000000000000000000000000000000000000000000000000000000000000000000000000000000000000000000000000000000000000000000000000000000000000000000000000000000000000000000000000000000000000000000000000000000000000000000000000000000000000000000000000000000000000000000000000000000000000000000000000000000000000000000000000000000000000",
      "type": "0x2",
      "transactionHash": "0x9d820ddbf2511053548afbaf3afbadad5e3c06d2b87a68fd5595afc7090ac89f",
      "transactionIndex": "0x2",
      "blockHash": "0xe804b03b53f3eabd2f6f55dcb26d6c5a4671cdbd4d77c7c4c07da07f5594ae9c",
      "blockNumber": "0x8e94b5",
      "gasUsed": "0x1f90af",
      "effectiveGasPrice": "0x3938707",
      "blobGasPrice": "0x1",
      "from": "0xf39fd6e51aad88f6f4ce6ab8827279cfffb92266",
      "to": null,
      "contractAddress": "0x68b1d87f95878fe05b998f19b66f4baba5de1aed",
      "root": "0x0000000000000000000000000000000000000000000000000000000000000000"
    },
    {
      "status": "0x1",
      "cumulativeGasUsed": "0x372cd2",
      "logs": [],
      "logsBloom": "0x00000000000000000000000000000000000000000000000000000000000000000000000000000000000000000000000000000000000000000000000000000000000000000000000000000000000000000000000000000000000000000000000000000000000000000000000000000000000000000000000000000000000000000000000000000000000000000000000000000000000000000000000000000000000000000000000000000000000000000000000000000000000000000000000000000000000000000000000000000000000000000000000000000000000000000000000000000000000000000000000000000000000000000000000000000000",
      "type": "0x2",
      "transactionHash": "0x5c9a29cc83c515d7486a1accb5de72ccee7fcdfa5992df8bf9ce5a471890d6dc",
      "transactionIndex": "0x3",
      "blockHash": "0xe804b03b53f3eabd2f6f55dcb26d6c5a4671cdbd4d77c7c4c07da07f5594ae9c",
      "blockNumber": "0x8e94b5",
      "gasUsed": "0xb73e",
      "effectiveGasPrice": "0x3938707",
      "blobGasPrice": "0x1",
      "from": "0xf39fd6e51aad88f6f4ce6ab8827279cfffb92266",
      "to": "0x9a676e781a523b5d0c0e43731313a708cb607508",
      "contractAddress": null,
      "root": "0x0000000000000000000000000000000000000000000000000000000000000000"
    },
    {
      "status": "0x1",
      "cumulativeGasUsed": "0x37e41c",
      "logs": [],
      "logsBloom": "0x00000000000000000000000000000000000000000000000000000000000000000000000000000000000000000000000000000000000000000000000000000000000000000000000000000000000000000000000000000000000000000000000000000000000000000000000000000000000000000000000000000000000000000000000000000000000000000000000000000000000000000000000000000000000000000000000000000000000000000000000000000000000000000000000000000000000000000000000000000000000000000000000000000000000000000000000000000000000000000000000000000000000000000000000000000000",
      "type": "0x2",
      "transactionHash": "0x267d6e8f1012b1500a1cef8379b9f928212fc8b989c907279cfcba5f45fe1c5c",
      "transactionIndex": "0x4",
      "blockHash": "0xe804b03b53f3eabd2f6f55dcb26d6c5a4671cdbd4d77c7c4c07da07f5594ae9c",
      "blockNumber": "0x8e94b5",
      "gasUsed": "0xb74a",
      "effectiveGasPrice": "0x3938707",
      "blobGasPrice": "0x1",
      "from": "0xf39fd6e51aad88f6f4ce6ab8827279cfffb92266",
      "to": "0x9a676e781a523b5d0c0e43731313a708cb607508",
      "contractAddress": null,
      "root": "0x0000000000000000000000000000000000000000000000000000000000000000"
    },
    {
      "status": "0x1",
      "cumulativeGasUsed": "0x389ba2",
      "logs": [],
      "logsBloom": "0x00000000000000000000000000000000000000000000000000000000000000000000000000000000000000000000000000000000000000000000000000000000000000000000000000000000000000000000000000000000000000000000000000000000000000000000000000000000000000000000000000000000000000000000000000000000000000000000000000000000000000000000000000000000000000000000000000000000000000000000000000000000000000000000000000000000000000000000000000000000000000000000000000000000000000000000000000000000000000000000000000000000000000000000000000000000",
      "type": "0x2",
      "transactionHash": "0x36802228506da215a80f7fe4c83d0bea37db6a88e609ce146ee2daabeb3b7c21",
      "transactionIndex": "0x5",
      "blockHash": "0xe804b03b53f3eabd2f6f55dcb26d6c5a4671cdbd4d77c7c4c07da07f5594ae9c",
      "blockNumber": "0x8e94b5",
      "gasUsed": "0xb786",
      "effectiveGasPrice": "0x3938707",
      "blobGasPrice": "0x1",
      "from": "0xf39fd6e51aad88f6f4ce6ab8827279cfffb92266",
      "to": "0x9a676e781a523b5d0c0e43731313a708cb607508",
      "contractAddress": null,
      "root": "0x0000000000000000000000000000000000000000000000000000000000000000"
    },
    {
      "status": "0x1",
      "cumulativeGasUsed": "0xb843",
      "logs": [],
      "logsBloom": "0x00000000000000000000000000000000000000000000000000000000000000000000000000000000000000000000000000000000000000000000000000000000000000000000000000000000000000000000000000000000000000000000000000000000000000000000000000000000000000000000000000000000000000000000000000000000000000000000000000000000000000000000000000000000000000000000000000000000000000000000000000000000000000000000000000000000000000000000000000000000000000000000000000000000000000000000000000000000000000000000000000000000000000000000000000000000",
      "type": "0x2",
      "transactionHash": "0x6cc722ee96732b61eeb8854783829c3e8bde485f4db8317f0aac53f509de036b",
      "transactionIndex": "0x0",
      "blockHash": "0x84730ab0dec2215d8c6084f343d933af23ecf2adef054588e866532500785879",
      "blockNumber": "0x8e94b6",
      "gasUsed": "0xb843",
      "effectiveGasPrice": "0x3938707",
      "blobGasPrice": "0x1",
      "from": "0xf39fd6e51aad88f6f4ce6ab8827279cfffb92266",
      "to": "0x9a676e781a523b5d0c0e43731313a708cb607508",
      "contractAddress": null,
      "root": "0x0000000000000000000000000000000000000000000000000000000000000000"
    },
    {
      "status": "0x1",
      "cumulativeGasUsed": "0x16fd3",
      "logs": [],
      "logsBloom": "0x00000000000000000000000000000000000000000000000000000000000000000000000000000000000000000000000000000000000000000000000000000000000000000000000000000000000000000000000000000000000000000000000000000000000000000000000000000000000000000000000000000000000000000000000000000000000000000000000000000000000000000000000000000000000000000000000000000000000000000000000000000000000000000000000000000000000000000000000000000000000000000000000000000000000000000000000000000000000000000000000000000000000000000000000000000000",
      "type": "0x2",
      "transactionHash": "0x2024213a4c3fe07eafd1cde2dec1541e1b39e6e9f48a6d6fb0b4bc96dbaa5b5e",
      "transactionIndex": "0x1",
      "blockHash": "0x84730ab0dec2215d8c6084f343d933af23ecf2adef054588e866532500785879",
      "blockNumber": "0x8e94b6",
      "gasUsed": "0xb790",
      "effectiveGasPrice": "0x3938707",
      "blobGasPrice": "0x1",
      "from": "0xf39fd6e51aad88f6f4ce6ab8827279cfffb92266",
      "to": "0x9a676e781a523b5d0c0e43731313a708cb607508",
      "contractAddress": null,
      "root": "0x0000000000000000000000000000000000000000000000000000000000000000"
    },
    {
      "status": "0x1",
      "cumulativeGasUsed": "0x2277b",
      "logs": [],
      "logsBloom": "0x00000000000000000000000000000000000000000000000000000000000000000000000000000000000000000000000000000000000000000000000000000000000000000000000000000000000000000000000000000000000000000000000000000000000000000000000000000000000000000000000000000000000000000000000000000000000000000000000000000000000000000000000000000000000000000000000000000000000000000000000000000000000000000000000000000000000000000000000000000000000000000000000000000000000000000000000000000000000000000000000000000000000000000000000000000000",
      "type": "0x2",
      "transactionHash": "0xbc4dfecd5152fa8cae91eb41f02dfa1b117a0c6bcffe79b618fe988f0d7eec80",
      "transactionIndex": "0x2",
      "blockHash": "0x84730ab0dec2215d8c6084f343d933af23ecf2adef054588e866532500785879",
      "blockNumber": "0x8e94b6",
      "gasUsed": "0xb7a8",
      "effectiveGasPrice": "0x3938707",
      "blobGasPrice": "0x1",
      "from": "0xf39fd6e51aad88f6f4ce6ab8827279cfffb92266",
      "to": "0x9a676e781a523b5d0c0e43731313a708cb607508",
      "contractAddress": null,
      "root": "0x0000000000000000000000000000000000000000000000000000000000000000"
    },
    {
      "status": "0x1",
      "cumulativeGasUsed": "0x2d769",
      "logs": [
        {
          "address": "0xe5d7c2a44ffddf6b295a15c148167daaaf5cf34f",
          "topics": [
            "0xe1fffcc4923d04b559f4d29a8bfc6cda04eb5b0d3c460751c2402c5c5cc9109c",
            "0x000000000000000000000000f39fd6e51aad88f6f4ce6ab8827279cfffb92266"
          ],
          "data": "0x0000000000000000000000000000000000000000000000008ac7230489e80000",
          "blockHash": "0x84730ab0dec2215d8c6084f343d933af23ecf2adef054588e866532500785879",
          "blockNumber": "0x8e94b6",
          "blockTimestamp": "0x66e24163",
          "transactionHash": "0x020e69f7931a75f6dbe3571994231fd7b6601eafbb6dc5227b81a689e37803ea",
          "transactionIndex": "0x3",
          "logIndex": "0x0",
          "removed": false
        }
      ],
      "logsBloom": "0x0000000000000000000000000000000000000000000000000000000000000000000000000000000000000000000000000000000000000000000000000000000000000000000000000000000000000000000000000000000000000000800000000000000000000000000000010000000000000000000000000000000000000000000000000000000000100000000000000000000100000000000000000000000000000000000000000000000000000000000000000000000000000000200000000000000000000020000000000000000000000000a000000000000000000000000000000000000000000000000000000000000000000000400000000000000000",
      "type": "0x2",
      "transactionHash": "0x020e69f7931a75f6dbe3571994231fd7b6601eafbb6dc5227b81a689e37803ea",
      "transactionIndex": "0x3",
      "blockHash": "0x84730ab0dec2215d8c6084f343d933af23ecf2adef054588e866532500785879",
      "blockNumber": "0x8e94b6",
      "gasUsed": "0xafee",
      "effectiveGasPrice": "0x3938707",
      "blobGasPrice": "0x1",
      "from": "0xf39fd6e51aad88f6f4ce6ab8827279cfffb92266",
      "to": "0xe5d7c2a44ffddf6b295a15c148167daaaf5cf34f",
      "contractAddress": null,
      "root": "0x0000000000000000000000000000000000000000000000000000000000000000"
    },
    {
      "status": "0x1",
      "cumulativeGasUsed": "0xb51c",
      "logs": [
        {
          "address": "0xe5d7c2a44ffddf6b295a15c148167daaaf5cf34f",
          "topics": [
            "0x8c5be1e5ebec7d5bd14f71427d1e84f3dd0314c0f7b2291e5b200ac8c7c3b925",
            "0x000000000000000000000000f39fd6e51aad88f6f4ce6ab8827279cfffb92266",
            "0x0000000000000000000000002d8879046f1559e53eb052e949e9544bcb72f414"
          ],
          "data": "0xffffffffffffffffffffffffffffffffffffffffffffffffffffffffffffffff",
          "blockHash": "0x40715f748706000c87e8728fcd6c2e0006661790a04b7cc8275e8c01c8efb9f1",
          "blockNumber": "0x8e94b7",
          "blockTimestamp": "0x66e24164",
          "transactionHash": "0x91acc8c97ad87865e8881ca9917be921a26ad43b4d677d82056598507631c364",
          "transactionIndex": "0x0",
          "logIndex": "0x0",
          "removed": false
        }
      ],
      "logsBloom": "0x0000000000000000000000000000000000000000000000000000000000000000000000000000000000001000000000000000000000000000000000000020000000000000000000000000000000000000000000000000000000000000000000000000000000000000008000010000000000000000000000000000000000000000000000000000000000100000000000000000000000000000000000000000000002000000020000000000000000000000000000000000000000000000200000000000000000000020000000000000000000000000a000000000000000000000000010000000000000000000000000000000000000000000000000000000000000",
      "type": "0x2",
      "transactionHash": "0x91acc8c97ad87865e8881ca9917be921a26ad43b4d677d82056598507631c364",
      "transactionIndex": "0x0",
      "blockHash": "0x40715f748706000c87e8728fcd6c2e0006661790a04b7cc8275e8c01c8efb9f1",
      "blockNumber": "0x8e94b7",
      "gasUsed": "0xb51c",
      "effectiveGasPrice": "0x3938707",
      "blobGasPrice": "0x1",
      "from": "0xf39fd6e51aad88f6f4ce6ab8827279cfffb92266",
      "to": "0xe5d7c2a44ffddf6b295a15c148167daaaf5cf34f",
      "contractAddress": null,
      "root": "0x0000000000000000000000000000000000000000000000000000000000000000"
    },
    {
      "status": "0x1",
      "cumulativeGasUsed": "0x14482a",
      "logs": [
        {
          "address": "0xe5d7c2a44ffddf6b295a15c148167daaaf5cf34f",
          "topics": [
            "0xddf252ad1be2c89b69c2b068fc378daa952ba7f163c4a11628f55a4df523b3ef",
            "0x000000000000000000000000f39fd6e51aad88f6f4ce6ab8827279cfffb92266",
            "0x00000000000000000000000056c85a254dd12ee8d9c04049a4ab62769ce98210"
          ],
          "data": "0x0000000000000000000000000000000000000000000000000de0b6b3a7640000",
          "blockHash": "0x40715f748706000c87e8728fcd6c2e0006661790a04b7cc8275e8c01c8efb9f1",
          "blockNumber": "0x8e94b7",
          "blockTimestamp": "0x66e24164",
          "transactionHash": "0xdf48d15ee8aec9673aa6fd7ea7c3d7e9cc1ac3a389d5c7e643a778c851d76d28",
          "transactionIndex": "0x1",
          "logIndex": "0x1",
          "removed": false
        },
        {
          "address": "0x3cb104f044db23d6513f2a6100a1997fa5e3f587",
          "topics": [
            "0x598b9f043c813aa6be3426ca60d1c65d17256312890be5118dab55b0775ebe2a"
          ],
          "data": "0x00000000000000000000000000000000000000000000000000000000000003ab",
          "blockHash": "0x40715f748706000c87e8728fcd6c2e0006661790a04b7cc8275e8c01c8efb9f1",
          "blockNumber": "0x8e94b7",
          "blockTimestamp": "0x66e24164",
          "transactionHash": "0xdf48d15ee8aec9673aa6fd7ea7c3d7e9cc1ac3a389d5c7e643a778c851d76d28",
          "transactionIndex": "0x1",
          "logIndex": "0x2",
          "removed": false
        },
        {
          "address": "0x176211869ca2b568f2a7d4ee941e073a821ee1ff",
          "topics": [
            "0xddf252ad1be2c89b69c2b068fc378daa952ba7f163c4a11628f55a4df523b3ef",
            "0x0000000000000000000000003cb104f044db23d6513f2a6100a1997fa5e3f587",
            "0x0000000000000000000000002d8879046f1559e53eb052e949e9544bcb72f414"
          ],
          "data": "0x0000000000000000000000000000000000000000000000000000000019002be3",
          "blockHash": "0x40715f748706000c87e8728fcd6c2e0006661790a04b7cc8275e8c01c8efb9f1",
          "blockNumber": "0x8e94b7",
          "blockTimestamp": "0x66e24164",
          "transactionHash": "0xdf48d15ee8aec9673aa6fd7ea7c3d7e9cc1ac3a389d5c7e643a778c851d76d28",
          "transactionIndex": "0x1",
          "logIndex": "0x3",
          "removed": false
        },
        {
          "address": "0xe5d7c2a44ffddf6b295a15c148167daaaf5cf34f",
          "topics": [
            "0xddf252ad1be2c89b69c2b068fc378daa952ba7f163c4a11628f55a4df523b3ef",
            "0x00000000000000000000000056c85a254dd12ee8d9c04049a4ab62769ce98210",
            "0x0000000000000000000000003cb104f044db23d6513f2a6100a1997fa5e3f587"
          ],
          "data": "0x00000000000000000000000000000000000000000000000002793cfa5a546ebe",
          "blockHash": "0x40715f748706000c87e8728fcd6c2e0006661790a04b7cc8275e8c01c8efb9f1",
          "blockNumber": "0x8e94b7",
          "blockTimestamp": "0x66e24164",
          "transactionHash": "0xdf48d15ee8aec9673aa6fd7ea7c3d7e9cc1ac3a389d5c7e643a778c851d76d28",
          "transactionIndex": "0x1",
          "logIndex": "0x4",
          "removed": false
        },
        {
          "address": "0xe5d7c2a44ffddf6b295a15c148167daaaf5cf34f",
          "topics": [
            "0xddf252ad1be2c89b69c2b068fc378daa952ba7f163c4a11628f55a4df523b3ef",
            "0x0000000000000000000000003cb104f044db23d6513f2a6100a1997fa5e3f587",
            "0x0000000000000000000000001d8b6fa722230153be08c4fa4aa4b4c7cd01a95a"
          ],
          "data": "0x000000000000000000000000000000000000000000000000000004910d58d2ff",
          "blockHash": "0x40715f748706000c87e8728fcd6c2e0006661790a04b7cc8275e8c01c8efb9f1",
          "blockNumber": "0x8e94b7",
          "blockTimestamp": "0x66e24164",
          "transactionHash": "0xdf48d15ee8aec9673aa6fd7ea7c3d7e9cc1ac3a389d5c7e643a778c851d76d28",
          "transactionIndex": "0x1",
          "logIndex": "0x5",
          "removed": false
        },
        {
          "address": "0x3cb104f044db23d6513f2a6100a1997fa5e3f587",
          "topics": [
            "0xc42079f94a6350d7e6235f29174924f928cc2ac818eb64fed8004e115fbcca67",
            "0x00000000000000000000000056c85a254dd12ee8d9c04049a4ab62769ce98210",
            "0x0000000000000000000000002d8879046f1559e53eb052e949e9544bcb72f414"
          ],
          "data": "0xffffffffffffffffffffffffffffffffffffffffffffffffffffffffe6ffd41d00000000000000000000000000000000000000000000000002793cfa5a546ebe000000000000000000000000000000000000507cb85adf1664519e1ceb69998900000000000000000000000000000000000000000000000008920666af6100670000000000000000000000000000000000000000000000000000000000030813",
          "blockHash": "0x40715f748706000c87e8728fcd6c2e0006661790a04b7cc8275e8c01c8efb9f1",
          "blockNumber": "0x8e94b7",
          "blockTimestamp": "0x66e24164",
          "transactionHash": "0xdf48d15ee8aec9673aa6fd7ea7c3d7e9cc1ac3a389d5c7e643a778c851d76d28",
          "transactionIndex": "0x1",
          "logIndex": "0x6",
          "removed": false
        },
        {
          "address": "0x176211869ca2b568f2a7d4ee941e073a821ee1ff",
          "topics": [
            "0xddf252ad1be2c89b69c2b068fc378daa952ba7f163c4a11628f55a4df523b3ef",
            "0x00000000000000000000000064bccad8e7302e81b09894f56f6bba85ae82cd03",
            "0x0000000000000000000000002d8879046f1559e53eb052e949e9544bcb72f414"
          ],
          "data": "0x00000000000000000000000000000000000000000000000000000000310f4694",
          "blockHash": "0x40715f748706000c87e8728fcd6c2e0006661790a04b7cc8275e8c01c8efb9f1",
          "blockNumber": "0x8e94b7",
          "blockTimestamp": "0x66e24164",
          "transactionHash": "0xdf48d15ee8aec9673aa6fd7ea7c3d7e9cc1ac3a389d5c7e643a778c851d76d28",
          "transactionIndex": "0x1",
          "logIndex": "0x7",
          "removed": false
        },
        {
          "address": "0xe5d7c2a44ffddf6b295a15c148167daaaf5cf34f",
          "topics": [
            "0xddf252ad1be2c89b69c2b068fc378daa952ba7f163c4a11628f55a4df523b3ef",
            "0x00000000000000000000000056c85a254dd12ee8d9c04049a4ab62769ce98210",
            "0x00000000000000000000000064bccad8e7302e81b09894f56f6bba85ae82cd03"
          ],
          "data": "0x00000000000000000000000000000000000000000000000004dab032916b40e1",
          "blockHash": "0x40715f748706000c87e8728fcd6c2e0006661790a04b7cc8275e8c01c8efb9f1",
          "blockNumber": "0x8e94b7",
          "blockTimestamp": "0x66e24164",
          "transactionHash": "0xdf48d15ee8aec9673aa6fd7ea7c3d7e9cc1ac3a389d5c7e643a778c851d76d28",
          "transactionIndex": "0x1",
          "logIndex": "0x8",
          "removed": false
        },
        {
          "address": "0x64bccad8e7302e81b09894f56f6bba85ae82cd03",
          "topics": [
            "0xc42079f94a6350d7e6235f29174924f928cc2ac818eb64fed8004e115fbcca67",
            "0x00000000000000000000000056c85a254dd12ee8d9c04049a4ab62769ce98210",
            "0x0000000000000000000000002d8879046f1559e53eb052e949e9544bcb72f414"
          ],
          "data": "0xffffffffffffffffffffffffffffffffffffffffffffffffffffffffcef0b96c00000000000000000000000000000000000000000000000004dab032916b40e1000000000000000000000000000000000000507e4dcd29d612cb94d6b31720560000000000000000000000000000000000000000000000000306c27848259ed20000000000000000000000000000000000000000000000000000000000030814",
          "blockHash": "0x40715f748706000c87e8728fcd6c2e0006661790a04b7cc8275e8c01c8efb9f1",
          "blockNumber": "0x8e94b7",
          "blockTimestamp": "0x66e24164",
          "transactionHash": "0xdf48d15ee8aec9673aa6fd7ea7c3d7e9cc1ac3a389d5c7e643a778c851d76d28",
          "transactionIndex": "0x1",
          "logIndex": "0x9",
          "removed": false
        },
        {
          "address": "0x176211869ca2b568f2a7d4ee941e073a821ee1ff",
          "topics": [
            "0xddf252ad1be2c89b69c2b068fc378daa952ba7f163c4a11628f55a4df523b3ef",
            "0x000000000000000000000000586733678b9ac9da43dd7cb83bbb41d23677dfc3",
            "0x0000000000000000000000002d8879046f1559e53eb052e949e9544bcb72f414"
          ],
          "data": "0x0000000000000000000000000000000000000000000000000000000015f7356d",
          "blockHash": "0x40715f748706000c87e8728fcd6c2e0006661790a04b7cc8275e8c01c8efb9f1",
          "blockNumber": "0x8e94b7",
          "blockTimestamp": "0x66e24164",
          "transactionHash": "0xdf48d15ee8aec9673aa6fd7ea7c3d7e9cc1ac3a389d5c7e643a778c851d76d28",
          "transactionIndex": "0x1",
          "logIndex": "0xa",
          "removed": false
        },
        {
          "address": "0xe5d7c2a44ffddf6b295a15c148167daaaf5cf34f",
          "topics": [
            "0xddf252ad1be2c89b69c2b068fc378daa952ba7f163c4a11628f55a4df523b3ef",
            "0x00000000000000000000000056c85a254dd12ee8d9c04049a4ab62769ce98210",
            "0x000000000000000000000000586733678b9ac9da43dd7cb83bbb41d23677dfc3"
          ],
          "data": "0x000000000000000000000000000000000000000000000000022bdcd3344d8cd9",
          "blockHash": "0x40715f748706000c87e8728fcd6c2e0006661790a04b7cc8275e8c01c8efb9f1",
          "blockNumber": "0x8e94b7",
          "blockTimestamp": "0x66e24164",
          "transactionHash": "0xdf48d15ee8aec9673aa6fd7ea7c3d7e9cc1ac3a389d5c7e643a778c851d76d28",
          "transactionIndex": "0x1",
          "logIndex": "0xb",
          "removed": false
        },
        {
          "address": "0x586733678b9ac9da43dd7cb83bbb41d23677dfc3",
          "topics": [
            "0x19b47279256b2a23a1665c810c8d55a1758940ee09377d4f8d26497a3577dc83",
            "0x00000000000000000000000056c85a254dd12ee8d9c04049a4ab62769ce98210",
            "0x0000000000000000000000002d8879046f1559e53eb052e949e9544bcb72f414"
          ],
          "data": "0xffffffffffffffffffffffffffffffffffffffffffffffffffffffffea08ca93000000000000000000000000000000000000000000000000022bdcd3344d8cd9000000000000000000000000000000000000508037206b654d88f2753007fae20000000000000000000000000000000000000000000000000040b1edc62c1e8b00000000000000000000000000000000000000000000000000000000000308160000000000000000000000000000000000000000000000000000000000000000000000000000000000000000000000000000000000000000000004b228496228",
          "blockHash": "0x40715f748706000c87e8728fcd6c2e0006661790a04b7cc8275e8c01c8efb9f1",
          "blockNumber": "0x8e94b7",
          "blockTimestamp": "0x66e24164",
          "transactionHash": "0xdf48d15ee8aec9673aa6fd7ea7c3d7e9cc1ac3a389d5c7e643a778c851d76d28",
          "transactionIndex": "0x1",
          "logIndex": "0xc",
          "removed": false
        },
        {
          "address": "0x176211869ca2b568f2a7d4ee941e073a821ee1ff",
          "topics": [
            "0xddf252ad1be2c89b69c2b068fc378daa952ba7f163c4a11628f55a4df523b3ef",
            "0x0000000000000000000000007077f0cff76077d0ebb335b607db574400510557",
            "0x0000000000000000000000002d8879046f1559e53eb052e949e9544bcb72f414"
          ],
          "data": "0x000000000000000000000000000000000000000000000000000000000aea9459",
          "blockHash": "0x40715f748706000c87e8728fcd6c2e0006661790a04b7cc8275e8c01c8efb9f1",
          "blockNumber": "0x8e94b7",
          "blockTimestamp": "0x66e24164",
          "transactionHash": "0xdf48d15ee8aec9673aa6fd7ea7c3d7e9cc1ac3a389d5c7e643a778c851d76d28",
          "transactionIndex": "0x1",
          "logIndex": "0xd",
          "removed": false
        },
        {
          "address": "0xe5d7c2a44ffddf6b295a15c148167daaaf5cf34f",
          "topics": [
            "0xddf252ad1be2c89b69c2b068fc378daa952ba7f163c4a11628f55a4df523b3ef",
            "0x00000000000000000000000056c85a254dd12ee8d9c04049a4ab62769ce98210",
            "0x0000000000000000000000007077f0cff76077d0ebb335b607db574400510557"
          ],
          "data": "0x000000000000000000000000000000000000000000000000011471e51fb92e4c",
          "blockHash": "0x40715f748706000c87e8728fcd6c2e0006661790a04b7cc8275e8c01c8efb9f1",
          "blockNumber": "0x8e94b7",
          "blockTimestamp": "0x66e24164",
          "transactionHash": "0xdf48d15ee8aec9673aa6fd7ea7c3d7e9cc1ac3a389d5c7e643a778c851d76d28",
          "transactionIndex": "0x1",
          "logIndex": "0xe",
          "removed": false
        },
        {
          "address": "0x7077f0cff76077d0ebb335b607db574400510557",
          "topics": [
            "0xc42079f94a6350d7e6235f29174924f928cc2ac818eb64fed8004e115fbcca67",
            "0x00000000000000000000000056c85a254dd12ee8d9c04049a4ab62769ce98210",
            "0x0000000000000000000000002d8879046f1559e53eb052e949e9544bcb72f414"
          ],
          "data": "0xfffffffffffffffffffffffffffffffffffffffffffffffffffffffff5156ba7000000000000000000000000000000000000000000000000011471e51fb92e4c00000000000000000000000000000000000050821b738bf7f5c0af0fe5d27e4a000000000000000000000000000000000000000000000000002e5116468b0fb40000000000000000000000000000000000000000000000000000000000030818",
          "blockHash": "0x40715f748706000c87e8728fcd6c2e0006661790a04b7cc8275e8c01c8efb9f1",
          "blockNumber": "0x8e94b7",
          "blockTimestamp": "0x66e24164",
          "transactionHash": "0xdf48d15ee8aec9673aa6fd7ea7c3d7e9cc1ac3a389d5c7e643a778c851d76d28",
          "transactionIndex": "0x1",
          "logIndex": "0xf",
          "removed": false
        },
        {
          "address": "0x176211869ca2b568f2a7d4ee941e073a821ee1ff",
          "topics": [
            "0xddf252ad1be2c89b69c2b068fc378daa952ba7f163c4a11628f55a4df523b3ef",
            "0x0000000000000000000000005615a7b1619980f7d6b5e7f69f3dc093dfe0c95c",
            "0x0000000000000000000000002d8879046f1559e53eb052e949e9544bcb72f414"
          ],
          "data": "0x00000000000000000000000000000000000000000000000000000000108d4583",
          "blockHash": "0x40715f748706000c87e8728fcd6c2e0006661790a04b7cc8275e8c01c8efb9f1",
          "blockNumber": "0x8e94b7",
          "blockTimestamp": "0x66e24164",
          "transactionHash": "0xdf48d15ee8aec9673aa6fd7ea7c3d7e9cc1ac3a389d5c7e643a778c851d76d28",
          "transactionIndex": "0x1",
          "logIndex": "0x10",
          "removed": false
        },
        {
          "address": "0xe5d7c2a44ffddf6b295a15c148167daaaf5cf34f",
          "topics": [
            "0xddf252ad1be2c89b69c2b068fc378daa952ba7f163c4a11628f55a4df523b3ef",
            "0x00000000000000000000000056c85a254dd12ee8d9c04049a4ab62769ce98210",
            "0x0000000000000000000000005615a7b1619980f7d6b5e7f69f3dc093dfe0c95c"
          ],
          "data": "0x00000000000000000000000000000000000000000000000001a3204a5a25d6bd",
          "blockHash": "0x40715f748706000c87e8728fcd6c2e0006661790a04b7cc8275e8c01c8efb9f1",
          "blockNumber": "0x8e94b7",
          "blockTimestamp": "0x66e24164",
          "transactionHash": "0xdf48d15ee8aec9673aa6fd7ea7c3d7e9cc1ac3a389d5c7e643a778c851d76d28",
          "transactionIndex": "0x1",
          "logIndex": "0x11",
          "removed": false
        },
        {
          "address": "0x5615a7b1619980f7d6b5e7f69f3dc093dfe0c95c",
          "topics": [
            "0x0fe977d619f8172f7fdbe8bb8928ef80952817d96936509f67d66346bc4cd10f",
            "0x000000000000000000000000176211869ca2b568f2a7d4ee941e073a821ee1ff",
            "0x000000000000000000000000e5d7c2a44ffddf6b295a15c148167daaaf5cf34f",
            "0x00000000000000000000000000000000000000000000000000000000000001f4"
          ],
          "data": "0x000000000000000000000000000000000000000000000000000000000000000000000000000000000000000000000000000000000000000000000000108d458300000000000000000000000000000000000000000000000001a3204a5a25d6bd0000000000000000000000000000000000000000000000000000000000030817",
          "blockHash": "0x40715f748706000c87e8728fcd6c2e0006661790a04b7cc8275e8c01c8efb9f1",
          "blockNumber": "0x8e94b7",
          "blockTimestamp": "0x66e24164",
          "transactionHash": "0xdf48d15ee8aec9673aa6fd7ea7c3d7e9cc1ac3a389d5c7e643a778c851d76d28",
          "transactionIndex": "0x1",
          "logIndex": "0x12",
          "removed": false
        },
        {
          "address": "0xe5d7c2a44ffddf6b295a15c148167daaaf5cf34f",
          "topics": [
            "0xddf252ad1be2c89b69c2b068fc378daa952ba7f163c4a11628f55a4df523b3ef",
            "0x00000000000000000000000056c85a254dd12ee8d9c04049a4ab62769ce98210",
            "0x000000000000000000000000f39fd6e51aad88f6f4ce6ab8827279cfffb92266"
          ],
          "data": "0x00000000000000000000000000000000000000000000000000000000000010d4",
          "blockHash": "0x40715f748706000c87e8728fcd6c2e0006661790a04b7cc8275e8c01c8efb9f1",
          "blockNumber": "0x8e94b7",
          "blockTimestamp": "0x66e24164",
          "transactionHash": "0xdf48d15ee8aec9673aa6fd7ea7c3d7e9cc1ac3a389d5c7e643a778c851d76d28",
          "transactionIndex": "0x1",
          "logIndex": "0x13",
          "removed": false
        },
        {
          "address": "0xe5d7c2a44ffddf6b295a15c148167daaaf5cf34f",
          "topics": [
            "0xddf252ad1be2c89b69c2b068fc378daa952ba7f163c4a11628f55a4df523b3ef",
            "0x00000000000000000000000056c85a254dd12ee8d9c04049a4ab62769ce98210",
            "0x000000000000000000000000dded227d71a096c6b5d87807c1b5c456771aaa94"
          ],
          "data": "0x00000000000000000000000000000000000000000000000000d145eed28f1aa4",
          "blockHash": "0x40715f748706000c87e8728fcd6c2e0006661790a04b7cc8275e8c01c8efb9f1",
          "blockNumber": "0x8e94b7",
          "blockTimestamp": "0x66e24164",
          "transactionHash": "0xdf48d15ee8aec9673aa6fd7ea7c3d7e9cc1ac3a389d5c7e643a778c851d76d28",
          "transactionIndex": "0x1",
          "logIndex": "0x14",
          "removed": false
        },
        {
          "address": "0xdded227d71a096c6b5d87807c1b5c456771aaa94",
          "topics": [
            "0xd78ad95fa46c994b6551d0da85fc275fe613ce37657fb8d5e3d130840159d822",
            "0x00000000000000000000000056c85a254dd12ee8d9c04049a4ab62769ce98210",
            "0x0000000000000000000000002d8879046f1559e53eb052e949e9544bcb72f414"
          ],
          "data": "0x000000000000000000000000000000000000000000000000000000000000000000000000000000000000000000000000000000000000000000d145eed28f1aa4000000000000000000000000000000000000000000000000000000000842f7720000000000000000000000000000000000000000000000000000000000000000",
          "blockHash": "0x40715f748706000c87e8728fcd6c2e0006661790a04b7cc8275e8c01c8efb9f1",
          "blockNumber": "0x8e94b7",
          "blockTimestamp": "0x66e24164",
          "transactionHash": "0xdf48d15ee8aec9673aa6fd7ea7c3d7e9cc1ac3a389d5c7e643a778c851d76d28",
          "transactionIndex": "0x1",
          "logIndex": "0x15",
          "removed": false
        },
        {
          "address": "0xdded227d71a096c6b5d87807c1b5c456771aaa94",
          "topics": [
            "0xa6205f24a082c01e6c705e20c1a026c246eedf9800b87b84440f05e8271aaf27"
          ],
          "data": "0x000000000000000000000000000000000000000000000000000000000004013e0000000000000000000000000000000000000000000000000000000000000000",
          "blockHash": "0x40715f748706000c87e8728fcd6c2e0006661790a04b7cc8275e8c01c8efb9f1",
          "blockNumber": "0x8e94b7",
          "blockTimestamp": "0x66e24164",
          "transactionHash": "0xdf48d15ee8aec9673aa6fd7ea7c3d7e9cc1ac3a389d5c7e643a778c851d76d28",
          "transactionIndex": "0x1",
          "logIndex": "0x16",
          "removed": false
        },
        {
          "address": "0xdded227d71a096c6b5d87807c1b5c456771aaa94",
          "topics": [
            "0x9e4e1b03f35e9c0cd24e1dfac3528faaaf88b254e1530b0090ce33f9d7597033"
          ],
          "data": "0x0000000000000000000000000000000000000000000058b46bd3f3ee990823bc",
          "blockHash": "0x40715f748706000c87e8728fcd6c2e0006661790a04b7cc8275e8c01c8efb9f1",
          "blockNumber": "0x8e94b7",
          "blockTimestamp": "0x66e24164",
          "transactionHash": "0xdf48d15ee8aec9673aa6fd7ea7c3d7e9cc1ac3a389d5c7e643a778c851d76d28",
          "transactionIndex": "0x1",
          "logIndex": "0x17",
          "removed": false
        },
        {
          "address": "0xdded227d71a096c6b5d87807c1b5c456771aaa94",
          "topics": [
            "0x4d2cbcbcdaca7676a354e7297481cf51e67a13c8c07ad1c42928605c8ea522d0"
          ],
          "data": "0x0000000000000000000000000000000000000000000000000e12a04e2f7fd5e10000000000000000000000000000000000000000000000000df567499108dc2e",
          "blockHash": "0x40715f748706000c87e8728fcd6c2e0006661790a04b7cc8275e8c01c8efb9f1",
          "blockNumber": "0x8e94b7",
          "blockTimestamp": "0x66e24164",
          "transactionHash": "0xdf48d15ee8aec9673aa6fd7ea7c3d7e9cc1ac3a389d5c7e643a778c851d76d28",
          "transactionIndex": "0x1",
          "logIndex": "0x18",
          "removed": false
        },
        {
          "address": "0xdded227d71a096c6b5d87807c1b5c456771aaa94",
          "topics": [
            "0xcf2aa50876cdfbb541206f89af0ee78d44a2abf8d328e37fa4917f982149848a"
          ],
          "data": "0x0000000000000000000000000000000000000000000000000000002d62a4c079000000000000000000000000000000000000000000000004fd62805239b69b5f",
          "blockHash": "0x40715f748706000c87e8728fcd6c2e0006661790a04b7cc8275e8c01c8efb9f1",
          "blockNumber": "0x8e94b7",
          "blockTimestamp": "0x66e24164",
          "transactionHash": "0xdf48d15ee8aec9673aa6fd7ea7c3d7e9cc1ac3a389d5c7e643a778c851d76d28",
          "transactionIndex": "0x1",
          "logIndex": "0x19",
          "removed": false
        },
        {
          "address": "0x176211869ca2b568f2a7d4ee941e073a821ee1ff",
          "topics": [
            "0xddf252ad1be2c89b69c2b068fc378daa952ba7f163c4a11628f55a4df523b3ef",
            "0x000000000000000000000000dded227d71a096c6b5d87807c1b5c456771aaa94",
            "0x0000000000000000000000002d8879046f1559e53eb052e949e9544bcb72f414"
          ],
          "data": "0x000000000000000000000000000000000000000000000000000000000842f772",
          "blockHash": "0x40715f748706000c87e8728fcd6c2e0006661790a04b7cc8275e8c01c8efb9f1",
          "blockNumber": "0x8e94b7",
          "blockTimestamp": "0x66e24164",
          "transactionHash": "0xdf48d15ee8aec9673aa6fd7ea7c3d7e9cc1ac3a389d5c7e643a778c851d76d28",
          "transactionIndex": "0x1",
          "logIndex": "0x1a",
          "removed": false
        },
        {
          "address": "0xdded227d71a096c6b5d87807c1b5c456771aaa94",
          "topics": [
            "0xaa077b6dc26efdfd606d4340c04a5a222ff968ec199f0b184f4c0f7a5c8e8d71",
            "0x00000000000000000000000056c85a254dd12ee8d9c04049a4ab62769ce98210",
            "0x00000000000000000000000056c85a254dd12ee8d9c04049a4ab62769ce98210",
            "0x000000000000000000000000176211869ca2b568f2a7d4ee941e073a821ee1ff"
          ],
          "data": "0x00000000000000000000000000000000000000000000000000d145eed28f1aa4000000000000000000000000000000000000000000000000000000000842f77200000000000000000000000000000000000000000000000000000000000000bd0000000000000000000000002d8879046f1559e53eb052e949e9544bcb72f414",
          "blockHash": "0x40715f748706000c87e8728fcd6c2e0006661790a04b7cc8275e8c01c8efb9f1",
          "blockNumber": "0x8e94b7",
          "blockTimestamp": "0x66e24164",
          "transactionHash": "0xdf48d15ee8aec9673aa6fd7ea7c3d7e9cc1ac3a389d5c7e643a778c851d76d28",
          "transactionIndex": "0x1",
          "logIndex": "0x1b",
          "removed": false
        },
        {
          "address": "0xa219439258ca9da29e9cc4ce5596924745e12b93",
          "topics": [
            "0xddf252ad1be2c89b69c2b068fc378daa952ba7f163c4a11628f55a4df523b3ef",
            "0x0000000000000000000000001947b87d35e9f1cd53cede1ad6f7be44c12212b8",
            "0x00000000000000000000000056c85a254dd12ee8d9c04049a4ab62769ce98210"
          ],
          "data": "0x000000000000000000000000000000000000000000000000000000000888c91b",
          "blockHash": "0x40715f748706000c87e8728fcd6c2e0006661790a04b7cc8275e8c01c8efb9f1",
          "blockNumber": "0x8e94b7",
          "blockTimestamp": "0x66e24164",
          "transactionHash": "0xdf48d15ee8aec9673aa6fd7ea7c3d7e9cc1ac3a389d5c7e643a778c851d76d28",
          "transactionIndex": "0x1",
          "logIndex": "0x1c",
          "removed": false
        },
        {
          "address": "0xe5d7c2a44ffddf6b295a15c148167daaaf5cf34f",
          "topics": [
            "0xddf252ad1be2c89b69c2b068fc378daa952ba7f163c4a11628f55a4df523b3ef",
            "0x00000000000000000000000056c85a254dd12ee8d9c04049a4ab62769ce98210",
            "0x0000000000000000000000001947b87d35e9f1cd53cede1ad6f7be44c12212b8"
          ],
          "data": "0x00000000000000000000000000000000000000000000000000d814953ae89307",
          "blockHash": "0x40715f748706000c87e8728fcd6c2e0006661790a04b7cc8275e8c01c8efb9f1",
          "blockNumber": "0x8e94b7",
          "blockTimestamp": "0x66e24164",
          "transactionHash": "0xdf48d15ee8aec9673aa6fd7ea7c3d7e9cc1ac3a389d5c7e643a778c851d76d28",
          "transactionIndex": "0x1",
          "logIndex": "0x1d",
          "removed": false
        },
        {
          "address": "0x1947b87d35e9f1cd53cede1ad6f7be44c12212b8",
          "topics": [
            "0x19b47279256b2a23a1665c810c8d55a1758940ee09377d4f8d26497a3577dc83",
            "0x00000000000000000000000056c85a254dd12ee8d9c04049a4ab62769ce98210",
            "0x00000000000000000000000056c85a254dd12ee8d9c04049a4ab62769ce98210"
          ],
          "data": "0xfffffffffffffffffffffffffffffffffffffffffffffffffffffffff77736e500000000000000000000000000000000000000000000000000d814953ae893070000000000000000000000000000000000005084f77c4ee14eeeeed01ca0d78a000000000000000000000000000000000000000000000000001cd03b5c7029dd000000000000000000000000000000000000000000000000000000000003081b0000000000000000000000000000000000000000000000000000000000000000000000000000000000000000000000000000000000000000000001d35082962c",
          "blockHash": "0x40715f748706000c87e8728fcd6c2e0006661790a04b7cc8275e8c01c8efb9f1",
          "blockNumber": "0x8e94b7",
          "blockTimestamp": "0x66e24164",
          "transactionHash": "0xdf48d15ee8aec9673aa6fd7ea7c3d7e9cc1ac3a389d5c7e643a778c851d76d28",
          "transactionIndex": "0x1",
          "logIndex": "0x1e",
          "removed": false
        },
        {
          "address": "0x6e9ad0b8a41e2c148e7b0385d3ecbfdb8a216a9b",
          "topics": [
            "0x598b9f043c813aa6be3426ca60d1c65d17256312890be5118dab55b0775ebe2a"
          ],
          "data": "0x0000000000000000000000000000000000000000000000000000000000000032",
          "blockHash": "0x40715f748706000c87e8728fcd6c2e0006661790a04b7cc8275e8c01c8efb9f1",
          "blockNumber": "0x8e94b7",
          "blockTimestamp": "0x66e24164",
          "transactionHash": "0xdf48d15ee8aec9673aa6fd7ea7c3d7e9cc1ac3a389d5c7e643a778c851d76d28",
          "transactionIndex": "0x1",
          "logIndex": "0x1f",
          "removed": false
        },
        {
          "address": "0x176211869ca2b568f2a7d4ee941e073a821ee1ff",
          "topics": [
            "0xddf252ad1be2c89b69c2b068fc378daa952ba7f163c4a11628f55a4df523b3ef",
            "0x0000000000000000000000006e9ad0b8a41e2c148e7b0385d3ecbfdb8a216a9b",
            "0x0000000000000000000000002d8879046f1559e53eb052e949e9544bcb72f414"
          ],
          "data": "0x000000000000000000000000000000000000000000000000000000000888cefd",
          "blockHash": "0x40715f748706000c87e8728fcd6c2e0006661790a04b7cc8275e8c01c8efb9f1",
          "blockNumber": "0x8e94b7",
          "blockTimestamp": "0x66e24164",
          "transactionHash": "0xdf48d15ee8aec9673aa6fd7ea7c3d7e9cc1ac3a389d5c7e643a778c851d76d28",
          "transactionIndex": "0x1",
          "logIndex": "0x20",
          "removed": false
        },
        {
          "address": "0xa219439258ca9da29e9cc4ce5596924745e12b93",
          "topics": [
            "0xddf252ad1be2c89b69c2b068fc378daa952ba7f163c4a11628f55a4df523b3ef",
            "0x00000000000000000000000056c85a254dd12ee8d9c04049a4ab62769ce98210",
            "0x0000000000000000000000006e9ad0b8a41e2c148e7b0385d3ecbfdb8a216a9b"
          ],
          "data": "0x000000000000000000000000000000000000000000000000000000000888c91b",
          "blockHash": "0x40715f748706000c87e8728fcd6c2e0006661790a04b7cc8275e8c01c8efb9f1",
          "blockNumber": "0x8e94b7",
          "blockTimestamp": "0x66e24164",
          "transactionHash": "0xdf48d15ee8aec9673aa6fd7ea7c3d7e9cc1ac3a389d5c7e643a778c851d76d28",
          "transactionIndex": "0x1",
          "logIndex": "0x21",
          "removed": false
        },
        {
          "address": "0xa219439258ca9da29e9cc4ce5596924745e12b93",
          "topics": [
            "0xddf252ad1be2c89b69c2b068fc378daa952ba7f163c4a11628f55a4df523b3ef",
            "0x0000000000000000000000006e9ad0b8a41e2c148e7b0385d3ecbfdb8a216a9b",
            "0x0000000000000000000000001d8b6fa722230153be08c4fa4aa4b4c7cd01a95a"
          ],
          "data": "0x00000000000000000000000000000000000000000000000000000000000000d6",
          "blockHash": "0x40715f748706000c87e8728fcd6c2e0006661790a04b7cc8275e8c01c8efb9f1",
          "blockNumber": "0x8e94b7",
          "blockTimestamp": "0x66e24164",
          "transactionHash": "0xdf48d15ee8aec9673aa6fd7ea7c3d7e9cc1ac3a389d5c7e643a778c851d76d28",
          "transactionIndex": "0x1",
          "logIndex": "0x22",
          "removed": false
        },
        {
          "address": "0x6e9ad0b8a41e2c148e7b0385d3ecbfdb8a216a9b",
          "topics": [
            "0xc42079f94a6350d7e6235f29174924f928cc2ac818eb64fed8004e115fbcca67",
            "0x00000000000000000000000056c85a254dd12ee8d9c04049a4ab62769ce98210",
            "0x0000000000000000000000002d8879046f1559e53eb052e949e9544bcb72f414"
          ],
          "data": "0xfffffffffffffffffffffffffffffffffffffffffffffffffffffffff7773103000000000000000000000000000000000000000000000000000000000888c91b0000000000000000000000000000000000000000fffe04c1234d44c34fbec2050000000000000000000000000000000000000000000000000008c3a844eff813ffffffffffffffffffffffffffffffffffffffffffffffffffffffffffffffff",
          "blockHash": "0x40715f748706000c87e8728fcd6c2e0006661790a04b7cc8275e8c01c8efb9f1",
          "blockNumber": "0x8e94b7",
          "blockTimestamp": "0x66e24164",
          "transactionHash": "0xdf48d15ee8aec9673aa6fd7ea7c3d7e9cc1ac3a389d5c7e643a778c851d76d28",
          "transactionIndex": "0x1",
          "logIndex": "0x23",
          "removed": false
        },
        {
          "address": "0x176211869ca2b568f2a7d4ee941e073a821ee1ff",
          "topics": [
            "0xddf252ad1be2c89b69c2b068fc378daa952ba7f163c4a11628f55a4df523b3ef",
            "0x0000000000000000000000002d8879046f1559e53eb052e949e9544bcb72f414",
            "0x000000000000000000000000f39fd6e51aad88f6f4ce6ab8827279cfffb92266"
          ],
          "data": "0x000000000000000000000000000000000000000000000000000000008c4a482f",
          "blockHash": "0x40715f748706000c87e8728fcd6c2e0006661790a04b7cc8275e8c01c8efb9f1",
          "blockNumber": "0x8e94b7",
          "blockTimestamp": "0x66e24164",
          "transactionHash": "0xdf48d15ee8aec9673aa6fd7ea7c3d7e9cc1ac3a389d5c7e643a778c851d76d28",
          "transactionIndex": "0x1",
          "logIndex": "0x24",
          "removed": false
        },
        {
          "address": "0x2d8879046f1559e53eb052e949e9544bcb72f414",
          "topics": [
            "0x823eaf01002d7353fbcadb2ea3305cc46fa35d799cb0914846d185ac06f8ad05"
          ],
          "data": "0x000000000000000000000000f39fd6e51aad88f6f4ce6ab8827279cfffb922660000000000000000000000000000000000000000000000000de0b6b3a7640000000000000000000000000000e5d7c2a44ffddf6b295a15c148167daaaf5cf34f000000000000000000000000000000000000000000000000000000008c4a482f000000000000000000000000176211869ca2b568f2a7d4ee941e073a821ee1fffffffffffffffffffffffffffffffffffffffffffffffffffffffffffff443f40000000000000000000000000000000000000000000000000000000000000000",
          "blockHash": "0x40715f748706000c87e8728fcd6c2e0006661790a04b7cc8275e8c01c8efb9f1",
          "blockNumber": "0x8e94b7",
          "blockTimestamp": "0x66e24164",
          "transactionHash": "0xdf48d15ee8aec9673aa6fd7ea7c3d7e9cc1ac3a389d5c7e643a778c851d76d28",
          "transactionIndex": "0x1",
          "logIndex": "0x25",
          "removed": false
        }
      ],
      "logsBloom": "0x00200000004000000000000080040000000000002000008008000000000000000400840000000004200010800012800002004a000400200400040000040040000c000200304080080008000802001030000000000000000020000001000000000080000200140000008000012000000184000000020000000100001000480000000002000008000000101084000000200010900400000000000008440000000000000000020000140000000000000000000000020000000100000000a000000000500022080000a0020008448080110000020000a2000c0000000000000008000000000200000000020000000000000080000021020002000240000000000060",
      "type": "0x2",
      "transactionHash": "0xdf48d15ee8aec9673aa6fd7ea7c3d7e9cc1ac3a389d5c7e643a778c851d76d28",
      "transactionIndex": "0x1",
      "blockHash": "0x40715f748706000c87e8728fcd6c2e0006661790a04b7cc8275e8c01c8efb9f1",
      "blockNumber": "0x8e94b7",
      "gasUsed": "0x13930e",
      "effectiveGasPrice": "0x3938707",
      "blobGasPrice": "0x1",
      "from": "0xf39fd6e51aad88f6f4ce6ab8827279cfffb92266",
      "to": "0x2d8879046f1559e53eb052e949e9544bcb72f414",
      "contractAddress": null,
      "root": "0x0000000000000000000000000000000000000000000000000000000000000000"
    },
    {
      "status": "0x1",
      "cumulativeGasUsed": "0xeb1e",
      "logs": [
        {
          "address": "0x176211869ca2b568f2a7d4ee941e073a821ee1ff",
          "topics": [
            "0x8c5be1e5ebec7d5bd14f71427d1e84f3dd0314c0f7b2291e5b200ac8c7c3b925",
            "0x000000000000000000000000f39fd6e51aad88f6f4ce6ab8827279cfffb92266",
            "0x0000000000000000000000000b306bf915c4d645ff596e518faf3f9669b97016"
          ],
          "data": "0xffffffffffffffffffffffffffffffffffffffffffffffffffffffffffffffff",
          "blockHash": "0x5686fe5f499476d3bf291f20bca0976589189d46119eb5703e559d3632e846c9",
          "blockNumber": "0x8e94b8",
          "blockTimestamp": "0x66e24165",
          "transactionHash": "0x2d2f8efbdeba10290bf90f24321d15a4f8527e549defd2c1e88330e2de18c8c1",
          "transactionIndex": "0x0",
          "logIndex": "0x0",
          "removed": false
        }
      ],
      "logsBloom": "0x00000000000000000000000000000008000000000000000000000000000000000000000000000000000000000000000000000800000000000004000000200000000000000000000000000000020000000000000000000000000000000000000000000000000000000000000300000000000000000000000000000000000000000000000000000000000000000000000000000000000000000000000000000000020000000000000000000000000000000000000000000000000000000000000000000000000000200000000000000000000000002000000000000000000000000010000000000000000000000400000000000000000000000000000000000000",
      "type": "0x2",
      "transactionHash": "0x2d2f8efbdeba10290bf90f24321d15a4f8527e549defd2c1e88330e2de18c8c1",
      "transactionIndex": "0x0",
      "blockHash": "0x5686fe5f499476d3bf291f20bca0976589189d46119eb5703e559d3632e846c9",
      "blockNumber": "0x8e94b8",
      "gasUsed": "0xeb1e",
      "effectiveGasPrice": "0x3938707",
      "blobGasPrice": "0x1",
      "from": "0xf39fd6e51aad88f6f4ce6ab8827279cfffb92266",
      "to": "0x176211869ca2b568f2a7d4ee941e073a821ee1ff",
      "contractAddress": null,
      "root": "0x0000000000000000000000000000000000000000000000000000000000000000"
    }
  ],
  "libraries": [],
  "pending": [],
  "returns": {},
  "timestamp": 1726103904,
  "chain": 59144,
  "commit": "4a57ec2"
}