{
  "transactions": [
    {
      "hash": "0xbe286381499099d2d864b06e4fd38b583659f4a8602f9da06af696d87148f933",
      "transactionType": "CALL",
      "contractName": null,
      "contractAddress": "0xe5d7c2a44ffddf6b295a15c148167daaaf5cf34f",
      "function": "deposit()",
      "arguments": [],
      "transaction": {
        "from": "0xf39fd6e51aad88f6f4ce6ab8827279cfffb92266",
        "to": "0xe5d7c2a44ffddf6b295a15c148167daaaf5cf34f",
        "gas": "0xf2ff",
        "value": "0xde0b6b3a7640000",
        "input": "0xd0e30db0",
        "nonce": "0x1f",
        "chainId": "0xe708"
      },
      "additionalContracts": [],
      "isFixedGasLimit": false
    },
    {
      "hash": "0x778359ba070ca99265b53fb99043b6b6d2a94f5f9b90a551707fe29bab270be5",
      "transactionType": "CALL",
      "contractName": null,
      "contractAddress": "0xe5d7c2a44ffddf6b295a15c148167daaaf5cf34f",
      "function": "approve(address,uint256)",
      "arguments": [
        "0x2d8879046f1559E53eb052E949e9544bCB72f414",
        "115792089237316195423570985008687907853269984665640564039457584007913129639935"
      ],
      "transaction": {
        "from": "0xf39fd6e51aad88f6f4ce6ab8827279cfffb92266",
        "to": "0xe5d7c2a44ffddf6b295a15c148167daaaf5cf34f",
        "gas": "0xfa27",
        "value": "0x0",
        "input": "0x095ea7b30000000000000000000000002d8879046f1559e53eb052e949e9544bcb72f414ffffffffffffffffffffffffffffffffffffffffffffffffffffffffffffffff",
        "nonce": "0x20",
        "chainId": "0xe708"
      },
      "additionalContracts": [],
      "isFixedGasLimit": false
    },
    {
      "hash": "0xf74569275caa71a8333b2f5f831f605ab6da57f989307fb64a64092a495c771a",
      "transactionType": "CALL",
      "contractName": null,
      "contractAddress": "0x2d8879046f1559e53eb052e949e9544bcb72f414",
      "function": null,
      "arguments": null,
      "transaction": {
        "from": "0xf39fd6e51aad88f6f4ce6ab8827279cfffb92266",
        "to": "0x2d8879046f1559e53eb052e949e9544bcb72f414",
        "gas": "0x1398bb",
        "value": "0x0",
        "input": "0x83bd37f90001e5d7c2a44ffddf6b295a15c148167daaaf5cf34f0001176211869ca2b568f2a7d4ee941e073a821ee1ff080de0b6b3a7640000049d99b0d6028f5c000156c85a254dd12ee8d9c04049a4ab62769ce9821000000001f39fd6e51aad88f6f4ce6ab8827279cfffb92266000000000602020701694cbe640a01010102000189745b340a0101030200015b77d0a40a0101040200016b8ea9380a010105020000100101010602ff0000000000000000003cb104f044db23d6513f2a6100a1997fa5e3f587e5d7c2a44ffddf6b295a15c148167daaaf5cf34f64bccad8e7302e81b09894f56f6bba85ae82cd03586733678b9ac9da43dd7cb83bbb41d23677dfc37077f0cff76077d0ebb335b607db574400510557dded227d71a096c6b5d87807c1b5c456771aaa940000000000000000",
        "nonce": "0x21",
        "chainId": "0xe708"
      },
      "additionalContracts": [],
      "isFixedGasLimit": false
    },
    {
      "hash": "0xa7c6914e56516940cc27ca61ff7b48dc26385a184a4a9739bf3f2214965c56cf",
      "transactionType": "CALL",
      "contractName": null,
      "contractAddress": "0x176211869ca2b568f2a7d4ee941e073a821ee1ff",
      "function": "approve(address,uint256)",
      "arguments": [
        "0x0B306BF915C4d645ff596e518fAf3F9669b97016",
        "115792089237316195423570985008687907853269984665640564039457584007913129639935"
      ],
      "transaction": {
        "from": "0xf39fd6e51aad88f6f4ce6ab8827279cfffb92266",
        "to": "0x176211869ca2b568f2a7d4ee941e073a821ee1ff",
        "gas": "0x144c0",
        "value": "0x0",
        "input": "0x095ea7b30000000000000000000000000b306bf915c4d645ff596e518faf3f9669b97016ffffffffffffffffffffffffffffffffffffffffffffffffffffffffffffffff",
        "nonce": "0x22",
        "chainId": "0xe708"
      },
      "additionalContracts": [],
      "isFixedGasLimit": false
    },
    {
      "hash": "0x708a1564bf7524301023f649f7614751393e862f30f755c256e1c601d56d51c9",
      "transactionType": "CALL",
      "contractName": null,
      "contractAddress": "0xe5d7c2a44ffddf6b295a15c148167daaaf5cf34f",
      "function": "approve(address,uint256)",
      "arguments": [
        "0x0B306BF915C4d645ff596e518fAf3F9669b97016",
        "115792089237316195423570985008687907853269984665640564039457584007913129639935"
      ],
      "transaction": {
        "from": "0xf39fd6e51aad88f6f4ce6ab8827279cfffb92266",
        "to": "0xe5d7c2a44ffddf6b295a15c148167daaaf5cf34f",
        "gas": "0xfa27",
        "value": "0x0",
        "input": "0x095ea7b30000000000000000000000000b306bf915c4d645ff596e518faf3f9669b97016ffffffffffffffffffffffffffffffffffffffffffffffffffffffffffffffff",
        "nonce": "0x23",
        "chainId": "0xe708"
      },
      "additionalContracts": [],
      "isFixedGasLimit": false
    },
    {
      "hash": "0x03b422519005d8b0c27812670011772b892a21610ec423124844e470d42be17d",
      "transactionType": "CALL",
      "contractName": null,
      "contractAddress": "0x176211869ca2b568f2a7d4ee941e073a821ee1ff",
      "function": "approve(address,uint256)",
      "arguments": [
        "0x0B306BF915C4d645ff596e518fAf3F9669b97016",
        "115792089237316195423570985008687907853269984665640564039457584007913129639935"
      ],
      "transaction": {
        "from": "0xf39fd6e51aad88f6f4ce6ab8827279cfffb92266",
        "to": "0x176211869ca2b568f2a7d4ee941e073a821ee1ff",
        "gas": "0xe62b",
        "value": "0x0",
        "input": "0x095ea7b30000000000000000000000000b306bf915c4d645ff596e518faf3f9669b97016ffffffffffffffffffffffffffffffffffffffffffffffffffffffffffffffff",
        "nonce": "0x24",
        "chainId": "0xe708"
      },
      "additionalContracts": [],
      "isFixedGasLimit": false
    },
    {
      "hash": "0x520f01ddac3df4d5550cfbd1439ae783b8794e77e4e25c095c712f7ae88f1ad4",
      "transactionType": "CALL",
      "contractName": null,
      "contractAddress": "0x0b306bf915c4d645ff596e518faf3f9669b97016",
      "function": "createAndAddToPosition((string,address,address),(uint256,uint256,bytes))",
      "arguments": [
        "(\"LONG_QUOTE_ODOS_ZEROLEND\", 0x176211869cA2b568f2A7D4EE941E073a821EE1ff, 0xe5D7C2a44FfDDf6b295A15c148167daaAf5Cf34f)",
        "(100000000, 200000000, 0x83bd37f90001176211869ca2b568f2a7d4ee941e073a821ee1ff0001e5d7c2a44ffddf6b295a15c148167daaaf5cf34f0411e1a300080192c9e06e148270028f5c000156c85a254dd12ee8d9c04049a4ab62769ce98210000000018ee06e608de47ea1b185583aca65e34f2fd79b130000000003010203000a0101010201ff000000000000000000000000000000000000000000586733678b9ac9da43dd7cb83bbb41d23677dfc3176211869ca2b568f2a7d4ee941e073a821ee1ff000000000000000000000000000000000000000000000000)"
      ],
      "transaction": {
        "from": "0xf39fd6e51aad88f6f4ce6ab8827279cfffb92266",
        "to": "0x0b306bf915c4d645ff596e518faf3f9669b97016",
        "gas": "0x1a0605",
        "value": "0x0",
        "input": "0x211d9b04000000000000000000000000000000000000000000000000000000000000004000000000000000000000000000000000000000000000000000000000000000e00000000000000000000000000000000000000000000000000000000000000060000000000000000000000000176211869ca2b568f2a7d4ee941e073a821ee1ff000000000000000000000000e5d7c2a44ffddf6b295a15c148167daaaf5cf34f00000000000000000000000000000000000000000000000000000000000000184c4f4e475f51554f54455f4f444f535f5a45524f4c454e4400000000000000000000000000000000000000000000000000000000000000000000000005f5e100000000000000000000000000000000000000000000000000000000000bebc200000000000000000000000000000000000000000000000000000000000000006000000000000000000000000000000000000000000000000000000000000000d483bd37f90001176211869ca2b568f2a7d4ee941e073a821ee1ff0001e5d7c2a44ffddf6b295a15c148167daaaf5cf34f0411e1a300080192c9e06e148270028f5c000156c85a254dd12ee8d9c04049a4ab62769ce98210000000018ee06e608de47ea1b185583aca65e34f2fd79b130000000003010203000a0101010201ff000000000000000000000000000000000000000000586733678b9ac9da43dd7cb83bbb41d23677dfc3176211869ca2b568f2a7d4ee941e073a821ee1ff000000000000000000000000000000000000000000000000000000000000000000000000",
        "nonce": "0x25",
        "chainId": "0xe708"
      },
      "additionalContracts": [
        {
          "transactionType": "CREATE2",
          "address": "0x8ee06e608de47ea1b185583aca65e34f2fd79b13",
          "initCode": "0x60a060405234801561001057600080fd5b506040516101d43803806101d483398101604081905261002f9161009a565b6001600160a01b0381166100895760405162461bcd60e51b815260206004820152601e60248201527f496e76616c696420696d706c656d656e746174696f6e20616464726573730000604482015260640160405180910390fd5b6001600160a01b03166080526100ca565b6000602082840312156100ac57600080fd5b81516001600160a01b03811681146100c357600080fd5b9392505050565b60805160ec6100e860003960008181602001526055015260ec6000f3fe608060405260043610601c5760003560e01c80635c60da1b146045575b60437f00000000000000000000000000000000000000000000000000000000000000006093565b005b348015605057600080fd5b5060777f000000000000000000000000000000000000000000000000000000000000000081565b6040516001600160a01b03909116815260200160405180910390f35b3660008037600080366000845af43d6000803e80801560b1573d6000f35b3d6000fdfea2646970667358221220ece5f241c936be627b009529639055436949a725352d983e1257a877a1e6225564736f6c6343000819003300000000000000000000000068b1d87f95878fe05b998f19b66f4baba5de1aed"
        }
      ],
      "isFixedGasLimit": false
    }
  ],
  "receipts": [
    {
      "status": "0x1",
      "cumulativeGasUsed": "0xafee",
      "logs": [
        {
          "address": "0xe5d7c2a44ffddf6b295a15c148167daaaf5cf34f",
          "topics": [
            "0xe1fffcc4923d04b559f4d29a8bfc6cda04eb5b0d3c460751c2402c5c5cc9109c",
            "0x000000000000000000000000f39fd6e51aad88f6f4ce6ab8827279cfffb92266"
          ],
          "data": "0x0000000000000000000000000000000000000000000000000de0b6b3a7640000",
          "blockHash": "0x983ace4cf219b7630ab4950b0496b64261d0b9e012938ca022148eef706eed2f",
          "blockNumber": "0x96fb85",
          "blockTimestamp": "0x66f31ed8",
          "transactionHash": "0xbe286381499099d2d864b06e4fd38b583659f4a8602f9da06af696d87148f933",
          "transactionIndex": "0x0",
          "logIndex": "0x0",
          "removed": false
        }
      ],
      "logsBloom": "0x0000000000000000000000000000000000000000000000000000000000000000000000000000000000000000000000000000000000000000000000000000000000000000000000000000000000000000000000000000000000000000800000000000000000000000000000010000000000000000000000000000000000000000000000000000000000100000000000000000000100000000000000000000000000000000000000000000000000000000000000000000000000000000200000000000000000000020000000000000000000000000a000000000000000000000000000000000000000000000000000000000000000000000400000000000000000",
      "type": "0x2",
      "transactionHash": "0xbe286381499099d2d864b06e4fd38b583659f4a8602f9da06af696d87148f933",
      "transactionIndex": "0x0",
      "blockHash": "0x983ace4cf219b7630ab4950b0496b64261d0b9e012938ca022148eef706eed2f",
      "blockNumber": "0x96fb85",
      "gasUsed": "0xafee",
      "effectiveGasPrice": "0x86781fa",
      "blobGasPrice": "0x1",
      "from": "0xf39fd6e51aad88f6f4ce6ab8827279cfffb92266",
      "to": "0xe5d7c2a44ffddf6b295a15c148167daaaf5cf34f",
      "contractAddress": null,
      "root": "0x0000000000000000000000000000000000000000000000000000000000000000"
    },
    {
      "status": "0x1",
      "cumulativeGasUsed": "0xb51c",
      "logs": [
        {
          "address": "0xe5d7c2a44ffddf6b295a15c148167daaaf5cf34f",
          "topics": [
            "0x8c5be1e5ebec7d5bd14f71427d1e84f3dd0314c0f7b2291e5b200ac8c7c3b925",
            "0x000000000000000000000000f39fd6e51aad88f6f4ce6ab8827279cfffb92266",
            "0x0000000000000000000000002d8879046f1559e53eb052e949e9544bcb72f414"
          ],
          "data": "0xffffffffffffffffffffffffffffffffffffffffffffffffffffffffffffffff",
          "blockHash": "0x48dd6692e95ff65be31593b53eaa26d6bca98a9f3aba5ea9d6673a1f7974816d",
          "blockNumber": "0x96fb86",
          "blockTimestamp": "0x66f31ed9",
          "transactionHash": "0x778359ba070ca99265b53fb99043b6b6d2a94f5f9b90a551707fe29bab270be5",
          "transactionIndex": "0x0",
          "logIndex": "0x0",
          "removed": false
        }
      ],
      "logsBloom": "0x0000000000000000000000000000000000000000000000000000000000000000000000000000000000001000000000000000000000000000000000000020000000000000000000000000000000000000000000000000000000000000000000000000000000000000008000010000000000000000000000000000000000000000000000000000000000100000000000000000000000000000000000000000000002000000020000000000000000000000000000000000000000000000200000000000000000000020000000000000000000000000a000000000000000000000000010000000000000000000000000000000000000000000000000000000000000",
      "type": "0x2",
      "transactionHash": "0x778359ba070ca99265b53fb99043b6b6d2a94f5f9b90a551707fe29bab270be5",
      "transactionIndex": "0x0",
      "blockHash": "0x48dd6692e95ff65be31593b53eaa26d6bca98a9f3aba5ea9d6673a1f7974816d",
      "blockNumber": "0x96fb86",
      "gasUsed": "0xb51c",
      "effectiveGasPrice": "0x86781fa",
      "blobGasPrice": "0x1",
      "from": "0xf39fd6e51aad88f6f4ce6ab8827279cfffb92266",
      "to": "0xe5d7c2a44ffddf6b295a15c148167daaaf5cf34f",
      "contractAddress": null,
      "root": "0x0000000000000000000000000000000000000000000000000000000000000000"
    },
    {
      "status": "0x1",
      "cumulativeGasUsed": "0xe2e6f",
      "logs": [
        {
          "address": "0xe5d7c2a44ffddf6b295a15c148167daaaf5cf34f",
          "topics": [
            "0xddf252ad1be2c89b69c2b068fc378daa952ba7f163c4a11628f55a4df523b3ef",
            "0x000000000000000000000000f39fd6e51aad88f6f4ce6ab8827279cfffb92266",
            "0x00000000000000000000000056c85a254dd12ee8d9c04049a4ab62769ce98210"
          ],
          "data": "0x0000000000000000000000000000000000000000000000000de0b6b3a7640000",
          "blockHash": "0x88b671df2a9001822214a5efdc1025f13eeabf0bf460b99d3234c0a316065d07",
          "blockNumber": "0x96fb87",
          "blockTimestamp": "0x66f31eda",
          "transactionHash": "0xf74569275caa71a8333b2f5f831f605ab6da57f989307fb64a64092a495c771a",
          "transactionIndex": "0x0",
          "logIndex": "0x0",
          "removed": false
        },
        {
          "address": "0x3cb104f044db23d6513f2a6100a1997fa5e3f587",
          "topics": [
            "0x598b9f043c813aa6be3426ca60d1c65d17256312890be5118dab55b0775ebe2a"
          ],
          "data": "0x00000000000000000000000000000000000000000000000000000000000002dc",
          "blockHash": "0x88b671df2a9001822214a5efdc1025f13eeabf0bf460b99d3234c0a316065d07",
          "blockNumber": "0x96fb87",
          "blockTimestamp": "0x66f31eda",
          "transactionHash": "0xf74569275caa71a8333b2f5f831f605ab6da57f989307fb64a64092a495c771a",
          "transactionIndex": "0x0",
          "logIndex": "0x1",
          "removed": false
        },
        {
          "address": "0x176211869ca2b568f2a7d4ee941e073a821ee1ff",
          "topics": [
            "0xddf252ad1be2c89b69c2b068fc378daa952ba7f163c4a11628f55a4df523b3ef",
            "0x0000000000000000000000003cb104f044db23d6513f2a6100a1997fa5e3f587",
            "0x0000000000000000000000002d8879046f1559e53eb052e949e9544bcb72f414"
          ],
          "data": "0x0000000000000000000000000000000000000000000000000000000040d29095",
          "blockHash": "0x88b671df2a9001822214a5efdc1025f13eeabf0bf460b99d3234c0a316065d07",
          "blockNumber": "0x96fb87",
          "blockTimestamp": "0x66f31eda",
          "transactionHash": "0xf74569275caa71a8333b2f5f831f605ab6da57f989307fb64a64092a495c771a",
          "transactionIndex": "0x0",
          "logIndex": "0x2",
          "removed": false
        },
        {
          "address": "0xe5d7c2a44ffddf6b295a15c148167daaaf5cf34f",
          "topics": [
            "0xddf252ad1be2c89b69c2b068fc378daa952ba7f163c4a11628f55a4df523b3ef",
            "0x00000000000000000000000056c85a254dd12ee8d9c04049a4ab62769ce98210",
            "0x0000000000000000000000003cb104f044db23d6513f2a6100a1997fa5e3f587"
          ],
          "data": "0x00000000000000000000000000000000000000000000000005b553f8205e6a19",
          "blockHash": "0x88b671df2a9001822214a5efdc1025f13eeabf0bf460b99d3234c0a316065d07",
          "blockNumber": "0x96fb87",
          "blockTimestamp": "0x66f31eda",
          "transactionHash": "0xf74569275caa71a8333b2f5f831f605ab6da57f989307fb64a64092a495c771a",
          "transactionIndex": "0x0",
          "logIndex": "0x3",
          "removed": false
        },
        {
          "address": "0xe5d7c2a44ffddf6b295a15c148167daaaf5cf34f",
          "topics": [
            "0xddf252ad1be2c89b69c2b068fc378daa952ba7f163c4a11628f55a4df523b3ef",
            "0x0000000000000000000000003cb104f044db23d6513f2a6100a1997fa5e3f587",
            "0x0000000000000000000000001d8b6fa722230153be08c4fa4aa4b4c7cd01a95a"
          ],
          "data": "0x0000000000000000000000000000000000000000000000000000083719a98815",
          "blockHash": "0x88b671df2a9001822214a5efdc1025f13eeabf0bf460b99d3234c0a316065d07",
          "blockNumber": "0x96fb87",
          "blockTimestamp": "0x66f31eda",
          "transactionHash": "0xf74569275caa71a8333b2f5f831f605ab6da57f989307fb64a64092a495c771a",
          "transactionIndex": "0x0",
          "logIndex": "0x4",
          "removed": false
        },
        {
          "address": "0x3cb104f044db23d6513f2a6100a1997fa5e3f587",
          "topics": [
            "0xc42079f94a6350d7e6235f29174924f928cc2ac818eb64fed8004e115fbcca67",
            "0x00000000000000000000000056c85a254dd12ee8d9c04049a4ab62769ce98210",
            "0x0000000000000000000000002d8879046f1559e53eb052e949e9544bcb72f414"
          ],
          "data": "0xffffffffffffffffffffffffffffffffffffffffffffffffffffffffbf2d6f6b00000000000000000000000000000000000000000000000005b553f8205e6a190000000000000000000000000000000000004bf11063859eaa1099e94442cd3800000000000000000000000000000000000000000000000007c7a400a870d8ba0000000000000000000000000000000000000000000000000000000000030388",
          "blockHash": "0x88b671df2a9001822214a5efdc1025f13eeabf0bf460b99d3234c0a316065d07",
          "blockNumber": "0x96fb87",
          "blockTimestamp": "0x66f31eda",
          "transactionHash": "0xf74569275caa71a8333b2f5f831f605ab6da57f989307fb64a64092a495c771a",
          "transactionIndex": "0x0",
          "logIndex": "0x5",
          "removed": false
        },
        {
          "address": "0x176211869ca2b568f2a7d4ee941e073a821ee1ff",
          "topics": [
            "0xddf252ad1be2c89b69c2b068fc378daa952ba7f163c4a11628f55a4df523b3ef",
            "0x00000000000000000000000064bccad8e7302e81b09894f56f6bba85ae82cd03",
            "0x0000000000000000000000002d8879046f1559e53eb052e949e9544bcb72f414"
          ],
          "data": "0x0000000000000000000000000000000000000000000000000000000031cc15d9",
          "blockHash": "0x88b671df2a9001822214a5efdc1025f13eeabf0bf460b99d3234c0a316065d07",
          "blockNumber": "0x96fb87",
          "blockTimestamp": "0x66f31eda",
          "transactionHash": "0xf74569275caa71a8333b2f5f831f605ab6da57f989307fb64a64092a495c771a",
          "transactionIndex": "0x0",
          "logIndex": "0x6",
          "removed": false
        },
        {
          "address": "0xe5d7c2a44ffddf6b295a15c148167daaaf5cf34f",
          "topics": [
            "0xddf252ad1be2c89b69c2b068fc378daa952ba7f163c4a11628f55a4df523b3ef",
            "0x00000000000000000000000056c85a254dd12ee8d9c04049a4ab62769ce98210",
            "0x00000000000000000000000064bccad8e7302e81b09894f56f6bba85ae82cd03"
          ],
          "data": "0x0000000000000000000000000000000000000000000000000462ee682d23e2d6",
          "blockHash": "0x88b671df2a9001822214a5efdc1025f13eeabf0bf460b99d3234c0a316065d07",
          "blockNumber": "0x96fb87",
          "blockTimestamp": "0x66f31eda",
          "transactionHash": "0xf74569275caa71a8333b2f5f831f605ab6da57f989307fb64a64092a495c771a",
          "transactionIndex": "0x0",
          "logIndex": "0x7",
          "removed": false
        },
        {
          "address": "0x64bccad8e7302e81b09894f56f6bba85ae82cd03",
          "topics": [
            "0xc42079f94a6350d7e6235f29174924f928cc2ac818eb64fed8004e115fbcca67",
            "0x00000000000000000000000056c85a254dd12ee8d9c04049a4ab62769ce98210",
            "0x0000000000000000000000002d8879046f1559e53eb052e949e9544bcb72f414"
          ],
          "data": "0xffffffffffffffffffffffffffffffffffffffffffffffffffffffffce33ea270000000000000000000000000000000000000000000000000462ee682d23e2d60000000000000000000000000000000000004bee949d7c9864557266b6e6e56800000000000000000000000000000000000000000000000017cf9504882e1db10000000000000000000000000000000000000000000000000000000000030386",
          "blockHash": "0x88b671df2a9001822214a5efdc1025f13eeabf0bf460b99d3234c0a316065d07",
          "blockNumber": "0x96fb87",
          "blockTimestamp": "0x66f31eda",
          "transactionHash": "0xf74569275caa71a8333b2f5f831f605ab6da57f989307fb64a64092a495c771a",
          "transactionIndex": "0x0",
          "logIndex": "0x8",
          "removed": false
        },
        {
          "address": "0x176211869ca2b568f2a7d4ee941e073a821ee1ff",
          "topics": [
            "0xddf252ad1be2c89b69c2b068fc378daa952ba7f163c4a11628f55a4df523b3ef",
            "0x000000000000000000000000586733678b9ac9da43dd7cb83bbb41d23677dfc3",
            "0x0000000000000000000000002d8879046f1559e53eb052e949e9544bcb72f414"
          ],
          "data": "0x000000000000000000000000000000000000000000000000000000000f58b54d",
          "blockHash": "0x88b671df2a9001822214a5efdc1025f13eeabf0bf460b99d3234c0a316065d07",
          "blockNumber": "0x96fb87",
          "blockTimestamp": "0x66f31eda",
          "transactionHash": "0xf74569275caa71a8333b2f5f831f605ab6da57f989307fb64a64092a495c771a",
          "transactionIndex": "0x0",
          "logIndex": "0x9",
          "removed": false
        },
        {
          "address": "0xe5d7c2a44ffddf6b295a15c148167daaaf5cf34f",
          "topics": [
            "0xddf252ad1be2c89b69c2b068fc378daa952ba7f163c4a11628f55a4df523b3ef",
            "0x00000000000000000000000056c85a254dd12ee8d9c04049a4ab62769ce98210",
            "0x000000000000000000000000586733678b9ac9da43dd7cb83bbb41d23677dfc3"
          ],
          "data": "0x000000000000000000000000000000000000000000000000015a069cfea040fe",
          "blockHash": "0x88b671df2a9001822214a5efdc1025f13eeabf0bf460b99d3234c0a316065d07",
          "blockNumber": "0x96fb87",
          "blockTimestamp": "0x66f31eda",
          "transactionHash": "0xf74569275caa71a8333b2f5f831f605ab6da57f989307fb64a64092a495c771a",
          "transactionIndex": "0x0",
          "logIndex": "0xa",
          "removed": false
        },
        {
          "address": "0x586733678b9ac9da43dd7cb83bbb41d23677dfc3",
          "topics": [
            "0x19b47279256b2a23a1665c810c8d55a1758940ee09377d4f8d26497a3577dc83",
            "0x00000000000000000000000056c85a254dd12ee8d9c04049a4ab62769ce98210",
            "0x0000000000000000000000002d8879046f1559e53eb052e949e9544bcb72f414"
          ],
          "data": "0xfffffffffffffffffffffffffffffffffffffffffffffffffffffffff0a74ab3000000000000000000000000000000000000000000000000015a069cfea040fe0000000000000000000000000000000000004bfa8a42b56dff00bb81169adb060000000000000000000000000000000000000000000000000057a582562834da00000000000000000000000000000000000000000000000000000000000303920000000000000000000000000000000000000000000000000000000000000000000000000000000000000000000000000000000000000000000002ec588e0140",
          "blockHash": "0x88b671df2a9001822214a5efdc1025f13eeabf0bf460b99d3234c0a316065d07",
          "blockNumber": "0x96fb87",
          "blockTimestamp": "0x66f31eda",
          "transactionHash": "0xf74569275caa71a8333b2f5f831f605ab6da57f989307fb64a64092a495c771a",
          "transactionIndex": "0x0",
          "logIndex": "0xb",
          "removed": false
        },
        {
          "address": "0x176211869ca2b568f2a7d4ee941e073a821ee1ff",
          "topics": [
            "0xddf252ad1be2c89b69c2b068fc378daa952ba7f163c4a11628f55a4df523b3ef",
            "0x0000000000000000000000007077f0cff76077d0ebb335b607db574400510557",
            "0x0000000000000000000000002d8879046f1559e53eb052e949e9544bcb72f414"
          ],
          "data": "0x000000000000000000000000000000000000000000000000000000000b9b6567",
          "blockHash": "0x88b671df2a9001822214a5efdc1025f13eeabf0bf460b99d3234c0a316065d07",
          "blockNumber": "0x96fb87",
          "blockTimestamp": "0x66f31eda",
          "transactionHash": "0xf74569275caa71a8333b2f5f831f605ab6da57f989307fb64a64092a495c771a",
          "transactionIndex": "0x0",
          "logIndex": "0xc",
          "removed": false
        },
        {
          "address": "0xe5d7c2a44ffddf6b295a15c148167daaaf5cf34f",
          "topics": [
            "0xddf252ad1be2c89b69c2b068fc378daa952ba7f163c4a11628f55a4df523b3ef",
            "0x00000000000000000000000056c85a254dd12ee8d9c04049a4ab62769ce98210",
            "0x0000000000000000000000007077f0cff76077d0ebb335b607db574400510557"
          ],
          "data": "0x000000000000000000000000000000000000000000000000010582b781e05b1d",
          "blockHash": "0x88b671df2a9001822214a5efdc1025f13eeabf0bf460b99d3234c0a316065d07",
          "blockNumber": "0x96fb87",
          "blockTimestamp": "0x66f31eda",
          "transactionHash": "0xf74569275caa71a8333b2f5f831f605ab6da57f989307fb64a64092a495c771a",
          "transactionIndex": "0x0",
          "logIndex": "0xd",
          "removed": false
        },
        {
          "address": "0x7077f0cff76077d0ebb335b607db574400510557",
          "topics": [
            "0xc42079f94a6350d7e6235f29174924f928cc2ac818eb64fed8004e115fbcca67",
            "0x00000000000000000000000056c85a254dd12ee8d9c04049a4ab62769ce98210",
            "0x0000000000000000000000002d8879046f1559e53eb052e949e9544bcb72f414"
          ],
          "data": "0xfffffffffffffffffffffffffffffffffffffffffffffffffffffffff4649a99000000000000000000000000000000000000000000000000010582b781e05b1d0000000000000000000000000000000000004bf39609a686831adacfec980f5f0000000000000000000000000000000000000000000000000014e99d22c4e12b000000000000000000000000000000000000000000000000000000000003038b",
          "blockHash": "0x88b671df2a9001822214a5efdc1025f13eeabf0bf460b99d3234c0a316065d07",
          "blockNumber": "0x96fb87",
          "blockTimestamp": "0x66f31eda",
          "transactionHash": "0xf74569275caa71a8333b2f5f831f605ab6da57f989307fb64a64092a495c771a",
          "transactionIndex": "0x0",
          "logIndex": "0xe",
          "removed": false
        },
        {
          "address": "0xe5d7c2a44ffddf6b295a15c148167daaaf5cf34f",
          "topics": [
            "0xddf252ad1be2c89b69c2b068fc378daa952ba7f163c4a11628f55a4df523b3ef",
            "0x00000000000000000000000056c85a254dd12ee8d9c04049a4ab62769ce98210",
            "0x000000000000000000000000dded227d71a096c6b5d87807c1b5c456771aaa94"
          ],
          "data": "0x0000000000000000000000000000000000000000000000000168eafed96116f6",
          "blockHash": "0x88b671df2a9001822214a5efdc1025f13eeabf0bf460b99d3234c0a316065d07",
          "blockNumber": "0x96fb87",
          "blockTimestamp": "0x66f31eda",
          "transactionHash": "0xf74569275caa71a8333b2f5f831f605ab6da57f989307fb64a64092a495c771a",
          "transactionIndex": "0x0",
          "logIndex": "0xf",
          "removed": false
        },
        {
          "address": "0xdded227d71a096c6b5d87807c1b5c456771aaa94",
          "topics": [
            "0xd78ad95fa46c994b6551d0da85fc275fe613ce37657fb8d5e3d130840159d822",
            "0x00000000000000000000000056c85a254dd12ee8d9c04049a4ab62769ce98210",
            "0x0000000000000000000000002d8879046f1559e53eb052e949e9544bcb72f414"
          ],
          "data": "0x00000000000000000000000000000000000000000000000000000000000000000000000000000000000000000000000000000000000000000168eafed96116f6000000000000000000000000000000000000000000000000000000001002b0200000000000000000000000000000000000000000000000000000000000000000",
          "blockHash": "0x88b671df2a9001822214a5efdc1025f13eeabf0bf460b99d3234c0a316065d07",
          "blockNumber": "0x96fb87",
          "blockTimestamp": "0x66f31eda",
          "transactionHash": "0xf74569275caa71a8333b2f5f831f605ab6da57f989307fb64a64092a495c771a",
          "transactionIndex": "0x0",
          "logIndex": "0x10",
          "removed": false
        },
        {
          "address": "0xdded227d71a096c6b5d87807c1b5c456771aaa94",
          "topics": [
            "0xa6205f24a082c01e6c705e20c1a026c246eedf9800b87b84440f05e8271aaf27"
          ],
          "data": "0x00000000000000000000000000000000000000000000000000000000000860df0000000000000000000000000000000000000000000000000000000000000000",
          "blockHash": "0x88b671df2a9001822214a5efdc1025f13eeabf0bf460b99d3234c0a316065d07",
          "blockNumber": "0x96fb87",
          "blockTimestamp": "0x66f31eda",
          "transactionHash": "0xf74569275caa71a8333b2f5f831f605ab6da57f989307fb64a64092a495c771a",
          "transactionIndex": "0x0",
          "logIndex": "0x11",
          "removed": false
        },
        {
          "address": "0xdded227d71a096c6b5d87807c1b5c456771aaa94",
          "topics": [
            "0xcb12ab4101e9e15b90a22516ca404e94b85586dbdcf7d0792ab8da11206e61b6"
          ],
          "data": "0x00000000000000000000000000000000000000000000008f940da8d5c1c19bd0",
          "blockHash": "0x88b671df2a9001822214a5efdc1025f13eeabf0bf460b99d3234c0a316065d07",
          "blockNumber": "0x96fb87",
          "blockTimestamp": "0x66f31eda",
          "transactionHash": "0xf74569275caa71a8333b2f5f831f605ab6da57f989307fb64a64092a495c771a",
          "transactionIndex": "0x0",
          "logIndex": "0x12",
          "removed": false
        },
        {
          "address": "0xdded227d71a096c6b5d87807c1b5c456771aaa94",
          "topics": [
            "0x9e4e1b03f35e9c0cd24e1dfac3528faaaf88b254e1530b0090ce33f9d7597033"
          ],
          "data": "0x000000000000000000000000000000000000000000005b56ea2bd6af156cf905",
          "blockHash": "0x88b671df2a9001822214a5efdc1025f13eeabf0bf460b99d3234c0a316065d07",
          "blockNumber": "0x96fb87",
          "blockTimestamp": "0x66f31eda",
          "transactionHash": "0xf74569275caa71a8333b2f5f831f605ab6da57f989307fb64a64092a495c771a",
          "transactionIndex": "0x0",
          "logIndex": "0x13",
          "removed": false
        },
        {
          "address": "0xdded227d71a096c6b5d87807c1b5c456771aaa94",
          "topics": [
            "0x4d2cbcbcdaca7676a354e7297481cf51e67a13c8c07ad1c42928605c8ea522d0"
          ],
          "data": "0x0000000000000000000000000000000000000000000000000e22675f275e7be70000000000000000000000000000000000000000000000000e01c8dc13e1b89c",
          "blockHash": "0x88b671df2a9001822214a5efdc1025f13eeabf0bf460b99d3234c0a316065d07",
          "blockNumber": "0x96fb87",
          "blockTimestamp": "0x66f31eda",
          "transactionHash": "0xf74569275caa71a8333b2f5f831f605ab6da57f989307fb64a64092a495c771a",
          "transactionIndex": "0x0",
          "logIndex": "0x14",
          "removed": false
        },
        {
          "address": "0xdded227d71a096c6b5d87807c1b5c456771aaa94",
          "topics": [
            "0xcf2aa50876cdfbb541206f89af0ee78d44a2abf8d328e37fa4917f982149848a"
          ],
          "data": "0x000000000000000000000000000000000000000000000000000000325ed36be8000000000000000000000000000000000000000000000004668bd4fcd040d05d",
          "blockHash": "0x88b671df2a9001822214a5efdc1025f13eeabf0bf460b99d3234c0a316065d07",
          "blockNumber": "0x96fb87",
          "blockTimestamp": "0x66f31eda",
          "transactionHash": "0xf74569275caa71a8333b2f5f831f605ab6da57f989307fb64a64092a495c771a",
          "transactionIndex": "0x0",
          "logIndex": "0x15",
          "removed": false
        },
        {
          "address": "0x176211869ca2b568f2a7d4ee941e073a821ee1ff",
          "topics": [
            "0xddf252ad1be2c89b69c2b068fc378daa952ba7f163c4a11628f55a4df523b3ef",
            "0x000000000000000000000000dded227d71a096c6b5d87807c1b5c456771aaa94",
            "0x0000000000000000000000002d8879046f1559e53eb052e949e9544bcb72f414"
          ],
          "data": "0x000000000000000000000000000000000000000000000000000000001002b020",
          "blockHash": "0x88b671df2a9001822214a5efdc1025f13eeabf0bf460b99d3234c0a316065d07",
          "blockNumber": "0x96fb87",
          "blockTimestamp": "0x66f31eda",
          "transactionHash": "0xf74569275caa71a8333b2f5f831f605ab6da57f989307fb64a64092a495c771a",
          "transactionIndex": "0x0",
          "logIndex": "0x16",
          "removed": false
        },
        {
          "address": "0xdded227d71a096c6b5d87807c1b5c456771aaa94",
          "topics": [
            "0xaa077b6dc26efdfd606d4340c04a5a222ff968ec199f0b184f4c0f7a5c8e8d71",
            "0x00000000000000000000000056c85a254dd12ee8d9c04049a4ab62769ce98210",
            "0x00000000000000000000000056c85a254dd12ee8d9c04049a4ab62769ce98210",
            "0x000000000000000000000000176211869ca2b568f2a7d4ee941e073a821ee1ff"
          ],
          "data": "0x0000000000000000000000000000000000000000000000000168eafed96116f6000000000000000000000000000000000000000000000000000000001002b02000000000000000000000000000000000000000000000000000000000000000cc0000000000000000000000002d8879046f1559e53eb052e949e9544bcb72f414",
          "blockHash": "0x88b671df2a9001822214a5efdc1025f13eeabf0bf460b99d3234c0a316065d07",
          "blockNumber": "0x96fb87",
          "blockTimestamp": "0x66f31eda",
          "transactionHash": "0xf74569275caa71a8333b2f5f831f605ab6da57f989307fb64a64092a495c771a",
          "transactionIndex": "0x0",
          "logIndex": "0x17",
          "removed": false
        },
        {
          "address": "0x176211869ca2b568f2a7d4ee941e073a821ee1ff",
          "topics": [
            "0xddf252ad1be2c89b69c2b068fc378daa952ba7f163c4a11628f55a4df523b3ef",
            "0x0000000000000000000000002d8879046f1559e53eb052e949e9544bcb72f414",
            "0x000000000000000000000000f39fd6e51aad88f6f4ce6ab8827279cfffb92266"
          ],
          "data": "0x000000000000000000000000000000000000000000000000000000009d957142",
          "blockHash": "0x88b671df2a9001822214a5efdc1025f13eeabf0bf460b99d3234c0a316065d07",
          "blockNumber": "0x96fb87",
          "blockTimestamp": "0x66f31eda",
          "transactionHash": "0xf74569275caa71a8333b2f5f831f605ab6da57f989307fb64a64092a495c771a",
          "transactionIndex": "0x0",
          "logIndex": "0x18",
          "removed": false
        },
        {
          "address": "0x2d8879046f1559e53eb052e949e9544bcb72f414",
          "topics": [
            "0x823eaf01002d7353fbcadb2ea3305cc46fa35d799cb0914846d185ac06f8ad05"
          ],
          "data": "0x000000000000000000000000f39fd6e51aad88f6f4ce6ab8827279cfffb922660000000000000000000000000000000000000000000000000de0b6b3a7640000000000000000000000000000e5d7c2a44ffddf6b295a15c148167daaaf5cf34f000000000000000000000000000000000000000000000000000000009d957142000000000000000000000000176211869ca2b568f2a7d4ee941e073a821ee1fffffffffffffffffffffffffffffffffffffffffffffffffffffffffffffbc06c0000000000000000000000000000000000000000000000000000000000000000",
          "blockHash": "0x88b671df2a9001822214a5efdc1025f13eeabf0bf460b99d3234c0a316065d07",
          "blockNumber": "0x96fb87",
          "blockTimestamp": "0x66f31eda",
          "transactionHash": "0xf74569275caa71a8333b2f5f831f605ab6da57f989307fb64a64092a495c771a",
          "transactionIndex": "0x0",
          "logIndex": "0x19",
          "removed": false
        }
      ],
      "logsBloom": "0x00200000004000000000000080040000000000002000008000004000800000000000840000000000000010800012000002000a000400200000040000000040000c000200204080080008000802000030000000000000000000000001000000000080000200040000008000012000000184000000020000000100001000080000000000000000000000100004000000200010100400000000000008440000000000000000020000040000000000000000000000000000000100000000a000000000100022080000a0020008040080010000220000a2000c0000000000000008000000000000000000000000000000000080000001020002000200000000000060",
      "type": "0x2",
      "transactionHash": "0xf74569275caa71a8333b2f5f831f605ab6da57f989307fb64a64092a495c771a",
      "transactionIndex": "0x0",
      "blockHash": "0x88b671df2a9001822214a5efdc1025f13eeabf0bf460b99d3234c0a316065d07",
      "blockNumber": "0x96fb87",
      "gasUsed": "0xe2e6f",
      "effectiveGasPrice": "0x86781fa",
      "blobGasPrice": "0x1",
      "from": "0xf39fd6e51aad88f6f4ce6ab8827279cfffb92266",
      "to": "0x2d8879046f1559e53eb052e949e9544bcb72f414",
      "contractAddress": null,
      "root": "0x0000000000000000000000000000000000000000000000000000000000000000"
    },
    {
      "status": "0x1",
      "cumulativeGasUsed": "0xeb1e",
      "logs": [
        {
          "address": "0x176211869ca2b568f2a7d4ee941e073a821ee1ff",
          "topics": [
            "0x8c5be1e5ebec7d5bd14f71427d1e84f3dd0314c0f7b2291e5b200ac8c7c3b925",
            "0x000000000000000000000000f39fd6e51aad88f6f4ce6ab8827279cfffb92266",
            "0x0000000000000000000000000b306bf915c4d645ff596e518faf3f9669b97016"
          ],
          "data": "0xffffffffffffffffffffffffffffffffffffffffffffffffffffffffffffffff",
          "blockHash": "0x6337d745df41dc18ad942fd8558d50995a4a99fbf413ba912d862b850917a2ce",
          "blockNumber": "0x96fb88",
          "blockTimestamp": "0x66f31edb",
          "transactionHash": "0xa7c6914e56516940cc27ca61ff7b48dc26385a184a4a9739bf3f2214965c56cf",
          "transactionIndex": "0x0",
          "logIndex": "0x0",
          "removed": false
        }
      ],
      "logsBloom": "0x00000000000000000000000000000008000000000000000000000000000000000000000000000000000000000000000000000800000000000004000000200000000000000000000000000000020000000000000000000000000000000000000000000000000000000000000300000000000000000000000000000000000000000000000000000000000000000000000000000000000000000000000000000000020000000000000000000000000000000000000000000000000000000000000000000000000000200000000000000000000000002000000000000000000000000010000000000000000000000400000000000000000000000000000000000000",
      "type": "0x2",
      "transactionHash": "0xa7c6914e56516940cc27ca61ff7b48dc26385a184a4a9739bf3f2214965c56cf",
      "transactionIndex": "0x0",
      "blockHash": "0x6337d745df41dc18ad942fd8558d50995a4a99fbf413ba912d862b850917a2ce",
      "blockNumber": "0x96fb88",
      "gasUsed": "0xeb1e",
      "effectiveGasPrice": "0x86781fa",
      "blobGasPrice": "0x1",
      "from": "0xf39fd6e51aad88f6f4ce6ab8827279cfffb92266",
      "to": "0x176211869ca2b568f2a7d4ee941e073a821ee1ff",
      "contractAddress": null,
      "root": "0x0000000000000000000000000000000000000000000000000000000000000000"
    },
    {
      "status": "0x1",
      "cumulativeGasUsed": "0x1a03a",
      "logs": [
        {
          "address": "0xe5d7c2a44ffddf6b295a15c148167daaaf5cf34f",
          "topics": [
            "0x8c5be1e5ebec7d5bd14f71427d1e84f3dd0314c0f7b2291e5b200ac8c7c3b925",
            "0x000000000000000000000000f39fd6e51aad88f6f4ce6ab8827279cfffb92266",
            "0x0000000000000000000000000b306bf915c4d645ff596e518faf3f9669b97016"
          ],
          "data": "0xffffffffffffffffffffffffffffffffffffffffffffffffffffffffffffffff",
          "blockHash": "0x6337d745df41dc18ad942fd8558d50995a4a99fbf413ba912d862b850917a2ce",
          "blockNumber": "0x96fb88",
          "blockTimestamp": "0x66f31edb",
          "transactionHash": "0x708a1564bf7524301023f649f7614751393e862f30f755c256e1c601d56d51c9",
          "transactionIndex": "0x1",
          "logIndex": "0x1",
          "removed": false
        }
      ],
      "logsBloom": "0x0000000000000000000000000000000800000000000000000000000000000000000000000000000000000000000000000000000000000000000000000020000000000000000000000000000000000000000000000000000000000000000000000000000000000000000000030000000000000000000000000000000000000000000000000000000000100000000000000000000000000000000000000000000002000000000000000000000000000000000000000000000000000000200000000000000000000020000000000000000000000000a000000000000000000000000010000000000000000000000400000000000000000000000000000000000000",
      "type": "0x2",
      "transactionHash": "0x708a1564bf7524301023f649f7614751393e862f30f755c256e1c601d56d51c9",
      "transactionIndex": "0x1",
      "blockHash": "0x6337d745df41dc18ad942fd8558d50995a4a99fbf413ba912d862b850917a2ce",
      "blockNumber": "0x96fb88",
      "gasUsed": "0xb51c",
      "effectiveGasPrice": "0x86781fa",
      "blobGasPrice": "0x1",
      "from": "0xf39fd6e51aad88f6f4ce6ab8827279cfffb92266",
      "to": "0xe5d7c2a44ffddf6b295a15c148167daaaf5cf34f",
      "contractAddress": null,
      "root": "0x0000000000000000000000000000000000000000000000000000000000000000"
    },
    {
      "status": "0x1",
      "cumulativeGasUsed": "0x23d9c",
      "logs": [
        {
          "address": "0x176211869ca2b568f2a7d4ee941e073a821ee1ff",
          "topics": [
            "0x8c5be1e5ebec7d5bd14f71427d1e84f3dd0314c0f7b2291e5b200ac8c7c3b925",
            "0x000000000000000000000000f39fd6e51aad88f6f4ce6ab8827279cfffb92266",
            "0x0000000000000000000000000b306bf915c4d645ff596e518faf3f9669b97016"
          ],
          "data": "0xffffffffffffffffffffffffffffffffffffffffffffffffffffffffffffffff",
          "blockHash": "0x6337d745df41dc18ad942fd8558d50995a4a99fbf413ba912d862b850917a2ce",
          "blockNumber": "0x96fb88",
          "blockTimestamp": "0x66f31edb",
          "transactionHash": "0x03b422519005d8b0c27812670011772b892a21610ec423124844e470d42be17d",
          "transactionIndex": "0x2",
          "logIndex": "0x2",
          "removed": false
        }
      ],
      "logsBloom": "0x00000000000000000000000000000008000000000000000000000000000000000000000000000000000000000000000000000800000000000004000000200000000000000000000000000000020000000000000000000000000000000000000000000000000000000000000300000000000000000000000000000000000000000000000000000000000000000000000000000000000000000000000000000000020000000000000000000000000000000000000000000000000000000000000000000000000000200000000000000000000000002000000000000000000000000010000000000000000000000400000000000000000000000000000000000000",
      "type": "0x2",
      "transactionHash": "0x03b422519005d8b0c27812670011772b892a21610ec423124844e470d42be17d",
      "transactionIndex": "0x2",
      "blockHash": "0x6337d745df41dc18ad942fd8558d50995a4a99fbf413ba912d862b850917a2ce",
      "blockNumber": "0x96fb88",
      "gasUsed": "0x9d62",
      "effectiveGasPrice": "0x86781fa",
      "blobGasPrice": "0x1",
      "from": "0xf39fd6e51aad88f6f4ce6ab8827279cfffb92266",
      "to": "0x176211869ca2b568f2a7d4ee941e073a821ee1ff",
      "contractAddress": null,
      "root": "0x0000000000000000000000000000000000000000000000000000000000000000"
    },
    {
      "status": "0x1",
      "cumulativeGasUsed": "0x147e1c",
      "logs": [
        {
          "address": "0x9a9f2ccfde556a7e9ff0848998aa4a0cfd8863ae",
          "topics": [
            "0xddf252ad1be2c89b69c2b068fc378daa952ba7f163c4a11628f55a4df523b3ef",
            "0x0000000000000000000000000000000000000000000000000000000000000000",
            "0x000000000000000000000000f39fd6e51aad88f6f4ce6ab8827279cfffb92266",
            "0x0000000000000000000000000000000000000000000000000000000000000000"
          ],
          "data": "0x",
          "blockHash": "0x6337d745df41dc18ad942fd8558d50995a4a99fbf413ba912d862b850917a2ce",
          "blockNumber": "0x96fb88",
          "blockTimestamp": "0x66f31edb",
          "transactionHash": "0x520f01ddac3df4d5550cfbd1439ae783b8794e77e4e25c095c712f7ae88f1ad4",
          "transactionIndex": "0x3",
          "logIndex": "0x3",
          "removed": false
        },
        {
          "address": "0x176211869ca2b568f2a7d4ee941e073a821ee1ff",
          "topics": [
            "0xddf252ad1be2c89b69c2b068fc378daa952ba7f163c4a11628f55a4df523b3ef",
            "0x000000000000000000000000f39fd6e51aad88f6f4ce6ab8827279cfffb92266",
            "0x0000000000000000000000008ee06e608de47ea1b185583aca65e34f2fd79b13"
          ],
          "data": "0x0000000000000000000000000000000000000000000000000000000005f5e100",
          "blockHash": "0x6337d745df41dc18ad942fd8558d50995a4a99fbf413ba912d862b850917a2ce",
          "blockNumber": "0x96fb88",
          "blockTimestamp": "0x66f31edb",
          "transactionHash": "0x520f01ddac3df4d5550cfbd1439ae783b8794e77e4e25c095c712f7ae88f1ad4",
          "transactionIndex": "0x3",
          "logIndex": "0x4",
          "removed": false
        },
        {
          "address": "0x176211869ca2b568f2a7d4ee941e073a821ee1ff",
          "topics": [
            "0xddf252ad1be2c89b69c2b068fc378daa952ba7f163c4a11628f55a4df523b3ef",
            "0x0000000000000000000000002e207eca8b6bf77a6ac82763eeed2a94de4f081d",
            "0x0000000000000000000000008ee06e608de47ea1b185583aca65e34f2fd79b13"
          ],
          "data": "0x000000000000000000000000000000000000000000000000000000000bebc200",
          "blockHash": "0x6337d745df41dc18ad942fd8558d50995a4a99fbf413ba912d862b850917a2ce",
          "blockNumber": "0x96fb88",
          "blockTimestamp": "0x66f31edb",
          "transactionHash": "0x520f01ddac3df4d5550cfbd1439ae783b8794e77e4e25c095c712f7ae88f1ad4",
          "transactionIndex": "0x3",
          "logIndex": "0x5",
          "removed": false
        },
        {
          "address": "0x176211869ca2b568f2a7d4ee941e073a821ee1ff",
          "topics": [
            "0x8c5be1e5ebec7d5bd14f71427d1e84f3dd0314c0f7b2291e5b200ac8c7c3b925",
            "0x0000000000000000000000008ee06e608de47ea1b185583aca65e34f2fd79b13",
            "0x0000000000000000000000002d8879046f1559e53eb052e949e9544bcb72f414"
          ],
          "data": "0x0000000000000000000000000000000000000000000000000000000011e1a300",
          "blockHash": "0x6337d745df41dc18ad942fd8558d50995a4a99fbf413ba912d862b850917a2ce",
          "blockNumber": "0x96fb88",
          "blockTimestamp": "0x66f31edb",
          "transactionHash": "0x520f01ddac3df4d5550cfbd1439ae783b8794e77e4e25c095c712f7ae88f1ad4",
          "transactionIndex": "0x3",
          "logIndex": "0x6",
          "removed": false
        },
        {
          "address": "0x176211869ca2b568f2a7d4ee941e073a821ee1ff",
          "topics": [
            "0xddf252ad1be2c89b69c2b068fc378daa952ba7f163c4a11628f55a4df523b3ef",
            "0x0000000000000000000000008ee06e608de47ea1b185583aca65e34f2fd79b13",
            "0x00000000000000000000000056c85a254dd12ee8d9c04049a4ab62769ce98210"
          ],
          "data": "0x0000000000000000000000000000000000000000000000000000000011e1a300",
          "blockHash": "0x6337d745df41dc18ad942fd8558d50995a4a99fbf413ba912d862b850917a2ce",
          "blockNumber": "0x96fb88",
          "blockTimestamp": "0x66f31edb",
          "transactionHash": "0x520f01ddac3df4d5550cfbd1439ae783b8794e77e4e25c095c712f7ae88f1ad4",
          "transactionIndex": "0x3",
          "logIndex": "0x7",
          "removed": false
        },
        {
          "address": "0xe5d7c2a44ffddf6b295a15c148167daaaf5cf34f",
          "topics": [
            "0xddf252ad1be2c89b69c2b068fc378daa952ba7f163c4a11628f55a4df523b3ef",
            "0x000000000000000000000000586733678b9ac9da43dd7cb83bbb41d23677dfc3",
            "0x0000000000000000000000002d8879046f1559e53eb052e949e9544bcb72f414"
          ],
          "data": "0x0000000000000000000000000000000000000000000000000193163d72ce98ff",
          "blockHash": "0x6337d745df41dc18ad942fd8558d50995a4a99fbf413ba912d862b850917a2ce",
          "blockNumber": "0x96fb88",
          "blockTimestamp": "0x66f31edb",
          "transactionHash": "0x520f01ddac3df4d5550cfbd1439ae783b8794e77e4e25c095c712f7ae88f1ad4",
          "transactionIndex": "0x3",
          "logIndex": "0x8",
          "removed": false
        },
        {
          "address": "0x176211869ca2b568f2a7d4ee941e073a821ee1ff",
          "topics": [
            "0xddf252ad1be2c89b69c2b068fc378daa952ba7f163c4a11628f55a4df523b3ef",
            "0x00000000000000000000000056c85a254dd12ee8d9c04049a4ab62769ce98210",
            "0x000000000000000000000000586733678b9ac9da43dd7cb83bbb41d23677dfc3"
          ],
          "data": "0x0000000000000000000000000000000000000000000000000000000011e1a300",
          "blockHash": "0x6337d745df41dc18ad942fd8558d50995a4a99fbf413ba912d862b850917a2ce",
          "blockNumber": "0x96fb88",
          "blockTimestamp": "0x66f31edb",
          "transactionHash": "0x520f01ddac3df4d5550cfbd1439ae783b8794e77e4e25c095c712f7ae88f1ad4",
          "transactionIndex": "0x3",
          "logIndex": "0x9",
          "removed": false
        },
        {
          "address": "0x586733678b9ac9da43dd7cb83bbb41d23677dfc3",
          "topics": [
            "0x19b47279256b2a23a1665c810c8d55a1758940ee09377d4f8d26497a3577dc83",
            "0x00000000000000000000000056c85a254dd12ee8d9c04049a4ab62769ce98210",
            "0x0000000000000000000000002d8879046f1559e53eb052e949e9544bcb72f414"
          ],
          "data": "0x0000000000000000000000000000000000000000000000000000000011e1a300fffffffffffffffffffffffffffffffffffffffffffffffffe6ce9c28d3167010000000000000000000000000000000000004bf5f0e1c497d1f510415c7cf6fb0000000000000000000000000000000000000000000000000057a4ce8d8e20cd000000000000000000000000000000000000000000000000000000000003038d00000000000000000000000000000000000000000000000000000000000026ac0000000000000000000000000000000000000000000000000000000000000000",
          "blockHash": "0x6337d745df41dc18ad942fd8558d50995a4a99fbf413ba912d862b850917a2ce",
          "blockNumber": "0x96fb88",
          "blockTimestamp": "0x66f31edb",
          "transactionHash": "0x520f01ddac3df4d5550cfbd1439ae783b8794e77e4e25c095c712f7ae88f1ad4",
          "transactionIndex": "0x3",
          "logIndex": "0xa",
          "removed": false
        },
        {
          "address": "0xe5d7c2a44ffddf6b295a15c148167daaaf5cf34f",
          "topics": [
            "0xddf252ad1be2c89b69c2b068fc378daa952ba7f163c4a11628f55a4df523b3ef",
            "0x0000000000000000000000002d8879046f1559e53eb052e949e9544bcb72f414",
            "0x0000000000000000000000008ee06e608de47ea1b185583aca65e34f2fd79b13"
          ],
          "data": "0x0000000000000000000000000000000000000000000000000192c9e06e148270",
          "blockHash": "0x6337d745df41dc18ad942fd8558d50995a4a99fbf413ba912d862b850917a2ce",
          "blockNumber": "0x96fb88",
          "blockTimestamp": "0x66f31edb",
          "transactionHash": "0x520f01ddac3df4d5550cfbd1439ae783b8794e77e4e25c095c712f7ae88f1ad4",
          "transactionIndex": "0x3",
          "logIndex": "0xb",
          "removed": false
        },
        {
          "address": "0x2d8879046f1559e53eb052e949e9544bcb72f414",
          "topics": [
            "0x823eaf01002d7353fbcadb2ea3305cc46fa35d799cb0914846d185ac06f8ad05"
          ],
          "data": "0x0000000000000000000000008ee06e608de47ea1b185583aca65e34f2fd79b130000000000000000000000000000000000000000000000000000000011e1a300000000000000000000000000176211869ca2b568f2a7d4ee941e073a821ee1ff0000000000000000000000000000000000000000000000000192c9e06e148270000000000000000000000000e5d7c2a44ffddf6b295a15c148167daaaf5cf34f00000000000000000000000000000000000000000000000000004c5d04ba168f0000000000000000000000000000000000000000000000000000000000000000",
          "blockHash": "0x6337d745df41dc18ad942fd8558d50995a4a99fbf413ba912d862b850917a2ce",
          "blockNumber": "0x96fb88",
          "blockTimestamp": "0x66f31edb",
          "transactionHash": "0x520f01ddac3df4d5550cfbd1439ae783b8794e77e4e25c095c712f7ae88f1ad4",
          "transactionIndex": "0x3",
          "logIndex": "0xc",
          "removed": false
        },
        {
          "address": "0xe5d7c2a44ffddf6b295a15c148167daaaf5cf34f",
          "topics": [
            "0x8c5be1e5ebec7d5bd14f71427d1e84f3dd0314c0f7b2291e5b200ac8c7c3b925",
            "0x0000000000000000000000008ee06e608de47ea1b185583aca65e34f2fd79b13",
            "0x0000000000000000000000002f9bb73a8e98793e26cb2f6c4ad037bdf1c6b269"
          ],
          "data": "0x0000000000000000000000000000000000000000000000000192c9e06e148270",
          "blockHash": "0x6337d745df41dc18ad942fd8558d50995a4a99fbf413ba912d862b850917a2ce",
          "blockNumber": "0x96fb88",
          "blockTimestamp": "0x66f31edb",
          "transactionHash": "0x520f01ddac3df4d5550cfbd1439ae783b8794e77e4e25c095c712f7ae88f1ad4",
          "transactionIndex": "0x3",
          "logIndex": "0xd",
          "removed": false
        },
        {
          "address": "0x2f9bb73a8e98793e26cb2f6c4ad037bdf1c6b269",
          "topics": [
            "0x804c9b842b2748a22bb64b345453a3de7ca54a6ca45ce00d415894979e22897a",
            "0x000000000000000000000000e5d7c2a44ffddf6b295a15c148167daaaf5cf34f"
          ],
          "data": "0x0000000000000000000000000000000000000000000c1acf040deb15222a78480000000000000000000000000000000000000000002cd3ffe44f95fcdcc314330000000000000000000000000000000000000000001bc0b3af5c7c9b5618a196000000000000000000000000000000000000000003530b11f1abe20f8835c729000000000000000000000000000000000000000003602e3937404779f491d797",
          "blockHash": "0x6337d745df41dc18ad942fd8558d50995a4a99fbf413ba912d862b850917a2ce",
          "blockNumber": "0x96fb88",
          "blockTimestamp": "0x66f31edb",
          "transactionHash": "0x520f01ddac3df4d5550cfbd1439ae783b8794e77e4e25c095c712f7ae88f1ad4",
          "transactionIndex": "0x3",
          "logIndex": "0xe",
          "removed": false
        },
        {
          "address": "0xe5d7c2a44ffddf6b295a15c148167daaaf5cf34f",
          "topics": [
            "0xddf252ad1be2c89b69c2b068fc378daa952ba7f163c4a11628f55a4df523b3ef",
            "0x0000000000000000000000008ee06e608de47ea1b185583aca65e34f2fd79b13",
            "0x000000000000000000000000b4ffef15daf4c02787bc5332580b838ce39805f5"
          ],
          "data": "0x0000000000000000000000000000000000000000000000000192c9e06e148270",
          "blockHash": "0x6337d745df41dc18ad942fd8558d50995a4a99fbf413ba912d862b850917a2ce",
          "blockNumber": "0x96fb88",
          "blockTimestamp": "0x66f31edb",
          "transactionHash": "0x520f01ddac3df4d5550cfbd1439ae783b8794e77e4e25c095c712f7ae88f1ad4",
          "transactionIndex": "0x3",
          "logIndex": "0xf",
          "removed": false
        },
        {
          "address": "0x28f6899ff643261ca9766ddc251b359a2d00b945",
          "topics": [
            "0x3303facd24627943a92e9dc87cfbb34b15c49b726eec3ad3487c16be9ab8efe8",
            "0x000000000000000000000000b4ffef15daf4c02787bc5332580b838ce39805f5",
            "0x00000000000000000000000040a59a3f3b16d9e74c811d24d8b7969664cfe180",
            "0x0000000000000000000000008ee06e608de47ea1b185583aca65e34f2fd79b13"
          ],
          "data": "0x000000000000000000000000000000000000000000004a6e6ce87410aa4b5006000000000000000000000000000000000000000000004a6e6ce87410aa4b50060000000000000000000000000000000000000000000000000000000000000000",
          "blockHash": "0x6337d745df41dc18ad942fd8558d50995a4a99fbf413ba912d862b850917a2ce",
          "blockNumber": "0x96fb88",
          "blockTimestamp": "0x66f31edb",
          "transactionHash": "0x520f01ddac3df4d5550cfbd1439ae783b8794e77e4e25c095c712f7ae88f1ad4",
          "transactionIndex": "0x3",
          "logIndex": "0x10",
          "removed": false
        },
        {
          "address": "0x28f6899ff643261ca9766ddc251b359a2d00b945",
          "topics": [
            "0x3303facd24627943a92e9dc87cfbb34b15c49b726eec3ad3487c16be9ab8efe8",
            "0x000000000000000000000000b4ffef15daf4c02787bc5332580b838ce39805f5",
            "0x00000000000000000000000078354f8dccb269a615a7e0a24f9b0718fdc3c7a7",
            "0x0000000000000000000000008ee06e608de47ea1b185583aca65e34f2fd79b13"
          ],
          "data": "0x00000000000000000000000000000000000000000000029f6bbcbebcdfbecf1500000000000000000000000000000000000000000000029f6bbcbebcdfbecf150000000000000000000000000000000000000000000000000000000000000000",
          "blockHash": "0x6337d745df41dc18ad942fd8558d50995a4a99fbf413ba912d862b850917a2ce",
          "blockNumber": "0x96fb88",
          "blockTimestamp": "0x66f31edb",
          "transactionHash": "0x520f01ddac3df4d5550cfbd1439ae783b8794e77e4e25c095c712f7ae88f1ad4",
          "transactionIndex": "0x3",
          "logIndex": "0x11",
          "removed": false
        },
        {
          "address": "0xb4ffef15daf4c02787bc5332580b838ce39805f5",
          "topics": [
            "0xddf252ad1be2c89b69c2b068fc378daa952ba7f163c4a11628f55a4df523b3ef",
            "0x0000000000000000000000000000000000000000000000000000000000000000",
            "0x0000000000000000000000008ee06e608de47ea1b185583aca65e34f2fd79b13"
          ],
          "data": "0x0000000000000000000000000000000000000000000000000192c9e06e148270",
          "blockHash": "0x6337d745df41dc18ad942fd8558d50995a4a99fbf413ba912d862b850917a2ce",
          "blockNumber": "0x96fb88",
          "blockTimestamp": "0x66f31edb",
          "transactionHash": "0x520f01ddac3df4d5550cfbd1439ae783b8794e77e4e25c095c712f7ae88f1ad4",
          "transactionIndex": "0x3",
          "logIndex": "0x12",
          "removed": false
        },
        {
          "address": "0xb4ffef15daf4c02787bc5332580b838ce39805f5",
          "topics": [
            "0x458f5fa412d0f69b08dd84872b0215675cc67bc1d5b6fd93300a1c3878b86196",
            "0x0000000000000000000000008ee06e608de47ea1b185583aca65e34f2fd79b13",
            "0x0000000000000000000000008ee06e608de47ea1b185583aca65e34f2fd79b13"
          ],
          "data": "0x0000000000000000000000000000000000000000000000000192c9e06e1482700000000000000000000000000000000000000000000000000000000000000000000000000000000000000000000000000000000003530b11f1abe20f8835c729",
          "blockHash": "0x6337d745df41dc18ad942fd8558d50995a4a99fbf413ba912d862b850917a2ce",
          "blockNumber": "0x96fb88",
          "blockTimestamp": "0x66f31edb",
          "transactionHash": "0x520f01ddac3df4d5550cfbd1439ae783b8794e77e4e25c095c712f7ae88f1ad4",
          "transactionIndex": "0x3",
          "logIndex": "0x13",
          "removed": false
        },
        {
          "address": "0x2f9bb73a8e98793e26cb2f6c4ad037bdf1c6b269",
          "topics": [
            "0x00058a56ea94653cdf4f152d227ace22d4c00ad99e2a43f58cb7d9e3feb295f2",
            "0x000000000000000000000000e5d7c2a44ffddf6b295a15c148167daaaf5cf34f",
            "0x0000000000000000000000008ee06e608de47ea1b185583aca65e34f2fd79b13"
          ],
          "data": "0x",
          "blockHash": "0x6337d745df41dc18ad942fd8558d50995a4a99fbf413ba912d862b850917a2ce",
          "blockNumber": "0x96fb88",
          "blockTimestamp": "0x66f31edb",
          "transactionHash": "0x520f01ddac3df4d5550cfbd1439ae783b8794e77e4e25c095c712f7ae88f1ad4",
          "transactionIndex": "0x3",
          "logIndex": "0x14",
          "removed": false
        },
        {
          "address": "0x2f9bb73a8e98793e26cb2f6c4ad037bdf1c6b269",
          "topics": [
            "0x2b627736bca15cd5381dcf80b0bf11fd197d01a037c52b927a881a10fb73ba61",
            "0x000000000000000000000000e5d7c2a44ffddf6b295a15c148167daaaf5cf34f",
            "0x0000000000000000000000008ee06e608de47ea1b185583aca65e34f2fd79b13",
            "0x0000000000000000000000000000000000000000000000000000000000000000"
          ],
          "data": "0x0000000000000000000000008ee06e608de47ea1b185583aca65e34f2fd79b130000000000000000000000000000000000000000000000000192c9e06e148270",
          "blockHash": "0x6337d745df41dc18ad942fd8558d50995a4a99fbf413ba912d862b850917a2ce",
          "blockNumber": "0x96fb88",
          "blockTimestamp": "0x66f31edb",
          "transactionHash": "0x520f01ddac3df4d5550cfbd1439ae783b8794e77e4e25c095c712f7ae88f1ad4",
          "transactionIndex": "0x3",
          "logIndex": "0x15",
          "removed": false
        },
        {
          "address": "0x28f6899ff643261ca9766ddc251b359a2d00b945",
          "topics": [
            "0x3303facd24627943a92e9dc87cfbb34b15c49b726eec3ad3487c16be9ab8efe8",
            "0x000000000000000000000000a2703dc9fbaccd6ec2e4cbfa700989d0238133f6",
            "0x00000000000000000000000040a59a3f3b16d9e74c811d24d8b7969664cfe180",
            "0x0000000000000000000000008ee06e608de47ea1b185583aca65e34f2fd79b13"
          ],
          "data": "0x0000000000000000000000000000000000000000000000053f69899e410bb3ed0000000000000000000000000000000000000000000000053f69899e410bb3ed0000000000000000000000000000000000000000000000000000000000000000",
          "blockHash": "0x6337d745df41dc18ad942fd8558d50995a4a99fbf413ba912d862b850917a2ce",
          "blockNumber": "0x96fb88",
          "blockTimestamp": "0x66f31edb",
          "transactionHash": "0x520f01ddac3df4d5550cfbd1439ae783b8794e77e4e25c095c712f7ae88f1ad4",
          "transactionIndex": "0x3",
          "logIndex": "0x16",
          "removed": false
        },
        {
          "address": "0x28f6899ff643261ca9766ddc251b359a2d00b945",
          "topics": [
            "0x3303facd24627943a92e9dc87cfbb34b15c49b726eec3ad3487c16be9ab8efe8",
            "0x000000000000000000000000a2703dc9fbaccd6ec2e4cbfa700989d0238133f6",
            "0x00000000000000000000000078354f8dccb269a615a7e0a24f9b0718fdc3c7a7",
            "0x0000000000000000000000008ee06e608de47ea1b185583aca65e34f2fd79b13"
          ],
          "data": "0x0000000000000000000000000000000000000000000000019abff2f72d42b1040000000000000000000000000000000000000000000000019abff2f72d42b1040000000000000000000000000000000000000000000000000000000000000000",
          "blockHash": "0x6337d745df41dc18ad942fd8558d50995a4a99fbf413ba912d862b850917a2ce",
          "blockNumber": "0x96fb88",
          "blockTimestamp": "0x66f31edb",
          "transactionHash": "0x520f01ddac3df4d5550cfbd1439ae783b8794e77e4e25c095c712f7ae88f1ad4",
          "transactionIndex": "0x3",
          "logIndex": "0x17",
          "removed": false
        },
        {
          "address": "0xa2703dc9fbaccd6ec2e4cbfa700989d0238133f6",
          "topics": [
            "0xddf252ad1be2c89b69c2b068fc378daa952ba7f163c4a11628f55a4df523b3ef",
            "0x0000000000000000000000000000000000000000000000000000000000000000",
            "0x0000000000000000000000008ee06e608de47ea1b185583aca65e34f2fd79b13"
          ],
          "data": "0x000000000000000000000000000000000000000000000000000000000bed48a0",
          "blockHash": "0x6337d745df41dc18ad942fd8558d50995a4a99fbf413ba912d862b850917a2ce",
          "blockNumber": "0x96fb88",
          "blockTimestamp": "0x66f31edb",
          "transactionHash": "0x520f01ddac3df4d5550cfbd1439ae783b8794e77e4e25c095c712f7ae88f1ad4",
          "transactionIndex": "0x3",
          "logIndex": "0x18",
          "removed": false
        },
        {
          "address": "0xa2703dc9fbaccd6ec2e4cbfa700989d0238133f6",
          "topics": [
            "0x458f5fa412d0f69b08dd84872b0215675cc67bc1d5b6fd93300a1c3878b86196",
            "0x0000000000000000000000008ee06e608de47ea1b185583aca65e34f2fd79b13",
            "0x0000000000000000000000008ee06e608de47ea1b185583aca65e34f2fd79b13"
          ],
          "data": "0x000000000000000000000000000000000000000000000000000000000bed48a000000000000000000000000000000000000000000000000000000000000000000000000000000000000000000000000000000000036d8731a01de9ee0d945276",
          "blockHash": "0x6337d745df41dc18ad942fd8558d50995a4a99fbf413ba912d862b850917a2ce",
          "blockNumber": "0x96fb88",
          "blockTimestamp": "0x66f31edb",
          "transactionHash": "0x520f01ddac3df4d5550cfbd1439ae783b8794e77e4e25c095c712f7ae88f1ad4",
          "transactionIndex": "0x3",
          "logIndex": "0x19",
          "removed": false
        },
        {
          "address": "0x2f9bb73a8e98793e26cb2f6c4ad037bdf1c6b269",
          "topics": [
            "0x804c9b842b2748a22bb64b345453a3de7ca54a6ca45ce00d415894979e22897a",
            "0x000000000000000000000000176211869ca2b568f2a7d4ee941e073a821ee1ff"
          ],
          "data": "0x00000000000000000000000000000000000000000058f0ea4f6805b6c5cf4427000000000000000000000000000000000000000000a09fa1510963816b4320aa000000000000000000000000000000000000000000943741afeb6194fc4320aa0000000000000000000000000000000000000000035ee13320724b492935980c0000000000000000000000000000000000000000036d8731a01de9ee0d945276",
          "blockHash": "0x6337d745df41dc18ad942fd8558d50995a4a99fbf413ba912d862b850917a2ce",
          "blockNumber": "0x96fb88",
          "blockTimestamp": "0x66f31edb",
          "transactionHash": "0x520f01ddac3df4d5550cfbd1439ae783b8794e77e4e25c095c712f7ae88f1ad4",
          "transactionIndex": "0x3",
          "logIndex": "0x1a",
          "removed": false
        },
        {
          "address": "0x176211869ca2b568f2a7d4ee941e073a821ee1ff",
          "topics": [
            "0xddf252ad1be2c89b69c2b068fc378daa952ba7f163c4a11628f55a4df523b3ef",
            "0x0000000000000000000000002e207eca8b6bf77a6ac82763eeed2a94de4f081d",
            "0x0000000000000000000000008ee06e608de47ea1b185583aca65e34f2fd79b13"
          ],
          "data": "0x000000000000000000000000000000000000000000000000000000000bed48a0",
          "blockHash": "0x6337d745df41dc18ad942fd8558d50995a4a99fbf413ba912d862b850917a2ce",
          "blockNumber": "0x96fb88",
          "blockTimestamp": "0x66f31edb",
          "transactionHash": "0x520f01ddac3df4d5550cfbd1439ae783b8794e77e4e25c095c712f7ae88f1ad4",
          "transactionIndex": "0x3",
          "logIndex": "0x1b",
          "removed": false
        },
        {
          "address": "0x2f9bb73a8e98793e26cb2f6c4ad037bdf1c6b269",
          "topics": [
            "0xb3d084820fb1a9decffb176436bd02558d15fac9b0ddfed8c465bc7359d7dce0",
            "0x000000000000000000000000176211869ca2b568f2a7d4ee941e073a821ee1ff",
            "0x0000000000000000000000008ee06e608de47ea1b185583aca65e34f2fd79b13",
            "0x0000000000000000000000000000000000000000000000000000000000000000"
          ],
          "data": "0x0000000000000000000000008ee06e608de47ea1b185583aca65e34f2fd79b13000000000000000000000000000000000000000000000000000000000bed48a00000000000000000000000000000000000000000000000000000000000000002000000000000000000000000000000000000000000943741afeb6194fc4320aa",
          "blockHash": "0x6337d745df41dc18ad942fd8558d50995a4a99fbf413ba912d862b850917a2ce",
          "blockNumber": "0x96fb88",
          "blockTimestamp": "0x66f31edb",
          "transactionHash": "0x520f01ddac3df4d5550cfbd1439ae783b8794e77e4e25c095c712f7ae88f1ad4",
          "transactionIndex": "0x3",
          "logIndex": "0x1c",
          "removed": false
        },
        {
          "address": "0x176211869ca2b568f2a7d4ee941e073a821ee1ff",
          "topics": [
            "0x8c5be1e5ebec7d5bd14f71427d1e84f3dd0314c0f7b2291e5b200ac8c7c3b925",
            "0x0000000000000000000000008ee06e608de47ea1b185583aca65e34f2fd79b13",
            "0x0000000000000000000000002d8879046f1559e53eb052e949e9544bcb72f414"
          ],
          "data": "0x0000000000000000000000000000000000000000000000000000000000000000",
          "blockHash": "0x6337d745df41dc18ad942fd8558d50995a4a99fbf413ba912d862b850917a2ce",
          "blockNumber": "0x96fb88",
          "blockTimestamp": "0x66f31edb",
          "transactionHash": "0x520f01ddac3df4d5550cfbd1439ae783b8794e77e4e25c095c712f7ae88f1ad4",
          "transactionIndex": "0x3",
          "logIndex": "0x1d",
          "removed": false
        },
        {
          "address": "0xe5d7c2a44ffddf6b295a15c148167daaaf5cf34f",
          "topics": [
            "0x8c5be1e5ebec7d5bd14f71427d1e84f3dd0314c0f7b2291e5b200ac8c7c3b925",
            "0x0000000000000000000000008ee06e608de47ea1b185583aca65e34f2fd79b13",
            "0x0000000000000000000000002f9bb73a8e98793e26cb2f6c4ad037bdf1c6b269"
          ],
          "data": "0x0000000000000000000000000000000000000000000000000000000000000000",
          "blockHash": "0x6337d745df41dc18ad942fd8558d50995a4a99fbf413ba912d862b850917a2ce",
          "blockNumber": "0x96fb88",
          "blockTimestamp": "0x66f31edb",
          "transactionHash": "0x520f01ddac3df4d5550cfbd1439ae783b8794e77e4e25c095c712f7ae88f1ad4",
          "transactionIndex": "0x3",
          "logIndex": "0x1e",
          "removed": false
        },
        {
          "address": "0x176211869ca2b568f2a7d4ee941e073a821ee1ff",
          "topics": [
            "0x8c5be1e5ebec7d5bd14f71427d1e84f3dd0314c0f7b2291e5b200ac8c7c3b925",
            "0x0000000000000000000000008ee06e608de47ea1b185583aca65e34f2fd79b13",
            "0x0000000000000000000000002f9bb73a8e98793e26cb2f6c4ad037bdf1c6b269"
          ],
          "data": "0x000000000000000000000000000000000000000000000000000000000bed48a0",
          "blockHash": "0x6337d745df41dc18ad942fd8558d50995a4a99fbf413ba912d862b850917a2ce",
          "blockNumber": "0x96fb88",
          "blockTimestamp": "0x66f31edb",
          "transactionHash": "0x520f01ddac3df4d5550cfbd1439ae783b8794e77e4e25c095c712f7ae88f1ad4",
          "transactionIndex": "0x3",
          "logIndex": "0x1f",
          "removed": false
        },
        {
          "address": "0x2f9bb73a8e98793e26cb2f6c4ad037bdf1c6b269",
          "topics": [
            "0x804c9b842b2748a22bb64b345453a3de7ca54a6ca45ce00d415894979e22897a",
            "0x000000000000000000000000176211869ca2b568f2a7d4ee941e073a821ee1ff"
          ],
          "data": "0x00000000000000000000000000000000000000000058e3b6d3d9db7e21cc2962000000000000000000000000000000000000000000a08a51f31b8dccf667976a0000000000000000000000000000000000000000009421f251fd8be08767976a0000000000000000000000000000000000000000035ee133a3d4f9f7e4077c630000000000000000000000000000000000000000036d8731a01de9ee0d945276",
          "blockHash": "0x6337d745df41dc18ad942fd8558d50995a4a99fbf413ba912d862b850917a2ce",
          "blockNumber": "0x96fb88",
          "blockTimestamp": "0x66f31edb",
          "transactionHash": "0x520f01ddac3df4d5550cfbd1439ae783b8794e77e4e25c095c712f7ae88f1ad4",
          "transactionIndex": "0x3",
          "logIndex": "0x20",
          "removed": false
        },
        {
          "address": "0x176211869ca2b568f2a7d4ee941e073a821ee1ff",
          "topics": [
            "0xddf252ad1be2c89b69c2b068fc378daa952ba7f163c4a11628f55a4df523b3ef",
            "0x0000000000000000000000008ee06e608de47ea1b185583aca65e34f2fd79b13",
            "0x0000000000000000000000002e207eca8b6bf77a6ac82763eeed2a94de4f081d"
          ],
          "data": "0x000000000000000000000000000000000000000000000000000000000bed48a0",
          "blockHash": "0x6337d745df41dc18ad942fd8558d50995a4a99fbf413ba912d862b850917a2ce",
          "blockNumber": "0x96fb88",
          "blockTimestamp": "0x66f31edb",
          "transactionHash": "0x520f01ddac3df4d5550cfbd1439ae783b8794e77e4e25c095c712f7ae88f1ad4",
          "transactionIndex": "0x3",
          "logIndex": "0x21",
          "removed": false
        },
        {
          "address": "0x2f9bb73a8e98793e26cb2f6c4ad037bdf1c6b269",
          "topics": [
            "0xefefaba5e921573100900a3ad9cf29f222d995fb3b6045797eaea7521bd8d6f0",
            "0x0000000000000000000000008ee06e608de47ea1b185583aca65e34f2fd79b13",
            "0x000000000000000000000000176211869ca2b568f2a7d4ee941e073a821ee1ff",
            "0x0000000000000000000000000000000000000000000000000000000000000000"
          ],
          "data": "0x0000000000000000000000008ee06e608de47ea1b185583aca65e34f2fd79b13000000000000000000000000000000000000000000000000000000000bebc200000000000000000000000000000000000000000000000000000000000000000000000000000000000000000000000000000000000000000000000000000186a0",
          "blockHash": "0x6337d745df41dc18ad942fd8558d50995a4a99fbf413ba912d862b850917a2ce",
          "blockNumber": "0x96fb88",
          "blockTimestamp": "0x66f31edb",
          "transactionHash": "0x520f01ddac3df4d5550cfbd1439ae783b8794e77e4e25c095c712f7ae88f1ad4",
          "transactionIndex": "0x3",
          "logIndex": "0x22",
          "removed": false
        }
      ],
      "logsBloom": "0x01000000004009040080000000000000008000004000000000000000000000000800a0012000080000001000000600000010080000100014000401000020000004000020004000000008000802000000204000000000000200000004004000000080000202000000008000012000080180400000120000000100001020040000000002008000000800100004000000000000000000000000008000040000004002080000020000040000000002000010000000000010080100004000a00001000250000208000120000000204000000000020000a0000e0000000000000020000010200000008020000000000001000040000000000002000000400000100000",
      "type": "0x2",
      "transactionHash": "0x520f01ddac3df4d5550cfbd1439ae783b8794e77e4e25c095c712f7ae88f1ad4",
      "transactionIndex": "0x3",
      "blockHash": "0x6337d745df41dc18ad942fd8558d50995a4a99fbf413ba912d862b850917a2ce",
      "blockNumber": "0x96fb88",
      "gasUsed": "0x124080",
      "effectiveGasPrice": "0x86781fa",
      "blobGasPrice": "0x1",
      "from": "0xf39fd6e51aad88f6f4ce6ab8827279cfffb92266",
      "to": "0x0b306bf915c4d645ff596e518faf3f9669b97016",
      "contractAddress": null,
      "root": "0x0000000000000000000000000000000000000000000000000000000000000000"
    }
  ],
  "libraries": [],
  "pending": [],
  "returns": {},
  "timestamp": 1727209182,
  "chain": 59144,
  "commit": "a0c2ae3"
}