{
  "transactions": [
    {
      "hash": "0x8753a850dac494f3a368a54b79b2a097fdea8786e48fb34d1f4953a949256dc9",
      "transactionType": "CALL",
      "contractName": null,
      "contractAddress": "0xe5d7c2a44ffddf6b295a15c148167daaaf5cf34f",
      "function": "approve(address,uint256)",
      "arguments": [
        "0x0B306BF915C4d645ff596e518fAf3F9669b97016",
        "115792089237316195423570985008687907853269984665640564039457584007913129639935"
      ],
      "transaction": {
        "from": "0xf39fd6e51aad88f6f4ce6ab8827279cfffb92266",
        "to": "0xe5d7c2a44ffddf6b295a15c148167daaaf5cf34f",
        "gas": "0xfa27",
        "value": "0x0",
        "input": "0x095ea7b30000000000000000000000000b306bf915c4d645ff596e518faf3f9669b97016ffffffffffffffffffffffffffffffffffffffffffffffffffffffffffffffff",
        "nonce": "0x23",
        "chainId": "0xe708"
      },
      "additionalContracts": [],
      "isFixedGasLimit": false
    },
    {
      "hash": "0x73c896ef759197893c9595ecdb773d0685658941b445aeaba1d6c01be06fee1b",
      "transactionType": "CALL",
      "contractName": null,
      "contractAddress": "0x176211869ca2b568f2a7d4ee941e073a821ee1ff",
      "function": "approve(address,uint256)",
      "arguments": [
        "0x0B306BF915C4d645ff596e518fAf3F9669b97016",
        "115792089237316195423570985008687907853269984665640564039457584007913129639935"
      ],
      "transaction": {
        "from": "0xf39fd6e51aad88f6f4ce6ab8827279cfffb92266",
        "to": "0x176211869ca2b568f2a7d4ee941e073a821ee1ff",
        "gas": "0xe62b",
        "value": "0x0",
        "input": "0x095ea7b30000000000000000000000000b306bf915c4d645ff596e518faf3f9669b97016ffffffffffffffffffffffffffffffffffffffffffffffffffffffffffffffff",
        "nonce": "0x24",
        "chainId": "0xe708"
      },
      "additionalContracts": [],
      "isFixedGasLimit": false
    },
    {
      "hash": "0xc2de3b58b8fd78a76a45a5413becd851081909eb098f1ccfb6cb8f1cfc68ebb2",
      "transactionType": "CALL",
      "contractName": null,
      "contractAddress": "0x0b306bf915c4d645ff596e518faf3f9669b97016",
      "function": "createAndAddToPosition((string,address,address),(uint256,uint256,bytes))",
      "arguments": [
        "(\"LONG_BASE_ODOS_ZEROLEND\", 0x176211869cA2b568f2A7D4EE941E073a821EE1ff, 0xe5D7C2a44FfDDf6b295A15c148167daaAf5Cf34f)",
        "(10000000000000000, 48917300, 0x83bd37f90001176211869ca2b568f2a7d4ee941e073a821ee1ff0001e5d7c2a44ffddf6b295a15c148167daaaf5cf34f0402ea6b3407471fc4aebf6f20028f5c000156c85a254dd12ee8d9c04049a4ab62769ce9821000000001ef0e791f490be9019b5d518f4eb67cf2d4550a7d0000000003010203000a0101010201ff000000000000000000000000000000000000000000d5539d0360438a66661148c633a9f0965e482845176211869ca2b568f2a7d4ee941e073a821ee1ff000000000000000000000000000000000000000000000000)"
      ],
      "transaction": {
        "from": "0xf39fd6e51aad88f6f4ce6ab8827279cfffb92266",
        "to": "0x0b306bf915c4d645ff596e518faf3f9669b97016",
        "gas": "0x1a2ad0",
        "value": "0x0",
        "input": "0x211d9b04000000000000000000000000000000000000000000000000000000000000004000000000000000000000000000000000000000000000000000000000000000e00000000000000000000000000000000000000000000000000000000000000060000000000000000000000000176211869ca2b568f2a7d4ee941e073a821ee1ff000000000000000000000000e5d7c2a44ffddf6b295a15c148167daaaf5cf34f00000000000000000000000000000000000000000000000000000000000000174c4f4e475f424153455f4f444f535f5a45524f4c454e44000000000000000000000000000000000000000000000000000000000000000000002386f26fc100000000000000000000000000000000000000000000000000000000000002ea6b34000000000000000000000000000000000000000000000000000000000000006000000000000000000000000000000000000000000000000000000000000000d383bd37f90001176211869ca2b568f2a7d4ee941e073a821ee1ff0001e5d7c2a44ffddf6b295a15c148167daaaf5cf34f0402ea6b3407471fc4aebf6f20028f5c000156c85a254dd12ee8d9c04049a4ab62769ce9821000000001ef0e791f490be9019b5d518f4eb67cf2d4550a7d0000000003010203000a0101010201ff000000000000000000000000000000000000000000d5539d0360438a66661148c633a9f0965e482845176211869ca2b568f2a7d4ee941e073a821ee1ff00000000000000000000000000000000000000000000000000000000000000000000000000",
        "nonce": "0x25",
        "chainId": "0xe708"
      },
      "additionalContracts": [
        {
          "transactionType": "CREATE2",
          "address": "0xef0e791f490be9019b5d518f4eb67cf2d4550a7d",
          "initCode": "0x60a060405234801561001057600080fd5b506040516101d43803806101d483398101604081905261002f9161009a565b6001600160a01b0381166100895760405162461bcd60e51b815260206004820152601e60248201527f496e76616c696420696d706c656d656e746174696f6e20616464726573730000604482015260640160405180910390fd5b6001600160a01b03166080526100ca565b6000602082840312156100ac57600080fd5b81516001600160a01b03811681146100c357600080fd5b9392505050565b60805160ec6100e860003960008181602001526055015260ec6000f3fe608060405260043610601c5760003560e01c80635c60da1b146045575b60437f00000000000000000000000000000000000000000000000000000000000000006093565b005b348015605057600080fd5b5060777f000000000000000000000000000000000000000000000000000000000000000081565b6040516001600160a01b03909116815260200160405180910390f35b3660008037600080366000845af43d6000803e80801560b1573d6000f35b3d6000fdfea2646970667358221220f6020ed423ab8c3633806cc507ff73ce07ea9bade45f63874f1be7c04b23516364736f6c634300081a00330000000000000000000000003aa5ebb10dc797cac828524e59a333d0a371443c"
        }
      ],
      "isFixedGasLimit": false
    }
  ],
  "receipts": [
    {
      "status": "0x1",
      "cumulativeGasUsed": "0xb51c",
      "logs": [
        {
          "address": "0xe5d7c2a44ffddf6b295a15c148167daaaf5cf34f",
          "topics": [
            "0x8c5be1e5ebec7d5bd14f71427d1e84f3dd0314c0f7b2291e5b200ac8c7c3b925",
            "0x000000000000000000000000f39fd6e51aad88f6f4ce6ab8827279cfffb92266",
            "0x0000000000000000000000000b306bf915c4d645ff596e518faf3f9669b97016"
          ],
          "data": "0xffffffffffffffffffffffffffffffffffffffffffffffffffffffffffffffff",
          "blockHash": "0x50b2e67e47ae42aeda1468a7ae3f7628c8b52ebcb87c0d1f577cf37849d7fd77",
          "blockNumber": "0x8fd8d5",
          "blockTimestamp": "0x66e4c9a6",
          "transactionHash": "0x8753a850dac494f3a368a54b79b2a097fdea8786e48fb34d1f4953a949256dc9",
          "transactionIndex": "0x0",
          "logIndex": "0x0",
          "removed": false
        }
      ],
      "logsBloom": "0x0000000000000000000000000000000800000000000000000000000000000000000000000000000000000000000000000000000000000000000000000020000000000000000000000000000000000000000000000000000000000000000000000000000000000000000000030000000000000000000000000000000000000000000000000000000000100000000000000000000000000000000000000000000002000000000000000000000000000000000000000000000000000000200000000000000000000020000000000000000000000000a000000000000000000000000010000000000000000000000400000000000000000000000000000000000000",
      "type": "0x2",
      "transactionHash": "0x8753a850dac494f3a368a54b79b2a097fdea8786e48fb34d1f4953a949256dc9",
      "transactionIndex": "0x0",
      "blockHash": "0x50b2e67e47ae42aeda1468a7ae3f7628c8b52ebcb87c0d1f577cf37849d7fd77",
      "blockNumber": "0x8fd8d5",
      "gasUsed": "0xb51c",
      "effectiveGasPrice": "0x3938707",
      "blobGasPrice": "0x1",
      "from": "0xf39fd6e51aad88f6f4ce6ab8827279cfffb92266",
      "to": "0xe5d7c2a44ffddf6b295a15c148167daaaf5cf34f",
      "contractAddress": null,
      "root": "0x0000000000000000000000000000000000000000000000000000000000000000"
    },
    {
      "status": "0x1",
      "cumulativeGasUsed": "0x9d62",
      "logs": [
        {
          "address": "0x176211869ca2b568f2a7d4ee941e073a821ee1ff",
          "topics": [
            "0x8c5be1e5ebec7d5bd14f71427d1e84f3dd0314c0f7b2291e5b200ac8c7c3b925",
            "0x000000000000000000000000f39fd6e51aad88f6f4ce6ab8827279cfffb92266",
            "0x0000000000000000000000000b306bf915c4d645ff596e518faf3f9669b97016"
          ],
          "data": "0xffffffffffffffffffffffffffffffffffffffffffffffffffffffffffffffff",
          "blockHash": "0xc1fdac71405ed74ced552f99b245ffc7c66619c04939d96b96a6caf202989b6c",
          "blockNumber": "0x8fd8d6",
          "blockTimestamp": "0x66e4c9a7",
          "transactionHash": "0x73c896ef759197893c9595ecdb773d0685658941b445aeaba1d6c01be06fee1b",
          "transactionIndex": "0x0",
          "logIndex": "0x0",
          "removed": false
        }
      ],
      "logsBloom": "0x00000000000000000000000000000008000000000000000000000000000000000000000000000000000000000000000000000800000000000004000000200000000000000000000000000000020000000000000000000000000000000000000000000000000000000000000300000000000000000000000000000000000000000000000000000000000000000000000000000000000000000000000000000000020000000000000000000000000000000000000000000000000000000000000000000000000000200000000000000000000000002000000000000000000000000010000000000000000000000400000000000000000000000000000000000000",
      "type": "0x2",
      "transactionHash": "0x73c896ef759197893c9595ecdb773d0685658941b445aeaba1d6c01be06fee1b",
      "transactionIndex": "0x0",
      "blockHash": "0xc1fdac71405ed74ced552f99b245ffc7c66619c04939d96b96a6caf202989b6c",
      "blockNumber": "0x8fd8d6",
      "gasUsed": "0x9d62",
      "effectiveGasPrice": "0x3938707",
      "blobGasPrice": "0x1",
      "from": "0xf39fd6e51aad88f6f4ce6ab8827279cfffb92266",
      "to": "0x176211869ca2b568f2a7d4ee941e073a821ee1ff",
      "contractAddress": null,
      "root": "0x0000000000000000000000000000000000000000000000000000000000000000"
    },
    {
      "status": "0x1",
      "cumulativeGasUsed": "0x11e483",
      "logs": [
        {
          "address": "0x9a9f2ccfde556a7e9ff0848998aa4a0cfd8863ae",
          "topics": [
            "0xddf252ad1be2c89b69c2b068fc378daa952ba7f163c4a11628f55a4df523b3ef",
            "0x0000000000000000000000000000000000000000000000000000000000000000",
            "0x000000000000000000000000f39fd6e51aad88f6f4ce6ab8827279cfffb92266",
            "0x0000000000000000000000000000000000000000000000000000000000000000"
          ],
          "data": "0x",
          "blockHash": "0x031622ab94f23c2d1af9688b1fef5d8527cbc720783253eef8fc945e224b7450",
          "blockNumber": "0x8fd8d7",
          "blockTimestamp": "0x66e4c9a8",
          "transactionHash": "0xc2de3b58b8fd78a76a45a5413becd851081909eb098f1ccfb6cb8f1cfc68ebb2",
          "transactionIndex": "0x0",
          "logIndex": "0x0",
          "removed": false
        },
        {
          "address": "0xe5d7c2a44ffddf6b295a15c148167daaaf5cf34f",
          "topics": [
            "0xddf252ad1be2c89b69c2b068fc378daa952ba7f163c4a11628f55a4df523b3ef",
            "0x000000000000000000000000f39fd6e51aad88f6f4ce6ab8827279cfffb92266",
            "0x000000000000000000000000ef0e791f490be9019b5d518f4eb67cf2d4550a7d"
          ],
          "data": "0x000000000000000000000000000000000000000000000000002386f26fc10000",
          "blockHash": "0x031622ab94f23c2d1af9688b1fef5d8527cbc720783253eef8fc945e224b7450",
          "blockNumber": "0x8fd8d7",
          "blockTimestamp": "0x66e4c9a8",
          "transactionHash": "0xc2de3b58b8fd78a76a45a5413becd851081909eb098f1ccfb6cb8f1cfc68ebb2",
          "transactionIndex": "0x0",
          "logIndex": "0x1",
          "removed": false
        },
        {
          "address": "0x176211869ca2b568f2a7d4ee941e073a821ee1ff",
          "topics": [
            "0xddf252ad1be2c89b69c2b068fc378daa952ba7f163c4a11628f55a4df523b3ef",
            "0x0000000000000000000000002e207eca8b6bf77a6ac82763eeed2a94de4f081d",
            "0x000000000000000000000000ef0e791f490be9019b5d518f4eb67cf2d4550a7d"
          ],
          "data": "0x0000000000000000000000000000000000000000000000000000000002ea6b34",
          "blockHash": "0x031622ab94f23c2d1af9688b1fef5d8527cbc720783253eef8fc945e224b7450",
          "blockNumber": "0x8fd8d7",
          "blockTimestamp": "0x66e4c9a8",
          "transactionHash": "0xc2de3b58b8fd78a76a45a5413becd851081909eb098f1ccfb6cb8f1cfc68ebb2",
          "transactionIndex": "0x0",
          "logIndex": "0x2",
          "removed": false
        },
        {
          "address": "0x176211869ca2b568f2a7d4ee941e073a821ee1ff",
          "topics": [
            "0x8c5be1e5ebec7d5bd14f71427d1e84f3dd0314c0f7b2291e5b200ac8c7c3b925",
            "0x000000000000000000000000ef0e791f490be9019b5d518f4eb67cf2d4550a7d",
            "0x0000000000000000000000002d8879046f1559e53eb052e949e9544bcb72f414"
          ],
          "data": "0x0000000000000000000000000000000000000000000000000000000002ea6b34",
          "blockHash": "0x031622ab94f23c2d1af9688b1fef5d8527cbc720783253eef8fc945e224b7450",
          "blockNumber": "0x8fd8d7",
          "blockTimestamp": "0x66e4c9a8",
          "transactionHash": "0xc2de3b58b8fd78a76a45a5413becd851081909eb098f1ccfb6cb8f1cfc68ebb2",
          "transactionIndex": "0x0",
          "logIndex": "0x3",
          "removed": false
        },
        {
          "address": "0x176211869ca2b568f2a7d4ee941e073a821ee1ff",
          "topics": [
            "0xddf252ad1be2c89b69c2b068fc378daa952ba7f163c4a11628f55a4df523b3ef",
            "0x000000000000000000000000ef0e791f490be9019b5d518f4eb67cf2d4550a7d",
            "0x00000000000000000000000056c85a254dd12ee8d9c04049a4ab62769ce98210"
          ],
          "data": "0x0000000000000000000000000000000000000000000000000000000002ea6b34",
          "blockHash": "0x031622ab94f23c2d1af9688b1fef5d8527cbc720783253eef8fc945e224b7450",
          "blockNumber": "0x8fd8d7",
          "blockTimestamp": "0x66e4c9a8",
          "transactionHash": "0xc2de3b58b8fd78a76a45a5413becd851081909eb098f1ccfb6cb8f1cfc68ebb2",
          "transactionIndex": "0x0",
          "logIndex": "0x4",
          "removed": false
        },
        {
          "address": "0xe5d7c2a44ffddf6b295a15c148167daaaf5cf34f",
          "topics": [
            "0xddf252ad1be2c89b69c2b068fc378daa952ba7f163c4a11628f55a4df523b3ef",
            "0x000000000000000000000000d5539d0360438a66661148c633a9f0965e482845",
            "0x0000000000000000000000002d8879046f1559e53eb052e949e9544bcb72f414"
          ],
          "data": "0x00000000000000000000000000000000000000000000000000471fc4a6355b8c",
          "blockHash": "0x031622ab94f23c2d1af9688b1fef5d8527cbc720783253eef8fc945e224b7450",
          "blockNumber": "0x8fd8d7",
          "blockTimestamp": "0x66e4c9a8",
          "transactionHash": "0xc2de3b58b8fd78a76a45a5413becd851081909eb098f1ccfb6cb8f1cfc68ebb2",
          "transactionIndex": "0x0",
          "logIndex": "0x5",
          "removed": false
        },
        {
          "address": "0x176211869ca2b568f2a7d4ee941e073a821ee1ff",
          "topics": [
            "0xddf252ad1be2c89b69c2b068fc378daa952ba7f163c4a11628f55a4df523b3ef",
            "0x00000000000000000000000056c85a254dd12ee8d9c04049a4ab62769ce98210",
            "0x000000000000000000000000d5539d0360438a66661148c633a9f0965e482845"
          ],
          "data": "0x0000000000000000000000000000000000000000000000000000000002ea6b34",
          "blockHash": "0x031622ab94f23c2d1af9688b1fef5d8527cbc720783253eef8fc945e224b7450",
          "blockNumber": "0x8fd8d7",
          "blockTimestamp": "0x66e4c9a8",
          "transactionHash": "0xc2de3b58b8fd78a76a45a5413becd851081909eb098f1ccfb6cb8f1cfc68ebb2",
          "transactionIndex": "0x0",
          "logIndex": "0x6",
          "removed": false
        },
        {
          "address": "0xd5539d0360438a66661148c633a9f0965e482845",
          "topics": [
            "0x19b47279256b2a23a1665c810c8d55a1758940ee09377d4f8d26497a3577dc83",
            "0x00000000000000000000000056c85a254dd12ee8d9c04049a4ab62769ce98210",
            "0x0000000000000000000000002d8879046f1559e53eb052e949e9544bcb72f414"
          ],
          "data": "0x0000000000000000000000000000000000000000000000000000000002ea6b34ffffffffffffffffffffffffffffffffffffffffffffffffffb8e03b59caa4740000000000000000000000000000000000004f0ab8adfc58c05329757ed052be000000000000000000000000000000000000000000000000005acfdf28da007a00000000000000000000000000000000000000000000000000000000000306a9000000000000000000000000000000000000000000000000000000000000207c0000000000000000000000000000000000000000000000000000000000000000",
          "blockHash": "0x031622ab94f23c2d1af9688b1fef5d8527cbc720783253eef8fc945e224b7450",
          "blockNumber": "0x8fd8d7",
          "blockTimestamp": "0x66e4c9a8",
          "transactionHash": "0xc2de3b58b8fd78a76a45a5413becd851081909eb098f1ccfb6cb8f1cfc68ebb2",
          "transactionIndex": "0x0",
          "logIndex": "0x7",
          "removed": false
        },
        {
          "address": "0xe5d7c2a44ffddf6b295a15c148167daaaf5cf34f",
          "topics": [
            "0xddf252ad1be2c89b69c2b068fc378daa952ba7f163c4a11628f55a4df523b3ef",
            "0x0000000000000000000000002d8879046f1559e53eb052e949e9544bcb72f414",
            "0x000000000000000000000000ef0e791f490be9019b5d518f4eb67cf2d4550a7d"
          ],
          "data": "0x00000000000000000000000000000000000000000000000000471fc4a6355b8c",
          "blockHash": "0x031622ab94f23c2d1af9688b1fef5d8527cbc720783253eef8fc945e224b7450",
          "blockNumber": "0x8fd8d7",
          "blockTimestamp": "0x66e4c9a8",
          "transactionHash": "0xc2de3b58b8fd78a76a45a5413becd851081909eb098f1ccfb6cb8f1cfc68ebb2",
          "transactionIndex": "0x0",
          "logIndex": "0x8",
          "removed": false
        },
        {
          "address": "0x2d8879046f1559e53eb052e949e9544bcb72f414",
          "topics": [
            "0x823eaf01002d7353fbcadb2ea3305cc46fa35d799cb0914846d185ac06f8ad05"
          ],
          "data": "0x000000000000000000000000ef0e791f490be9019b5d518f4eb67cf2d4550a7d0000000000000000000000000000000000000000000000000000000002ea6b34000000000000000000000000176211869ca2b568f2a7d4ee941e073a821ee1ff00000000000000000000000000000000000000000000000000471fc4a6355b8c000000000000000000000000e5d7c2a44ffddf6b295a15c148167daaaf5cf34ffffffffffffffffffffffffffffffffffffffffffffffffffffffffff775ec6c0000000000000000000000000000000000000000000000000000000000000000",
          "blockHash": "0x031622ab94f23c2d1af9688b1fef5d8527cbc720783253eef8fc945e224b7450",
          "blockNumber": "0x8fd8d7",
          "blockTimestamp": "0x66e4c9a8",
          "transactionHash": "0xc2de3b58b8fd78a76a45a5413becd851081909eb098f1ccfb6cb8f1cfc68ebb2",
          "transactionIndex": "0x0",
          "logIndex": "0x9",
          "removed": false
        },
        {
          "address": "0xe5d7c2a44ffddf6b295a15c148167daaaf5cf34f",
          "topics": [
            "0x8c5be1e5ebec7d5bd14f71427d1e84f3dd0314c0f7b2291e5b200ac8c7c3b925",
            "0x000000000000000000000000ef0e791f490be9019b5d518f4eb67cf2d4550a7d",
            "0x0000000000000000000000002f9bb73a8e98793e26cb2f6c4ad037bdf1c6b269"
          ],
          "data": "0x000000000000000000000000000000000000000000000000006aa6b715f65b8c",
          "blockHash": "0x031622ab94f23c2d1af9688b1fef5d8527cbc720783253eef8fc945e224b7450",
          "blockNumber": "0x8fd8d7",
          "blockTimestamp": "0x66e4c9a8",
          "transactionHash": "0xc2de3b58b8fd78a76a45a5413becd851081909eb098f1ccfb6cb8f1cfc68ebb2",
          "transactionIndex": "0x0",
          "logIndex": "0xa",
          "removed": false
        },
        {
          "address": "0x2f9bb73a8e98793e26cb2f6c4ad037bdf1c6b269",
          "topics": [
            "0x804c9b842b2748a22bb64b345453a3de7ca54a6ca45ce00d415894979e22897a",
            "0x000000000000000000000000e5d7c2a44ffddf6b295a15c148167daaaf5cf34f"
          ],
          "data": "0x0000000000000000000000000000000000000000000b4791e66f26a1b92d46df0000000000000000000000000000000000000000002cb532266a0e19211dc1000000000000000000000000000000000000000000001aca45c0303d7d78ee07fc00000000000000000000000000000000000000000352aeb205eca0346ffb2f0c0000000000000000000000000000000000000000035f5445aa2b95e2c60a0dbc",
          "blockHash": "0x031622ab94f23c2d1af9688b1fef5d8527cbc720783253eef8fc945e224b7450",
          "blockNumber": "0x8fd8d7",
          "blockTimestamp": "0x66e4c9a8",
          "transactionHash": "0xc2de3b58b8fd78a76a45a5413becd851081909eb098f1ccfb6cb8f1cfc68ebb2",
          "transactionIndex": "0x0",
          "logIndex": "0xb",
          "removed": false
        },
        {
          "address": "0xe5d7c2a44ffddf6b295a15c148167daaaf5cf34f",
          "topics": [
            "0xddf252ad1be2c89b69c2b068fc378daa952ba7f163c4a11628f55a4df523b3ef",
            "0x000000000000000000000000ef0e791f490be9019b5d518f4eb67cf2d4550a7d",
            "0x000000000000000000000000b4ffef15daf4c02787bc5332580b838ce39805f5"
          ],
          "data": "0x000000000000000000000000000000000000000000000000006aa6b715f65b8c",
          "blockHash": "0x031622ab94f23c2d1af9688b1fef5d8527cbc720783253eef8fc945e224b7450",
          "blockNumber": "0x8fd8d7",
          "blockTimestamp": "0x66e4c9a8",
          "transactionHash": "0xc2de3b58b8fd78a76a45a5413becd851081909eb098f1ccfb6cb8f1cfc68ebb2",
          "transactionIndex": "0x0",
          "logIndex": "0xc",
          "removed": false
        },
        {
          "address": "0x28f6899ff643261ca9766ddc251b359a2d00b945",
          "topics": [
            "0x3303facd24627943a92e9dc87cfbb34b15c49b726eec3ad3487c16be9ab8efe8",
            "0x000000000000000000000000b4ffef15daf4c02787bc5332580b838ce39805f5",
            "0x00000000000000000000000040a59a3f3b16d9e74c811d24d8b7969664cfe180",
            "0x000000000000000000000000ef0e791f490be9019b5d518f4eb67cf2d4550a7d"
          ],
          "data": "0x000000000000000000000000000000000000000000004a6e6ce87410aa4b5006000000000000000000000000000000000000000000004a6e6ce87410aa4b50060000000000000000000000000000000000000000000000000000000000000000",
          "blockHash": "0x031622ab94f23c2d1af9688b1fef5d8527cbc720783253eef8fc945e224b7450",
          "blockNumber": "0x8fd8d7",
          "blockTimestamp": "0x66e4c9a8",
          "transactionHash": "0xc2de3b58b8fd78a76a45a5413becd851081909eb098f1ccfb6cb8f1cfc68ebb2",
          "transactionIndex": "0x0",
          "logIndex": "0xd",
          "removed": false
        },
        {
          "address": "0x28f6899ff643261ca9766ddc251b359a2d00b945",
          "topics": [
            "0x3303facd24627943a92e9dc87cfbb34b15c49b726eec3ad3487c16be9ab8efe8",
            "0x000000000000000000000000b4ffef15daf4c02787bc5332580b838ce39805f5",
            "0x00000000000000000000000078354f8dccb269a615a7e0a24f9b0718fdc3c7a7",
            "0x000000000000000000000000ef0e791f490be9019b5d518f4eb67cf2d4550a7d"
          ],
          "data": "0x000000000000000000000000000000000000000000000283e1361706c62ca813000000000000000000000000000000000000000000000283e1361706c62ca8130000000000000000000000000000000000000000000000000000000000000000",
          "blockHash": "0x031622ab94f23c2d1af9688b1fef5d8527cbc720783253eef8fc945e224b7450",
          "blockNumber": "0x8fd8d7",
          "blockTimestamp": "0x66e4c9a8",
          "transactionHash": "0xc2de3b58b8fd78a76a45a5413becd851081909eb098f1ccfb6cb8f1cfc68ebb2",
          "transactionIndex": "0x0",
          "logIndex": "0xe",
          "removed": false
        },
        {
          "address": "0xb4ffef15daf4c02787bc5332580b838ce39805f5",
          "topics": [
            "0xddf252ad1be2c89b69c2b068fc378daa952ba7f163c4a11628f55a4df523b3ef",
            "0x0000000000000000000000000000000000000000000000000000000000000000",
            "0x000000000000000000000000ef0e791f490be9019b5d518f4eb67cf2d4550a7d"
          ],
          "data": "0x000000000000000000000000000000000000000000000000006aa6b715f65b8c",
          "blockHash": "0x031622ab94f23c2d1af9688b1fef5d8527cbc720783253eef8fc945e224b7450",
          "blockNumber": "0x8fd8d7",
          "blockTimestamp": "0x66e4c9a8",
          "transactionHash": "0xc2de3b58b8fd78a76a45a5413becd851081909eb098f1ccfb6cb8f1cfc68ebb2",
          "transactionIndex": "0x0",
          "logIndex": "0xf",
          "removed": false
        },
        {
          "address": "0xb4ffef15daf4c02787bc5332580b838ce39805f5",
          "topics": [
            "0x458f5fa412d0f69b08dd84872b0215675cc67bc1d5b6fd93300a1c3878b86196",
            "0x000000000000000000000000ef0e791f490be9019b5d518f4eb67cf2d4550a7d",
            "0x000000000000000000000000ef0e791f490be9019b5d518f4eb67cf2d4550a7d"
          ],
          "data": "0x000000000000000000000000000000000000000000000000006aa6b715f65b8c000000000000000000000000000000000000000000000000000000000000000000000000000000000000000000000000000000000352aeb205eca0346ffb2f0c",
          "blockHash": "0x031622ab94f23c2d1af9688b1fef5d8527cbc720783253eef8fc945e224b7450",
          "blockNumber": "0x8fd8d7",
          "blockTimestamp": "0x66e4c9a8",
          "transactionHash": "0xc2de3b58b8fd78a76a45a5413becd851081909eb098f1ccfb6cb8f1cfc68ebb2",
          "transactionIndex": "0x0",
          "logIndex": "0x10",
          "removed": false
        },
        {
          "address": "0x2f9bb73a8e98793e26cb2f6c4ad037bdf1c6b269",
          "topics": [
            "0x00058a56ea94653cdf4f152d227ace22d4c00ad99e2a43f58cb7d9e3feb295f2",
            "0x000000000000000000000000e5d7c2a44ffddf6b295a15c148167daaaf5cf34f",
            "0x000000000000000000000000ef0e791f490be9019b5d518f4eb67cf2d4550a7d"
          ],
          "data": "0x",
          "blockHash": "0x031622ab94f23c2d1af9688b1fef5d8527cbc720783253eef8fc945e224b7450",
          "blockNumber": "0x8fd8d7",
          "blockTimestamp": "0x66e4c9a8",
          "transactionHash": "0xc2de3b58b8fd78a76a45a5413becd851081909eb098f1ccfb6cb8f1cfc68ebb2",
          "transactionIndex": "0x0",
          "logIndex": "0x11",
          "removed": false
        },
        {
          "address": "0x2f9bb73a8e98793e26cb2f6c4ad037bdf1c6b269",
          "topics": [
            "0x2b627736bca15cd5381dcf80b0bf11fd197d01a037c52b927a881a10fb73ba61",
            "0x000000000000000000000000e5d7c2a44ffddf6b295a15c148167daaaf5cf34f",
            "0x000000000000000000000000ef0e791f490be9019b5d518f4eb67cf2d4550a7d",
            "0x0000000000000000000000000000000000000000000000000000000000000000"
          ],
          "data": "0x000000000000000000000000ef0e791f490be9019b5d518f4eb67cf2d4550a7d000000000000000000000000000000000000000000000000006aa6b715f65b8c",
          "blockHash": "0x031622ab94f23c2d1af9688b1fef5d8527cbc720783253eef8fc945e224b7450",
          "blockNumber": "0x8fd8d7",
          "blockTimestamp": "0x66e4c9a8",
          "transactionHash": "0xc2de3b58b8fd78a76a45a5413becd851081909eb098f1ccfb6cb8f1cfc68ebb2",
          "transactionIndex": "0x0",
          "logIndex": "0x12",
          "removed": false
        },
        {
          "address": "0x28f6899ff643261ca9766ddc251b359a2d00b945",
          "topics": [
            "0x3303facd24627943a92e9dc87cfbb34b15c49b726eec3ad3487c16be9ab8efe8",
            "0x000000000000000000000000a2703dc9fbaccd6ec2e4cbfa700989d0238133f6",
            "0x00000000000000000000000040a59a3f3b16d9e74c811d24d8b7969664cfe180",
            "0x000000000000000000000000ef0e791f490be9019b5d518f4eb67cf2d4550a7d"
          ],
          "data": "0x0000000000000000000000000000000000000000000000053f69899e410bb3ed0000000000000000000000000000000000000000000000053f69899e410bb3ed0000000000000000000000000000000000000000000000000000000000000000",
          "blockHash": "0x031622ab94f23c2d1af9688b1fef5d8527cbc720783253eef8fc945e224b7450",
          "blockNumber": "0x8fd8d7",
          "blockTimestamp": "0x66e4c9a8",
          "transactionHash": "0xc2de3b58b8fd78a76a45a5413becd851081909eb098f1ccfb6cb8f1cfc68ebb2",
          "transactionIndex": "0x0",
          "logIndex": "0x13",
          "removed": false
        },
        {
          "address": "0x28f6899ff643261ca9766ddc251b359a2d00b945",
          "topics": [
            "0x3303facd24627943a92e9dc87cfbb34b15c49b726eec3ad3487c16be9ab8efe8",
            "0x000000000000000000000000a2703dc9fbaccd6ec2e4cbfa700989d0238133f6",
            "0x00000000000000000000000078354f8dccb269a615a7e0a24f9b0718fdc3c7a7",
            "0x000000000000000000000000ef0e791f490be9019b5d518f4eb67cf2d4550a7d"
          ],
          "data": "0x000000000000000000000000000000000000000000000001735e80ab1444f201000000000000000000000000000000000000000000000001735e80ab1444f2010000000000000000000000000000000000000000000000000000000000000000",
          "blockHash": "0x031622ab94f23c2d1af9688b1fef5d8527cbc720783253eef8fc945e224b7450",
          "blockNumber": "0x8fd8d7",
          "blockTimestamp": "0x66e4c9a8",
          "transactionHash": "0xc2de3b58b8fd78a76a45a5413becd851081909eb098f1ccfb6cb8f1cfc68ebb2",
          "transactionIndex": "0x0",
          "logIndex": "0x14",
          "removed": false
        },
        {
          "address": "0xa2703dc9fbaccd6ec2e4cbfa700989d0238133f6",
          "topics": [
            "0xddf252ad1be2c89b69c2b068fc378daa952ba7f163c4a11628f55a4df523b3ef",
            "0x0000000000000000000000000000000000000000000000000000000000000000",
            "0x000000000000000000000000ef0e791f490be9019b5d518f4eb67cf2d4550a7d"
          ],
          "data": "0x0000000000000000000000000000000000000000000000000000000002eacabf",
          "blockHash": "0x031622ab94f23c2d1af9688b1fef5d8527cbc720783253eef8fc945e224b7450",
          "blockNumber": "0x8fd8d7",
          "blockTimestamp": "0x66e4c9a8",
          "transactionHash": "0xc2de3b58b8fd78a76a45a5413becd851081909eb098f1ccfb6cb8f1cfc68ebb2",
          "transactionIndex": "0x0",
          "logIndex": "0x15",
          "removed": false
        },
        {
          "address": "0xa2703dc9fbaccd6ec2e4cbfa700989d0238133f6",
          "topics": [
            "0x458f5fa412d0f69b08dd84872b0215675cc67bc1d5b6fd93300a1c3878b86196",
            "0x000000000000000000000000ef0e791f490be9019b5d518f4eb67cf2d4550a7d",
            "0x000000000000000000000000ef0e791f490be9019b5d518f4eb67cf2d4550a7d"
          ],
          "data": "0x0000000000000000000000000000000000000000000000000000000002eacabf00000000000000000000000000000000000000000000000000000000000000000000000000000000000000000000000000000000036bbaff758be36230599384",
          "blockHash": "0x031622ab94f23c2d1af9688b1fef5d8527cbc720783253eef8fc945e224b7450",
          "blockNumber": "0x8fd8d7",
          "blockTimestamp": "0x66e4c9a8",
          "transactionHash": "0xc2de3b58b8fd78a76a45a5413becd851081909eb098f1ccfb6cb8f1cfc68ebb2",
          "transactionIndex": "0x0",
          "logIndex": "0x16",
          "removed": false
        },
        {
          "address": "0x2f9bb73a8e98793e26cb2f6c4ad037bdf1c6b269",
          "topics": [
            "0x804c9b842b2748a22bb64b345453a3de7ca54a6ca45ce00d415894979e22897a",
            "0x000000000000000000000000176211869ca2b568f2a7d4ee941e073a821ee1ff"
          ],
          "data": "0x000000000000000000000000000000000000000000660239940c1c26d50bc3d5000000000000000000000000000000000000000000b59fde48b71af8f5d891ec000000000000000000000000000000000000000000a9377ea799190c86d891ec0000000000000000000000000000000000000000035dd672c8324b4b0ed7d97f0000000000000000000000000000000000000000036bbaff758be36230599384",
          "blockHash": "0x031622ab94f23c2d1af9688b1fef5d8527cbc720783253eef8fc945e224b7450",
          "blockNumber": "0x8fd8d7",
          "blockTimestamp": "0x66e4c9a8",
          "transactionHash": "0xc2de3b58b8fd78a76a45a5413becd851081909eb098f1ccfb6cb8f1cfc68ebb2",
          "transactionIndex": "0x0",
          "logIndex": "0x17",
          "removed": false
        },
        {
          "address": "0x176211869ca2b568f2a7d4ee941e073a821ee1ff",
          "topics": [
            "0xddf252ad1be2c89b69c2b068fc378daa952ba7f163c4a11628f55a4df523b3ef",
            "0x0000000000000000000000002e207eca8b6bf77a6ac82763eeed2a94de4f081d",
            "0x000000000000000000000000ef0e791f490be9019b5d518f4eb67cf2d4550a7d"
          ],
          "data": "0x0000000000000000000000000000000000000000000000000000000002eacabf",
          "blockHash": "0x031622ab94f23c2d1af9688b1fef5d8527cbc720783253eef8fc945e224b7450",
          "blockNumber": "0x8fd8d7",
          "blockTimestamp": "0x66e4c9a8",
          "transactionHash": "0xc2de3b58b8fd78a76a45a5413becd851081909eb098f1ccfb6cb8f1cfc68ebb2",
          "transactionIndex": "0x0",
          "logIndex": "0x18",
          "removed": false
        },
        {
          "address": "0x2f9bb73a8e98793e26cb2f6c4ad037bdf1c6b269",
          "topics": [
            "0xb3d084820fb1a9decffb176436bd02558d15fac9b0ddfed8c465bc7359d7dce0",
            "0x000000000000000000000000176211869ca2b568f2a7d4ee941e073a821ee1ff",
            "0x000000000000000000000000ef0e791f490be9019b5d518f4eb67cf2d4550a7d",
            "0x0000000000000000000000000000000000000000000000000000000000000000"
          ],
          "data": "0x000000000000000000000000ef0e791f490be9019b5d518f4eb67cf2d4550a7d0000000000000000000000000000000000000000000000000000000002eacabf0000000000000000000000000000000000000000000000000000000000000002000000000000000000000000000000000000000000a9377ea799190c86d891ec",
          "blockHash": "0x031622ab94f23c2d1af9688b1fef5d8527cbc720783253eef8fc945e224b7450",
          "blockNumber": "0x8fd8d7",
          "blockTimestamp": "0x66e4c9a8",
          "transactionHash": "0xc2de3b58b8fd78a76a45a5413becd851081909eb098f1ccfb6cb8f1cfc68ebb2",
          "transactionIndex": "0x0",
          "logIndex": "0x19",
          "removed": false
        },
        {
          "address": "0x176211869ca2b568f2a7d4ee941e073a821ee1ff",
          "topics": [
            "0x8c5be1e5ebec7d5bd14f71427d1e84f3dd0314c0f7b2291e5b200ac8c7c3b925",
            "0x000000000000000000000000ef0e791f490be9019b5d518f4eb67cf2d4550a7d",
            "0x0000000000000000000000002f9bb73a8e98793e26cb2f6c4ad037bdf1c6b269"
          ],
          "data": "0x0000000000000000000000000000000000000000000000000000000002eacabf",
          "blockHash": "0x031622ab94f23c2d1af9688b1fef5d8527cbc720783253eef8fc945e224b7450",
          "blockNumber": "0x8fd8d7",
          "blockTimestamp": "0x66e4c9a8",
          "transactionHash": "0xc2de3b58b8fd78a76a45a5413becd851081909eb098f1ccfb6cb8f1cfc68ebb2",
          "transactionIndex": "0x0",
          "logIndex": "0x1a",
          "removed": false
        },
        {
          "address": "0x176211869ca2b568f2a7d4ee941e073a821ee1ff",
          "topics": [
            "0x8c5be1e5ebec7d5bd14f71427d1e84f3dd0314c0f7b2291e5b200ac8c7c3b925",
            "0x000000000000000000000000ef0e791f490be9019b5d518f4eb67cf2d4550a7d",
            "0x0000000000000000000000002f9bb73a8e98793e26cb2f6c4ad037bdf1c6b269"
          ],
          "data": "0x0000000000000000000000000000000000000000000000000000000000000000",
          "blockHash": "0x031622ab94f23c2d1af9688b1fef5d8527cbc720783253eef8fc945e224b7450",
          "blockNumber": "0x8fd8d7",
          "blockTimestamp": "0x66e4c9a8",
          "transactionHash": "0xc2de3b58b8fd78a76a45a5413becd851081909eb098f1ccfb6cb8f1cfc68ebb2",
          "transactionIndex": "0x0",
          "logIndex": "0x1b",
          "removed": false
        },
        {
          "address": "0x176211869ca2b568f2a7d4ee941e073a821ee1ff",
          "topics": [
            "0x8c5be1e5ebec7d5bd14f71427d1e84f3dd0314c0f7b2291e5b200ac8c7c3b925",
            "0x000000000000000000000000ef0e791f490be9019b5d518f4eb67cf2d4550a7d",
            "0x0000000000000000000000002d8879046f1559e53eb052e949e9544bcb72f414"
          ],
          "data": "0x0000000000000000000000000000000000000000000000000000000000000000",
          "blockHash": "0x031622ab94f23c2d1af9688b1fef5d8527cbc720783253eef8fc945e224b7450",
          "blockNumber": "0x8fd8d7",
          "blockTimestamp": "0x66e4c9a8",
          "transactionHash": "0xc2de3b58b8fd78a76a45a5413becd851081909eb098f1ccfb6cb8f1cfc68ebb2",
          "transactionIndex": "0x0",
          "logIndex": "0x1c",
          "removed": false
        },
        {
          "address": "0xe5d7c2a44ffddf6b295a15c148167daaaf5cf34f",
          "topics": [
            "0x8c5be1e5ebec7d5bd14f71427d1e84f3dd0314c0f7b2291e5b200ac8c7c3b925",
            "0x000000000000000000000000ef0e791f490be9019b5d518f4eb67cf2d4550a7d",
            "0x0000000000000000000000002f9bb73a8e98793e26cb2f6c4ad037bdf1c6b269"
          ],
          "data": "0x0000000000000000000000000000000000000000000000000000000000000000",
          "blockHash": "0x031622ab94f23c2d1af9688b1fef5d8527cbc720783253eef8fc945e224b7450",
          "blockNumber": "0x8fd8d7",
          "blockTimestamp": "0x66e4c9a8",
          "transactionHash": "0xc2de3b58b8fd78a76a45a5413becd851081909eb098f1ccfb6cb8f1cfc68ebb2",
          "transactionIndex": "0x0",
          "logIndex": "0x1d",
          "removed": false
        },
        {
          "address": "0x176211869ca2b568f2a7d4ee941e073a821ee1ff",
          "topics": [
            "0x8c5be1e5ebec7d5bd14f71427d1e84f3dd0314c0f7b2291e5b200ac8c7c3b925",
            "0x000000000000000000000000ef0e791f490be9019b5d518f4eb67cf2d4550a7d",
            "0x0000000000000000000000002f9bb73a8e98793e26cb2f6c4ad037bdf1c6b269"
          ],
          "data": "0x0000000000000000000000000000000000000000000000000000000002eacabf",
          "blockHash": "0x031622ab94f23c2d1af9688b1fef5d8527cbc720783253eef8fc945e224b7450",
          "blockNumber": "0x8fd8d7",
          "blockTimestamp": "0x66e4c9a8",
          "transactionHash": "0xc2de3b58b8fd78a76a45a5413becd851081909eb098f1ccfb6cb8f1cfc68ebb2",
          "transactionIndex": "0x0",
          "logIndex": "0x1e",
          "removed": false
        },
        {
          "address": "0x2f9bb73a8e98793e26cb2f6c4ad037bdf1c6b269",
          "topics": [
            "0x804c9b842b2748a22bb64b345453a3de7ca54a6ca45ce00d415894979e22897a",
            "0x000000000000000000000000176211869ca2b568f2a7d4ee941e073a821ee1ff"
          ],
          "data": "0x00000000000000000000000000000000000000000065ff1449052f0173aeb9f8000000000000000000000000000000000000000000b59ad5ca2f144fb9f48f96000000000000000000000000000000000000000000a93276291112634af48f960000000000000000000000000000000000000000035dd672e70ca9d6152e246c0000000000000000000000000000000000000000036bbaff758be36230599384",
          "blockHash": "0x031622ab94f23c2d1af9688b1fef5d8527cbc720783253eef8fc945e224b7450",
          "blockNumber": "0x8fd8d7",
          "blockTimestamp": "0x66e4c9a8",
          "transactionHash": "0xc2de3b58b8fd78a76a45a5413becd851081909eb098f1ccfb6cb8f1cfc68ebb2",
          "transactionIndex": "0x0",
          "logIndex": "0x1f",
          "removed": false
        },
        {
          "address": "0x176211869ca2b568f2a7d4ee941e073a821ee1ff",
          "topics": [
            "0xddf252ad1be2c89b69c2b068fc378daa952ba7f163c4a11628f55a4df523b3ef",
            "0x000000000000000000000000ef0e791f490be9019b5d518f4eb67cf2d4550a7d",
            "0x0000000000000000000000002e207eca8b6bf77a6ac82763eeed2a94de4f081d"
          ],
          "data": "0x0000000000000000000000000000000000000000000000000000000002eacabf",
          "blockHash": "0x031622ab94f23c2d1af9688b1fef5d8527cbc720783253eef8fc945e224b7450",
          "blockNumber": "0x8fd8d7",
          "blockTimestamp": "0x66e4c9a8",
          "transactionHash": "0xc2de3b58b8fd78a76a45a5413becd851081909eb098f1ccfb6cb8f1cfc68ebb2",
          "transactionIndex": "0x0",
          "logIndex": "0x20",
          "removed": false
        },
        {
          "address": "0x2f9bb73a8e98793e26cb2f6c4ad037bdf1c6b269",
          "topics": [
            "0xefefaba5e921573100900a3ad9cf29f222d995fb3b6045797eaea7521bd8d6f0",
            "0x000000000000000000000000ef0e791f490be9019b5d518f4eb67cf2d4550a7d",
            "0x000000000000000000000000176211869ca2b568f2a7d4ee941e073a821ee1ff",
            "0x0000000000000000000000000000000000000000000000000000000000000000"
          ],
          "data": "0x000000000000000000000000ef0e791f490be9019b5d518f4eb67cf2d4550a7d0000000000000000000000000000000000000000000000000000000002ea6b3400000000000000000000000000000000000000000000000000000000000000000000000000000000000000000000000000000000000000000000000000005f8b",
          "blockHash": "0x031622ab94f23c2d1af9688b1fef5d8527cbc720783253eef8fc945e224b7450",
          "blockNumber": "0x8fd8d7",
          "blockTimestamp": "0x66e4c9a8",
          "transactionHash": "0xc2de3b58b8fd78a76a45a5413becd851081909eb098f1ccfb6cb8f1cfc68ebb2",
          "transactionIndex": "0x0",
          "logIndex": "0x21",
          "removed": false
        }
      ],
      "logsBloom": "0x00000000000009040080000000080000008000104000000000000000000000000800a0002000080000001000000600000010080000100014000411000020000004000020004000000008000802000000204000000000000200000004004000000000002202000000008000012000080180400000100000000100001020040000000002008000000800100004000000000000000000000000008000040000004002080010020000040000000002000010040000000010080100000000a00001000250000200000120000000204000000000020000a000060000000000000020000010200000008020000000000001000040100000000002000000c00000100000",
      "type": "0x2",
      "transactionHash": "0xc2de3b58b8fd78a76a45a5413becd851081909eb098f1ccfb6cb8f1cfc68ebb2",
      "transactionIndex": "0x0",
      "blockHash": "0x031622ab94f23c2d1af9688b1fef5d8527cbc720783253eef8fc945e224b7450",
      "blockNumber": "0x8fd8d7",
      "gasUsed": "0x11e483",
      "effectiveGasPrice": "0x3938707",
      "blobGasPrice": "0x1",
      "from": "0xf39fd6e51aad88f6f4ce6ab8827279cfffb92266",
      "to": "0x0b306bf915c4d645ff596e518faf3f9669b97016",
      "contractAddress": null,
      "root": "0x0000000000000000000000000000000000000000000000000000000000000000"
    }
  ],
  "libraries": [],
  "pending": [],
  "returns": {},
  "timestamp": 1726269863,
  "chain": 59144,
  "commit": "4a57ec2"
}