{
  "transactions": [
    {
      "hash": "0x3a793c266e48339b0a97287bf05cdc0e72806d835da450b9871e52c43ed02f8a",
      "transactionType": "CALL",
      "contractName": null,
      "contractAddress": "0xe5d7c2a44ffddf6b295a15c148167daaaf5cf34f",
      "function": "deposit()",
      "arguments": [],
      "transaction": {
        "from": "0xf39fd6e51aad88f6f4ce6ab8827279cfffb92266",
        "to": "0xe5d7c2a44ffddf6b295a15c148167daaaf5cf34f",
        "gas": "0xf2ff",
        "value": "0xde0b6b3a7640000",
        "input": "0xd0e30db0",
        "nonce": "0x1f",
        "chainId": "0xe708"
      },
      "additionalContracts": [],
      "isFixedGasLimit": false
    },
    {
      "hash": "0x9b4c0bbf4ddbbfba084f40e4f1e8da5a77ee3e67fa10225503400aea62318a69",
      "transactionType": "CALL",
      "contractName": null,
      "contractAddress": "0xe5d7c2a44ffddf6b295a15c148167daaaf5cf34f",
      "function": "approve(address,uint256)",
      "arguments": [
        "0x2d8879046f1559E53eb052E949e9544bCB72f414",
        "115792089237316195423570985008687907853269984665640564039457584007913129639935"
      ],
      "transaction": {
        "from": "0xf39fd6e51aad88f6f4ce6ab8827279cfffb92266",
        "to": "0xe5d7c2a44ffddf6b295a15c148167daaaf5cf34f",
        "gas": "0xfa27",
        "value": "0x0",
        "input": "0x095ea7b30000000000000000000000002d8879046f1559e53eb052e949e9544bcb72f414ffffffffffffffffffffffffffffffffffffffffffffffffffffffffffffffff",
        "nonce": "0x20",
        "chainId": "0xe708"
      },
      "additionalContracts": [],
      "isFixedGasLimit": false
    },
    {
      "hash": "0xfc3ea5c97e1de4593f1300177dfce6ea444570b2d4109b086dd24d2e0e6c77f6",
      "transactionType": "CALL",
      "contractName": null,
      "contractAddress": "0x2d8879046f1559e53eb052e949e9544bcb72f414",
      "function": null,
      "arguments": null,
      "transaction": {
        "from": "0xf39fd6e51aad88f6f4ce6ab8827279cfffb92266",
        "to": "0x2d8879046f1559e53eb052e949e9544bcb72f414",
        "gas": "0x174d99",
        "value": "0x0",
        "input": "0x83bd37f90001e5d7c2a44ffddf6b295a15c148167daaaf5cf34f0001176211869ca2b568f2a7d4ee941e073a821ee1ff080de0b6b3a7640000049c407c71028f5c000156c85a254dd12ee8d9c04049a4ab62769ce9821000000001f39fd6e51aad88f6f4ce6ab8827279cfffb92266000000000702030901878cb8180a010001020001286492de0a0100030200017ec4ccb40a0201040200015037519f0a0201050200000d0201060200020a0201070800ff00008611456f845293edd3f5788277f00f7c05ccc291e5d7c2a44ffddf6b295a15c148167daaaf5cf34f27ed78122b8ef363f4ef5b3afe197e0c4a2fa514586733678b9ac9da43dd7cb83bbb41d23677dfc37077f0cff76077d0ebb335b607db5744005105575615a7b1619980f7d6b5e7f69f3dc093dfe0c95c6e9ad0b8a41e2c148e7b0385d3ecbfdb8a216a9ba219439258ca9da29e9cc4ce5596924745e12b93",
        "nonce": "0x21",
        "chainId": "0xe708"
      },
      "additionalContracts": [],
      "isFixedGasLimit": false
    },
    {
      "hash": "0x42a4ed9fc33767f9f26f6f7ecf4d99dd9f986d4f095c290af09799332241649a",
      "transactionType": "CALL",
      "contractName": null,
      "contractAddress": "0x176211869ca2b568f2a7d4ee941e073a821ee1ff",
      "function": "approve(address,uint256)",
      "arguments": [
        "0x0B306BF915C4d645ff596e518fAf3F9669b97016",
        "115792089237316195423570985008687907853269984665640564039457584007913129639935"
      ],
      "transaction": {
        "from": "0xf39fd6e51aad88f6f4ce6ab8827279cfffb92266",
        "to": "0x176211869ca2b568f2a7d4ee941e073a821ee1ff",
        "gas": "0x144c0",
        "value": "0x0",
        "input": "0x095ea7b30000000000000000000000000b306bf915c4d645ff596e518faf3f9669b97016ffffffffffffffffffffffffffffffffffffffffffffffffffffffffffffffff",
        "nonce": "0x22",
        "chainId": "0xe708"
      },
      "additionalContracts": [],
      "isFixedGasLimit": false
    },
    {
      "hash": "0x0661682399d321ee065dca2c5fb5b46df8cca58f6834317f2ec4e5e258fdfc8d",
      "transactionType": "CALL",
      "contractName": null,
      "contractAddress": "0xe5d7c2a44ffddf6b295a15c148167daaaf5cf34f",
      "function": "approve(address,uint256)",
      "arguments": [
        "0x0B306BF915C4d645ff596e518fAf3F9669b97016",
        "115792089237316195423570985008687907853269984665640564039457584007913129639935"
      ],
      "transaction": {
        "from": "0xf39fd6e51aad88f6f4ce6ab8827279cfffb92266",
        "to": "0xe5d7c2a44ffddf6b295a15c148167daaaf5cf34f",
        "gas": "0xfa27",
        "value": "0x0",
        "input": "0x095ea7b30000000000000000000000000b306bf915c4d645ff596e518faf3f9669b97016ffffffffffffffffffffffffffffffffffffffffffffffffffffffffffffffff",
        "nonce": "0x23",
        "chainId": "0xe708"
      },
      "additionalContracts": [],
      "isFixedGasLimit": false
    },
    {
      "hash": "0x37ef406abc9c17ac0bc0950efe196f25d7dfb54400b6b5886dc6a740ffcb2481",
      "transactionType": "CALL",
      "contractName": null,
      "contractAddress": "0xe5d7c2a44ffddf6b295a15c148167daaaf5cf34f",
      "function": "approve(address,uint256)",
      "arguments": [
        "0x0B306BF915C4d645ff596e518fAf3F9669b97016",
        "115792089237316195423570985008687907853269984665640564039457584007913129639935"
      ],
      "transaction": {
        "from": "0xf39fd6e51aad88f6f4ce6ab8827279cfffb92266",
        "to": "0xe5d7c2a44ffddf6b295a15c148167daaaf5cf34f",
        "gas": "0x8ec9",
        "value": "0x0",
        "input": "0x095ea7b30000000000000000000000000b306bf915c4d645ff596e518faf3f9669b97016ffffffffffffffffffffffffffffffffffffffffffffffffffffffffffffffff",
        "nonce": "0x24",
        "chainId": "0xe708"
      },
      "additionalContracts": [],
      "isFixedGasLimit": false
    },
    {
      "hash": "0xce8a8bb54b654b1d922403df36553fc743521f62b4a26ab385aaaee6890efae3",
      "transactionType": "CALL",
      "contractName": null,
      "contractAddress": "0x176211869ca2b568f2a7d4ee941e073a821ee1ff",
      "function": "approve(address,uint256)",
      "arguments": [
        "0x0B306BF915C4d645ff596e518fAf3F9669b97016",
        "115792089237316195423570985008687907853269984665640564039457584007913129639935"
      ],
      "transaction": {
        "from": "0xf39fd6e51aad88f6f4ce6ab8827279cfffb92266",
        "to": "0x176211869ca2b568f2a7d4ee941e073a821ee1ff",
        "gas": "0xe62b",
        "value": "0x0",
        "input": "0x095ea7b30000000000000000000000000b306bf915c4d645ff596e518faf3f9669b97016ffffffffffffffffffffffffffffffffffffffffffffffffffffffffffffffff",
        "nonce": "0x25",
        "chainId": "0xe708"
      },
      "additionalContracts": [],
      "isFixedGasLimit": false
    },
    {
      "hash": "0xed3122ffc42fe85bc5546522219b06b792c31e0457fc178e95ef0dd3a3da913d",
      "transactionType": "CALL",
      "contractName": null,
      "contractAddress": "0x0b306bf915c4d645ff596e518faf3f9669b97016",
      "function": "createAndAddToPosition((string,address,address),(uint256,uint256,bytes))",
      "arguments": [
        "(\"LONG_QUOTE_ODOS_ZEROLEND\", 0x176211869cA2b568f2A7D4EE941E073a821EE1ff, 0xe5D7C2a44FfDDf6b295A15c148167daaAf5Cf34f)",
        "(100000000, 300000000, 0x83bd37f90001176211869ca2b568f2a7d4ee941e073a821ee1ff0001e5d7c2a44ffddf6b295a15c148167daaaf5cf34f0417d7840008021ddda48ff63780028f5c000156c85a254dd12ee8d9c04049a4ab62769ce98210000000018ee06e608de47ea1b185583aca65e34f2fd79b130000000003010203000a0101010201ff00000000000000000000000000000000000000000064bccad8e7302e81b09894f56f6bba85ae82cd03176211869ca2b568f2a7d4ee941e073a821ee1ff000000000000000000000000000000000000000000000000)"
      ],
      "transaction": {
        "from": "0xf39fd6e51aad88f6f4ce6ab8827279cfffb92266",
        "to": "0x0b306bf915c4d645ff596e518faf3f9669b97016",
        "gas": "0x19c6e5",
        "value": "0x0",
        "input": "0x211d9b04000000000000000000000000000000000000000000000000000000000000004000000000000000000000000000000000000000000000000000000000000000e00000000000000000000000000000000000000000000000000000000000000060000000000000000000000000176211869ca2b568f2a7d4ee941e073a821ee1ff000000000000000000000000e5d7c2a44ffddf6b295a15c148167daaaf5cf34f00000000000000000000000000000000000000000000000000000000000000184c4f4e475f51554f54455f4f444f535f5a45524f4c454e4400000000000000000000000000000000000000000000000000000000000000000000000005f5e1000000000000000000000000000000000000000000000000000000000011e1a300000000000000000000000000000000000000000000000000000000000000006000000000000000000000000000000000000000000000000000000000000000d483bd37f90001176211869ca2b568f2a7d4ee941e073a821ee1ff0001e5d7c2a44ffddf6b295a15c148167daaaf5cf34f0417d7840008021ddda48ff63780028f5c000156c85a254dd12ee8d9c04049a4ab62769ce98210000000018ee06e608de47ea1b185583aca65e34f2fd79b130000000003010203000a0101010201ff00000000000000000000000000000000000000000064bccad8e7302e81b09894f56f6bba85ae82cd03176211869ca2b568f2a7d4ee941e073a821ee1ff000000000000000000000000000000000000000000000000000000000000000000000000",
        "nonce": "0x26",
        "chainId": "0xe708"
      },
      "additionalContracts": [
        {
          "transactionType": "CREATE2",
          "address": "0x8ee06e608de47ea1b185583aca65e34f2fd79b13",
          "initCode": "0x60a060405234801561001057600080fd5b506040516101d43803806101d483398101604081905261002f9161009a565b6001600160a01b0381166100895760405162461bcd60e51b815260206004820152601e60248201527f496e76616c696420696d706c656d656e746174696f6e20616464726573730000604482015260640160405180910390fd5b6001600160a01b03166080526100ca565b6000602082840312156100ac57600080fd5b81516001600160a01b03811681146100c357600080fd5b9392505050565b60805160ec6100e860003960008181602001526055015260ec6000f3fe608060405260043610601c5760003560e01c80635c60da1b146045575b60437f00000000000000000000000000000000000000000000000000000000000000006093565b005b348015605057600080fd5b5060777f000000000000000000000000000000000000000000000000000000000000000081565b6040516001600160a01b03909116815260200160405180910390f35b3660008037600080366000845af43d6000803e80801560b1573d6000f35b3d6000fdfea2646970667358221220ece5f241c936be627b009529639055436949a725352d983e1257a877a1e6225564736f6c6343000819003300000000000000000000000068b1d87f95878fe05b998f19b66f4baba5de1aed"
        }
      ],
      "isFixedGasLimit": false
    }
  ],
  "receipts": [
    {
      "status": "0x1",
      "cumulativeGasUsed": "0xafee",
      "logs": [
        {
          "address": "0xe5d7c2a44ffddf6b295a15c148167daaaf5cf34f",
          "topics": [
            "0xe1fffcc4923d04b559f4d29a8bfc6cda04eb5b0d3c460751c2402c5c5cc9109c",
            "0x000000000000000000000000f39fd6e51aad88f6f4ce6ab8827279cfffb92266"
          ],
          "data": "0x0000000000000000000000000000000000000000000000000de0b6b3a7640000",
          "blockHash": "0x96956ce5bc3e6c27f378725dc508c0e0a56fd680b3f1c53190636ea299d0c77d",
          "blockNumber": "0x976134",
          "blockTimestamp": "0x66f3ebef",
          "transactionHash": "0x3a793c266e48339b0a97287bf05cdc0e72806d835da450b9871e52c43ed02f8a",
          "transactionIndex": "0x0",
          "logIndex": "0x0",
          "removed": false
        }
      ],
      "logsBloom": "0x0000000000000000000000000000000000000000000000000000000000000000000000000000000000000000000000000000000000000000000000000000000000000000000000000000000000000000000000000000000000000000800000000000000000000000000000010000000000000000000000000000000000000000000000000000000000100000000000000000000100000000000000000000000000000000000000000000000000000000000000000000000000000000200000000000000000000020000000000000000000000000a000000000000000000000000000000000000000000000000000000000000000000000400000000000000000",
      "type": "0x2",
      "transactionHash": "0x3a793c266e48339b0a97287bf05cdc0e72806d835da450b9871e52c43ed02f8a",
      "transactionIndex": "0x0",
      "blockHash": "0x96956ce5bc3e6c27f378725dc508c0e0a56fd680b3f1c53190636ea299d0c77d",
      "blockNumber": "0x976134",
      "gasUsed": "0xafee",
      "effectiveGasPrice": "0x5c493eb",
      "blobGasPrice": "0x1",
      "from": "0xf39fd6e51aad88f6f4ce6ab8827279cfffb92266",
      "to": "0xe5d7c2a44ffddf6b295a15c148167daaaf5cf34f",
      "contractAddress": null,
      "root": "0x0000000000000000000000000000000000000000000000000000000000000000"
    },
    {
      "status": "0x1",
      "cumulativeGasUsed": "0xb51c",
      "logs": [
        {
          "address": "0xe5d7c2a44ffddf6b295a15c148167daaaf5cf34f",
          "topics": [
            "0x8c5be1e5ebec7d5bd14f71427d1e84f3dd0314c0f7b2291e5b200ac8c7c3b925",
            "0x000000000000000000000000f39fd6e51aad88f6f4ce6ab8827279cfffb92266",
            "0x0000000000000000000000002d8879046f1559e53eb052e949e9544bcb72f414"
          ],
          "data": "0xffffffffffffffffffffffffffffffffffffffffffffffffffffffffffffffff",
          "blockHash": "0xb246103e1591147146d99136cca215e15b8965880a34fb11d6c2feb50afe81cc",
          "blockNumber": "0x976135",
          "blockTimestamp": "0x66f3ebf0",
          "transactionHash": "0x9b4c0bbf4ddbbfba084f40e4f1e8da5a77ee3e67fa10225503400aea62318a69",
          "transactionIndex": "0x0",
          "logIndex": "0x0",
          "removed": false
        }
      ],
      "logsBloom": "0x0000000000000000000000000000000000000000000000000000000000000000000000000000000000001000000000000000000000000000000000000020000000000000000000000000000000000000000000000000000000000000000000000000000000000000008000010000000000000000000000000000000000000000000000000000000000100000000000000000000000000000000000000000000002000000020000000000000000000000000000000000000000000000200000000000000000000020000000000000000000000000a000000000000000000000000010000000000000000000000000000000000000000000000000000000000000",
      "type": "0x2",
      "transactionHash": "0x9b4c0bbf4ddbbfba084f40e4f1e8da5a77ee3e67fa10225503400aea62318a69",
      "transactionIndex": "0x0",
      "blockHash": "0xb246103e1591147146d99136cca215e15b8965880a34fb11d6c2feb50afe81cc",
      "blockNumber": "0x976135",
      "gasUsed": "0xb51c",
      "effectiveGasPrice": "0x5c493eb",
      "blobGasPrice": "0x1",
      "from": "0xf39fd6e51aad88f6f4ce6ab8827279cfffb92266",
      "to": "0xe5d7c2a44ffddf6b295a15c148167daaaf5cf34f",
      "contractAddress": null,
      "root": "0x0000000000000000000000000000000000000000000000000000000000000000"
    },
    {
      "status": "0x1",
      "cumulativeGasUsed": "0x10d268",
      "logs": [
        {
          "address": "0xe5d7c2a44ffddf6b295a15c148167daaaf5cf34f",
          "topics": [
            "0xddf252ad1be2c89b69c2b068fc378daa952ba7f163c4a11628f55a4df523b3ef",
            "0x000000000000000000000000f39fd6e51aad88f6f4ce6ab8827279cfffb92266",
            "0x00000000000000000000000056c85a254dd12ee8d9c04049a4ab62769ce98210"
          ],
          "data": "0x0000000000000000000000000000000000000000000000000de0b6b3a7640000",
          "blockHash": "0xc3136de69812ec0ecfcbfaa4ccde16a8de72003d50b9886d3262a50675ee89c4",
          "blockNumber": "0x976136",
          "blockTimestamp": "0x66f3ebf1",
          "transactionHash": "0xfc3ea5c97e1de4593f1300177dfce6ea444570b2d4109b086dd24d2e0e6c77f6",
          "transactionIndex": "0x0",
          "logIndex": "0x0",
          "removed": false
        },
        {
          "address": "0x8611456f845293edd3f5788277f00f7c05ccc291",
          "topics": [
            "0x598b9f043c813aa6be3426ca60d1c65d17256312890be5118dab55b0775ebe2a"
          ],
          "data": "0x000000000000000000000000000000000000000000000000000000000000023e",
          "blockHash": "0xc3136de69812ec0ecfcbfaa4ccde16a8de72003d50b9886d3262a50675ee89c4",
          "blockNumber": "0x976136",
          "blockTimestamp": "0x66f3ebf1",
          "transactionHash": "0xfc3ea5c97e1de4593f1300177dfce6ea444570b2d4109b086dd24d2e0e6c77f6",
          "transactionIndex": "0x0",
          "logIndex": "0x1",
          "removed": false
        },
        {
          "address": "0xa219439258ca9da29e9cc4ce5596924745e12b93",
          "topics": [
            "0xddf252ad1be2c89b69c2b068fc378daa952ba7f163c4a11628f55a4df523b3ef",
            "0x0000000000000000000000008611456f845293edd3f5788277f00f7c05ccc291",
            "0x00000000000000000000000056c85a254dd12ee8d9c04049a4ab62769ce98210"
          ],
          "data": "0x0000000000000000000000000000000000000000000000000000000052baa7c9",
          "blockHash": "0xc3136de69812ec0ecfcbfaa4ccde16a8de72003d50b9886d3262a50675ee89c4",
          "blockNumber": "0x976136",
          "blockTimestamp": "0x66f3ebf1",
          "transactionHash": "0xfc3ea5c97e1de4593f1300177dfce6ea444570b2d4109b086dd24d2e0e6c77f6",
          "transactionIndex": "0x0",
          "logIndex": "0x2",
          "removed": false
        },
        {
          "address": "0xe5d7c2a44ffddf6b295a15c148167daaaf5cf34f",
          "topics": [
            "0xddf252ad1be2c89b69c2b068fc378daa952ba7f163c4a11628f55a4df523b3ef",
            "0x00000000000000000000000056c85a254dd12ee8d9c04049a4ab62769ce98210",
            "0x0000000000000000000000008611456f845293edd3f5788277f00f7c05ccc291"
          ],
          "data": "0x0000000000000000000000000000000000000000000000000759213777e787d7",
          "blockHash": "0xc3136de69812ec0ecfcbfaa4ccde16a8de72003d50b9886d3262a50675ee89c4",
          "blockNumber": "0x976136",
          "blockTimestamp": "0x66f3ebf1",
          "transactionHash": "0xfc3ea5c97e1de4593f1300177dfce6ea444570b2d4109b086dd24d2e0e6c77f6",
          "transactionIndex": "0x0",
          "logIndex": "0x3",
          "removed": false
        },
        {
          "address": "0xe5d7c2a44ffddf6b295a15c148167daaaf5cf34f",
          "topics": [
            "0xddf252ad1be2c89b69c2b068fc378daa952ba7f163c4a11628f55a4df523b3ef",
            "0x0000000000000000000000008611456f845293edd3f5788277f00f7c05ccc291",
            "0x0000000000000000000000001d8b6fa722230153be08c4fa4aa4b4c7cd01a95a"
          ],
          "data": "0x0000000000000000000000000000000000000000000000000000084ae9450255",
          "blockHash": "0xc3136de69812ec0ecfcbfaa4ccde16a8de72003d50b9886d3262a50675ee89c4",
          "blockNumber": "0x976136",
          "blockTimestamp": "0x66f3ebf1",
          "transactionHash": "0xfc3ea5c97e1de4593f1300177dfce6ea444570b2d4109b086dd24d2e0e6c77f6",
          "transactionIndex": "0x0",
          "logIndex": "0x4",
          "removed": false
        },
        {
          "address": "0x8611456f845293edd3f5788277f00f7c05ccc291",
          "topics": [
            "0xc42079f94a6350d7e6235f29174924f928cc2ac818eb64fed8004e115fbcca67",
            "0x00000000000000000000000056c85a254dd12ee8d9c04049a4ab62769ce98210",
            "0x00000000000000000000000056c85a254dd12ee8d9c04049a4ab62769ce98210"
          ],
          "data": "0xffffffffffffffffffffffffffffffffffffffffffffffffffffffffad4558370000000000000000000000000000000000000000000000000759213777e787d70000000000000000000000000000000000004c4714f81099f0ded4c619726ca500000000000000000000000000000000000000000000000003ba2f1ce283fecb00000000000000000000000000000000000000000000000000000000000303e1",
          "blockHash": "0xc3136de69812ec0ecfcbfaa4ccde16a8de72003d50b9886d3262a50675ee89c4",
          "blockNumber": "0x976136",
          "blockTimestamp": "0x66f3ebf1",
          "transactionHash": "0xfc3ea5c97e1de4593f1300177dfce6ea444570b2d4109b086dd24d2e0e6c77f6",
          "transactionIndex": "0x0",
          "logIndex": "0x5",
          "removed": false
        },
        {
          "address": "0xa219439258ca9da29e9cc4ce5596924745e12b93",
          "topics": [
            "0xddf252ad1be2c89b69c2b068fc378daa952ba7f163c4a11628f55a4df523b3ef",
            "0x00000000000000000000000027ed78122b8ef363f4ef5b3afe197e0c4a2fa514",
            "0x00000000000000000000000056c85a254dd12ee8d9c04049a4ab62769ce98210"
          ],
          "data": "0x000000000000000000000000000000000000000000000000000000000b995ad2",
          "blockHash": "0xc3136de69812ec0ecfcbfaa4ccde16a8de72003d50b9886d3262a50675ee89c4",
          "blockNumber": "0x976136",
          "blockTimestamp": "0x66f3ebf1",
          "transactionHash": "0xfc3ea5c97e1de4593f1300177dfce6ea444570b2d4109b086dd24d2e0e6c77f6",
          "transactionIndex": "0x0",
          "logIndex": "0x6",
          "removed": false
        },
        {
          "address": "0xe5d7c2a44ffddf6b295a15c148167daaaf5cf34f",
          "topics": [
            "0xddf252ad1be2c89b69c2b068fc378daa952ba7f163c4a11628f55a4df523b3ef",
            "0x00000000000000000000000056c85a254dd12ee8d9c04049a4ab62769ce98210",
            "0x00000000000000000000000027ed78122b8ef363f4ef5b3afe197e0c4a2fa514"
          ],
          "data": "0x0000000000000000000000000000000000000000000000000107c010c8c2742b",
          "blockHash": "0xc3136de69812ec0ecfcbfaa4ccde16a8de72003d50b9886d3262a50675ee89c4",
          "blockNumber": "0x976136",
          "blockTimestamp": "0x66f3ebf1",
          "transactionHash": "0xfc3ea5c97e1de4593f1300177dfce6ea444570b2d4109b086dd24d2e0e6c77f6",
          "transactionIndex": "0x0",
          "logIndex": "0x7",
          "removed": false
        },
        {
          "address": "0x27ed78122b8ef363f4ef5b3afe197e0c4a2fa514",
          "topics": [
            "0xc42079f94a6350d7e6235f29174924f928cc2ac818eb64fed8004e115fbcca67",
            "0x00000000000000000000000056c85a254dd12ee8d9c04049a4ab62769ce98210",
            "0x00000000000000000000000056c85a254dd12ee8d9c04049a4ab62769ce98210"
          ],
          "data": "0xfffffffffffffffffffffffffffffffffffffffffffffffffffffffff466a52e0000000000000000000000000000000000000000000000000107c010c8c2742b0000000000000000000000000000000000004c48c9ab8ab834a00ecf94e4e70c00000000000000000000000000000000000000000000000000ae2e83eb19edd000000000000000000000000000000000000000000000000000000000000303e2",
          "blockHash": "0xc3136de69812ec0ecfcbfaa4ccde16a8de72003d50b9886d3262a50675ee89c4",
          "blockNumber": "0x976136",
          "blockTimestamp": "0x66f3ebf1",
          "transactionHash": "0xfc3ea5c97e1de4593f1300177dfce6ea444570b2d4109b086dd24d2e0e6c77f6",
          "transactionIndex": "0x0",
          "logIndex": "0x8",
          "removed": false
        },
        {
          "address": "0x176211869ca2b568f2a7d4ee941e073a821ee1ff",
          "topics": [
            "0xddf252ad1be2c89b69c2b068fc378daa952ba7f163c4a11628f55a4df523b3ef",
            "0x000000000000000000000000586733678b9ac9da43dd7cb83bbb41d23677dfc3",
            "0x0000000000000000000000002d8879046f1559e53eb052e949e9544bcb72f414"
          ],
          "data": "0x000000000000000000000000000000000000000000000000000000001eaa572b",
          "blockHash": "0xc3136de69812ec0ecfcbfaa4ccde16a8de72003d50b9886d3262a50675ee89c4",
          "blockNumber": "0x976136",
          "blockTimestamp": "0x66f3ebf1",
          "transactionHash": "0xfc3ea5c97e1de4593f1300177dfce6ea444570b2d4109b086dd24d2e0e6c77f6",
          "transactionIndex": "0x0",
          "logIndex": "0x9",
          "removed": false
        },
        {
          "address": "0xe5d7c2a44ffddf6b295a15c148167daaaf5cf34f",
          "topics": [
            "0xddf252ad1be2c89b69c2b068fc378daa952ba7f163c4a11628f55a4df523b3ef",
            "0x00000000000000000000000056c85a254dd12ee8d9c04049a4ab62769ce98210",
            "0x000000000000000000000000586733678b9ac9da43dd7cb83bbb41d23677dfc3"
          ],
          "data": "0x00000000000000000000000000000000000000000000000002b9254ffebdd9c2",
          "blockHash": "0xc3136de69812ec0ecfcbfaa4ccde16a8de72003d50b9886d3262a50675ee89c4",
          "blockNumber": "0x976136",
          "blockTimestamp": "0x66f3ebf1",
          "transactionHash": "0xfc3ea5c97e1de4593f1300177dfce6ea444570b2d4109b086dd24d2e0e6c77f6",
          "transactionIndex": "0x0",
          "logIndex": "0xa",
          "removed": false
        },
        {
          "address": "0x586733678b9ac9da43dd7cb83bbb41d23677dfc3",
          "topics": [
            "0x19b47279256b2a23a1665c810c8d55a1758940ee09377d4f8d26497a3577dc83",
            "0x00000000000000000000000056c85a254dd12ee8d9c04049a4ab62769ce98210",
            "0x0000000000000000000000002d8879046f1559e53eb052e949e9544bcb72f414"
          ],
          "data": "0xffffffffffffffffffffffffffffffffffffffffffffffffffffffffe155a8d500000000000000000000000000000000000000000000000002b9254ffebdd9c20000000000000000000000000000000000004c4bd980ebeb4241be8f7079cb56000000000000000000000000000000000000000000000000007251be9239669700000000000000000000000000000000000000000000000000000000000303e50000000000000000000000000000000000000000000000000000000000000000000000000000000000000000000000000000000000000000000005e3b570c2ab",
          "blockHash": "0xc3136de69812ec0ecfcbfaa4ccde16a8de72003d50b9886d3262a50675ee89c4",
          "blockNumber": "0x976136",
          "blockTimestamp": "0x66f3ebf1",
          "transactionHash": "0xfc3ea5c97e1de4593f1300177dfce6ea444570b2d4109b086dd24d2e0e6c77f6",
          "transactionIndex": "0x0",
          "logIndex": "0xb",
          "removed": false
        },
        {
          "address": "0x176211869ca2b568f2a7d4ee941e073a821ee1ff",
          "topics": [
            "0xddf252ad1be2c89b69c2b068fc378daa952ba7f163c4a11628f55a4df523b3ef",
            "0x0000000000000000000000007077f0cff76077d0ebb335b607db574400510557",
            "0x0000000000000000000000002d8879046f1559e53eb052e949e9544bcb72f414"
          ],
          "data": "0x0000000000000000000000000000000000000000000000000000000009cc3b68",
          "blockHash": "0xc3136de69812ec0ecfcbfaa4ccde16a8de72003d50b9886d3262a50675ee89c4",
          "blockNumber": "0x976136",
          "blockTimestamp": "0x66f3ebf1",
          "transactionHash": "0xfc3ea5c97e1de4593f1300177dfce6ea444570b2d4109b086dd24d2e0e6c77f6",
          "transactionIndex": "0x0",
          "logIndex": "0xc",
          "removed": false
        },
        {
          "address": "0xe5d7c2a44ffddf6b295a15c148167daaaf5cf34f",
          "topics": [
            "0xddf252ad1be2c89b69c2b068fc378daa952ba7f163c4a11628f55a4df523b3ef",
            "0x00000000000000000000000056c85a254dd12ee8d9c04049a4ab62769ce98210",
            "0x0000000000000000000000007077f0cff76077d0ebb335b607db574400510557"
          ],
          "data": "0x00000000000000000000000000000000000000000000000000deb09afd82314c",
          "blockHash": "0xc3136de69812ec0ecfcbfaa4ccde16a8de72003d50b9886d3262a50675ee89c4",
          "blockNumber": "0x976136",
          "blockTimestamp": "0x66f3ebf1",
          "transactionHash": "0xfc3ea5c97e1de4593f1300177dfce6ea444570b2d4109b086dd24d2e0e6c77f6",
          "transactionIndex": "0x0",
          "logIndex": "0xd",
          "removed": false
        },
        {
          "address": "0x7077f0cff76077d0ebb335b607db574400510557",
          "topics": [
            "0xc42079f94a6350d7e6235f29174924f928cc2ac818eb64fed8004e115fbcca67",
            "0x00000000000000000000000056c85a254dd12ee8d9c04049a4ab62769ce98210",
            "0x0000000000000000000000002d8879046f1559e53eb052e949e9544bcb72f414"
          ],
          "data": "0xfffffffffffffffffffffffffffffffffffffffffffffffffffffffff633c49800000000000000000000000000000000000000000000000000deb09afd82314c0000000000000000000000000000000000004c48067cd04f58db95daf6e4d0590000000000000000000000000000000000000000000000000014864abb9e244c00000000000000000000000000000000000000000000000000000000000303e1",
          "blockHash": "0xc3136de69812ec0ecfcbfaa4ccde16a8de72003d50b9886d3262a50675ee89c4",
          "blockNumber": "0x976136",
          "blockTimestamp": "0x66f3ebf1",
          "transactionHash": "0xfc3ea5c97e1de4593f1300177dfce6ea444570b2d4109b086dd24d2e0e6c77f6",
          "transactionIndex": "0x0",
          "logIndex": "0xe",
          "removed": false
        },
        {
          "address": "0x176211869ca2b568f2a7d4ee941e073a821ee1ff",
          "topics": [
            "0xddf252ad1be2c89b69c2b068fc378daa952ba7f163c4a11628f55a4df523b3ef",
            "0x0000000000000000000000005615a7b1619980f7d6b5e7f69f3dc093dfe0c95c",
            "0x0000000000000000000000002d8879046f1559e53eb052e949e9544bcb72f414"
          ],
          "data": "0x00000000000000000000000000000000000000000000000000000000157634f9",
          "blockHash": "0xc3136de69812ec0ecfcbfaa4ccde16a8de72003d50b9886d3262a50675ee89c4",
          "blockNumber": "0x976136",
          "blockTimestamp": "0x66f3ebf1",
          "transactionHash": "0xfc3ea5c97e1de4593f1300177dfce6ea444570b2d4109b086dd24d2e0e6c77f6",
          "transactionIndex": "0x0",
          "logIndex": "0xf",
          "removed": false
        },
        {
          "address": "0xe5d7c2a44ffddf6b295a15c148167daaaf5cf34f",
          "topics": [
            "0xddf252ad1be2c89b69c2b068fc378daa952ba7f163c4a11628f55a4df523b3ef",
            "0x00000000000000000000000056c85a254dd12ee8d9c04049a4ab62769ce98210",
            "0x0000000000000000000000005615a7b1619980f7d6b5e7f69f3dc093dfe0c95c"
          ],
          "data": "0x00000000000000000000000000000000000000000000000001e7ff806a79e219",
          "blockHash": "0xc3136de69812ec0ecfcbfaa4ccde16a8de72003d50b9886d3262a50675ee89c4",
          "blockNumber": "0x976136",
          "blockTimestamp": "0x66f3ebf1",
          "transactionHash": "0xfc3ea5c97e1de4593f1300177dfce6ea444570b2d4109b086dd24d2e0e6c77f6",
          "transactionIndex": "0x0",
          "logIndex": "0x10",
          "removed": false
        },
        {
          "address": "0x5615a7b1619980f7d6b5e7f69f3dc093dfe0c95c",
          "topics": [
            "0x0fe977d619f8172f7fdbe8bb8928ef80952817d96936509f67d66346bc4cd10f",
            "0x000000000000000000000000176211869ca2b568f2a7d4ee941e073a821ee1ff",
            "0x000000000000000000000000e5d7c2a44ffddf6b295a15c148167daaaf5cf34f",
            "0x00000000000000000000000000000000000000000000000000000000000001f4"
          ],
          "data": "0x000000000000000000000000000000000000000000000000000000000000000000000000000000000000000000000000000000000000000000000000157634f900000000000000000000000000000000000000000000000001e7ff806a79e21900000000000000000000000000000000000000000000000000000000000303e2",
          "blockHash": "0xc3136de69812ec0ecfcbfaa4ccde16a8de72003d50b9886d3262a50675ee89c4",
          "blockNumber": "0x976136",
          "blockTimestamp": "0x66f3ebf1",
          "transactionHash": "0xfc3ea5c97e1de4593f1300177dfce6ea444570b2d4109b086dd24d2e0e6c77f6",
          "transactionIndex": "0x0",
          "logIndex": "0x11",
          "removed": false
        },
        {
          "address": "0xe5d7c2a44ffddf6b295a15c148167daaaf5cf34f",
          "topics": [
            "0xddf252ad1be2c89b69c2b068fc378daa952ba7f163c4a11628f55a4df523b3ef",
            "0x00000000000000000000000056c85a254dd12ee8d9c04049a4ab62769ce98210",
            "0x000000000000000000000000f39fd6e51aad88f6f4ce6ab8827279cfffb92266"
          ],
          "data": "0x00000000000000000000000000000000000000000000000000000000000016d7",
          "blockHash": "0xc3136de69812ec0ecfcbfaa4ccde16a8de72003d50b9886d3262a50675ee89c4",
          "blockNumber": "0x976136",
          "blockTimestamp": "0x66f3ebf1",
          "transactionHash": "0xfc3ea5c97e1de4593f1300177dfce6ea444570b2d4109b086dd24d2e0e6c77f6",
          "transactionIndex": "0x0",
          "logIndex": "0x12",
          "removed": false
        },
        {
          "address": "0x6e9ad0b8a41e2c148e7b0385d3ecbfdb8a216a9b",
          "topics": [
            "0x598b9f043c813aa6be3426ca60d1c65d17256312890be5118dab55b0775ebe2a"
          ],
          "data": "0x0000000000000000000000000000000000000000000000000000000000000032",
          "blockHash": "0xc3136de69812ec0ecfcbfaa4ccde16a8de72003d50b9886d3262a50675ee89c4",
          "blockNumber": "0x976136",
          "blockTimestamp": "0x66f3ebf1",
          "transactionHash": "0xfc3ea5c97e1de4593f1300177dfce6ea444570b2d4109b086dd24d2e0e6c77f6",
          "transactionIndex": "0x0",
          "logIndex": "0x13",
          "removed": false
        },
        {
          "address": "0x176211869ca2b568f2a7d4ee941e073a821ee1ff",
          "topics": [
            "0xddf252ad1be2c89b69c2b068fc378daa952ba7f163c4a11628f55a4df523b3ef",
            "0x0000000000000000000000006e9ad0b8a41e2c148e7b0385d3ecbfdb8a216a9b",
            "0x0000000000000000000000002d8879046f1559e53eb052e949e9544bcb72f414"
          ],
          "data": "0x000000000000000000000000000000000000000000000000000000005e53b526",
          "blockHash": "0xc3136de69812ec0ecfcbfaa4ccde16a8de72003d50b9886d3262a50675ee89c4",
          "blockNumber": "0x976136",
          "blockTimestamp": "0x66f3ebf1",
          "transactionHash": "0xfc3ea5c97e1de4593f1300177dfce6ea444570b2d4109b086dd24d2e0e6c77f6",
          "transactionIndex": "0x0",
          "logIndex": "0x14",
          "removed": false
        },
        {
          "address": "0xa219439258ca9da29e9cc4ce5596924745e12b93",
          "topics": [
            "0xddf252ad1be2c89b69c2b068fc378daa952ba7f163c4a11628f55a4df523b3ef",
            "0x00000000000000000000000056c85a254dd12ee8d9c04049a4ab62769ce98210",
            "0x0000000000000000000000006e9ad0b8a41e2c148e7b0385d3ecbfdb8a216a9b"
          ],
          "data": "0x000000000000000000000000000000000000000000000000000000005e54029b",
          "blockHash": "0xc3136de69812ec0ecfcbfaa4ccde16a8de72003d50b9886d3262a50675ee89c4",
          "blockNumber": "0x976136",
          "blockTimestamp": "0x66f3ebf1",
          "transactionHash": "0xfc3ea5c97e1de4593f1300177dfce6ea444570b2d4109b086dd24d2e0e6c77f6",
          "transactionIndex": "0x0",
          "logIndex": "0x15",
          "removed": false
        },
        {
          "address": "0xa219439258ca9da29e9cc4ce5596924745e12b93",
          "topics": [
            "0xddf252ad1be2c89b69c2b068fc378daa952ba7f163c4a11628f55a4df523b3ef",
            "0x0000000000000000000000006e9ad0b8a41e2c148e7b0385d3ecbfdb8a216a9b",
            "0x0000000000000000000000001d8b6fa722230153be08c4fa4aa4b4c7cd01a95a"
          ],
          "data": "0x0000000000000000000000000000000000000000000000000000000000000945",
          "blockHash": "0xc3136de69812ec0ecfcbfaa4ccde16a8de72003d50b9886d3262a50675ee89c4",
          "blockNumber": "0x976136",
          "blockTimestamp": "0x66f3ebf1",
          "transactionHash": "0xfc3ea5c97e1de4593f1300177dfce6ea444570b2d4109b086dd24d2e0e6c77f6",
          "transactionIndex": "0x0",
          "logIndex": "0x16",
          "removed": false
        },
        {
          "address": "0x6e9ad0b8a41e2c148e7b0385d3ecbfdb8a216a9b",
          "topics": [
            "0xc42079f94a6350d7e6235f29174924f928cc2ac818eb64fed8004e115fbcca67",
            "0x00000000000000000000000056c85a254dd12ee8d9c04049a4ab62769ce98210",
            "0x0000000000000000000000002d8879046f1559e53eb052e949e9544bcb72f414"
          ],
          "data": "0xffffffffffffffffffffffffffffffffffffffffffffffffffffffffa1ac4ada000000000000000000000000000000000000000000000000000000005e54029b0000000000000000000000000000000000000000fffece20fb03752ceb0dddb30000000000000000000000000000000000000000000000000005925362d67b71ffffffffffffffffffffffffffffffffffffffffffffffffffffffffffffffff",
          "blockHash": "0xc3136de69812ec0ecfcbfaa4ccde16a8de72003d50b9886d3262a50675ee89c4",
          "blockNumber": "0x976136",
          "blockTimestamp": "0x66f3ebf1",
          "transactionHash": "0xfc3ea5c97e1de4593f1300177dfce6ea444570b2d4109b086dd24d2e0e6c77f6",
          "transactionIndex": "0x0",
          "logIndex": "0x17",
          "removed": false
        },
        {
          "address": "0x176211869ca2b568f2a7d4ee941e073a821ee1ff",
          "topics": [
            "0xddf252ad1be2c89b69c2b068fc378daa952ba7f163c4a11628f55a4df523b3ef",
            "0x0000000000000000000000002d8879046f1559e53eb052e949e9544bcb72f414",
            "0x000000000000000000000000f39fd6e51aad88f6f4ce6ab8827279cfffb92266"
          ],
          "data": "0x000000000000000000000000000000000000000000000000000000009c407c71",
          "blockHash": "0xc3136de69812ec0ecfcbfaa4ccde16a8de72003d50b9886d3262a50675ee89c4",
          "blockNumber": "0x976136",
          "blockTimestamp": "0x66f3ebf1",
          "transactionHash": "0xfc3ea5c97e1de4593f1300177dfce6ea444570b2d4109b086dd24d2e0e6c77f6",
          "transactionIndex": "0x0",
          "logIndex": "0x18",
          "removed": false
        },
        {
          "address": "0x2d8879046f1559e53eb052e949e9544bcb72f414",
          "topics": [
            "0x823eaf01002d7353fbcadb2ea3305cc46fa35d799cb0914846d185ac06f8ad05"
          ],
          "data": "0x000000000000000000000000f39fd6e51aad88f6f4ce6ab8827279cfffb922660000000000000000000000000000000000000000000000000de0b6b3a7640000000000000000000000000000e5d7c2a44ffddf6b295a15c148167daaaf5cf34f000000000000000000000000000000000000000000000000000000009c407c71000000000000000000000000176211869ca2b568f2a7d4ee941e073a821ee1ff00000000000000000000000000000000000000000000000000000000000000410000000000000000000000000000000000000000000000000000000000000000",
          "blockHash": "0xc3136de69812ec0ecfcbfaa4ccde16a8de72003d50b9886d3262a50675ee89c4",
          "blockNumber": "0x976136",
          "blockTimestamp": "0x66f3ebf1",
          "transactionHash": "0xfc3ea5c97e1de4593f1300177dfce6ea444570b2d4109b086dd24d2e0e6c77f6",
          "transactionIndex": "0x0",
          "logIndex": "0x19",
          "removed": false
        }
      ],
      "logsBloom": "0x000000000040000000000000000000000000000000008000080000000040000004000400000000040000108000020000000448000000200400040000000040000c000200004000080008000802001000000000000000000020000000000000000080000200100000008000012080000180000000020000000000001000480000000002000008000000101004000000200000800000000000000000040000000000000000020000100000000000000000000004020000000100400040a00002000050000208000020020008008000100000020800a2400c0000000001000008000000000200000000020000000000000000000020000002000040000000000000",
      "type": "0x2",
      "transactionHash": "0xfc3ea5c97e1de4593f1300177dfce6ea444570b2d4109b086dd24d2e0e6c77f6",
      "transactionIndex": "0x0",
      "blockHash": "0xc3136de69812ec0ecfcbfaa4ccde16a8de72003d50b9886d3262a50675ee89c4",
      "blockNumber": "0x976136",
      "gasUsed": "0x10d268",
      "effectiveGasPrice": "0x5c493eb",
      "blobGasPrice": "0x1",
      "from": "0xf39fd6e51aad88f6f4ce6ab8827279cfffb92266",
      "to": "0x2d8879046f1559e53eb052e949e9544bcb72f414",
      "contractAddress": null,
      "root": "0x0000000000000000000000000000000000000000000000000000000000000000"
    },
    {
      "status": "0x1",
      "cumulativeGasUsed": "0xeb1e",
      "logs": [
        {
          "address": "0x176211869ca2b568f2a7d4ee941e073a821ee1ff",
          "topics": [
            "0x8c5be1e5ebec7d5bd14f71427d1e84f3dd0314c0f7b2291e5b200ac8c7c3b925",
            "0x000000000000000000000000f39fd6e51aad88f6f4ce6ab8827279cfffb92266",
            "0x0000000000000000000000000b306bf915c4d645ff596e518faf3f9669b97016"
          ],
          "data": "0xffffffffffffffffffffffffffffffffffffffffffffffffffffffffffffffff",
          "blockHash": "0xf513815df5251c18fc5b8dd8665fac4008d055aeb593aa3700b3368300aa031c",
          "blockNumber": "0x976137",
          "blockTimestamp": "0x66f3ebf2",
          "transactionHash": "0x42a4ed9fc33767f9f26f6f7ecf4d99dd9f986d4f095c290af09799332241649a",
          "transactionIndex": "0x0",
          "logIndex": "0x0",
          "removed": false
        }
      ],
      "logsBloom": "0x00000000000000000000000000000008000000000000000000000000000000000000000000000000000000000000000000000800000000000004000000200000000000000000000000000000020000000000000000000000000000000000000000000000000000000000000300000000000000000000000000000000000000000000000000000000000000000000000000000000000000000000000000000000020000000000000000000000000000000000000000000000000000000000000000000000000000200000000000000000000000002000000000000000000000000010000000000000000000000400000000000000000000000000000000000000",
      "type": "0x2",
      "transactionHash": "0x42a4ed9fc33767f9f26f6f7ecf4d99dd9f986d4f095c290af09799332241649a",
      "transactionIndex": "0x0",
      "blockHash": "0xf513815df5251c18fc5b8dd8665fac4008d055aeb593aa3700b3368300aa031c",
      "blockNumber": "0x976137",
      "gasUsed": "0xeb1e",
      "effectiveGasPrice": "0x5c493eb",
      "blobGasPrice": "0x1",
      "from": "0xf39fd6e51aad88f6f4ce6ab8827279cfffb92266",
      "to": "0x176211869ca2b568f2a7d4ee941e073a821ee1ff",
      "contractAddress": null,
      "root": "0x0000000000000000000000000000000000000000000000000000000000000000"
    },
    {
      "status": "0x1",
      "cumulativeGasUsed": "0x1a03a",
      "logs": [
        {
          "address": "0xe5d7c2a44ffddf6b295a15c148167daaaf5cf34f",
          "topics": [
            "0x8c5be1e5ebec7d5bd14f71427d1e84f3dd0314c0f7b2291e5b200ac8c7c3b925",
            "0x000000000000000000000000f39fd6e51aad88f6f4ce6ab8827279cfffb92266",
            "0x0000000000000000000000000b306bf915c4d645ff596e518faf3f9669b97016"
          ],
          "data": "0xffffffffffffffffffffffffffffffffffffffffffffffffffffffffffffffff",
          "blockHash": "0xf513815df5251c18fc5b8dd8665fac4008d055aeb593aa3700b3368300aa031c",
          "blockNumber": "0x976137",
          "blockTimestamp": "0x66f3ebf2",
          "transactionHash": "0x0661682399d321ee065dca2c5fb5b46df8cca58f6834317f2ec4e5e258fdfc8d",
          "transactionIndex": "0x1",
          "logIndex": "0x1",
          "removed": false
        }
      ],
      "logsBloom": "0x0000000000000000000000000000000800000000000000000000000000000000000000000000000000000000000000000000000000000000000000000020000000000000000000000000000000000000000000000000000000000000000000000000000000000000000000030000000000000000000000000000000000000000000000000000000000100000000000000000000000000000000000000000000002000000000000000000000000000000000000000000000000000000200000000000000000000020000000000000000000000000a000000000000000000000000010000000000000000000000400000000000000000000000000000000000000",
      "type": "0x2",
      "transactionHash": "0x0661682399d321ee065dca2c5fb5b46df8cca58f6834317f2ec4e5e258fdfc8d",
      "transactionIndex": "0x1",
      "blockHash": "0xf513815df5251c18fc5b8dd8665fac4008d055aeb593aa3700b3368300aa031c",
      "blockNumber": "0x976137",
      "gasUsed": "0xb51c",
      "effectiveGasPrice": "0x5c493eb",
      "blobGasPrice": "0x1",
      "from": "0xf39fd6e51aad88f6f4ce6ab8827279cfffb92266",
      "to": "0xe5d7c2a44ffddf6b295a15c148167daaaf5cf34f",
      "contractAddress": null,
      "root": "0x0000000000000000000000000000000000000000000000000000000000000000"
    },
    {
      "status": "0x1",
      "cumulativeGasUsed": "0x2079a",
      "logs": [
        {
          "address": "0xe5d7c2a44ffddf6b295a15c148167daaaf5cf34f",
          "topics": [
            "0x8c5be1e5ebec7d5bd14f71427d1e84f3dd0314c0f7b2291e5b200ac8c7c3b925",
            "0x000000000000000000000000f39fd6e51aad88f6f4ce6ab8827279cfffb92266",
            "0x0000000000000000000000000b306bf915c4d645ff596e518faf3f9669b97016"
          ],
          "data": "0xffffffffffffffffffffffffffffffffffffffffffffffffffffffffffffffff",
          "blockHash": "0xf513815df5251c18fc5b8dd8665fac4008d055aeb593aa3700b3368300aa031c",
          "blockNumber": "0x976137",
          "blockTimestamp": "0x66f3ebf2",
          "transactionHash": "0x37ef406abc9c17ac0bc0950efe196f25d7dfb54400b6b5886dc6a740ffcb2481",
          "transactionIndex": "0x2",
          "logIndex": "0x2",
          "removed": false
        }
      ],
      "logsBloom": "0x0000000000000000000000000000000800000000000000000000000000000000000000000000000000000000000000000000000000000000000000000020000000000000000000000000000000000000000000000000000000000000000000000000000000000000000000030000000000000000000000000000000000000000000000000000000000100000000000000000000000000000000000000000000002000000000000000000000000000000000000000000000000000000200000000000000000000020000000000000000000000000a000000000000000000000000010000000000000000000000400000000000000000000000000000000000000",
      "type": "0x2",
      "transactionHash": "0x37ef406abc9c17ac0bc0950efe196f25d7dfb54400b6b5886dc6a740ffcb2481",
      "transactionIndex": "0x2",
      "blockHash": "0xf513815df5251c18fc5b8dd8665fac4008d055aeb593aa3700b3368300aa031c",
      "blockNumber": "0x976137",
      "gasUsed": "0x6760",
      "effectiveGasPrice": "0x5c493eb",
      "blobGasPrice": "0x1",
      "from": "0xf39fd6e51aad88f6f4ce6ab8827279cfffb92266",
      "to": "0xe5d7c2a44ffddf6b295a15c148167daaaf5cf34f",
      "contractAddress": null,
      "root": "0x0000000000000000000000000000000000000000000000000000000000000000"
    },
    {
      "status": "0x1",
      "cumulativeGasUsed": "0x2a4fc",
      "logs": [
        {
          "address": "0x176211869ca2b568f2a7d4ee941e073a821ee1ff",
          "topics": [
            "0x8c5be1e5ebec7d5bd14f71427d1e84f3dd0314c0f7b2291e5b200ac8c7c3b925",
            "0x000000000000000000000000f39fd6e51aad88f6f4ce6ab8827279cfffb92266",
            "0x0000000000000000000000000b306bf915c4d645ff596e518faf3f9669b97016"
          ],
          "data": "0xffffffffffffffffffffffffffffffffffffffffffffffffffffffffffffffff",
          "blockHash": "0xf513815df5251c18fc5b8dd8665fac4008d055aeb593aa3700b3368300aa031c",
          "blockNumber": "0x976137",
          "blockTimestamp": "0x66f3ebf2",
          "transactionHash": "0xce8a8bb54b654b1d922403df36553fc743521f62b4a26ab385aaaee6890efae3",
          "transactionIndex": "0x3",
          "logIndex": "0x3",
          "removed": false
        }
      ],
      "logsBloom": "0x00000000000000000000000000000008000000000000000000000000000000000000000000000000000000000000000000000800000000000004000000200000000000000000000000000000020000000000000000000000000000000000000000000000000000000000000300000000000000000000000000000000000000000000000000000000000000000000000000000000000000000000000000000000020000000000000000000000000000000000000000000000000000000000000000000000000000200000000000000000000000002000000000000000000000000010000000000000000000000400000000000000000000000000000000000000",
      "type": "0x2",
      "transactionHash": "0xce8a8bb54b654b1d922403df36553fc743521f62b4a26ab385aaaee6890efae3",
      "transactionIndex": "0x3",
      "blockHash": "0xf513815df5251c18fc5b8dd8665fac4008d055aeb593aa3700b3368300aa031c",
      "blockNumber": "0x976137",
      "gasUsed": "0x9d62",
      "effectiveGasPrice": "0x5c493eb",
      "blobGasPrice": "0x1",
      "from": "0xf39fd6e51aad88f6f4ce6ab8827279cfffb92266",
      "to": "0x176211869ca2b568f2a7d4ee941e073a821ee1ff",
      "contractAddress": null,
      "root": "0x0000000000000000000000000000000000000000000000000000000000000000"
    },
    {
      "status": "0x1",
      "cumulativeGasUsed": "0x154e98",
      "logs": [
        {
          "address": "0x9a9f2ccfde556a7e9ff0848998aa4a0cfd8863ae",
          "topics": [
            "0xddf252ad1be2c89b69c2b068fc378daa952ba7f163c4a11628f55a4df523b3ef",
            "0x0000000000000000000000000000000000000000000000000000000000000000",
            "0x000000000000000000000000f39fd6e51aad88f6f4ce6ab8827279cfffb92266",
            "0x0000000000000000000000000000000000000000000000000000000000000000"
          ],
          "data": "0x",
          "blockHash": "0xf513815df5251c18fc5b8dd8665fac4008d055aeb593aa3700b3368300aa031c",
          "blockNumber": "0x976137",
          "blockTimestamp": "0x66f3ebf2",
          "transactionHash": "0xed3122ffc42fe85bc5546522219b06b792c31e0457fc178e95ef0dd3a3da913d",
          "transactionIndex": "0x4",
          "logIndex": "0x4",
          "removed": false
        },
        {
          "address": "0x176211869ca2b568f2a7d4ee941e073a821ee1ff",
          "topics": [
            "0xddf252ad1be2c89b69c2b068fc378daa952ba7f163c4a11628f55a4df523b3ef",
            "0x000000000000000000000000f39fd6e51aad88f6f4ce6ab8827279cfffb92266",
            "0x0000000000000000000000008ee06e608de47ea1b185583aca65e34f2fd79b13"
          ],
          "data": "0x0000000000000000000000000000000000000000000000000000000005f5e100",
          "blockHash": "0xf513815df5251c18fc5b8dd8665fac4008d055aeb593aa3700b3368300aa031c",
          "blockNumber": "0x976137",
          "blockTimestamp": "0x66f3ebf2",
          "transactionHash": "0xed3122ffc42fe85bc5546522219b06b792c31e0457fc178e95ef0dd3a3da913d",
          "transactionIndex": "0x4",
          "logIndex": "0x5",
          "removed": false
        },
        {
          "address": "0x176211869ca2b568f2a7d4ee941e073a821ee1ff",
          "topics": [
            "0xddf252ad1be2c89b69c2b068fc378daa952ba7f163c4a11628f55a4df523b3ef",
            "0x0000000000000000000000002e207eca8b6bf77a6ac82763eeed2a94de4f081d",
            "0x0000000000000000000000008ee06e608de47ea1b185583aca65e34f2fd79b13"
          ],
          "data": "0x0000000000000000000000000000000000000000000000000000000011e1a300",
          "blockHash": "0xf513815df5251c18fc5b8dd8665fac4008d055aeb593aa3700b3368300aa031c",
          "blockNumber": "0x976137",
          "blockTimestamp": "0x66f3ebf2",
          "transactionHash": "0xed3122ffc42fe85bc5546522219b06b792c31e0457fc178e95ef0dd3a3da913d",
          "transactionIndex": "0x4",
          "logIndex": "0x6",
          "removed": false
        },
        {
          "address": "0x176211869ca2b568f2a7d4ee941e073a821ee1ff",
          "topics": [
            "0x8c5be1e5ebec7d5bd14f71427d1e84f3dd0314c0f7b2291e5b200ac8c7c3b925",
            "0x0000000000000000000000008ee06e608de47ea1b185583aca65e34f2fd79b13",
            "0x0000000000000000000000002d8879046f1559e53eb052e949e9544bcb72f414"
          ],
          "data": "0x0000000000000000000000000000000000000000000000000000000017d78400",
          "blockHash": "0xf513815df5251c18fc5b8dd8665fac4008d055aeb593aa3700b3368300aa031c",
          "blockNumber": "0x976137",
          "blockTimestamp": "0x66f3ebf2",
          "transactionHash": "0xed3122ffc42fe85bc5546522219b06b792c31e0457fc178e95ef0dd3a3da913d",
          "transactionIndex": "0x4",
          "logIndex": "0x7",
          "removed": false
        },
        {
          "address": "0x176211869ca2b568f2a7d4ee941e073a821ee1ff",
          "topics": [
            "0xddf252ad1be2c89b69c2b068fc378daa952ba7f163c4a11628f55a4df523b3ef",
            "0x0000000000000000000000008ee06e608de47ea1b185583aca65e34f2fd79b13",
            "0x00000000000000000000000056c85a254dd12ee8d9c04049a4ab62769ce98210"
          ],
          "data": "0x0000000000000000000000000000000000000000000000000000000017d78400",
          "blockHash": "0xf513815df5251c18fc5b8dd8665fac4008d055aeb593aa3700b3368300aa031c",
          "blockNumber": "0x976137",
          "blockTimestamp": "0x66f3ebf2",
          "transactionHash": "0xed3122ffc42fe85bc5546522219b06b792c31e0457fc178e95ef0dd3a3da913d",
          "transactionIndex": "0x4",
          "logIndex": "0x8",
          "removed": false
        },
        {
          "address": "0xe5d7c2a44ffddf6b295a15c148167daaaf5cf34f",
          "topics": [
            "0xddf252ad1be2c89b69c2b068fc378daa952ba7f163c4a11628f55a4df523b3ef",
            "0x00000000000000000000000064bccad8e7302e81b09894f56f6bba85ae82cd03",
            "0x0000000000000000000000002d8879046f1559e53eb052e949e9544bcb72f414"
          ],
          "data": "0x000000000000000000000000000000000000000000000000021ddda471b0a8c5",
          "blockHash": "0xf513815df5251c18fc5b8dd8665fac4008d055aeb593aa3700b3368300aa031c",
          "blockNumber": "0x976137",
          "blockTimestamp": "0x66f3ebf2",
          "transactionHash": "0xed3122ffc42fe85bc5546522219b06b792c31e0457fc178e95ef0dd3a3da913d",
          "transactionIndex": "0x4",
          "logIndex": "0x9",
          "removed": false
        },
        {
          "address": "0x176211869ca2b568f2a7d4ee941e073a821ee1ff",
          "topics": [
            "0xddf252ad1be2c89b69c2b068fc378daa952ba7f163c4a11628f55a4df523b3ef",
            "0x00000000000000000000000056c85a254dd12ee8d9c04049a4ab62769ce98210",
            "0x00000000000000000000000064bccad8e7302e81b09894f56f6bba85ae82cd03"
          ],
          "data": "0x0000000000000000000000000000000000000000000000000000000017d78400",
          "blockHash": "0xf513815df5251c18fc5b8dd8665fac4008d055aeb593aa3700b3368300aa031c",
          "blockNumber": "0x976137",
          "blockTimestamp": "0x66f3ebf2",
          "transactionHash": "0xed3122ffc42fe85bc5546522219b06b792c31e0457fc178e95ef0dd3a3da913d",
          "transactionIndex": "0x4",
          "logIndex": "0xa",
          "removed": false
        },
        {
          "address": "0x64bccad8e7302e81b09894f56f6bba85ae82cd03",
          "topics": [
            "0xc42079f94a6350d7e6235f29174924f928cc2ac818eb64fed8004e115fbcca67",
            "0x00000000000000000000000056c85a254dd12ee8d9c04049a4ab62769ce98210",
            "0x0000000000000000000000002d8879046f1559e53eb052e949e9544bcb72f414"
          ],
          "data": "0x0000000000000000000000000000000000000000000000000000000017d78400fffffffffffffffffffffffffffffffffffffffffffffffffde2225b8e4f573b0000000000000000000000000000000000004c4aa3574b5a7f88d4923e63cd4200000000000000000000000000000000000000000000000003e3ff3b94b47a4500000000000000000000000000000000000000000000000000000000000303e4",
          "blockHash": "0xf513815df5251c18fc5b8dd8665fac4008d055aeb593aa3700b3368300aa031c",
          "blockNumber": "0x976137",
          "blockTimestamp": "0x66f3ebf2",
          "transactionHash": "0xed3122ffc42fe85bc5546522219b06b792c31e0457fc178e95ef0dd3a3da913d",
          "transactionIndex": "0x4",
          "logIndex": "0xb",
          "removed": false
        },
        {
          "address": "0xe5d7c2a44ffddf6b295a15c148167daaaf5cf34f",
          "topics": [
            "0xddf252ad1be2c89b69c2b068fc378daa952ba7f163c4a11628f55a4df523b3ef",
            "0x0000000000000000000000002d8879046f1559e53eb052e949e9544bcb72f414",
            "0x0000000000000000000000008ee06e608de47ea1b185583aca65e34f2fd79b13"
          ],
          "data": "0x000000000000000000000000000000000000000000000000021ddda471b0a8c5",
          "blockHash": "0xf513815df5251c18fc5b8dd8665fac4008d055aeb593aa3700b3368300aa031c",
          "blockNumber": "0x976137",
          "blockTimestamp": "0x66f3ebf2",
          "transactionHash": "0xed3122ffc42fe85bc5546522219b06b792c31e0457fc178e95ef0dd3a3da913d",
          "transactionIndex": "0x4",
          "logIndex": "0xc",
          "removed": false
        },
        {
          "address": "0x2d8879046f1559e53eb052e949e9544bcb72f414",
          "topics": [
            "0x823eaf01002d7353fbcadb2ea3305cc46fa35d799cb0914846d185ac06f8ad05"
          ],
          "data": "0x0000000000000000000000008ee06e608de47ea1b185583aca65e34f2fd79b130000000000000000000000000000000000000000000000000000000017d78400000000000000000000000000176211869ca2b568f2a7d4ee941e073a821ee1ff000000000000000000000000000000000000000000000000021ddda471b0a8c5000000000000000000000000e5d7c2a44ffddf6b295a15c148167daaaf5cf34fffffffffffffffffffffffffffffffffffffffffffffffffffffffffe1ba71450000000000000000000000000000000000000000000000000000000000000000",
          "blockHash": "0xf513815df5251c18fc5b8dd8665fac4008d055aeb593aa3700b3368300aa031c",
          "blockNumber": "0x976137",
          "blockTimestamp": "0x66f3ebf2",
          "transactionHash": "0xed3122ffc42fe85bc5546522219b06b792c31e0457fc178e95ef0dd3a3da913d",
          "transactionIndex": "0x4",
          "logIndex": "0xd",
          "removed": false
        },
        {
          "address": "0xe5d7c2a44ffddf6b295a15c148167daaaf5cf34f",
          "topics": [
            "0x8c5be1e5ebec7d5bd14f71427d1e84f3dd0314c0f7b2291e5b200ac8c7c3b925",
            "0x0000000000000000000000008ee06e608de47ea1b185583aca65e34f2fd79b13",
            "0x0000000000000000000000002f9bb73a8e98793e26cb2f6c4ad037bdf1c6b269"
          ],
          "data": "0x000000000000000000000000000000000000000000000000021ddda471b0a8c5",
          "blockHash": "0xf513815df5251c18fc5b8dd8665fac4008d055aeb593aa3700b3368300aa031c",
          "blockNumber": "0x976137",
          "blockTimestamp": "0x66f3ebf2",
          "transactionHash": "0xed3122ffc42fe85bc5546522219b06b792c31e0457fc178e95ef0dd3a3da913d",
          "transactionIndex": "0x4",
          "logIndex": "0xe",
          "removed": false
        },
        {
          "address": "0x2f9bb73a8e98793e26cb2f6c4ad037bdf1c6b269",
          "topics": [
            "0x804c9b842b2748a22bb64b345453a3de7ca54a6ca45ce00d415894979e22897a",
            "0x000000000000000000000000e5d7c2a44ffddf6b295a15c148167daaaf5cf34f"
          ],
          "data": "0x0000000000000000000000000000000000000000000c3fdf2a9726c68b859a390000000000000000000000000000000000000000002cd94b74944bd9ce7ae4e10000000000000000000000000000000000000000001beb1031822b82e3d72702000000000000000000000000000000000000000003531069e6018d53153e1ee7000000000000000000000000000000000000000003603a9f5db98e9d82b62dea",
          "blockHash": "0xf513815df5251c18fc5b8dd8665fac4008d055aeb593aa3700b3368300aa031c",
          "blockNumber": "0x976137",
          "blockTimestamp": "0x66f3ebf2",
          "transactionHash": "0xed3122ffc42fe85bc5546522219b06b792c31e0457fc178e95ef0dd3a3da913d",
          "transactionIndex": "0x4",
          "logIndex": "0xf",
          "removed": false
        },
        {
          "address": "0xe5d7c2a44ffddf6b295a15c148167daaaf5cf34f",
          "topics": [
            "0xddf252ad1be2c89b69c2b068fc378daa952ba7f163c4a11628f55a4df523b3ef",
            "0x0000000000000000000000008ee06e608de47ea1b185583aca65e34f2fd79b13",
            "0x000000000000000000000000b4ffef15daf4c02787bc5332580b838ce39805f5"
          ],
          "data": "0x000000000000000000000000000000000000000000000000021ddda471b0a8c5",
          "blockHash": "0xf513815df5251c18fc5b8dd8665fac4008d055aeb593aa3700b3368300aa031c",
          "blockNumber": "0x976137",
          "blockTimestamp": "0x66f3ebf2",
          "transactionHash": "0xed3122ffc42fe85bc5546522219b06b792c31e0457fc178e95ef0dd3a3da913d",
          "transactionIndex": "0x4",
          "logIndex": "0x10",
          "removed": false
        },
        {
          "address": "0x28f6899ff643261ca9766ddc251b359a2d00b945",
          "topics": [
            "0x3303facd24627943a92e9dc87cfbb34b15c49b726eec3ad3487c16be9ab8efe8",
            "0x000000000000000000000000b4ffef15daf4c02787bc5332580b838ce39805f5",
            "0x00000000000000000000000040a59a3f3b16d9e74c811d24d8b7969664cfe180",
            "0x0000000000000000000000008ee06e608de47ea1b185583aca65e34f2fd79b13"
          ],
          "data": "0x000000000000000000000000000000000000000000004a6e6ce87410aa4b5006000000000000000000000000000000000000000000004a6e6ce87410aa4b50060000000000000000000000000000000000000000000000000000000000000000",
          "blockHash": "0xf513815df5251c18fc5b8dd8665fac4008d055aeb593aa3700b3368300aa031c",
          "blockNumber": "0x976137",
          "blockTimestamp": "0x66f3ebf2",
          "transactionHash": "0xed3122ffc42fe85bc5546522219b06b792c31e0457fc178e95ef0dd3a3da913d",
          "transactionIndex": "0x4",
          "logIndex": "0x11",
          "removed": false
        },
        {
          "address": "0x28f6899ff643261ca9766ddc251b359a2d00b945",
          "topics": [
            "0x3303facd24627943a92e9dc87cfbb34b15c49b726eec3ad3487c16be9ab8efe8",
            "0x000000000000000000000000b4ffef15daf4c02787bc5332580b838ce39805f5",
            "0x00000000000000000000000078354f8dccb269a615a7e0a24f9b0718fdc3c7a7",
            "0x0000000000000000000000008ee06e608de47ea1b185583aca65e34f2fd79b13"
          ],
          "data": "0x0000000000000000000000000000000000000000000002a1022d882accb24dd80000000000000000000000000000000000000000000002a1022d882accb24dd80000000000000000000000000000000000000000000000000000000000000000",
          "blockHash": "0xf513815df5251c18fc5b8dd8665fac4008d055aeb593aa3700b3368300aa031c",
          "blockNumber": "0x976137",
          "blockTimestamp": "0x66f3ebf2",
          "transactionHash": "0xed3122ffc42fe85bc5546522219b06b792c31e0457fc178e95ef0dd3a3da913d",
          "transactionIndex": "0x4",
          "logIndex": "0x12",
          "removed": false
        },
        {
          "address": "0xb4ffef15daf4c02787bc5332580b838ce39805f5",
          "topics": [
            "0xddf252ad1be2c89b69c2b068fc378daa952ba7f163c4a11628f55a4df523b3ef",
            "0x0000000000000000000000000000000000000000000000000000000000000000",
            "0x0000000000000000000000008ee06e608de47ea1b185583aca65e34f2fd79b13"
          ],
          "data": "0x000000000000000000000000000000000000000000000000021ddda471b0a8c5",
          "blockHash": "0xf513815df5251c18fc5b8dd8665fac4008d055aeb593aa3700b3368300aa031c",
          "blockNumber": "0x976137",
          "blockTimestamp": "0x66f3ebf2",
          "transactionHash": "0xed3122ffc42fe85bc5546522219b06b792c31e0457fc178e95ef0dd3a3da913d",
          "transactionIndex": "0x4",
          "logIndex": "0x13",
          "removed": false
        },
        {
          "address": "0xb4ffef15daf4c02787bc5332580b838ce39805f5",
          "topics": [
            "0x458f5fa412d0f69b08dd84872b0215675cc67bc1d5b6fd93300a1c3878b86196",
            "0x0000000000000000000000008ee06e608de47ea1b185583aca65e34f2fd79b13",
            "0x0000000000000000000000008ee06e608de47ea1b185583aca65e34f2fd79b13"
          ],
          "data": "0x000000000000000000000000000000000000000000000000021ddda471b0a8c50000000000000000000000000000000000000000000000000000000000000000000000000000000000000000000000000000000003531069e6018d53153e1ee7",
          "blockHash": "0xf513815df5251c18fc5b8dd8665fac4008d055aeb593aa3700b3368300aa031c",
          "blockNumber": "0x976137",
          "blockTimestamp": "0x66f3ebf2",
          "transactionHash": "0xed3122ffc42fe85bc5546522219b06b792c31e0457fc178e95ef0dd3a3da913d",
          "transactionIndex": "0x4",
          "logIndex": "0x14",
          "removed": false
        },
        {
          "address": "0x2f9bb73a8e98793e26cb2f6c4ad037bdf1c6b269",
          "topics": [
            "0x00058a56ea94653cdf4f152d227ace22d4c00ad99e2a43f58cb7d9e3feb295f2",
            "0x000000000000000000000000e5d7c2a44ffddf6b295a15c148167daaaf5cf34f",
            "0x0000000000000000000000008ee06e608de47ea1b185583aca65e34f2fd79b13"
          ],
          "data": "0x",
          "blockHash": "0xf513815df5251c18fc5b8dd8665fac4008d055aeb593aa3700b3368300aa031c",
          "blockNumber": "0x976137",
          "blockTimestamp": "0x66f3ebf2",
          "transactionHash": "0xed3122ffc42fe85bc5546522219b06b792c31e0457fc178e95ef0dd3a3da913d",
          "transactionIndex": "0x4",
          "logIndex": "0x15",
          "removed": false
        },
        {
          "address": "0x2f9bb73a8e98793e26cb2f6c4ad037bdf1c6b269",
          "topics": [
            "0x2b627736bca15cd5381dcf80b0bf11fd197d01a037c52b927a881a10fb73ba61",
            "0x000000000000000000000000e5d7c2a44ffddf6b295a15c148167daaaf5cf34f",
            "0x0000000000000000000000008ee06e608de47ea1b185583aca65e34f2fd79b13",
            "0x0000000000000000000000000000000000000000000000000000000000000000"
          ],
          "data": "0x0000000000000000000000008ee06e608de47ea1b185583aca65e34f2fd79b13000000000000000000000000000000000000000000000000021ddda471b0a8c5",
          "blockHash": "0xf513815df5251c18fc5b8dd8665fac4008d055aeb593aa3700b3368300aa031c",
          "blockNumber": "0x976137",
          "blockTimestamp": "0x66f3ebf2",
          "transactionHash": "0xed3122ffc42fe85bc5546522219b06b792c31e0457fc178e95ef0dd3a3da913d",
          "transactionIndex": "0x4",
          "logIndex": "0x16",
          "removed": false
        },
        {
          "address": "0x28f6899ff643261ca9766ddc251b359a2d00b945",
          "topics": [
            "0x3303facd24627943a92e9dc87cfbb34b15c49b726eec3ad3487c16be9ab8efe8",
            "0x000000000000000000000000a2703dc9fbaccd6ec2e4cbfa700989d0238133f6",
            "0x00000000000000000000000040a59a3f3b16d9e74c811d24d8b7969664cfe180",
            "0x0000000000000000000000008ee06e608de47ea1b185583aca65e34f2fd79b13"
          ],
          "data": "0x0000000000000000000000000000000000000000000000053f69899e410bb3ed0000000000000000000000000000000000000000000000053f69899e410bb3ed0000000000000000000000000000000000000000000000000000000000000000",
          "blockHash": "0xf513815df5251c18fc5b8dd8665fac4008d055aeb593aa3700b3368300aa031c",
          "blockNumber": "0x976137",
          "blockTimestamp": "0x66f3ebf2",
          "transactionHash": "0xed3122ffc42fe85bc5546522219b06b792c31e0457fc178e95ef0dd3a3da913d",
          "transactionIndex": "0x4",
          "logIndex": "0x17",
          "removed": false
        },
        {
          "address": "0x28f6899ff643261ca9766ddc251b359a2d00b945",
          "topics": [
            "0x3303facd24627943a92e9dc87cfbb34b15c49b726eec3ad3487c16be9ab8efe8",
            "0x000000000000000000000000a2703dc9fbaccd6ec2e4cbfa700989d0238133f6",
            "0x00000000000000000000000078354f8dccb269a615a7e0a24f9b0718fdc3c7a7",
            "0x0000000000000000000000008ee06e608de47ea1b185583aca65e34f2fd79b13"
          ],
          "data": "0x0000000000000000000000000000000000000000000000019d0dba006a6d88680000000000000000000000000000000000000000000000019d0dba006a6d88680000000000000000000000000000000000000000000000000000000000000000",
          "blockHash": "0xf513815df5251c18fc5b8dd8665fac4008d055aeb593aa3700b3368300aa031c",
          "blockNumber": "0x976137",
          "blockTimestamp": "0x66f3ebf2",
          "transactionHash": "0xed3122ffc42fe85bc5546522219b06b792c31e0457fc178e95ef0dd3a3da913d",
          "transactionIndex": "0x4",
          "logIndex": "0x18",
          "removed": false
        },
        {
          "address": "0xa2703dc9fbaccd6ec2e4cbfa700989d0238133f6",
          "topics": [
            "0xddf252ad1be2c89b69c2b068fc378daa952ba7f163c4a11628f55a4df523b3ef",
            "0x0000000000000000000000000000000000000000000000000000000000000000",
            "0x0000000000000000000000008ee06e608de47ea1b185583aca65e34f2fd79b13"
          ],
          "data": "0x0000000000000000000000000000000000000000000000000000000011e3ecf0",
          "blockHash": "0xf513815df5251c18fc5b8dd8665fac4008d055aeb593aa3700b3368300aa031c",
          "blockNumber": "0x976137",
          "blockTimestamp": "0x66f3ebf2",
          "transactionHash": "0xed3122ffc42fe85bc5546522219b06b792c31e0457fc178e95ef0dd3a3da913d",
          "transactionIndex": "0x4",
          "logIndex": "0x19",
          "removed": false
        },
        {
          "address": "0xa2703dc9fbaccd6ec2e4cbfa700989d0238133f6",
          "topics": [
            "0x458f5fa412d0f69b08dd84872b0215675cc67bc1d5b6fd93300a1c3878b86196",
            "0x0000000000000000000000008ee06e608de47ea1b185583aca65e34f2fd79b13",
            "0x0000000000000000000000008ee06e608de47ea1b185583aca65e34f2fd79b13"
          ],
          "data": "0x0000000000000000000000000000000000000000000000000000000011e3ecf000000000000000000000000000000000000000000000000000000000000000000000000000000000000000000000000000000000036db049d4c0361066cd1130",
          "blockHash": "0xf513815df5251c18fc5b8dd8665fac4008d055aeb593aa3700b3368300aa031c",
          "blockNumber": "0x976137",
          "blockTimestamp": "0x66f3ebf2",
          "transactionHash": "0xed3122ffc42fe85bc5546522219b06b792c31e0457fc178e95ef0dd3a3da913d",
          "transactionIndex": "0x4",
          "logIndex": "0x1a",
          "removed": false
        },
        {
          "address": "0x2f9bb73a8e98793e26cb2f6c4ad037bdf1c6b269",
          "topics": [
            "0x804c9b842b2748a22bb64b345453a3de7ca54a6ca45ce00d415894979e22897a",
            "0x000000000000000000000000176211869ca2b568f2a7d4ee941e073a821ee1ff"
          ],
          "data": "0x00000000000000000000000000000000000000000037c5f7616b50b214b4505d0000000000000000000000000000000000000000006a768187bc784b816f0d380000000000000000000000000000000000000000005e0e21e69e765f126f0d380000000000000000000000000000000000000000035ef933722254b2b6841f7a0000000000000000000000000000000000000000036db049d4c0361066cd1130",
          "blockHash": "0xf513815df5251c18fc5b8dd8665fac4008d055aeb593aa3700b3368300aa031c",
          "blockNumber": "0x976137",
          "blockTimestamp": "0x66f3ebf2",
          "transactionHash": "0xed3122ffc42fe85bc5546522219b06b792c31e0457fc178e95ef0dd3a3da913d",
          "transactionIndex": "0x4",
          "logIndex": "0x1b",
          "removed": false
        },
        {
          "address": "0x176211869ca2b568f2a7d4ee941e073a821ee1ff",
          "topics": [
            "0xddf252ad1be2c89b69c2b068fc378daa952ba7f163c4a11628f55a4df523b3ef",
            "0x0000000000000000000000002e207eca8b6bf77a6ac82763eeed2a94de4f081d",
            "0x0000000000000000000000008ee06e608de47ea1b185583aca65e34f2fd79b13"
          ],
          "data": "0x0000000000000000000000000000000000000000000000000000000011e3ecf0",
          "blockHash": "0xf513815df5251c18fc5b8dd8665fac4008d055aeb593aa3700b3368300aa031c",
          "blockNumber": "0x976137",
          "blockTimestamp": "0x66f3ebf2",
          "transactionHash": "0xed3122ffc42fe85bc5546522219b06b792c31e0457fc178e95ef0dd3a3da913d",
          "transactionIndex": "0x4",
          "logIndex": "0x1c",
          "removed": false
        },
        {
          "address": "0x2f9bb73a8e98793e26cb2f6c4ad037bdf1c6b269",
          "topics": [
            "0xb3d084820fb1a9decffb176436bd02558d15fac9b0ddfed8c465bc7359d7dce0",
            "0x000000000000000000000000176211869ca2b568f2a7d4ee941e073a821ee1ff",
            "0x0000000000000000000000008ee06e608de47ea1b185583aca65e34f2fd79b13",
            "0x0000000000000000000000000000000000000000000000000000000000000000"
          ],
          "data": "0x0000000000000000000000008ee06e608de47ea1b185583aca65e34f2fd79b130000000000000000000000000000000000000000000000000000000011e3ecf000000000000000000000000000000000000000000000000000000000000000020000000000000000000000000000000000000000005e0e21e69e765f126f0d38",
          "blockHash": "0xf513815df5251c18fc5b8dd8665fac4008d055aeb593aa3700b3368300aa031c",
          "blockNumber": "0x976137",
          "blockTimestamp": "0x66f3ebf2",
          "transactionHash": "0xed3122ffc42fe85bc5546522219b06b792c31e0457fc178e95ef0dd3a3da913d",
          "transactionIndex": "0x4",
          "logIndex": "0x1d",
          "removed": false
        },
        {
          "address": "0x176211869ca2b568f2a7d4ee941e073a821ee1ff",
          "topics": [
            "0x8c5be1e5ebec7d5bd14f71427d1e84f3dd0314c0f7b2291e5b200ac8c7c3b925",
            "0x0000000000000000000000008ee06e608de47ea1b185583aca65e34f2fd79b13",
            "0x0000000000000000000000002d8879046f1559e53eb052e949e9544bcb72f414"
          ],
          "data": "0x0000000000000000000000000000000000000000000000000000000000000000",
          "blockHash": "0xf513815df5251c18fc5b8dd8665fac4008d055aeb593aa3700b3368300aa031c",
          "blockNumber": "0x976137",
          "blockTimestamp": "0x66f3ebf2",
          "transactionHash": "0xed3122ffc42fe85bc5546522219b06b792c31e0457fc178e95ef0dd3a3da913d",
          "transactionIndex": "0x4",
          "logIndex": "0x1e",
          "removed": false
        },
        {
          "address": "0xe5d7c2a44ffddf6b295a15c148167daaaf5cf34f",
          "topics": [
            "0x8c5be1e5ebec7d5bd14f71427d1e84f3dd0314c0f7b2291e5b200ac8c7c3b925",
            "0x0000000000000000000000008ee06e608de47ea1b185583aca65e34f2fd79b13",
            "0x0000000000000000000000002f9bb73a8e98793e26cb2f6c4ad037bdf1c6b269"
          ],
          "data": "0x0000000000000000000000000000000000000000000000000000000000000000",
          "blockHash": "0xf513815df5251c18fc5b8dd8665fac4008d055aeb593aa3700b3368300aa031c",
          "blockNumber": "0x976137",
          "blockTimestamp": "0x66f3ebf2",
          "transactionHash": "0xed3122ffc42fe85bc5546522219b06b792c31e0457fc178e95ef0dd3a3da913d",
          "transactionIndex": "0x4",
          "logIndex": "0x1f",
          "removed": false
        },
        {
          "address": "0x176211869ca2b568f2a7d4ee941e073a821ee1ff",
          "topics": [
            "0x8c5be1e5ebec7d5bd14f71427d1e84f3dd0314c0f7b2291e5b200ac8c7c3b925",
            "0x0000000000000000000000008ee06e608de47ea1b185583aca65e34f2fd79b13",
            "0x0000000000000000000000002f9bb73a8e98793e26cb2f6c4ad037bdf1c6b269"
          ],
          "data": "0x0000000000000000000000000000000000000000000000000000000011e3ecf0",
          "blockHash": "0xf513815df5251c18fc5b8dd8665fac4008d055aeb593aa3700b3368300aa031c",
          "blockNumber": "0x976137",
          "blockTimestamp": "0x66f3ebf2",
          "transactionHash": "0xed3122ffc42fe85bc5546522219b06b792c31e0457fc178e95ef0dd3a3da913d",
          "transactionIndex": "0x4",
          "logIndex": "0x20",
          "removed": false
        },
        {
          "address": "0x2f9bb73a8e98793e26cb2f6c4ad037bdf1c6b269",
          "topics": [
            "0x804c9b842b2748a22bb64b345453a3de7ca54a6ca45ce00d415894979e22897a",
            "0x000000000000000000000000176211869ca2b568f2a7d4ee941e073a821ee1ff"
          ],
          "data": "0x00000000000000000000000000000000000000000037b2ec5e786f2dba7150ce0000000000000000000000000000000000000000006a570b7a6daeef358b9f860000000000000000000000000000000000000000005deeabd94fad02c68b9f860000000000000000000000000000000000000000035ef93436727995e07d20560000000000000000000000000000000000000000036db049d4c0361066cd1130",
          "blockHash": "0xf513815df5251c18fc5b8dd8665fac4008d055aeb593aa3700b3368300aa031c",
          "blockNumber": "0x976137",
          "blockTimestamp": "0x66f3ebf2",
          "transactionHash": "0xed3122ffc42fe85bc5546522219b06b792c31e0457fc178e95ef0dd3a3da913d",
          "transactionIndex": "0x4",
          "logIndex": "0x21",
          "removed": false
        },
        {
          "address": "0x176211869ca2b568f2a7d4ee941e073a821ee1ff",
          "topics": [
            "0xddf252ad1be2c89b69c2b068fc378daa952ba7f163c4a11628f55a4df523b3ef",
            "0x0000000000000000000000008ee06e608de47ea1b185583aca65e34f2fd79b13",
            "0x0000000000000000000000002e207eca8b6bf77a6ac82763eeed2a94de4f081d"
          ],
          "data": "0x0000000000000000000000000000000000000000000000000000000011e3ecf0",
          "blockHash": "0xf513815df5251c18fc5b8dd8665fac4008d055aeb593aa3700b3368300aa031c",
          "blockNumber": "0x976137",
          "blockTimestamp": "0x66f3ebf2",
          "transactionHash": "0xed3122ffc42fe85bc5546522219b06b792c31e0457fc178e95ef0dd3a3da913d",
          "transactionIndex": "0x4",
          "logIndex": "0x22",
          "removed": false
        },
        {
          "address": "0x2f9bb73a8e98793e26cb2f6c4ad037bdf1c6b269",
          "topics": [
            "0xefefaba5e921573100900a3ad9cf29f222d995fb3b6045797eaea7521bd8d6f0",
            "0x0000000000000000000000008ee06e608de47ea1b185583aca65e34f2fd79b13",
            "0x000000000000000000000000176211869ca2b568f2a7d4ee941e073a821ee1ff",
            "0x0000000000000000000000000000000000000000000000000000000000000000"
          ],
          "data": "0x0000000000000000000000008ee06e608de47ea1b185583aca65e34f2fd79b130000000000000000000000000000000000000000000000000000000011e1a300000000000000000000000000000000000000000000000000000000000000000000000000000000000000000000000000000000000000000000000000000249f0",
          "blockHash": "0xf513815df5251c18fc5b8dd8665fac4008d055aeb593aa3700b3368300aa031c",
          "blockNumber": "0x976137",
          "blockTimestamp": "0x66f3ebf2",
          "transactionHash": "0xed3122ffc42fe85bc5546522219b06b792c31e0457fc178e95ef0dd3a3da913d",
          "transactionIndex": "0x4",
          "logIndex": "0x23",
          "removed": false
        }
      ],
      "logsBloom": "0x01000000000009040080000000000000008000004000000000000000000000000800a00120000800000010000004000000100800041020140004010000200000000000200000000800080008020000002040000000000002000000050040000000000002020000000080000120000801844000001000000001000010200c0000000002008000000800100004000000000000000000000000008008040000004002080000020000040000000002000010000000000010080100004000a00001000250000200000120000000204000000000020000a000060000000000000020000010200000008020000000000001000040000000020002000000400000100000",
      "type": "0x2",
      "transactionHash": "0xed3122ffc42fe85bc5546522219b06b792c31e0457fc178e95ef0dd3a3da913d",
      "transactionIndex": "0x4",
      "blockHash": "0xf513815df5251c18fc5b8dd8665fac4008d055aeb593aa3700b3368300aa031c",
      "blockNumber": "0x976137",
      "gasUsed": "0x12a99c",
      "effectiveGasPrice": "0x5c493eb",
      "blobGasPrice": "0x1",
      "from": "0xf39fd6e51aad88f6f4ce6ab8827279cfffb92266",
      "to": "0x0b306bf915c4d645ff596e518faf3f9669b97016",
      "contractAddress": null,
      "root": "0x0000000000000000000000000000000000000000000000000000000000000000"
    }
  ],
  "libraries": [],
  "pending": [],
  "returns": {},
  "timestamp": 1727261682,
  "chain": 59144,
  "commit": "a0c2ae3"
}