{
  "transactions": [
    {
      "hash": "0x6375a989a94898de8b83e025d7990af04bf476ad4fa71c0580f1352dca82c221",
      "transactionType": "CALL",
      "contractName": null,
      "contractAddress": "0xe5d7c2a44ffddf6b295a15c148167daaaf5cf34f",
      "function": "deposit()",
      "arguments": [],
      "transaction": {
        "from": "0xf39fd6e51aad88f6f4ce6ab8827279cfffb92266",
        "to": "0xe5d7c2a44ffddf6b295a15c148167daaaf5cf34f",
        "gas": "0xf2ff",
        "value": "0xde0b6b3a7640000",
        "input": "0xd0e30db0",
        "nonce": "0x1f",
        "chainId": "0xe708"
      },
      "additionalContracts": [],
      "isFixedGasLimit": false
    },
    {
      "hash": "0x86a788e5a5de8bd8c00d618395f7a7a2243a041f2c2a98cc5f5bc03d5962e83c",
      "transactionType": "CALL",
      "contractName": null,
      "contractAddress": "0xe5d7c2a44ffddf6b295a15c148167daaaf5cf34f",
      "function": "approve(address,uint256)",
      "arguments": [
        "0x2d8879046f1559E53eb052E949e9544bCB72f414",
        "115792089237316195423570985008687907853269984665640564039457584007913129639935"
      ],
      "transaction": {
        "from": "0xf39fd6e51aad88f6f4ce6ab8827279cfffb92266",
        "to": "0xe5d7c2a44ffddf6b295a15c148167daaaf5cf34f",
        "gas": "0xfa27",
        "value": "0x0",
        "input": "0x095ea7b30000000000000000000000002d8879046f1559e53eb052e949e9544bcb72f414ffffffffffffffffffffffffffffffffffffffffffffffffffffffffffffffff",
        "nonce": "0x20",
        "chainId": "0xe708"
      },
      "additionalContracts": [],
      "isFixedGasLimit": false
    },
    {
      "hash": "0x89613342299f86d422885a8c4dd5e3099b9645110188431ce3c554cb462f620c",
      "transactionType": "CALL",
      "contractName": null,
      "contractAddress": "0x176211869ca2b568f2a7d4ee941e073a821ee1ff",
      "function": "approve(address,uint256)",
      "arguments": [
        "0x0B306BF915C4d645ff596e518fAf3F9669b97016",
        "115792089237316195423570985008687907853269984665640564039457584007913129639935"
      ],
      "transaction": {
        "from": "0xf39fd6e51aad88f6f4ce6ab8827279cfffb92266",
        "to": "0x176211869ca2b568f2a7d4ee941e073a821ee1ff",
        "gas": "0x144c0",
        "value": "0x0",
        "input": "0x095ea7b30000000000000000000000000b306bf915c4d645ff596e518faf3f9669b97016ffffffffffffffffffffffffffffffffffffffffffffffffffffffffffffffff",
        "nonce": "0x21",
        "chainId": "0xe708"
      },
      "additionalContracts": [],
      "isFixedGasLimit": false
    },
    {
      "hash": "0x3e5764b9014353c7587a5468dd742ef168a98e4955a2fef9ebb94846ab7b80e5",
      "transactionType": "CALL",
      "contractName": null,
      "contractAddress": "0xe5d7c2a44ffddf6b295a15c148167daaaf5cf34f",
      "function": "approve(address,uint256)",
      "arguments": [
        "0x0B306BF915C4d645ff596e518fAf3F9669b97016",
        "115792089237316195423570985008687907853269984665640564039457584007913129639935"
      ],
      "transaction": {
        "from": "0xf39fd6e51aad88f6f4ce6ab8827279cfffb92266",
        "to": "0xe5d7c2a44ffddf6b295a15c148167daaaf5cf34f",
        "gas": "0xfa27",
        "value": "0x0",
        "input": "0x095ea7b30000000000000000000000000b306bf915c4d645ff596e518faf3f9669b97016ffffffffffffffffffffffffffffffffffffffffffffffffffffffffffffffff",
        "nonce": "0x22",
        "chainId": "0xe708"
      },
      "additionalContracts": [],
      "isFixedGasLimit": false
    },
    {
      "hash": "0x846568807377662d11185283909cbf0e36a8ed1d18ac4ccfabea3c7c2977afba",
      "transactionType": "CALL",
      "contractName": null,
      "contractAddress": "0xe5d7c2a44ffddf6b295a15c148167daaaf5cf34f",
      "function": "approve(address,uint256)",
      "arguments": [
        "0x0B306BF915C4d645ff596e518fAf3F9669b97016",
        "115792089237316195423570985008687907853269984665640564039457584007913129639935"
      ],
      "transaction": {
        "from": "0xf39fd6e51aad88f6f4ce6ab8827279cfffb92266",
        "to": "0xe5d7c2a44ffddf6b295a15c148167daaaf5cf34f",
        "gas": "0x8ec9",
        "value": "0x0",
        "input": "0x095ea7b30000000000000000000000000b306bf915c4d645ff596e518faf3f9669b97016ffffffffffffffffffffffffffffffffffffffffffffffffffffffffffffffff",
        "nonce": "0x23",
        "chainId": "0xe708"
      },
      "additionalContracts": [],
      "isFixedGasLimit": false
    },
    {
      "hash": "0x22884ebfcc569b97af8744f6296f70d3ab98a0d05e22cbabbb59050eaf21a51e",
      "transactionType": "CALL",
      "contractName": null,
      "contractAddress": "0x176211869ca2b568f2a7d4ee941e073a821ee1ff",
      "function": "approve(address,uint256)",
      "arguments": [
        "0x0B306BF915C4d645ff596e518fAf3F9669b97016",
        "115792089237316195423570985008687907853269984665640564039457584007913129639935"
      ],
      "transaction": {
        "from": "0xf39fd6e51aad88f6f4ce6ab8827279cfffb92266",
        "to": "0x176211869ca2b568f2a7d4ee941e073a821ee1ff",
        "gas": "0xe62b",
        "value": "0x0",
        "input": "0x095ea7b30000000000000000000000000b306bf915c4d645ff596e518faf3f9669b97016ffffffffffffffffffffffffffffffffffffffffffffffffffffffffffffffff",
        "nonce": "0x24",
        "chainId": "0xe708"
      },
      "additionalContracts": [],
      "isFixedGasLimit": false
    },
    {
      "hash": "0x9c2027c0c2a373ae8496d172d4a7c7cee954db22a03f3ce1c30c6e5a378a8b10",
      "transactionType": "CALL",
      "contractName": null,
      "contractAddress": "0x0b306bf915c4d645ff596e518faf3f9669b97016",
      "function": "createAndAddToPosition((string,address,address),(uint256,uint256,bytes))",
      "arguments": [
        "(\"LONG_BASE_ODOS_ZEROLEND\", 0x176211869cA2b568f2A7D4EE941E073a821EE1ff, 0xe5D7C2a44FfDDf6b295A15c148167daaAf5Cf34f)",
        "(38900000000000000, 306047698, 0x83bd37f90001176211869ca2b568f2a7d4ee941e073a821ee1ff0001e5d7c2a44ffddf6b295a15c148167daaaf5cf34f04123dead208019e7833dde09d60028f5c000156c85a254dd12ee8d9c04049a4ab62769ce982100000000195e297c965863491d74bd8fdf1a0bd33405dc9b60000000003010203000a0101010201ff000000000000000000000000000000000000000000586733678b9ac9da43dd7cb83bbb41d23677dfc3176211869ca2b568f2a7d4ee941e073a821ee1ff000000000000000000000000000000000000000000000000)"
      ],
      "transaction": {
        "from": "0xf39fd6e51aad88f6f4ce6ab8827279cfffb92266",
        "to": "0x0b306bf915c4d645ff596e518faf3f9669b97016",
        "gas": "0x19bd8c",
        "value": "0x0",
        "input": "0x211d9b04000000000000000000000000000000000000000000000000000000000000004000000000000000000000000000000000000000000000000000000000000000e00000000000000000000000000000000000000000000000000000000000000060000000000000000000000000176211869ca2b568f2a7d4ee941e073a821ee1ff000000000000000000000000e5d7c2a44ffddf6b295a15c148167daaaf5cf34f00000000000000000000000000000000000000000000000000000000000000174c4f4e475f424153455f4f444f535f5a45524f4c454e44000000000000000000000000000000000000000000000000000000000000000000008a335809c3400000000000000000000000000000000000000000000000000000000000123dead2000000000000000000000000000000000000000000000000000000000000006000000000000000000000000000000000000000000000000000000000000000d483bd37f90001176211869ca2b568f2a7d4ee941e073a821ee1ff0001e5d7c2a44ffddf6b295a15c148167daaaf5cf34f04123dead208019e7833dde09d60028f5c000156c85a254dd12ee8d9c04049a4ab62769ce982100000000195e297c965863491d74bd8fdf1a0bd33405dc9b60000000003010203000a0101010201ff000000000000000000000000000000000000000000586733678b9ac9da43dd7cb83bbb41d23677dfc3176211869ca2b568f2a7d4ee941e073a821ee1ff000000000000000000000000000000000000000000000000000000000000000000000000",
        "nonce": "0x25",
        "chainId": "0xe708"
      },
      "additionalContracts": [
        {
          "transactionType": "CREATE2",
          "address": "0x95e297c965863491d74bd8fdf1a0bd33405dc9b6",
          "initCode": "0x60a060405234801561001057600080fd5b506040516101d43803806101d483398101604081905261002f9161009a565b6001600160a01b0381166100895760405162461bcd60e51b815260206004820152601e60248201527f496e76616c696420696d706c656d656e746174696f6e20616464726573730000604482015260640160405180910390fd5b6001600160a01b03166080526100ca565b6000602082840312156100ac57600080fd5b81516001600160a01b03811681146100c357600080fd5b9392505050565b60805160ec6100e860003960008181602001526055015260ec6000f3fe608060405260043610601c5760003560e01c80635c60da1b146045575b60437f00000000000000000000000000000000000000000000000000000000000000006093565b005b348015605057600080fd5b5060777f000000000000000000000000000000000000000000000000000000000000000081565b6040516001600160a01b03909116815260200160405180910390f35b3660008037600080366000845af43d6000803e80801560b1573d6000f35b3d6000fdfea2646970667358221220ece5f241c936be627b009529639055436949a725352d983e1257a877a1e6225564736f6c634300081900330000000000000000000000003aa5ebb10dc797cac828524e59a333d0a371443c"
        }
      ],
      "isFixedGasLimit": false
    }
  ],
  "receipts": [
    {
      "status": "0x1",
      "cumulativeGasUsed": "0xafee",
      "logs": [
        {
          "address": "0xe5d7c2a44ffddf6b295a15c148167daaaf5cf34f",
          "topics": [
            "0xe1fffcc4923d04b559f4d29a8bfc6cda04eb5b0d3c460751c2402c5c5cc9109c",
            "0x000000000000000000000000f39fd6e51aad88f6f4ce6ab8827279cfffb92266"
          ],
          "data": "0x0000000000000000000000000000000000000000000000000de0b6b3a7640000",
          "blockHash": "0x0a17d6a515d6e3c3129722cb89155ff620753040c4812126bd441b3daebe6b0d",
          "blockNumber": "0x976dd3",
          "blockTimestamp": "0x66f40518",
          "transactionHash": "0x6375a989a94898de8b83e025d7990af04bf476ad4fa71c0580f1352dca82c221",
          "transactionIndex": "0x0",
          "logIndex": "0x0",
          "removed": false
        }
      ],
      "logsBloom": "0x0000000000000000000000000000000000000000000000000000000000000000000000000000000000000000000000000000000000000000000000000000000000000000000000000000000000000000000000000000000000000000800000000000000000000000000000010000000000000000000000000000000000000000000000000000000000100000000000000000000100000000000000000000000000000000000000000000000000000000000000000000000000000000200000000000000000000020000000000000000000000000a000000000000000000000000000000000000000000000000000000000000000000000400000000000000000",
      "type": "0x2",
      "transactionHash": "0x6375a989a94898de8b83e025d7990af04bf476ad4fa71c0580f1352dca82c221",
      "transactionIndex": "0x0",
      "blockHash": "0x0a17d6a515d6e3c3129722cb89155ff620753040c4812126bd441b3daebe6b0d",
      "blockNumber": "0x976dd3",
      "gasUsed": "0xafee",
      "effectiveGasPrice": "0xcfe6a80",
      "blobGasPrice": "0x1",
      "from": "0xf39fd6e51aad88f6f4ce6ab8827279cfffb92266",
      "to": "0xe5d7c2a44ffddf6b295a15c148167daaaf5cf34f",
      "contractAddress": null,
      "root": "0x0000000000000000000000000000000000000000000000000000000000000000"
    },
    {
      "status": "0x1",
      "cumulativeGasUsed": "0xb51c",
      "logs": [
        {
          "address": "0xe5d7c2a44ffddf6b295a15c148167daaaf5cf34f",
          "topics": [
            "0x8c5be1e5ebec7d5bd14f71427d1e84f3dd0314c0f7b2291e5b200ac8c7c3b925",
            "0x000000000000000000000000f39fd6e51aad88f6f4ce6ab8827279cfffb92266",
            "0x0000000000000000000000002d8879046f1559e53eb052e949e9544bcb72f414"
          ],
          "data": "0xffffffffffffffffffffffffffffffffffffffffffffffffffffffffffffffff",
          "blockHash": "0x9d94dcb97bb59c40483898fcc34b31b3064d004c0a2f92a6f5bd0cc958161aae",
          "blockNumber": "0x976dd4",
          "blockTimestamp": "0x66f40519",
          "transactionHash": "0x86a788e5a5de8bd8c00d618395f7a7a2243a041f2c2a98cc5f5bc03d5962e83c",
          "transactionIndex": "0x0",
          "logIndex": "0x0",
          "removed": false
        }
      ],
      "logsBloom": "0x0000000000000000000000000000000000000000000000000000000000000000000000000000000000001000000000000000000000000000000000000020000000000000000000000000000000000000000000000000000000000000000000000000000000000000008000010000000000000000000000000000000000000000000000000000000000100000000000000000000000000000000000000000000002000000020000000000000000000000000000000000000000000000200000000000000000000020000000000000000000000000a000000000000000000000000010000000000000000000000000000000000000000000000000000000000000",
      "type": "0x2",
      "transactionHash": "0x86a788e5a5de8bd8c00d618395f7a7a2243a041f2c2a98cc5f5bc03d5962e83c",
      "transactionIndex": "0x0",
      "blockHash": "0x9d94dcb97bb59c40483898fcc34b31b3064d004c0a2f92a6f5bd0cc958161aae",
      "blockNumber": "0x976dd4",
      "gasUsed": "0xb51c",
      "effectiveGasPrice": "0xcfe6a80",
      "blobGasPrice": "0x1",
      "from": "0xf39fd6e51aad88f6f4ce6ab8827279cfffb92266",
      "to": "0xe5d7c2a44ffddf6b295a15c148167daaaf5cf34f",
      "contractAddress": null,
      "root": "0x0000000000000000000000000000000000000000000000000000000000000000"
    },
    {
      "status": "0x1",
      "cumulativeGasUsed": "0xeb1e",
      "logs": [
        {
          "address": "0x176211869ca2b568f2a7d4ee941e073a821ee1ff",
          "topics": [
            "0x8c5be1e5ebec7d5bd14f71427d1e84f3dd0314c0f7b2291e5b200ac8c7c3b925",
            "0x000000000000000000000000f39fd6e51aad88f6f4ce6ab8827279cfffb92266",
            "0x0000000000000000000000000b306bf915c4d645ff596e518faf3f9669b97016"
          ],
          "data": "0xffffffffffffffffffffffffffffffffffffffffffffffffffffffffffffffff",
          "blockHash": "0xc8beb89543c12e198cec1e7054b56747769bf7ea0d63114bbf49ad69dbbad708",
          "blockNumber": "0x976dd5",
          "blockTimestamp": "0x66f4051a",
          "transactionHash": "0x89613342299f86d422885a8c4dd5e3099b9645110188431ce3c554cb462f620c",
          "transactionIndex": "0x0",
          "logIndex": "0x0",
          "removed": false
        }
      ],
      "logsBloom": "0x00000000000000000000000000000008000000000000000000000000000000000000000000000000000000000000000000000800000000000004000000200000000000000000000000000000020000000000000000000000000000000000000000000000000000000000000300000000000000000000000000000000000000000000000000000000000000000000000000000000000000000000000000000000020000000000000000000000000000000000000000000000000000000000000000000000000000200000000000000000000000002000000000000000000000000010000000000000000000000400000000000000000000000000000000000000",
      "type": "0x2",
      "transactionHash": "0x89613342299f86d422885a8c4dd5e3099b9645110188431ce3c554cb462f620c",
      "transactionIndex": "0x0",
      "blockHash": "0xc8beb89543c12e198cec1e7054b56747769bf7ea0d63114bbf49ad69dbbad708",
      "blockNumber": "0x976dd5",
      "gasUsed": "0xeb1e",
      "effectiveGasPrice": "0xcfe6a80",
      "blobGasPrice": "0x1",
      "from": "0xf39fd6e51aad88f6f4ce6ab8827279cfffb92266",
      "to": "0x176211869ca2b568f2a7d4ee941e073a821ee1ff",
      "contractAddress": null,
      "root": "0x0000000000000000000000000000000000000000000000000000000000000000"
    },
    {
      "status": "0x1",
      "cumulativeGasUsed": "0xb51c",
      "logs": [
        {
          "address": "0xe5d7c2a44ffddf6b295a15c148167daaaf5cf34f",
          "topics": [
            "0x8c5be1e5ebec7d5bd14f71427d1e84f3dd0314c0f7b2291e5b200ac8c7c3b925",
            "0x000000000000000000000000f39fd6e51aad88f6f4ce6ab8827279cfffb92266",
            "0x0000000000000000000000000b306bf915c4d645ff596e518faf3f9669b97016"
          ],
          "data": "0xffffffffffffffffffffffffffffffffffffffffffffffffffffffffffffffff",
          "blockHash": "0x2abff149afbf69341fc3af4f11b1ad22f1188f68e4e6bf582dd184c7ac2644a0",
          "blockNumber": "0x976dd6",
          "blockTimestamp": "0x66f4051b",
          "transactionHash": "0x3e5764b9014353c7587a5468dd742ef168a98e4955a2fef9ebb94846ab7b80e5",
          "transactionIndex": "0x0",
          "logIndex": "0x0",
          "removed": false
        }
      ],
      "logsBloom": "0x0000000000000000000000000000000800000000000000000000000000000000000000000000000000000000000000000000000000000000000000000020000000000000000000000000000000000000000000000000000000000000000000000000000000000000000000030000000000000000000000000000000000000000000000000000000000100000000000000000000000000000000000000000000002000000000000000000000000000000000000000000000000000000200000000000000000000020000000000000000000000000a000000000000000000000000010000000000000000000000400000000000000000000000000000000000000",
      "type": "0x2",
      "transactionHash": "0x3e5764b9014353c7587a5468dd742ef168a98e4955a2fef9ebb94846ab7b80e5",
      "transactionIndex": "0x0",
      "blockHash": "0x2abff149afbf69341fc3af4f11b1ad22f1188f68e4e6bf582dd184c7ac2644a0",
      "blockNumber": "0x976dd6",
      "gasUsed": "0xb51c",
      "effectiveGasPrice": "0xcfe6a80",
      "blobGasPrice": "0x1",
      "from": "0xf39fd6e51aad88f6f4ce6ab8827279cfffb92266",
      "to": "0xe5d7c2a44ffddf6b295a15c148167daaaf5cf34f",
      "contractAddress": null,
      "root": "0x0000000000000000000000000000000000000000000000000000000000000000"
    },
    {
      "status": "0x1",
      "cumulativeGasUsed": "0x11c7c",
      "logs": [
        {
          "address": "0xe5d7c2a44ffddf6b295a15c148167daaaf5cf34f",
          "topics": [
            "0x8c5be1e5ebec7d5bd14f71427d1e84f3dd0314c0f7b2291e5b200ac8c7c3b925",
            "0x000000000000000000000000f39fd6e51aad88f6f4ce6ab8827279cfffb92266",
            "0x0000000000000000000000000b306bf915c4d645ff596e518faf3f9669b97016"
          ],
          "data": "0xffffffffffffffffffffffffffffffffffffffffffffffffffffffffffffffff",
          "blockHash": "0x2abff149afbf69341fc3af4f11b1ad22f1188f68e4e6bf582dd184c7ac2644a0",
          "blockNumber": "0x976dd6",
          "blockTimestamp": "0x66f4051b",
          "transactionHash": "0x846568807377662d11185283909cbf0e36a8ed1d18ac4ccfabea3c7c2977afba",
          "transactionIndex": "0x1",
          "logIndex": "0x1",
          "removed": false
        }
      ],
      "logsBloom": "0x0000000000000000000000000000000800000000000000000000000000000000000000000000000000000000000000000000000000000000000000000020000000000000000000000000000000000000000000000000000000000000000000000000000000000000000000030000000000000000000000000000000000000000000000000000000000100000000000000000000000000000000000000000000002000000000000000000000000000000000000000000000000000000200000000000000000000020000000000000000000000000a000000000000000000000000010000000000000000000000400000000000000000000000000000000000000",
      "type": "0x2",
      "transactionHash": "0x846568807377662d11185283909cbf0e36a8ed1d18ac4ccfabea3c7c2977afba",
      "transactionIndex": "0x1",
      "blockHash": "0x2abff149afbf69341fc3af4f11b1ad22f1188f68e4e6bf582dd184c7ac2644a0",
      "blockNumber": "0x976dd6",
      "gasUsed": "0x6760",
      "effectiveGasPrice": "0xcfe6a80",
      "blobGasPrice": "0x1",
      "from": "0xf39fd6e51aad88f6f4ce6ab8827279cfffb92266",
      "to": "0xe5d7c2a44ffddf6b295a15c148167daaaf5cf34f",
      "contractAddress": null,
      "root": "0x0000000000000000000000000000000000000000000000000000000000000000"
    },
    {
      "status": "0x1",
      "cumulativeGasUsed": "0x1b9de",
      "logs": [
        {
          "address": "0x176211869ca2b568f2a7d4ee941e073a821ee1ff",
          "topics": [
            "0x8c5be1e5ebec7d5bd14f71427d1e84f3dd0314c0f7b2291e5b200ac8c7c3b925",
            "0x000000000000000000000000f39fd6e51aad88f6f4ce6ab8827279cfffb92266",
            "0x0000000000000000000000000b306bf915c4d645ff596e518faf3f9669b97016"
          ],
          "data": "0xffffffffffffffffffffffffffffffffffffffffffffffffffffffffffffffff",
          "blockHash": "0x2abff149afbf69341fc3af4f11b1ad22f1188f68e4e6bf582dd184c7ac2644a0",
          "blockNumber": "0x976dd6",
          "blockTimestamp": "0x66f4051b",
          "transactionHash": "0x22884ebfcc569b97af8744f6296f70d3ab98a0d05e22cbabbb59050eaf21a51e",
          "transactionIndex": "0x2",
          "logIndex": "0x2",
          "removed": false
        }
      ],
      "logsBloom": "0x00000000000000000000000000000008000000000000000000000000000000000000000000000000000000000000000000000800000000000004000000200000000000000000000000000000020000000000000000000000000000000000000000000000000000000000000300000000000000000000000000000000000000000000000000000000000000000000000000000000000000000000000000000000020000000000000000000000000000000000000000000000000000000000000000000000000000200000000000000000000000002000000000000000000000000010000000000000000000000400000000000000000000000000000000000000",
      "type": "0x2",
      "transactionHash": "0x22884ebfcc569b97af8744f6296f70d3ab98a0d05e22cbabbb59050eaf21a51e",
      "transactionIndex": "0x2",
      "blockHash": "0x2abff149afbf69341fc3af4f11b1ad22f1188f68e4e6bf582dd184c7ac2644a0",
      "blockNumber": "0x976dd6",
      "gasUsed": "0x9d62",
      "effectiveGasPrice": "0xcfe6a80",
      "blobGasPrice": "0x1",
      "from": "0xf39fd6e51aad88f6f4ce6ab8827279cfffb92266",
      "to": "0x176211869ca2b568f2a7d4ee941e073a821ee1ff",
      "contractAddress": null,
      "root": "0x0000000000000000000000000000000000000000000000000000000000000000"
    },
    {
      "status": "0x1",
      "cumulativeGasUsed": "0x145cb5",
      "logs": [
        {
          "address": "0x9a9f2ccfde556a7e9ff0848998aa4a0cfd8863ae",
          "topics": [
            "0xddf252ad1be2c89b69c2b068fc378daa952ba7f163c4a11628f55a4df523b3ef",
            "0x0000000000000000000000000000000000000000000000000000000000000000",
            "0x000000000000000000000000f39fd6e51aad88f6f4ce6ab8827279cfffb92266",
            "0x0000000000000000000000000000000000000000000000000000000000000000"
          ],
          "data": "0x",
          "blockHash": "0x2abff149afbf69341fc3af4f11b1ad22f1188f68e4e6bf582dd184c7ac2644a0",
          "blockNumber": "0x976dd6",
          "blockTimestamp": "0x66f4051b",
          "transactionHash": "0x9c2027c0c2a373ae8496d172d4a7c7cee954db22a03f3ce1c30c6e5a378a8b10",
          "transactionIndex": "0x3",
          "logIndex": "0x3",
          "removed": false
        },
        {
          "address": "0xe5d7c2a44ffddf6b295a15c148167daaaf5cf34f",
          "topics": [
            "0xddf252ad1be2c89b69c2b068fc378daa952ba7f163c4a11628f55a4df523b3ef",
            "0x000000000000000000000000f39fd6e51aad88f6f4ce6ab8827279cfffb92266",
            "0x00000000000000000000000095e297c965863491d74bd8fdf1a0bd33405dc9b6"
          ],
          "data": "0x000000000000000000000000000000000000000000000000008a335809c34000",
          "blockHash": "0x2abff149afbf69341fc3af4f11b1ad22f1188f68e4e6bf582dd184c7ac2644a0",
          "blockNumber": "0x976dd6",
          "blockTimestamp": "0x66f4051b",
          "transactionHash": "0x9c2027c0c2a373ae8496d172d4a7c7cee954db22a03f3ce1c30c6e5a378a8b10",
          "transactionIndex": "0x3",
          "logIndex": "0x4",
          "removed": false
        },
        {
          "address": "0x176211869ca2b568f2a7d4ee941e073a821ee1ff",
          "topics": [
            "0xddf252ad1be2c89b69c2b068fc378daa952ba7f163c4a11628f55a4df523b3ef",
            "0x0000000000000000000000002e207eca8b6bf77a6ac82763eeed2a94de4f081d",
            "0x00000000000000000000000095e297c965863491d74bd8fdf1a0bd33405dc9b6"
          ],
          "data": "0x00000000000000000000000000000000000000000000000000000000123dead2",
          "blockHash": "0x2abff149afbf69341fc3af4f11b1ad22f1188f68e4e6bf582dd184c7ac2644a0",
          "blockNumber": "0x976dd6",
          "blockTimestamp": "0x66f4051b",
          "transactionHash": "0x9c2027c0c2a373ae8496d172d4a7c7cee954db22a03f3ce1c30c6e5a378a8b10",
          "transactionIndex": "0x3",
          "logIndex": "0x5",
          "removed": false
        },
        {
          "address": "0x176211869ca2b568f2a7d4ee941e073a821ee1ff",
          "topics": [
            "0x8c5be1e5ebec7d5bd14f71427d1e84f3dd0314c0f7b2291e5b200ac8c7c3b925",
            "0x00000000000000000000000095e297c965863491d74bd8fdf1a0bd33405dc9b6",
            "0x0000000000000000000000002d8879046f1559e53eb052e949e9544bcb72f414"
          ],
          "data": "0x00000000000000000000000000000000000000000000000000000000123dead2",
          "blockHash": "0x2abff149afbf69341fc3af4f11b1ad22f1188f68e4e6bf582dd184c7ac2644a0",
          "blockNumber": "0x976dd6",
          "blockTimestamp": "0x66f4051b",
          "transactionHash": "0x9c2027c0c2a373ae8496d172d4a7c7cee954db22a03f3ce1c30c6e5a378a8b10",
          "transactionIndex": "0x3",
          "logIndex": "0x6",
          "removed": false
        },
        {
          "address": "0x176211869ca2b568f2a7d4ee941e073a821ee1ff",
          "topics": [
            "0xddf252ad1be2c89b69c2b068fc378daa952ba7f163c4a11628f55a4df523b3ef",
            "0x00000000000000000000000095e297c965863491d74bd8fdf1a0bd33405dc9b6",
            "0x00000000000000000000000056c85a254dd12ee8d9c04049a4ab62769ce98210"
          ],
          "data": "0x00000000000000000000000000000000000000000000000000000000123dead2",
          "blockHash": "0x2abff149afbf69341fc3af4f11b1ad22f1188f68e4e6bf582dd184c7ac2644a0",
          "blockNumber": "0x976dd6",
          "blockTimestamp": "0x66f4051b",
          "transactionHash": "0x9c2027c0c2a373ae8496d172d4a7c7cee954db22a03f3ce1c30c6e5a378a8b10",
          "transactionIndex": "0x3",
          "logIndex": "0x7",
          "removed": false
        },
        {
          "address": "0xe5d7c2a44ffddf6b295a15c148167daaaf5cf34f",
          "topics": [
            "0xddf252ad1be2c89b69c2b068fc378daa952ba7f163c4a11628f55a4df523b3ef",
            "0x000000000000000000000000586733678b9ac9da43dd7cb83bbb41d23677dfc3",
            "0x0000000000000000000000002d8879046f1559e53eb052e949e9544bcb72f414"
          ],
          "data": "0x000000000000000000000000000000000000000000000000019e7833c58f3be5",
          "blockHash": "0x2abff149afbf69341fc3af4f11b1ad22f1188f68e4e6bf582dd184c7ac2644a0",
          "blockNumber": "0x976dd6",
          "blockTimestamp": "0x66f4051b",
          "transactionHash": "0x9c2027c0c2a373ae8496d172d4a7c7cee954db22a03f3ce1c30c6e5a378a8b10",
          "transactionIndex": "0x3",
          "logIndex": "0x8",
          "removed": false
        },
        {
          "address": "0x176211869ca2b568f2a7d4ee941e073a821ee1ff",
          "topics": [
            "0xddf252ad1be2c89b69c2b068fc378daa952ba7f163c4a11628f55a4df523b3ef",
            "0x00000000000000000000000056c85a254dd12ee8d9c04049a4ab62769ce98210",
            "0x000000000000000000000000586733678b9ac9da43dd7cb83bbb41d23677dfc3"
          ],
          "data": "0x00000000000000000000000000000000000000000000000000000000123dead2",
          "blockHash": "0x2abff149afbf69341fc3af4f11b1ad22f1188f68e4e6bf582dd184c7ac2644a0",
          "blockNumber": "0x976dd6",
          "blockTimestamp": "0x66f4051b",
          "transactionHash": "0x9c2027c0c2a373ae8496d172d4a7c7cee954db22a03f3ce1c30c6e5a378a8b10",
          "transactionIndex": "0x3",
          "logIndex": "0x9",
          "removed": false
        },
        {
          "address": "0x586733678b9ac9da43dd7cb83bbb41d23677dfc3",
          "topics": [
            "0x19b47279256b2a23a1665c810c8d55a1758940ee09377d4f8d26497a3577dc83",
            "0x00000000000000000000000056c85a254dd12ee8d9c04049a4ab62769ce98210",
            "0x0000000000000000000000002d8879046f1559e53eb052e949e9544bcb72f414"
          ],
          "data": "0x00000000000000000000000000000000000000000000000000000000123dead2fffffffffffffffffffffffffffffffffffffffffffffffffe6187cc3a70c41b0000000000000000000000000000000000004c434ea0fe094102a13e686752640000000000000000000000000000000000000000000000000073421746dc416500000000000000000000000000000000000000000000000000000000000303dd00000000000000000000000000000000000000000000000000000000000027730000000000000000000000000000000000000000000000000000000000000000",
          "blockHash": "0x2abff149afbf69341fc3af4f11b1ad22f1188f68e4e6bf582dd184c7ac2644a0",
          "blockNumber": "0x976dd6",
          "blockTimestamp": "0x66f4051b",
          "transactionHash": "0x9c2027c0c2a373ae8496d172d4a7c7cee954db22a03f3ce1c30c6e5a378a8b10",
          "transactionIndex": "0x3",
          "logIndex": "0xa",
          "removed": false
        },
        {
          "address": "0xe5d7c2a44ffddf6b295a15c148167daaaf5cf34f",
          "topics": [
            "0xddf252ad1be2c89b69c2b068fc378daa952ba7f163c4a11628f55a4df523b3ef",
            "0x0000000000000000000000002d8879046f1559e53eb052e949e9544bcb72f414",
            "0x00000000000000000000000095e297c965863491d74bd8fdf1a0bd33405dc9b6"
          ],
          "data": "0x000000000000000000000000000000000000000000000000019e7833c58f3be5",
          "blockHash": "0x2abff149afbf69341fc3af4f11b1ad22f1188f68e4e6bf582dd184c7ac2644a0",
          "blockNumber": "0x976dd6",
          "blockTimestamp": "0x66f4051b",
          "transactionHash": "0x9c2027c0c2a373ae8496d172d4a7c7cee954db22a03f3ce1c30c6e5a378a8b10",
          "transactionIndex": "0x3",
          "logIndex": "0xb",
          "removed": false
        },
        {
          "address": "0x2d8879046f1559e53eb052e949e9544bcb72f414",
          "topics": [
            "0x823eaf01002d7353fbcadb2ea3305cc46fa35d799cb0914846d185ac06f8ad05"
          ],
          "data": "0x00000000000000000000000095e297c965863491d74bd8fdf1a0bd33405dc9b600000000000000000000000000000000000000000000000000000000123dead2000000000000000000000000176211869ca2b568f2a7d4ee941e073a821ee1ff000000000000000000000000000000000000000000000000019e7833c58f3be5000000000000000000000000e5d7c2a44ffddf6b295a15c148167daaaf5cf34fffffffffffffffffffffffffffffffffffffffffffffffffffffffffe7ae9e850000000000000000000000000000000000000000000000000000000000000000",
          "blockHash": "0x2abff149afbf69341fc3af4f11b1ad22f1188f68e4e6bf582dd184c7ac2644a0",
          "blockNumber": "0x976dd6",
          "blockTimestamp": "0x66f4051b",
          "transactionHash": "0x9c2027c0c2a373ae8496d172d4a7c7cee954db22a03f3ce1c30c6e5a378a8b10",
          "transactionIndex": "0x3",
          "logIndex": "0xc",
          "removed": false
        },
        {
          "address": "0xe5d7c2a44ffddf6b295a15c148167daaaf5cf34f",
          "topics": [
            "0x8c5be1e5ebec7d5bd14f71427d1e84f3dd0314c0f7b2291e5b200ac8c7c3b925",
            "0x00000000000000000000000095e297c965863491d74bd8fdf1a0bd33405dc9b6",
            "0x0000000000000000000000002f9bb73a8e98793e26cb2f6c4ad037bdf1c6b269"
          ],
          "data": "0x0000000000000000000000000000000000000000000000000228ab8bcf527be5",
          "blockHash": "0x2abff149afbf69341fc3af4f11b1ad22f1188f68e4e6bf582dd184c7ac2644a0",
          "blockNumber": "0x976dd6",
          "blockTimestamp": "0x66f4051b",
          "transactionHash": "0x9c2027c0c2a373ae8496d172d4a7c7cee954db22a03f3ce1c30c6e5a378a8b10",
          "transactionIndex": "0x3",
          "logIndex": "0xd",
          "removed": false
        },
        {
          "address": "0x2f9bb73a8e98793e26cb2f6c4ad037bdf1c6b269",
          "topics": [
            "0x804c9b842b2748a22bb64b345453a3de7ca54a6ca45ce00d415894979e22897a",
            "0x000000000000000000000000e5d7c2a44ffddf6b295a15c148167daaaf5cf34f"
          ],
          "data": "0x0000000000000000000000000000000000000000000c4471a09f7ef2a266519c0000000000000000000000000000000000000000002cd9f21f2ed77b866994770000000000000000000000000000000000000000001bf04586568890a34ca3b4000000000000000000000000000000000000000003531112d59141b27eaf301b000000000000000000000000000000000000000003603c2612bf2de5f3dd8f7c",
          "blockHash": "0x2abff149afbf69341fc3af4f11b1ad22f1188f68e4e6bf582dd184c7ac2644a0",
          "blockNumber": "0x976dd6",
          "blockTimestamp": "0x66f4051b",
          "transactionHash": "0x9c2027c0c2a373ae8496d172d4a7c7cee954db22a03f3ce1c30c6e5a378a8b10",
          "transactionIndex": "0x3",
          "logIndex": "0xe",
          "removed": false
        },
        {
          "address": "0xe5d7c2a44ffddf6b295a15c148167daaaf5cf34f",
          "topics": [
            "0xddf252ad1be2c89b69c2b068fc378daa952ba7f163c4a11628f55a4df523b3ef",
            "0x00000000000000000000000095e297c965863491d74bd8fdf1a0bd33405dc9b6",
            "0x000000000000000000000000b4ffef15daf4c02787bc5332580b838ce39805f5"
          ],
          "data": "0x0000000000000000000000000000000000000000000000000228ab8bcf527be5",
          "blockHash": "0x2abff149afbf69341fc3af4f11b1ad22f1188f68e4e6bf582dd184c7ac2644a0",
          "blockNumber": "0x976dd6",
          "blockTimestamp": "0x66f4051b",
          "transactionHash": "0x9c2027c0c2a373ae8496d172d4a7c7cee954db22a03f3ce1c30c6e5a378a8b10",
          "transactionIndex": "0x3",
          "logIndex": "0xf",
          "removed": false
        },
        {
          "address": "0x28f6899ff643261ca9766ddc251b359a2d00b945",
          "topics": [
            "0x3303facd24627943a92e9dc87cfbb34b15c49b726eec3ad3487c16be9ab8efe8",
            "0x000000000000000000000000b4ffef15daf4c02787bc5332580b838ce39805f5",
            "0x00000000000000000000000040a59a3f3b16d9e74c811d24d8b7969664cfe180",
            "0x00000000000000000000000095e297c965863491d74bd8fdf1a0bd33405dc9b6"
          ],
          "data": "0x000000000000000000000000000000000000000000004a6e6ce87410aa4b5006000000000000000000000000000000000000000000004a6e6ce87410aa4b50060000000000000000000000000000000000000000000000000000000000000000",
          "blockHash": "0x2abff149afbf69341fc3af4f11b1ad22f1188f68e4e6bf582dd184c7ac2644a0",
          "blockNumber": "0x976dd6",
          "blockTimestamp": "0x66f4051b",
          "transactionHash": "0x9c2027c0c2a373ae8496d172d4a7c7cee954db22a03f3ce1c30c6e5a378a8b10",
          "transactionIndex": "0x3",
          "logIndex": "0x10",
          "removed": false
        },
        {
          "address": "0x28f6899ff643261ca9766ddc251b359a2d00b945",
          "topics": [
            "0x3303facd24627943a92e9dc87cfbb34b15c49b726eec3ad3487c16be9ab8efe8",
            "0x000000000000000000000000b4ffef15daf4c02787bc5332580b838ce39805f5",
            "0x00000000000000000000000078354f8dccb269a615a7e0a24f9b0718fdc3c7a7",
            "0x00000000000000000000000095e297c965863491d74bd8fdf1a0bd33405dc9b6"
          ],
          "data": "0x0000000000000000000000000000000000000000000002a1342f31c463957cd80000000000000000000000000000000000000000000002a1342f31c463957cd80000000000000000000000000000000000000000000000000000000000000000",
          "blockHash": "0x2abff149afbf69341fc3af4f11b1ad22f1188f68e4e6bf582dd184c7ac2644a0",
          "blockNumber": "0x976dd6",
          "blockTimestamp": "0x66f4051b",
          "transactionHash": "0x9c2027c0c2a373ae8496d172d4a7c7cee954db22a03f3ce1c30c6e5a378a8b10",
          "transactionIndex": "0x3",
          "logIndex": "0x11",
          "removed": false
        },
        {
          "address": "0xb4ffef15daf4c02787bc5332580b838ce39805f5",
          "topics": [
            "0xddf252ad1be2c89b69c2b068fc378daa952ba7f163c4a11628f55a4df523b3ef",
            "0x0000000000000000000000000000000000000000000000000000000000000000",
            "0x00000000000000000000000095e297c965863491d74bd8fdf1a0bd33405dc9b6"
          ],
          "data": "0x0000000000000000000000000000000000000000000000000228ab8bcf527be5",
          "blockHash": "0x2abff149afbf69341fc3af4f11b1ad22f1188f68e4e6bf582dd184c7ac2644a0",
          "blockNumber": "0x976dd6",
          "blockTimestamp": "0x66f4051b",
          "transactionHash": "0x9c2027c0c2a373ae8496d172d4a7c7cee954db22a03f3ce1c30c6e5a378a8b10",
          "transactionIndex": "0x3",
          "logIndex": "0x12",
          "removed": false
        },
        {
          "address": "0xb4ffef15daf4c02787bc5332580b838ce39805f5",
          "topics": [
            "0x458f5fa412d0f69b08dd84872b0215675cc67bc1d5b6fd93300a1c3878b86196",
            "0x00000000000000000000000095e297c965863491d74bd8fdf1a0bd33405dc9b6",
            "0x00000000000000000000000095e297c965863491d74bd8fdf1a0bd33405dc9b6"
          ],
          "data": "0x0000000000000000000000000000000000000000000000000228ab8bcf527be50000000000000000000000000000000000000000000000000000000000000000000000000000000000000000000000000000000003531112d59141b27eaf301b",
          "blockHash": "0x2abff149afbf69341fc3af4f11b1ad22f1188f68e4e6bf582dd184c7ac2644a0",
          "blockNumber": "0x976dd6",
          "blockTimestamp": "0x66f4051b",
          "transactionHash": "0x9c2027c0c2a373ae8496d172d4a7c7cee954db22a03f3ce1c30c6e5a378a8b10",
          "transactionIndex": "0x3",
          "logIndex": "0x13",
          "removed": false
        },
        {
          "address": "0x2f9bb73a8e98793e26cb2f6c4ad037bdf1c6b269",
          "topics": [
            "0x00058a56ea94653cdf4f152d227ace22d4c00ad99e2a43f58cb7d9e3feb295f2",
            "0x000000000000000000000000e5d7c2a44ffddf6b295a15c148167daaaf5cf34f",
            "0x00000000000000000000000095e297c965863491d74bd8fdf1a0bd33405dc9b6"
          ],
          "data": "0x",
          "blockHash": "0x2abff149afbf69341fc3af4f11b1ad22f1188f68e4e6bf582dd184c7ac2644a0",
          "blockNumber": "0x976dd6",
          "blockTimestamp": "0x66f4051b",
          "transactionHash": "0x9c2027c0c2a373ae8496d172d4a7c7cee954db22a03f3ce1c30c6e5a378a8b10",
          "transactionIndex": "0x3",
          "logIndex": "0x14",
          "removed": false
        },
        {
          "address": "0x2f9bb73a8e98793e26cb2f6c4ad037bdf1c6b269",
          "topics": [
            "0x2b627736bca15cd5381dcf80b0bf11fd197d01a037c52b927a881a10fb73ba61",
            "0x000000000000000000000000e5d7c2a44ffddf6b295a15c148167daaaf5cf34f",
            "0x00000000000000000000000095e297c965863491d74bd8fdf1a0bd33405dc9b6",
            "0x0000000000000000000000000000000000000000000000000000000000000000"
          ],
          "data": "0x00000000000000000000000095e297c965863491d74bd8fdf1a0bd33405dc9b60000000000000000000000000000000000000000000000000228ab8bcf527be5",
          "blockHash": "0x2abff149afbf69341fc3af4f11b1ad22f1188f68e4e6bf582dd184c7ac2644a0",
          "blockNumber": "0x976dd6",
          "blockTimestamp": "0x66f4051b",
          "transactionHash": "0x9c2027c0c2a373ae8496d172d4a7c7cee954db22a03f3ce1c30c6e5a378a8b10",
          "transactionIndex": "0x3",
          "logIndex": "0x15",
          "removed": false
        },
        {
          "address": "0x28f6899ff643261ca9766ddc251b359a2d00b945",
          "topics": [
            "0x3303facd24627943a92e9dc87cfbb34b15c49b726eec3ad3487c16be9ab8efe8",
            "0x000000000000000000000000a2703dc9fbaccd6ec2e4cbfa700989d0238133f6",
            "0x00000000000000000000000040a59a3f3b16d9e74c811d24d8b7969664cfe180",
            "0x00000000000000000000000095e297c965863491d74bd8fdf1a0bd33405dc9b6"
          ],
          "data": "0x0000000000000000000000000000000000000000000000053f69899e410bb3ed0000000000000000000000000000000000000000000000053f69899e410bb3ed0000000000000000000000000000000000000000000000000000000000000000",
          "blockHash": "0x2abff149afbf69341fc3af4f11b1ad22f1188f68e4e6bf582dd184c7ac2644a0",
          "blockNumber": "0x976dd6",
          "blockTimestamp": "0x66f4051b",
          "transactionHash": "0x9c2027c0c2a373ae8496d172d4a7c7cee954db22a03f3ce1c30c6e5a378a8b10",
          "transactionIndex": "0x3",
          "logIndex": "0x16",
          "removed": false
        },
        {
          "address": "0x28f6899ff643261ca9766ddc251b359a2d00b945",
          "topics": [
            "0x3303facd24627943a92e9dc87cfbb34b15c49b726eec3ad3487c16be9ab8efe8",
            "0x000000000000000000000000a2703dc9fbaccd6ec2e4cbfa700989d0238133f6",
            "0x00000000000000000000000078354f8dccb269a615a7e0a24f9b0718fdc3c7a7",
            "0x00000000000000000000000095e297c965863491d74bd8fdf1a0bd33405dc9b6"
          ],
          "data": "0x0000000000000000000000000000000000000000000000019d5619cdc3c0cc480000000000000000000000000000000000000000000000019d5619cdc3c0cc480000000000000000000000000000000000000000000000000000000000000000",
          "blockHash": "0x2abff149afbf69341fc3af4f11b1ad22f1188f68e4e6bf582dd184c7ac2644a0",
          "blockNumber": "0x976dd6",
          "blockTimestamp": "0x66f4051b",
          "transactionHash": "0x9c2027c0c2a373ae8496d172d4a7c7cee954db22a03f3ce1c30c6e5a378a8b10",
          "transactionIndex": "0x3",
          "logIndex": "0x17",
          "removed": false
        },
        {
          "address": "0xa2703dc9fbaccd6ec2e4cbfa700989d0238133f6",
          "topics": [
            "0xddf252ad1be2c89b69c2b068fc378daa952ba7f163c4a11628f55a4df523b3ef",
            "0x0000000000000000000000000000000000000000000000000000000000000000",
            "0x00000000000000000000000095e297c965863491d74bd8fdf1a0bd33405dc9b6"
          ],
          "data": "0x0000000000000000000000000000000000000000000000000000000012404092",
          "blockHash": "0x2abff149afbf69341fc3af4f11b1ad22f1188f68e4e6bf582dd184c7ac2644a0",
          "blockNumber": "0x976dd6",
          "blockTimestamp": "0x66f4051b",
          "transactionHash": "0x9c2027c0c2a373ae8496d172d4a7c7cee954db22a03f3ce1c30c6e5a378a8b10",
          "transactionIndex": "0x3",
          "logIndex": "0x18",
          "removed": false
        },
        {
          "address": "0xa2703dc9fbaccd6ec2e4cbfa700989d0238133f6",
          "topics": [
            "0x458f5fa412d0f69b08dd84872b0215675cc67bc1d5b6fd93300a1c3878b86196",
            "0x00000000000000000000000095e297c965863491d74bd8fdf1a0bd33405dc9b6",
            "0x00000000000000000000000095e297c965863491d74bd8fdf1a0bd33405dc9b6"
          ],
          "data": "0x000000000000000000000000000000000000000000000000000000001240409200000000000000000000000000000000000000000000000000000000000000000000000000000000000000000000000000000000036db4e2a1114af68c389dca",
          "blockHash": "0x2abff149afbf69341fc3af4f11b1ad22f1188f68e4e6bf582dd184c7ac2644a0",
          "blockNumber": "0x976dd6",
          "blockTimestamp": "0x66f4051b",
          "transactionHash": "0x9c2027c0c2a373ae8496d172d4a7c7cee954db22a03f3ce1c30c6e5a378a8b10",
          "transactionIndex": "0x3",
          "logIndex": "0x19",
          "removed": false
        },
        {
          "address": "0x2f9bb73a8e98793e26cb2f6c4ad037bdf1c6b269",
          "topics": [
            "0x804c9b842b2748a22bb64b345453a3de7ca54a6ca45ce00d415894979e22897a",
            "0x000000000000000000000000176211869ca2b568f2a7d4ee941e073a821ee1ff"
          ],
          "data": "0x000000000000000000000000000000000000000000302da71523c15b13f0ce410000000000000000000000000000000000000000005de19ac67e29f78e56e33a00000000000000000000000000000000000000000051793b2560280b1f56e33a0000000000000000000000000000000000000000035efbdfe296cda6e30206580000000000000000000000000000000000000000036db4e2a1114af68c389dca",
          "blockHash": "0x2abff149afbf69341fc3af4f11b1ad22f1188f68e4e6bf582dd184c7ac2644a0",
          "blockNumber": "0x976dd6",
          "blockTimestamp": "0x66f4051b",
          "transactionHash": "0x9c2027c0c2a373ae8496d172d4a7c7cee954db22a03f3ce1c30c6e5a378a8b10",
          "transactionIndex": "0x3",
          "logIndex": "0x1a",
          "removed": false
        },
        {
          "address": "0x176211869ca2b568f2a7d4ee941e073a821ee1ff",
          "topics": [
            "0xddf252ad1be2c89b69c2b068fc378daa952ba7f163c4a11628f55a4df523b3ef",
            "0x0000000000000000000000002e207eca8b6bf77a6ac82763eeed2a94de4f081d",
            "0x00000000000000000000000095e297c965863491d74bd8fdf1a0bd33405dc9b6"
          ],
          "data": "0x0000000000000000000000000000000000000000000000000000000012404092",
          "blockHash": "0x2abff149afbf69341fc3af4f11b1ad22f1188f68e4e6bf582dd184c7ac2644a0",
          "blockNumber": "0x976dd6",
          "blockTimestamp": "0x66f4051b",
          "transactionHash": "0x9c2027c0c2a373ae8496d172d4a7c7cee954db22a03f3ce1c30c6e5a378a8b10",
          "transactionIndex": "0x3",
          "logIndex": "0x1b",
          "removed": false
        },
        {
          "address": "0x2f9bb73a8e98793e26cb2f6c4ad037bdf1c6b269",
          "topics": [
            "0xb3d084820fb1a9decffb176436bd02558d15fac9b0ddfed8c465bc7359d7dce0",
            "0x000000000000000000000000176211869ca2b568f2a7d4ee941e073a821ee1ff",
            "0x00000000000000000000000095e297c965863491d74bd8fdf1a0bd33405dc9b6",
            "0x0000000000000000000000000000000000000000000000000000000000000000"
          ],
          "data": "0x00000000000000000000000095e297c965863491d74bd8fdf1a0bd33405dc9b60000000000000000000000000000000000000000000000000000000012404092000000000000000000000000000000000000000000000000000000000000000200000000000000000000000000000000000000000051793b2560280b1f56e33a",
          "blockHash": "0x2abff149afbf69341fc3af4f11b1ad22f1188f68e4e6bf582dd184c7ac2644a0",
          "blockNumber": "0x976dd6",
          "blockTimestamp": "0x66f4051b",
          "transactionHash": "0x9c2027c0c2a373ae8496d172d4a7c7cee954db22a03f3ce1c30c6e5a378a8b10",
          "transactionIndex": "0x3",
          "logIndex": "0x1c",
          "removed": false
        },
        {
          "address": "0x176211869ca2b568f2a7d4ee941e073a821ee1ff",
          "topics": [
            "0x8c5be1e5ebec7d5bd14f71427d1e84f3dd0314c0f7b2291e5b200ac8c7c3b925",
            "0x00000000000000000000000095e297c965863491d74bd8fdf1a0bd33405dc9b6",
            "0x0000000000000000000000002f9bb73a8e98793e26cb2f6c4ad037bdf1c6b269"
          ],
          "data": "0x0000000000000000000000000000000000000000000000000000000012404092",
          "blockHash": "0x2abff149afbf69341fc3af4f11b1ad22f1188f68e4e6bf582dd184c7ac2644a0",
          "blockNumber": "0x976dd6",
          "blockTimestamp": "0x66f4051b",
          "transactionHash": "0x9c2027c0c2a373ae8496d172d4a7c7cee954db22a03f3ce1c30c6e5a378a8b10",
          "transactionIndex": "0x3",
          "logIndex": "0x1d",
          "removed": false
        },
        {
          "address": "0x176211869ca2b568f2a7d4ee941e073a821ee1ff",
          "topics": [
            "0x8c5be1e5ebec7d5bd14f71427d1e84f3dd0314c0f7b2291e5b200ac8c7c3b925",
            "0x00000000000000000000000095e297c965863491d74bd8fdf1a0bd33405dc9b6",
            "0x0000000000000000000000002f9bb73a8e98793e26cb2f6c4ad037bdf1c6b269"
          ],
          "data": "0x0000000000000000000000000000000000000000000000000000000000000000",
          "blockHash": "0x2abff149afbf69341fc3af4f11b1ad22f1188f68e4e6bf582dd184c7ac2644a0",
          "blockNumber": "0x976dd6",
          "blockTimestamp": "0x66f4051b",
          "transactionHash": "0x9c2027c0c2a373ae8496d172d4a7c7cee954db22a03f3ce1c30c6e5a378a8b10",
          "transactionIndex": "0x3",
          "logIndex": "0x1e",
          "removed": false
        },
        {
          "address": "0x176211869ca2b568f2a7d4ee941e073a821ee1ff",
          "topics": [
            "0x8c5be1e5ebec7d5bd14f71427d1e84f3dd0314c0f7b2291e5b200ac8c7c3b925",
            "0x00000000000000000000000095e297c965863491d74bd8fdf1a0bd33405dc9b6",
            "0x0000000000000000000000002d8879046f1559e53eb052e949e9544bcb72f414"
          ],
          "data": "0x0000000000000000000000000000000000000000000000000000000000000000",
          "blockHash": "0x2abff149afbf69341fc3af4f11b1ad22f1188f68e4e6bf582dd184c7ac2644a0",
          "blockNumber": "0x976dd6",
          "blockTimestamp": "0x66f4051b",
          "transactionHash": "0x9c2027c0c2a373ae8496d172d4a7c7cee954db22a03f3ce1c30c6e5a378a8b10",
          "transactionIndex": "0x3",
          "logIndex": "0x1f",
          "removed": false
        },
        {
          "address": "0xe5d7c2a44ffddf6b295a15c148167daaaf5cf34f",
          "topics": [
            "0x8c5be1e5ebec7d5bd14f71427d1e84f3dd0314c0f7b2291e5b200ac8c7c3b925",
            "0x00000000000000000000000095e297c965863491d74bd8fdf1a0bd33405dc9b6",
            "0x0000000000000000000000002f9bb73a8e98793e26cb2f6c4ad037bdf1c6b269"
          ],
          "data": "0x0000000000000000000000000000000000000000000000000000000000000000",
          "blockHash": "0x2abff149afbf69341fc3af4f11b1ad22f1188f68e4e6bf582dd184c7ac2644a0",
          "blockNumber": "0x976dd6",
          "blockTimestamp": "0x66f4051b",
          "transactionHash": "0x9c2027c0c2a373ae8496d172d4a7c7cee954db22a03f3ce1c30c6e5a378a8b10",
          "transactionIndex": "0x3",
          "logIndex": "0x20",
          "removed": false
        },
        {
          "address": "0x176211869ca2b568f2a7d4ee941e073a821ee1ff",
          "topics": [
            "0x8c5be1e5ebec7d5bd14f71427d1e84f3dd0314c0f7b2291e5b200ac8c7c3b925",
            "0x00000000000000000000000095e297c965863491d74bd8fdf1a0bd33405dc9b6",
            "0x0000000000000000000000002f9bb73a8e98793e26cb2f6c4ad037bdf1c6b269"
          ],
          "data": "0x0000000000000000000000000000000000000000000000000000000012404092",
          "blockHash": "0x2abff149afbf69341fc3af4f11b1ad22f1188f68e4e6bf582dd184c7ac2644a0",
          "blockNumber": "0x976dd6",
          "blockTimestamp": "0x66f4051b",
          "transactionHash": "0x9c2027c0c2a373ae8496d172d4a7c7cee954db22a03f3ce1c30c6e5a378a8b10",
          "transactionIndex": "0x3",
          "logIndex": "0x21",
          "removed": false
        },
        {
          "address": "0x2f9bb73a8e98793e26cb2f6c4ad037bdf1c6b269",
          "topics": [
            "0x804c9b842b2748a22bb64b345453a3de7ca54a6ca45ce00d415894979e22897a",
            "0x000000000000000000000000176211869ca2b568f2a7d4ee941e073a821ee1ff"
          ],
          "data": "0x000000000000000000000000000000000000000000301a66e24b29afcaaa0e3d0000000000000000000000000000000000000000005dc1a046c74533930fcf30000000000000000000000000000000000000000000515940a5a94347240fcf300000000000000000000000000000000000000000035efbe0aab07b36f49a81ce0000000000000000000000000000000000000000036db4e2a1114af68c389dca",
          "blockHash": "0x2abff149afbf69341fc3af4f11b1ad22f1188f68e4e6bf582dd184c7ac2644a0",
          "blockNumber": "0x976dd6",
          "blockTimestamp": "0x66f4051b",
          "transactionHash": "0x9c2027c0c2a373ae8496d172d4a7c7cee954db22a03f3ce1c30c6e5a378a8b10",
          "transactionIndex": "0x3",
          "logIndex": "0x22",
          "removed": false
        },
        {
          "address": "0x176211869ca2b568f2a7d4ee941e073a821ee1ff",
          "topics": [
            "0xddf252ad1be2c89b69c2b068fc378daa952ba7f163c4a11628f55a4df523b3ef",
            "0x00000000000000000000000095e297c965863491d74bd8fdf1a0bd33405dc9b6",
            "0x0000000000000000000000002e207eca8b6bf77a6ac82763eeed2a94de4f081d"
          ],
          "data": "0x0000000000000000000000000000000000000000000000000000000012404092",
          "blockHash": "0x2abff149afbf69341fc3af4f11b1ad22f1188f68e4e6bf582dd184c7ac2644a0",
          "blockNumber": "0x976dd6",
          "blockTimestamp": "0x66f4051b",
          "transactionHash": "0x9c2027c0c2a373ae8496d172d4a7c7cee954db22a03f3ce1c30c6e5a378a8b10",
          "transactionIndex": "0x3",
          "logIndex": "0x23",
          "removed": false
        },
        {
          "address": "0x2f9bb73a8e98793e26cb2f6c4ad037bdf1c6b269",
          "topics": [
            "0xefefaba5e921573100900a3ad9cf29f222d995fb3b6045797eaea7521bd8d6f0",
            "0x00000000000000000000000095e297c965863491d74bd8fdf1a0bd33405dc9b6",
            "0x000000000000000000000000176211869ca2b568f2a7d4ee941e073a821ee1ff",
            "0x0000000000000000000000000000000000000000000000000000000000000000"
          ],
          "data": "0x00000000000000000000000095e297c965863491d74bd8fdf1a0bd33405dc9b600000000000000000000000000000000000000000000000000000000123dead2000000000000000000000000000000000000000000000000000000000000000000000000000000000000000000000000000000000000000000000000000255c0",
          "blockHash": "0x2abff149afbf69341fc3af4f11b1ad22f1188f68e4e6bf582dd184c7ac2644a0",
          "blockNumber": "0x976dd6",
          "blockTimestamp": "0x66f4051b",
          "transactionHash": "0x9c2027c0c2a373ae8496d172d4a7c7cee954db22a03f3ce1c30c6e5a378a8b10",
          "transactionIndex": "0x3",
          "logIndex": "0x24",
          "removed": false
        }
      ],
      "logsBloom": "0x00000000004009040080000000000000008000004000000000000000000000000800a0002000080000001000000600000010080040100014000401000020000004000020004000000008000802000000204000000000000200000004004000000080000202000000008000012000080180400000120000000100001020040000000002008000000800100004000000000000000000000000008000040000004002080000020000040000000002000010000000000010080100000000a00001000250000208000320000200204000000000020000a0000e0000000000000020000010200000008020000000000001000040000000000002000000400000100000",
      "type": "0x2",
      "transactionHash": "0x9c2027c0c2a373ae8496d172d4a7c7cee954db22a03f3ce1c30c6e5a378a8b10",
      "transactionIndex": "0x3",
      "blockHash": "0x2abff149afbf69341fc3af4f11b1ad22f1188f68e4e6bf582dd184c7ac2644a0",
      "blockNumber": "0x976dd6",
      "gasUsed": "0x12a2d7",
      "effectiveGasPrice": "0xcfe6a80",
      "blobGasPrice": "0x1",
      "from": "0xf39fd6e51aad88f6f4ce6ab8827279cfffb92266",
      "to": "0x0b306bf915c4d645ff596e518faf3f9669b97016",
      "contractAddress": null,
      "root": "0x0000000000000000000000000000000000000000000000000000000000000000"
    }
  ],
  "libraries": [],
  "pending": [],
  "returns": {},
  "timestamp": 1727268121,
  "chain": 59144,
  "commit": "a0c2ae3"
}