{
  "transactions": [
    {
      "hash": "0x8753a850dac494f3a368a54b79b2a097fdea8786e48fb34d1f4953a949256dc9",
      "transactionType": "CALL",
      "contractName": null,
      "contractAddress": "0xe5d7c2a44ffddf6b295a15c148167daaaf5cf34f",
      "function": "approve(address,uint256)",
      "arguments": [
        "0x0B306BF915C4d645ff596e518fAf3F9669b97016",
        "115792089237316195423570985008687907853269984665640564039457584007913129639935"
      ],
      "transaction": {
        "from": "0xf39fd6e51aad88f6f4ce6ab8827279cfffb92266",
        "to": "0xe5d7c2a44ffddf6b295a15c148167daaaf5cf34f",
        "gas": "0xfa27",
        "value": "0x0",
        "input": "0x095ea7b30000000000000000000000000b306bf915c4d645ff596e518faf3f9669b97016ffffffffffffffffffffffffffffffffffffffffffffffffffffffffffffffff",
        "nonce": "0x23",
        "chainId": "0xe708"
      },
      "additionalContracts": [],
      "isFixedGasLimit": false
    },
    {
      "hash": "0x73c896ef759197893c9595ecdb773d0685658941b445aeaba1d6c01be06fee1b",
      "transactionType": "CALL",
      "contractName": null,
      "contractAddress": "0x176211869ca2b568f2a7d4ee941e073a821ee1ff",
      "function": "approve(address,uint256)",
      "arguments": [
        "0x0B306BF915C4d645ff596e518fAf3F9669b97016",
        "115792089237316195423570985008687907853269984665640564039457584007913129639935"
      ],
      "transaction": {
        "from": "0xf39fd6e51aad88f6f4ce6ab8827279cfffb92266",
        "to": "0x176211869ca2b568f2a7d4ee941e073a821ee1ff",
        "gas": "0xe62b",
        "value": "0x0",
        "input": "0x095ea7b30000000000000000000000000b306bf915c4d645ff596e518faf3f9669b97016ffffffffffffffffffffffffffffffffffffffffffffffffffffffffffffffff",
        "nonce": "0x24",
        "chainId": "0xe708"
      },
      "additionalContracts": [],
      "isFixedGasLimit": false
    },
    {
      "hash": "0x6773725b8189172356c024b9ad3ec13006d7f642674ddcd4f15a8be966999ab5",
      "transactionType": "CALL",
      "contractName": null,
      "contractAddress": "0x0b306bf915c4d645ff596e518faf3f9669b97016",
      "function": "createAndAddToPosition((string,address,address),(uint256,uint256,bytes))",
      "arguments": [
        "(\"SHORT_QUOTE_ODOS_ZEROLEND\", 0x176211869cA2b568f2A7D4EE941E073a821EE1ff, 0xe5D7C2a44FfDDf6b295A15c148167daaAf5Cf34f)",
        "(100000000, 82511259809248720, 0x83bd37f90001e5d7c2a44ffddf6b295a15c148167daaaf5cf34f0001176211869ca2b568f2a7d4ee941e073a821ee1ff080125238dbae675d0040be9ed2d028f5c000156c85a254dd12ee8d9c04049a4ab62769ce982100001dded227d71a096c6b5d87807c1b5c456771aaa9400019d1794bab9664c755ed74a7d44f3da02a5613df4000000000301020300100101000102ff000000000000000000000000000000000000000000dded227d71a096c6b5d87807c1b5c456771aaa94e5d7c2a44ffddf6b295a15c148167daaaf5cf34f000000000000000000000000000000000000000000000000)"
      ],
      "transaction": {
        "from": "0xf39fd6e51aad88f6f4ce6ab8827279cfffb92266",
        "to": "0x0b306bf915c4d645ff596e518faf3f9669b97016",
        "gas": "0x198ca6",
        "value": "0x0",
        "input": "0x211d9b04000000000000000000000000000000000000000000000000000000000000004000000000000000000000000000000000000000000000000000000000000000e00000000000000000000000000000000000000000000000000000000000000060000000000000000000000000176211869ca2b568f2a7d4ee941e073a821ee1ff000000000000000000000000e5d7c2a44ffddf6b295a15c148167daaaf5cf34f000000000000000000000000000000000000000000000000000000000000001953484f52545f51554f54455f4f444f535f5a45524f4c454e44000000000000000000000000000000000000000000000000000000000000000000000005f5e1000000000000000000000000000000000000000000000000000125238dbae675d0000000000000000000000000000000000000000000000000000000000000006000000000000000000000000000000000000000000000000000000000000000e883bd37f90001e5d7c2a44ffddf6b295a15c148167daaaf5cf34f0001176211869ca2b568f2a7d4ee941e073a821ee1ff080125238dbae675d0040be9ed2d028f5c000156c85a254dd12ee8d9c04049a4ab62769ce982100001dded227d71a096c6b5d87807c1b5c456771aaa9400019d1794bab9664c755ed74a7d44f3da02a5613df4000000000301020300100101000102ff000000000000000000000000000000000000000000dded227d71a096c6b5d87807c1b5c456771aaa94e5d7c2a44ffddf6b295a15c148167daaaf5cf34f000000000000000000000000000000000000000000000000000000000000000000000000000000000000000000000000",
        "nonce": "0x25",
        "chainId": "0xe708"
      },
      "additionalContracts": [
        {
          "transactionType": "CREATE2",
          "address": "0x9d1794bab9664c755ed74a7d44f3da02a5613df4",
          "initCode": "0x60a060405234801561001057600080fd5b506040516101d43803806101d483398101604081905261002f9161009a565b6001600160a01b0381166100895760405162461bcd60e51b815260206004820152601e60248201527f496e76616c696420696d706c656d656e746174696f6e20616464726573730000604482015260640160405180910390fd5b6001600160a01b03166080526100ca565b6000602082840312156100ac57600080fd5b81516001600160a01b03811681146100c357600080fd5b9392505050565b60805160ec6100e860003960008181602001526055015260ec6000f3fe608060405260043610601c5760003560e01c80635c60da1b146045575b60437f00000000000000000000000000000000000000000000000000000000000000006093565b005b348015605057600080fd5b5060777f000000000000000000000000000000000000000000000000000000000000000081565b6040516001600160a01b03909116815260200160405180910390f35b3660008037600080366000845af43d6000803e80801560b1573d6000f35b3d6000fdfea2646970667358221220f6020ed423ab8c3633806cc507ff73ce07ea9bade45f63874f1be7c04b23516364736f6c634300081a0033000000000000000000000000c6e7df5e7b4f2a278906862b61205850344d4e7d"
        }
      ],
      "isFixedGasLimit": false
    }
  ],
  "receipts": [
    {
      "status": "0x1",
      "cumulativeGasUsed": "0xb51c",
      "logs": [
        {
          "address": "0xe5d7c2a44ffddf6b295a15c148167daaaf5cf34f",
          "topics": [
            "0x8c5be1e5ebec7d5bd14f71427d1e84f3dd0314c0f7b2291e5b200ac8c7c3b925",
            "0x000000000000000000000000f39fd6e51aad88f6f4ce6ab8827279cfffb92266",
            "0x0000000000000000000000000b306bf915c4d645ff596e518faf3f9669b97016"
          ],
          "data": "0xffffffffffffffffffffffffffffffffffffffffffffffffffffffffffffffff",
          "blockHash": "0xf85c45091dc16ef7e27481da17ed27f8ed13fc847a55b0052f2ceda6eac3623b",
          "blockNumber": "0x9003e8",
          "blockTimestamp": "0x66e51fe8",
          "transactionHash": "0x8753a850dac494f3a368a54b79b2a097fdea8786e48fb34d1f4953a949256dc9",
          "transactionIndex": "0x0",
          "logIndex": "0x0",
          "removed": false
        }
      ],
      "logsBloom": "0x0000000000000000000000000000000800000000000000000000000000000000000000000000000000000000000000000000000000000000000000000020000000000000000000000000000000000000000000000000000000000000000000000000000000000000000000030000000000000000000000000000000000000000000000000000000000100000000000000000000000000000000000000000000002000000000000000000000000000000000000000000000000000000200000000000000000000020000000000000000000000000a000000000000000000000000010000000000000000000000400000000000000000000000000000000000000",
      "type": "0x2",
      "transactionHash": "0x8753a850dac494f3a368a54b79b2a097fdea8786e48fb34d1f4953a949256dc9",
      "transactionIndex": "0x0",
      "blockHash": "0xf85c45091dc16ef7e27481da17ed27f8ed13fc847a55b0052f2ceda6eac3623b",
      "blockNumber": "0x9003e8",
      "gasUsed": "0xb51c",
      "effectiveGasPrice": "0x3938707",
      "blobGasPrice": "0x1",
      "from": "0xf39fd6e51aad88f6f4ce6ab8827279cfffb92266",
      "to": "0xe5d7c2a44ffddf6b295a15c148167daaaf5cf34f",
      "contractAddress": null,
      "root": "0x0000000000000000000000000000000000000000000000000000000000000000"
    },
    {
      "status": "0x1",
      "cumulativeGasUsed": "0x9d62",
      "logs": [
        {
          "address": "0x176211869ca2b568f2a7d4ee941e073a821ee1ff",
          "topics": [
            "0x8c5be1e5ebec7d5bd14f71427d1e84f3dd0314c0f7b2291e5b200ac8c7c3b925",
            "0x000000000000000000000000f39fd6e51aad88f6f4ce6ab8827279cfffb92266",
            "0x0000000000000000000000000b306bf915c4d645ff596e518faf3f9669b97016"
          ],
          "data": "0xffffffffffffffffffffffffffffffffffffffffffffffffffffffffffffffff",
          "blockHash": "0xbdb40f60240c3a5b98d8f018e4dd133c924f28205795f5555ae90eb4d88fd616",
          "blockNumber": "0x9003e9",
          "blockTimestamp": "0x66e51fe9",
          "transactionHash": "0x73c896ef759197893c9595ecdb773d0685658941b445aeaba1d6c01be06fee1b",
          "transactionIndex": "0x0",
          "logIndex": "0x0",
          "removed": false
        }
      ],
      "logsBloom": "0x00000000000000000000000000000008000000000000000000000000000000000000000000000000000000000000000000000800000000000004000000200000000000000000000000000000020000000000000000000000000000000000000000000000000000000000000300000000000000000000000000000000000000000000000000000000000000000000000000000000000000000000000000000000020000000000000000000000000000000000000000000000000000000000000000000000000000200000000000000000000000002000000000000000000000000010000000000000000000000400000000000000000000000000000000000000",
      "type": "0x2",
      "transactionHash": "0x73c896ef759197893c9595ecdb773d0685658941b445aeaba1d6c01be06fee1b",
      "transactionIndex": "0x0",
      "blockHash": "0xbdb40f60240c3a5b98d8f018e4dd133c924f28205795f5555ae90eb4d88fd616",
      "blockNumber": "0x9003e9",
      "gasUsed": "0x9d62",
      "effectiveGasPrice": "0x3938707",
      "blobGasPrice": "0x1",
      "from": "0xf39fd6e51aad88f6f4ce6ab8827279cfffb92266",
      "to": "0x176211869ca2b568f2a7d4ee941e073a821ee1ff",
      "contractAddress": null,
      "root": "0x0000000000000000000000000000000000000000000000000000000000000000"
    },
    {
      "status": "0x1",
      "cumulativeGasUsed": "0x1282c1",
      "logs": [
        {
          "address": "0x9a9f2ccfde556a7e9ff0848998aa4a0cfd8863ae",
          "topics": [
            "0xddf252ad1be2c89b69c2b068fc378daa952ba7f163c4a11628f55a4df523b3ef",
            "0x0000000000000000000000000000000000000000000000000000000000000000",
            "0x000000000000000000000000f39fd6e51aad88f6f4ce6ab8827279cfffb92266",
            "0x0000000000000000000000000000000000000000000000000000000000000000"
          ],
          "data": "0x",
          "blockHash": "0xf3bc91cefaa571c1a9551ab82fbf79ba64b83662c8ee4ad198b619541edf4e8c",
          "blockNumber": "0x9003ea",
          "blockTimestamp": "0x66e51fea",
          "transactionHash": "0x6773725b8189172356c024b9ad3ec13006d7f642674ddcd4f15a8be966999ab5",
          "transactionIndex": "0x0",
          "logIndex": "0x0",
          "removed": false
        },
        {
          "address": "0x176211869ca2b568f2a7d4ee941e073a821ee1ff",
          "topics": [
            "0xddf252ad1be2c89b69c2b068fc378daa952ba7f163c4a11628f55a4df523b3ef",
            "0x000000000000000000000000f39fd6e51aad88f6f4ce6ab8827279cfffb92266",
            "0x0000000000000000000000009d1794bab9664c755ed74a7d44f3da02a5613df4"
          ],
          "data": "0x0000000000000000000000000000000000000000000000000000000005f5e100",
          "blockHash": "0xf3bc91cefaa571c1a9551ab82fbf79ba64b83662c8ee4ad198b619541edf4e8c",
          "blockNumber": "0x9003ea",
          "blockTimestamp": "0x66e51fea",
          "transactionHash": "0x6773725b8189172356c024b9ad3ec13006d7f642674ddcd4f15a8be966999ab5",
          "transactionIndex": "0x0",
          "logIndex": "0x1",
          "removed": false
        },
        {
          "address": "0xe5d7c2a44ffddf6b295a15c148167daaaf5cf34f",
          "topics": [
            "0xddf252ad1be2c89b69c2b068fc378daa952ba7f163c4a11628f55a4df523b3ef",
            "0x000000000000000000000000b4ffef15daf4c02787bc5332580b838ce39805f5",
            "0x0000000000000000000000009d1794bab9664c755ed74a7d44f3da02a5613df4"
          ],
          "data": "0x0000000000000000000000000000000000000000000000000125238dbae675d0",
          "blockHash": "0xf3bc91cefaa571c1a9551ab82fbf79ba64b83662c8ee4ad198b619541edf4e8c",
          "blockNumber": "0x9003ea",
          "blockTimestamp": "0x66e51fea",
          "transactionHash": "0x6773725b8189172356c024b9ad3ec13006d7f642674ddcd4f15a8be966999ab5",
          "transactionIndex": "0x0",
          "logIndex": "0x2",
          "removed": false
        },
        {
          "address": "0xe5d7c2a44ffddf6b295a15c148167daaaf5cf34f",
          "topics": [
            "0x8c5be1e5ebec7d5bd14f71427d1e84f3dd0314c0f7b2291e5b200ac8c7c3b925",
            "0x0000000000000000000000009d1794bab9664c755ed74a7d44f3da02a5613df4",
            "0x0000000000000000000000002d8879046f1559e53eb052e949e9544bcb72f414"
          ],
          "data": "0x0000000000000000000000000000000000000000000000000125238dbae675d0",
          "blockHash": "0xf3bc91cefaa571c1a9551ab82fbf79ba64b83662c8ee4ad198b619541edf4e8c",
          "blockNumber": "0x9003ea",
          "blockTimestamp": "0x66e51fea",
          "transactionHash": "0x6773725b8189172356c024b9ad3ec13006d7f642674ddcd4f15a8be966999ab5",
          "transactionIndex": "0x0",
          "logIndex": "0x3",
          "removed": false
        },
        {
          "address": "0xe5d7c2a44ffddf6b295a15c148167daaaf5cf34f",
          "topics": [
            "0xddf252ad1be2c89b69c2b068fc378daa952ba7f163c4a11628f55a4df523b3ef",
            "0x0000000000000000000000009d1794bab9664c755ed74a7d44f3da02a5613df4",
            "0x000000000000000000000000dded227d71a096c6b5d87807c1b5c456771aaa94"
          ],
          "data": "0x0000000000000000000000000000000000000000000000000125238dbae675d0",
          "blockHash": "0xf3bc91cefaa571c1a9551ab82fbf79ba64b83662c8ee4ad198b619541edf4e8c",
          "blockNumber": "0x9003ea",
          "blockTimestamp": "0x66e51fea",
          "transactionHash": "0x6773725b8189172356c024b9ad3ec13006d7f642674ddcd4f15a8be966999ab5",
          "transactionIndex": "0x0",
          "logIndex": "0x4",
          "removed": false
        },
        {
          "address": "0xdded227d71a096c6b5d87807c1b5c456771aaa94",
          "topics": [
            "0xd78ad95fa46c994b6551d0da85fc275fe613ce37657fb8d5e3d130840159d822",
            "0x00000000000000000000000056c85a254dd12ee8d9c04049a4ab62769ce98210",
            "0x0000000000000000000000002d8879046f1559e53eb052e949e9544bcb72f414"
          ],
          "data": "0x00000000000000000000000000000000000000000000000000000000000000000000000000000000000000000000000000000000000000000125238dbae675d0000000000000000000000000000000000000000000000000000000000be5d3f10000000000000000000000000000000000000000000000000000000000000000",
          "blockHash": "0xf3bc91cefaa571c1a9551ab82fbf79ba64b83662c8ee4ad198b619541edf4e8c",
          "blockNumber": "0x9003ea",
          "blockTimestamp": "0x66e51fea",
          "transactionHash": "0x6773725b8189172356c024b9ad3ec13006d7f642674ddcd4f15a8be966999ab5",
          "transactionIndex": "0x0",
          "logIndex": "0x5",
          "removed": false
        },
        {
          "address": "0xdded227d71a096c6b5d87807c1b5c456771aaa94",
          "topics": [
            "0xa6205f24a082c01e6c705e20c1a026c246eedf9800b87b84440f05e8271aaf27"
          ],
          "data": "0x00000000000000000000000000000000000000000000000000000000000474120000000000000000000000000000000000000000000000000000000000000000",
          "blockHash": "0xf3bc91cefaa571c1a9551ab82fbf79ba64b83662c8ee4ad198b619541edf4e8c",
          "blockNumber": "0x9003ea",
          "blockTimestamp": "0x66e51fea",
          "transactionHash": "0x6773725b8189172356c024b9ad3ec13006d7f642674ddcd4f15a8be966999ab5",
          "transactionIndex": "0x0",
          "logIndex": "0x6",
          "removed": false
        },
        {
          "address": "0xdded227d71a096c6b5d87807c1b5c456771aaa94",
          "topics": [
            "0x9e4e1b03f35e9c0cd24e1dfac3528faaaf88b254e1530b0090ce33f9d7597033"
          ],
          "data": "0x00000000000000000000000000000000000000000000568de5c462267f700a44",
          "blockHash": "0xf3bc91cefaa571c1a9551ab82fbf79ba64b83662c8ee4ad198b619541edf4e8c",
          "blockNumber": "0x9003ea",
          "blockTimestamp": "0x66e51fea",
          "transactionHash": "0x6773725b8189172356c024b9ad3ec13006d7f642674ddcd4f15a8be966999ab5",
          "transactionIndex": "0x0",
          "logIndex": "0x7",
          "removed": false
        },
        {
          "address": "0xdded227d71a096c6b5d87807c1b5c456771aaa94",
          "topics": [
            "0x4d2cbcbcdaca7676a354e7297481cf51e67a13c8c07ad1c42928605c8ea522d0"
          ],
          "data": "0x0000000000000000000000000000000000000000000000000e158bac215bd45e0000000000000000000000000000000000000000000000000df84c9791d1f5da",
          "blockHash": "0xf3bc91cefaa571c1a9551ab82fbf79ba64b83662c8ee4ad198b619541edf4e8c",
          "blockNumber": "0x9003ea",
          "blockTimestamp": "0x66e51fea",
          "transactionHash": "0x6773725b8189172356c024b9ad3ec13006d7f642674ddcd4f15a8be966999ab5",
          "transactionIndex": "0x0",
          "logIndex": "0x8",
          "removed": false
        },
        {
          "address": "0xdded227d71a096c6b5d87807c1b5c456771aaa94",
          "topics": [
            "0xcf2aa50876cdfbb541206f89af0ee78d44a2abf8d328e37fa4917f982149848a"
          ],
          "data": "0x0000000000000000000000000000000000000000000000000000002d908d6b29000000000000000000000000000000000000000000000004be92f8ab2b4cc150",
          "blockHash": "0xf3bc91cefaa571c1a9551ab82fbf79ba64b83662c8ee4ad198b619541edf4e8c",
          "blockNumber": "0x9003ea",
          "blockTimestamp": "0x66e51fea",
          "transactionHash": "0x6773725b8189172356c024b9ad3ec13006d7f642674ddcd4f15a8be966999ab5",
          "transactionIndex": "0x0",
          "logIndex": "0x9",
          "removed": false
        },
        {
          "address": "0x176211869ca2b568f2a7d4ee941e073a821ee1ff",
          "topics": [
            "0xddf252ad1be2c89b69c2b068fc378daa952ba7f163c4a11628f55a4df523b3ef",
            "0x000000000000000000000000dded227d71a096c6b5d87807c1b5c456771aaa94",
            "0x0000000000000000000000002d8879046f1559e53eb052e949e9544bcb72f414"
          ],
          "data": "0x000000000000000000000000000000000000000000000000000000000be5d3f1",
          "blockHash": "0xf3bc91cefaa571c1a9551ab82fbf79ba64b83662c8ee4ad198b619541edf4e8c",
          "blockNumber": "0x9003ea",
          "blockTimestamp": "0x66e51fea",
          "transactionHash": "0x6773725b8189172356c024b9ad3ec13006d7f642674ddcd4f15a8be966999ab5",
          "transactionIndex": "0x0",
          "logIndex": "0xa",
          "removed": false
        },
        {
          "address": "0xdded227d71a096c6b5d87807c1b5c456771aaa94",
          "topics": [
            "0xaa077b6dc26efdfd606d4340c04a5a222ff968ec199f0b184f4c0f7a5c8e8d71",
            "0x00000000000000000000000056c85a254dd12ee8d9c04049a4ab62769ce98210",
            "0x00000000000000000000000056c85a254dd12ee8d9c04049a4ab62769ce98210",
            "0x000000000000000000000000176211869ca2b568f2a7d4ee941e073a821ee1ff"
          ],
          "data": "0x0000000000000000000000000000000000000000000000000125238dbae675d0000000000000000000000000000000000000000000000000000000000be5d3f100000000000000000000000000000000000000000000000000000000000000920000000000000000000000002d8879046f1559e53eb052e949e9544bcb72f414",
          "blockHash": "0xf3bc91cefaa571c1a9551ab82fbf79ba64b83662c8ee4ad198b619541edf4e8c",
          "blockNumber": "0x9003ea",
          "blockTimestamp": "0x66e51fea",
          "transactionHash": "0x6773725b8189172356c024b9ad3ec13006d7f642674ddcd4f15a8be966999ab5",
          "transactionIndex": "0x0",
          "logIndex": "0xb",
          "removed": false
        },
        {
          "address": "0x176211869ca2b568f2a7d4ee941e073a821ee1ff",
          "topics": [
            "0xddf252ad1be2c89b69c2b068fc378daa952ba7f163c4a11628f55a4df523b3ef",
            "0x0000000000000000000000002d8879046f1559e53eb052e949e9544bcb72f414",
            "0x0000000000000000000000009d1794bab9664c755ed74a7d44f3da02a5613df4"
          ],
          "data": "0x000000000000000000000000000000000000000000000000000000000be5d3f1",
          "blockHash": "0xf3bc91cefaa571c1a9551ab82fbf79ba64b83662c8ee4ad198b619541edf4e8c",
          "blockNumber": "0x9003ea",
          "blockTimestamp": "0x66e51fea",
          "transactionHash": "0x6773725b8189172356c024b9ad3ec13006d7f642674ddcd4f15a8be966999ab5",
          "transactionIndex": "0x0",
          "logIndex": "0xc",
          "removed": false
        },
        {
          "address": "0x2d8879046f1559e53eb052e949e9544bcb72f414",
          "topics": [
            "0x823eaf01002d7353fbcadb2ea3305cc46fa35d799cb0914846d185ac06f8ad05"
          ],
          "data": "0x0000000000000000000000009d1794bab9664c755ed74a7d44f3da02a5613df40000000000000000000000000000000000000000000000000125238dbae675d0000000000000000000000000e5d7c2a44ffddf6b295a15c148167daaaf5cf34f000000000000000000000000000000000000000000000000000000000be5d3f1000000000000000000000000176211869ca2b568f2a7d4ee941e073a821ee1fffffffffffffffffffffffffffffffffffffffffffffffffffffffffffffbe6c40000000000000000000000000000000000000000000000000000000000000000",
          "blockHash": "0xf3bc91cefaa571c1a9551ab82fbf79ba64b83662c8ee4ad198b619541edf4e8c",
          "blockNumber": "0x9003ea",
          "blockTimestamp": "0x66e51fea",
          "transactionHash": "0x6773725b8189172356c024b9ad3ec13006d7f642674ddcd4f15a8be966999ab5",
          "transactionIndex": "0x0",
          "logIndex": "0xd",
          "removed": false
        },
        {
          "address": "0x176211869ca2b568f2a7d4ee941e073a821ee1ff",
          "topics": [
            "0x8c5be1e5ebec7d5bd14f71427d1e84f3dd0314c0f7b2291e5b200ac8c7c3b925",
            "0x0000000000000000000000009d1794bab9664c755ed74a7d44f3da02a5613df4",
            "0x0000000000000000000000002f9bb73a8e98793e26cb2f6c4ad037bdf1c6b269"
          ],
          "data": "0x0000000000000000000000000000000000000000000000000000000011dbb4f1",
          "blockHash": "0xf3bc91cefaa571c1a9551ab82fbf79ba64b83662c8ee4ad198b619541edf4e8c",
          "blockNumber": "0x9003ea",
          "blockTimestamp": "0x66e51fea",
          "transactionHash": "0x6773725b8189172356c024b9ad3ec13006d7f642674ddcd4f15a8be966999ab5",
          "transactionIndex": "0x0",
          "logIndex": "0xe",
          "removed": false
        },
        {
          "address": "0x2f9bb73a8e98793e26cb2f6c4ad037bdf1c6b269",
          "topics": [
            "0x804c9b842b2748a22bb64b345453a3de7ca54a6ca45ce00d415894979e22897a",
            "0x000000000000000000000000176211869ca2b568f2a7d4ee941e073a821ee1ff"
          ],
          "data": "0x00000000000000000000000000000000000000000011b01aea44155b3a172cda0000000000000000000000000000000000000000002d500d3543e727d6d2e68b0000000000000000000000000000000000000000001fa11e36ff05f3269734590000000000000000000000000000000000000000035ddc45cb1f7155a7381b5a0000000000000000000000000000000000000000036bc52df4354b21803c7a83",
          "blockHash": "0xf3bc91cefaa571c1a9551ab82fbf79ba64b83662c8ee4ad198b619541edf4e8c",
          "blockNumber": "0x9003ea",
          "blockTimestamp": "0x66e51fea",
          "transactionHash": "0x6773725b8189172356c024b9ad3ec13006d7f642674ddcd4f15a8be966999ab5",
          "transactionIndex": "0x0",
          "logIndex": "0xf",
          "removed": false
        },
        {
          "address": "0x176211869ca2b568f2a7d4ee941e073a821ee1ff",
          "topics": [
            "0xddf252ad1be2c89b69c2b068fc378daa952ba7f163c4a11628f55a4df523b3ef",
            "0x0000000000000000000000009d1794bab9664c755ed74a7d44f3da02a5613df4",
            "0x0000000000000000000000002e207eca8b6bf77a6ac82763eeed2a94de4f081d"
          ],
          "data": "0x0000000000000000000000000000000000000000000000000000000011dbb4f1",
          "blockHash": "0xf3bc91cefaa571c1a9551ab82fbf79ba64b83662c8ee4ad198b619541edf4e8c",
          "blockNumber": "0x9003ea",
          "blockTimestamp": "0x66e51fea",
          "transactionHash": "0x6773725b8189172356c024b9ad3ec13006d7f642674ddcd4f15a8be966999ab5",
          "transactionIndex": "0x0",
          "logIndex": "0x10",
          "removed": false
        },
        {
          "address": "0x28f6899ff643261ca9766ddc251b359a2d00b945",
          "topics": [
            "0x3303facd24627943a92e9dc87cfbb34b15c49b726eec3ad3487c16be9ab8efe8",
            "0x0000000000000000000000002e207eca8b6bf77a6ac82763eeed2a94de4f081d",
            "0x00000000000000000000000040a59a3f3b16d9e74c811d24d8b7969664cfe180",
            "0x0000000000000000000000009d1794bab9664c755ed74a7d44f3da02a5613df4"
          ],
          "data": "0x0000000000000000000000000000000000000000000000040755b053b796c7ed0000000000000000000000000000000000000000000000040755b053b796c7ed0000000000000000000000000000000000000000000000000000000000000000",
          "blockHash": "0xf3bc91cefaa571c1a9551ab82fbf79ba64b83662c8ee4ad198b619541edf4e8c",
          "blockNumber": "0x9003ea",
          "blockTimestamp": "0x66e51fea",
          "transactionHash": "0x6773725b8189172356c024b9ad3ec13006d7f642674ddcd4f15a8be966999ab5",
          "transactionIndex": "0x0",
          "logIndex": "0x11",
          "removed": false
        },
        {
          "address": "0x28f6899ff643261ca9766ddc251b359a2d00b945",
          "topics": [
            "0x3303facd24627943a92e9dc87cfbb34b15c49b726eec3ad3487c16be9ab8efe8",
            "0x0000000000000000000000002e207eca8b6bf77a6ac82763eeed2a94de4f081d",
            "0x00000000000000000000000078354f8dccb269a615a7e0a24f9b0718fdc3c7a7",
            "0x0000000000000000000000009d1794bab9664c755ed74a7d44f3da02a5613df4"
          ],
          "data": "0x0000000000000000000000000000000000000000000000005f41ad4c32c406220000000000000000000000000000000000000000000000005f41ad4c32c406220000000000000000000000000000000000000000000000000000000000000000",
          "blockHash": "0xf3bc91cefaa571c1a9551ab82fbf79ba64b83662c8ee4ad198b619541edf4e8c",
          "blockNumber": "0x9003ea",
          "blockTimestamp": "0x66e51fea",
          "transactionHash": "0x6773725b8189172356c024b9ad3ec13006d7f642674ddcd4f15a8be966999ab5",
          "transactionIndex": "0x0",
          "logIndex": "0x12",
          "removed": false
        },
        {
          "address": "0x2e207eca8b6bf77a6ac82763eeed2a94de4f081d",
          "topics": [
            "0xddf252ad1be2c89b69c2b068fc378daa952ba7f163c4a11628f55a4df523b3ef",
            "0x0000000000000000000000000000000000000000000000000000000000000000",
            "0x0000000000000000000000009d1794bab9664c755ed74a7d44f3da02a5613df4"
          ],
          "data": "0x0000000000000000000000000000000000000000000000000000000011dbb4f1",
          "blockHash": "0xf3bc91cefaa571c1a9551ab82fbf79ba64b83662c8ee4ad198b619541edf4e8c",
          "blockNumber": "0x9003ea",
          "blockTimestamp": "0x66e51fea",
          "transactionHash": "0x6773725b8189172356c024b9ad3ec13006d7f642674ddcd4f15a8be966999ab5",
          "transactionIndex": "0x0",
          "logIndex": "0x13",
          "removed": false
        },
        {
          "address": "0x2e207eca8b6bf77a6ac82763eeed2a94de4f081d",
          "topics": [
            "0x458f5fa412d0f69b08dd84872b0215675cc67bc1d5b6fd93300a1c3878b86196",
            "0x0000000000000000000000009d1794bab9664c755ed74a7d44f3da02a5613df4",
            "0x0000000000000000000000009d1794bab9664c755ed74a7d44f3da02a5613df4"
          ],
          "data": "0x0000000000000000000000000000000000000000000000000000000011dbb4f100000000000000000000000000000000000000000000000000000000000000000000000000000000000000000000000000000000035ddc45cb1f7155a7381b5a",
          "blockHash": "0xf3bc91cefaa571c1a9551ab82fbf79ba64b83662c8ee4ad198b619541edf4e8c",
          "blockNumber": "0x9003ea",
          "blockTimestamp": "0x66e51fea",
          "transactionHash": "0x6773725b8189172356c024b9ad3ec13006d7f642674ddcd4f15a8be966999ab5",
          "transactionIndex": "0x0",
          "logIndex": "0x14",
          "removed": false
        },
        {
          "address": "0x2f9bb73a8e98793e26cb2f6c4ad037bdf1c6b269",
          "topics": [
            "0x00058a56ea94653cdf4f152d227ace22d4c00ad99e2a43f58cb7d9e3feb295f2",
            "0x000000000000000000000000176211869ca2b568f2a7d4ee941e073a821ee1ff",
            "0x0000000000000000000000009d1794bab9664c755ed74a7d44f3da02a5613df4"
          ],
          "data": "0x",
          "blockHash": "0xf3bc91cefaa571c1a9551ab82fbf79ba64b83662c8ee4ad198b619541edf4e8c",
          "blockNumber": "0x9003ea",
          "blockTimestamp": "0x66e51fea",
          "transactionHash": "0x6773725b8189172356c024b9ad3ec13006d7f642674ddcd4f15a8be966999ab5",
          "transactionIndex": "0x0",
          "logIndex": "0x15",
          "removed": false
        },
        {
          "address": "0x2f9bb73a8e98793e26cb2f6c4ad037bdf1c6b269",
          "topics": [
            "0x2b627736bca15cd5381dcf80b0bf11fd197d01a037c52b927a881a10fb73ba61",
            "0x000000000000000000000000176211869ca2b568f2a7d4ee941e073a821ee1ff",
            "0x0000000000000000000000009d1794bab9664c755ed74a7d44f3da02a5613df4",
            "0x0000000000000000000000000000000000000000000000000000000000000000"
          ],
          "data": "0x0000000000000000000000009d1794bab9664c755ed74a7d44f3da02a5613df40000000000000000000000000000000000000000000000000000000011dbb4f1",
          "blockHash": "0xf3bc91cefaa571c1a9551ab82fbf79ba64b83662c8ee4ad198b619541edf4e8c",
          "blockNumber": "0x9003ea",
          "blockTimestamp": "0x66e51fea",
          "transactionHash": "0x6773725b8189172356c024b9ad3ec13006d7f642674ddcd4f15a8be966999ab5",
          "transactionIndex": "0x0",
          "logIndex": "0x16",
          "removed": false
        },
        {
          "address": "0x28f6899ff643261ca9766ddc251b359a2d00b945",
          "topics": [
            "0x3303facd24627943a92e9dc87cfbb34b15c49b726eec3ad3487c16be9ab8efe8",
            "0x000000000000000000000000cb2da0f5aece616e2cbf29576cfc795fb15c6133",
            "0x00000000000000000000000040a59a3f3b16d9e74c811d24d8b7969664cfe180",
            "0x0000000000000000000000009d1794bab9664c755ed74a7d44f3da02a5613df4"
          ],
          "data": "0x00000000000000000000000000000000000000000000b9f3a432553e843c8a7900000000000000000000000000000000000000000000b9f3a432553e843c8a790000000000000000000000000000000000000000000000000000000000000000",
          "blockHash": "0xf3bc91cefaa571c1a9551ab82fbf79ba64b83662c8ee4ad198b619541edf4e8c",
          "blockNumber": "0x9003ea",
          "blockTimestamp": "0x66e51fea",
          "transactionHash": "0x6773725b8189172356c024b9ad3ec13006d7f642674ddcd4f15a8be966999ab5",
          "transactionIndex": "0x0",
          "logIndex": "0x17",
          "removed": false
        },
        {
          "address": "0x28f6899ff643261ca9766ddc251b359a2d00b945",
          "topics": [
            "0x3303facd24627943a92e9dc87cfbb34b15c49b726eec3ad3487c16be9ab8efe8",
            "0x000000000000000000000000cb2da0f5aece616e2cbf29576cfc795fb15c6133",
            "0x00000000000000000000000078354f8dccb269a615a7e0a24f9b0718fdc3c7a7",
            "0x0000000000000000000000009d1794bab9664c755ed74a7d44f3da02a5613df4"
          ],
          "data": "0x000000000000000000000000000000000000000000000e0fea3dcdebc44a45c2000000000000000000000000000000000000000000000e0fea3dcdebc44a45c20000000000000000000000000000000000000000000000000000000000000000",
          "blockHash": "0xf3bc91cefaa571c1a9551ab82fbf79ba64b83662c8ee4ad198b619541edf4e8c",
          "blockNumber": "0x9003ea",
          "blockTimestamp": "0x66e51fea",
          "transactionHash": "0x6773725b8189172356c024b9ad3ec13006d7f642674ddcd4f15a8be966999ab5",
          "transactionIndex": "0x0",
          "logIndex": "0x18",
          "removed": false
        },
        {
          "address": "0xcb2da0f5aece616e2cbf29576cfc795fb15c6133",
          "topics": [
            "0xddf252ad1be2c89b69c2b068fc378daa952ba7f163c4a11628f55a4df523b3ef",
            "0x0000000000000000000000000000000000000000000000000000000000000000",
            "0x0000000000000000000000009d1794bab9664c755ed74a7d44f3da02a5613df4"
          ],
          "data": "0x000000000000000000000000000000000000000000000000012549134e10d0c0",
          "blockHash": "0xf3bc91cefaa571c1a9551ab82fbf79ba64b83662c8ee4ad198b619541edf4e8c",
          "blockNumber": "0x9003ea",
          "blockTimestamp": "0x66e51fea",
          "transactionHash": "0x6773725b8189172356c024b9ad3ec13006d7f642674ddcd4f15a8be966999ab5",
          "transactionIndex": "0x0",
          "logIndex": "0x19",
          "removed": false
        },
        {
          "address": "0xcb2da0f5aece616e2cbf29576cfc795fb15c6133",
          "topics": [
            "0x458f5fa412d0f69b08dd84872b0215675cc67bc1d5b6fd93300a1c3878b86196",
            "0x0000000000000000000000009d1794bab9664c755ed74a7d44f3da02a5613df4",
            "0x0000000000000000000000009d1794bab9664c755ed74a7d44f3da02a5613df4"
          ],
          "data": "0x000000000000000000000000000000000000000000000000012549134e10d0c000000000000000000000000000000000000000000000000000000000000000000000000000000000000000000000000000000000035f5950c05cc47767f2bab2",
          "blockHash": "0xf3bc91cefaa571c1a9551ab82fbf79ba64b83662c8ee4ad198b619541edf4e8c",
          "blockNumber": "0x9003ea",
          "blockTimestamp": "0x66e51fea",
          "transactionHash": "0x6773725b8189172356c024b9ad3ec13006d7f642674ddcd4f15a8be966999ab5",
          "transactionIndex": "0x0",
          "logIndex": "0x1a",
          "removed": false
        },
        {
          "address": "0x2f9bb73a8e98793e26cb2f6c4ad037bdf1c6b269",
          "topics": [
            "0x804c9b842b2748a22bb64b345453a3de7ca54a6ca45ce00d415894979e22897a",
            "0x000000000000000000000000e5d7c2a44ffddf6b295a15c148167daaaf5cf34f"
          ],
          "data": "0x0000000000000000000000000000000000000000000b7bf87b4b2a5e2a5a00b90000000000000000000000000000000000000000002cbcf082616afd44010ce80000000000000000000000000000000000000000001b08389feb249e9008674500000000000000000000000000000000000000000352b0ccfa55766b9a1b44230000000000000000000000000000000000000000035f5950c05cc47767f2bab2",
          "blockHash": "0xf3bc91cefaa571c1a9551ab82fbf79ba64b83662c8ee4ad198b619541edf4e8c",
          "blockNumber": "0x9003ea",
          "blockTimestamp": "0x66e51fea",
          "transactionHash": "0x6773725b8189172356c024b9ad3ec13006d7f642674ddcd4f15a8be966999ab5",
          "transactionIndex": "0x0",
          "logIndex": "0x1b",
          "removed": false
        },
        {
          "address": "0xe5d7c2a44ffddf6b295a15c148167daaaf5cf34f",
          "topics": [
            "0xddf252ad1be2c89b69c2b068fc378daa952ba7f163c4a11628f55a4df523b3ef",
            "0x000000000000000000000000b4ffef15daf4c02787bc5332580b838ce39805f5",
            "0x0000000000000000000000009d1794bab9664c755ed74a7d44f3da02a5613df4"
          ],
          "data": "0x000000000000000000000000000000000000000000000000012549134e10d0c0",
          "blockHash": "0xf3bc91cefaa571c1a9551ab82fbf79ba64b83662c8ee4ad198b619541edf4e8c",
          "blockNumber": "0x9003ea",
          "blockTimestamp": "0x66e51fea",
          "transactionHash": "0x6773725b8189172356c024b9ad3ec13006d7f642674ddcd4f15a8be966999ab5",
          "transactionIndex": "0x0",
          "logIndex": "0x1c",
          "removed": false
        },
        {
          "address": "0x2f9bb73a8e98793e26cb2f6c4ad037bdf1c6b269",
          "topics": [
            "0xb3d084820fb1a9decffb176436bd02558d15fac9b0ddfed8c465bc7359d7dce0",
            "0x000000000000000000000000e5d7c2a44ffddf6b295a15c148167daaaf5cf34f",
            "0x0000000000000000000000009d1794bab9664c755ed74a7d44f3da02a5613df4",
            "0x0000000000000000000000000000000000000000000000000000000000000000"
          ],
          "data": "0x0000000000000000000000009d1794bab9664c755ed74a7d44f3da02a5613df4000000000000000000000000000000000000000000000000012549134e10d0c000000000000000000000000000000000000000000000000000000000000000020000000000000000000000000000000000000000001b08389feb249e90086745",
          "blockHash": "0xf3bc91cefaa571c1a9551ab82fbf79ba64b83662c8ee4ad198b619541edf4e8c",
          "blockNumber": "0x9003ea",
          "blockTimestamp": "0x66e51fea",
          "transactionHash": "0x6773725b8189172356c024b9ad3ec13006d7f642674ddcd4f15a8be966999ab5",
          "transactionIndex": "0x0",
          "logIndex": "0x1d",
          "removed": false
        },
        {
          "address": "0x176211869ca2b568f2a7d4ee941e073a821ee1ff",
          "topics": [
            "0x8c5be1e5ebec7d5bd14f71427d1e84f3dd0314c0f7b2291e5b200ac8c7c3b925",
            "0x0000000000000000000000009d1794bab9664c755ed74a7d44f3da02a5613df4",
            "0x0000000000000000000000002f9bb73a8e98793e26cb2f6c4ad037bdf1c6b269"
          ],
          "data": "0x0000000000000000000000000000000000000000000000000000000000000000",
          "blockHash": "0xf3bc91cefaa571c1a9551ab82fbf79ba64b83662c8ee4ad198b619541edf4e8c",
          "blockNumber": "0x9003ea",
          "blockTimestamp": "0x66e51fea",
          "transactionHash": "0x6773725b8189172356c024b9ad3ec13006d7f642674ddcd4f15a8be966999ab5",
          "transactionIndex": "0x0",
          "logIndex": "0x1e",
          "removed": false
        },
        {
          "address": "0x176211869ca2b568f2a7d4ee941e073a821ee1ff",
          "topics": [
            "0x8c5be1e5ebec7d5bd14f71427d1e84f3dd0314c0f7b2291e5b200ac8c7c3b925",
            "0x0000000000000000000000009d1794bab9664c755ed74a7d44f3da02a5613df4",
            "0x0000000000000000000000002f9bb73a8e98793e26cb2f6c4ad037bdf1c6b269"
          ],
          "data": "0x0000000000000000000000000000000000000000000000000000000000000000",
          "blockHash": "0xf3bc91cefaa571c1a9551ab82fbf79ba64b83662c8ee4ad198b619541edf4e8c",
          "blockNumber": "0x9003ea",
          "blockTimestamp": "0x66e51fea",
          "transactionHash": "0x6773725b8189172356c024b9ad3ec13006d7f642674ddcd4f15a8be966999ab5",
          "transactionIndex": "0x0",
          "logIndex": "0x1f",
          "removed": false
        },
        {
          "address": "0xe5d7c2a44ffddf6b295a15c148167daaaf5cf34f",
          "topics": [
            "0x8c5be1e5ebec7d5bd14f71427d1e84f3dd0314c0f7b2291e5b200ac8c7c3b925",
            "0x0000000000000000000000009d1794bab9664c755ed74a7d44f3da02a5613df4",
            "0x0000000000000000000000002f9bb73a8e98793e26cb2f6c4ad037bdf1c6b269"
          ],
          "data": "0x000000000000000000000000000000000000000000000000012549134e10d0c0",
          "blockHash": "0xf3bc91cefaa571c1a9551ab82fbf79ba64b83662c8ee4ad198b619541edf4e8c",
          "blockNumber": "0x9003ea",
          "blockTimestamp": "0x66e51fea",
          "transactionHash": "0x6773725b8189172356c024b9ad3ec13006d7f642674ddcd4f15a8be966999ab5",
          "transactionIndex": "0x0",
          "logIndex": "0x20",
          "removed": false
        },
        {
          "address": "0x2f9bb73a8e98793e26cb2f6c4ad037bdf1c6b269",
          "topics": [
            "0x804c9b842b2748a22bb64b345453a3de7ca54a6ca45ce00d415894979e22897a",
            "0x000000000000000000000000e5d7c2a44ffddf6b295a15c148167daaaf5cf34f"
          ],
          "data": "0x0000000000000000000000000000000000000000000b7bf434b525dfd6f875190000000000000000000000000000000000000000002cbcefe159ab7ea49f87ce0000000000000000000000000000000000000000001b083397ad28a994fc3e7100000000000000000000000000000000000000000352b0cd0e95fa98d28d81f10000000000000000000000000000000000000000035f5950c05cc47767f2bab2",
          "blockHash": "0xf3bc91cefaa571c1a9551ab82fbf79ba64b83662c8ee4ad198b619541edf4e8c",
          "blockNumber": "0x9003ea",
          "blockTimestamp": "0x66e51fea",
          "transactionHash": "0x6773725b8189172356c024b9ad3ec13006d7f642674ddcd4f15a8be966999ab5",
          "transactionIndex": "0x0",
          "logIndex": "0x21",
          "removed": false
        },
        {
          "address": "0xe5d7c2a44ffddf6b295a15c148167daaaf5cf34f",
          "topics": [
            "0xddf252ad1be2c89b69c2b068fc378daa952ba7f163c4a11628f55a4df523b3ef",
            "0x0000000000000000000000009d1794bab9664c755ed74a7d44f3da02a5613df4",
            "0x000000000000000000000000b4ffef15daf4c02787bc5332580b838ce39805f5"
          ],
          "data": "0x000000000000000000000000000000000000000000000000012549134e10d0c0",
          "blockHash": "0xf3bc91cefaa571c1a9551ab82fbf79ba64b83662c8ee4ad198b619541edf4e8c",
          "blockNumber": "0x9003ea",
          "blockTimestamp": "0x66e51fea",
          "transactionHash": "0x6773725b8189172356c024b9ad3ec13006d7f642674ddcd4f15a8be966999ab5",
          "transactionIndex": "0x0",
          "logIndex": "0x22",
          "removed": false
        },
        {
          "address": "0x2f9bb73a8e98793e26cb2f6c4ad037bdf1c6b269",
          "topics": [
            "0xefefaba5e921573100900a3ad9cf29f222d995fb3b6045797eaea7521bd8d6f0",
            "0x0000000000000000000000009d1794bab9664c755ed74a7d44f3da02a5613df4",
            "0x000000000000000000000000e5d7c2a44ffddf6b295a15c148167daaaf5cf34f",
            "0x0000000000000000000000000000000000000000000000000000000000000000"
          ],
          "data": "0x0000000000000000000000009d1794bab9664c755ed74a7d44f3da02a5613df40000000000000000000000000000000000000000000000000125238dbae675d0000000000000000000000000000000000000000000000000000000000000000000000000000000000000000000000000000000000000000000002585932a5af0",
          "blockHash": "0xf3bc91cefaa571c1a9551ab82fbf79ba64b83662c8ee4ad198b619541edf4e8c",
          "blockNumber": "0x9003ea",
          "blockTimestamp": "0x66e51fea",
          "transactionHash": "0x6773725b8189172356c024b9ad3ec13006d7f642674ddcd4f15a8be966999ab5",
          "transactionIndex": "0x0",
          "logIndex": "0x23",
          "removed": false
        }
      ],
      "logsBloom": "0x00200000000009040088000080000000080001004000008000000000010000000000a00020040800000010000014000002100a0000100014000400000020000000000020200080000008000802000020200080000000000000000004004000000000040202040000008000012000080180400000000000000100001000000000000002008001000800100004000000000010100400000000008000440000004002080000020000000000000002000010000000000010080100000000a000010002500002000001a0000000244080010000020100a0000600000800000000200000102000000080200000000000010000c0000001100002000000400000100060",
      "type": "0x2",
      "transactionHash": "0x6773725b8189172356c024b9ad3ec13006d7f642674ddcd4f15a8be966999ab5",
      "transactionIndex": "0x0",
      "blockHash": "0xf3bc91cefaa571c1a9551ab82fbf79ba64b83662c8ee4ad198b619541edf4e8c",
      "blockNumber": "0x9003ea",
      "gasUsed": "0x1282c1",
      "effectiveGasPrice": "0x3938707",
      "blobGasPrice": "0x1",
      "from": "0xf39fd6e51aad88f6f4ce6ab8827279cfffb92266",
      "to": "0x0b306bf915c4d645ff596e518faf3f9669b97016",
      "contractAddress": null,
      "root": "0x0000000000000000000000000000000000000000000000000000000000000000"
    }
  ],
  "libraries": [],
  "pending": [],
  "returns": {},
  "timestamp": 1726291944,
  "chain": 59144,
  "commit": "4a57ec2"
}