{
  "transactions": [
    {
      "hash": "0x8753a850dac494f3a368a54b79b2a097fdea8786e48fb34d1f4953a949256dc9",
      "transactionType": "CALL",
      "contractName": null,
      "contractAddress": "0xe5d7c2a44ffddf6b295a15c148167daaaf5cf34f",
      "function": "approve(address,uint256)",
      "arguments": [
        "0x0B306BF915C4d645ff596e518fAf3F9669b97016",
        "115792089237316195423570985008687907853269984665640564039457584007913129639935"
      ],
      "transaction": {
        "from": "0xf39fd6e51aad88f6f4ce6ab8827279cfffb92266",
        "to": "0xe5d7c2a44ffddf6b295a15c148167daaaf5cf34f",
        "gas": "0xfa27",
        "value": "0x0",
        "input": "0x095ea7b30000000000000000000000000b306bf915c4d645ff596e518faf3f9669b97016ffffffffffffffffffffffffffffffffffffffffffffffffffffffffffffffff",
        "nonce": "0x23",
        "chainId": "0xe708"
      },
      "additionalContracts": [],
      "isFixedGasLimit": false
    },
    {
      "hash": "0xf3af9c7442945ebce9c2292eaf0a4db501acbf8899b44eec3a5dbca564551793",
      "transactionType": "CALL",
      "contractName": null,
      "contractAddress": "0x0b306bf915c4d645ff596e518faf3f9669b97016",
      "function": "createAndAddToPosition((string,address,address),(uint256,uint256,bytes))",
      "arguments": [
        "(\"LONG_QUOTE_ODOS_ZEROLEND\", 0x176211869cA2b568f2A7D4EE941E073a821EE1ff, 0xe5D7C2a44FfDDf6b295A15c148167daaAf5Cf34f)",
        "(100000000, 199999999, 0x83bd37f90001176211869ca2b568f2a7d4ee941e073a821ee1ff0001e5d7c2a44ffddf6b295a15c148167daaaf5cf34f0411e1a2ff0801c1bab3da329f10028f5c000156c85a254dd12ee8d9c04049a4ab62769ce9821000000001c8c56cee6abc9b297c0f0bd1cc6ee0e8f4e4fc610000000003010203000a0101010201ff000000000000000000000000000000000000000000586733678b9ac9da43dd7cb83bbb41d23677dfc3176211869ca2b568f2a7d4ee941e073a821ee1ff000000000000000000000000000000000000000000000000)"
      ],
      "transaction": {
        "from": "0xf39fd6e51aad88f6f4ce6ab8827279cfffb92266",
        "to": "0x0b306bf915c4d645ff596e518faf3f9669b97016",
        "gas": "0x1a0b50",
        "value": "0x0",
        "input": "0x211d9b04000000000000000000000000000000000000000000000000000000000000004000000000000000000000000000000000000000000000000000000000000000e00000000000000000000000000000000000000000000000000000000000000060000000000000000000000000176211869ca2b568f2a7d4ee941e073a821ee1ff000000000000000000000000e5d7c2a44ffddf6b295a15c148167daaaf5cf34f00000000000000000000000000000000000000000000000000000000000000184c4f4e475f51554f54455f4f444f535f5a45524f4c454e4400000000000000000000000000000000000000000000000000000000000000000000000005f5e100000000000000000000000000000000000000000000000000000000000bebc1ff000000000000000000000000000000000000000000000000000000000000006000000000000000000000000000000000000000000000000000000000000000d483bd37f90001176211869ca2b568f2a7d4ee941e073a821ee1ff0001e5d7c2a44ffddf6b295a15c148167daaaf5cf34f0411e1a2ff0801c1bab3da329f10028f5c000156c85a254dd12ee8d9c04049a4ab62769ce9821000000001c8c56cee6abc9b297c0f0bd1cc6ee0e8f4e4fc610000000003010203000a0101010201ff000000000000000000000000000000000000000000586733678b9ac9da43dd7cb83bbb41d23677dfc3176211869ca2b568f2a7d4ee941e073a821ee1ff000000000000000000000000000000000000000000000000000000000000000000000000",
        "nonce": "0x24",
        "chainId": "0xe708"
      },
      "additionalContracts": [
        {
          "transactionType": "CREATE2",
          "address": "0xc8c56cee6abc9b297c0f0bd1cc6ee0e8f4e4fc61",
          "initCode": "0x60a060405234801561001057600080fd5b506040516101d43803806101d483398101604081905261002f9161009a565b6001600160a01b0381166100895760405162461bcd60e51b815260206004820152601e60248201527f496e76616c696420696d706c656d656e746174696f6e20616464726573730000604482015260640160405180910390fd5b6001600160a01b03166080526100ca565b6000602082840312156100ac57600080fd5b81516001600160a01b03811681146100c357600080fd5b9392505050565b60805160ec6100e860003960008181602001526055015260ec6000f3fe608060405260043610601c5760003560e01c80635c60da1b146045575b60437f00000000000000000000000000000000000000000000000000000000000000006093565b005b348015605057600080fd5b5060777f000000000000000000000000000000000000000000000000000000000000000081565b6040516001600160a01b03909116815260200160405180910390f35b3660008037600080366000845af43d6000803e80801560b1573d6000f35b3d6000fdfea2646970667358221220f6020ed423ab8c3633806cc507ff73ce07ea9bade45f63874f1be7c04b23516364736f6c634300081a003300000000000000000000000068b1d87f95878fe05b998f19b66f4baba5de1aed"
        }
      ],
      "isFixedGasLimit": false
    }
  ],
  "receipts": [
    {
      "status": "0x1",
      "cumulativeGasUsed": "0xb51c",
      "logs": [
        {
          "address": "0xe5d7c2a44ffddf6b295a15c148167daaaf5cf34f",
          "topics": [
            "0x8c5be1e5ebec7d5bd14f71427d1e84f3dd0314c0f7b2291e5b200ac8c7c3b925",
            "0x000000000000000000000000f39fd6e51aad88f6f4ce6ab8827279cfffb92266",
            "0x0000000000000000000000000b306bf915c4d645ff596e518faf3f9669b97016"
          ],
          "data": "0xffffffffffffffffffffffffffffffffffffffffffffffffffffffffffffffff",
          "blockHash": "0x853c819761ac9dce18bfa020ddac58566b1124a061f2550737e7c825494d10a5",
          "blockNumber": "0x8ea034",
          "blockTimestamp": "0x66e26135",
          "transactionHash": "0x8753a850dac494f3a368a54b79b2a097fdea8786e48fb34d1f4953a949256dc9",
          "transactionIndex": "0x0",
          "logIndex": "0x0",
          "removed": false
        }
      ],
      "logsBloom": "0x0000000000000000000000000000000800000000000000000000000000000000000000000000000000000000000000000000000000000000000000000020000000000000000000000000000000000000000000000000000000000000000000000000000000000000000000030000000000000000000000000000000000000000000000000000000000100000000000000000000000000000000000000000000002000000000000000000000000000000000000000000000000000000200000000000000000000020000000000000000000000000a000000000000000000000000010000000000000000000000400000000000000000000000000000000000000",
      "type": "0x2",
      "transactionHash": "0x8753a850dac494f3a368a54b79b2a097fdea8786e48fb34d1f4953a949256dc9",
      "transactionIndex": "0x0",
      "blockHash": "0x853c819761ac9dce18bfa020ddac58566b1124a061f2550737e7c825494d10a5",
      "blockNumber": "0x8ea034",
      "gasUsed": "0xb51c",
      "effectiveGasPrice": "0x3938707",
      "blobGasPrice": "0x1",
      "from": "0xf39fd6e51aad88f6f4ce6ab8827279cfffb92266",
      "to": "0xe5d7c2a44ffddf6b295a15c148167daaaf5cf34f",
      "contractAddress": null,
      "root": "0x0000000000000000000000000000000000000000000000000000000000000000"
    },
    {
      "status": "0x1",
      "cumulativeGasUsed": "0x12441e",
      "logs": [
        {
          "address": "0x9a9f2ccfde556a7e9ff0848998aa4a0cfd8863ae",
          "topics": [
            "0xddf252ad1be2c89b69c2b068fc378daa952ba7f163c4a11628f55a4df523b3ef",
            "0x0000000000000000000000000000000000000000000000000000000000000000",
            "0x000000000000000000000000f39fd6e51aad88f6f4ce6ab8827279cfffb92266",
            "0x0000000000000000000000000000000000000000000000000000000000000000"
          ],
          "data": "0x",
          "blockHash": "0xe38c8f38e40a8734b80739b6d07fd360f46ea7bf65c16daa8da914f8d3afa0c5",
          "blockNumber": "0x8ea035",
          "blockTimestamp": "0x66e26136",
          "transactionHash": "0xf3af9c7442945ebce9c2292eaf0a4db501acbf8899b44eec3a5dbca564551793",
          "transactionIndex": "0x0",
          "logIndex": "0x0",
          "removed": false
        },
        {
          "address": "0x176211869ca2b568f2a7d4ee941e073a821ee1ff",
          "topics": [
            "0xddf252ad1be2c89b69c2b068fc378daa952ba7f163c4a11628f55a4df523b3ef",
            "0x000000000000000000000000f39fd6e51aad88f6f4ce6ab8827279cfffb92266",
            "0x000000000000000000000000c8c56cee6abc9b297c0f0bd1cc6ee0e8f4e4fc61"
          ],
          "data": "0x0000000000000000000000000000000000000000000000000000000005f5e100",
          "blockHash": "0xe38c8f38e40a8734b80739b6d07fd360f46ea7bf65c16daa8da914f8d3afa0c5",
          "blockNumber": "0x8ea035",
          "blockTimestamp": "0x66e26136",
          "transactionHash": "0xf3af9c7442945ebce9c2292eaf0a4db501acbf8899b44eec3a5dbca564551793",
          "transactionIndex": "0x0",
          "logIndex": "0x1",
          "removed": false
        },
        {
          "address": "0x176211869ca2b568f2a7d4ee941e073a821ee1ff",
          "topics": [
            "0xddf252ad1be2c89b69c2b068fc378daa952ba7f163c4a11628f55a4df523b3ef",
            "0x0000000000000000000000002e207eca8b6bf77a6ac82763eeed2a94de4f081d",
            "0x000000000000000000000000c8c56cee6abc9b297c0f0bd1cc6ee0e8f4e4fc61"
          ],
          "data": "0x000000000000000000000000000000000000000000000000000000000bebc1ff",
          "blockHash": "0xe38c8f38e40a8734b80739b6d07fd360f46ea7bf65c16daa8da914f8d3afa0c5",
          "blockNumber": "0x8ea035",
          "blockTimestamp": "0x66e26136",
          "transactionHash": "0xf3af9c7442945ebce9c2292eaf0a4db501acbf8899b44eec3a5dbca564551793",
          "transactionIndex": "0x0",
          "logIndex": "0x2",
          "removed": false
        },
        {
          "address": "0x176211869ca2b568f2a7d4ee941e073a821ee1ff",
          "topics": [
            "0x8c5be1e5ebec7d5bd14f71427d1e84f3dd0314c0f7b2291e5b200ac8c7c3b925",
            "0x000000000000000000000000c8c56cee6abc9b297c0f0bd1cc6ee0e8f4e4fc61",
            "0x0000000000000000000000002d8879046f1559e53eb052e949e9544bcb72f414"
          ],
          "data": "0x0000000000000000000000000000000000000000000000000000000011e1a2ff",
          "blockHash": "0xe38c8f38e40a8734b80739b6d07fd360f46ea7bf65c16daa8da914f8d3afa0c5",
          "blockNumber": "0x8ea035",
          "blockTimestamp": "0x66e26136",
          "transactionHash": "0xf3af9c7442945ebce9c2292eaf0a4db501acbf8899b44eec3a5dbca564551793",
          "transactionIndex": "0x0",
          "logIndex": "0x3",
          "removed": false
        },
        {
          "address": "0x176211869ca2b568f2a7d4ee941e073a821ee1ff",
          "topics": [
            "0xddf252ad1be2c89b69c2b068fc378daa952ba7f163c4a11628f55a4df523b3ef",
            "0x000000000000000000000000c8c56cee6abc9b297c0f0bd1cc6ee0e8f4e4fc61",
            "0x00000000000000000000000056c85a254dd12ee8d9c04049a4ab62769ce98210"
          ],
          "data": "0x0000000000000000000000000000000000000000000000000000000011e1a2ff",
          "blockHash": "0xe38c8f38e40a8734b80739b6d07fd360f46ea7bf65c16daa8da914f8d3afa0c5",
          "blockNumber": "0x8ea035",
          "blockTimestamp": "0x66e26136",
          "transactionHash": "0xf3af9c7442945ebce9c2292eaf0a4db501acbf8899b44eec3a5dbca564551793",
          "transactionIndex": "0x0",
          "logIndex": "0x4",
          "removed": false
        },
        {
          "address": "0xe5d7c2a44ffddf6b295a15c148167daaaf5cf34f",
          "topics": [
            "0xddf252ad1be2c89b69c2b068fc378daa952ba7f163c4a11628f55a4df523b3ef",
            "0x000000000000000000000000586733678b9ac9da43dd7cb83bbb41d23677dfc3",
            "0x0000000000000000000000002d8879046f1559e53eb052e949e9544bcb72f414"
          ],
          "data": "0x00000000000000000000000000000000000000000000000001c2cbb6766d0f6d",
          "blockHash": "0xe38c8f38e40a8734b80739b6d07fd360f46ea7bf65c16daa8da914f8d3afa0c5",
          "blockNumber": "0x8ea035",
          "blockTimestamp": "0x66e26136",
          "transactionHash": "0xf3af9c7442945ebce9c2292eaf0a4db501acbf8899b44eec3a5dbca564551793",
          "transactionIndex": "0x0",
          "logIndex": "0x5",
          "removed": false
        },
        {
          "address": "0x176211869ca2b568f2a7d4ee941e073a821ee1ff",
          "topics": [
            "0xddf252ad1be2c89b69c2b068fc378daa952ba7f163c4a11628f55a4df523b3ef",
            "0x00000000000000000000000056c85a254dd12ee8d9c04049a4ab62769ce98210",
            "0x000000000000000000000000586733678b9ac9da43dd7cb83bbb41d23677dfc3"
          ],
          "data": "0x0000000000000000000000000000000000000000000000000000000011e1a2ff",
          "blockHash": "0xe38c8f38e40a8734b80739b6d07fd360f46ea7bf65c16daa8da914f8d3afa0c5",
          "blockNumber": "0x8ea035",
          "blockTimestamp": "0x66e26136",
          "transactionHash": "0xf3af9c7442945ebce9c2292eaf0a4db501acbf8899b44eec3a5dbca564551793",
          "transactionIndex": "0x0",
          "logIndex": "0x6",
          "removed": false
        },
        {
          "address": "0x586733678b9ac9da43dd7cb83bbb41d23677dfc3",
          "topics": [
            "0x19b47279256b2a23a1665c810c8d55a1758940ee09377d4f8d26497a3577dc83",
            "0x00000000000000000000000056c85a254dd12ee8d9c04049a4ab62769ce98210",
            "0x0000000000000000000000002d8879046f1559e53eb052e949e9544bcb72f414"
          ],
          "data": "0x0000000000000000000000000000000000000000000000000000000011e1a2fffffffffffffffffffffffffffffffffffffffffffffffffffe3d34498992f093000000000000000000000000000000000000505376ccdf4b6ab6c33d0a9d03b3000000000000000000000000000000000000000000000000003fc90bc1f2a33300000000000000000000000000000000000000000000000000000000000307eb00000000000000000000000000000000000000000000000000000000000026ab0000000000000000000000000000000000000000000000000000000000000000",
          "blockHash": "0xe38c8f38e40a8734b80739b6d07fd360f46ea7bf65c16daa8da914f8d3afa0c5",
          "blockNumber": "0x8ea035",
          "blockTimestamp": "0x66e26136",
          "transactionHash": "0xf3af9c7442945ebce9c2292eaf0a4db501acbf8899b44eec3a5dbca564551793",
          "transactionIndex": "0x0",
          "logIndex": "0x7",
          "removed": false
        },
        {
          "address": "0xe5d7c2a44ffddf6b295a15c148167daaaf5cf34f",
          "topics": [
            "0xddf252ad1be2c89b69c2b068fc378daa952ba7f163c4a11628f55a4df523b3ef",
            "0x0000000000000000000000002d8879046f1559e53eb052e949e9544bcb72f414",
            "0x000000000000000000000000c8c56cee6abc9b297c0f0bd1cc6ee0e8f4e4fc61"
          ],
          "data": "0x00000000000000000000000000000000000000000000000001c1bab3da329f10",
          "blockHash": "0xe38c8f38e40a8734b80739b6d07fd360f46ea7bf65c16daa8da914f8d3afa0c5",
          "blockNumber": "0x8ea035",
          "blockTimestamp": "0x66e26136",
          "transactionHash": "0xf3af9c7442945ebce9c2292eaf0a4db501acbf8899b44eec3a5dbca564551793",
          "transactionIndex": "0x0",
          "logIndex": "0x8",
          "removed": false
        },
        {
          "address": "0x2d8879046f1559e53eb052e949e9544bcb72f414",
          "topics": [
            "0x823eaf01002d7353fbcadb2ea3305cc46fa35d799cb0914846d185ac06f8ad05"
          ],
          "data": "0x000000000000000000000000c8c56cee6abc9b297c0f0bd1cc6ee0e8f4e4fc610000000000000000000000000000000000000000000000000000000011e1a2ff000000000000000000000000176211869ca2b568f2a7d4ee941e073a821ee1ff00000000000000000000000000000000000000000000000001c1bab3da329f10000000000000000000000000e5d7c2a44ffddf6b295a15c148167daaaf5cf34f000000000000000000000000000000000000000000000000000111029c3a705d0000000000000000000000000000000000000000000000000000000000000000",
          "blockHash": "0xe38c8f38e40a8734b80739b6d07fd360f46ea7bf65c16daa8da914f8d3afa0c5",
          "blockNumber": "0x8ea035",
          "blockTimestamp": "0x66e26136",
          "transactionHash": "0xf3af9c7442945ebce9c2292eaf0a4db501acbf8899b44eec3a5dbca564551793",
          "transactionIndex": "0x0",
          "logIndex": "0x9",
          "removed": false
        },
        {
          "address": "0xe5d7c2a44ffddf6b295a15c148167daaaf5cf34f",
          "topics": [
            "0x8c5be1e5ebec7d5bd14f71427d1e84f3dd0314c0f7b2291e5b200ac8c7c3b925",
            "0x000000000000000000000000c8c56cee6abc9b297c0f0bd1cc6ee0e8f4e4fc61",
            "0x0000000000000000000000002f9bb73a8e98793e26cb2f6c4ad037bdf1c6b269"
          ],
          "data": "0x00000000000000000000000000000000000000000000000001c1bab3da329f10",
          "blockHash": "0xe38c8f38e40a8734b80739b6d07fd360f46ea7bf65c16daa8da914f8d3afa0c5",
          "blockNumber": "0x8ea035",
          "blockTimestamp": "0x66e26136",
          "transactionHash": "0xf3af9c7442945ebce9c2292eaf0a4db501acbf8899b44eec3a5dbca564551793",
          "transactionIndex": "0x0",
          "logIndex": "0xa",
          "removed": false
        },
        {
          "address": "0x2f9bb73a8e98793e26cb2f6c4ad037bdf1c6b269",
          "topics": [
            "0x804c9b842b2748a22bb64b345453a3de7ca54a6ca45ce00d415894979e22897a",
            "0x000000000000000000000000e5d7c2a44ffddf6b295a15c148167daaaf5cf34f"
          ],
          "data": "0x0000000000000000000000000000000000000000000b05e73930975d669590a50000000000000000000000000000000000000000002cab645b79e5cd461d631f0000000000000000000000000000000000000000001a7bd768aefb1ea0eb18fb000000000000000000000000000000000000000003529fe1d1e31ab9edb704990000000000000000000000000000000000000000035f30830da71d40dd1592b5",
          "blockHash": "0xe38c8f38e40a8734b80739b6d07fd360f46ea7bf65c16daa8da914f8d3afa0c5",
          "blockNumber": "0x8ea035",
          "blockTimestamp": "0x66e26136",
          "transactionHash": "0xf3af9c7442945ebce9c2292eaf0a4db501acbf8899b44eec3a5dbca564551793",
          "transactionIndex": "0x0",
          "logIndex": "0xb",
          "removed": false
        },
        {
          "address": "0xe5d7c2a44ffddf6b295a15c148167daaaf5cf34f",
          "topics": [
            "0xddf252ad1be2c89b69c2b068fc378daa952ba7f163c4a11628f55a4df523b3ef",
            "0x000000000000000000000000c8c56cee6abc9b297c0f0bd1cc6ee0e8f4e4fc61",
            "0x000000000000000000000000b4ffef15daf4c02787bc5332580b838ce39805f5"
          ],
          "data": "0x00000000000000000000000000000000000000000000000001c1bab3da329f10",
          "blockHash": "0xe38c8f38e40a8734b80739b6d07fd360f46ea7bf65c16daa8da914f8d3afa0c5",
          "blockNumber": "0x8ea035",
          "blockTimestamp": "0x66e26136",
          "transactionHash": "0xf3af9c7442945ebce9c2292eaf0a4db501acbf8899b44eec3a5dbca564551793",
          "transactionIndex": "0x0",
          "logIndex": "0xc",
          "removed": false
        },
        {
          "address": "0x28f6899ff643261ca9766ddc251b359a2d00b945",
          "topics": [
            "0x3303facd24627943a92e9dc87cfbb34b15c49b726eec3ad3487c16be9ab8efe8",
            "0x000000000000000000000000b4ffef15daf4c02787bc5332580b838ce39805f5",
            "0x00000000000000000000000040a59a3f3b16d9e74c811d24d8b7969664cfe180",
            "0x000000000000000000000000c8c56cee6abc9b297c0f0bd1cc6ee0e8f4e4fc61"
          ],
          "data": "0x000000000000000000000000000000000000000000004a6e6ce87410aa4b5006000000000000000000000000000000000000000000004a6e6ce87410aa4b50060000000000000000000000000000000000000000000000000000000000000000",
          "blockHash": "0xe38c8f38e40a8734b80739b6d07fd360f46ea7bf65c16daa8da914f8d3afa0c5",
          "blockNumber": "0x8ea035",
          "blockTimestamp": "0x66e26136",
          "transactionHash": "0xf3af9c7442945ebce9c2292eaf0a4db501acbf8899b44eec3a5dbca564551793",
          "transactionIndex": "0x0",
          "logIndex": "0xd",
          "removed": false
        },
        {
          "address": "0x28f6899ff643261ca9766ddc251b359a2d00b945",
          "topics": [
            "0x3303facd24627943a92e9dc87cfbb34b15c49b726eec3ad3487c16be9ab8efe8",
            "0x000000000000000000000000b4ffef15daf4c02787bc5332580b838ce39805f5",
            "0x00000000000000000000000078354f8dccb269a615a7e0a24f9b0718fdc3c7a7",
            "0x000000000000000000000000c8c56cee6abc9b297c0f0bd1cc6ee0e8f4e4fc61"
          ],
          "data": "0x00000000000000000000000000000000000000000000027f5f83b7756c3c77f400000000000000000000000000000000000000000000027f5f83b7756c3c77f40000000000000000000000000000000000000000000000000000000000000000",
          "blockHash": "0xe38c8f38e40a8734b80739b6d07fd360f46ea7bf65c16daa8da914f8d3afa0c5",
          "blockNumber": "0x8ea035",
          "blockTimestamp": "0x66e26136",
          "transactionHash": "0xf3af9c7442945ebce9c2292eaf0a4db501acbf8899b44eec3a5dbca564551793",
          "transactionIndex": "0x0",
          "logIndex": "0xe",
          "removed": false
        },
        {
          "address": "0xb4ffef15daf4c02787bc5332580b838ce39805f5",
          "topics": [
            "0xddf252ad1be2c89b69c2b068fc378daa952ba7f163c4a11628f55a4df523b3ef",
            "0x0000000000000000000000000000000000000000000000000000000000000000",
            "0x000000000000000000000000c8c56cee6abc9b297c0f0bd1cc6ee0e8f4e4fc61"
          ],
          "data": "0x00000000000000000000000000000000000000000000000001c1bab3da329f10",
          "blockHash": "0xe38c8f38e40a8734b80739b6d07fd360f46ea7bf65c16daa8da914f8d3afa0c5",
          "blockNumber": "0x8ea035",
          "blockTimestamp": "0x66e26136",
          "transactionHash": "0xf3af9c7442945ebce9c2292eaf0a4db501acbf8899b44eec3a5dbca564551793",
          "transactionIndex": "0x0",
          "logIndex": "0xf",
          "removed": false
        },
        {
          "address": "0xb4ffef15daf4c02787bc5332580b838ce39805f5",
          "topics": [
            "0x458f5fa412d0f69b08dd84872b0215675cc67bc1d5b6fd93300a1c3878b86196",
            "0x000000000000000000000000c8c56cee6abc9b297c0f0bd1cc6ee0e8f4e4fc61",
            "0x000000000000000000000000c8c56cee6abc9b297c0f0bd1cc6ee0e8f4e4fc61"
          ],
          "data": "0x00000000000000000000000000000000000000000000000001c1bab3da329f100000000000000000000000000000000000000000000000000000000000000000000000000000000000000000000000000000000003529fe1d1e31ab9edb70499",
          "blockHash": "0xe38c8f38e40a8734b80739b6d07fd360f46ea7bf65c16daa8da914f8d3afa0c5",
          "blockNumber": "0x8ea035",
          "blockTimestamp": "0x66e26136",
          "transactionHash": "0xf3af9c7442945ebce9c2292eaf0a4db501acbf8899b44eec3a5dbca564551793",
          "transactionIndex": "0x0",
          "logIndex": "0x10",
          "removed": false
        },
        {
          "address": "0x2f9bb73a8e98793e26cb2f6c4ad037bdf1c6b269",
          "topics": [
            "0x00058a56ea94653cdf4f152d227ace22d4c00ad99e2a43f58cb7d9e3feb295f2",
            "0x000000000000000000000000e5d7c2a44ffddf6b295a15c148167daaaf5cf34f",
            "0x000000000000000000000000c8c56cee6abc9b297c0f0bd1cc6ee0e8f4e4fc61"
          ],
          "data": "0x",
          "blockHash": "0xe38c8f38e40a8734b80739b6d07fd360f46ea7bf65c16daa8da914f8d3afa0c5",
          "blockNumber": "0x8ea035",
          "blockTimestamp": "0x66e26136",
          "transactionHash": "0xf3af9c7442945ebce9c2292eaf0a4db501acbf8899b44eec3a5dbca564551793",
          "transactionIndex": "0x0",
          "logIndex": "0x11",
          "removed": false
        },
        {
          "address": "0x2f9bb73a8e98793e26cb2f6c4ad037bdf1c6b269",
          "topics": [
            "0x2b627736bca15cd5381dcf80b0bf11fd197d01a037c52b927a881a10fb73ba61",
            "0x000000000000000000000000e5d7c2a44ffddf6b295a15c148167daaaf5cf34f",
            "0x000000000000000000000000c8c56cee6abc9b297c0f0bd1cc6ee0e8f4e4fc61",
            "0x0000000000000000000000000000000000000000000000000000000000000000"
          ],
          "data": "0x000000000000000000000000c8c56cee6abc9b297c0f0bd1cc6ee0e8f4e4fc6100000000000000000000000000000000000000000000000001c1bab3da329f10",
          "blockHash": "0xe38c8f38e40a8734b80739b6d07fd360f46ea7bf65c16daa8da914f8d3afa0c5",
          "blockNumber": "0x8ea035",
          "blockTimestamp": "0x66e26136",
          "transactionHash": "0xf3af9c7442945ebce9c2292eaf0a4db501acbf8899b44eec3a5dbca564551793",
          "transactionIndex": "0x0",
          "logIndex": "0x12",
          "removed": false
        },
        {
          "address": "0x28f6899ff643261ca9766ddc251b359a2d00b945",
          "topics": [
            "0x3303facd24627943a92e9dc87cfbb34b15c49b726eec3ad3487c16be9ab8efe8",
            "0x000000000000000000000000a2703dc9fbaccd6ec2e4cbfa700989d0238133f6",
            "0x00000000000000000000000040a59a3f3b16d9e74c811d24d8b7969664cfe180",
            "0x000000000000000000000000c8c56cee6abc9b297c0f0bd1cc6ee0e8f4e4fc61"
          ],
          "data": "0x0000000000000000000000000000000000000000000000053f69899e410bb3ed0000000000000000000000000000000000000000000000053f69899e410bb3ed0000000000000000000000000000000000000000000000000000000000000000",
          "blockHash": "0xe38c8f38e40a8734b80739b6d07fd360f46ea7bf65c16daa8da914f8d3afa0c5",
          "blockNumber": "0x8ea035",
          "blockTimestamp": "0x66e26136",
          "transactionHash": "0xf3af9c7442945ebce9c2292eaf0a4db501acbf8899b44eec3a5dbca564551793",
          "transactionIndex": "0x0",
          "logIndex": "0x13",
          "removed": false
        },
        {
          "address": "0x28f6899ff643261ca9766ddc251b359a2d00b945",
          "topics": [
            "0x3303facd24627943a92e9dc87cfbb34b15c49b726eec3ad3487c16be9ab8efe8",
            "0x000000000000000000000000a2703dc9fbaccd6ec2e4cbfa700989d0238133f6",
            "0x00000000000000000000000078354f8dccb269a615a7e0a24f9b0718fdc3c7a7",
            "0x000000000000000000000000c8c56cee6abc9b297c0f0bd1cc6ee0e8f4e4fc61"
          ],
          "data": "0x0000000000000000000000000000000000000000000000016cd815a05e162f320000000000000000000000000000000000000000000000016cd815a05e162f320000000000000000000000000000000000000000000000000000000000000000",
          "blockHash": "0xe38c8f38e40a8734b80739b6d07fd360f46ea7bf65c16daa8da914f8d3afa0c5",
          "blockNumber": "0x8ea035",
          "blockTimestamp": "0x66e26136",
          "transactionHash": "0xf3af9c7442945ebce9c2292eaf0a4db501acbf8899b44eec3a5dbca564551793",
          "transactionIndex": "0x0",
          "logIndex": "0x14",
          "removed": false
        },
        {
          "address": "0xa2703dc9fbaccd6ec2e4cbfa700989d0238133f6",
          "topics": [
            "0xddf252ad1be2c89b69c2b068fc378daa952ba7f163c4a11628f55a4df523b3ef",
            "0x0000000000000000000000000000000000000000000000000000000000000000",
            "0x000000000000000000000000c8c56cee6abc9b297c0f0bd1cc6ee0e8f4e4fc61"
          ],
          "data": "0x000000000000000000000000000000000000000000000000000000000bed489f",
          "blockHash": "0xe38c8f38e40a8734b80739b6d07fd360f46ea7bf65c16daa8da914f8d3afa0c5",
          "blockNumber": "0x8ea035",
          "blockTimestamp": "0x66e26136",
          "transactionHash": "0xf3af9c7442945ebce9c2292eaf0a4db501acbf8899b44eec3a5dbca564551793",
          "transactionIndex": "0x0",
          "logIndex": "0x15",
          "removed": false
        },
        {
          "address": "0xa2703dc9fbaccd6ec2e4cbfa700989d0238133f6",
          "topics": [
            "0x458f5fa412d0f69b08dd84872b0215675cc67bc1d5b6fd93300a1c3878b86196",
            "0x000000000000000000000000c8c56cee6abc9b297c0f0bd1cc6ee0e8f4e4fc61",
            "0x000000000000000000000000c8c56cee6abc9b297c0f0bd1cc6ee0e8f4e4fc61"
          ],
          "data": "0x000000000000000000000000000000000000000000000000000000000bed489f00000000000000000000000000000000000000000000000000000000000000000000000000000000000000000000000000000000036afffb6d6beef499c83013",
          "blockHash": "0xe38c8f38e40a8734b80739b6d07fd360f46ea7bf65c16daa8da914f8d3afa0c5",
          "blockNumber": "0x8ea035",
          "blockTimestamp": "0x66e26136",
          "transactionHash": "0xf3af9c7442945ebce9c2292eaf0a4db501acbf8899b44eec3a5dbca564551793",
          "transactionIndex": "0x0",
          "logIndex": "0x16",
          "removed": false
        },
        {
          "address": "0x2f9bb73a8e98793e26cb2f6c4ad037bdf1c6b269",
          "topics": [
            "0x804c9b842b2748a22bb64b345453a3de7ca54a6ca45ce00d415894979e22897a",
            "0x000000000000000000000000176211869ca2b568f2a7d4ee941e073a821ee1ff"
          ],
          "data": "0x00000000000000000000000000000000000000000097423828bba9116cbcbbdd000000000000000000000000000000000000000001032a6ce8a1f6e996dcbfb2000000000000000000000000000000000000000000f6c20d4783f4fd27dcbfb20000000000000000000000000000000000000000035d67de91c9f66c8254f36c0000000000000000000000000000000000000000036afffb6d6beef499c83013",
          "blockHash": "0xe38c8f38e40a8734b80739b6d07fd360f46ea7bf65c16daa8da914f8d3afa0c5",
          "blockNumber": "0x8ea035",
          "blockTimestamp": "0x66e26136",
          "transactionHash": "0xf3af9c7442945ebce9c2292eaf0a4db501acbf8899b44eec3a5dbca564551793",
          "transactionIndex": "0x0",
          "logIndex": "0x17",
          "removed": false
        },
        {
          "address": "0x176211869ca2b568f2a7d4ee941e073a821ee1ff",
          "topics": [
            "0xddf252ad1be2c89b69c2b068fc378daa952ba7f163c4a11628f55a4df523b3ef",
            "0x0000000000000000000000002e207eca8b6bf77a6ac82763eeed2a94de4f081d",
            "0x000000000000000000000000c8c56cee6abc9b297c0f0bd1cc6ee0e8f4e4fc61"
          ],
          "data": "0x000000000000000000000000000000000000000000000000000000000bed489f",
          "blockHash": "0xe38c8f38e40a8734b80739b6d07fd360f46ea7bf65c16daa8da914f8d3afa0c5",
          "blockNumber": "0x8ea035",
          "blockTimestamp": "0x66e26136",
          "transactionHash": "0xf3af9c7442945ebce9c2292eaf0a4db501acbf8899b44eec3a5dbca564551793",
          "transactionIndex": "0x0",
          "logIndex": "0x18",
          "removed": false
        },
        {
          "address": "0x2f9bb73a8e98793e26cb2f6c4ad037bdf1c6b269",
          "topics": [
            "0xb3d084820fb1a9decffb176436bd02558d15fac9b0ddfed8c465bc7359d7dce0",
            "0x000000000000000000000000176211869ca2b568f2a7d4ee941e073a821ee1ff",
            "0x000000000000000000000000c8c56cee6abc9b297c0f0bd1cc6ee0e8f4e4fc61",
            "0x0000000000000000000000000000000000000000000000000000000000000000"
          ],
          "data": "0x000000000000000000000000c8c56cee6abc9b297c0f0bd1cc6ee0e8f4e4fc61000000000000000000000000000000000000000000000000000000000bed489f0000000000000000000000000000000000000000000000000000000000000002000000000000000000000000000000000000000000f6c20d4783f4fd27dcbfb2",
          "blockHash": "0xe38c8f38e40a8734b80739b6d07fd360f46ea7bf65c16daa8da914f8d3afa0c5",
          "blockNumber": "0x8ea035",
          "blockTimestamp": "0x66e26136",
          "transactionHash": "0xf3af9c7442945ebce9c2292eaf0a4db501acbf8899b44eec3a5dbca564551793",
          "transactionIndex": "0x0",
          "logIndex": "0x19",
          "removed": false
        },
        {
          "address": "0x176211869ca2b568f2a7d4ee941e073a821ee1ff",
          "topics": [
            "0x8c5be1e5ebec7d5bd14f71427d1e84f3dd0314c0f7b2291e5b200ac8c7c3b925",
            "0x000000000000000000000000c8c56cee6abc9b297c0f0bd1cc6ee0e8f4e4fc61",
            "0x0000000000000000000000002d8879046f1559e53eb052e949e9544bcb72f414"
          ],
          "data": "0x0000000000000000000000000000000000000000000000000000000000000000",
          "blockHash": "0xe38c8f38e40a8734b80739b6d07fd360f46ea7bf65c16daa8da914f8d3afa0c5",
          "blockNumber": "0x8ea035",
          "blockTimestamp": "0x66e26136",
          "transactionHash": "0xf3af9c7442945ebce9c2292eaf0a4db501acbf8899b44eec3a5dbca564551793",
          "transactionIndex": "0x0",
          "logIndex": "0x1a",
          "removed": false
        },
        {
          "address": "0xe5d7c2a44ffddf6b295a15c148167daaaf5cf34f",
          "topics": [
            "0x8c5be1e5ebec7d5bd14f71427d1e84f3dd0314c0f7b2291e5b200ac8c7c3b925",
            "0x000000000000000000000000c8c56cee6abc9b297c0f0bd1cc6ee0e8f4e4fc61",
            "0x0000000000000000000000002f9bb73a8e98793e26cb2f6c4ad037bdf1c6b269"
          ],
          "data": "0x0000000000000000000000000000000000000000000000000000000000000000",
          "blockHash": "0xe38c8f38e40a8734b80739b6d07fd360f46ea7bf65c16daa8da914f8d3afa0c5",
          "blockNumber": "0x8ea035",
          "blockTimestamp": "0x66e26136",
          "transactionHash": "0xf3af9c7442945ebce9c2292eaf0a4db501acbf8899b44eec3a5dbca564551793",
          "transactionIndex": "0x0",
          "logIndex": "0x1b",
          "removed": false
        },
        {
          "address": "0x176211869ca2b568f2a7d4ee941e073a821ee1ff",
          "topics": [
            "0x8c5be1e5ebec7d5bd14f71427d1e84f3dd0314c0f7b2291e5b200ac8c7c3b925",
            "0x000000000000000000000000c8c56cee6abc9b297c0f0bd1cc6ee0e8f4e4fc61",
            "0x0000000000000000000000002f9bb73a8e98793e26cb2f6c4ad037bdf1c6b269"
          ],
          "data": "0x000000000000000000000000000000000000000000000000000000000bed489f",
          "blockHash": "0xe38c8f38e40a8734b80739b6d07fd360f46ea7bf65c16daa8da914f8d3afa0c5",
          "blockNumber": "0x8ea035",
          "blockTimestamp": "0x66e26136",
          "transactionHash": "0xf3af9c7442945ebce9c2292eaf0a4db501acbf8899b44eec3a5dbca564551793",
          "transactionIndex": "0x0",
          "logIndex": "0x1c",
          "removed": false
        },
        {
          "address": "0x2f9bb73a8e98793e26cb2f6c4ad037bdf1c6b269",
          "topics": [
            "0x804c9b842b2748a22bb64b345453a3de7ca54a6ca45ce00d415894979e22897a",
            "0x000000000000000000000000176211869ca2b568f2a7d4ee941e073a821ee1ff"
          ],
          "data": "0x0000000000000000000000000000000000000000009734af52049ffffae76bf60000000000000000000000000000000000000000010315737b58deb9948d25a2000000000000000000000000000000000000000000f6ad13da3adccd258d25a20000000000000000000000000000000000000000035d67df102a70bcf7a9abe30000000000000000000000000000000000000000036afffb6d6beef499c83013",
          "blockHash": "0xe38c8f38e40a8734b80739b6d07fd360f46ea7bf65c16daa8da914f8d3afa0c5",
          "blockNumber": "0x8ea035",
          "blockTimestamp": "0x66e26136",
          "transactionHash": "0xf3af9c7442945ebce9c2292eaf0a4db501acbf8899b44eec3a5dbca564551793",
          "transactionIndex": "0x0",
          "logIndex": "0x1d",
          "removed": false
        },
        {
          "address": "0x176211869ca2b568f2a7d4ee941e073a821ee1ff",
          "topics": [
            "0xddf252ad1be2c89b69c2b068fc378daa952ba7f163c4a11628f55a4df523b3ef",
            "0x000000000000000000000000c8c56cee6abc9b297c0f0bd1cc6ee0e8f4e4fc61",
            "0x0000000000000000000000002e207eca8b6bf77a6ac82763eeed2a94de4f081d"
          ],
          "data": "0x000000000000000000000000000000000000000000000000000000000bed489f",
          "blockHash": "0xe38c8f38e40a8734b80739b6d07fd360f46ea7bf65c16daa8da914f8d3afa0c5",
          "blockNumber": "0x8ea035",
          "blockTimestamp": "0x66e26136",
          "transactionHash": "0xf3af9c7442945ebce9c2292eaf0a4db501acbf8899b44eec3a5dbca564551793",
          "transactionIndex": "0x0",
          "logIndex": "0x1e",
          "removed": false
        },
        {
          "address": "0x2f9bb73a8e98793e26cb2f6c4ad037bdf1c6b269",
          "topics": [
            "0xefefaba5e921573100900a3ad9cf29f222d995fb3b6045797eaea7521bd8d6f0",
            "0x000000000000000000000000c8c56cee6abc9b297c0f0bd1cc6ee0e8f4e4fc61",
            "0x000000000000000000000000176211869ca2b568f2a7d4ee941e073a821ee1ff",
            "0x0000000000000000000000000000000000000000000000000000000000000000"
          ],
          "data": "0x000000000000000000000000c8c56cee6abc9b297c0f0bd1cc6ee0e8f4e4fc61000000000000000000000000000000000000000000000000000000000bebc1ff000000000000000000000000000000000000000000000000000000000000000000000000000000000000000000000000000000000000000000000000000186a0",
          "blockHash": "0xe38c8f38e40a8734b80739b6d07fd360f46ea7bf65c16daa8da914f8d3afa0c5",
          "blockNumber": "0x8ea035",
          "blockTimestamp": "0x66e26136",
          "transactionHash": "0xf3af9c7442945ebce9c2292eaf0a4db501acbf8899b44eec3a5dbca564551793",
          "transactionIndex": "0x0",
          "logIndex": "0x1f",
          "removed": false
        }
      ],
      "logsBloom": "0x00000000004009040080000000000000008000004000000000000000000000000800a0002000080000001000000600000010080000100014000401000020000004000020004000000008000802000000204000000000000200000004004000000080000202000000008000012000080180400000120000000100001020040000000002008000000800100004000000000000000000000000008000040000004002080000020000040000080002000010000000000010080100000000a00001000250000208400120000000204000000000020000a0000e0000000000000020000010200000008020000000000001000040000000000002000000401000100000",
      "type": "0x2",
      "transactionHash": "0xf3af9c7442945ebce9c2292eaf0a4db501acbf8899b44eec3a5dbca564551793",
      "transactionIndex": "0x0",
      "blockHash": "0xe38c8f38e40a8734b80739b6d07fd360f46ea7bf65c16daa8da914f8d3afa0c5",
      "blockNumber": "0x8ea035",
      "gasUsed": "0x12441e",
      "effectiveGasPrice": "0x3938707",
      "blobGasPrice": "0x1",
      "from": "0xf39fd6e51aad88f6f4ce6ab8827279cfffb92266",
      "to": "0x0b306bf915c4d645ff596e518faf3f9669b97016",
      "contractAddress": null,
      "root": "0x0000000000000000000000000000000000000000000000000000000000000000"
    }
  ],
  "libraries": [],
  "pending": [],
  "returns": {},
  "timestamp": 1726112053,
  "chain": 59144,
  "commit": "4a57ec2"
}