{
  "transactions": [
    {
      "hash": "0x15f3d36f82cf0da6949ff12a1d76f10e72e75a1913a2021361473c6aec6448c2",
      "transactionType": "CALL",
      "contractName": null,
      "contractAddress": "0xe5d7c2a44ffddf6b295a15c148167daaaf5cf34f",
      "function": "deposit()",
      "arguments": [],
      "transaction": {
        "from": "0xf39fd6e51aad88f6f4ce6ab8827279cfffb92266",
        "to": "0xe5d7c2a44ffddf6b295a15c148167daaaf5cf34f",
        "gas": "0xf2ff",
        "value": "0xde0b6b3a7640000",
        "input": "0xd0e30db0",
        "nonce": "0x1f",
        "chainId": "0xe708"
      },
      "additionalContracts": [],
      "isFixedGasLimit": false
    },
    {
      "hash": "0x6640474d1cb8c4bb7ce1067a29327b51a0016e7e168b6d3a0470c2a6ec164d47",
      "transactionType": "CALL",
      "contractName": null,
      "contractAddress": "0xe5d7c2a44ffddf6b295a15c148167daaaf5cf34f",
      "function": "approve(address,uint256)",
      "arguments": [
        "0x2d8879046f1559E53eb052E949e9544bCB72f414",
        "115792089237316195423570985008687907853269984665640564039457584007913129639935"
      ],
      "transaction": {
        "from": "0xf39fd6e51aad88f6f4ce6ab8827279cfffb92266",
        "to": "0xe5d7c2a44ffddf6b295a15c148167daaaf5cf34f",
        "gas": "0xfa27",
        "value": "0x0",
        "input": "0x095ea7b30000000000000000000000002d8879046f1559e53eb052e949e9544bcb72f414ffffffffffffffffffffffffffffffffffffffffffffffffffffffffffffffff",
        "nonce": "0x20",
        "chainId": "0xe708"
      },
      "additionalContracts": [],
      "isFixedGasLimit": false
    },
    {
      "hash": "0x18c9a8cb5052f635cc848a3b8f9b933aa61acc7b0de99c51f39482c4fb721962",
      "transactionType": "CALL",
      "contractName": null,
      "contractAddress": "0x2d8879046f1559e53eb052e949e9544bcb72f414",
      "function": null,
      "arguments": null,
      "transaction": {
        "from": "0xf39fd6e51aad88f6f4ce6ab8827279cfffb92266",
        "to": "0x2d8879046f1559e53eb052e949e9544bcb72f414",
        "gas": "0xa7281",
        "value": "0x0",
        "input": "0x83bd37f90001e5d7c2a44ffddf6b295a15c148167daaaf5cf34f0001176211869ca2b568f2a7d4ee941e073a821ee1ff080de0b6b3a7640000049c844e87028f5c000156c85a254dd12ee8d9c04049a4ab62769ce9821000000001f39fd6e51aad88f6f4ce6ab8827279cfffb9226600000000030102040139a68c310a0101010200000a0101030200ff000000000000000000003cb104f044db23d6513f2a6100a1997fa5e3f587e5d7c2a44ffddf6b295a15c148167daaaf5cf34f64bccad8e7302e81b09894f56f6bba85ae82cd0300000000",
        "nonce": "0x21",
        "chainId": "0xe708"
      },
      "additionalContracts": [],
      "isFixedGasLimit": false
    },
    {
      "hash": "0xa351e61990351cb1ef3cd05636f7ece88880849dffef520b912cf4c0b6a8b853",
      "transactionType": "CALL",
      "contractName": null,
      "contractAddress": "0x176211869ca2b568f2a7d4ee941e073a821ee1ff",
      "function": "approve(address,uint256)",
      "arguments": [
        "0x0B306BF915C4d645ff596e518fAf3F9669b97016",
        "115792089237316195423570985008687907853269984665640564039457584007913129639935"
      ],
      "transaction": {
        "from": "0xf39fd6e51aad88f6f4ce6ab8827279cfffb92266",
        "to": "0x176211869ca2b568f2a7d4ee941e073a821ee1ff",
        "gas": "0x144c0",
        "value": "0x0",
        "input": "0x095ea7b30000000000000000000000000b306bf915c4d645ff596e518faf3f9669b97016ffffffffffffffffffffffffffffffffffffffffffffffffffffffffffffffff",
        "nonce": "0x22",
        "chainId": "0xe708"
      },
      "additionalContracts": [],
      "isFixedGasLimit": false
    },
    {
      "hash": "0x84359e8aac3aed16eb69976115223ae3e22e526775438cbba596d2ff993ed2f0",
      "transactionType": "CALL",
      "contractName": null,
      "contractAddress": "0xe5d7c2a44ffddf6b295a15c148167daaaf5cf34f",
      "function": "approve(address,uint256)",
      "arguments": [
        "0x0B306BF915C4d645ff596e518fAf3F9669b97016",
        "115792089237316195423570985008687907853269984665640564039457584007913129639935"
      ],
      "transaction": {
        "from": "0xf39fd6e51aad88f6f4ce6ab8827279cfffb92266",
        "to": "0xe5d7c2a44ffddf6b295a15c148167daaaf5cf34f",
        "gas": "0xfa27",
        "value": "0x0",
        "input": "0x095ea7b30000000000000000000000000b306bf915c4d645ff596e518faf3f9669b97016ffffffffffffffffffffffffffffffffffffffffffffffffffffffffffffffff",
        "nonce": "0x23",
        "chainId": "0xe708"
      },
      "additionalContracts": [],
      "isFixedGasLimit": false
    },
    {
      "hash": "0x49a7354e78592aea2b61684874c38a5ad9594d8b773c0441833448bfa114b826",
      "transactionType": "CALL",
      "contractName": null,
      "contractAddress": "0x176211869ca2b568f2a7d4ee941e073a821ee1ff",
      "function": "approve(address,uint256)",
      "arguments": [
        "0x0B306BF915C4d645ff596e518fAf3F9669b97016",
        "115792089237316195423570985008687907853269984665640564039457584007913129639935"
      ],
      "transaction": {
        "from": "0xf39fd6e51aad88f6f4ce6ab8827279cfffb92266",
        "to": "0x176211869ca2b568f2a7d4ee941e073a821ee1ff",
        "gas": "0xe62b",
        "value": "0x0",
        "input": "0x095ea7b30000000000000000000000000b306bf915c4d645ff596e518faf3f9669b97016ffffffffffffffffffffffffffffffffffffffffffffffffffffffffffffffff",
        "nonce": "0x24",
        "chainId": "0xe708"
      },
      "additionalContracts": [],
      "isFixedGasLimit": false
    },
    {
      "hash": "0x9acd3d55a94b6c33a0134f9d17210d19a78443ca80bda517c9da0fb6720eaba9",
      "transactionType": "CALL",
      "contractName": null,
      "contractAddress": "0x0b306bf915c4d645ff596e518faf3f9669b97016",
      "function": "createAndAddToPosition((string,address,address),(uint256,uint256,bytes))",
      "arguments": [
        "(\"LONG_QUOTE_ODOS_ZEROLEND\", 0x176211869cA2b568f2A7D4EE941E073a821EE1ff, 0xe5D7C2a44FfDDf6b295A15c148167daaAf5Cf34f)",
        "(100000000, 300000000, 0x83bd37f90001176211869ca2b568f2a7d4ee941e073a821ee1ff0001e5d7c2a44ffddf6b295a15c148167daaaf5cf34f0417d7840008021d0a6214ee1560028f5c000156c85a254dd12ee8d9c04049a4ab62769ce98210000000018ee06e608de47ea1b185583aca65e34f2fd79b1300000000040103050143fa0d0d0d0101010201000902000203040a0101040301ff00000000564e52bbdf3adf10272f3f33b00d65b2ee48afff176211869ca2b568f2a7d4ee941e073a821ee1ff3aab2285ddcddad8edf438c1bab47e1a9d05a9b4f11bb479dc3daffe63989b6b95f6c119225dac2800000000000000000000000000000000)"
      ],
      "transaction": {
        "from": "0xf39fd6e51aad88f6f4ce6ab8827279cfffb92266",
        "to": "0x0b306bf915c4d645ff596e518faf3f9669b97016",
        "gas": "0x1e3418",
        "value": "0x0",
        "input": "0x211d9b04000000000000000000000000000000000000000000000000000000000000004000000000000000000000000000000000000000000000000000000000000000e00000000000000000000000000000000000000000000000000000000000000060000000000000000000000000176211869ca2b568f2a7d4ee941e073a821ee1ff000000000000000000000000e5d7c2a44ffddf6b295a15c148167daaaf5cf34f00000000000000000000000000000000000000000000000000000000000000184c4f4e475f51554f54455f4f444f535f5a45524f4c454e4400000000000000000000000000000000000000000000000000000000000000000000000005f5e1000000000000000000000000000000000000000000000000000000000011e1a300000000000000000000000000000000000000000000000000000000000000006000000000000000000000000000000000000000000000000000000000000000f483bd37f90001176211869ca2b568f2a7d4ee941e073a821ee1ff0001e5d7c2a44ffddf6b295a15c148167daaaf5cf34f0417d7840008021d0a6214ee1560028f5c000156c85a254dd12ee8d9c04049a4ab62769ce98210000000018ee06e608de47ea1b185583aca65e34f2fd79b1300000000040103050143fa0d0d0d0101010201000902000203040a0101040301ff00000000564e52bbdf3adf10272f3f33b00d65b2ee48afff176211869ca2b568f2a7d4ee941e073a821ee1ff3aab2285ddcddad8edf438c1bab47e1a9d05a9b4f11bb479dc3daffe63989b6b95f6c119225dac2800000000000000000000000000000000000000000000000000000000",
        "nonce": "0x25",
        "chainId": "0xe708"
      },
      "additionalContracts": [
        {
          "transactionType": "CREATE2",
          "address": "0x8ee06e608de47ea1b185583aca65e34f2fd79b13",
          "initCode": "0x60a060405234801561001057600080fd5b506040516101d43803806101d483398101604081905261002f9161009a565b6001600160a01b0381166100895760405162461bcd60e51b815260206004820152601e60248201527f496e76616c696420696d706c656d656e746174696f6e20616464726573730000604482015260640160405180910390fd5b6001600160a01b03166080526100ca565b6000602082840312156100ac57600080fd5b81516001600160a01b03811681146100c357600080fd5b9392505050565b60805160ec6100e860003960008181602001526055015260ec6000f3fe608060405260043610601c5760003560e01c80635c60da1b146045575b60437f00000000000000000000000000000000000000000000000000000000000000006093565b005b348015605057600080fd5b5060777f000000000000000000000000000000000000000000000000000000000000000081565b6040516001600160a01b03909116815260200160405180910390f35b3660008037600080366000845af43d6000803e80801560b1573d6000f35b3d6000fdfea2646970667358221220ece5f241c936be627b009529639055436949a725352d983e1257a877a1e6225564736f6c6343000819003300000000000000000000000068b1d87f95878fe05b998f19b66f4baba5de1aed"
        }
      ],
      "isFixedGasLimit": false
    }
  ],
  "receipts": [
    {
      "status": "0x1",
      "cumulativeGasUsed": "0xafee",
      "logs": [
        {
          "address": "0xe5d7c2a44ffddf6b295a15c148167daaaf5cf34f",
          "topics": [
            "0xe1fffcc4923d04b559f4d29a8bfc6cda04eb5b0d3c460751c2402c5c5cc9109c",
            "0x000000000000000000000000f39fd6e51aad88f6f4ce6ab8827279cfffb92266"
          ],
          "data": "0x0000000000000000000000000000000000000000000000000de0b6b3a7640000",
          "blockHash": "0x9f0f552ce2df600ad8a2c4ee8456c3a4417e48cf98d5043607079b6c24e1ad4e",
          "blockNumber": "0x9754e7",
          "blockTimestamp": "0x66f3d348",
          "transactionHash": "0x15f3d36f82cf0da6949ff12a1d76f10e72e75a1913a2021361473c6aec6448c2",
          "transactionIndex": "0x0",
          "logIndex": "0x0",
          "removed": false
        }
      ],
      "logsBloom": "0x0000000000000000000000000000000000000000000000000000000000000000000000000000000000000000000000000000000000000000000000000000000000000000000000000000000000000000000000000000000000000000800000000000000000000000000000010000000000000000000000000000000000000000000000000000000000100000000000000000000100000000000000000000000000000000000000000000000000000000000000000000000000000000200000000000000000000020000000000000000000000000a000000000000000000000000000000000000000000000000000000000000000000000400000000000000000",
      "type": "0x2",
      "transactionHash": "0x15f3d36f82cf0da6949ff12a1d76f10e72e75a1913a2021361473c6aec6448c2",
      "transactionIndex": "0x0",
      "blockHash": "0x9f0f552ce2df600ad8a2c4ee8456c3a4417e48cf98d5043607079b6c24e1ad4e",
      "blockNumber": "0x9754e7",
      "gasUsed": "0xafee",
      "effectiveGasPrice": "0x4bd0dbf",
      "blobGasPrice": "0x1",
      "from": "0xf39fd6e51aad88f6f4ce6ab8827279cfffb92266",
      "to": "0xe5d7c2a44ffddf6b295a15c148167daaaf5cf34f",
      "contractAddress": null,
      "root": "0x0000000000000000000000000000000000000000000000000000000000000000"
    },
    {
      "status": "0x1",
      "cumulativeGasUsed": "0xb51c",
      "logs": [
        {
          "address": "0xe5d7c2a44ffddf6b295a15c148167daaaf5cf34f",
          "topics": [
            "0x8c5be1e5ebec7d5bd14f71427d1e84f3dd0314c0f7b2291e5b200ac8c7c3b925",
            "0x000000000000000000000000f39fd6e51aad88f6f4ce6ab8827279cfffb92266",
            "0x0000000000000000000000002d8879046f1559e53eb052e949e9544bcb72f414"
          ],
          "data": "0xffffffffffffffffffffffffffffffffffffffffffffffffffffffffffffffff",
          "blockHash": "0x2e3b780694bb09639bf732612a51eefe3b25c0a3544e78dad36c465afcc4c51f",
          "blockNumber": "0x9754e8",
          "blockTimestamp": "0x66f3d349",
          "transactionHash": "0x6640474d1cb8c4bb7ce1067a29327b51a0016e7e168b6d3a0470c2a6ec164d47",
          "transactionIndex": "0x0",
          "logIndex": "0x0",
          "removed": false
        }
      ],
      "logsBloom": "0x0000000000000000000000000000000000000000000000000000000000000000000000000000000000001000000000000000000000000000000000000020000000000000000000000000000000000000000000000000000000000000000000000000000000000000008000010000000000000000000000000000000000000000000000000000000000100000000000000000000000000000000000000000000002000000020000000000000000000000000000000000000000000000200000000000000000000020000000000000000000000000a000000000000000000000000010000000000000000000000000000000000000000000000000000000000000",
      "type": "0x2",
      "transactionHash": "0x6640474d1cb8c4bb7ce1067a29327b51a0016e7e168b6d3a0470c2a6ec164d47",
      "transactionIndex": "0x0",
      "blockHash": "0x2e3b780694bb09639bf732612a51eefe3b25c0a3544e78dad36c465afcc4c51f",
      "blockNumber": "0x9754e8",
      "gasUsed": "0xb51c",
      "effectiveGasPrice": "0x4bd0dbf",
      "blobGasPrice": "0x1",
      "from": "0xf39fd6e51aad88f6f4ce6ab8827279cfffb92266",
      "to": "0xe5d7c2a44ffddf6b295a15c148167daaaf5cf34f",
      "contractAddress": null,
      "root": "0x0000000000000000000000000000000000000000000000000000000000000000"
    },
    {
      "status": "0x1",
      "cumulativeGasUsed": "0x78eb5",
      "logs": [
        {
          "address": "0xe5d7c2a44ffddf6b295a15c148167daaaf5cf34f",
          "topics": [
            "0xddf252ad1be2c89b69c2b068fc378daa952ba7f163c4a11628f55a4df523b3ef",
            "0x000000000000000000000000f39fd6e51aad88f6f4ce6ab8827279cfffb92266",
            "0x00000000000000000000000056c85a254dd12ee8d9c04049a4ab62769ce98210"
          ],
          "data": "0x0000000000000000000000000000000000000000000000000de0b6b3a7640000",
          "blockHash": "0x2e4c71bcfd146c9737b4464d7151933b56ea9a69f0fd9869db0eeeaf68c0caaa",
          "blockNumber": "0x9754e9",
          "blockTimestamp": "0x66f3d34a",
          "transactionHash": "0x18c9a8cb5052f635cc848a3b8f9b933aa61acc7b0de99c51f39482c4fb721962",
          "transactionIndex": "0x0",
          "logIndex": "0x0",
          "removed": false
        },
        {
          "address": "0x3cb104f044db23d6513f2a6100a1997fa5e3f587",
          "topics": [
            "0x598b9f043c813aa6be3426ca60d1c65d17256312890be5118dab55b0775ebe2a"
          ],
          "data": "0x0000000000000000000000000000000000000000000000000000000000000234",
          "blockHash": "0x2e4c71bcfd146c9737b4464d7151933b56ea9a69f0fd9869db0eeeaf68c0caaa",
          "blockNumber": "0x9754e9",
          "blockTimestamp": "0x66f3d34a",
          "transactionHash": "0x18c9a8cb5052f635cc848a3b8f9b933aa61acc7b0de99c51f39482c4fb721962",
          "transactionIndex": "0x0",
          "logIndex": "0x1",
          "removed": false
        },
        {
          "address": "0x176211869ca2b568f2a7d4ee941e073a821ee1ff",
          "topics": [
            "0xddf252ad1be2c89b69c2b068fc378daa952ba7f163c4a11628f55a4df523b3ef",
            "0x0000000000000000000000003cb104f044db23d6513f2a6100a1997fa5e3f587",
            "0x0000000000000000000000002d8879046f1559e53eb052e949e9544bcb72f414"
          ],
          "data": "0x00000000000000000000000000000000000000000000000000000000233e70ed",
          "blockHash": "0x2e4c71bcfd146c9737b4464d7151933b56ea9a69f0fd9869db0eeeaf68c0caaa",
          "blockNumber": "0x9754e9",
          "blockTimestamp": "0x66f3d34a",
          "transactionHash": "0x18c9a8cb5052f635cc848a3b8f9b933aa61acc7b0de99c51f39482c4fb721962",
          "transactionIndex": "0x0",
          "logIndex": "0x2",
          "removed": false
        },
        {
          "address": "0xe5d7c2a44ffddf6b295a15c148167daaaf5cf34f",
          "topics": [
            "0xddf252ad1be2c89b69c2b068fc378daa952ba7f163c4a11628f55a4df523b3ef",
            "0x00000000000000000000000056c85a254dd12ee8d9c04049a4ab62769ce98210",
            "0x0000000000000000000000003cb104f044db23d6513f2a6100a1997fa5e3f587"
          ],
          "data": "0x00000000000000000000000000000000000000000000000003200ffe04b106c5",
          "blockHash": "0x2e4c71bcfd146c9737b4464d7151933b56ea9a69f0fd9869db0eeeaf68c0caaa",
          "blockNumber": "0x9754e9",
          "blockTimestamp": "0x66f3d34a",
          "transactionHash": "0x18c9a8cb5052f635cc848a3b8f9b933aa61acc7b0de99c51f39482c4fb721962",
          "transactionIndex": "0x0",
          "logIndex": "0x3",
          "removed": false
        },
        {
          "address": "0xe5d7c2a44ffddf6b295a15c148167daaaf5cf34f",
          "topics": [
            "0xddf252ad1be2c89b69c2b068fc378daa952ba7f163c4a11628f55a4df523b3ef",
            "0x0000000000000000000000003cb104f044db23d6513f2a6100a1997fa5e3f587",
            "0x0000000000000000000000001d8b6fa722230153be08c4fa4aa4b4c7cd01a95a"
          ],
          "data": "0x000000000000000000000000000000000000000000000000000003772a210c95",
          "blockHash": "0x2e4c71bcfd146c9737b4464d7151933b56ea9a69f0fd9869db0eeeaf68c0caaa",
          "blockNumber": "0x9754e9",
          "blockTimestamp": "0x66f3d34a",
          "transactionHash": "0x18c9a8cb5052f635cc848a3b8f9b933aa61acc7b0de99c51f39482c4fb721962",
          "transactionIndex": "0x0",
          "logIndex": "0x4",
          "removed": false
        },
        {
          "address": "0x3cb104f044db23d6513f2a6100a1997fa5e3f587",
          "topics": [
            "0xc42079f94a6350d7e6235f29174924f928cc2ac818eb64fed8004e115fbcca67",
            "0x00000000000000000000000056c85a254dd12ee8d9c04049a4ab62769ce98210",
            "0x0000000000000000000000002d8879046f1559e53eb052e949e9544bcb72f414"
          ],
          "data": "0xffffffffffffffffffffffffffffffffffffffffffffffffffffffffdcc18f1300000000000000000000000000000000000000000000000003200ffe04b106c50000000000000000000000000000000000004c3633807131cb44c17e52dfc68300000000000000000000000000000000000000000000000007e5deed63ab889200000000000000000000000000000000000000000000000000000000000303cf",
          "blockHash": "0x2e4c71bcfd146c9737b4464d7151933b56ea9a69f0fd9869db0eeeaf68c0caaa",
          "blockNumber": "0x9754e9",
          "blockTimestamp": "0x66f3d34a",
          "transactionHash": "0x18c9a8cb5052f635cc848a3b8f9b933aa61acc7b0de99c51f39482c4fb721962",
          "transactionIndex": "0x0",
          "logIndex": "0x5",
          "removed": false
        },
        {
          "address": "0x176211869ca2b568f2a7d4ee941e073a821ee1ff",
          "topics": [
            "0xddf252ad1be2c89b69c2b068fc378daa952ba7f163c4a11628f55a4df523b3ef",
            "0x00000000000000000000000064bccad8e7302e81b09894f56f6bba85ae82cd03",
            "0x0000000000000000000000002d8879046f1559e53eb052e949e9544bcb72f414"
          ],
          "data": "0x000000000000000000000000000000000000000000000000000000007945dd99",
          "blockHash": "0x2e4c71bcfd146c9737b4464d7151933b56ea9a69f0fd9869db0eeeaf68c0caaa",
          "blockNumber": "0x9754e9",
          "blockTimestamp": "0x66f3d34a",
          "transactionHash": "0x18c9a8cb5052f635cc848a3b8f9b933aa61acc7b0de99c51f39482c4fb721962",
          "transactionIndex": "0x0",
          "logIndex": "0x6",
          "removed": false
        },
        {
          "address": "0xe5d7c2a44ffddf6b295a15c148167daaaf5cf34f",
          "topics": [
            "0xddf252ad1be2c89b69c2b068fc378daa952ba7f163c4a11628f55a4df523b3ef",
            "0x00000000000000000000000056c85a254dd12ee8d9c04049a4ab62769ce98210",
            "0x00000000000000000000000064bccad8e7302e81b09894f56f6bba85ae82cd03"
          ],
          "data": "0x0000000000000000000000000000000000000000000000000ac0a6b5a2b2f93b",
          "blockHash": "0x2e4c71bcfd146c9737b4464d7151933b56ea9a69f0fd9869db0eeeaf68c0caaa",
          "blockNumber": "0x9754e9",
          "blockTimestamp": "0x66f3d34a",
          "transactionHash": "0x18c9a8cb5052f635cc848a3b8f9b933aa61acc7b0de99c51f39482c4fb721962",
          "transactionIndex": "0x0",
          "logIndex": "0x7",
          "removed": false
        },
        {
          "address": "0x64bccad8e7302e81b09894f56f6bba85ae82cd03",
          "topics": [
            "0xc42079f94a6350d7e6235f29174924f928cc2ac818eb64fed8004e115fbcca67",
            "0x00000000000000000000000056c85a254dd12ee8d9c04049a4ab62769ce98210",
            "0x0000000000000000000000002d8879046f1559e53eb052e949e9544bcb72f414"
          ],
          "data": "0xffffffffffffffffffffffffffffffffffffffffffffffffffffffff86ba22670000000000000000000000000000000000000000000000000ac0a6b5a2b2f93b0000000000000000000000000000000000004c37cd50cc117717a04fa29d74d600000000000000000000000000000000000000000000000003e7b82f1e37aa2500000000000000000000000000000000000000000000000000000000000303d1",
          "blockHash": "0x2e4c71bcfd146c9737b4464d7151933b56ea9a69f0fd9869db0eeeaf68c0caaa",
          "blockNumber": "0x9754e9",
          "blockTimestamp": "0x66f3d34a",
          "transactionHash": "0x18c9a8cb5052f635cc848a3b8f9b933aa61acc7b0de99c51f39482c4fb721962",
          "transactionIndex": "0x0",
          "logIndex": "0x8",
          "removed": false
        },
        {
          "address": "0x176211869ca2b568f2a7d4ee941e073a821ee1ff",
          "topics": [
            "0xddf252ad1be2c89b69c2b068fc378daa952ba7f163c4a11628f55a4df523b3ef",
            "0x0000000000000000000000002d8879046f1559e53eb052e949e9544bcb72f414",
            "0x000000000000000000000000f39fd6e51aad88f6f4ce6ab8827279cfffb92266"
          ],
          "data": "0x000000000000000000000000000000000000000000000000000000009c844e86",
          "blockHash": "0x2e4c71bcfd146c9737b4464d7151933b56ea9a69f0fd9869db0eeeaf68c0caaa",
          "blockNumber": "0x9754e9",
          "blockTimestamp": "0x66f3d34a",
          "transactionHash": "0x18c9a8cb5052f635cc848a3b8f9b933aa61acc7b0de99c51f39482c4fb721962",
          "transactionIndex": "0x0",
          "logIndex": "0x9",
          "removed": false
        },
        {
          "address": "0x2d8879046f1559e53eb052e949e9544bcb72f414",
          "topics": [
            "0x823eaf01002d7353fbcadb2ea3305cc46fa35d799cb0914846d185ac06f8ad05"
          ],
          "data": "0x000000000000000000000000f39fd6e51aad88f6f4ce6ab8827279cfffb922660000000000000000000000000000000000000000000000000de0b6b3a7640000000000000000000000000000e5d7c2a44ffddf6b295a15c148167daaaf5cf34f000000000000000000000000000000000000000000000000000000009c844e86000000000000000000000000176211869ca2b568f2a7d4ee941e073a821ee1ffffffffffffffffffffffffffffffffffffffffffffffffffffffffffffffffff0000000000000000000000000000000000000000000000000000000000000000",
          "blockHash": "0x2e4c71bcfd146c9737b4464d7151933b56ea9a69f0fd9869db0eeeaf68c0caaa",
          "blockNumber": "0x9754e9",
          "blockTimestamp": "0x66f3d34a",
          "transactionHash": "0x18c9a8cb5052f635cc848a3b8f9b933aa61acc7b0de99c51f39482c4fb721962",
          "transactionIndex": "0x0",
          "logIndex": "0xa",
          "removed": false
        }
      ],
      "logsBloom": "0x0000000000000000000000000004000000000000200000000000000000000000000004000000000000001000000000000000080004002000000400000000400000000000000000080000000802000030000000000000000000000001000000000000000200000000008000012000000104000000000000000000001000080000000000000000000000100004000000000000000000000000000008040000000000000000020000040000000000000000000000000000000100000000a00000000010002200000020020008000000000000000000a000000000000000000000000000000000000000000000000000000000000000020002000200000000000000",
      "type": "0x2",
      "transactionHash": "0x18c9a8cb5052f635cc848a3b8f9b933aa61acc7b0de99c51f39482c4fb721962",
      "transactionIndex": "0x0",
      "blockHash": "0x2e4c71bcfd146c9737b4464d7151933b56ea9a69f0fd9869db0eeeaf68c0caaa",
      "blockNumber": "0x9754e9",
      "gasUsed": "0x78eb5",
      "effectiveGasPrice": "0x4bd0dbf",
      "blobGasPrice": "0x1",
      "from": "0xf39fd6e51aad88f6f4ce6ab8827279cfffb92266",
      "to": "0x2d8879046f1559e53eb052e949e9544bcb72f414",
      "contractAddress": null,
      "root": "0x0000000000000000000000000000000000000000000000000000000000000000"
    },
    {
      "status": "0x1",
      "cumulativeGasUsed": "0x879d3",
      "logs": [
        {
          "address": "0x176211869ca2b568f2a7d4ee941e073a821ee1ff",
          "topics": [
            "0x8c5be1e5ebec7d5bd14f71427d1e84f3dd0314c0f7b2291e5b200ac8c7c3b925",
            "0x000000000000000000000000f39fd6e51aad88f6f4ce6ab8827279cfffb92266",
            "0x0000000000000000000000000b306bf915c4d645ff596e518faf3f9669b97016"
          ],
          "data": "0xffffffffffffffffffffffffffffffffffffffffffffffffffffffffffffffff",
          "blockHash": "0x2e4c71bcfd146c9737b4464d7151933b56ea9a69f0fd9869db0eeeaf68c0caaa",
          "blockNumber": "0x9754e9",
          "blockTimestamp": "0x66f3d34a",
          "transactionHash": "0xa351e61990351cb1ef3cd05636f7ece88880849dffef520b912cf4c0b6a8b853",
          "transactionIndex": "0x1",
          "logIndex": "0xb",
          "removed": false
        }
      ],
      "logsBloom": "0x00000000000000000000000000000008000000000000000000000000000000000000000000000000000000000000000000000800000000000004000000200000000000000000000000000000020000000000000000000000000000000000000000000000000000000000000300000000000000000000000000000000000000000000000000000000000000000000000000000000000000000000000000000000020000000000000000000000000000000000000000000000000000000000000000000000000000200000000000000000000000002000000000000000000000000010000000000000000000000400000000000000000000000000000000000000",
      "type": "0x2",
      "transactionHash": "0xa351e61990351cb1ef3cd05636f7ece88880849dffef520b912cf4c0b6a8b853",
      "transactionIndex": "0x1",
      "blockHash": "0x2e4c71bcfd146c9737b4464d7151933b56ea9a69f0fd9869db0eeeaf68c0caaa",
      "blockNumber": "0x9754e9",
      "gasUsed": "0xeb1e",
      "effectiveGasPrice": "0x4bd0dbf",
      "blobGasPrice": "0x1",
      "from": "0xf39fd6e51aad88f6f4ce6ab8827279cfffb92266",
      "to": "0x176211869ca2b568f2a7d4ee941e073a821ee1ff",
      "contractAddress": null,
      "root": "0x0000000000000000000000000000000000000000000000000000000000000000"
    },
    {
      "status": "0x1",
      "cumulativeGasUsed": "0xb51c",
      "logs": [
        {
          "address": "0xe5d7c2a44ffddf6b295a15c148167daaaf5cf34f",
          "topics": [
            "0x8c5be1e5ebec7d5bd14f71427d1e84f3dd0314c0f7b2291e5b200ac8c7c3b925",
            "0x000000000000000000000000f39fd6e51aad88f6f4ce6ab8827279cfffb92266",
            "0x0000000000000000000000000b306bf915c4d645ff596e518faf3f9669b97016"
          ],
          "data": "0xffffffffffffffffffffffffffffffffffffffffffffffffffffffffffffffff",
          "blockHash": "0xc7af30ea799611a7190dd232f0b04c169cc53e6ff435bbcd1e178ce2ffe1fbeb",
          "blockNumber": "0x9754ea",
          "blockTimestamp": "0x66f3d34b",
          "transactionHash": "0x84359e8aac3aed16eb69976115223ae3e22e526775438cbba596d2ff993ed2f0",
          "transactionIndex": "0x0",
          "logIndex": "0x0",
          "removed": false
        }
      ],
      "logsBloom": "0x0000000000000000000000000000000800000000000000000000000000000000000000000000000000000000000000000000000000000000000000000020000000000000000000000000000000000000000000000000000000000000000000000000000000000000000000030000000000000000000000000000000000000000000000000000000000100000000000000000000000000000000000000000000002000000000000000000000000000000000000000000000000000000200000000000000000000020000000000000000000000000a000000000000000000000000010000000000000000000000400000000000000000000000000000000000000",
      "type": "0x2",
      "transactionHash": "0x84359e8aac3aed16eb69976115223ae3e22e526775438cbba596d2ff993ed2f0",
      "transactionIndex": "0x0",
      "blockHash": "0xc7af30ea799611a7190dd232f0b04c169cc53e6ff435bbcd1e178ce2ffe1fbeb",
      "blockNumber": "0x9754ea",
      "gasUsed": "0xb51c",
      "effectiveGasPrice": "0x4bd0dbf",
      "blobGasPrice": "0x1",
      "from": "0xf39fd6e51aad88f6f4ce6ab8827279cfffb92266",
      "to": "0xe5d7c2a44ffddf6b295a15c148167daaaf5cf34f",
      "contractAddress": null,
      "root": "0x0000000000000000000000000000000000000000000000000000000000000000"
    },
    {
      "status": "0x1",
      "cumulativeGasUsed": "0x1527e",
      "logs": [
        {
          "address": "0x176211869ca2b568f2a7d4ee941e073a821ee1ff",
          "topics": [
            "0x8c5be1e5ebec7d5bd14f71427d1e84f3dd0314c0f7b2291e5b200ac8c7c3b925",
            "0x000000000000000000000000f39fd6e51aad88f6f4ce6ab8827279cfffb92266",
            "0x0000000000000000000000000b306bf915c4d645ff596e518faf3f9669b97016"
          ],
          "data": "0xffffffffffffffffffffffffffffffffffffffffffffffffffffffffffffffff",
          "blockHash": "0xc7af30ea799611a7190dd232f0b04c169cc53e6ff435bbcd1e178ce2ffe1fbeb",
          "blockNumber": "0x9754ea",
          "blockTimestamp": "0x66f3d34b",
          "transactionHash": "0x49a7354e78592aea2b61684874c38a5ad9594d8b773c0441833448bfa114b826",
          "transactionIndex": "0x1",
          "logIndex": "0x1",
          "removed": false
        }
      ],
      "logsBloom": "0x00000000000000000000000000000008000000000000000000000000000000000000000000000000000000000000000000000800000000000004000000200000000000000000000000000000020000000000000000000000000000000000000000000000000000000000000300000000000000000000000000000000000000000000000000000000000000000000000000000000000000000000000000000000020000000000000000000000000000000000000000000000000000000000000000000000000000200000000000000000000000002000000000000000000000000010000000000000000000000400000000000000000000000000000000000000",
      "type": "0x2",
      "transactionHash": "0x49a7354e78592aea2b61684874c38a5ad9594d8b773c0441833448bfa114b826",
      "transactionIndex": "0x1",
      "blockHash": "0xc7af30ea799611a7190dd232f0b04c169cc53e6ff435bbcd1e178ce2ffe1fbeb",
      "blockNumber": "0x9754ea",
      "gasUsed": "0x9d62",
      "effectiveGasPrice": "0x4bd0dbf",
      "blobGasPrice": "0x1",
      "from": "0xf39fd6e51aad88f6f4ce6ab8827279cfffb92266",
      "to": "0x176211869ca2b568f2a7d4ee941e073a821ee1ff",
      "contractAddress": null,
      "root": "0x0000000000000000000000000000000000000000000000000000000000000000"
    }
  ],
  "libraries": [],
  "pending": [],
  "returns": {},
  "timestamp": 1727255372,
  "chain": 59144,
  "commit": "a0c2ae3"
}