{
  "transactions": [
    {
      "hash": "0x9d0c3e3139c9b8e9ece2761bafc523b2cf8f2b83c35f9f1a4eae61d770ac1254",
      "transactionType": "CALL",
      "contractName": null,
      "contractAddress": "0xe5d7c2a44ffddf6b295a15c148167daaaf5cf34f",
      "function": "approve(address,uint256)",
      "arguments": [
        "0x0B306BF915C4d645ff596e518fAf3F9669b97016",
        "115792089237316195423570985008687907853269984665640564039457584007913129639935"
      ],
      "transaction": {
        "from": "0xf39fd6e51aad88f6f4ce6ab8827279cfffb92266",
        "to": "0xe5d7c2a44ffddf6b295a15c148167daaaf5cf34f",
        "gas": "0x8ec9",
        "value": "0x0",
        "input": "0x095ea7b30000000000000000000000000b306bf915c4d645ff596e518faf3f9669b97016ffffffffffffffffffffffffffffffffffffffffffffffffffffffffffffffff",
        "nonce": "0x65",
        "chainId": "0xe708"
      },
      "additionalContracts": [],
      "isFixedGasLimit": false
    },
    {
      "hash": "0x676d81bfcfaa7b3327f4e93ac85860f6ba2a8b80643de3f0670eb50e5bb1fa79",
      "transactionType": "CALL",
      "contractName": null,
      "contractAddress": "0x176211869ca2b568f2a7d4ee941e073a821ee1ff",
      "function": "approve(address,uint256)",
      "arguments": [
        "0x0B306BF915C4d645ff596e518fAf3F9669b97016",
        "115792089237316195423570985008687907853269984665640564039457584007913129639935"
      ],
      "transaction": {
        "from": "0xf39fd6e51aad88f6f4ce6ab8827279cfffb92266",
        "to": "0x176211869ca2b568f2a7d4ee941e073a821ee1ff",
        "gas": "0xe62b",
        "value": "0x0",
        "input": "0x095ea7b30000000000000000000000000b306bf915c4d645ff596e518faf3f9669b97016ffffffffffffffffffffffffffffffffffffffffffffffffffffffffffffffff",
        "nonce": "0x66",
        "chainId": "0xe708"
      },
      "additionalContracts": [],
      "isFixedGasLimit": false
    },
    {
      "hash": "0xa3d656304e0929be933450181b75305992bf0d6a5d27ad7df0b02356a17391d9",
      "transactionType": "CALL",
      "contractName": null,
      "contractAddress": "0x0b306bf915c4d645ff596e518faf3f9669b97016",
      "function": "createAndAddToPosition((string,address,address),(uint256,uint256,bytes))",
      "arguments": [
        "(\"SHORT_BASE_ODOS_ZEROLEND\", 0x176211869cA2b568f2A7D4EE941E073a821EE1ff, 0xe5D7C2a44FfDDf6b295A15c148167daaAf5Cf34f)",
        "(10000000000000000, 19999999999999996, 0x83bd37f90001e5d7c2a44ffddf6b295a15c148167daaaf5cf34f0001176211869ca2b568f2a7d4ee941e073a821ee1ff076a94d74f42fffc04043a5670028f5c000156c85a254dd12ee8d9c04049a4ab62769ce982100000000160c6a2e4827196bb34c304e90553b51017d89fdd0000000003010203000a0101010200ff000000000000000000000000000000000000000000586733678b9ac9da43dd7cb83bbb41d23677dfc3e5d7c2a44ffddf6b295a15c148167daaaf5cf34f000000000000000000000000000000000000000000000000)"
      ],
      "transaction": {
        "from": "0xf39fd6e51aad88f6f4ce6ab8827279cfffb92266",
        "to": "0x0b306bf915c4d645ff596e518faf3f9669b97016",
        "gas": "0x174bd4",
        "value": "0x0",
        "input": "0x211d9b04000000000000000000000000000000000000000000000000000000000000004000000000000000000000000000000000000000000000000000000000000000e00000000000000000000000000000000000000000000000000000000000000060000000000000000000000000176211869ca2b568f2a7d4ee941e073a821ee1ff000000000000000000000000e5d7c2a44ffddf6b295a15c148167daaaf5cf34f000000000000000000000000000000000000000000000000000000000000001853484f52545f424153455f4f444f535f5a45524f4c454e440000000000000000000000000000000000000000000000000000000000000000002386f26fc1000000000000000000000000000000000000000000000000000000470de4df81fffc000000000000000000000000000000000000000000000000000000000000006000000000000000000000000000000000000000000000000000000000000000d383bd37f90001e5d7c2a44ffddf6b295a15c148167daaaf5cf34f0001176211869ca2b568f2a7d4ee941e073a821ee1ff076a94d74f42fffc04043a5670028f5c000156c85a254dd12ee8d9c04049a4ab62769ce982100000000160c6a2e4827196bb34c304e90553b51017d89fdd0000000003010203000a0101010200ff000000000000000000000000000000000000000000586733678b9ac9da43dd7cb83bbb41d23677dfc3e5d7c2a44ffddf6b295a15c148167daaaf5cf34f00000000000000000000000000000000000000000000000000000000000000000000000000",
        "nonce": "0x67",
        "chainId": "0xe708"
      },
      "additionalContracts": [
        {
          "transactionType": "CREATE2",
          "address": "0x60c6a2e4827196bb34c304e90553b51017d89fdd",
          "initCode": "0x60a060405234801561001057600080fd5b506040516101d43803806101d483398101604081905261002f9161009a565b6001600160a01b0381166100895760405162461bcd60e51b815260206004820152601e60248201527f496e76616c696420696d706c656d656e746174696f6e20616464726573730000604482015260640160405180910390fd5b6001600160a01b03166080526100ca565b6000602082840312156100ac57600080fd5b81516001600160a01b03811681146100c357600080fd5b9392505050565b60805160ec6100e860003960008181602001526055015260ec6000f3fe608060405260043610601c5760003560e01c80635c60da1b146045575b60437f00000000000000000000000000000000000000000000000000000000000000006093565b005b348015605057600080fd5b5060777f000000000000000000000000000000000000000000000000000000000000000081565b6040516001600160a01b03909116815260200160405180910390f35b3660008037600080366000845af43d6000803e80801560b1573d6000f35b3d6000fdfea2646970667358221220f6020ed423ab8c3633806cc507ff73ce07ea9bade45f63874f1be7c04b23516364736f6c634300081a003300000000000000000000000059b670e9fa9d0a427751af201d676719a970857b"
        }
      ],
      "isFixedGasLimit": false
    }
  ],
  "receipts": [
    {
      "status": "0x1",
      "cumulativeGasUsed": "0x6760",
      "logs": [
        {
          "address": "0xe5d7c2a44ffddf6b295a15c148167daaaf5cf34f",
          "topics": [
            "0x8c5be1e5ebec7d5bd14f71427d1e84f3dd0314c0f7b2291e5b200ac8c7c3b925",
            "0x000000000000000000000000f39fd6e51aad88f6f4ce6ab8827279cfffb92266",
            "0x0000000000000000000000000b306bf915c4d645ff596e518faf3f9669b97016"
          ],
          "data": "0xffffffffffffffffffffffffffffffffffffffffffffffffffffffffffffffff",
          "blockHash": "0x114465ed2e18a1359580822e097773610aabc5cad0eeb7450705ce8b7d466beb",
          "blockNumber": "0x8eaaeb",
          "blockTimestamp": "0x66e36f09",
          "transactionHash": "0x9d0c3e3139c9b8e9ece2761bafc523b2cf8f2b83c35f9f1a4eae61d770ac1254",
          "transactionIndex": "0x0",
          "logIndex": "0x0",
          "removed": false
        }
      ],
      "logsBloom": "0x0000000000000000000000000000000800000000000000000000000000000000000000000000000000000000000000000000000000000000000000000020000000000000000000000000000000000000000000000000000000000000000000000000000000000000000000030000000000000000000000000000000000000000000000000000000000100000000000000000000000000000000000000000000002000000000000000000000000000000000000000000000000000000200000000000000000000020000000000000000000000000a000000000000000000000000010000000000000000000000400000000000000000000000000000000000000",
      "type": "0x2",
      "transactionHash": "0x9d0c3e3139c9b8e9ece2761bafc523b2cf8f2b83c35f9f1a4eae61d770ac1254",
      "transactionIndex": "0x0",
      "blockHash": "0x114465ed2e18a1359580822e097773610aabc5cad0eeb7450705ce8b7d466beb",
      "blockNumber": "0x8eaaeb",
      "gasUsed": "0x6760",
      "effectiveGasPrice": "0x3938707",
      "blobGasPrice": "0x1",
      "from": "0xf39fd6e51aad88f6f4ce6ab8827279cfffb92266",
      "to": "0xe5d7c2a44ffddf6b295a15c148167daaaf5cf34f",
      "contractAddress": null,
      "root": "0x0000000000000000000000000000000000000000000000000000000000000000"
    },
    {
      "status": "0x1",
      "cumulativeGasUsed": "0x9d62",
      "logs": [
        {
          "address": "0x176211869ca2b568f2a7d4ee941e073a821ee1ff",
          "topics": [
            "0x8c5be1e5ebec7d5bd14f71427d1e84f3dd0314c0f7b2291e5b200ac8c7c3b925",
            "0x000000000000000000000000f39fd6e51aad88f6f4ce6ab8827279cfffb92266",
            "0x0000000000000000000000000b306bf915c4d645ff596e518faf3f9669b97016"
          ],
          "data": "0xffffffffffffffffffffffffffffffffffffffffffffffffffffffffffffffff",
          "blockHash": "0xed4fcc690db05300490f33f00350bde54e7a39d413c5bdfe5d9b5b54388d4cc8",
          "blockNumber": "0x8eaaec",
          "blockTimestamp": "0x66e36f0a",
          "transactionHash": "0x676d81bfcfaa7b3327f4e93ac85860f6ba2a8b80643de3f0670eb50e5bb1fa79",
          "transactionIndex": "0x0",
          "logIndex": "0x0",
          "removed": false
        }
      ],
      "logsBloom": "0x00000000000000000000000000000008000000000000000000000000000000000000000000000000000000000000000000000800000000000004000000200000000000000000000000000000020000000000000000000000000000000000000000000000000000000000000300000000000000000000000000000000000000000000000000000000000000000000000000000000000000000000000000000000020000000000000000000000000000000000000000000000000000000000000000000000000000200000000000000000000000002000000000000000000000000010000000000000000000000400000000000000000000000000000000000000",
      "type": "0x2",
      "transactionHash": "0x676d81bfcfaa7b3327f4e93ac85860f6ba2a8b80643de3f0670eb50e5bb1fa79",
      "transactionIndex": "0x0",
      "blockHash": "0xed4fcc690db05300490f33f00350bde54e7a39d413c5bdfe5d9b5b54388d4cc8",
      "blockNumber": "0x8eaaec",
      "gasUsed": "0x9d62",
      "effectiveGasPrice": "0x3938707",
      "blobGasPrice": "0x1",
      "from": "0xf39fd6e51aad88f6f4ce6ab8827279cfffb92266",
      "to": "0x176211869ca2b568f2a7d4ee941e073a821ee1ff",
      "contractAddress": null,
      "root": "0x0000000000000000000000000000000000000000000000000000000000000000"
    },
    {
      "status": "0x1",
      "cumulativeGasUsed": "0x11ee5d",
      "logs": [
        {
          "address": "0x9a9f2ccfde556a7e9ff0848998aa4a0cfd8863ae",
          "topics": [
            "0xddf252ad1be2c89b69c2b068fc378daa952ba7f163c4a11628f55a4df523b3ef",
            "0x0000000000000000000000000000000000000000000000000000000000000000",
            "0x000000000000000000000000f39fd6e51aad88f6f4ce6ab8827279cfffb92266",
            "0x0000000000000000000000000000000000000000000000000000000000000001"
          ],
          "data": "0x",
          "blockHash": "0xed4fcc690db05300490f33f00350bde54e7a39d413c5bdfe5d9b5b54388d4cc8",
          "blockNumber": "0x8eaaec",
          "blockTimestamp": "0x66e36f0a",
          "transactionHash": "0xa3d656304e0929be933450181b75305992bf0d6a5d27ad7df0b02356a17391d9",
          "transactionIndex": "0x1",
          "logIndex": "0x1",
          "removed": false
        },
        {
          "address": "0xe5d7c2a44ffddf6b295a15c148167daaaf5cf34f",
          "topics": [
            "0xddf252ad1be2c89b69c2b068fc378daa952ba7f163c4a11628f55a4df523b3ef",
            "0x000000000000000000000000f39fd6e51aad88f6f4ce6ab8827279cfffb92266",
            "0x00000000000000000000000060c6a2e4827196bb34c304e90553b51017d89fdd"
          ],
          "data": "0x000000000000000000000000000000000000000000000000002386f26fc10000",
          "blockHash": "0xed4fcc690db05300490f33f00350bde54e7a39d413c5bdfe5d9b5b54388d4cc8",
          "blockNumber": "0x8eaaec",
          "blockTimestamp": "0x66e36f0a",
          "transactionHash": "0xa3d656304e0929be933450181b75305992bf0d6a5d27ad7df0b02356a17391d9",
          "transactionIndex": "0x1",
          "logIndex": "0x2",
          "removed": false
        },
        {
          "address": "0xe5d7c2a44ffddf6b295a15c148167daaaf5cf34f",
          "topics": [
            "0xddf252ad1be2c89b69c2b068fc378daa952ba7f163c4a11628f55a4df523b3ef",
            "0x000000000000000000000000b4ffef15daf4c02787bc5332580b838ce39805f5",
            "0x00000000000000000000000060c6a2e4827196bb34c304e90553b51017d89fdd"
          ],
          "data": "0x00000000000000000000000000000000000000000000000000470de4df81fffc",
          "blockHash": "0xed4fcc690db05300490f33f00350bde54e7a39d413c5bdfe5d9b5b54388d4cc8",
          "blockNumber": "0x8eaaec",
          "blockTimestamp": "0x66e36f0a",
          "transactionHash": "0xa3d656304e0929be933450181b75305992bf0d6a5d27ad7df0b02356a17391d9",
          "transactionIndex": "0x1",
          "logIndex": "0x3",
          "removed": false
        },
        {
          "address": "0xe5d7c2a44ffddf6b295a15c148167daaaf5cf34f",
          "topics": [
            "0x8c5be1e5ebec7d5bd14f71427d1e84f3dd0314c0f7b2291e5b200ac8c7c3b925",
            "0x00000000000000000000000060c6a2e4827196bb34c304e90553b51017d89fdd",
            "0x0000000000000000000000002d8879046f1559e53eb052e949e9544bcb72f414"
          ],
          "data": "0x000000000000000000000000000000000000000000000000006a94d74f42fffc",
          "blockHash": "0xed4fcc690db05300490f33f00350bde54e7a39d413c5bdfe5d9b5b54388d4cc8",
          "blockNumber": "0x8eaaec",
          "blockTimestamp": "0x66e36f0a",
          "transactionHash": "0xa3d656304e0929be933450181b75305992bf0d6a5d27ad7df0b02356a17391d9",
          "transactionIndex": "0x1",
          "logIndex": "0x4",
          "removed": false
        },
        {
          "address": "0xe5d7c2a44ffddf6b295a15c148167daaaf5cf34f",
          "topics": [
            "0xddf252ad1be2c89b69c2b068fc378daa952ba7f163c4a11628f55a4df523b3ef",
            "0x00000000000000000000000060c6a2e4827196bb34c304e90553b51017d89fdd",
            "0x00000000000000000000000056c85a254dd12ee8d9c04049a4ab62769ce98210"
          ],
          "data": "0x000000000000000000000000000000000000000000000000006a94d74f42fffc",
          "blockHash": "0xed4fcc690db05300490f33f00350bde54e7a39d413c5bdfe5d9b5b54388d4cc8",
          "blockNumber": "0x8eaaec",
          "blockTimestamp": "0x66e36f0a",
          "transactionHash": "0xa3d656304e0929be933450181b75305992bf0d6a5d27ad7df0b02356a17391d9",
          "transactionIndex": "0x1",
          "logIndex": "0x5",
          "removed": false
        },
        {
          "address": "0x176211869ca2b568f2a7d4ee941e073a821ee1ff",
          "topics": [
            "0xddf252ad1be2c89b69c2b068fc378daa952ba7f163c4a11628f55a4df523b3ef",
            "0x000000000000000000000000586733678b9ac9da43dd7cb83bbb41d23677dfc3",
            "0x0000000000000000000000002d8879046f1559e53eb052e949e9544bcb72f414"
          ],
          "data": "0x00000000000000000000000000000000000000000000000000000000043cafe0",
          "blockHash": "0xed4fcc690db05300490f33f00350bde54e7a39d413c5bdfe5d9b5b54388d4cc8",
          "blockNumber": "0x8eaaec",
          "blockTimestamp": "0x66e36f0a",
          "transactionHash": "0xa3d656304e0929be933450181b75305992bf0d6a5d27ad7df0b02356a17391d9",
          "transactionIndex": "0x1",
          "logIndex": "0x6",
          "removed": false
        },
        {
          "address": "0xe5d7c2a44ffddf6b295a15c148167daaaf5cf34f",
          "topics": [
            "0xddf252ad1be2c89b69c2b068fc378daa952ba7f163c4a11628f55a4df523b3ef",
            "0x00000000000000000000000056c85a254dd12ee8d9c04049a4ab62769ce98210",
            "0x000000000000000000000000586733678b9ac9da43dd7cb83bbb41d23677dfc3"
          ],
          "data": "0x000000000000000000000000000000000000000000000000006a94d74f42fffc",
          "blockHash": "0xed4fcc690db05300490f33f00350bde54e7a39d413c5bdfe5d9b5b54388d4cc8",
          "blockNumber": "0x8eaaec",
          "blockTimestamp": "0x66e36f0a",
          "transactionHash": "0xa3d656304e0929be933450181b75305992bf0d6a5d27ad7df0b02356a17391d9",
          "transactionIndex": "0x1",
          "logIndex": "0x7",
          "removed": false
        },
        {
          "address": "0x586733678b9ac9da43dd7cb83bbb41d23677dfc3",
          "topics": [
            "0x19b47279256b2a23a1665c810c8d55a1758940ee09377d4f8d26497a3577dc83",
            "0x00000000000000000000000056c85a254dd12ee8d9c04049a4ab62769ce98210",
            "0x0000000000000000000000002d8879046f1559e53eb052e949e9544bcb72f414"
          ],
          "data": "0xfffffffffffffffffffffffffffffffffffffffffffffffffffffffffbc35020000000000000000000000000000000000000000000000000006a94d74f42fffc000000000000000000000000000000000000503f09f3a9bafd2a5dc5d354028d000000000000000000000000000000000000000000000000003eb5eae318124d00000000000000000000000000000000000000000000000000000000000307d70000000000000000000000000000000000000000000000000000000000000000000000000000000000000000000000000000000000000000000000e680992c00",
          "blockHash": "0xed4fcc690db05300490f33f00350bde54e7a39d413c5bdfe5d9b5b54388d4cc8",
          "blockNumber": "0x8eaaec",
          "blockTimestamp": "0x66e36f0a",
          "transactionHash": "0xa3d656304e0929be933450181b75305992bf0d6a5d27ad7df0b02356a17391d9",
          "transactionIndex": "0x1",
          "logIndex": "0x8",
          "removed": false
        },
        {
          "address": "0x176211869ca2b568f2a7d4ee941e073a821ee1ff",
          "topics": [
            "0xddf252ad1be2c89b69c2b068fc378daa952ba7f163c4a11628f55a4df523b3ef",
            "0x0000000000000000000000002d8879046f1559e53eb052e949e9544bcb72f414",
            "0x00000000000000000000000060c6a2e4827196bb34c304e90553b51017d89fdd"
          ],
          "data": "0x00000000000000000000000000000000000000000000000000000000043a5670",
          "blockHash": "0xed4fcc690db05300490f33f00350bde54e7a39d413c5bdfe5d9b5b54388d4cc8",
          "blockNumber": "0x8eaaec",
          "blockTimestamp": "0x66e36f0a",
          "transactionHash": "0xa3d656304e0929be933450181b75305992bf0d6a5d27ad7df0b02356a17391d9",
          "transactionIndex": "0x1",
          "logIndex": "0x9",
          "removed": false
        },
        {
          "address": "0x2d8879046f1559e53eb052e949e9544bcb72f414",
          "topics": [
            "0x823eaf01002d7353fbcadb2ea3305cc46fa35d799cb0914846d185ac06f8ad05"
          ],
          "data": "0x00000000000000000000000060c6a2e4827196bb34c304e90553b51017d89fdd000000000000000000000000000000000000000000000000006a94d74f42fffc000000000000000000000000e5d7c2a44ffddf6b295a15c148167daaaf5cf34f00000000000000000000000000000000000000000000000000000000043a5670000000000000000000000000176211869ca2b568f2a7d4ee941e073a821ee1ff00000000000000000000000000000000000000000000000000000000000259700000000000000000000000000000000000000000000000000000000000000000",
          "blockHash": "0xed4fcc690db05300490f33f00350bde54e7a39d413c5bdfe5d9b5b54388d4cc8",
          "blockNumber": "0x8eaaec",
          "blockTimestamp": "0x66e36f0a",
          "transactionHash": "0xa3d656304e0929be933450181b75305992bf0d6a5d27ad7df0b02356a17391d9",
          "transactionIndex": "0x1",
          "logIndex": "0xa",
          "removed": false
        },
        {
          "address": "0x176211869ca2b568f2a7d4ee941e073a821ee1ff",
          "topics": [
            "0x8c5be1e5ebec7d5bd14f71427d1e84f3dd0314c0f7b2291e5b200ac8c7c3b925",
            "0x00000000000000000000000060c6a2e4827196bb34c304e90553b51017d89fdd",
            "0x0000000000000000000000002f9bb73a8e98793e26cb2f6c4ad037bdf1c6b269"
          ],
          "data": "0x00000000000000000000000000000000000000000000000000000000043a5670",
          "blockHash": "0xed4fcc690db05300490f33f00350bde54e7a39d413c5bdfe5d9b5b54388d4cc8",
          "blockNumber": "0x8eaaec",
          "blockTimestamp": "0x66e36f0a",
          "transactionHash": "0xa3d656304e0929be933450181b75305992bf0d6a5d27ad7df0b02356a17391d9",
          "transactionIndex": "0x1",
          "logIndex": "0xb",
          "removed": false
        },
        {
          "address": "0x2f9bb73a8e98793e26cb2f6c4ad037bdf1c6b269",
          "topics": [
            "0x804c9b842b2748a22bb64b345453a3de7ca54a6ca45ce00d415894979e22897a",
            "0x000000000000000000000000176211869ca2b568f2a7d4ee941e073a821ee1ff"
          ],
          "data": "0x0000000000000000000000000000000000000000009893ad28c15f904f956d020000000000000000000000000000000000000000010535276b74ef3f9f595376000000000000000000000000000000000000000000f8ccc7ca56ed53305953760000000000000000000000000000000000000000035dc0da4c2f205518a1344c0000000000000000000000000000000000000000036b936d73d7fa1a13633718",
          "blockHash": "0xed4fcc690db05300490f33f00350bde54e7a39d413c5bdfe5d9b5b54388d4cc8",
          "blockNumber": "0x8eaaec",
          "blockTimestamp": "0x66e36f0a",
          "transactionHash": "0xa3d656304e0929be933450181b75305992bf0d6a5d27ad7df0b02356a17391d9",
          "transactionIndex": "0x1",
          "logIndex": "0xc",
          "removed": false
        },
        {
          "address": "0x176211869ca2b568f2a7d4ee941e073a821ee1ff",
          "topics": [
            "0xddf252ad1be2c89b69c2b068fc378daa952ba7f163c4a11628f55a4df523b3ef",
            "0x00000000000000000000000060c6a2e4827196bb34c304e90553b51017d89fdd",
            "0x0000000000000000000000002e207eca8b6bf77a6ac82763eeed2a94de4f081d"
          ],
          "data": "0x00000000000000000000000000000000000000000000000000000000043a5670",
          "blockHash": "0xed4fcc690db05300490f33f00350bde54e7a39d413c5bdfe5d9b5b54388d4cc8",
          "blockNumber": "0x8eaaec",
          "blockTimestamp": "0x66e36f0a",
          "transactionHash": "0xa3d656304e0929be933450181b75305992bf0d6a5d27ad7df0b02356a17391d9",
          "transactionIndex": "0x1",
          "logIndex": "0xd",
          "removed": false
        },
        {
          "address": "0x28f6899ff643261ca9766ddc251b359a2d00b945",
          "topics": [
            "0x3303facd24627943a92e9dc87cfbb34b15c49b726eec3ad3487c16be9ab8efe8",
            "0x0000000000000000000000002e207eca8b6bf77a6ac82763eeed2a94de4f081d",
            "0x00000000000000000000000040a59a3f3b16d9e74c811d24d8b7969664cfe180",
            "0x00000000000000000000000060c6a2e4827196bb34c304e90553b51017d89fdd"
          ],
          "data": "0x0000000000000000000000000000000000000000000000040755b053b796c7ed0000000000000000000000000000000000000000000000040755b053b796c7ed0000000000000000000000000000000000000000000000000000000000000000",
          "blockHash": "0xed4fcc690db05300490f33f00350bde54e7a39d413c5bdfe5d9b5b54388d4cc8",
          "blockNumber": "0x8eaaec",
          "blockTimestamp": "0x66e36f0a",
          "transactionHash": "0xa3d656304e0929be933450181b75305992bf0d6a5d27ad7df0b02356a17391d9",
          "transactionIndex": "0x1",
          "logIndex": "0xe",
          "removed": false
        },
        {
          "address": "0x28f6899ff643261ca9766ddc251b359a2d00b945",
          "topics": [
            "0x3303facd24627943a92e9dc87cfbb34b15c49b726eec3ad3487c16be9ab8efe8",
            "0x0000000000000000000000002e207eca8b6bf77a6ac82763eeed2a94de4f081d",
            "0x00000000000000000000000078354f8dccb269a615a7e0a24f9b0718fdc3c7a7",
            "0x00000000000000000000000060c6a2e4827196bb34c304e90553b51017d89fdd"
          ],
          "data": "0x0000000000000000000000000000000000000000000000005de965c450b20b970000000000000000000000000000000000000000000000005de965c450b20b970000000000000000000000000000000000000000000000000000000000000000",
          "blockHash": "0xed4fcc690db05300490f33f00350bde54e7a39d413c5bdfe5d9b5b54388d4cc8",
          "blockNumber": "0x8eaaec",
          "blockTimestamp": "0x66e36f0a",
          "transactionHash": "0xa3d656304e0929be933450181b75305992bf0d6a5d27ad7df0b02356a17391d9",
          "transactionIndex": "0x1",
          "logIndex": "0xf",
          "removed": false
        },
        {
          "address": "0x2e207eca8b6bf77a6ac82763eeed2a94de4f081d",
          "topics": [
            "0xddf252ad1be2c89b69c2b068fc378daa952ba7f163c4a11628f55a4df523b3ef",
            "0x0000000000000000000000000000000000000000000000000000000000000000",
            "0x00000000000000000000000060c6a2e4827196bb34c304e90553b51017d89fdd"
          ],
          "data": "0x00000000000000000000000000000000000000000000000000000000043a5670",
          "blockHash": "0xed4fcc690db05300490f33f00350bde54e7a39d413c5bdfe5d9b5b54388d4cc8",
          "blockNumber": "0x8eaaec",
          "blockTimestamp": "0x66e36f0a",
          "transactionHash": "0xa3d656304e0929be933450181b75305992bf0d6a5d27ad7df0b02356a17391d9",
          "transactionIndex": "0x1",
          "logIndex": "0x10",
          "removed": false
        },
        {
          "address": "0x2e207eca8b6bf77a6ac82763eeed2a94de4f081d",
          "topics": [
            "0x458f5fa412d0f69b08dd84872b0215675cc67bc1d5b6fd93300a1c3878b86196",
            "0x00000000000000000000000060c6a2e4827196bb34c304e90553b51017d89fdd",
            "0x00000000000000000000000060c6a2e4827196bb34c304e90553b51017d89fdd"
          ],
          "data": "0x00000000000000000000000000000000000000000000000000000000043a567000000000000000000000000000000000000000000000000000000000000000000000000000000000000000000000000000000000035dc0da4c2f205518a1344c",
          "blockHash": "0xed4fcc690db05300490f33f00350bde54e7a39d413c5bdfe5d9b5b54388d4cc8",
          "blockNumber": "0x8eaaec",
          "blockTimestamp": "0x66e36f0a",
          "transactionHash": "0xa3d656304e0929be933450181b75305992bf0d6a5d27ad7df0b02356a17391d9",
          "transactionIndex": "0x1",
          "logIndex": "0x11",
          "removed": false
        },
        {
          "address": "0x2f9bb73a8e98793e26cb2f6c4ad037bdf1c6b269",
          "topics": [
            "0x00058a56ea94653cdf4f152d227ace22d4c00ad99e2a43f58cb7d9e3feb295f2",
            "0x000000000000000000000000176211869ca2b568f2a7d4ee941e073a821ee1ff",
            "0x00000000000000000000000060c6a2e4827196bb34c304e90553b51017d89fdd"
          ],
          "data": "0x",
          "blockHash": "0xed4fcc690db05300490f33f00350bde54e7a39d413c5bdfe5d9b5b54388d4cc8",
          "blockNumber": "0x8eaaec",
          "blockTimestamp": "0x66e36f0a",
          "transactionHash": "0xa3d656304e0929be933450181b75305992bf0d6a5d27ad7df0b02356a17391d9",
          "transactionIndex": "0x1",
          "logIndex": "0x12",
          "removed": false
        },
        {
          "address": "0x2f9bb73a8e98793e26cb2f6c4ad037bdf1c6b269",
          "topics": [
            "0x2b627736bca15cd5381dcf80b0bf11fd197d01a037c52b927a881a10fb73ba61",
            "0x000000000000000000000000176211869ca2b568f2a7d4ee941e073a821ee1ff",
            "0x00000000000000000000000060c6a2e4827196bb34c304e90553b51017d89fdd",
            "0x0000000000000000000000000000000000000000000000000000000000000000"
          ],
          "data": "0x00000000000000000000000060c6a2e4827196bb34c304e90553b51017d89fdd00000000000000000000000000000000000000000000000000000000043a5670",
          "blockHash": "0xed4fcc690db05300490f33f00350bde54e7a39d413c5bdfe5d9b5b54388d4cc8",
          "blockNumber": "0x8eaaec",
          "blockTimestamp": "0x66e36f0a",
          "transactionHash": "0xa3d656304e0929be933450181b75305992bf0d6a5d27ad7df0b02356a17391d9",
          "transactionIndex": "0x1",
          "logIndex": "0x13",
          "removed": false
        },
        {
          "address": "0x28f6899ff643261ca9766ddc251b359a2d00b945",
          "topics": [
            "0x3303facd24627943a92e9dc87cfbb34b15c49b726eec3ad3487c16be9ab8efe8",
            "0x000000000000000000000000cb2da0f5aece616e2cbf29576cfc795fb15c6133",
            "0x00000000000000000000000040a59a3f3b16d9e74c811d24d8b7969664cfe180",
            "0x00000000000000000000000060c6a2e4827196bb34c304e90553b51017d89fdd"
          ],
          "data": "0x00000000000000000000000000000000000000000000b9f3a432553e843c8a7900000000000000000000000000000000000000000000b9f3a432553e843c8a790000000000000000000000000000000000000000000000000000000000000000",
          "blockHash": "0xed4fcc690db05300490f33f00350bde54e7a39d413c5bdfe5d9b5b54388d4cc8",
          "blockNumber": "0x8eaaec",
          "blockTimestamp": "0x66e36f0a",
          "transactionHash": "0xa3d656304e0929be933450181b75305992bf0d6a5d27ad7df0b02356a17391d9",
          "transactionIndex": "0x1",
          "logIndex": "0x14",
          "removed": false
        },
        {
          "address": "0x28f6899ff643261ca9766ddc251b359a2d00b945",
          "topics": [
            "0x3303facd24627943a92e9dc87cfbb34b15c49b726eec3ad3487c16be9ab8efe8",
            "0x000000000000000000000000cb2da0f5aece616e2cbf29576cfc795fb15c6133",
            "0x00000000000000000000000078354f8dccb269a615a7e0a24f9b0718fdc3c7a7",
            "0x00000000000000000000000060c6a2e4827196bb34c304e90553b51017d89fdd"
          ],
          "data": "0x000000000000000000000000000000000000000000000dff5fe70bc4411dfce2000000000000000000000000000000000000000000000dff5fe70bc4411dfce20000000000000000000000000000000000000000000000000000000000000000",
          "blockHash": "0xed4fcc690db05300490f33f00350bde54e7a39d413c5bdfe5d9b5b54388d4cc8",
          "blockNumber": "0x8eaaec",
          "blockTimestamp": "0x66e36f0a",
          "transactionHash": "0xa3d656304e0929be933450181b75305992bf0d6a5d27ad7df0b02356a17391d9",
          "transactionIndex": "0x1",
          "logIndex": "0x15",
          "removed": false
        },
        {
          "address": "0xcb2da0f5aece616e2cbf29576cfc795fb15c6133",
          "topics": [
            "0xddf252ad1be2c89b69c2b068fc378daa952ba7f163c4a11628f55a4df523b3ef",
            "0x0000000000000000000000000000000000000000000000000000000000000000",
            "0x00000000000000000000000060c6a2e4827196bb34c304e90553b51017d89fdd"
          ],
          "data": "0x000000000000000000000000000000000000000000000000004716fd2df49ffc",
          "blockHash": "0xed4fcc690db05300490f33f00350bde54e7a39d413c5bdfe5d9b5b54388d4cc8",
          "blockNumber": "0x8eaaec",
          "blockTimestamp": "0x66e36f0a",
          "transactionHash": "0xa3d656304e0929be933450181b75305992bf0d6a5d27ad7df0b02356a17391d9",
          "transactionIndex": "0x1",
          "logIndex": "0x16",
          "removed": false
        },
        {
          "address": "0xcb2da0f5aece616e2cbf29576cfc795fb15c6133",
          "topics": [
            "0x458f5fa412d0f69b08dd84872b0215675cc67bc1d5b6fd93300a1c3878b86196",
            "0x00000000000000000000000060c6a2e4827196bb34c304e90553b51017d89fdd",
            "0x00000000000000000000000060c6a2e4827196bb34c304e90553b51017d89fdd"
          ],
          "data": "0x000000000000000000000000000000000000000000000000004716fd2df49ffc00000000000000000000000000000000000000000000000000000000000000000000000000000000000000000000000000000000035f4006c715956cc56be747",
          "blockHash": "0xed4fcc690db05300490f33f00350bde54e7a39d413c5bdfe5d9b5b54388d4cc8",
          "blockNumber": "0x8eaaec",
          "blockTimestamp": "0x66e36f0a",
          "transactionHash": "0xa3d656304e0929be933450181b75305992bf0d6a5d27ad7df0b02356a17391d9",
          "transactionIndex": "0x1",
          "logIndex": "0x17",
          "removed": false
        },
        {
          "address": "0x2f9bb73a8e98793e26cb2f6c4ad037bdf1c6b269",
          "topics": [
            "0x804c9b842b2748a22bb64b345453a3de7ca54a6ca45ce00d415894979e22897a",
            "0x000000000000000000000000e5d7c2a44ffddf6b295a15c148167daaaf5cf34f"
          ],
          "data": "0x0000000000000000000000000000000000000000000b0c3bd49da490466578d50000000000000000000000000000000000000000002cac5792b9f8b1442f32c50000000000000000000000000000000000000000001a837122af923e9179962600000000000000000000000000000000000000000352a6409adce7befd3299b00000000000000000000000000000000000000000035f4006c715956cc56be747",
          "blockHash": "0xed4fcc690db05300490f33f00350bde54e7a39d413c5bdfe5d9b5b54388d4cc8",
          "blockNumber": "0x8eaaec",
          "blockTimestamp": "0x66e36f0a",
          "transactionHash": "0xa3d656304e0929be933450181b75305992bf0d6a5d27ad7df0b02356a17391d9",
          "transactionIndex": "0x1",
          "logIndex": "0x18",
          "removed": false
        },
        {
          "address": "0xe5d7c2a44ffddf6b295a15c148167daaaf5cf34f",
          "topics": [
            "0xddf252ad1be2c89b69c2b068fc378daa952ba7f163c4a11628f55a4df523b3ef",
            "0x000000000000000000000000b4ffef15daf4c02787bc5332580b838ce39805f5",
            "0x00000000000000000000000060c6a2e4827196bb34c304e90553b51017d89fdd"
          ],
          "data": "0x000000000000000000000000000000000000000000000000004716fd2df49ffc",
          "blockHash": "0xed4fcc690db05300490f33f00350bde54e7a39d413c5bdfe5d9b5b54388d4cc8",
          "blockNumber": "0x8eaaec",
          "blockTimestamp": "0x66e36f0a",
          "transactionHash": "0xa3d656304e0929be933450181b75305992bf0d6a5d27ad7df0b02356a17391d9",
          "transactionIndex": "0x1",
          "logIndex": "0x19",
          "removed": false
        },
        {
          "address": "0x2f9bb73a8e98793e26cb2f6c4ad037bdf1c6b269",
          "topics": [
            "0xb3d084820fb1a9decffb176436bd02558d15fac9b0ddfed8c465bc7359d7dce0",
            "0x000000000000000000000000e5d7c2a44ffddf6b295a15c148167daaaf5cf34f",
            "0x00000000000000000000000060c6a2e4827196bb34c304e90553b51017d89fdd",
            "0x0000000000000000000000000000000000000000000000000000000000000000"
          ],
          "data": "0x00000000000000000000000060c6a2e4827196bb34c304e90553b51017d89fdd000000000000000000000000000000000000000000000000004716fd2df49ffc00000000000000000000000000000000000000000000000000000000000000020000000000000000000000000000000000000000001a837122af923e91799626",
          "blockHash": "0xed4fcc690db05300490f33f00350bde54e7a39d413c5bdfe5d9b5b54388d4cc8",
          "blockNumber": "0x8eaaec",
          "blockTimestamp": "0x66e36f0a",
          "transactionHash": "0xa3d656304e0929be933450181b75305992bf0d6a5d27ad7df0b02356a17391d9",
          "transactionIndex": "0x1",
          "logIndex": "0x1a",
          "removed": false
        },
        {
          "address": "0xe5d7c2a44ffddf6b295a15c148167daaaf5cf34f",
          "topics": [
            "0x8c5be1e5ebec7d5bd14f71427d1e84f3dd0314c0f7b2291e5b200ac8c7c3b925",
            "0x00000000000000000000000060c6a2e4827196bb34c304e90553b51017d89fdd",
            "0x0000000000000000000000002d8879046f1559e53eb052e949e9544bcb72f414"
          ],
          "data": "0x0000000000000000000000000000000000000000000000000000000000000000",
          "blockHash": "0xed4fcc690db05300490f33f00350bde54e7a39d413c5bdfe5d9b5b54388d4cc8",
          "blockNumber": "0x8eaaec",
          "blockTimestamp": "0x66e36f0a",
          "transactionHash": "0xa3d656304e0929be933450181b75305992bf0d6a5d27ad7df0b02356a17391d9",
          "transactionIndex": "0x1",
          "logIndex": "0x1b",
          "removed": false
        },
        {
          "address": "0x176211869ca2b568f2a7d4ee941e073a821ee1ff",
          "topics": [
            "0x8c5be1e5ebec7d5bd14f71427d1e84f3dd0314c0f7b2291e5b200ac8c7c3b925",
            "0x00000000000000000000000060c6a2e4827196bb34c304e90553b51017d89fdd",
            "0x0000000000000000000000002f9bb73a8e98793e26cb2f6c4ad037bdf1c6b269"
          ],
          "data": "0x0000000000000000000000000000000000000000000000000000000000000000",
          "blockHash": "0xed4fcc690db05300490f33f00350bde54e7a39d413c5bdfe5d9b5b54388d4cc8",
          "blockNumber": "0x8eaaec",
          "blockTimestamp": "0x66e36f0a",
          "transactionHash": "0xa3d656304e0929be933450181b75305992bf0d6a5d27ad7df0b02356a17391d9",
          "transactionIndex": "0x1",
          "logIndex": "0x1c",
          "removed": false
        },
        {
          "address": "0xe5d7c2a44ffddf6b295a15c148167daaaf5cf34f",
          "topics": [
            "0x8c5be1e5ebec7d5bd14f71427d1e84f3dd0314c0f7b2291e5b200ac8c7c3b925",
            "0x00000000000000000000000060c6a2e4827196bb34c304e90553b51017d89fdd",
            "0x0000000000000000000000002f9bb73a8e98793e26cb2f6c4ad037bdf1c6b269"
          ],
          "data": "0x000000000000000000000000000000000000000000000000004716fd2df49ffc",
          "blockHash": "0xed4fcc690db05300490f33f00350bde54e7a39d413c5bdfe5d9b5b54388d4cc8",
          "blockNumber": "0x8eaaec",
          "blockTimestamp": "0x66e36f0a",
          "transactionHash": "0xa3d656304e0929be933450181b75305992bf0d6a5d27ad7df0b02356a17391d9",
          "transactionIndex": "0x1",
          "logIndex": "0x1d",
          "removed": false
        },
        {
          "address": "0x2f9bb73a8e98793e26cb2f6c4ad037bdf1c6b269",
          "topics": [
            "0x804c9b842b2748a22bb64b345453a3de7ca54a6ca45ce00d415894979e22897a",
            "0x000000000000000000000000e5d7c2a44ffddf6b295a15c148167daaaf5cf34f"
          ],
          "data": "0x0000000000000000000000000000000000000000000b0c3ad9581196872db0980000000000000000000000000000000000000000002cac576d0995e2cd4107420000000000000000000000000000000000000000001a836ff52c7bcada083a0c00000000000000000000000000000000000000000352a6409fb203db99d09a440000000000000000000000000000000000000000035f4006c715956cc56be747",
          "blockHash": "0xed4fcc690db05300490f33f00350bde54e7a39d413c5bdfe5d9b5b54388d4cc8",
          "blockNumber": "0x8eaaec",
          "blockTimestamp": "0x66e36f0a",
          "transactionHash": "0xa3d656304e0929be933450181b75305992bf0d6a5d27ad7df0b02356a17391d9",
          "transactionIndex": "0x1",
          "logIndex": "0x1e",
          "removed": false
        },
        {
          "address": "0xe5d7c2a44ffddf6b295a15c148167daaaf5cf34f",
          "topics": [
            "0xddf252ad1be2c89b69c2b068fc378daa952ba7f163c4a11628f55a4df523b3ef",
            "0x00000000000000000000000060c6a2e4827196bb34c304e90553b51017d89fdd",
            "0x000000000000000000000000b4ffef15daf4c02787bc5332580b838ce39805f5"
          ],
          "data": "0x000000000000000000000000000000000000000000000000004716fd2df49ffc",
          "blockHash": "0xed4fcc690db05300490f33f00350bde54e7a39d413c5bdfe5d9b5b54388d4cc8",
          "blockNumber": "0x8eaaec",
          "blockTimestamp": "0x66e36f0a",
          "transactionHash": "0xa3d656304e0929be933450181b75305992bf0d6a5d27ad7df0b02356a17391d9",
          "transactionIndex": "0x1",
          "logIndex": "0x1f",
          "removed": false
        },
        {
          "address": "0x2f9bb73a8e98793e26cb2f6c4ad037bdf1c6b269",
          "topics": [
            "0xefefaba5e921573100900a3ad9cf29f222d995fb3b6045797eaea7521bd8d6f0",
            "0x00000000000000000000000060c6a2e4827196bb34c304e90553b51017d89fdd",
            "0x000000000000000000000000e5d7c2a44ffddf6b295a15c148167daaaf5cf34f",
            "0x0000000000000000000000000000000000000000000000000000000000000000"
          ],
          "data": "0x00000000000000000000000060c6a2e4827196bb34c304e90553b51017d89fdd00000000000000000000000000000000000000000000000000470de4df81fffc0000000000000000000000000000000000000000000000000000000000000000000000000000000000000000000000000000000000000000000009184e72a000",
          "blockHash": "0xed4fcc690db05300490f33f00350bde54e7a39d413c5bdfe5d9b5b54388d4cc8",
          "blockNumber": "0x8eaaec",
          "blockTimestamp": "0x66e36f0a",
          "transactionHash": "0xa3d656304e0929be933450181b75305992bf0d6a5d27ad7df0b02356a17391d9",
          "transactionIndex": "0x1",
          "logIndex": "0x20",
          "removed": false
        }
      ],
      "logsBloom": "0x00000000004009040088000000000000080000004000000000000000010000000000a0002004080000001000000600000010080000100014800400000024001004000020004000000008000802000000200010000004000000000004004000000080040202000000008000012000080180400000020000000100001000000000000002008001000800100004000000000000000000000000008000040000004002080000020000000000000002000010000000000010080100000000a00001000250000208000120000000204000000000020100a0000e0000080000000060000010200000008020000000000001000040000000100002000000400000100000",
      "type": "0x2",
      "transactionHash": "0xa3d656304e0929be933450181b75305992bf0d6a5d27ad7df0b02356a17391d9",
      "transactionIndex": "0x1",
      "blockHash": "0xed4fcc690db05300490f33f00350bde54e7a39d413c5bdfe5d9b5b54388d4cc8",
      "blockNumber": "0x8eaaec",
      "gasUsed": "0x1150fb",
      "effectiveGasPrice": "0x3938707",
      "blobGasPrice": "0x1",
      "from": "0xf39fd6e51aad88f6f4ce6ab8827279cfffb92266",
      "to": "0x0b306bf915c4d645ff596e518faf3f9669b97016",
      "contractAddress": null,
      "root": "0x0000000000000000000000000000000000000000000000000000000000000000"
    }
  ],
  "libraries": [],
  "pending": [],
  "returns": {},
  "timestamp": 1726181130,
  "chain": 59144,
  "commit": "4a57ec2"
}