{
  "transactions": [
    {
      "hash": "0x8753a850dac494f3a368a54b79b2a097fdea8786e48fb34d1f4953a949256dc9",
      "transactionType": "CALL",
      "contractName": null,
      "contractAddress": "0xe5d7c2a44ffddf6b295a15c148167daaaf5cf34f",
      "function": "approve(address,uint256)",
      "arguments": [
        "0x0B306BF915C4d645ff596e518fAf3F9669b97016",
        "115792089237316195423570985008687907853269984665640564039457584007913129639935"
      ],
      "transaction": {
        "from": "0xf39fd6e51aad88f6f4ce6ab8827279cfffb92266",
        "to": "0xe5d7c2a44ffddf6b295a15c148167daaaf5cf34f",
        "gas": "0xfa27",
        "value": "0x0",
        "input": "0x095ea7b30000000000000000000000000b306bf915c4d645ff596e518faf3f9669b97016ffffffffffffffffffffffffffffffffffffffffffffffffffffffffffffffff",
        "nonce": "0x23",
        "chainId": "0xe708"
      },
      "additionalContracts": [],
      "isFixedGasLimit": false
    },
    {
      "hash": "0x73c896ef759197893c9595ecdb773d0685658941b445aeaba1d6c01be06fee1b",
      "transactionType": "CALL",
      "contractName": null,
      "contractAddress": "0x176211869ca2b568f2a7d4ee941e073a821ee1ff",
      "function": "approve(address,uint256)",
      "arguments": [
        "0x0B306BF915C4d645ff596e518fAf3F9669b97016",
        "115792089237316195423570985008687907853269984665640564039457584007913129639935"
      ],
      "transaction": {
        "from": "0xf39fd6e51aad88f6f4ce6ab8827279cfffb92266",
        "to": "0x176211869ca2b568f2a7d4ee941e073a821ee1ff",
        "gas": "0xe62b",
        "value": "0x0",
        "input": "0x095ea7b30000000000000000000000000b306bf915c4d645ff596e518faf3f9669b97016ffffffffffffffffffffffffffffffffffffffffffffffffffffffffffffffff",
        "nonce": "0x24",
        "chainId": "0xe708"
      },
      "additionalContracts": [],
      "isFixedGasLimit": false
    },
    {
      "hash": "0x1e96bec468fed53a0f09cfc4d122e5b51fa6e09fba744fe287aae72f014b7ef2",
      "transactionType": "CALL",
      "contractName": null,
      "contractAddress": "0x0b306bf915c4d645ff596e518faf3f9669b97016",
      "function": "createAndAddToPosition((string,address,address),(uint256,uint256,bytes))",
      "arguments": [
        "(\"SHORT_BASE_ODOS_ZEROLEND\", 0x176211869cA2b568f2A7D4EE941E073a821EE1ff, 0xe5D7C2a44FfDDf6b295A15c148167daaAf5Cf34f)",
        "(10000000000000000, 19999999999999996, 0x83bd37f90001e5d7c2a44ffddf6b295a15c148167daaaf5cf34f0001176211869ca2b568f2a7d4ee941e073a821ee1ff076a94d74f42fffc0404566c5b028f5c000156c85a254dd12ee8d9c04049a4ab62769ce9821000000001e2dc6a3a24e40932f498fc6f4d705281e59a583c0000000003010204016f047cb60301010101020019000a0101030200ff00000000000000006fb44889a9aa69f7290258d3716bffcb33cde184e5d7c2a44ffddf6b295a15c148167daaaf5cf34fb273e954983abae94ec500c19f1a23790d3553d300000000)"
      ],
      "transaction": {
        "from": "0xf39fd6e51aad88f6f4ce6ab8827279cfffb92266",
        "to": "0x0b306bf915c4d645ff596e518faf3f9669b97016",
        "gas": "0x1b7658",
        "value": "0x0",
        "input": "0x211d9b04000000000000000000000000000000000000000000000000000000000000004000000000000000000000000000000000000000000000000000000000000000e00000000000000000000000000000000000000000000000000000000000000060000000000000000000000000176211869ca2b568f2a7d4ee941e073a821ee1ff000000000000000000000000e5d7c2a44ffddf6b295a15c148167daaaf5cf34f000000000000000000000000000000000000000000000000000000000000001853484f52545f424153455f4f444f535f5a45524f4c454e440000000000000000000000000000000000000000000000000000000000000000002386f26fc1000000000000000000000000000000000000000000000000000000470de4df81fffc000000000000000000000000000000000000000000000000000000000000006000000000000000000000000000000000000000000000000000000000000000d383bd37f90001e5d7c2a44ffddf6b295a15c148167daaaf5cf34f0001176211869ca2b568f2a7d4ee941e073a821ee1ff076a94d74f42fffc0404566c5b028f5c000156c85a254dd12ee8d9c04049a4ab62769ce9821000000001e2dc6a3a24e40932f498fc6f4d705281e59a583c0000000003010204016f047cb60301010101020019000a0101030200ff00000000000000006fb44889a9aa69f7290258d3716bffcb33cde184e5d7c2a44ffddf6b295a15c148167daaaf5cf34fb273e954983abae94ec500c19f1a23790d3553d30000000000000000000000000000000000",
        "nonce": "0x25",
        "chainId": "0xe708"
      },
      "additionalContracts": [
        {
          "transactionType": "CREATE2",
          "address": "0xe2dc6a3a24e40932f498fc6f4d705281e59a583c",
          "initCode": "0x60a060405234801561001057600080fd5b506040516101d43803806101d483398101604081905261002f9161009a565b6001600160a01b0381166100895760405162461bcd60e51b815260206004820152601e60248201527f496e76616c696420696d706c656d656e746174696f6e20616464726573730000604482015260640160405180910390fd5b6001600160a01b03166080526100ca565b6000602082840312156100ac57600080fd5b81516001600160a01b03811681146100c357600080fd5b9392505050565b60805160ec6100e860003960008181602001526055015260ec6000f3fe608060405260043610601c5760003560e01c80635c60da1b146045575b60437f00000000000000000000000000000000000000000000000000000000000000006093565b005b348015605057600080fd5b5060777f000000000000000000000000000000000000000000000000000000000000000081565b6040516001600160a01b03909116815260200160405180910390f35b3660008037600080366000845af43d6000803e80801560b1573d6000f35b3d6000fdfea2646970667358221220f6020ed423ab8c3633806cc507ff73ce07ea9bade45f63874f1be7c04b23516364736f6c634300081a003300000000000000000000000059b670e9fa9d0a427751af201d676719a970857b"
        }
      ],
      "isFixedGasLimit": false
    }
  ],
  "receipts": [
    {
      "status": "0x1",
      "cumulativeGasUsed": "0xb51c",
      "logs": [
        {
          "address": "0xe5d7c2a44ffddf6b295a15c148167daaaf5cf34f",
          "topics": [
            "0x8c5be1e5ebec7d5bd14f71427d1e84f3dd0314c0f7b2291e5b200ac8c7c3b925",
            "0x000000000000000000000000f39fd6e51aad88f6f4ce6ab8827279cfffb92266",
            "0x0000000000000000000000000b306bf915c4d645ff596e518faf3f9669b97016"
          ],
          "data": "0xffffffffffffffffffffffffffffffffffffffffffffffffffffffffffffffff",
          "blockHash": "0x44f2f7c37c88145151a9c2ffc9c64905d49596d328d5e0093b7a32d46a4aad2a",
          "blockNumber": "0x8fead8",
          "blockTimestamp": "0x66e4edc1",
          "transactionHash": "0x8753a850dac494f3a368a54b79b2a097fdea8786e48fb34d1f4953a949256dc9",
          "transactionIndex": "0x0",
          "logIndex": "0x0",
          "removed": false
        }
      ],
      "logsBloom": "0x0000000000000000000000000000000800000000000000000000000000000000000000000000000000000000000000000000000000000000000000000020000000000000000000000000000000000000000000000000000000000000000000000000000000000000000000030000000000000000000000000000000000000000000000000000000000100000000000000000000000000000000000000000000002000000000000000000000000000000000000000000000000000000200000000000000000000020000000000000000000000000a000000000000000000000000010000000000000000000000400000000000000000000000000000000000000",
      "type": "0x2",
      "transactionHash": "0x8753a850dac494f3a368a54b79b2a097fdea8786e48fb34d1f4953a949256dc9",
      "transactionIndex": "0x0",
      "blockHash": "0x44f2f7c37c88145151a9c2ffc9c64905d49596d328d5e0093b7a32d46a4aad2a",
      "blockNumber": "0x8fead8",
      "gasUsed": "0xb51c",
      "effectiveGasPrice": "0x3938707",
      "blobGasPrice": "0x1",
      "from": "0xf39fd6e51aad88f6f4ce6ab8827279cfffb92266",
      "to": "0xe5d7c2a44ffddf6b295a15c148167daaaf5cf34f",
      "contractAddress": null,
      "root": "0x0000000000000000000000000000000000000000000000000000000000000000"
    },
    {
      "status": "0x1",
      "cumulativeGasUsed": "0x9d62",
      "logs": [
        {
          "address": "0x176211869ca2b568f2a7d4ee941e073a821ee1ff",
          "topics": [
            "0x8c5be1e5ebec7d5bd14f71427d1e84f3dd0314c0f7b2291e5b200ac8c7c3b925",
            "0x000000000000000000000000f39fd6e51aad88f6f4ce6ab8827279cfffb92266",
            "0x0000000000000000000000000b306bf915c4d645ff596e518faf3f9669b97016"
          ],
          "data": "0xffffffffffffffffffffffffffffffffffffffffffffffffffffffffffffffff",
          "blockHash": "0x5a140f3bd0c4449b525eb849231867c963d62cf32b64c106d354aa5b0c00f40b",
          "blockNumber": "0x8fead9",
          "blockTimestamp": "0x66e4edc2",
          "transactionHash": "0x73c896ef759197893c9595ecdb773d0685658941b445aeaba1d6c01be06fee1b",
          "transactionIndex": "0x0",
          "logIndex": "0x0",
          "removed": false
        }
      ],
      "logsBloom": "0x00000000000000000000000000000008000000000000000000000000000000000000000000000000000000000000000000000800000000000004000000200000000000000000000000000000020000000000000000000000000000000000000000000000000000000000000300000000000000000000000000000000000000000000000000000000000000000000000000000000000000000000000000000000020000000000000000000000000000000000000000000000000000000000000000000000000000200000000000000000000000002000000000000000000000000010000000000000000000000400000000000000000000000000000000000000",
      "type": "0x2",
      "transactionHash": "0x73c896ef759197893c9595ecdb773d0685658941b445aeaba1d6c01be06fee1b",
      "transactionIndex": "0x0",
      "blockHash": "0x5a140f3bd0c4449b525eb849231867c963d62cf32b64c106d354aa5b0c00f40b",
      "blockNumber": "0x8fead9",
      "gasUsed": "0x9d62",
      "effectiveGasPrice": "0x3938707",
      "blobGasPrice": "0x1",
      "from": "0xf39fd6e51aad88f6f4ce6ab8827279cfffb92266",
      "to": "0x176211869ca2b568f2a7d4ee941e073a821ee1ff",
      "contractAddress": null,
      "root": "0x0000000000000000000000000000000000000000000000000000000000000000"
    },
    {
      "status": "0x1",
      "cumulativeGasUsed": "0x147f5a",
      "logs": [
        {
          "address": "0x9a9f2ccfde556a7e9ff0848998aa4a0cfd8863ae",
          "topics": [
            "0xddf252ad1be2c89b69c2b068fc378daa952ba7f163c4a11628f55a4df523b3ef",
            "0x0000000000000000000000000000000000000000000000000000000000000000",
            "0x000000000000000000000000f39fd6e51aad88f6f4ce6ab8827279cfffb92266",
            "0x0000000000000000000000000000000000000000000000000000000000000000"
          ],
          "data": "0x",
          "blockHash": "0x5a140f3bd0c4449b525eb849231867c963d62cf32b64c106d354aa5b0c00f40b",
          "blockNumber": "0x8fead9",
          "blockTimestamp": "0x66e4edc2",
          "transactionHash": "0x1e96bec468fed53a0f09cfc4d122e5b51fa6e09fba744fe287aae72f014b7ef2",
          "transactionIndex": "0x1",
          "logIndex": "0x1",
          "removed": false
        },
        {
          "address": "0xe5d7c2a44ffddf6b295a15c148167daaaf5cf34f",
          "topics": [
            "0xddf252ad1be2c89b69c2b068fc378daa952ba7f163c4a11628f55a4df523b3ef",
            "0x000000000000000000000000f39fd6e51aad88f6f4ce6ab8827279cfffb92266",
            "0x000000000000000000000000e2dc6a3a24e40932f498fc6f4d705281e59a583c"
          ],
          "data": "0x000000000000000000000000000000000000000000000000002386f26fc10000",
          "blockHash": "0x5a140f3bd0c4449b525eb849231867c963d62cf32b64c106d354aa5b0c00f40b",
          "blockNumber": "0x8fead9",
          "blockTimestamp": "0x66e4edc2",
          "transactionHash": "0x1e96bec468fed53a0f09cfc4d122e5b51fa6e09fba744fe287aae72f014b7ef2",
          "transactionIndex": "0x1",
          "logIndex": "0x2",
          "removed": false
        },
        {
          "address": "0xe5d7c2a44ffddf6b295a15c148167daaaf5cf34f",
          "topics": [
            "0xddf252ad1be2c89b69c2b068fc378daa952ba7f163c4a11628f55a4df523b3ef",
            "0x000000000000000000000000b4ffef15daf4c02787bc5332580b838ce39805f5",
            "0x000000000000000000000000e2dc6a3a24e40932f498fc6f4d705281e59a583c"
          ],
          "data": "0x00000000000000000000000000000000000000000000000000470de4df81fffc",
          "blockHash": "0x5a140f3bd0c4449b525eb849231867c963d62cf32b64c106d354aa5b0c00f40b",
          "blockNumber": "0x8fead9",
          "blockTimestamp": "0x66e4edc2",
          "transactionHash": "0x1e96bec468fed53a0f09cfc4d122e5b51fa6e09fba744fe287aae72f014b7ef2",
          "transactionIndex": "0x1",
          "logIndex": "0x3",
          "removed": false
        },
        {
          "address": "0xe5d7c2a44ffddf6b295a15c148167daaaf5cf34f",
          "topics": [
            "0x8c5be1e5ebec7d5bd14f71427d1e84f3dd0314c0f7b2291e5b200ac8c7c3b925",
            "0x000000000000000000000000e2dc6a3a24e40932f498fc6f4d705281e59a583c",
            "0x0000000000000000000000002d8879046f1559e53eb052e949e9544bcb72f414"
          ],
          "data": "0x000000000000000000000000000000000000000000000000006a94d74f42fffc",
          "blockHash": "0x5a140f3bd0c4449b525eb849231867c963d62cf32b64c106d354aa5b0c00f40b",
          "blockNumber": "0x8fead9",
          "blockTimestamp": "0x66e4edc2",
          "transactionHash": "0x1e96bec468fed53a0f09cfc4d122e5b51fa6e09fba744fe287aae72f014b7ef2",
          "transactionIndex": "0x1",
          "logIndex": "0x4",
          "removed": false
        },
        {
          "address": "0xe5d7c2a44ffddf6b295a15c148167daaaf5cf34f",
          "topics": [
            "0xddf252ad1be2c89b69c2b068fc378daa952ba7f163c4a11628f55a4df523b3ef",
            "0x000000000000000000000000e2dc6a3a24e40932f498fc6f4d705281e59a583c",
            "0x00000000000000000000000056c85a254dd12ee8d9c04049a4ab62769ce98210"
          ],
          "data": "0x000000000000000000000000000000000000000000000000006a94d74f42fffc",
          "blockHash": "0x5a140f3bd0c4449b525eb849231867c963d62cf32b64c106d354aa5b0c00f40b",
          "blockNumber": "0x8fead9",
          "blockTimestamp": "0x66e4edc2",
          "transactionHash": "0x1e96bec468fed53a0f09cfc4d122e5b51fa6e09fba744fe287aae72f014b7ef2",
          "transactionIndex": "0x1",
          "logIndex": "0x5",
          "removed": false
        },
        {
          "address": "0xe5d7c2a44ffddf6b295a15c148167daaaf5cf34f",
          "topics": [
            "0xddf252ad1be2c89b69c2b068fc378daa952ba7f163c4a11628f55a4df523b3ef",
            "0x00000000000000000000000056c85a254dd12ee8d9c04049a4ab62769ce98210",
            "0x0000000000000000000000006fb44889a9aa69f7290258d3716bffcb33cde184"
          ],
          "data": "0x000000000000000000000000000000000000000000000000002e38679a996581",
          "blockHash": "0x5a140f3bd0c4449b525eb849231867c963d62cf32b64c106d354aa5b0c00f40b",
          "blockNumber": "0x8fead9",
          "blockTimestamp": "0x66e4edc2",
          "transactionHash": "0x1e96bec468fed53a0f09cfc4d122e5b51fa6e09fba744fe287aae72f014b7ef2",
          "transactionIndex": "0x1",
          "logIndex": "0x6",
          "removed": false
        },
        {
          "address": "0x176211869ca2b568f2a7d4ee941e073a821ee1ff",
          "topics": [
            "0xddf252ad1be2c89b69c2b068fc378daa952ba7f163c4a11628f55a4df523b3ef",
            "0x0000000000000000000000006fb44889a9aa69f7290258d3716bffcb33cde184",
            "0x0000000000000000000000002d8879046f1559e53eb052e949e9544bcb72f414"
          ],
          "data": "0x0000000000000000000000000000000000000000000000000000000001e19d84",
          "blockHash": "0x5a140f3bd0c4449b525eb849231867c963d62cf32b64c106d354aa5b0c00f40b",
          "blockNumber": "0x8fead9",
          "blockTimestamp": "0x66e4edc2",
          "transactionHash": "0x1e96bec468fed53a0f09cfc4d122e5b51fa6e09fba744fe287aae72f014b7ef2",
          "transactionIndex": "0x1",
          "logIndex": "0x7",
          "removed": false
        },
        {
          "address": "0xe5d7c2a44ffddf6b295a15c148167daaaf5cf34f",
          "topics": [
            "0xddf252ad1be2c89b69c2b068fc378daa952ba7f163c4a11628f55a4df523b3ef",
            "0x0000000000000000000000006fb44889a9aa69f7290258d3716bffcb33cde184",
            "0x0000000000000000000000009fce5ca27227e1f64f0c3160397f5888dded14f5"
          ],
          "data": "0x00000000000000000000000000000000000000000000000000001d94bd2fbe55",
          "blockHash": "0x5a140f3bd0c4449b525eb849231867c963d62cf32b64c106d354aa5b0c00f40b",
          "blockNumber": "0x8fead9",
          "blockTimestamp": "0x66e4edc2",
          "transactionHash": "0x1e96bec468fed53a0f09cfc4d122e5b51fa6e09fba744fe287aae72f014b7ef2",
          "transactionIndex": "0x1",
          "logIndex": "0x8",
          "removed": false
        },
        {
          "address": "0x6fb44889a9aa69f7290258d3716bffcb33cde184",
          "topics": [
            "0x112c256902bf554b6ed882d2936687aaeb4225e8cd5b51303c90ca6cf43a8602",
            "0x00000000000000000000000056c85a254dd12ee8d9c04049a4ab62769ce98210"
          ],
          "data": "0x000000000000000000000000000000000000000000000000000000000000000000000000000000000000000000000000000000000000000000001d94bd2fbe55",
          "blockHash": "0x5a140f3bd0c4449b525eb849231867c963d62cf32b64c106d354aa5b0c00f40b",
          "blockNumber": "0x8fead9",
          "blockTimestamp": "0x66e4edc2",
          "transactionHash": "0x1e96bec468fed53a0f09cfc4d122e5b51fa6e09fba744fe287aae72f014b7ef2",
          "transactionIndex": "0x1",
          "logIndex": "0x9",
          "removed": false
        },
        {
          "address": "0x6fb44889a9aa69f7290258d3716bffcb33cde184",
          "topics": [
            "0xcf2aa50876cdfbb541206f89af0ee78d44a2abf8d328e37fa4917f982149848a"
          ],
          "data": "0x00000000000000000000000000000000000000000000000000000007b149b4c3000000000000000000000000000000000000000000000000bcb2f1148aca535d",
          "blockHash": "0x5a140f3bd0c4449b525eb849231867c963d62cf32b64c106d354aa5b0c00f40b",
          "blockNumber": "0x8fead9",
          "blockTimestamp": "0x66e4edc2",
          "transactionHash": "0x1e96bec468fed53a0f09cfc4d122e5b51fa6e09fba744fe287aae72f014b7ef2",
          "transactionIndex": "0x1",
          "logIndex": "0xa",
          "removed": false
        },
        {
          "address": "0x6fb44889a9aa69f7290258d3716bffcb33cde184",
          "topics": [
            "0xd78ad95fa46c994b6551d0da85fc275fe613ce37657fb8d5e3d130840159d822",
            "0x00000000000000000000000056c85a254dd12ee8d9c04049a4ab62769ce98210",
            "0x0000000000000000000000002d8879046f1559e53eb052e949e9544bcb72f414"
          ],
          "data": "0x0000000000000000000000000000000000000000000000000000000000000000000000000000000000000000000000000000000000000000002e38679a9965810000000000000000000000000000000000000000000000000000000001e19d840000000000000000000000000000000000000000000000000000000000000000",
          "blockHash": "0x5a140f3bd0c4449b525eb849231867c963d62cf32b64c106d354aa5b0c00f40b",
          "blockNumber": "0x8fead9",
          "blockTimestamp": "0x66e4edc2",
          "transactionHash": "0x1e96bec468fed53a0f09cfc4d122e5b51fa6e09fba744fe287aae72f014b7ef2",
          "transactionIndex": "0x1",
          "logIndex": "0xb",
          "removed": false
        },
        {
          "address": "0x176211869ca2b568f2a7d4ee941e073a821ee1ff",
          "topics": [
            "0xddf252ad1be2c89b69c2b068fc378daa952ba7f163c4a11628f55a4df523b3ef",
            "0x000000000000000000000000b273e954983abae94ec500c19f1a23790d3553d3",
            "0x0000000000000000000000002d8879046f1559e53eb052e949e9544bcb72f414"
          ],
          "data": "0x000000000000000000000000000000000000000000000000000000000274ced6",
          "blockHash": "0x5a140f3bd0c4449b525eb849231867c963d62cf32b64c106d354aa5b0c00f40b",
          "blockNumber": "0x8fead9",
          "blockTimestamp": "0x66e4edc2",
          "transactionHash": "0x1e96bec468fed53a0f09cfc4d122e5b51fa6e09fba744fe287aae72f014b7ef2",
          "transactionIndex": "0x1",
          "logIndex": "0xc",
          "removed": false
        },
        {
          "address": "0xe5d7c2a44ffddf6b295a15c148167daaaf5cf34f",
          "topics": [
            "0xddf252ad1be2c89b69c2b068fc378daa952ba7f163c4a11628f55a4df523b3ef",
            "0x00000000000000000000000056c85a254dd12ee8d9c04049a4ab62769ce98210",
            "0x000000000000000000000000b273e954983abae94ec500c19f1a23790d3553d3"
          ],
          "data": "0x000000000000000000000000000000000000000000000000003c5c6fb4a99a7b",
          "blockHash": "0x5a140f3bd0c4449b525eb849231867c963d62cf32b64c106d354aa5b0c00f40b",
          "blockNumber": "0x8fead9",
          "blockTimestamp": "0x66e4edc2",
          "transactionHash": "0x1e96bec468fed53a0f09cfc4d122e5b51fa6e09fba744fe287aae72f014b7ef2",
          "transactionIndex": "0x1",
          "logIndex": "0xd",
          "removed": false
        },
        {
          "address": "0xb273e954983abae94ec500c19f1a23790d3553d3",
          "topics": [
            "0xc42079f94a6350d7e6235f29174924f928cc2ac818eb64fed8004e115fbcca67",
            "0x00000000000000000000000056c85a254dd12ee8d9c04049a4ab62769ce98210",
            "0x0000000000000000000000002d8879046f1559e53eb052e949e9544bcb72f414"
          ],
          "data": "0xfffffffffffffffffffffffffffffffffffffffffffffffffffffffffd8b312a000000000000000000000000000000000000000000000000003c5c6fb4a99a7b0000000000000000000000000000000000004f3980c5bfe3337534547377542700000000000000000000000000000000000000000000000000043576a011c72c00000000000000000000000000000000000000000000000000000000000306d7",
          "blockHash": "0x5a140f3bd0c4449b525eb849231867c963d62cf32b64c106d354aa5b0c00f40b",
          "blockNumber": "0x8fead9",
          "blockTimestamp": "0x66e4edc2",
          "transactionHash": "0x1e96bec468fed53a0f09cfc4d122e5b51fa6e09fba744fe287aae72f014b7ef2",
          "transactionIndex": "0x1",
          "logIndex": "0xe",
          "removed": false
        },
        {
          "address": "0x176211869ca2b568f2a7d4ee941e073a821ee1ff",
          "topics": [
            "0xddf252ad1be2c89b69c2b068fc378daa952ba7f163c4a11628f55a4df523b3ef",
            "0x0000000000000000000000002d8879046f1559e53eb052e949e9544bcb72f414",
            "0x000000000000000000000000e2dc6a3a24e40932f498fc6f4d705281e59a583c"
          ],
          "data": "0x0000000000000000000000000000000000000000000000000000000004566c5a",
          "blockHash": "0x5a140f3bd0c4449b525eb849231867c963d62cf32b64c106d354aa5b0c00f40b",
          "blockNumber": "0x8fead9",
          "blockTimestamp": "0x66e4edc2",
          "transactionHash": "0x1e96bec468fed53a0f09cfc4d122e5b51fa6e09fba744fe287aae72f014b7ef2",
          "transactionIndex": "0x1",
          "logIndex": "0xf",
          "removed": false
        },
        {
          "address": "0x2d8879046f1559e53eb052e949e9544bcb72f414",
          "topics": [
            "0x823eaf01002d7353fbcadb2ea3305cc46fa35d799cb0914846d185ac06f8ad05"
          ],
          "data": "0x000000000000000000000000e2dc6a3a24e40932f498fc6f4d705281e59a583c000000000000000000000000000000000000000000000000006a94d74f42fffc000000000000000000000000e5d7c2a44ffddf6b295a15c148167daaaf5cf34f0000000000000000000000000000000000000000000000000000000004566c5a000000000000000000000000176211869ca2b568f2a7d4ee941e073a821ee1ffffffffffffffffffffffffffffffffffffffffffffffffffffffffffffffffff0000000000000000000000000000000000000000000000000000000000000000",
          "blockHash": "0x5a140f3bd0c4449b525eb849231867c963d62cf32b64c106d354aa5b0c00f40b",
          "blockNumber": "0x8fead9",
          "blockTimestamp": "0x66e4edc2",
          "transactionHash": "0x1e96bec468fed53a0f09cfc4d122e5b51fa6e09fba744fe287aae72f014b7ef2",
          "transactionIndex": "0x1",
          "logIndex": "0x10",
          "removed": false
        },
        {
          "address": "0x176211869ca2b568f2a7d4ee941e073a821ee1ff",
          "topics": [
            "0x8c5be1e5ebec7d5bd14f71427d1e84f3dd0314c0f7b2291e5b200ac8c7c3b925",
            "0x000000000000000000000000e2dc6a3a24e40932f498fc6f4d705281e59a583c",
            "0x0000000000000000000000002f9bb73a8e98793e26cb2f6c4ad037bdf1c6b269"
          ],
          "data": "0x0000000000000000000000000000000000000000000000000000000004566c5a",
          "blockHash": "0x5a140f3bd0c4449b525eb849231867c963d62cf32b64c106d354aa5b0c00f40b",
          "blockNumber": "0x8fead9",
          "blockTimestamp": "0x66e4edc2",
          "transactionHash": "0x1e96bec468fed53a0f09cfc4d122e5b51fa6e09fba744fe287aae72f014b7ef2",
          "transactionIndex": "0x1",
          "logIndex": "0x11",
          "removed": false
        },
        {
          "address": "0x2f9bb73a8e98793e26cb2f6c4ad037bdf1c6b269",
          "topics": [
            "0x804c9b842b2748a22bb64b345453a3de7ca54a6ca45ce00d415894979e22897a",
            "0x000000000000000000000000176211869ca2b568f2a7d4ee941e073a821ee1ff"
          ],
          "data": "0x00000000000000000000000000000000000000000011885cd6659ac9548b64b90000000000000000000000000000000000000000002d4b99a095a828fb9a91780000000000000000000000000000000000000000001f7d81918d0dfc4cd48bbe0000000000000000000000000000000000000000035dda5a573bb982ae6f063e0000000000000000000000000000000000000000036bc1b2c6780710a62ad6cf",
          "blockHash": "0x5a140f3bd0c4449b525eb849231867c963d62cf32b64c106d354aa5b0c00f40b",
          "blockNumber": "0x8fead9",
          "blockTimestamp": "0x66e4edc2",
          "transactionHash": "0x1e96bec468fed53a0f09cfc4d122e5b51fa6e09fba744fe287aae72f014b7ef2",
          "transactionIndex": "0x1",
          "logIndex": "0x12",
          "removed": false
        },
        {
          "address": "0x176211869ca2b568f2a7d4ee941e073a821ee1ff",
          "topics": [
            "0xddf252ad1be2c89b69c2b068fc378daa952ba7f163c4a11628f55a4df523b3ef",
            "0x000000000000000000000000e2dc6a3a24e40932f498fc6f4d705281e59a583c",
            "0x0000000000000000000000002e207eca8b6bf77a6ac82763eeed2a94de4f081d"
          ],
          "data": "0x0000000000000000000000000000000000000000000000000000000004566c5a",
          "blockHash": "0x5a140f3bd0c4449b525eb849231867c963d62cf32b64c106d354aa5b0c00f40b",
          "blockNumber": "0x8fead9",
          "blockTimestamp": "0x66e4edc2",
          "transactionHash": "0x1e96bec468fed53a0f09cfc4d122e5b51fa6e09fba744fe287aae72f014b7ef2",
          "transactionIndex": "0x1",
          "logIndex": "0x13",
          "removed": false
        },
        {
          "address": "0x28f6899ff643261ca9766ddc251b359a2d00b945",
          "topics": [
            "0x3303facd24627943a92e9dc87cfbb34b15c49b726eec3ad3487c16be9ab8efe8",
            "0x0000000000000000000000002e207eca8b6bf77a6ac82763eeed2a94de4f081d",
            "0x00000000000000000000000040a59a3f3b16d9e74c811d24d8b7969664cfe180",
            "0x000000000000000000000000e2dc6a3a24e40932f498fc6f4d705281e59a583c"
          ],
          "data": "0x0000000000000000000000000000000000000000000000040755b053b796c7ed0000000000000000000000000000000000000000000000040755b053b796c7ed0000000000000000000000000000000000000000000000000000000000000000",
          "blockHash": "0x5a140f3bd0c4449b525eb849231867c963d62cf32b64c106d354aa5b0c00f40b",
          "blockNumber": "0x8fead9",
          "blockTimestamp": "0x66e4edc2",
          "transactionHash": "0x1e96bec468fed53a0f09cfc4d122e5b51fa6e09fba744fe287aae72f014b7ef2",
          "transactionIndex": "0x1",
          "logIndex": "0x14",
          "removed": false
        },
        {
          "address": "0x28f6899ff643261ca9766ddc251b359a2d00b945",
          "topics": [
            "0x3303facd24627943a92e9dc87cfbb34b15c49b726eec3ad3487c16be9ab8efe8",
            "0x0000000000000000000000002e207eca8b6bf77a6ac82763eeed2a94de4f081d",
            "0x00000000000000000000000078354f8dccb269a615a7e0a24f9b0718fdc3c7a7",
            "0x000000000000000000000000e2dc6a3a24e40932f498fc6f4d705281e59a583c"
          ],
          "data": "0x0000000000000000000000000000000000000000000000005f1b679b817654500000000000000000000000000000000000000000000000005f1b679b817654500000000000000000000000000000000000000000000000000000000000000000",
          "blockHash": "0x5a140f3bd0c4449b525eb849231867c963d62cf32b64c106d354aa5b0c00f40b",
          "blockNumber": "0x8fead9",
          "blockTimestamp": "0x66e4edc2",
          "transactionHash": "0x1e96bec468fed53a0f09cfc4d122e5b51fa6e09fba744fe287aae72f014b7ef2",
          "transactionIndex": "0x1",
          "logIndex": "0x15",
          "removed": false
        },
        {
          "address": "0x2e207eca8b6bf77a6ac82763eeed2a94de4f081d",
          "topics": [
            "0xddf252ad1be2c89b69c2b068fc378daa952ba7f163c4a11628f55a4df523b3ef",
            "0x0000000000000000000000000000000000000000000000000000000000000000",
            "0x000000000000000000000000e2dc6a3a24e40932f498fc6f4d705281e59a583c"
          ],
          "data": "0x0000000000000000000000000000000000000000000000000000000004566c5a",
          "blockHash": "0x5a140f3bd0c4449b525eb849231867c963d62cf32b64c106d354aa5b0c00f40b",
          "blockNumber": "0x8fead9",
          "blockTimestamp": "0x66e4edc2",
          "transactionHash": "0x1e96bec468fed53a0f09cfc4d122e5b51fa6e09fba744fe287aae72f014b7ef2",
          "transactionIndex": "0x1",
          "logIndex": "0x16",
          "removed": false
        },
        {
          "address": "0x2e207eca8b6bf77a6ac82763eeed2a94de4f081d",
          "topics": [
            "0x458f5fa412d0f69b08dd84872b0215675cc67bc1d5b6fd93300a1c3878b86196",
            "0x000000000000000000000000e2dc6a3a24e40932f498fc6f4d705281e59a583c",
            "0x000000000000000000000000e2dc6a3a24e40932f498fc6f4d705281e59a583c"
          ],
          "data": "0x0000000000000000000000000000000000000000000000000000000004566c5a00000000000000000000000000000000000000000000000000000000000000000000000000000000000000000000000000000000035dda5a573bb982ae6f063e",
          "blockHash": "0x5a140f3bd0c4449b525eb849231867c963d62cf32b64c106d354aa5b0c00f40b",
          "blockNumber": "0x8fead9",
          "blockTimestamp": "0x66e4edc2",
          "transactionHash": "0x1e96bec468fed53a0f09cfc4d122e5b51fa6e09fba744fe287aae72f014b7ef2",
          "transactionIndex": "0x1",
          "logIndex": "0x17",
          "removed": false
        },
        {
          "address": "0x2f9bb73a8e98793e26cb2f6c4ad037bdf1c6b269",
          "topics": [
            "0x00058a56ea94653cdf4f152d227ace22d4c00ad99e2a43f58cb7d9e3feb295f2",
            "0x000000000000000000000000176211869ca2b568f2a7d4ee941e073a821ee1ff",
            "0x000000000000000000000000e2dc6a3a24e40932f498fc6f4d705281e59a583c"
          ],
          "data": "0x",
          "blockHash": "0x5a140f3bd0c4449b525eb849231867c963d62cf32b64c106d354aa5b0c00f40b",
          "blockNumber": "0x8fead9",
          "blockTimestamp": "0x66e4edc2",
          "transactionHash": "0x1e96bec468fed53a0f09cfc4d122e5b51fa6e09fba744fe287aae72f014b7ef2",
          "transactionIndex": "0x1",
          "logIndex": "0x18",
          "removed": false
        },
        {
          "address": "0x2f9bb73a8e98793e26cb2f6c4ad037bdf1c6b269",
          "topics": [
            "0x2b627736bca15cd5381dcf80b0bf11fd197d01a037c52b927a881a10fb73ba61",
            "0x000000000000000000000000176211869ca2b568f2a7d4ee941e073a821ee1ff",
            "0x000000000000000000000000e2dc6a3a24e40932f498fc6f4d705281e59a583c",
            "0x0000000000000000000000000000000000000000000000000000000000000000"
          ],
          "data": "0x000000000000000000000000e2dc6a3a24e40932f498fc6f4d705281e59a583c0000000000000000000000000000000000000000000000000000000004566c5a",
          "blockHash": "0x5a140f3bd0c4449b525eb849231867c963d62cf32b64c106d354aa5b0c00f40b",
          "blockNumber": "0x8fead9",
          "blockTimestamp": "0x66e4edc2",
          "transactionHash": "0x1e96bec468fed53a0f09cfc4d122e5b51fa6e09fba744fe287aae72f014b7ef2",
          "transactionIndex": "0x1",
          "logIndex": "0x19",
          "removed": false
        },
        {
          "address": "0x28f6899ff643261ca9766ddc251b359a2d00b945",
          "topics": [
            "0x3303facd24627943a92e9dc87cfbb34b15c49b726eec3ad3487c16be9ab8efe8",
            "0x000000000000000000000000cb2da0f5aece616e2cbf29576cfc795fb15c6133",
            "0x00000000000000000000000040a59a3f3b16d9e74c811d24d8b7969664cfe180",
            "0x000000000000000000000000e2dc6a3a24e40932f498fc6f4d705281e59a583c"
          ],
          "data": "0x00000000000000000000000000000000000000000000b9f3a432553e843c8a7900000000000000000000000000000000000000000000b9f3a432553e843c8a790000000000000000000000000000000000000000000000000000000000000000",
          "blockHash": "0x5a140f3bd0c4449b525eb849231867c963d62cf32b64c106d354aa5b0c00f40b",
          "blockNumber": "0x8fead9",
          "blockTimestamp": "0x66e4edc2",
          "transactionHash": "0x1e96bec468fed53a0f09cfc4d122e5b51fa6e09fba744fe287aae72f014b7ef2",
          "transactionIndex": "0x1",
          "logIndex": "0x1a",
          "removed": false
        },
        {
          "address": "0x28f6899ff643261ca9766ddc251b359a2d00b945",
          "topics": [
            "0x3303facd24627943a92e9dc87cfbb34b15c49b726eec3ad3487c16be9ab8efe8",
            "0x000000000000000000000000cb2da0f5aece616e2cbf29576cfc795fb15c6133",
            "0x00000000000000000000000078354f8dccb269a615a7e0a24f9b0718fdc3c7a7",
            "0x000000000000000000000000e2dc6a3a24e40932f498fc6f4d705281e59a583c"
          ],
          "data": "0x000000000000000000000000000000000000000000000e0e00687445e878d9ac000000000000000000000000000000000000000000000e0e00687445e878d9ac0000000000000000000000000000000000000000000000000000000000000000",
          "blockHash": "0x5a140f3bd0c4449b525eb849231867c963d62cf32b64c106d354aa5b0c00f40b",
          "blockNumber": "0x8fead9",
          "blockTimestamp": "0x66e4edc2",
          "transactionHash": "0x1e96bec468fed53a0f09cfc4d122e5b51fa6e09fba744fe287aae72f014b7ef2",
          "transactionIndex": "0x1",
          "logIndex": "0x1b",
          "removed": false
        },
        {
          "address": "0xcb2da0f5aece616e2cbf29576cfc795fb15c6133",
          "topics": [
            "0xddf252ad1be2c89b69c2b068fc378daa952ba7f163c4a11628f55a4df523b3ef",
            "0x0000000000000000000000000000000000000000000000000000000000000000",
            "0x000000000000000000000000e2dc6a3a24e40932f498fc6f4d705281e59a583c"
          ],
          "data": "0x000000000000000000000000000000000000000000000000004716fd2df49ffc",
          "blockHash": "0x5a140f3bd0c4449b525eb849231867c963d62cf32b64c106d354aa5b0c00f40b",
          "blockNumber": "0x8fead9",
          "blockTimestamp": "0x66e4edc2",
          "transactionHash": "0x1e96bec468fed53a0f09cfc4d122e5b51fa6e09fba744fe287aae72f014b7ef2",
          "transactionIndex": "0x1",
          "logIndex": "0x1c",
          "removed": false
        },
        {
          "address": "0xcb2da0f5aece616e2cbf29576cfc795fb15c6133",
          "topics": [
            "0x458f5fa412d0f69b08dd84872b0215675cc67bc1d5b6fd93300a1c3878b86196",
            "0x000000000000000000000000e2dc6a3a24e40932f498fc6f4d705281e59a583c",
            "0x000000000000000000000000e2dc6a3a24e40932f498fc6f4d705281e59a583c"
          ],
          "data": "0x000000000000000000000000000000000000000000000000004716fd2df49ffc00000000000000000000000000000000000000000000000000000000000000000000000000000000000000000000000000000000035f5660d96b9cbedecccd22",
          "blockHash": "0x5a140f3bd0c4449b525eb849231867c963d62cf32b64c106d354aa5b0c00f40b",
          "blockNumber": "0x8fead9",
          "blockTimestamp": "0x66e4edc2",
          "transactionHash": "0x1e96bec468fed53a0f09cfc4d122e5b51fa6e09fba744fe287aae72f014b7ef2",
          "transactionIndex": "0x1",
          "logIndex": "0x1d",
          "removed": false
        },
        {
          "address": "0x2f9bb73a8e98793e26cb2f6c4ad037bdf1c6b269",
          "topics": [
            "0x804c9b842b2748a22bb64b345453a3de7ca54a6ca45ce00d415894979e22897a",
            "0x000000000000000000000000e5d7c2a44ffddf6b295a15c148167daaaf5cf34f"
          ],
          "data": "0x0000000000000000000000000000000000000000000b6d4df4cc8447ad0e7b220000000000000000000000000000000000000000002cbac778bf4d58d723e3170000000000000000000000000000000000000000001af6f052da377b291f18b700000000000000000000000000000000000000000352af929d690584846c26ed0000000000000000000000000000000000000000035f5660d96b9cbedecccd22",
          "blockHash": "0x5a140f3bd0c4449b525eb849231867c963d62cf32b64c106d354aa5b0c00f40b",
          "blockNumber": "0x8fead9",
          "blockTimestamp": "0x66e4edc2",
          "transactionHash": "0x1e96bec468fed53a0f09cfc4d122e5b51fa6e09fba744fe287aae72f014b7ef2",
          "transactionIndex": "0x1",
          "logIndex": "0x1e",
          "removed": false
        },
        {
          "address": "0xe5d7c2a44ffddf6b295a15c148167daaaf5cf34f",
          "topics": [
            "0xddf252ad1be2c89b69c2b068fc378daa952ba7f163c4a11628f55a4df523b3ef",
            "0x000000000000000000000000b4ffef15daf4c02787bc5332580b838ce39805f5",
            "0x000000000000000000000000e2dc6a3a24e40932f498fc6f4d705281e59a583c"
          ],
          "data": "0x000000000000000000000000000000000000000000000000004716fd2df49ffc",
          "blockHash": "0x5a140f3bd0c4449b525eb849231867c963d62cf32b64c106d354aa5b0c00f40b",
          "blockNumber": "0x8fead9",
          "blockTimestamp": "0x66e4edc2",
          "transactionHash": "0x1e96bec468fed53a0f09cfc4d122e5b51fa6e09fba744fe287aae72f014b7ef2",
          "transactionIndex": "0x1",
          "logIndex": "0x1f",
          "removed": false
        },
        {
          "address": "0x2f9bb73a8e98793e26cb2f6c4ad037bdf1c6b269",
          "topics": [
            "0xb3d084820fb1a9decffb176436bd02558d15fac9b0ddfed8c465bc7359d7dce0",
            "0x000000000000000000000000e5d7c2a44ffddf6b295a15c148167daaaf5cf34f",
            "0x000000000000000000000000e2dc6a3a24e40932f498fc6f4d705281e59a583c",
            "0x0000000000000000000000000000000000000000000000000000000000000000"
          ],
          "data": "0x000000000000000000000000e2dc6a3a24e40932f498fc6f4d705281e59a583c000000000000000000000000000000000000000000000000004716fd2df49ffc00000000000000000000000000000000000000000000000000000000000000020000000000000000000000000000000000000000001af6f052da377b291f18b7",
          "blockHash": "0x5a140f3bd0c4449b525eb849231867c963d62cf32b64c106d354aa5b0c00f40b",
          "blockNumber": "0x8fead9",
          "blockTimestamp": "0x66e4edc2",
          "transactionHash": "0x1e96bec468fed53a0f09cfc4d122e5b51fa6e09fba744fe287aae72f014b7ef2",
          "transactionIndex": "0x1",
          "logIndex": "0x20",
          "removed": false
        },
        {
          "address": "0xe5d7c2a44ffddf6b295a15c148167daaaf5cf34f",
          "topics": [
            "0x8c5be1e5ebec7d5bd14f71427d1e84f3dd0314c0f7b2291e5b200ac8c7c3b925",
            "0x000000000000000000000000e2dc6a3a24e40932f498fc6f4d705281e59a583c",
            "0x0000000000000000000000002d8879046f1559e53eb052e949e9544bcb72f414"
          ],
          "data": "0x0000000000000000000000000000000000000000000000000000000000000000",
          "blockHash": "0x5a140f3bd0c4449b525eb849231867c963d62cf32b64c106d354aa5b0c00f40b",
          "blockNumber": "0x8fead9",
          "blockTimestamp": "0x66e4edc2",
          "transactionHash": "0x1e96bec468fed53a0f09cfc4d122e5b51fa6e09fba744fe287aae72f014b7ef2",
          "transactionIndex": "0x1",
          "logIndex": "0x21",
          "removed": false
        },
        {
          "address": "0x176211869ca2b568f2a7d4ee941e073a821ee1ff",
          "topics": [
            "0x8c5be1e5ebec7d5bd14f71427d1e84f3dd0314c0f7b2291e5b200ac8c7c3b925",
            "0x000000000000000000000000e2dc6a3a24e40932f498fc6f4d705281e59a583c",
            "0x0000000000000000000000002f9bb73a8e98793e26cb2f6c4ad037bdf1c6b269"
          ],
          "data": "0x0000000000000000000000000000000000000000000000000000000000000000",
          "blockHash": "0x5a140f3bd0c4449b525eb849231867c963d62cf32b64c106d354aa5b0c00f40b",
          "blockNumber": "0x8fead9",
          "blockTimestamp": "0x66e4edc2",
          "transactionHash": "0x1e96bec468fed53a0f09cfc4d122e5b51fa6e09fba744fe287aae72f014b7ef2",
          "transactionIndex": "0x1",
          "logIndex": "0x22",
          "removed": false
        },
        {
          "address": "0xe5d7c2a44ffddf6b295a15c148167daaaf5cf34f",
          "topics": [
            "0x8c5be1e5ebec7d5bd14f71427d1e84f3dd0314c0f7b2291e5b200ac8c7c3b925",
            "0x000000000000000000000000e2dc6a3a24e40932f498fc6f4d705281e59a583c",
            "0x0000000000000000000000002f9bb73a8e98793e26cb2f6c4ad037bdf1c6b269"
          ],
          "data": "0x000000000000000000000000000000000000000000000000004716fd2df49ffc",
          "blockHash": "0x5a140f3bd0c4449b525eb849231867c963d62cf32b64c106d354aa5b0c00f40b",
          "blockNumber": "0x8fead9",
          "blockTimestamp": "0x66e4edc2",
          "transactionHash": "0x1e96bec468fed53a0f09cfc4d122e5b51fa6e09fba744fe287aae72f014b7ef2",
          "transactionIndex": "0x1",
          "logIndex": "0x23",
          "removed": false
        },
        {
          "address": "0x2f9bb73a8e98793e26cb2f6c4ad037bdf1c6b269",
          "topics": [
            "0x804c9b842b2748a22bb64b345453a3de7ca54a6ca45ce00d415894979e22897a",
            "0x000000000000000000000000e5d7c2a44ffddf6b295a15c148167daaaf5cf34f"
          ],
          "data": "0x0000000000000000000000000000000000000000000b6d4ced57fb5d36d6212f0000000000000000000000000000000000000000002cbac751e45a881fd5ba380000000000000000000000000000000000000000001af6ef1c02a0f56eadd1c100000000000000000000000000000000000000000352af92a24f20946db496200000000000000000000000000000000000000000035f5660d96b9cbedecccd22",
          "blockHash": "0x5a140f3bd0c4449b525eb849231867c963d62cf32b64c106d354aa5b0c00f40b",
          "blockNumber": "0x8fead9",
          "blockTimestamp": "0x66e4edc2",
          "transactionHash": "0x1e96bec468fed53a0f09cfc4d122e5b51fa6e09fba744fe287aae72f014b7ef2",
          "transactionIndex": "0x1",
          "logIndex": "0x24",
          "removed": false
        },
        {
          "address": "0xe5d7c2a44ffddf6b295a15c148167daaaf5cf34f",
          "topics": [
            "0xddf252ad1be2c89b69c2b068fc378daa952ba7f163c4a11628f55a4df523b3ef",
            "0x000000000000000000000000e2dc6a3a24e40932f498fc6f4d705281e59a583c",
            "0x000000000000000000000000b4ffef15daf4c02787bc5332580b838ce39805f5"
          ],
          "data": "0x000000000000000000000000000000000000000000000000004716fd2df49ffc",
          "blockHash": "0x5a140f3bd0c4449b525eb849231867c963d62cf32b64c106d354aa5b0c00f40b",
          "blockNumber": "0x8fead9",
          "blockTimestamp": "0x66e4edc2",
          "transactionHash": "0x1e96bec468fed53a0f09cfc4d122e5b51fa6e09fba744fe287aae72f014b7ef2",
          "transactionIndex": "0x1",
          "logIndex": "0x25",
          "removed": false
        },
        {
          "address": "0x2f9bb73a8e98793e26cb2f6c4ad037bdf1c6b269",
          "topics": [
            "0xefefaba5e921573100900a3ad9cf29f222d995fb3b6045797eaea7521bd8d6f0",
            "0x000000000000000000000000e2dc6a3a24e40932f498fc6f4d705281e59a583c",
            "0x000000000000000000000000e5d7c2a44ffddf6b295a15c148167daaaf5cf34f",
            "0x0000000000000000000000000000000000000000000000000000000000000000"
          ],
          "data": "0x000000000000000000000000e2dc6a3a24e40932f498fc6f4d705281e59a583c00000000000000000000000000000000000000000000000000470de4df81fffc0000000000000000000000000000000000000000000000000000000000000000000000000000000000000000000000000000000000000000000009184e72a000",
          "blockHash": "0x5a140f3bd0c4449b525eb849231867c963d62cf32b64c106d354aa5b0c00f40b",
          "blockNumber": "0x8fead9",
          "blockTimestamp": "0x66e4edc2",
          "transactionHash": "0x1e96bec468fed53a0f09cfc4d122e5b51fa6e09fba744fe287aae72f014b7ef2",
          "transactionIndex": "0x1",
          "logIndex": "0x26",
          "removed": false
        }
      ],
      "logsBloom": "0x00200000000009040088000000000000880000004003000000000000010000000000a00020040800000410000004000000100800001020140104000000200000000200200000000800080008a2080020200000000000000000000004004000000000040212040000008000012000080380400000000000000100001000080000000002008001000800100204000000000000100000000000008000440000004002080000020000000000000002000010000000800010080100000000a00001000250000200000121000000244000000000020100a000060000080000000020000010200000008020000000000001010040000000100002000000400004100000",
      "type": "0x2",
      "transactionHash": "0x1e96bec468fed53a0f09cfc4d122e5b51fa6e09fba744fe287aae72f014b7ef2",
      "transactionIndex": "0x1",
      "blockHash": "0x5a140f3bd0c4449b525eb849231867c963d62cf32b64c106d354aa5b0c00f40b",
      "blockNumber": "0x8fead9",
      "gasUsed": "0x13e1f8",
      "effectiveGasPrice": "0x3938707",
      "blobGasPrice": "0x1",
      "from": "0xf39fd6e51aad88f6f4ce6ab8827279cfffb92266",
      "to": "0x0b306bf915c4d645ff596e518faf3f9669b97016",
      "contractAddress": null,
      "root": "0x0000000000000000000000000000000000000000000000000000000000000000"
    }
  ],
  "libraries": [],
  "pending": [],
  "returns": {},
  "timestamp": 1726279106,
  "chain": 59144,
  "commit": "4a57ec2"
}