{
  "transactions": [
    {
      "hash": "0x01d2112c158cbddf13ac8009500281e6aa005442e3cd8923b889bbd73e41e823",
      "transactionType": "CALL",
      "contractName": null,
      "contractAddress": "0xe5d7c2a44ffddf6b295a15c148167daaaf5cf34f",
      "function": "approve(address,uint256)",
      "arguments": [
        "0x0B306BF915C4d645ff596e518fAf3F9669b97016",
        "115792089237316195423570985008687907853269984665640564039457584007913129639935"
      ],
      "transaction": {
        "from": "0xf39fd6e51aad88f6f4ce6ab8827279cfffb92266",
        "to": "0xe5d7c2a44ffddf6b295a15c148167daaaf5cf34f",
        "gas": "0x8ec9",
        "value": "0x0",
        "input": "0x095ea7b30000000000000000000000000b306bf915c4d645ff596e518faf3f9669b97016ffffffffffffffffffffffffffffffffffffffffffffffffffffffffffffffff",
        "nonce": "0x26",
        "chainId": "0xe708"
      },
      "additionalContracts": [],
      "isFixedGasLimit": false
    },
    {
      "hash": "0xb1a4a7eaa288ec749d2cf11bf7028b37a8f2b9c8695de59a6085a6b84534bada",
      "transactionType": "CALL",
      "contractName": null,
      "contractAddress": "0x176211869ca2b568f2a7d4ee941e073a821ee1ff",
      "function": "approve(address,uint256)",
      "arguments": [
        "0x0B306BF915C4d645ff596e518fAf3F9669b97016",
        "115792089237316195423570985008687907853269984665640564039457584007913129639935"
      ],
      "transaction": {
        "from": "0xf39fd6e51aad88f6f4ce6ab8827279cfffb92266",
        "to": "0x176211869ca2b568f2a7d4ee941e073a821ee1ff",
        "gas": "0xe62b",
        "value": "0x0",
        "input": "0x095ea7b30000000000000000000000000b306bf915c4d645ff596e518faf3f9669b97016ffffffffffffffffffffffffffffffffffffffffffffffffffffffffffffffff",
        "nonce": "0x27",
        "chainId": "0xe708"
      },
      "additionalContracts": [],
      "isFixedGasLimit": false
    },
    {
      "hash": "0x847fc2338707c5042e3fe9bc2fc4c6101df0a73a83afd78aa87a1386bb572a58",
      "transactionType": "CALL",
      "contractName": null,
      "contractAddress": "0x0b306bf915c4d645ff596e518faf3f9669b97016",
      "function": "closePosition(uint256,bytes)",
      "arguments": [
        "0",
        "0x83bd37f90001e5d7c2a44ffddf6b295a15c148167daaaf5cf34f0001176211869ca2b568f2a7d4ee941e073a821ee1ff074732d34b69222c0402e7ef7f028f5c000156c85a254dd12ee8d9c04049a4ab62769ce9821000000001ef0e791f490be9019b5d518f4eb67cf2d4550a7d00000000050102060172ee58150b0100010200000a0100030200020800010405ff00000000e2df725e44ab983e8513ecfc9c3e13bc21ea867ee5d7c2a44ffddf6b295a15c148167daaaf5cf34f433f9c64fafb532c3b71b32ffaf6a5796e58db5d4cbab02a5448605e95181489b6ec0404e721eb857d43aabc515c356145049227cee54b608342c0ad00000000000000000000000000000000000000000000000000000000"
      ],
      "transaction": {
        "from": "0xf39fd6e51aad88f6f4ce6ab8827279cfffb92266",
        "to": "0x0b306bf915c4d645ff596e518faf3f9669b97016",
        "gas": "0x1271b7",
        "value": "0x0",
        "input": "0x0e82611300000000000000000000000000000000000000000000000000000000000000000000000000000000000000000000000000000000000000000000000000000040000000000000000000000000000000000000000000000000000000000000011383bd37f90001e5d7c2a44ffddf6b295a15c148167daaaf5cf34f0001176211869ca2b568f2a7d4ee941e073a821ee1ff074732d34b69222c0402e7ef7f028f5c000156c85a254dd12ee8d9c04049a4ab62769ce9821000000001ef0e791f490be9019b5d518f4eb67cf2d4550a7d00000000050102060172ee58150b0100010200000a0100030200020800010405ff00000000e2df725e44ab983e8513ecfc9c3e13bc21ea867ee5d7c2a44ffddf6b295a15c148167daaaf5cf34f433f9c64fafb532c3b71b32ffaf6a5796e58db5d4cbab02a5448605e95181489b6ec0404e721eb857d43aabc515c356145049227cee54b608342c0ad0000000000000000000000000000000000000000000000000000000000000000000000000000000000",
        "nonce": "0x28",
        "chainId": "0xe708"
      },
      "additionalContracts": [],
      "isFixedGasLimit": false
    }
  ],
  "receipts": [
    {
      "status": "0x1",
      "cumulativeGasUsed": "0x6760",
      "logs": [
        {
          "address": "0xe5d7c2a44ffddf6b295a15c148167daaaf5cf34f",
          "topics": [
            "0x8c5be1e5ebec7d5bd14f71427d1e84f3dd0314c0f7b2291e5b200ac8c7c3b925",
            "0x000000000000000000000000f39fd6e51aad88f6f4ce6ab8827279cfffb92266",
            "0x0000000000000000000000000b306bf915c4d645ff596e518faf3f9669b97016"
          ],
          "data": "0xffffffffffffffffffffffffffffffffffffffffffffffffffffffffffffffff",
          "blockHash": "0xaf03a9753d2d7baaa266f45b0db47994ef875bb154092302233fc2debef76e95",
          "blockNumber": "0x8fe2ad",
          "blockTimestamp": "0x66e4dde2",
          "transactionHash": "0x01d2112c158cbddf13ac8009500281e6aa005442e3cd8923b889bbd73e41e823",
          "transactionIndex": "0x0",
          "logIndex": "0x0",
          "removed": false
        }
      ],
      "logsBloom": "0x0000000000000000000000000000000800000000000000000000000000000000000000000000000000000000000000000000000000000000000000000020000000000000000000000000000000000000000000000000000000000000000000000000000000000000000000030000000000000000000000000000000000000000000000000000000000100000000000000000000000000000000000000000000002000000000000000000000000000000000000000000000000000000200000000000000000000020000000000000000000000000a000000000000000000000000010000000000000000000000400000000000000000000000000000000000000",
      "type": "0x2",
      "transactionHash": "0x01d2112c158cbddf13ac8009500281e6aa005442e3cd8923b889bbd73e41e823",
      "transactionIndex": "0x0",
      "blockHash": "0xaf03a9753d2d7baaa266f45b0db47994ef875bb154092302233fc2debef76e95",
      "blockNumber": "0x8fe2ad",
      "gasUsed": "0x6760",
      "effectiveGasPrice": "0x3938707",
      "blobGasPrice": "0x1",
      "from": "0xf39fd6e51aad88f6f4ce6ab8827279cfffb92266",
      "to": "0xe5d7c2a44ffddf6b295a15c148167daaaf5cf34f",
      "contractAddress": null,
      "root": "0x0000000000000000000000000000000000000000000000000000000000000000"
    },
    {
      "status": "0x1",
      "cumulativeGasUsed": "0x9d62",
      "logs": [
        {
          "address": "0x176211869ca2b568f2a7d4ee941e073a821ee1ff",
          "topics": [
            "0x8c5be1e5ebec7d5bd14f71427d1e84f3dd0314c0f7b2291e5b200ac8c7c3b925",
            "0x000000000000000000000000f39fd6e51aad88f6f4ce6ab8827279cfffb92266",
            "0x0000000000000000000000000b306bf915c4d645ff596e518faf3f9669b97016"
          ],
          "data": "0xffffffffffffffffffffffffffffffffffffffffffffffffffffffffffffffff",
          "blockHash": "0xb83f96c7aa74d5f55a3759ccd8cf92b9186f3fdd572ecd6de298c9d2ed21aa6f",
          "blockNumber": "0x8fe2ae",
          "blockTimestamp": "0x66e4dde3",
          "transactionHash": "0xb1a4a7eaa288ec749d2cf11bf7028b37a8f2b9c8695de59a6085a6b84534bada",
          "transactionIndex": "0x0",
          "logIndex": "0x0",
          "removed": false
        }
      ],
      "logsBloom": "0x00000000000000000000000000000008000000000000000000000000000000000000000000000000000000000000000000000800000000000004000000200000000000000000000000000000020000000000000000000000000000000000000000000000000000000000000300000000000000000000000000000000000000000000000000000000000000000000000000000000000000000000000000000000020000000000000000000000000000000000000000000000000000000000000000000000000000200000000000000000000000002000000000000000000000000010000000000000000000000400000000000000000000000000000000000000",
      "type": "0x2",
      "transactionHash": "0xb1a4a7eaa288ec749d2cf11bf7028b37a8f2b9c8695de59a6085a6b84534bada",
      "transactionIndex": "0x0",
      "blockHash": "0xb83f96c7aa74d5f55a3759ccd8cf92b9186f3fdd572ecd6de298c9d2ed21aa6f",
      "blockNumber": "0x8fe2ae",
      "gasUsed": "0x9d62",
      "effectiveGasPrice": "0x3938707",
      "blobGasPrice": "0x1",
      "from": "0xf39fd6e51aad88f6f4ce6ab8827279cfffb92266",
      "to": "0x176211869ca2b568f2a7d4ee941e073a821ee1ff",
      "contractAddress": null,
      "root": "0x0000000000000000000000000000000000000000000000000000000000000000"
    },
    {
      "status": "0x1",
      "cumulativeGasUsed": "0xe0486",
      "logs": [
        {
          "address": "0x176211869ca2b568f2a7d4ee941e073a821ee1ff",
          "topics": [
            "0xddf252ad1be2c89b69c2b068fc378daa952ba7f163c4a11628f55a4df523b3ef",
            "0x0000000000000000000000002e207eca8b6bf77a6ac82763eeed2a94de4f081d",
            "0x000000000000000000000000ef0e791f490be9019b5d518f4eb67cf2d4550a7d"
          ],
          "data": "0x0000000000000000000000000000000000000000000000000000000002e7114d",
          "blockHash": "0x9cbd82706c2c7e6b2453ccde9d3bfc9ca8f522a6cdab47032866c98f3f06d983",
          "blockNumber": "0x8fe2af",
          "blockTimestamp": "0x66e4dde4",
          "transactionHash": "0x847fc2338707c5042e3fe9bc2fc4c6101df0a73a83afd78aa87a1386bb572a58",
          "transactionIndex": "0x0",
          "logIndex": "0x0",
          "removed": false
        },
        {
          "address": "0x176211869ca2b568f2a7d4ee941e073a821ee1ff",
          "topics": [
            "0x8c5be1e5ebec7d5bd14f71427d1e84f3dd0314c0f7b2291e5b200ac8c7c3b925",
            "0x000000000000000000000000ef0e791f490be9019b5d518f4eb67cf2d4550a7d",
            "0x0000000000000000000000002f9bb73a8e98793e26cb2f6c4ad037bdf1c6b269"
          ],
          "data": "0x0000000000000000000000000000000000000000000000000000000002e7114d",
          "blockHash": "0x9cbd82706c2c7e6b2453ccde9d3bfc9ca8f522a6cdab47032866c98f3f06d983",
          "blockNumber": "0x8fe2af",
          "blockTimestamp": "0x66e4dde4",
          "transactionHash": "0x847fc2338707c5042e3fe9bc2fc4c6101df0a73a83afd78aa87a1386bb572a58",
          "transactionIndex": "0x0",
          "logIndex": "0x1",
          "removed": false
        },
        {
          "address": "0x28f6899ff643261ca9766ddc251b359a2d00b945",
          "topics": [
            "0x3303facd24627943a92e9dc87cfbb34b15c49b726eec3ad3487c16be9ab8efe8",
            "0x000000000000000000000000a2703dc9fbaccd6ec2e4cbfa700989d0238133f6",
            "0x00000000000000000000000078354f8dccb269a615a7e0a24f9b0718fdc3c7a7",
            "0x000000000000000000000000ef0e791f490be9019b5d518f4eb67cf2d4550a7d"
          ],
          "data": "0x000000000000000000000000000000000000000000000001739585c2b93d432e000000000000000000000000000000000000000000000001739585c2b93d432e0000000000000000000000000000000000000000000000000037348716e68cc2",
          "blockHash": "0x9cbd82706c2c7e6b2453ccde9d3bfc9ca8f522a6cdab47032866c98f3f06d983",
          "blockNumber": "0x8fe2af",
          "blockTimestamp": "0x66e4dde4",
          "transactionHash": "0x847fc2338707c5042e3fe9bc2fc4c6101df0a73a83afd78aa87a1386bb572a58",
          "transactionIndex": "0x0",
          "logIndex": "0x2",
          "removed": false
        },
        {
          "address": "0xa2703dc9fbaccd6ec2e4cbfa700989d0238133f6",
          "topics": [
            "0xddf252ad1be2c89b69c2b068fc378daa952ba7f163c4a11628f55a4df523b3ef",
            "0x000000000000000000000000ef0e791f490be9019b5d518f4eb67cf2d4550a7d",
            "0x0000000000000000000000000000000000000000000000000000000000000000"
          ],
          "data": "0x0000000000000000000000000000000000000000000000000000000002e71147",
          "blockHash": "0x9cbd82706c2c7e6b2453ccde9d3bfc9ca8f522a6cdab47032866c98f3f06d983",
          "blockNumber": "0x8fe2af",
          "blockTimestamp": "0x66e4dde4",
          "transactionHash": "0x847fc2338707c5042e3fe9bc2fc4c6101df0a73a83afd78aa87a1386bb572a58",
          "transactionIndex": "0x0",
          "logIndex": "0x3",
          "removed": false
        },
        {
          "address": "0xa2703dc9fbaccd6ec2e4cbfa700989d0238133f6",
          "topics": [
            "0x4cf25bc1d991c17529c25213d3cc0cda295eeaad5f13f361969b12ea48015f90",
            "0x000000000000000000000000ef0e791f490be9019b5d518f4eb67cf2d4550a7d",
            "0x0000000000000000000000000000000000000000000000000000000000000000"
          ],
          "data": "0x0000000000000000000000000000000000000000000000000000000002e7114700000000000000000000000000000000000000000000000000000000000000060000000000000000000000000000000000000000036bc09972e883ae2fde2da4",
          "blockHash": "0x9cbd82706c2c7e6b2453ccde9d3bfc9ca8f522a6cdab47032866c98f3f06d983",
          "blockNumber": "0x8fe2af",
          "blockTimestamp": "0x66e4dde4",
          "transactionHash": "0x847fc2338707c5042e3fe9bc2fc4c6101df0a73a83afd78aa87a1386bb572a58",
          "transactionIndex": "0x0",
          "logIndex": "0x4",
          "removed": false
        },
        {
          "address": "0x2f9bb73a8e98793e26cb2f6c4ad037bdf1c6b269",
          "topics": [
            "0x804c9b842b2748a22bb64b345453a3de7ca54a6ca45ce00d415894979e22897a",
            "0x000000000000000000000000176211869ca2b568f2a7d4ee941e073a821ee1ff"
          ],
          "data": "0x0000000000000000000000000000000000000000001180cbe4e005599310f53d0000000000000000000000000000000000000000002d4ac01a4a7519c81ea2dc0000000000000000000000000000000000000000001f76b55f337582b0f516e00000000000000000000000000000000000000000035dd9c05cccbe69008c7ee30000000000000000000000000000000000000000036bc09972e883ae2fde2da4",
          "blockHash": "0x9cbd82706c2c7e6b2453ccde9d3bfc9ca8f522a6cdab47032866c98f3f06d983",
          "blockNumber": "0x8fe2af",
          "blockTimestamp": "0x66e4dde4",
          "transactionHash": "0x847fc2338707c5042e3fe9bc2fc4c6101df0a73a83afd78aa87a1386bb572a58",
          "transactionIndex": "0x0",
          "logIndex": "0x5",
          "removed": false
        },
        {
          "address": "0x176211869ca2b568f2a7d4ee941e073a821ee1ff",
          "topics": [
            "0xddf252ad1be2c89b69c2b068fc378daa952ba7f163c4a11628f55a4df523b3ef",
            "0x000000000000000000000000ef0e791f490be9019b5d518f4eb67cf2d4550a7d",
            "0x0000000000000000000000002e207eca8b6bf77a6ac82763eeed2a94de4f081d"
          ],
          "data": "0x0000000000000000000000000000000000000000000000000000000002e7114d",
          "blockHash": "0x9cbd82706c2c7e6b2453ccde9d3bfc9ca8f522a6cdab47032866c98f3f06d983",
          "blockNumber": "0x8fe2af",
          "blockTimestamp": "0x66e4dde4",
          "transactionHash": "0x847fc2338707c5042e3fe9bc2fc4c6101df0a73a83afd78aa87a1386bb572a58",
          "transactionIndex": "0x0",
          "logIndex": "0x6",
          "removed": false
        },
        {
          "address": "0x2f9bb73a8e98793e26cb2f6c4ad037bdf1c6b269",
          "topics": [
            "0xa534c8dbe71f871f9f3530e97a74601fea17b426cae02e1c5aee42c96c784051",
            "0x000000000000000000000000176211869ca2b568f2a7d4ee941e073a821ee1ff",
            "0x000000000000000000000000ef0e791f490be9019b5d518f4eb67cf2d4550a7d",
            "0x000000000000000000000000ef0e791f490be9019b5d518f4eb67cf2d4550a7d"
          ],
          "data": "0x0000000000000000000000000000000000000000000000000000000002e7114d0000000000000000000000000000000000000000000000000000000000000000",
          "blockHash": "0x9cbd82706c2c7e6b2453ccde9d3bfc9ca8f522a6cdab47032866c98f3f06d983",
          "blockNumber": "0x8fe2af",
          "blockTimestamp": "0x66e4dde4",
          "transactionHash": "0x847fc2338707c5042e3fe9bc2fc4c6101df0a73a83afd78aa87a1386bb572a58",
          "transactionIndex": "0x0",
          "logIndex": "0x7",
          "removed": false
        },
        {
          "address": "0x176211869ca2b568f2a7d4ee941e073a821ee1ff",
          "topics": [
            "0x8c5be1e5ebec7d5bd14f71427d1e84f3dd0314c0f7b2291e5b200ac8c7c3b925",
            "0x000000000000000000000000ef0e791f490be9019b5d518f4eb67cf2d4550a7d",
            "0x0000000000000000000000002f9bb73a8e98793e26cb2f6c4ad037bdf1c6b269"
          ],
          "data": "0x0000000000000000000000000000000000000000000000000000000000000000",
          "blockHash": "0x9cbd82706c2c7e6b2453ccde9d3bfc9ca8f522a6cdab47032866c98f3f06d983",
          "blockNumber": "0x8fe2af",
          "blockTimestamp": "0x66e4dde4",
          "transactionHash": "0x847fc2338707c5042e3fe9bc2fc4c6101df0a73a83afd78aa87a1386bb572a58",
          "transactionIndex": "0x0",
          "logIndex": "0x8",
          "removed": false
        },
        {
          "address": "0x2f9bb73a8e98793e26cb2f6c4ad037bdf1c6b269",
          "topics": [
            "0x804c9b842b2748a22bb64b345453a3de7ca54a6ca45ce00d415894979e22897a",
            "0x000000000000000000000000e5d7c2a44ffddf6b295a15c148167daaaf5cf34f"
          ],
          "data": "0x0000000000000000000000000000000000000000000b615d0b5f9689ea8464f00000000000000000000000000000000000000000002cb9042ac627d2f4818bec0000000000000000000000000000000000000000001ae8d5e3110b4c140c5f6100000000000000000000000000000000000000000352af2f5f5c82020c0f56370000000000000000000000000000000000000000035f55733b4966a535b65709",
          "blockHash": "0x9cbd82706c2c7e6b2453ccde9d3bfc9ca8f522a6cdab47032866c98f3f06d983",
          "blockNumber": "0x8fe2af",
          "blockTimestamp": "0x66e4dde4",
          "transactionHash": "0x847fc2338707c5042e3fe9bc2fc4c6101df0a73a83afd78aa87a1386bb572a58",
          "transactionIndex": "0x0",
          "logIndex": "0x9",
          "removed": false
        },
        {
          "address": "0x2f9bb73a8e98793e26cb2f6c4ad037bdf1c6b269",
          "topics": [
            "0x44c58d81365b66dd4b1a7f36c25aa97b8c71c361ee4937adc1a00000227db5dd",
            "0x000000000000000000000000e5d7c2a44ffddf6b295a15c148167daaaf5cf34f",
            "0x000000000000000000000000ef0e791f490be9019b5d518f4eb67cf2d4550a7d"
          ],
          "data": "0x",
          "blockHash": "0x9cbd82706c2c7e6b2453ccde9d3bfc9ca8f522a6cdab47032866c98f3f06d983",
          "blockNumber": "0x8fe2af",
          "blockTimestamp": "0x66e4dde4",
          "transactionHash": "0x847fc2338707c5042e3fe9bc2fc4c6101df0a73a83afd78aa87a1386bb572a58",
          "transactionIndex": "0x0",
          "logIndex": "0xa",
          "removed": false
        },
        {
          "address": "0x28f6899ff643261ca9766ddc251b359a2d00b945",
          "topics": [
            "0x3303facd24627943a92e9dc87cfbb34b15c49b726eec3ad3487c16be9ab8efe8",
            "0x000000000000000000000000b4ffef15daf4c02787bc5332580b838ce39805f5",
            "0x00000000000000000000000078354f8dccb269a615a7e0a24f9b0718fdc3c7a7",
            "0x000000000000000000000000ef0e791f490be9019b5d518f4eb67cf2d4550a7d"
          ],
          "data": "0x0000000000000000000000000000000000000000000002840743ec54674b68400000000000000000000000000000000000000000000002840743ec54674b68400000000000000000000000000000000000000000000000000006352d8b97d251",
          "blockHash": "0x9cbd82706c2c7e6b2453ccde9d3bfc9ca8f522a6cdab47032866c98f3f06d983",
          "blockNumber": "0x8fe2af",
          "blockTimestamp": "0x66e4dde4",
          "transactionHash": "0x847fc2338707c5042e3fe9bc2fc4c6101df0a73a83afd78aa87a1386bb572a58",
          "transactionIndex": "0x0",
          "logIndex": "0xb",
          "removed": false
        },
        {
          "address": "0xb4ffef15daf4c02787bc5332580b838ce39805f5",
          "topics": [
            "0xddf252ad1be2c89b69c2b068fc378daa952ba7f163c4a11628f55a4df523b3ef",
            "0x000000000000000000000000ef0e791f490be9019b5d518f4eb67cf2d4550a7d",
            "0x0000000000000000000000000000000000000000000000000000000000000000"
          ],
          "data": "0x000000000000000000000000000000000000000000000000006a9f372f17df1d",
          "blockHash": "0x9cbd82706c2c7e6b2453ccde9d3bfc9ca8f522a6cdab47032866c98f3f06d983",
          "blockNumber": "0x8fe2af",
          "blockTimestamp": "0x66e4dde4",
          "transactionHash": "0x847fc2338707c5042e3fe9bc2fc4c6101df0a73a83afd78aa87a1386bb572a58",
          "transactionIndex": "0x0",
          "logIndex": "0xc",
          "removed": false
        },
        {
          "address": "0xb4ffef15daf4c02787bc5332580b838ce39805f5",
          "topics": [
            "0x4cf25bc1d991c17529c25213d3cc0cda295eeaad5f13f361969b12ea48015f90",
            "0x000000000000000000000000ef0e791f490be9019b5d518f4eb67cf2d4550a7d",
            "0x000000000000000000000000ef0e791f490be9019b5d518f4eb67cf2d4550a7d"
          ],
          "data": "0x000000000000000000000000000000000000000000000000006a9f372f17df1d00000000000000000000000000000000000000000000000000000000582f344200000000000000000000000000000000000000000352af2f5f5c82020c0f5637",
          "blockHash": "0x9cbd82706c2c7e6b2453ccde9d3bfc9ca8f522a6cdab47032866c98f3f06d983",
          "blockNumber": "0x8fe2af",
          "blockTimestamp": "0x66e4dde4",
          "transactionHash": "0x847fc2338707c5042e3fe9bc2fc4c6101df0a73a83afd78aa87a1386bb572a58",
          "transactionIndex": "0x0",
          "logIndex": "0xd",
          "removed": false
        },
        {
          "address": "0xe5d7c2a44ffddf6b295a15c148167daaaf5cf34f",
          "topics": [
            "0xddf252ad1be2c89b69c2b068fc378daa952ba7f163c4a11628f55a4df523b3ef",
            "0x000000000000000000000000b4ffef15daf4c02787bc5332580b838ce39805f5",
            "0x000000000000000000000000ef0e791f490be9019b5d518f4eb67cf2d4550a7d"
          ],
          "data": "0x000000000000000000000000000000000000000000000000006a9f378747135f",
          "blockHash": "0x9cbd82706c2c7e6b2453ccde9d3bfc9ca8f522a6cdab47032866c98f3f06d983",
          "blockNumber": "0x8fe2af",
          "blockTimestamp": "0x66e4dde4",
          "transactionHash": "0x847fc2338707c5042e3fe9bc2fc4c6101df0a73a83afd78aa87a1386bb572a58",
          "transactionIndex": "0x0",
          "logIndex": "0xe",
          "removed": false
        },
        {
          "address": "0x2f9bb73a8e98793e26cb2f6c4ad037bdf1c6b269",
          "topics": [
            "0x3115d1449a7b732c986cba18244e897a450f61e1bb8d589cd2e69e6c8924f9f7",
            "0x000000000000000000000000e5d7c2a44ffddf6b295a15c148167daaaf5cf34f",
            "0x000000000000000000000000ef0e791f490be9019b5d518f4eb67cf2d4550a7d",
            "0x000000000000000000000000ef0e791f490be9019b5d518f4eb67cf2d4550a7d"
          ],
          "data": "0x000000000000000000000000000000000000000000000000006a9f378747135f",
          "blockHash": "0x9cbd82706c2c7e6b2453ccde9d3bfc9ca8f522a6cdab47032866c98f3f06d983",
          "blockNumber": "0x8fe2af",
          "blockTimestamp": "0x66e4dde4",
          "transactionHash": "0x847fc2338707c5042e3fe9bc2fc4c6101df0a73a83afd78aa87a1386bb572a58",
          "transactionIndex": "0x0",
          "logIndex": "0xf",
          "removed": false
        },
        {
          "address": "0xe5d7c2a44ffddf6b295a15c148167daaaf5cf34f",
          "topics": [
            "0x8c5be1e5ebec7d5bd14f71427d1e84f3dd0314c0f7b2291e5b200ac8c7c3b925",
            "0x000000000000000000000000ef0e791f490be9019b5d518f4eb67cf2d4550a7d",
            "0x0000000000000000000000002d8879046f1559e53eb052e949e9544bcb72f414"
          ],
          "data": "0x000000000000000000000000000000000000000000000000006a9f378747135f",
          "blockHash": "0x9cbd82706c2c7e6b2453ccde9d3bfc9ca8f522a6cdab47032866c98f3f06d983",
          "blockNumber": "0x8fe2af",
          "blockTimestamp": "0x66e4dde4",
          "transactionHash": "0x847fc2338707c5042e3fe9bc2fc4c6101df0a73a83afd78aa87a1386bb572a58",
          "transactionIndex": "0x0",
          "logIndex": "0x10",
          "removed": false
        },
        {
          "address": "0xe5d7c2a44ffddf6b295a15c148167daaaf5cf34f",
          "topics": [
            "0xddf252ad1be2c89b69c2b068fc378daa952ba7f163c4a11628f55a4df523b3ef",
            "0x000000000000000000000000ef0e791f490be9019b5d518f4eb67cf2d4550a7d",
            "0x00000000000000000000000056c85a254dd12ee8d9c04049a4ab62769ce98210"
          ],
          "data": "0x000000000000000000000000000000000000000000000000004732d34b69222c",
          "blockHash": "0x9cbd82706c2c7e6b2453ccde9d3bfc9ca8f522a6cdab47032866c98f3f06d983",
          "blockNumber": "0x8fe2af",
          "blockTimestamp": "0x66e4dde4",
          "transactionHash": "0x847fc2338707c5042e3fe9bc2fc4c6101df0a73a83afd78aa87a1386bb572a58",
          "transactionIndex": "0x0",
          "logIndex": "0x11",
          "removed": false
        },
        {
          "address": "0x7d43aabc515c356145049227cee54b608342c0ad",
          "topics": [
            "0xddf252ad1be2c89b69c2b068fc378daa952ba7f163c4a11628f55a4df523b3ef",
            "0x000000000000000000000000e2df725e44ab983e8513ecfc9c3e13bc21ea867e",
            "0x00000000000000000000000056c85a254dd12ee8d9c04049a4ab62769ce98210"
          ],
          "data": "0x000000000000000000000000000000000000000000000001309f891b497a5352",
          "blockHash": "0x9cbd82706c2c7e6b2453ccde9d3bfc9ca8f522a6cdab47032866c98f3f06d983",
          "blockNumber": "0x8fe2af",
          "blockTimestamp": "0x66e4dde4",
          "transactionHash": "0x847fc2338707c5042e3fe9bc2fc4c6101df0a73a83afd78aa87a1386bb572a58",
          "transactionIndex": "0x0",
          "logIndex": "0x12",
          "removed": false
        },
        {
          "address": "0xe5d7c2a44ffddf6b295a15c148167daaaf5cf34f",
          "topics": [
            "0xddf252ad1be2c89b69c2b068fc378daa952ba7f163c4a11628f55a4df523b3ef",
            "0x00000000000000000000000056c85a254dd12ee8d9c04049a4ab62769ce98210",
            "0x000000000000000000000000e2df725e44ab983e8513ecfc9c3e13bc21ea867e"
          ],
          "data": "0x000000000000000000000000000000000000000000000000001ff6ebd754ba36",
          "blockHash": "0x9cbd82706c2c7e6b2453ccde9d3bfc9ca8f522a6cdab47032866c98f3f06d983",
          "blockNumber": "0x8fe2af",
          "blockTimestamp": "0x66e4dde4",
          "transactionHash": "0x847fc2338707c5042e3fe9bc2fc4c6101df0a73a83afd78aa87a1386bb572a58",
          "transactionIndex": "0x0",
          "logIndex": "0x13",
          "removed": false
        },
        {
          "address": "0xe2df725e44ab983e8513ecfc9c3e13bc21ea867e",
          "topics": [
            "0xc42079f94a6350d7e6235f29174924f928cc2ac818eb64fed8004e115fbcca67",
            "0x00000000000000000000000056c85a254dd12ee8d9c04049a4ab62769ce98210",
            "0x00000000000000000000000056c85a254dd12ee8d9c04049a4ab62769ce98210"
          ],
          "data": "0xfffffffffffffffffffffffffffffffffffffffffffffffecf6076e4b685acae000000000000000000000000000000000000000000000000001ff6ebd754ba360000000000000000000000000000000000000000052dc54b4b800ae8be38b08a00000000000000000000000000000000000000000000000cde5c705d835fbd4dfffffffffffffffffffffffffffffffffffffffffffffffffffffffffffecf3f",
          "blockHash": "0x9cbd82706c2c7e6b2453ccde9d3bfc9ca8f522a6cdab47032866c98f3f06d983",
          "blockNumber": "0x8fe2af",
          "blockTimestamp": "0x66e4dde4",
          "transactionHash": "0x847fc2338707c5042e3fe9bc2fc4c6101df0a73a83afd78aa87a1386bb572a58",
          "transactionIndex": "0x0",
          "logIndex": "0x14",
          "removed": false
        },
        {
          "address": "0x7d43aabc515c356145049227cee54b608342c0ad",
          "topics": [
            "0xddf252ad1be2c89b69c2b068fc378daa952ba7f163c4a11628f55a4df523b3ef",
            "0x000000000000000000000000433f9c64fafb532c3b71b32ffaf6a5796e58db5d",
            "0x00000000000000000000000056c85a254dd12ee8d9c04049a4ab62769ce98210"
          ],
          "data": "0x00000000000000000000000000000000000000000000000175ba72678cfaa9e4",
          "blockHash": "0x9cbd82706c2c7e6b2453ccde9d3bfc9ca8f522a6cdab47032866c98f3f06d983",
          "blockNumber": "0x8fe2af",
          "blockTimestamp": "0x66e4dde4",
          "transactionHash": "0x847fc2338707c5042e3fe9bc2fc4c6101df0a73a83afd78aa87a1386bb572a58",
          "transactionIndex": "0x0",
          "logIndex": "0x15",
          "removed": false
        },
        {
          "address": "0xe5d7c2a44ffddf6b295a15c148167daaaf5cf34f",
          "topics": [
            "0xddf252ad1be2c89b69c2b068fc378daa952ba7f163c4a11628f55a4df523b3ef",
            "0x00000000000000000000000056c85a254dd12ee8d9c04049a4ab62769ce98210",
            "0x000000000000000000000000433f9c64fafb532c3b71b32ffaf6a5796e58db5d"
          ],
          "data": "0x00000000000000000000000000000000000000000000000000273be7741467f6",
          "blockHash": "0x9cbd82706c2c7e6b2453ccde9d3bfc9ca8f522a6cdab47032866c98f3f06d983",
          "blockNumber": "0x8fe2af",
          "blockTimestamp": "0x66e4dde4",
          "transactionHash": "0x847fc2338707c5042e3fe9bc2fc4c6101df0a73a83afd78aa87a1386bb572a58",
          "transactionIndex": "0x0",
          "logIndex": "0x16",
          "removed": false
        },
        {
          "address": "0x433f9c64fafb532c3b71b32ffaf6a5796e58db5d",
          "topics": [
            "0x19b47279256b2a23a1665c810c8d55a1758940ee09377d4f8d26497a3577dc83",
            "0x00000000000000000000000056c85a254dd12ee8d9c04049a4ab62769ce98210",
            "0x00000000000000000000000056c85a254dd12ee8d9c04049a4ab62769ce98210"
          ],
          "data": "0xfffffffffffffffffffffffffffffffffffffffffffffffe8a458d987305561c00000000000000000000000000000000000000000000000000273be7741467f60000000000000000000000000000000000000000052e1996bd0695647316b1bf00000000000000000000000000000000000000000000001f0a08181086b3cf47fffffffffffffffffffffffffffffffffffffffffffffffffffffffffffecf44000000000000000000000000000000000000000000000000000000000000000000000000000000000000000000000000000000000000000000000a0b3d4cd206",
          "blockHash": "0x9cbd82706c2c7e6b2453ccde9d3bfc9ca8f522a6cdab47032866c98f3f06d983",
          "blockNumber": "0x8fe2af",
          "blockTimestamp": "0x66e4dde4",
          "transactionHash": "0x847fc2338707c5042e3fe9bc2fc4c6101df0a73a83afd78aa87a1386bb572a58",
          "transactionIndex": "0x0",
          "logIndex": "0x17",
          "removed": false
        },
        {
          "address": "0x7d43aabc515c356145049227cee54b608342c0ad",
          "topics": [
            "0xddf252ad1be2c89b69c2b068fc378daa952ba7f163c4a11628f55a4df523b3ef",
            "0x00000000000000000000000056c85a254dd12ee8d9c04049a4ab62769ce98210",
            "0x0000000000000000000000007160570bb153edd0ea1775ec2b2ac9b65f1ab61b"
          ],
          "data": "0x000000000000000000000000000000000000000000000002a659fb82d674fd36",
          "blockHash": "0x9cbd82706c2c7e6b2453ccde9d3bfc9ca8f522a6cdab47032866c98f3f06d983",
          "blockNumber": "0x8fe2af",
          "blockTimestamp": "0x66e4dde4",
          "transactionHash": "0x847fc2338707c5042e3fe9bc2fc4c6101df0a73a83afd78aa87a1386bb572a58",
          "transactionIndex": "0x0",
          "logIndex": "0x18",
          "removed": false
        },
        {
          "address": "0x4cbab02a5448605e95181489b6ec0404e721eb85",
          "topics": [
            "0xd78ad95fa46c994b6551d0da85fc275fe613ce37657fb8d5e3d130840159d822",
            "0x00000000000000000000000056c85a254dd12ee8d9c04049a4ab62769ce98210",
            "0x0000000000000000000000002d8879046f1559e53eb052e949e9544bcb72f414"
          ],
          "data": "0x0000000000000000000000000000000000000000000000000000000000000000000000000000000000000000000000000000000000000002a659fb82d674fd360000000000000000000000000000000000000000000000000000000002e7ef230000000000000000000000000000000000000000000000000000000000000000",
          "blockHash": "0x9cbd82706c2c7e6b2453ccde9d3bfc9ca8f522a6cdab47032866c98f3f06d983",
          "blockNumber": "0x8fe2af",
          "blockTimestamp": "0x66e4dde4",
          "transactionHash": "0x847fc2338707c5042e3fe9bc2fc4c6101df0a73a83afd78aa87a1386bb572a58",
          "transactionIndex": "0x0",
          "logIndex": "0x19",
          "removed": false
        },
        {
          "address": "0x176211869ca2b568f2a7d4ee941e073a821ee1ff",
          "topics": [
            "0xddf252ad1be2c89b69c2b068fc378daa952ba7f163c4a11628f55a4df523b3ef",
            "0x0000000000000000000000007160570bb153edd0ea1775ec2b2ac9b65f1ab61b",
            "0x0000000000000000000000002d8879046f1559e53eb052e949e9544bcb72f414"
          ],
          "data": "0x0000000000000000000000000000000000000000000000000000000002e7ef23",
          "blockHash": "0x9cbd82706c2c7e6b2453ccde9d3bfc9ca8f522a6cdab47032866c98f3f06d983",
          "blockNumber": "0x8fe2af",
          "blockTimestamp": "0x66e4dde4",
          "transactionHash": "0x847fc2338707c5042e3fe9bc2fc4c6101df0a73a83afd78aa87a1386bb572a58",
          "transactionIndex": "0x0",
          "logIndex": "0x1a",
          "removed": false
        },
        {
          "address": "0x4cbab02a5448605e95181489b6ec0404e721eb85",
          "topics": [
            "0xcf2aa50876cdfbb541206f89af0ee78d44a2abf8d328e37fa4917f982149848a"
          ],
          "data": "0x00000000000000000000000000000000000000000000000000000000a1dfbb970000000000000000000000000000000000000000000001e986eadc3f88e0fcb9",
          "blockHash": "0x9cbd82706c2c7e6b2453ccde9d3bfc9ca8f522a6cdab47032866c98f3f06d983",
          "blockNumber": "0x8fe2af",
          "blockTimestamp": "0x66e4dde4",
          "transactionHash": "0x847fc2338707c5042e3fe9bc2fc4c6101df0a73a83afd78aa87a1386bb572a58",
          "transactionIndex": "0x0",
          "logIndex": "0x1b",
          "removed": false
        },
        {
          "address": "0x176211869ca2b568f2a7d4ee941e073a821ee1ff",
          "topics": [
            "0xddf252ad1be2c89b69c2b068fc378daa952ba7f163c4a11628f55a4df523b3ef",
            "0x0000000000000000000000002d8879046f1559e53eb052e949e9544bcb72f414",
            "0x000000000000000000000000ef0e791f490be9019b5d518f4eb67cf2d4550a7d"
          ],
          "data": "0x0000000000000000000000000000000000000000000000000000000002e7ef23",
          "blockHash": "0x9cbd82706c2c7e6b2453ccde9d3bfc9ca8f522a6cdab47032866c98f3f06d983",
          "blockNumber": "0x8fe2af",
          "blockTimestamp": "0x66e4dde4",
          "transactionHash": "0x847fc2338707c5042e3fe9bc2fc4c6101df0a73a83afd78aa87a1386bb572a58",
          "transactionIndex": "0x0",
          "logIndex": "0x1c",
          "removed": false
        },
        {
          "address": "0x2d8879046f1559e53eb052e949e9544bcb72f414",
          "topics": [
            "0x823eaf01002d7353fbcadb2ea3305cc46fa35d799cb0914846d185ac06f8ad05"
          ],
          "data": "0x000000000000000000000000ef0e791f490be9019b5d518f4eb67cf2d4550a7d000000000000000000000000000000000000000000000000004732d34b69222c000000000000000000000000e5d7c2a44ffddf6b295a15c148167daaaf5cf34f0000000000000000000000000000000000000000000000000000000002e7ef23000000000000000000000000176211869ca2b568f2a7d4ee941e073a821ee1ffffffffffffffffffffffffffffffffffffffffffffffffffffffffffffffffa40000000000000000000000000000000000000000000000000000000000000000",
          "blockHash": "0x9cbd82706c2c7e6b2453ccde9d3bfc9ca8f522a6cdab47032866c98f3f06d983",
          "blockNumber": "0x8fe2af",
          "blockTimestamp": "0x66e4dde4",
          "transactionHash": "0x847fc2338707c5042e3fe9bc2fc4c6101df0a73a83afd78aa87a1386bb572a58",
          "transactionIndex": "0x0",
          "logIndex": "0x1d",
          "removed": false
        },
        {
          "address": "0xe5d7c2a44ffddf6b295a15c148167daaaf5cf34f",
          "topics": [
            "0xddf252ad1be2c89b69c2b068fc378daa952ba7f163c4a11628f55a4df523b3ef",
            "0x000000000000000000000000ef0e791f490be9019b5d518f4eb67cf2d4550a7d",
            "0x000000000000000000000000f39fd6e51aad88f6f4ce6ab8827279cfffb92266"
          ],
          "data": "0x00000000000000000000000000000000000000000000000000236c643bddf133",
          "blockHash": "0x9cbd82706c2c7e6b2453ccde9d3bfc9ca8f522a6cdab47032866c98f3f06d983",
          "blockNumber": "0x8fe2af",
          "blockTimestamp": "0x66e4dde4",
          "transactionHash": "0x847fc2338707c5042e3fe9bc2fc4c6101df0a73a83afd78aa87a1386bb572a58",
          "transactionIndex": "0x0",
          "logIndex": "0x1e",
          "removed": false
        },
        {
          "address": "0x176211869ca2b568f2a7d4ee941e073a821ee1ff",
          "topics": [
            "0xddf252ad1be2c89b69c2b068fc378daa952ba7f163c4a11628f55a4df523b3ef",
            "0x000000000000000000000000ef0e791f490be9019b5d518f4eb67cf2d4550a7d",
            "0x000000000000000000000000f39fd6e51aad88f6f4ce6ab8827279cfffb92266"
          ],
          "data": "0x0000000000000000000000000000000000000000000000000000000000007eb9",
          "blockHash": "0x9cbd82706c2c7e6b2453ccde9d3bfc9ca8f522a6cdab47032866c98f3f06d983",
          "blockNumber": "0x8fe2af",
          "blockTimestamp": "0x66e4dde4",
          "transactionHash": "0x847fc2338707c5042e3fe9bc2fc4c6101df0a73a83afd78aa87a1386bb572a58",
          "transactionIndex": "0x0",
          "logIndex": "0x1f",
          "removed": false
        },
        {
          "address": "0xe5d7c2a44ffddf6b295a15c148167daaaf5cf34f",
          "topics": [
            "0x8c5be1e5ebec7d5bd14f71427d1e84f3dd0314c0f7b2291e5b200ac8c7c3b925",
            "0x000000000000000000000000ef0e791f490be9019b5d518f4eb67cf2d4550a7d",
            "0x0000000000000000000000002d8879046f1559e53eb052e949e9544bcb72f414"
          ],
          "data": "0x0000000000000000000000000000000000000000000000000000000000000000",
          "blockHash": "0x9cbd82706c2c7e6b2453ccde9d3bfc9ca8f522a6cdab47032866c98f3f06d983",
          "blockNumber": "0x8fe2af",
          "blockTimestamp": "0x66e4dde4",
          "transactionHash": "0x847fc2338707c5042e3fe9bc2fc4c6101df0a73a83afd78aa87a1386bb572a58",
          "transactionIndex": "0x0",
          "logIndex": "0x20",
          "removed": false
        },
        {
          "address": "0x176211869ca2b568f2a7d4ee941e073a821ee1ff",
          "topics": [
            "0x8c5be1e5ebec7d5bd14f71427d1e84f3dd0314c0f7b2291e5b200ac8c7c3b925",
            "0x000000000000000000000000ef0e791f490be9019b5d518f4eb67cf2d4550a7d",
            "0x0000000000000000000000002f9bb73a8e98793e26cb2f6c4ad037bdf1c6b269"
          ],
          "data": "0x0000000000000000000000000000000000000000000000000000000002e7706a",
          "blockHash": "0x9cbd82706c2c7e6b2453ccde9d3bfc9ca8f522a6cdab47032866c98f3f06d983",
          "blockNumber": "0x8fe2af",
          "blockTimestamp": "0x66e4dde4",
          "transactionHash": "0x847fc2338707c5042e3fe9bc2fc4c6101df0a73a83afd78aa87a1386bb572a58",
          "transactionIndex": "0x0",
          "logIndex": "0x21",
          "removed": false
        },
        {
          "address": "0x2f9bb73a8e98793e26cb2f6c4ad037bdf1c6b269",
          "topics": [
            "0x804c9b842b2748a22bb64b345453a3de7ca54a6ca45ce00d415894979e22897a",
            "0x000000000000000000000000176211869ca2b568f2a7d4ee941e073a821ee1ff"
          ],
          "data": "0x0000000000000000000000000000000000000000001180c2e3c11e120f46ee040000000000000000000000000000000000000000002d4abf174f216b44eb1daf0000000000000000000000000000000000000000001f76ad4758d80e9758ed740000000000000000000000000000000000000000035dd9c079266ff489d4c18e0000000000000000000000000000000000000000036bc09972e883ae2fde2da4",
          "blockHash": "0x9cbd82706c2c7e6b2453ccde9d3bfc9ca8f522a6cdab47032866c98f3f06d983",
          "blockNumber": "0x8fe2af",
          "blockTimestamp": "0x66e4dde4",
          "transactionHash": "0x847fc2338707c5042e3fe9bc2fc4c6101df0a73a83afd78aa87a1386bb572a58",
          "transactionIndex": "0x0",
          "logIndex": "0x22",
          "removed": false
        },
        {
          "address": "0x176211869ca2b568f2a7d4ee941e073a821ee1ff",
          "topics": [
            "0xddf252ad1be2c89b69c2b068fc378daa952ba7f163c4a11628f55a4df523b3ef",
            "0x000000000000000000000000ef0e791f490be9019b5d518f4eb67cf2d4550a7d",
            "0x0000000000000000000000002e207eca8b6bf77a6ac82763eeed2a94de4f081d"
          ],
          "data": "0x0000000000000000000000000000000000000000000000000000000002e7706a",
          "blockHash": "0x9cbd82706c2c7e6b2453ccde9d3bfc9ca8f522a6cdab47032866c98f3f06d983",
          "blockNumber": "0x8fe2af",
          "blockTimestamp": "0x66e4dde4",
          "transactionHash": "0x847fc2338707c5042e3fe9bc2fc4c6101df0a73a83afd78aa87a1386bb572a58",
          "transactionIndex": "0x0",
          "logIndex": "0x23",
          "removed": false
        },
        {
          "address": "0x2f9bb73a8e98793e26cb2f6c4ad037bdf1c6b269",
          "topics": [
            "0xefefaba5e921573100900a3ad9cf29f222d995fb3b6045797eaea7521bd8d6f0",
            "0x000000000000000000000000ef0e791f490be9019b5d518f4eb67cf2d4550a7d",
            "0x000000000000000000000000176211869ca2b568f2a7d4ee941e073a821ee1ff",
            "0x0000000000000000000000000000000000000000000000000000000000000000"
          ],
          "data": "0x000000000000000000000000ef0e791f490be9019b5d518f4eb67cf2d4550a7d0000000000000000000000000000000000000000000000000000000002e7114d00000000000000000000000000000000000000000000000000000000000000000000000000000000000000000000000000000000000000000000000000005f1d",
          "blockHash": "0x9cbd82706c2c7e6b2453ccde9d3bfc9ca8f522a6cdab47032866c98f3f06d983",
          "blockNumber": "0x8fe2af",
          "blockTimestamp": "0x66e4dde4",
          "transactionHash": "0x847fc2338707c5042e3fe9bc2fc4c6101df0a73a83afd78aa87a1386bb572a58",
          "transactionIndex": "0x0",
          "logIndex": "0x24",
          "removed": false
        }
      ],
      "logsBloom": "0x10200000000000000000000000000000808000004000000000000000000000000800800020000000000010000006000000110800405020140004010000200000840000200040000880080208020002202040000000000802000000000040100000000022022400000080000120000801804000083000020000000010200c0000000002000000000800100004000000000000100008000040008000440000004002080000028000040040000002000810040000000010180110000000a00001004050000200000020010000240000000000020000a000020000000000000020040010300000008020000080000000000000000000200002000000800000140000",
      "type": "0x2",
      "transactionHash": "0x847fc2338707c5042e3fe9bc2fc4c6101df0a73a83afd78aa87a1386bb572a58",
      "transactionIndex": "0x0",
      "blockHash": "0x9cbd82706c2c7e6b2453ccde9d3bfc9ca8f522a6cdab47032866c98f3f06d983",
      "blockNumber": "0x8fe2af",
      "gasUsed": "0xe0486",
      "effectiveGasPrice": "0x3938707",
      "blobGasPrice": "0x1",
      "from": "0xf39fd6e51aad88f6f4ce6ab8827279cfffb92266",
      "to": "0x0b306bf915c4d645ff596e518faf3f9669b97016",
      "contractAddress": null,
      "root": "0x0000000000000000000000000000000000000000000000000000000000000000"
    }
  ],
  "libraries": [],
  "pending": [],
  "returns": {},
  "timestamp": 1726275043,
  "chain": 59144,
  "commit": "4a57ec2"
}