{
  "transactions": [
    {
      "hash": "0x01d2112c158cbddf13ac8009500281e6aa005442e3cd8923b889bbd73e41e823",
      "transactionType": "CALL",
      "contractName": null,
      "contractAddress": "0xe5d7c2a44ffddf6b295a15c148167daaaf5cf34f",
      "function": "approve(address,uint256)",
      "arguments": [
        "0x0B306BF915C4d645ff596e518fAf3F9669b97016",
        "115792089237316195423570985008687907853269984665640564039457584007913129639935"
      ],
      "transaction": {
        "from": "0xf39fd6e51aad88f6f4ce6ab8827279cfffb92266",
        "to": "0xe5d7c2a44ffddf6b295a15c148167daaaf5cf34f",
        "gas": "0x8ec9",
        "value": "0x0",
        "input": "0x095ea7b30000000000000000000000000b306bf915c4d645ff596e518faf3f9669b97016ffffffffffffffffffffffffffffffffffffffffffffffffffffffffffffffff",
        "nonce": "0x26",
        "chainId": "0xe708"
      },
      "additionalContracts": [],
      "isFixedGasLimit": false
    },
    {
      "hash": "0xe0c3a864e6139d9565f5a02153fd535902b01e88a6b06f3212e5c511b3210eb0",
      "transactionType": "CALL",
      "contractName": null,
      "contractAddress": "0x176211869ca2b568f2a7d4ee941e073a821ee1ff",
      "function": "approve(address,uint256)",
      "arguments": [
        "0x0B306BF915C4d645ff596e518fAf3F9669b97016",
        "115792089237316195423570985008687907853269984665640564039457584007913129639935"
      ],
      "transaction": {
        "from": "0xf39fd6e51aad88f6f4ce6ab8827279cfffb92266",
        "to": "0x176211869ca2b568f2a7d4ee941e073a821ee1ff",
        "gas": "0xf62a",
        "value": "0x0",
        "input": "0x095ea7b30000000000000000000000000b306bf915c4d645ff596e518faf3f9669b97016ffffffffffffffffffffffffffffffffffffffffffffffffffffffffffffffff",
        "nonce": "0x27",
        "chainId": "0xe708"
      },
      "additionalContracts": [],
      "isFixedGasLimit": false
    },
    {
      "hash": "0xdb0744af20c9301f23b95b0fc5be2dcd26e6c233641457c3a58b2dcb04ac8116",
      "transactionType": "CALL",
      "contractName": null,
      "contractAddress": "0x0b306bf915c4d645ff596e518faf3f9669b97016",
      "function": "closePosition(uint256,bytes)",
      "arguments": [
        "0",
        "0x83bd37f90001176211869ca2b568f2a7d4ee941e073a821ee1ff0001e5d7c2a44ffddf6b295a15c148167daaaf5cf34f040beea7fe080125c5f22c29b630028f5c000156c85a254dd12ee8d9c04049a4ab62769ce98210000000019d1794bab9664c755ed74a7d44f3da02a5613df40000000003010203000a0101010201ff000000000000000000000000000000000000000000586733678b9ac9da43dd7cb83bbb41d23677dfc3176211869ca2b568f2a7d4ee941e073a821ee1ff000000000000000000000000000000000000000000000000"
      ],
      "transaction": {
        "from": "0xf39fd6e51aad88f6f4ce6ab8827279cfffb92266",
        "to": "0x0b306bf915c4d645ff596e518faf3f9669b97016",
        "gas": "0xfb668",
        "value": "0x0",
        "input": "0x0e8261130000000000000000000000000000000000000000000000000000000000000000000000000000000000000000000000000000000000000000000000000000004000000000000000000000000000000000000000000000000000000000000000d483bd37f90001176211869ca2b568f2a7d4ee941e073a821ee1ff0001e5d7c2a44ffddf6b295a15c148167daaaf5cf34f040beea7fe080125c5f22c29b630028f5c000156c85a254dd12ee8d9c04049a4ab62769ce98210000000019d1794bab9664c755ed74a7d44f3da02a5613df40000000003010203000a0101010201ff000000000000000000000000000000000000000000586733678b9ac9da43dd7cb83bbb41d23677dfc3176211869ca2b568f2a7d4ee941e073a821ee1ff000000000000000000000000000000000000000000000000000000000000000000000000",
        "nonce": "0x28",
        "chainId": "0xe708"
      },
      "additionalContracts": [],
      "isFixedGasLimit": false
    }
  ],
  "receipts": [
    {
      "status": "0x1",
      "cumulativeGasUsed": "0x6760",
      "logs": [
        {
          "address": "0xe5d7c2a44ffddf6b295a15c148167daaaf5cf34f",
          "topics": [
            "0x8c5be1e5ebec7d5bd14f71427d1e84f3dd0314c0f7b2291e5b200ac8c7c3b925",
            "0x000000000000000000000000f39fd6e51aad88f6f4ce6ab8827279cfffb92266",
            "0x0000000000000000000000000b306bf915c4d645ff596e518faf3f9669b97016"
          ],
          "data": "0xffffffffffffffffffffffffffffffffffffffffffffffffffffffffffffffff",
          "blockHash": "0x239dee56fd21fb0a0b4695f9cb09eefa5166f462db41c70d81bb8ad1cee653ae",
          "blockNumber": "0x9003eb",
          "blockTimestamp": "0x66e52007",
          "transactionHash": "0x01d2112c158cbddf13ac8009500281e6aa005442e3cd8923b889bbd73e41e823",
          "transactionIndex": "0x0",
          "logIndex": "0x0",
          "removed": false
        }
      ],
      "logsBloom": "0x0000000000000000000000000000000800000000000000000000000000000000000000000000000000000000000000000000000000000000000000000020000000000000000000000000000000000000000000000000000000000000000000000000000000000000000000030000000000000000000000000000000000000000000000000000000000100000000000000000000000000000000000000000000002000000000000000000000000000000000000000000000000000000200000000000000000000020000000000000000000000000a000000000000000000000000010000000000000000000000400000000000000000000000000000000000000",
      "type": "0x2",
      "transactionHash": "0x01d2112c158cbddf13ac8009500281e6aa005442e3cd8923b889bbd73e41e823",
      "transactionIndex": "0x0",
      "blockHash": "0x239dee56fd21fb0a0b4695f9cb09eefa5166f462db41c70d81bb8ad1cee653ae",
      "blockNumber": "0x9003eb",
      "gasUsed": "0x6760",
      "effectiveGasPrice": "0x3938707",
      "blobGasPrice": "0x1",
      "from": "0xf39fd6e51aad88f6f4ce6ab8827279cfffb92266",
      "to": "0xe5d7c2a44ffddf6b295a15c148167daaaf5cf34f",
      "contractAddress": null,
      "root": "0x0000000000000000000000000000000000000000000000000000000000000000"
    },
    {
      "status": "0x1",
      "cumulativeGasUsed": "0xa852",
      "logs": [
        {
          "address": "0x176211869ca2b568f2a7d4ee941e073a821ee1ff",
          "topics": [
            "0x8c5be1e5ebec7d5bd14f71427d1e84f3dd0314c0f7b2291e5b200ac8c7c3b925",
            "0x000000000000000000000000f39fd6e51aad88f6f4ce6ab8827279cfffb92266",
            "0x0000000000000000000000000b306bf915c4d645ff596e518faf3f9669b97016"
          ],
          "data": "0xffffffffffffffffffffffffffffffffffffffffffffffffffffffffffffffff",
          "blockHash": "0xae2fa688b22df9279d150ae440492f9c69684d485e81b160ab67ae946179b63f",
          "blockNumber": "0x9003ec",
          "blockTimestamp": "0x66e52008",
          "transactionHash": "0xe0c3a864e6139d9565f5a02153fd535902b01e88a6b06f3212e5c511b3210eb0",
          "transactionIndex": "0x0",
          "logIndex": "0x0",
          "removed": false
        }
      ],
      "logsBloom": "0x00000000000000000000000000000008000000000000000000000000000000000000000000000000000000000000000000000800000000000004000000200000000000000000000000000000020000000000000000000000000000000000000000000000000000000000000300000000000000000000000000000000000000000000000000000000000000000000000000000000000000000000000000000000020000000000000000000000000000000000000000000000000000000000000000000000000000200000000000000000000000002000000000000000000000000010000000000000000000000400000000000000000000000000000000000000",
      "type": "0x2",
      "transactionHash": "0xe0c3a864e6139d9565f5a02153fd535902b01e88a6b06f3212e5c511b3210eb0",
      "transactionIndex": "0x0",
      "blockHash": "0xae2fa688b22df9279d150ae440492f9c69684d485e81b160ab67ae946179b63f",
      "blockNumber": "0x9003ec",
      "gasUsed": "0xa852",
      "effectiveGasPrice": "0x3938707",
      "blobGasPrice": "0x1",
      "from": "0xf39fd6e51aad88f6f4ce6ab8827279cfffb92266",
      "to": "0x176211869ca2b568f2a7d4ee941e073a821ee1ff",
      "contractAddress": null,
      "root": "0x0000000000000000000000000000000000000000000000000000000000000000"
    },
    {
      "status": "0x1",
      "cumulativeGasUsed": "0xcb28f",
      "logs": [
        {
          "address": "0xe5d7c2a44ffddf6b295a15c148167daaaf5cf34f",
          "topics": [
            "0xddf252ad1be2c89b69c2b068fc378daa952ba7f163c4a11628f55a4df523b3ef",
            "0x000000000000000000000000b4ffef15daf4c02787bc5332580b838ce39805f5",
            "0x0000000000000000000000009d1794bab9664c755ed74a7d44f3da02a5613df4"
          ],
          "data": "0x00000000000000000000000000000000000000000000000001254913e708e2cc",
          "blockHash": "0xae2fa688b22df9279d150ae440492f9c69684d485e81b160ab67ae946179b63f",
          "blockNumber": "0x9003ec",
          "blockTimestamp": "0x66e52008",
          "transactionHash": "0xdb0744af20c9301f23b95b0fc5be2dcd26e6c233641457c3a58b2dcb04ac8116",
          "transactionIndex": "0x1",
          "logIndex": "0x1",
          "removed": false
        },
        {
          "address": "0xe5d7c2a44ffddf6b295a15c148167daaaf5cf34f",
          "topics": [
            "0x8c5be1e5ebec7d5bd14f71427d1e84f3dd0314c0f7b2291e5b200ac8c7c3b925",
            "0x0000000000000000000000009d1794bab9664c755ed74a7d44f3da02a5613df4",
            "0x0000000000000000000000002f9bb73a8e98793e26cb2f6c4ad037bdf1c6b269"
          ],
          "data": "0x00000000000000000000000000000000000000000000000001254913e708e2cc",
          "blockHash": "0xae2fa688b22df9279d150ae440492f9c69684d485e81b160ab67ae946179b63f",
          "blockNumber": "0x9003ec",
          "blockTimestamp": "0x66e52008",
          "transactionHash": "0xdb0744af20c9301f23b95b0fc5be2dcd26e6c233641457c3a58b2dcb04ac8116",
          "transactionIndex": "0x1",
          "logIndex": "0x2",
          "removed": false
        },
        {
          "address": "0x28f6899ff643261ca9766ddc251b359a2d00b945",
          "topics": [
            "0x3303facd24627943a92e9dc87cfbb34b15c49b726eec3ad3487c16be9ab8efe8",
            "0x000000000000000000000000cb2da0f5aece616e2cbf29576cfc795fb15c6133",
            "0x00000000000000000000000078354f8dccb269a615a7e0a24f9b0718fdc3c7a7",
            "0x0000000000000000000000009d1794bab9664c755ed74a7d44f3da02a5613df4"
          ],
          "data": "0x000000000000000000000000000000000000000000000e0feb629f1397f911a4000000000000000000000000000000000000000000000e0feb629f1397f911a4000000000000000000000000000000000000000000000000001728fd0432bcfc",
          "blockHash": "0xae2fa688b22df9279d150ae440492f9c69684d485e81b160ab67ae946179b63f",
          "blockNumber": "0x9003ec",
          "blockTimestamp": "0x66e52008",
          "transactionHash": "0xdb0744af20c9301f23b95b0fc5be2dcd26e6c233641457c3a58b2dcb04ac8116",
          "transactionIndex": "0x1",
          "logIndex": "0x3",
          "removed": false
        },
        {
          "address": "0xcb2da0f5aece616e2cbf29576cfc795fb15c6133",
          "topics": [
            "0xddf252ad1be2c89b69c2b068fc378daa952ba7f163c4a11628f55a4df523b3ef",
            "0x0000000000000000000000009d1794bab9664c755ed74a7d44f3da02a5613df4",
            "0x0000000000000000000000000000000000000000000000000000000000000000"
          ],
          "data": "0x000000000000000000000000000000000000000000000000012549134e10d0c0",
          "blockHash": "0xae2fa688b22df9279d150ae440492f9c69684d485e81b160ab67ae946179b63f",
          "blockNumber": "0x9003ec",
          "blockTimestamp": "0x66e52008",
          "transactionHash": "0xdb0744af20c9301f23b95b0fc5be2dcd26e6c233641457c3a58b2dcb04ac8116",
          "transactionIndex": "0x1",
          "logIndex": "0x4",
          "removed": false
        },
        {
          "address": "0xcb2da0f5aece616e2cbf29576cfc795fb15c6133",
          "topics": [
            "0x4cf25bc1d991c17529c25213d3cc0cda295eeaad5f13f361969b12ea48015f90",
            "0x0000000000000000000000009d1794bab9664c755ed74a7d44f3da02a5613df4",
            "0x0000000000000000000000000000000000000000000000000000000000000000"
          ],
          "data": "0x000000000000000000000000000000000000000000000000012549134e10d0c00000000000000000000000000000000000000000000000000000000098f8120c0000000000000000000000000000000000000000035f595282a8de64cddcf080",
          "blockHash": "0xae2fa688b22df9279d150ae440492f9c69684d485e81b160ab67ae946179b63f",
          "blockNumber": "0x9003ec",
          "blockTimestamp": "0x66e52008",
          "transactionHash": "0xdb0744af20c9301f23b95b0fc5be2dcd26e6c233641457c3a58b2dcb04ac8116",
          "transactionIndex": "0x1",
          "logIndex": "0x5",
          "removed": false
        },
        {
          "address": "0x2f9bb73a8e98793e26cb2f6c4ad037bdf1c6b269",
          "topics": [
            "0x804c9b842b2748a22bb64b345453a3de7ca54a6ca45ce00d415894979e22897a",
            "0x000000000000000000000000e5d7c2a44ffddf6b295a15c148167daaaf5cf34f"
          ],
          "data": "0x0000000000000000000000000000000000000000000b7bf1f4ba40473576b7df0000000000000000000000000000000000000000002cbcef8c9d59e35adaac9c0000000000000000000000000000000000000000001b0830f1ca9bcf46d564de00000000000000000000000000000000000000000352b0cdcb156dcf368ce4110000000000000000000000000000000000000000035f595282a8de64cddcf080",
          "blockHash": "0xae2fa688b22df9279d150ae440492f9c69684d485e81b160ab67ae946179b63f",
          "blockNumber": "0x9003ec",
          "blockTimestamp": "0x66e52008",
          "transactionHash": "0xdb0744af20c9301f23b95b0fc5be2dcd26e6c233641457c3a58b2dcb04ac8116",
          "transactionIndex": "0x1",
          "logIndex": "0x6",
          "removed": false
        },
        {
          "address": "0xe5d7c2a44ffddf6b295a15c148167daaaf5cf34f",
          "topics": [
            "0xddf252ad1be2c89b69c2b068fc378daa952ba7f163c4a11628f55a4df523b3ef",
            "0x0000000000000000000000009d1794bab9664c755ed74a7d44f3da02a5613df4",
            "0x000000000000000000000000b4ffef15daf4c02787bc5332580b838ce39805f5"
          ],
          "data": "0x00000000000000000000000000000000000000000000000001254913e708e2cc",
          "blockHash": "0xae2fa688b22df9279d150ae440492f9c69684d485e81b160ab67ae946179b63f",
          "blockNumber": "0x9003ec",
          "blockTimestamp": "0x66e52008",
          "transactionHash": "0xdb0744af20c9301f23b95b0fc5be2dcd26e6c233641457c3a58b2dcb04ac8116",
          "transactionIndex": "0x1",
          "logIndex": "0x7",
          "removed": false
        },
        {
          "address": "0x2f9bb73a8e98793e26cb2f6c4ad037bdf1c6b269",
          "topics": [
            "0xa534c8dbe71f871f9f3530e97a74601fea17b426cae02e1c5aee42c96c784051",
            "0x000000000000000000000000e5d7c2a44ffddf6b295a15c148167daaaf5cf34f",
            "0x0000000000000000000000009d1794bab9664c755ed74a7d44f3da02a5613df4",
            "0x0000000000000000000000009d1794bab9664c755ed74a7d44f3da02a5613df4"
          ],
          "data": "0x00000000000000000000000000000000000000000000000001254913e708e2cc0000000000000000000000000000000000000000000000000000000000000000",
          "blockHash": "0xae2fa688b22df9279d150ae440492f9c69684d485e81b160ab67ae946179b63f",
          "blockNumber": "0x9003ec",
          "blockTimestamp": "0x66e52008",
          "transactionHash": "0xdb0744af20c9301f23b95b0fc5be2dcd26e6c233641457c3a58b2dcb04ac8116",
          "transactionIndex": "0x1",
          "logIndex": "0x8",
          "removed": false
        },
        {
          "address": "0x2e207eca8b6bf77a6ac82763eeed2a94de4f081d",
          "topics": [
            "0x8c5be1e5ebec7d5bd14f71427d1e84f3dd0314c0f7b2291e5b200ac8c7c3b925",
            "0x0000000000000000000000009d1794bab9664c755ed74a7d44f3da02a5613df4",
            "0x0000000000000000000000002f9bb73a8e98793e26cb2f6c4ad037bdf1c6b269"
          ],
          "data": "0x0000000000000000000000000000000000000000000000000000000011dbb4f7",
          "blockHash": "0xae2fa688b22df9279d150ae440492f9c69684d485e81b160ab67ae946179b63f",
          "blockNumber": "0x9003ec",
          "blockTimestamp": "0x66e52008",
          "transactionHash": "0xdb0744af20c9301f23b95b0fc5be2dcd26e6c233641457c3a58b2dcb04ac8116",
          "transactionIndex": "0x1",
          "logIndex": "0x9",
          "removed": false
        },
        {
          "address": "0x2f9bb73a8e98793e26cb2f6c4ad037bdf1c6b269",
          "topics": [
            "0x804c9b842b2748a22bb64b345453a3de7ca54a6ca45ce00d415894979e22897a",
            "0x000000000000000000000000176211869ca2b568f2a7d4ee941e073a821ee1ff"
          ],
          "data": "0x00000000000000000000000000000000000000000011b052dce441152f948ad20000000000000000000000000000000000000000002d501375f876861abb43f50000000000000000000000000000000000000000001fa1503ca380e545da1fa80000000000000000000000000000000000000000035ddc46f1422bf5d6d3104b0000000000000000000000000000000000000000036bc5300aaaf3f5df1278a5",
          "blockHash": "0xae2fa688b22df9279d150ae440492f9c69684d485e81b160ab67ae946179b63f",
          "blockNumber": "0x9003ec",
          "blockTimestamp": "0x66e52008",
          "transactionHash": "0xdb0744af20c9301f23b95b0fc5be2dcd26e6c233641457c3a58b2dcb04ac8116",
          "transactionIndex": "0x1",
          "logIndex": "0xa",
          "removed": false
        },
        {
          "address": "0x2f9bb73a8e98793e26cb2f6c4ad037bdf1c6b269",
          "topics": [
            "0x44c58d81365b66dd4b1a7f36c25aa97b8c71c361ee4937adc1a00000227db5dd",
            "0x000000000000000000000000176211869ca2b568f2a7d4ee941e073a821ee1ff",
            "0x0000000000000000000000009d1794bab9664c755ed74a7d44f3da02a5613df4"
          ],
          "data": "0x",
          "blockHash": "0xae2fa688b22df9279d150ae440492f9c69684d485e81b160ab67ae946179b63f",
          "blockNumber": "0x9003ec",
          "blockTimestamp": "0x66e52008",
          "transactionHash": "0xdb0744af20c9301f23b95b0fc5be2dcd26e6c233641457c3a58b2dcb04ac8116",
          "transactionIndex": "0x1",
          "logIndex": "0xb",
          "removed": false
        },
        {
          "address": "0x28f6899ff643261ca9766ddc251b359a2d00b945",
          "topics": [
            "0x3303facd24627943a92e9dc87cfbb34b15c49b726eec3ad3487c16be9ab8efe8",
            "0x0000000000000000000000002e207eca8b6bf77a6ac82763eeed2a94de4f081d",
            "0x00000000000000000000000078354f8dccb269a615a7e0a24f9b0718fdc3c7a7",
            "0x0000000000000000000000009d1794bab9664c755ed74a7d44f3da02a5613df4"
          ],
          "data": "0x0000000000000000000000000000000000000000000000005f41c430b7aa44800000000000000000000000000000000000000000000000005f41c430b7aa44800000000000000000000000000000000000000000000000000019b6e89955ae37",
          "blockHash": "0xae2fa688b22df9279d150ae440492f9c69684d485e81b160ab67ae946179b63f",
          "blockNumber": "0x9003ec",
          "blockTimestamp": "0x66e52008",
          "transactionHash": "0xdb0744af20c9301f23b95b0fc5be2dcd26e6c233641457c3a58b2dcb04ac8116",
          "transactionIndex": "0x1",
          "logIndex": "0xc",
          "removed": false
        },
        {
          "address": "0x2e207eca8b6bf77a6ac82763eeed2a94de4f081d",
          "topics": [
            "0xddf252ad1be2c89b69c2b068fc378daa952ba7f163c4a11628f55a4df523b3ef",
            "0x0000000000000000000000009d1794bab9664c755ed74a7d44f3da02a5613df4",
            "0x0000000000000000000000000000000000000000000000000000000000000000"
          ],
          "data": "0x0000000000000000000000000000000000000000000000000000000011dbb4f1",
          "blockHash": "0xae2fa688b22df9279d150ae440492f9c69684d485e81b160ab67ae946179b63f",
          "blockNumber": "0x9003ec",
          "blockTimestamp": "0x66e52008",
          "transactionHash": "0xdb0744af20c9301f23b95b0fc5be2dcd26e6c233641457c3a58b2dcb04ac8116",
          "transactionIndex": "0x1",
          "logIndex": "0xd",
          "removed": false
        },
        {
          "address": "0x2e207eca8b6bf77a6ac82763eeed2a94de4f081d",
          "topics": [
            "0x4cf25bc1d991c17529c25213d3cc0cda295eeaad5f13f361969b12ea48015f90",
            "0x0000000000000000000000009d1794bab9664c755ed74a7d44f3da02a5613df4",
            "0x0000000000000000000000009d1794bab9664c755ed74a7d44f3da02a5613df4"
          ],
          "data": "0x0000000000000000000000000000000000000000000000000000000011dbb4f100000000000000000000000000000000000000000000000000000000000000060000000000000000000000000000000000000000035ddc46f1422bf5d6d3104b",
          "blockHash": "0xae2fa688b22df9279d150ae440492f9c69684d485e81b160ab67ae946179b63f",
          "blockNumber": "0x9003ec",
          "blockTimestamp": "0x66e52008",
          "transactionHash": "0xdb0744af20c9301f23b95b0fc5be2dcd26e6c233641457c3a58b2dcb04ac8116",
          "transactionIndex": "0x1",
          "logIndex": "0xe",
          "removed": false
        },
        {
          "address": "0x176211869ca2b568f2a7d4ee941e073a821ee1ff",
          "topics": [
            "0xddf252ad1be2c89b69c2b068fc378daa952ba7f163c4a11628f55a4df523b3ef",
            "0x0000000000000000000000002e207eca8b6bf77a6ac82763eeed2a94de4f081d",
            "0x0000000000000000000000009d1794bab9664c755ed74a7d44f3da02a5613df4"
          ],
          "data": "0x0000000000000000000000000000000000000000000000000000000011dbb4f7",
          "blockHash": "0xae2fa688b22df9279d150ae440492f9c69684d485e81b160ab67ae946179b63f",
          "blockNumber": "0x9003ec",
          "blockTimestamp": "0x66e52008",
          "transactionHash": "0xdb0744af20c9301f23b95b0fc5be2dcd26e6c233641457c3a58b2dcb04ac8116",
          "transactionIndex": "0x1",
          "logIndex": "0xf",
          "removed": false
        },
        {
          "address": "0x2f9bb73a8e98793e26cb2f6c4ad037bdf1c6b269",
          "topics": [
            "0x3115d1449a7b732c986cba18244e897a450f61e1bb8d589cd2e69e6c8924f9f7",
            "0x000000000000000000000000176211869ca2b568f2a7d4ee941e073a821ee1ff",
            "0x0000000000000000000000009d1794bab9664c755ed74a7d44f3da02a5613df4",
            "0x0000000000000000000000009d1794bab9664c755ed74a7d44f3da02a5613df4"
          ],
          "data": "0x0000000000000000000000000000000000000000000000000000000011dbb4f7",
          "blockHash": "0xae2fa688b22df9279d150ae440492f9c69684d485e81b160ab67ae946179b63f",
          "blockNumber": "0x9003ec",
          "blockTimestamp": "0x66e52008",
          "transactionHash": "0xdb0744af20c9301f23b95b0fc5be2dcd26e6c233641457c3a58b2dcb04ac8116",
          "transactionIndex": "0x1",
          "logIndex": "0x10",
          "removed": false
        },
        {
          "address": "0x176211869ca2b568f2a7d4ee941e073a821ee1ff",
          "topics": [
            "0x8c5be1e5ebec7d5bd14f71427d1e84f3dd0314c0f7b2291e5b200ac8c7c3b925",
            "0x0000000000000000000000009d1794bab9664c755ed74a7d44f3da02a5613df4",
            "0x0000000000000000000000002d8879046f1559e53eb052e949e9544bcb72f414"
          ],
          "data": "0x0000000000000000000000000000000000000000000000000000000011dbb4f7",
          "blockHash": "0xae2fa688b22df9279d150ae440492f9c69684d485e81b160ab67ae946179b63f",
          "blockNumber": "0x9003ec",
          "blockTimestamp": "0x66e52008",
          "transactionHash": "0xdb0744af20c9301f23b95b0fc5be2dcd26e6c233641457c3a58b2dcb04ac8116",
          "transactionIndex": "0x1",
          "logIndex": "0x11",
          "removed": false
        },
        {
          "address": "0x176211869ca2b568f2a7d4ee941e073a821ee1ff",
          "topics": [
            "0xddf252ad1be2c89b69c2b068fc378daa952ba7f163c4a11628f55a4df523b3ef",
            "0x0000000000000000000000009d1794bab9664c755ed74a7d44f3da02a5613df4",
            "0x00000000000000000000000056c85a254dd12ee8d9c04049a4ab62769ce98210"
          ],
          "data": "0x000000000000000000000000000000000000000000000000000000000beea7fe",
          "blockHash": "0xae2fa688b22df9279d150ae440492f9c69684d485e81b160ab67ae946179b63f",
          "blockNumber": "0x9003ec",
          "blockTimestamp": "0x66e52008",
          "transactionHash": "0xdb0744af20c9301f23b95b0fc5be2dcd26e6c233641457c3a58b2dcb04ac8116",
          "transactionIndex": "0x1",
          "logIndex": "0x12",
          "removed": false
        },
        {
          "address": "0xe5d7c2a44ffddf6b295a15c148167daaaf5cf34f",
          "topics": [
            "0xddf252ad1be2c89b69c2b068fc378daa952ba7f163c4a11628f55a4df523b3ef",
            "0x000000000000000000000000586733678b9ac9da43dd7cb83bbb41d23677dfc3",
            "0x0000000000000000000000002d8879046f1559e53eb052e949e9544bcb72f414"
          ],
          "data": "0x0000000000000000000000000000000000000000000000000125ca738fb49de0",
          "blockHash": "0xae2fa688b22df9279d150ae440492f9c69684d485e81b160ab67ae946179b63f",
          "blockNumber": "0x9003ec",
          "blockTimestamp": "0x66e52008",
          "transactionHash": "0xdb0744af20c9301f23b95b0fc5be2dcd26e6c233641457c3a58b2dcb04ac8116",
          "transactionIndex": "0x1",
          "logIndex": "0x13",
          "removed": false
        },
        {
          "address": "0x176211869ca2b568f2a7d4ee941e073a821ee1ff",
          "topics": [
            "0xddf252ad1be2c89b69c2b068fc378daa952ba7f163c4a11628f55a4df523b3ef",
            "0x00000000000000000000000056c85a254dd12ee8d9c04049a4ab62769ce98210",
            "0x000000000000000000000000586733678b9ac9da43dd7cb83bbb41d23677dfc3"
          ],
          "data": "0x000000000000000000000000000000000000000000000000000000000beea7fe",
          "blockHash": "0xae2fa688b22df9279d150ae440492f9c69684d485e81b160ab67ae946179b63f",
          "blockNumber": "0x9003ec",
          "blockTimestamp": "0x66e52008",
          "transactionHash": "0xdb0744af20c9301f23b95b0fc5be2dcd26e6c233641457c3a58b2dcb04ac8116",
          "transactionIndex": "0x1",
          "logIndex": "0x14",
          "removed": false
        },
        {
          "address": "0x586733678b9ac9da43dd7cb83bbb41d23677dfc3",
          "topics": [
            "0x19b47279256b2a23a1665c810c8d55a1758940ee09377d4f8d26497a3577dc83",
            "0x00000000000000000000000056c85a254dd12ee8d9c04049a4ab62769ce98210",
            "0x0000000000000000000000002d8879046f1559e53eb052e949e9544bcb72f414"
          ],
          "data": "0x000000000000000000000000000000000000000000000000000000000beea7fefffffffffffffffffffffffffffffffffffffffffffffffffeda358c704b62200000000000000000000000000000000000004f635c4334f38b80acb1c37a1bd5000000000000000000000000000000000000000000000000004735246f928e26000000000000000000000000000000000000000000000000000000000003070000000000000000000000000000000000000000000000000000000000000019ce0000000000000000000000000000000000000000000000000000000000000000",
          "blockHash": "0xae2fa688b22df9279d150ae440492f9c69684d485e81b160ab67ae946179b63f",
          "blockNumber": "0x9003ec",
          "blockTimestamp": "0x66e52008",
          "transactionHash": "0xdb0744af20c9301f23b95b0fc5be2dcd26e6c233641457c3a58b2dcb04ac8116",
          "transactionIndex": "0x1",
          "logIndex": "0x15",
          "removed": false
        },
        {
          "address": "0xe5d7c2a44ffddf6b295a15c148167daaaf5cf34f",
          "topics": [
            "0xddf252ad1be2c89b69c2b068fc378daa952ba7f163c4a11628f55a4df523b3ef",
            "0x0000000000000000000000002d8879046f1559e53eb052e949e9544bcb72f414",
            "0x0000000000000000000000009d1794bab9664c755ed74a7d44f3da02a5613df4"
          ],
          "data": "0x0000000000000000000000000000000000000000000000000125c5f22c29b630",
          "blockHash": "0xae2fa688b22df9279d150ae440492f9c69684d485e81b160ab67ae946179b63f",
          "blockNumber": "0x9003ec",
          "blockTimestamp": "0x66e52008",
          "transactionHash": "0xdb0744af20c9301f23b95b0fc5be2dcd26e6c233641457c3a58b2dcb04ac8116",
          "transactionIndex": "0x1",
          "logIndex": "0x16",
          "removed": false
        },
        {
          "address": "0x2d8879046f1559e53eb052e949e9544bcb72f414",
          "topics": [
            "0x823eaf01002d7353fbcadb2ea3305cc46fa35d799cb0914846d185ac06f8ad05"
          ],
          "data": "0x0000000000000000000000009d1794bab9664c755ed74a7d44f3da02a5613df4000000000000000000000000000000000000000000000000000000000beea7fe000000000000000000000000176211869ca2b568f2a7d4ee941e073a821ee1ff0000000000000000000000000000000000000000000000000125c5f22c29b630000000000000000000000000e5d7c2a44ffddf6b295a15c148167daaaf5cf34f00000000000000000000000000000000000000000000000000000481638ae7b00000000000000000000000000000000000000000000000000000000000000000",
          "blockHash": "0xae2fa688b22df9279d150ae440492f9c69684d485e81b160ab67ae946179b63f",
          "blockNumber": "0x9003ec",
          "blockTimestamp": "0x66e52008",
          "transactionHash": "0xdb0744af20c9301f23b95b0fc5be2dcd26e6c233641457c3a58b2dcb04ac8116",
          "transactionIndex": "0x1",
          "logIndex": "0x17",
          "removed": false
        },
        {
          "address": "0xe5d7c2a44ffddf6b295a15c148167daaaf5cf34f",
          "topics": [
            "0xddf252ad1be2c89b69c2b068fc378daa952ba7f163c4a11628f55a4df523b3ef",
            "0x0000000000000000000000009d1794bab9664c755ed74a7d44f3da02a5613df4",
            "0x000000000000000000000000f39fd6e51aad88f6f4ce6ab8827279cfffb92266"
          ],
          "data": "0x00000000000000000000000000000000000000000000000000005753e45f69ce",
          "blockHash": "0xae2fa688b22df9279d150ae440492f9c69684d485e81b160ab67ae946179b63f",
          "blockNumber": "0x9003ec",
          "blockTimestamp": "0x66e52008",
          "transactionHash": "0xdb0744af20c9301f23b95b0fc5be2dcd26e6c233641457c3a58b2dcb04ac8116",
          "transactionIndex": "0x1",
          "logIndex": "0x18",
          "removed": false
        },
        {
          "address": "0x176211869ca2b568f2a7d4ee941e073a821ee1ff",
          "topics": [
            "0xddf252ad1be2c89b69c2b068fc378daa952ba7f163c4a11628f55a4df523b3ef",
            "0x0000000000000000000000009d1794bab9664c755ed74a7d44f3da02a5613df4",
            "0x000000000000000000000000f39fd6e51aad88f6f4ce6ab8827279cfffb92266"
          ],
          "data": "0x0000000000000000000000000000000000000000000000000000000005ed0cf9",
          "blockHash": "0xae2fa688b22df9279d150ae440492f9c69684d485e81b160ab67ae946179b63f",
          "blockNumber": "0x9003ec",
          "blockTimestamp": "0x66e52008",
          "transactionHash": "0xdb0744af20c9301f23b95b0fc5be2dcd26e6c233641457c3a58b2dcb04ac8116",
          "transactionIndex": "0x1",
          "logIndex": "0x19",
          "removed": false
        },
        {
          "address": "0xe5d7c2a44ffddf6b295a15c148167daaaf5cf34f",
          "topics": [
            "0x8c5be1e5ebec7d5bd14f71427d1e84f3dd0314c0f7b2291e5b200ac8c7c3b925",
            "0x0000000000000000000000009d1794bab9664c755ed74a7d44f3da02a5613df4",
            "0x0000000000000000000000002f9bb73a8e98793e26cb2f6c4ad037bdf1c6b269"
          ],
          "data": "0x0000000000000000000000000000000000000000000000000000000000000000",
          "blockHash": "0xae2fa688b22df9279d150ae440492f9c69684d485e81b160ab67ae946179b63f",
          "blockNumber": "0x9003ec",
          "blockTimestamp": "0x66e52008",
          "transactionHash": "0xdb0744af20c9301f23b95b0fc5be2dcd26e6c233641457c3a58b2dcb04ac8116",
          "transactionIndex": "0x1",
          "logIndex": "0x1a",
          "removed": false
        },
        {
          "address": "0x176211869ca2b568f2a7d4ee941e073a821ee1ff",
          "topics": [
            "0x8c5be1e5ebec7d5bd14f71427d1e84f3dd0314c0f7b2291e5b200ac8c7c3b925",
            "0x0000000000000000000000009d1794bab9664c755ed74a7d44f3da02a5613df4",
            "0x0000000000000000000000002d8879046f1559e53eb052e949e9544bcb72f414"
          ],
          "data": "0x0000000000000000000000000000000000000000000000000000000000000000",
          "blockHash": "0xae2fa688b22df9279d150ae440492f9c69684d485e81b160ab67ae946179b63f",
          "blockNumber": "0x9003ec",
          "blockTimestamp": "0x66e52008",
          "transactionHash": "0xdb0744af20c9301f23b95b0fc5be2dcd26e6c233641457c3a58b2dcb04ac8116",
          "transactionIndex": "0x1",
          "logIndex": "0x1b",
          "removed": false
        },
        {
          "address": "0xe5d7c2a44ffddf6b295a15c148167daaaf5cf34f",
          "topics": [
            "0x8c5be1e5ebec7d5bd14f71427d1e84f3dd0314c0f7b2291e5b200ac8c7c3b925",
            "0x0000000000000000000000009d1794bab9664c755ed74a7d44f3da02a5613df4",
            "0x0000000000000000000000002f9bb73a8e98793e26cb2f6c4ad037bdf1c6b269"
          ],
          "data": "0x00000000000000000000000000000000000000000000000001256e9e47ca4c62",
          "blockHash": "0xae2fa688b22df9279d150ae440492f9c69684d485e81b160ab67ae946179b63f",
          "blockNumber": "0x9003ec",
          "blockTimestamp": "0x66e52008",
          "transactionHash": "0xdb0744af20c9301f23b95b0fc5be2dcd26e6c233641457c3a58b2dcb04ac8116",
          "transactionIndex": "0x1",
          "logIndex": "0x1c",
          "removed": false
        },
        {
          "address": "0x2f9bb73a8e98793e26cb2f6c4ad037bdf1c6b269",
          "topics": [
            "0x804c9b842b2748a22bb64b345453a3de7ca54a6ca45ce00d415894979e22897a",
            "0x000000000000000000000000e5d7c2a44ffddf6b295a15c148167daaaf5cf34f"
          ],
          "data": "0x0000000000000000000000000000000000000000000b7bedad9a8e0d94538a880000000000000000000000000000000000000000002cbceeeb812b6dc284bd530000000000000000000000000000000000000000001b082be8e928228425ea9100000000000000000000000000000000000000000352b0cddf5889a2d08924560000000000000000000000000000000000000000035f595282a8de64cddcf080",
          "blockHash": "0xae2fa688b22df9279d150ae440492f9c69684d485e81b160ab67ae946179b63f",
          "blockNumber": "0x9003ec",
          "blockTimestamp": "0x66e52008",
          "transactionHash": "0xdb0744af20c9301f23b95b0fc5be2dcd26e6c233641457c3a58b2dcb04ac8116",
          "transactionIndex": "0x1",
          "logIndex": "0x1d",
          "removed": false
        },
        {
          "address": "0xe5d7c2a44ffddf6b295a15c148167daaaf5cf34f",
          "topics": [
            "0xddf252ad1be2c89b69c2b068fc378daa952ba7f163c4a11628f55a4df523b3ef",
            "0x0000000000000000000000009d1794bab9664c755ed74a7d44f3da02a5613df4",
            "0x000000000000000000000000b4ffef15daf4c02787bc5332580b838ce39805f5"
          ],
          "data": "0x00000000000000000000000000000000000000000000000001256e9e47ca4c62",
          "blockHash": "0xae2fa688b22df9279d150ae440492f9c69684d485e81b160ab67ae946179b63f",
          "blockNumber": "0x9003ec",
          "blockTimestamp": "0x66e52008",
          "transactionHash": "0xdb0744af20c9301f23b95b0fc5be2dcd26e6c233641457c3a58b2dcb04ac8116",
          "transactionIndex": "0x1",
          "logIndex": "0x1e",
          "removed": false
        },
        {
          "address": "0x2f9bb73a8e98793e26cb2f6c4ad037bdf1c6b269",
          "topics": [
            "0xefefaba5e921573100900a3ad9cf29f222d995fb3b6045797eaea7521bd8d6f0",
            "0x0000000000000000000000009d1794bab9664c755ed74a7d44f3da02a5613df4",
            "0x000000000000000000000000e5d7c2a44ffddf6b295a15c148167daaaf5cf34f",
            "0x0000000000000000000000000000000000000000000000000000000000000000"
          ],
          "data": "0x0000000000000000000000009d1794bab9664c755ed74a7d44f3da02a5613df400000000000000000000000000000000000000000000000001254913e708e2cc00000000000000000000000000000000000000000000000000000000000000000000000000000000000000000000000000000000000000000000258a60c16996",
          "blockHash": "0xae2fa688b22df9279d150ae440492f9c69684d485e81b160ab67ae946179b63f",
          "blockNumber": "0x9003ec",
          "blockTimestamp": "0x66e52008",
          "transactionHash": "0xdb0744af20c9301f23b95b0fc5be2dcd26e6c233641457c3a58b2dcb04ac8116",
          "transactionIndex": "0x1",
          "logIndex": "0x1f",
          "removed": false
        }
      ],
      "logsBloom": "0x1000000000400000000800000000000008800100400000000000000001000000000080002004000000001000000200000011080040100014000400000020000004000020004000008008000802000000200080000000000000000000004000000080040202000000008000012000080180400000020002000000001000000000000002000001000800100004000000000000000008000000008000040000004002080000028000000000000002000010000000000010080100000000a00001000050000208000020000000200000000000020100a0000e0000080000000020040010300000008020000080000000000000000000100002000000000000140000",
      "type": "0x2",
      "transactionHash": "0xdb0744af20c9301f23b95b0fc5be2dcd26e6c233641457c3a58b2dcb04ac8116",
      "transactionIndex": "0x1",
      "blockHash": "0xae2fa688b22df9279d150ae440492f9c69684d485e81b160ab67ae946179b63f",
      "blockNumber": "0x9003ec",
      "gasUsed": "0xc0a3d",
      "effectiveGasPrice": "0x3938707",
      "blobGasPrice": "0x1",
      "from": "0xf39fd6e51aad88f6f4ce6ab8827279cfffb92266",
      "to": "0x0b306bf915c4d645ff596e518faf3f9669b97016",
      "contractAddress": null,
      "root": "0x0000000000000000000000000000000000000000000000000000000000000000"
    }
  ],
  "libraries": [],
  "pending": [],
  "returns": {},
  "timestamp": 1726291975,
  "chain": 59144,
  "commit": "4a57ec2"
}