{
  "transactions": [
    {
      "hash": "0x0509faf986e9beea894fafa0a3b9edbeb9ce820ea5332ba3d8f09573ec14bd9b",
      "transactionType": "CALL",
      "contractName": null,
      "contractAddress": "0xe5d7c2a44ffddf6b295a15c148167daaaf5cf34f",
      "function": "deposit()",
      "arguments": [],
      "transaction": {
        "from": "0xf39fd6e51aad88f6f4ce6ab8827279cfffb92266",
        "to": "0xe5d7c2a44ffddf6b295a15c148167daaaf5cf34f",
        "gas": "0xf2ff",
        "value": "0xde0b6b3a7640000",
        "input": "0xd0e30db0",
        "nonce": "0x1f",
        "chainId": "0xe708"
      },
      "additionalContracts": [],
      "isFixedGasLimit": false
    },
    {
      "hash": "0x8547c9021b3f9e41e5b9b77ef804476f379e8bd2c26bb53fed17aa63caa7c1d6",
      "transactionType": "CALL",
      "contractName": null,
      "contractAddress": "0xe5d7c2a44ffddf6b295a15c148167daaaf5cf34f",
      "function": "approve(address,uint256)",
      "arguments": [
        "0x2d8879046f1559E53eb052E949e9544bCB72f414",
        "115792089237316195423570985008687907853269984665640564039457584007913129639935"
      ],
      "transaction": {
        "from": "0xf39fd6e51aad88f6f4ce6ab8827279cfffb92266",
        "to": "0xe5d7c2a44ffddf6b295a15c148167daaaf5cf34f",
        "gas": "0xfa27",
        "value": "0x0",
        "input": "0x095ea7b30000000000000000000000002d8879046f1559e53eb052e949e9544bcb72f414ffffffffffffffffffffffffffffffffffffffffffffffffffffffffffffffff",
        "nonce": "0x20",
        "chainId": "0xe708"
      },
      "additionalContracts": [],
      "isFixedGasLimit": false
    },
    {
      "hash": "0x268bb854f456095db2f304ee1b9eca341c213b36da86557cb7618e0047639692",
      "transactionType": "CALL",
      "contractName": null,
      "contractAddress": "0x2d8879046f1559e53eb052e949e9544bcb72f414",
      "function": null,
      "arguments": null,
      "transaction": {
        "from": "0xf39fd6e51aad88f6f4ce6ab8827279cfffb92266",
        "to": "0x2d8879046f1559e53eb052e949e9544bcb72f414",
        "gas": "0x502c9",
        "value": "0x0",
        "input": "0x83bd37f90001e5d7c2a44ffddf6b295a15c148167daaaf5cf34f0001176211869ca2b568f2a7d4ee941e073a821ee1ff080de0b6b3a7640000049ba43440028f5c000156c85a254dd12ee8d9c04049a4ab62769ce9821000000001f39fd6e51aad88f6f4ce6ab8827279cfffb922660000000003010203000901010102ff00000000000000000000000000000000000000000000e5d7c2a44ffddf6b295a15c148167daaaf5cf34f176211869ca2b568f2a7d4ee941e073a821ee1ff000000000000000000000000000000000000000000000000",
        "nonce": "0x21",
        "chainId": "0xe708"
      },
      "additionalContracts": [],
      "isFixedGasLimit": false
    },
    {
      "hash": "0x2114bf64943163a069b88f537b321b3ee321b2bdc172ed5e578bcafb2abef8b6",
      "transactionType": "CALL",
      "contractName": null,
      "contractAddress": "0xe5d7c2a44ffddf6b295a15c148167daaaf5cf34f",
      "function": "approve(address,uint256)",
      "arguments": [
        "0x0B306BF915C4d645ff596e518fAf3F9669b97016",
        "115792089237316195423570985008687907853269984665640564039457584007913129639935"
      ],
      "transaction": {
        "from": "0xf39fd6e51aad88f6f4ce6ab8827279cfffb92266",
        "to": "0xe5d7c2a44ffddf6b295a15c148167daaaf5cf34f",
        "gas": "0xfa27",
        "value": "0x0",
        "input": "0x095ea7b30000000000000000000000000b306bf915c4d645ff596e518faf3f9669b97016ffffffffffffffffffffffffffffffffffffffffffffffffffffffffffffffff",
        "nonce": "0x22",
        "chainId": "0xe708"
      },
      "additionalContracts": [],
      "isFixedGasLimit": false
    },
    {
      "hash": "0x087ac0275a93dc9413ffae0ad7103f3f93389e5ad96237c64ac4dddd1b6ce136",
      "transactionType": "CALL",
      "contractName": null,
      "contractAddress": "0x176211869ca2b568f2a7d4ee941e073a821ee1ff",
      "function": "approve(address,uint256)",
      "arguments": [
        "0x0B306BF915C4d645ff596e518fAf3F9669b97016",
        "115792089237316195423570985008687907853269984665640564039457584007913129639935"
      ],
      "transaction": {
        "from": "0xf39fd6e51aad88f6f4ce6ab8827279cfffb92266",
        "to": "0x176211869ca2b568f2a7d4ee941e073a821ee1ff",
        "gas": "0x144c0",
        "value": "0x0",
        "input": "0x095ea7b30000000000000000000000000b306bf915c4d645ff596e518faf3f9669b97016ffffffffffffffffffffffffffffffffffffffffffffffffffffffffffffffff",
        "nonce": "0x23",
        "chainId": "0xe708"
      },
      "additionalContracts": [],
      "isFixedGasLimit": false
    },
    {
      "hash": "0xc13f4d19fce6a70c4aceb3f2e96e82cc579d07a277ef557f63bdc240eb0d69c0",
      "transactionType": "CALL",
      "contractName": null,
      "contractAddress": "0x0b306bf915c4d645ff596e518faf3f9669b97016",
      "function": "createAndAddToPosition((string,address,address),(uint256,uint256,bytes))",
      "arguments": [
        "(\"SHORT_QUOTE_ODOS_ZEROLEND\", 0x176211869cA2b568f2A7D4EE941E073a821EE1ff, 0xe5D7C2a44FfDDf6b295A15c148167daaAf5Cf34f)",
        "(100000000, 114757004896032410, 0x83bd37f90001e5d7c2a44ffddf6b295a15c148167daaaf5cf34f0001176211869ca2b568f2a7d4ee941e073a821ee1ff080197b2e35050d69a0411de0e10028f5c000156c85a254dd12ee8d9c04049a4ab62769ce98210000000016031b77781aaba906cb8a693459dd7087029e2010000000003010203000a0101010200ff000000000000000000000000000000000000000000586733678b9ac9da43dd7cb83bbb41d23677dfc3e5d7c2a44ffddf6b295a15c148167daaaf5cf34f000000000000000000000000000000000000000000000000)"
      ],
      "transaction": {
        "from": "0xf39fd6e51aad88f6f4ce6ab8827279cfffb92266",
        "to": "0x0b306bf915c4d645ff596e518faf3f9669b97016",
        "gas": "0x184768",
        "value": "0x0",
        "input": "0x211d9b04000000000000000000000000000000000000000000000000000000000000004000000000000000000000000000000000000000000000000000000000000000e00000000000000000000000000000000000000000000000000000000000000060000000000000000000000000176211869ca2b568f2a7d4ee941e073a821ee1ff000000000000000000000000e5d7c2a44ffddf6b295a15c148167daaaf5cf34f000000000000000000000000000000000000000000000000000000000000001953484f52545f51554f54455f4f444f535f5a45524f4c454e44000000000000000000000000000000000000000000000000000000000000000000000005f5e1000000000000000000000000000000000000000000000000000197b2e35050d69a000000000000000000000000000000000000000000000000000000000000006000000000000000000000000000000000000000000000000000000000000000d483bd37f90001e5d7c2a44ffddf6b295a15c148167daaaf5cf34f0001176211869ca2b568f2a7d4ee941e073a821ee1ff080197b2e35050d69a0411de0e10028f5c000156c85a254dd12ee8d9c04049a4ab62769ce98210000000016031b77781aaba906cb8a693459dd7087029e2010000000003010203000a0101010200ff000000000000000000000000000000000000000000586733678b9ac9da43dd7cb83bbb41d23677dfc3e5d7c2a44ffddf6b295a15c148167daaaf5cf34f000000000000000000000000000000000000000000000000000000000000000000000000",
        "nonce": "0x24",
        "chainId": "0xe708"
      },
      "additionalContracts": [
        {
          "transactionType": "CREATE2",
          "address": "0x6031b77781aaba906cb8a693459dd7087029e201",
          "initCode": "0x60a060405234801561001057600080fd5b506040516101d43803806101d483398101604081905261002f9161009a565b6001600160a01b0381166100895760405162461bcd60e51b815260206004820152601e60248201527f496e76616c696420696d706c656d656e746174696f6e20616464726573730000604482015260640160405180910390fd5b6001600160a01b03166080526100ca565b6000602082840312156100ac57600080fd5b81516001600160a01b03811681146100c357600080fd5b9392505050565b60805160ec6100e860003960008181602001526055015260ec6000f3fe608060405260043610601c5760003560e01c80635c60da1b146045575b60437f00000000000000000000000000000000000000000000000000000000000000006093565b005b348015605057600080fd5b5060777f000000000000000000000000000000000000000000000000000000000000000081565b6040516001600160a01b03909116815260200160405180910390f35b3660008037600080366000845af43d6000803e80801560b1573d6000f35b3d6000fdfea2646970667358221220ece5f241c936be627b009529639055436949a725352d983e1257a877a1e6225564736f6c63430008190033000000000000000000000000c6e7df5e7b4f2a278906862b61205850344d4e7d"
        }
      ],
      "isFixedGasLimit": false
    }
  ],
  "receipts": [
    {
      "status": "0x1",
      "cumulativeGasUsed": "0xafee",
      "logs": [
        {
          "address": "0xe5d7c2a44ffddf6b295a15c148167daaaf5cf34f",
          "topics": [
            "0xe1fffcc4923d04b559f4d29a8bfc6cda04eb5b0d3c460751c2402c5c5cc9109c",
            "0x000000000000000000000000f39fd6e51aad88f6f4ce6ab8827279cfffb92266"
          ],
          "data": "0x0000000000000000000000000000000000000000000000000de0b6b3a7640000",
          "blockHash": "0x348e8466a9e59312619a4776355bb6557ccd5f3a302c19743c76f9e04562cecf",
          "blockNumber": "0x97838e",
          "blockTimestamp": "0x66f4309c",
          "transactionHash": "0x0509faf986e9beea894fafa0a3b9edbeb9ce820ea5332ba3d8f09573ec14bd9b",
          "transactionIndex": "0x0",
          "logIndex": "0x0",
          "removed": false
        }
      ],
      "logsBloom": "0x0000000000000000000000000000000000000000000000000000000000000000000000000000000000000000000000000000000000000000000000000000000000000000000000000000000000000000000000000000000000000000800000000000000000000000000000010000000000000000000000000000000000000000000000000000000000100000000000000000000100000000000000000000000000000000000000000000000000000000000000000000000000000000200000000000000000000020000000000000000000000000a000000000000000000000000000000000000000000000000000000000000000000000400000000000000000",
      "type": "0x2",
      "transactionHash": "0x0509faf986e9beea894fafa0a3b9edbeb9ce820ea5332ba3d8f09573ec14bd9b",
      "transactionIndex": "0x0",
      "blockHash": "0x348e8466a9e59312619a4776355bb6557ccd5f3a302c19743c76f9e04562cecf",
      "blockNumber": "0x97838e",
      "gasUsed": "0xafee",
      "effectiveGasPrice": "0x8efff75",
      "blobGasPrice": "0x1",
      "from": "0xf39fd6e51aad88f6f4ce6ab8827279cfffb92266",
      "to": "0xe5d7c2a44ffddf6b295a15c148167daaaf5cf34f",
      "contractAddress": null,
      "root": "0x0000000000000000000000000000000000000000000000000000000000000000"
    },
    {
      "status": "0x1",
      "cumulativeGasUsed": "0xb51c",
      "logs": [
        {
          "address": "0xe5d7c2a44ffddf6b295a15c148167daaaf5cf34f",
          "topics": [
            "0x8c5be1e5ebec7d5bd14f71427d1e84f3dd0314c0f7b2291e5b200ac8c7c3b925",
            "0x000000000000000000000000f39fd6e51aad88f6f4ce6ab8827279cfffb92266",
            "0x0000000000000000000000002d8879046f1559e53eb052e949e9544bcb72f414"
          ],
          "data": "0xffffffffffffffffffffffffffffffffffffffffffffffffffffffffffffffff",
          "blockHash": "0x863cdc44de9e963ceb818f54e205e9a31103315354e39e8a1bdf6fae9f5977ef",
          "blockNumber": "0x97838f",
          "blockTimestamp": "0x66f4309d",
          "transactionHash": "0x8547c9021b3f9e41e5b9b77ef804476f379e8bd2c26bb53fed17aa63caa7c1d6",
          "transactionIndex": "0x0",
          "logIndex": "0x0",
          "removed": false
        }
      ],
      "logsBloom": "0x0000000000000000000000000000000000000000000000000000000000000000000000000000000000001000000000000000000000000000000000000020000000000000000000000000000000000000000000000000000000000000000000000000000000000000008000010000000000000000000000000000000000000000000000000000000000100000000000000000000000000000000000000000000002000000020000000000000000000000000000000000000000000000200000000000000000000020000000000000000000000000a000000000000000000000000010000000000000000000000000000000000000000000000000000000000000",
      "type": "0x2",
      "transactionHash": "0x8547c9021b3f9e41e5b9b77ef804476f379e8bd2c26bb53fed17aa63caa7c1d6",
      "transactionIndex": "0x0",
      "blockHash": "0x863cdc44de9e963ceb818f54e205e9a31103315354e39e8a1bdf6fae9f5977ef",
      "blockNumber": "0x97838f",
      "gasUsed": "0xb51c",
      "effectiveGasPrice": "0x8efff75",
      "blobGasPrice": "0x1",
      "from": "0xf39fd6e51aad88f6f4ce6ab8827279cfffb92266",
      "to": "0xe5d7c2a44ffddf6b295a15c148167daaaf5cf34f",
      "contractAddress": null,
      "root": "0x0000000000000000000000000000000000000000000000000000000000000000"
    },
    {
      "status": "0x1",
      "cumulativeGasUsed": "0x3a0b7",
      "logs": [
        {
          "address": "0xe5d7c2a44ffddf6b295a15c148167daaaf5cf34f",
          "topics": [
            "0xddf252ad1be2c89b69c2b068fc378daa952ba7f163c4a11628f55a4df523b3ef",
            "0x000000000000000000000000f39fd6e51aad88f6f4ce6ab8827279cfffb92266",
            "0x00000000000000000000000056c85a254dd12ee8d9c04049a4ab62769ce98210"
          ],
          "data": "0x0000000000000000000000000000000000000000000000000de0b6b3a7640000",
          "blockHash": "0xed132daf2837eb698ee7847dd98a2e6486344c1c10563d2cae6e2af62e3ae6be",
          "blockNumber": "0x978390",
          "blockTimestamp": "0x66f4309e",
          "transactionHash": "0x268bb854f456095db2f304ee1b9eca341c213b36da86557cb7618e0047639692",
          "transactionIndex": "0x0",
          "logIndex": "0x0",
          "removed": false
        },
        {
          "address": "0xe5d7c2a44ffddf6b295a15c148167daaaf5cf34f",
          "topics": [
            "0xddf252ad1be2c89b69c2b068fc378daa952ba7f163c4a11628f55a4df523b3ef",
            "0x00000000000000000000000056c85a254dd12ee8d9c04049a4ab62769ce98210",
            "0x000000000000000000000000ed9e3f98bbed560e66b89aac922e29d4596a9642"
          ],
          "data": "0x0000000000000000000000000000000000000000000000000de0b6b3a7640000",
          "blockHash": "0xed132daf2837eb698ee7847dd98a2e6486344c1c10563d2cae6e2af62e3ae6be",
          "blockNumber": "0x978390",
          "blockTimestamp": "0x66f4309e",
          "transactionHash": "0x268bb854f456095db2f304ee1b9eca341c213b36da86557cb7618e0047639692",
          "transactionIndex": "0x0",
          "logIndex": "0x1",
          "removed": false
        },
        {
          "address": "0x176211869ca2b568f2a7d4ee941e073a821ee1ff",
          "topics": [
            "0xddf252ad1be2c89b69c2b068fc378daa952ba7f163c4a11628f55a4df523b3ef",
            "0x000000000000000000000000ed9e3f98bbed560e66b89aac922e29d4596a9642",
            "0x0000000000000000000000002d8879046f1559e53eb052e949e9544bcb72f414"
          ],
          "data": "0x000000000000000000000000000000000000000000000000000000009b94011d",
          "blockHash": "0xed132daf2837eb698ee7847dd98a2e6486344c1c10563d2cae6e2af62e3ae6be",
          "blockNumber": "0x978390",
          "blockTimestamp": "0x66f4309e",
          "transactionHash": "0x268bb854f456095db2f304ee1b9eca341c213b36da86557cb7618e0047639692",
          "transactionIndex": "0x0",
          "logIndex": "0x2",
          "removed": false
        },
        {
          "address": "0xed9e3f98bbed560e66b89aac922e29d4596a9642",
          "topics": [
            "0x0e8e403c2d36126272b08c75823e988381d9dc47f2f0a9a080d95f891d95c469",
            "0x000000000000000000000000e5d7c2a44ffddf6b295a15c148167daaaf5cf34f",
            "0x000000000000000000000000176211869ca2b568f2a7d4ee941e073a821ee1ff",
            "0x0000000000000000000000002d8879046f1559e53eb052e949e9544bcb72f414"
          ],
          "data": "0x0000000000000000000000000000000000000000000000000de0b6b3a7640000000000000000000000000000000000000000000000000000000000009b94011d00000000000000000000000056c85a254dd12ee8d9c04049a4ab62769ce98210000000000000000000000000f8c8967096a9f95e32592db29570dccc7893ed33000000000000000000000000000000000000000000000000000000009b9df6be000000000000000000000000000000000000000000000000000000000009f5a1",
          "blockHash": "0xed132daf2837eb698ee7847dd98a2e6486344c1c10563d2cae6e2af62e3ae6be",
          "blockNumber": "0x978390",
          "blockTimestamp": "0x66f4309e",
          "transactionHash": "0x268bb854f456095db2f304ee1b9eca341c213b36da86557cb7618e0047639692",
          "transactionIndex": "0x0",
          "logIndex": "0x3",
          "removed": false
        },
        {
          "address": "0x176211869ca2b568f2a7d4ee941e073a821ee1ff",
          "topics": [
            "0xddf252ad1be2c89b69c2b068fc378daa952ba7f163c4a11628f55a4df523b3ef",
            "0x0000000000000000000000002d8879046f1559e53eb052e949e9544bcb72f414",
            "0x000000000000000000000000f39fd6e51aad88f6f4ce6ab8827279cfffb92266"
          ],
          "data": "0x000000000000000000000000000000000000000000000000000000009b94011d",
          "blockHash": "0xed132daf2837eb698ee7847dd98a2e6486344c1c10563d2cae6e2af62e3ae6be",
          "blockNumber": "0x978390",
          "blockTimestamp": "0x66f4309e",
          "transactionHash": "0x268bb854f456095db2f304ee1b9eca341c213b36da86557cb7618e0047639692",
          "transactionIndex": "0x0",
          "logIndex": "0x4",
          "removed": false
        },
        {
          "address": "0x2d8879046f1559e53eb052e949e9544bcb72f414",
          "topics": [
            "0x823eaf01002d7353fbcadb2ea3305cc46fa35d799cb0914846d185ac06f8ad05"
          ],
          "data": "0x000000000000000000000000f39fd6e51aad88f6f4ce6ab8827279cfffb922660000000000000000000000000000000000000000000000000de0b6b3a7640000000000000000000000000000e5d7c2a44ffddf6b295a15c148167daaaf5cf34f000000000000000000000000000000000000000000000000000000009b94011d000000000000000000000000176211869ca2b568f2a7d4ee941e073a821ee1ffffffffffffffffffffffffffffffffffffffffffffffffffffffffffffefccdd0000000000000000000000000000000000000000000000000000000000000000",
          "blockHash": "0xed132daf2837eb698ee7847dd98a2e6486344c1c10563d2cae6e2af62e3ae6be",
          "blockNumber": "0x978390",
          "blockTimestamp": "0x66f4309e",
          "transactionHash": "0x268bb854f456095db2f304ee1b9eca341c213b36da86557cb7618e0047639692",
          "transactionIndex": "0x0",
          "logIndex": "0x5",
          "removed": false
        }
      ],
      "logsBloom": "0x0000000000000000000000000000000000000000000000000000000000000000000000000000000000001000200000000000080000000006000400000000000000000000000000000008000802000000000000000000000000000000000000000000000300000000008000012000080180000000000000000000001000000401000002000000000000100000000000000200000000000000000000040000000000000000020000000000000000000000000000000000000100000000a40000000050000200000020000000000000000000020000a000000000000004000000000000000000000000000000000000000000000000000002000000000000000000",
      "type": "0x2",
      "transactionHash": "0x268bb854f456095db2f304ee1b9eca341c213b36da86557cb7618e0047639692",
      "transactionIndex": "0x0",
      "blockHash": "0xed132daf2837eb698ee7847dd98a2e6486344c1c10563d2cae6e2af62e3ae6be",
      "blockNumber": "0x978390",
      "gasUsed": "0x3a0b7",
      "effectiveGasPrice": "0x8efff75",
      "blobGasPrice": "0x1",
      "from": "0xf39fd6e51aad88f6f4ce6ab8827279cfffb92266",
      "to": "0x2d8879046f1559e53eb052e949e9544bcb72f414",
      "contractAddress": null,
      "root": "0x0000000000000000000000000000000000000000000000000000000000000000"
    },
    {
      "status": "0x1",
      "cumulativeGasUsed": "0xb51c",
      "logs": [
        {
          "address": "0xe5d7c2a44ffddf6b295a15c148167daaaf5cf34f",
          "topics": [
            "0x8c5be1e5ebec7d5bd14f71427d1e84f3dd0314c0f7b2291e5b200ac8c7c3b925",
            "0x000000000000000000000000f39fd6e51aad88f6f4ce6ab8827279cfffb92266",
            "0x0000000000000000000000000b306bf915c4d645ff596e518faf3f9669b97016"
          ],
          "data": "0xffffffffffffffffffffffffffffffffffffffffffffffffffffffffffffffff",
          "blockHash": "0x4151441988a8026c13327f3cc0b871a3133803eb01194104253c66647c3d3b55",
          "blockNumber": "0x978391",
          "blockTimestamp": "0x66f4309f",
          "transactionHash": "0x2114bf64943163a069b88f537b321b3ee321b2bdc172ed5e578bcafb2abef8b6",
          "transactionIndex": "0x0",
          "logIndex": "0x0",
          "removed": false
        }
      ],
      "logsBloom": "0x0000000000000000000000000000000800000000000000000000000000000000000000000000000000000000000000000000000000000000000000000020000000000000000000000000000000000000000000000000000000000000000000000000000000000000000000030000000000000000000000000000000000000000000000000000000000100000000000000000000000000000000000000000000002000000000000000000000000000000000000000000000000000000200000000000000000000020000000000000000000000000a000000000000000000000000010000000000000000000000400000000000000000000000000000000000000",
      "type": "0x2",
      "transactionHash": "0x2114bf64943163a069b88f537b321b3ee321b2bdc172ed5e578bcafb2abef8b6",
      "transactionIndex": "0x0",
      "blockHash": "0x4151441988a8026c13327f3cc0b871a3133803eb01194104253c66647c3d3b55",
      "blockNumber": "0x978391",
      "gasUsed": "0xb51c",
      "effectiveGasPrice": "0x8efff75",
      "blobGasPrice": "0x1",
      "from": "0xf39fd6e51aad88f6f4ce6ab8827279cfffb92266",
      "to": "0xe5d7c2a44ffddf6b295a15c148167daaaf5cf34f",
      "contractAddress": null,
      "root": "0x0000000000000000000000000000000000000000000000000000000000000000"
    },
    {
      "status": "0x1",
      "cumulativeGasUsed": "0x1a03a",
      "logs": [
        {
          "address": "0x176211869ca2b568f2a7d4ee941e073a821ee1ff",
          "topics": [
            "0x8c5be1e5ebec7d5bd14f71427d1e84f3dd0314c0f7b2291e5b200ac8c7c3b925",
            "0x000000000000000000000000f39fd6e51aad88f6f4ce6ab8827279cfffb92266",
            "0x0000000000000000000000000b306bf915c4d645ff596e518faf3f9669b97016"
          ],
          "data": "0xffffffffffffffffffffffffffffffffffffffffffffffffffffffffffffffff",
          "blockHash": "0x4151441988a8026c13327f3cc0b871a3133803eb01194104253c66647c3d3b55",
          "blockNumber": "0x978391",
          "blockTimestamp": "0x66f4309f",
          "transactionHash": "0x087ac0275a93dc9413ffae0ad7103f3f93389e5ad96237c64ac4dddd1b6ce136",
          "transactionIndex": "0x1",
          "logIndex": "0x1",
          "removed": false
        }
      ],
      "logsBloom": "0x00000000000000000000000000000008000000000000000000000000000000000000000000000000000000000000000000000800000000000004000000200000000000000000000000000000020000000000000000000000000000000000000000000000000000000000000300000000000000000000000000000000000000000000000000000000000000000000000000000000000000000000000000000000020000000000000000000000000000000000000000000000000000000000000000000000000000200000000000000000000000002000000000000000000000000010000000000000000000000400000000000000000000000000000000000000",
      "type": "0x2",
      "transactionHash": "0x087ac0275a93dc9413ffae0ad7103f3f93389e5ad96237c64ac4dddd1b6ce136",
      "transactionIndex": "0x1",
      "blockHash": "0x4151441988a8026c13327f3cc0b871a3133803eb01194104253c66647c3d3b55",
      "blockNumber": "0x978391",
      "gasUsed": "0xeb1e",
      "effectiveGasPrice": "0x8efff75",
      "blobGasPrice": "0x1",
      "from": "0xf39fd6e51aad88f6f4ce6ab8827279cfffb92266",
      "to": "0x176211869ca2b568f2a7d4ee941e073a821ee1ff",
      "contractAddress": null,
      "root": "0x0000000000000000000000000000000000000000000000000000000000000000"
    },
    {
      "status": "0x1",
      "cumulativeGasUsed": "0x133432",
      "logs": [
        {
          "address": "0x9a9f2ccfde556a7e9ff0848998aa4a0cfd8863ae",
          "topics": [
            "0xddf252ad1be2c89b69c2b068fc378daa952ba7f163c4a11628f55a4df523b3ef",
            "0x0000000000000000000000000000000000000000000000000000000000000000",
            "0x000000000000000000000000f39fd6e51aad88f6f4ce6ab8827279cfffb92266",
            "0x0000000000000000000000000000000000000000000000000000000000000000"
          ],
          "data": "0x",
          "blockHash": "0x4151441988a8026c13327f3cc0b871a3133803eb01194104253c66647c3d3b55",
          "blockNumber": "0x978391",
          "blockTimestamp": "0x66f4309f",
          "transactionHash": "0xc13f4d19fce6a70c4aceb3f2e96e82cc579d07a277ef557f63bdc240eb0d69c0",
          "transactionIndex": "0x2",
          "logIndex": "0x2",
          "removed": false
        },
        {
          "address": "0x176211869ca2b568f2a7d4ee941e073a821ee1ff",
          "topics": [
            "0xddf252ad1be2c89b69c2b068fc378daa952ba7f163c4a11628f55a4df523b3ef",
            "0x000000000000000000000000f39fd6e51aad88f6f4ce6ab8827279cfffb92266",
            "0x0000000000000000000000006031b77781aaba906cb8a693459dd7087029e201"
          ],
          "data": "0x0000000000000000000000000000000000000000000000000000000005f5e100",
          "blockHash": "0x4151441988a8026c13327f3cc0b871a3133803eb01194104253c66647c3d3b55",
          "blockNumber": "0x978391",
          "blockTimestamp": "0x66f4309f",
          "transactionHash": "0xc13f4d19fce6a70c4aceb3f2e96e82cc579d07a277ef557f63bdc240eb0d69c0",
          "transactionIndex": "0x2",
          "logIndex": "0x3",
          "removed": false
        },
        {
          "address": "0xe5d7c2a44ffddf6b295a15c148167daaaf5cf34f",
          "topics": [
            "0xddf252ad1be2c89b69c2b068fc378daa952ba7f163c4a11628f55a4df523b3ef",
            "0x000000000000000000000000b4ffef15daf4c02787bc5332580b838ce39805f5",
            "0x0000000000000000000000006031b77781aaba906cb8a693459dd7087029e201"
          ],
          "data": "0x0000000000000000000000000000000000000000000000000197b2e35050d69a",
          "blockHash": "0x4151441988a8026c13327f3cc0b871a3133803eb01194104253c66647c3d3b55",
          "blockNumber": "0x978391",
          "blockTimestamp": "0x66f4309f",
          "transactionHash": "0xc13f4d19fce6a70c4aceb3f2e96e82cc579d07a277ef557f63bdc240eb0d69c0",
          "transactionIndex": "0x2",
          "logIndex": "0x4",
          "removed": false
        },
        {
          "address": "0xe5d7c2a44ffddf6b295a15c148167daaaf5cf34f",
          "topics": [
            "0x8c5be1e5ebec7d5bd14f71427d1e84f3dd0314c0f7b2291e5b200ac8c7c3b925",
            "0x0000000000000000000000006031b77781aaba906cb8a693459dd7087029e201",
            "0x0000000000000000000000002d8879046f1559e53eb052e949e9544bcb72f414"
          ],
          "data": "0x0000000000000000000000000000000000000000000000000197b2e35050d69a",
          "blockHash": "0x4151441988a8026c13327f3cc0b871a3133803eb01194104253c66647c3d3b55",
          "blockNumber": "0x978391",
          "blockTimestamp": "0x66f4309f",
          "transactionHash": "0xc13f4d19fce6a70c4aceb3f2e96e82cc579d07a277ef557f63bdc240eb0d69c0",
          "transactionIndex": "0x2",
          "logIndex": "0x5",
          "removed": false
        },
        {
          "address": "0xe5d7c2a44ffddf6b295a15c148167daaaf5cf34f",
          "topics": [
            "0xddf252ad1be2c89b69c2b068fc378daa952ba7f163c4a11628f55a4df523b3ef",
            "0x0000000000000000000000006031b77781aaba906cb8a693459dd7087029e201",
            "0x00000000000000000000000056c85a254dd12ee8d9c04049a4ab62769ce98210"
          ],
          "data": "0x0000000000000000000000000000000000000000000000000197b2e35050d69a",
          "blockHash": "0x4151441988a8026c13327f3cc0b871a3133803eb01194104253c66647c3d3b55",
          "blockNumber": "0x978391",
          "blockTimestamp": "0x66f4309f",
          "transactionHash": "0xc13f4d19fce6a70c4aceb3f2e96e82cc579d07a277ef557f63bdc240eb0d69c0",
          "transactionIndex": "0x2",
          "logIndex": "0x6",
          "removed": false
        },
        {
          "address": "0x176211869ca2b568f2a7d4ee941e073a821ee1ff",
          "topics": [
            "0xddf252ad1be2c89b69c2b068fc378daa952ba7f163c4a11628f55a4df523b3ef",
            "0x000000000000000000000000586733678b9ac9da43dd7cb83bbb41d23677dfc3",
            "0x0000000000000000000000002d8879046f1559e53eb052e949e9544bcb72f414"
          ],
          "data": "0x0000000000000000000000000000000000000000000000000000000011daaaf3",
          "blockHash": "0x4151441988a8026c13327f3cc0b871a3133803eb01194104253c66647c3d3b55",
          "blockNumber": "0x978391",
          "blockTimestamp": "0x66f4309f",
          "transactionHash": "0xc13f4d19fce6a70c4aceb3f2e96e82cc579d07a277ef557f63bdc240eb0d69c0",
          "transactionIndex": "0x2",
          "logIndex": "0x7",
          "removed": false
        },
        {
          "address": "0xe5d7c2a44ffddf6b295a15c148167daaaf5cf34f",
          "topics": [
            "0xddf252ad1be2c89b69c2b068fc378daa952ba7f163c4a11628f55a4df523b3ef",
            "0x00000000000000000000000056c85a254dd12ee8d9c04049a4ab62769ce98210",
            "0x000000000000000000000000586733678b9ac9da43dd7cb83bbb41d23677dfc3"
          ],
          "data": "0x0000000000000000000000000000000000000000000000000197b2e35050d69a",
          "blockHash": "0x4151441988a8026c13327f3cc0b871a3133803eb01194104253c66647c3d3b55",
          "blockNumber": "0x978391",
          "blockTimestamp": "0x66f4309f",
          "transactionHash": "0xc13f4d19fce6a70c4aceb3f2e96e82cc579d07a277ef557f63bdc240eb0d69c0",
          "transactionIndex": "0x2",
          "logIndex": "0x8",
          "removed": false
        },
        {
          "address": "0x586733678b9ac9da43dd7cb83bbb41d23677dfc3",
          "topics": [
            "0x19b47279256b2a23a1665c810c8d55a1758940ee09377d4f8d26497a3577dc83",
            "0x00000000000000000000000056c85a254dd12ee8d9c04049a4ab62769ce98210",
            "0x0000000000000000000000002d8879046f1559e53eb052e949e9544bcb72f414"
          ],
          "data": "0xffffffffffffffffffffffffffffffffffffffffffffffffffffffffee25550d0000000000000000000000000000000000000000000000000197b2e35050d69a0000000000000000000000000000000000004c761aaa7322343050dd873a86cd0000000000000000000000000000000000000000000000000067422ebb71b1760000000000000000000000000000000000000000000000000000000000030411000000000000000000000000000000000000000000000000000000000000000000000000000000000000000000000000000000000000000000000371b9aaba61",
          "blockHash": "0x4151441988a8026c13327f3cc0b871a3133803eb01194104253c66647c3d3b55",
          "blockNumber": "0x978391",
          "blockTimestamp": "0x66f4309f",
          "transactionHash": "0xc13f4d19fce6a70c4aceb3f2e96e82cc579d07a277ef557f63bdc240eb0d69c0",
          "transactionIndex": "0x2",
          "logIndex": "0x9",
          "removed": false
        },
        {
          "address": "0x176211869ca2b568f2a7d4ee941e073a821ee1ff",
          "topics": [
            "0xddf252ad1be2c89b69c2b068fc378daa952ba7f163c4a11628f55a4df523b3ef",
            "0x0000000000000000000000002d8879046f1559e53eb052e949e9544bcb72f414",
            "0x0000000000000000000000006031b77781aaba906cb8a693459dd7087029e201"
          ],
          "data": "0x0000000000000000000000000000000000000000000000000000000011daaaf3",
          "blockHash": "0x4151441988a8026c13327f3cc0b871a3133803eb01194104253c66647c3d3b55",
          "blockNumber": "0x978391",
          "blockTimestamp": "0x66f4309f",
          "transactionHash": "0xc13f4d19fce6a70c4aceb3f2e96e82cc579d07a277ef557f63bdc240eb0d69c0",
          "transactionIndex": "0x2",
          "logIndex": "0xa",
          "removed": false
        },
        {
          "address": "0x2d8879046f1559e53eb052e949e9544bcb72f414",
          "topics": [
            "0x823eaf01002d7353fbcadb2ea3305cc46fa35d799cb0914846d185ac06f8ad05"
          ],
          "data": "0x0000000000000000000000006031b77781aaba906cb8a693459dd7087029e2010000000000000000000000000000000000000000000000000197b2e35050d69a000000000000000000000000e5d7c2a44ffddf6b295a15c148167daaaf5cf34f0000000000000000000000000000000000000000000000000000000011daaaf3000000000000000000000000176211869ca2b568f2a7d4ee941e073a821ee1fffffffffffffffffffffffffffffffffffffffffffffffffffffffffffffc9ce30000000000000000000000000000000000000000000000000000000000000000",
          "blockHash": "0x4151441988a8026c13327f3cc0b871a3133803eb01194104253c66647c3d3b55",
          "blockNumber": "0x978391",
          "blockTimestamp": "0x66f4309f",
          "transactionHash": "0xc13f4d19fce6a70c4aceb3f2e96e82cc579d07a277ef557f63bdc240eb0d69c0",
          "transactionIndex": "0x2",
          "logIndex": "0xb",
          "removed": false
        },
        {
          "address": "0x176211869ca2b568f2a7d4ee941e073a821ee1ff",
          "topics": [
            "0x8c5be1e5ebec7d5bd14f71427d1e84f3dd0314c0f7b2291e5b200ac8c7c3b925",
            "0x0000000000000000000000006031b77781aaba906cb8a693459dd7087029e201",
            "0x0000000000000000000000002f9bb73a8e98793e26cb2f6c4ad037bdf1c6b269"
          ],
          "data": "0x0000000000000000000000000000000000000000000000000000000017d08bf3",
          "blockHash": "0x4151441988a8026c13327f3cc0b871a3133803eb01194104253c66647c3d3b55",
          "blockNumber": "0x978391",
          "blockTimestamp": "0x66f4309f",
          "transactionHash": "0xc13f4d19fce6a70c4aceb3f2e96e82cc579d07a277ef557f63bdc240eb0d69c0",
          "transactionIndex": "0x2",
          "logIndex": "0xc",
          "removed": false
        },
        {
          "address": "0x2f9bb73a8e98793e26cb2f6c4ad037bdf1c6b269",
          "topics": [
            "0x804c9b842b2748a22bb64b345453a3de7ca54a6ca45ce00d415894979e22897a",
            "0x000000000000000000000000176211869ca2b568f2a7d4ee941e073a821ee1ff"
          ],
          "data": "0x00000000000000000000000000000000000000000025fe403baa3d3039deb0100000000000000000000000000000000000000000004ce65d84993f1db91df976000000000000000000000000000000000000000000407dfde37b3d314a1df9760000000000000000000000000000000000000000035effbf8af16109bde371e00000000000000000000000000000000000000000036dbb9060e87a5247fc3131",
          "blockHash": "0x4151441988a8026c13327f3cc0b871a3133803eb01194104253c66647c3d3b55",
          "blockNumber": "0x978391",
          "blockTimestamp": "0x66f4309f",
          "transactionHash": "0xc13f4d19fce6a70c4aceb3f2e96e82cc579d07a277ef557f63bdc240eb0d69c0",
          "transactionIndex": "0x2",
          "logIndex": "0xd",
          "removed": false
        },
        {
          "address": "0x176211869ca2b568f2a7d4ee941e073a821ee1ff",
          "topics": [
            "0xddf252ad1be2c89b69c2b068fc378daa952ba7f163c4a11628f55a4df523b3ef",
            "0x0000000000000000000000006031b77781aaba906cb8a693459dd7087029e201",
            "0x0000000000000000000000002e207eca8b6bf77a6ac82763eeed2a94de4f081d"
          ],
          "data": "0x0000000000000000000000000000000000000000000000000000000017d08bf3",
          "blockHash": "0x4151441988a8026c13327f3cc0b871a3133803eb01194104253c66647c3d3b55",
          "blockNumber": "0x978391",
          "blockTimestamp": "0x66f4309f",
          "transactionHash": "0xc13f4d19fce6a70c4aceb3f2e96e82cc579d07a277ef557f63bdc240eb0d69c0",
          "transactionIndex": "0x2",
          "logIndex": "0xe",
          "removed": false
        },
        {
          "address": "0x28f6899ff643261ca9766ddc251b359a2d00b945",
          "topics": [
            "0x3303facd24627943a92e9dc87cfbb34b15c49b726eec3ad3487c16be9ab8efe8",
            "0x0000000000000000000000002e207eca8b6bf77a6ac82763eeed2a94de4f081d",
            "0x00000000000000000000000040a59a3f3b16d9e74c811d24d8b7969664cfe180",
            "0x0000000000000000000000006031b77781aaba906cb8a693459dd7087029e201"
          ],
          "data": "0x0000000000000000000000000000000000000000000000040755b053b796c7ed0000000000000000000000000000000000000000000000040755b053b796c7ed0000000000000000000000000000000000000000000000000000000000000000",
          "blockHash": "0x4151441988a8026c13327f3cc0b871a3133803eb01194104253c66647c3d3b55",
          "blockNumber": "0x978391",
          "blockTimestamp": "0x66f4309f",
          "transactionHash": "0xc13f4d19fce6a70c4aceb3f2e96e82cc579d07a277ef557f63bdc240eb0d69c0",
          "transactionIndex": "0x2",
          "logIndex": "0xf",
          "removed": false
        },
        {
          "address": "0x28f6899ff643261ca9766ddc251b359a2d00b945",
          "topics": [
            "0x3303facd24627943a92e9dc87cfbb34b15c49b726eec3ad3487c16be9ab8efe8",
            "0x0000000000000000000000002e207eca8b6bf77a6ac82763eeed2a94de4f081d",
            "0x00000000000000000000000078354f8dccb269a615a7e0a24f9b0718fdc3c7a7",
            "0x0000000000000000000000006031b77781aaba906cb8a693459dd7087029e201"
          ],
          "data": "0x0000000000000000000000000000000000000000000000006b830a3b57c525730000000000000000000000000000000000000000000000006b830a3b57c525730000000000000000000000000000000000000000000000000000000000000000",
          "blockHash": "0x4151441988a8026c13327f3cc0b871a3133803eb01194104253c66647c3d3b55",
          "blockNumber": "0x978391",
          "blockTimestamp": "0x66f4309f",
          "transactionHash": "0xc13f4d19fce6a70c4aceb3f2e96e82cc579d07a277ef557f63bdc240eb0d69c0",
          "transactionIndex": "0x2",
          "logIndex": "0x10",
          "removed": false
        },
        {
          "address": "0x2e207eca8b6bf77a6ac82763eeed2a94de4f081d",
          "topics": [
            "0xddf252ad1be2c89b69c2b068fc378daa952ba7f163c4a11628f55a4df523b3ef",
            "0x0000000000000000000000000000000000000000000000000000000000000000",
            "0x0000000000000000000000006031b77781aaba906cb8a693459dd7087029e201"
          ],
          "data": "0x0000000000000000000000000000000000000000000000000000000017d08bf3",
          "blockHash": "0x4151441988a8026c13327f3cc0b871a3133803eb01194104253c66647c3d3b55",
          "blockNumber": "0x978391",
          "blockTimestamp": "0x66f4309f",
          "transactionHash": "0xc13f4d19fce6a70c4aceb3f2e96e82cc579d07a277ef557f63bdc240eb0d69c0",
          "transactionIndex": "0x2",
          "logIndex": "0x11",
          "removed": false
        },
        {
          "address": "0x2e207eca8b6bf77a6ac82763eeed2a94de4f081d",
          "topics": [
            "0x458f5fa412d0f69b08dd84872b0215675cc67bc1d5b6fd93300a1c3878b86196",
            "0x0000000000000000000000006031b77781aaba906cb8a693459dd7087029e201",
            "0x0000000000000000000000006031b77781aaba906cb8a693459dd7087029e201"
          ],
          "data": "0x0000000000000000000000000000000000000000000000000000000017d08bf300000000000000000000000000000000000000000000000000000000000000000000000000000000000000000000000000000000035effbf8af16109bde371e0",
          "blockHash": "0x4151441988a8026c13327f3cc0b871a3133803eb01194104253c66647c3d3b55",
          "blockNumber": "0x978391",
          "blockTimestamp": "0x66f4309f",
          "transactionHash": "0xc13f4d19fce6a70c4aceb3f2e96e82cc579d07a277ef557f63bdc240eb0d69c0",
          "transactionIndex": "0x2",
          "logIndex": "0x12",
          "removed": false
        },
        {
          "address": "0x2f9bb73a8e98793e26cb2f6c4ad037bdf1c6b269",
          "topics": [
            "0x00058a56ea94653cdf4f152d227ace22d4c00ad99e2a43f58cb7d9e3feb295f2",
            "0x000000000000000000000000176211869ca2b568f2a7d4ee941e073a821ee1ff",
            "0x0000000000000000000000006031b77781aaba906cb8a693459dd7087029e201"
          ],
          "data": "0x",
          "blockHash": "0x4151441988a8026c13327f3cc0b871a3133803eb01194104253c66647c3d3b55",
          "blockNumber": "0x978391",
          "blockTimestamp": "0x66f4309f",
          "transactionHash": "0xc13f4d19fce6a70c4aceb3f2e96e82cc579d07a277ef557f63bdc240eb0d69c0",
          "transactionIndex": "0x2",
          "logIndex": "0x13",
          "removed": false
        },
        {
          "address": "0x2f9bb73a8e98793e26cb2f6c4ad037bdf1c6b269",
          "topics": [
            "0x2b627736bca15cd5381dcf80b0bf11fd197d01a037c52b927a881a10fb73ba61",
            "0x000000000000000000000000176211869ca2b568f2a7d4ee941e073a821ee1ff",
            "0x0000000000000000000000006031b77781aaba906cb8a693459dd7087029e201",
            "0x0000000000000000000000000000000000000000000000000000000000000000"
          ],
          "data": "0x0000000000000000000000006031b77781aaba906cb8a693459dd7087029e2010000000000000000000000000000000000000000000000000000000017d08bf3",
          "blockHash": "0x4151441988a8026c13327f3cc0b871a3133803eb01194104253c66647c3d3b55",
          "blockNumber": "0x978391",
          "blockTimestamp": "0x66f4309f",
          "transactionHash": "0xc13f4d19fce6a70c4aceb3f2e96e82cc579d07a277ef557f63bdc240eb0d69c0",
          "transactionIndex": "0x2",
          "logIndex": "0x14",
          "removed": false
        },
        {
          "address": "0x28f6899ff643261ca9766ddc251b359a2d00b945",
          "topics": [
            "0x3303facd24627943a92e9dc87cfbb34b15c49b726eec3ad3487c16be9ab8efe8",
            "0x000000000000000000000000cb2da0f5aece616e2cbf29576cfc795fb15c6133",
            "0x00000000000000000000000040a59a3f3b16d9e74c811d24d8b7969664cfe180",
            "0x0000000000000000000000006031b77781aaba906cb8a693459dd7087029e201"
          ],
          "data": "0x00000000000000000000000000000000000000000000b9f3a432553e843c8a7900000000000000000000000000000000000000000000b9f3a432553e843c8a790000000000000000000000000000000000000000000000000000000000000000",
          "blockHash": "0x4151441988a8026c13327f3cc0b871a3133803eb01194104253c66647c3d3b55",
          "blockNumber": "0x978391",
          "blockTimestamp": "0x66f4309f",
          "transactionHash": "0xc13f4d19fce6a70c4aceb3f2e96e82cc579d07a277ef557f63bdc240eb0d69c0",
          "transactionIndex": "0x2",
          "logIndex": "0x15",
          "removed": false
        },
        {
          "address": "0x28f6899ff643261ca9766ddc251b359a2d00b945",
          "topics": [
            "0x3303facd24627943a92e9dc87cfbb34b15c49b726eec3ad3487c16be9ab8efe8",
            "0x000000000000000000000000cb2da0f5aece616e2cbf29576cfc795fb15c6133",
            "0x00000000000000000000000078354f8dccb269a615a7e0a24f9b0718fdc3c7a7",
            "0x0000000000000000000000006031b77781aaba906cb8a693459dd7087029e201"
          ],
          "data": "0x000000000000000000000000000000000000000000000ea4148c47e035baa37b000000000000000000000000000000000000000000000ea4148c47e035baa37b0000000000000000000000000000000000000000000000000000000000000000",
          "blockHash": "0x4151441988a8026c13327f3cc0b871a3133803eb01194104253c66647c3d3b55",
          "blockNumber": "0x978391",
          "blockTimestamp": "0x66f4309f",
          "transactionHash": "0xc13f4d19fce6a70c4aceb3f2e96e82cc579d07a277ef557f63bdc240eb0d69c0",
          "transactionIndex": "0x2",
          "logIndex": "0x16",
          "removed": false
        },
        {
          "address": "0xcb2da0f5aece616e2cbf29576cfc795fb15c6133",
          "topics": [
            "0xddf252ad1be2c89b69c2b068fc378daa952ba7f163c4a11628f55a4df523b3ef",
            "0x0000000000000000000000000000000000000000000000000000000000000000",
            "0x0000000000000000000000006031b77781aaba906cb8a693459dd7087029e201"
          ],
          "data": "0x0000000000000000000000000000000000000000000000000197e712c9926a2a",
          "blockHash": "0x4151441988a8026c13327f3cc0b871a3133803eb01194104253c66647c3d3b55",
          "blockNumber": "0x978391",
          "blockTimestamp": "0x66f4309f",
          "transactionHash": "0xc13f4d19fce6a70c4aceb3f2e96e82cc579d07a277ef557f63bdc240eb0d69c0",
          "transactionIndex": "0x2",
          "logIndex": "0x17",
          "removed": false
        },
        {
          "address": "0xcb2da0f5aece616e2cbf29576cfc795fb15c6133",
          "topics": [
            "0x458f5fa412d0f69b08dd84872b0215675cc67bc1d5b6fd93300a1c3878b86196",
            "0x0000000000000000000000006031b77781aaba906cb8a693459dd7087029e201",
            "0x0000000000000000000000006031b77781aaba906cb8a693459dd7087029e201"
          ],
          "data": "0x0000000000000000000000000000000000000000000000000197e712c9926a2a0000000000000000000000000000000000000000000000000000000000000000000000000000000000000000000000000000000003603eca2a27678857361a83",
          "blockHash": "0x4151441988a8026c13327f3cc0b871a3133803eb01194104253c66647c3d3b55",
          "blockNumber": "0x978391",
          "blockTimestamp": "0x66f4309f",
          "transactionHash": "0xc13f4d19fce6a70c4aceb3f2e96e82cc579d07a277ef557f63bdc240eb0d69c0",
          "transactionIndex": "0x2",
          "logIndex": "0x18",
          "removed": false
        },
        {
          "address": "0x2f9bb73a8e98793e26cb2f6c4ad037bdf1c6b269",
          "topics": [
            "0x804c9b842b2748a22bb64b345453a3de7ca54a6ca45ce00d415894979e22897a",
            "0x000000000000000000000000e5d7c2a44ffddf6b295a15c148167daaaf5cf34f"
          ],
          "data": "0x0000000000000000000000000000000000000000000c4907f9d6ffbcf16376320000000000000000000000000000000000000000002cda99384ae1e3f063eb8c0000000000000000000000000000000000000000001bf57e4f36dbd3f31f5c660000000000000000000000000000000000000000035312374fa8ef29607f888b000000000000000000000000000000000000000003603eca2a27678857361a83",
          "blockHash": "0x4151441988a8026c13327f3cc0b871a3133803eb01194104253c66647c3d3b55",
          "blockNumber": "0x978391",
          "blockTimestamp": "0x66f4309f",
          "transactionHash": "0xc13f4d19fce6a70c4aceb3f2e96e82cc579d07a277ef557f63bdc240eb0d69c0",
          "transactionIndex": "0x2",
          "logIndex": "0x19",
          "removed": false
        },
        {
          "address": "0xe5d7c2a44ffddf6b295a15c148167daaaf5cf34f",
          "topics": [
            "0xddf252ad1be2c89b69c2b068fc378daa952ba7f163c4a11628f55a4df523b3ef",
            "0x000000000000000000000000b4ffef15daf4c02787bc5332580b838ce39805f5",
            "0x0000000000000000000000006031b77781aaba906cb8a693459dd7087029e201"
          ],
          "data": "0x0000000000000000000000000000000000000000000000000197e712c9926a2a",
          "blockHash": "0x4151441988a8026c13327f3cc0b871a3133803eb01194104253c66647c3d3b55",
          "blockNumber": "0x978391",
          "blockTimestamp": "0x66f4309f",
          "transactionHash": "0xc13f4d19fce6a70c4aceb3f2e96e82cc579d07a277ef557f63bdc240eb0d69c0",
          "transactionIndex": "0x2",
          "logIndex": "0x1a",
          "removed": false
        },
        {
          "address": "0x2f9bb73a8e98793e26cb2f6c4ad037bdf1c6b269",
          "topics": [
            "0xb3d084820fb1a9decffb176436bd02558d15fac9b0ddfed8c465bc7359d7dce0",
            "0x000000000000000000000000e5d7c2a44ffddf6b295a15c148167daaaf5cf34f",
            "0x0000000000000000000000006031b77781aaba906cb8a693459dd7087029e201",
            "0x0000000000000000000000000000000000000000000000000000000000000000"
          ],
          "data": "0x0000000000000000000000006031b77781aaba906cb8a693459dd7087029e2010000000000000000000000000000000000000000000000000197e712c9926a2a00000000000000000000000000000000000000000000000000000000000000020000000000000000000000000000000000000000001bf57e4f36dbd3f31f5c66",
          "blockHash": "0x4151441988a8026c13327f3cc0b871a3133803eb01194104253c66647c3d3b55",
          "blockNumber": "0x978391",
          "blockTimestamp": "0x66f4309f",
          "transactionHash": "0xc13f4d19fce6a70c4aceb3f2e96e82cc579d07a277ef557f63bdc240eb0d69c0",
          "transactionIndex": "0x2",
          "logIndex": "0x1b",
          "removed": false
        },
        {
          "address": "0x176211869ca2b568f2a7d4ee941e073a821ee1ff",
          "topics": [
            "0x8c5be1e5ebec7d5bd14f71427d1e84f3dd0314c0f7b2291e5b200ac8c7c3b925",
            "0x0000000000000000000000006031b77781aaba906cb8a693459dd7087029e201",
            "0x0000000000000000000000002f9bb73a8e98793e26cb2f6c4ad037bdf1c6b269"
          ],
          "data": "0x0000000000000000000000000000000000000000000000000000000000000000",
          "blockHash": "0x4151441988a8026c13327f3cc0b871a3133803eb01194104253c66647c3d3b55",
          "blockNumber": "0x978391",
          "blockTimestamp": "0x66f4309f",
          "transactionHash": "0xc13f4d19fce6a70c4aceb3f2e96e82cc579d07a277ef557f63bdc240eb0d69c0",
          "transactionIndex": "0x2",
          "logIndex": "0x1c",
          "removed": false
        },
        {
          "address": "0x176211869ca2b568f2a7d4ee941e073a821ee1ff",
          "topics": [
            "0x8c5be1e5ebec7d5bd14f71427d1e84f3dd0314c0f7b2291e5b200ac8c7c3b925",
            "0x0000000000000000000000006031b77781aaba906cb8a693459dd7087029e201",
            "0x0000000000000000000000002f9bb73a8e98793e26cb2f6c4ad037bdf1c6b269"
          ],
          "data": "0x0000000000000000000000000000000000000000000000000000000000000000",
          "blockHash": "0x4151441988a8026c13327f3cc0b871a3133803eb01194104253c66647c3d3b55",
          "blockNumber": "0x978391",
          "blockTimestamp": "0x66f4309f",
          "transactionHash": "0xc13f4d19fce6a70c4aceb3f2e96e82cc579d07a277ef557f63bdc240eb0d69c0",
          "transactionIndex": "0x2",
          "logIndex": "0x1d",
          "removed": false
        },
        {
          "address": "0xe5d7c2a44ffddf6b295a15c148167daaaf5cf34f",
          "topics": [
            "0x8c5be1e5ebec7d5bd14f71427d1e84f3dd0314c0f7b2291e5b200ac8c7c3b925",
            "0x0000000000000000000000006031b77781aaba906cb8a693459dd7087029e201",
            "0x0000000000000000000000002f9bb73a8e98793e26cb2f6c4ad037bdf1c6b269"
          ],
          "data": "0x0000000000000000000000000000000000000000000000000197e712c9926a2a",
          "blockHash": "0x4151441988a8026c13327f3cc0b871a3133803eb01194104253c66647c3d3b55",
          "blockNumber": "0x978391",
          "blockTimestamp": "0x66f4309f",
          "transactionHash": "0xc13f4d19fce6a70c4aceb3f2e96e82cc579d07a277ef557f63bdc240eb0d69c0",
          "transactionIndex": "0x2",
          "logIndex": "0x1e",
          "removed": false
        },
        {
          "address": "0x2f9bb73a8e98793e26cb2f6c4ad037bdf1c6b269",
          "topics": [
            "0x804c9b842b2748a22bb64b345453a3de7ca54a6ca45ce00d415894979e22897a",
            "0x000000000000000000000000e5d7c2a44ffddf6b295a15c148167daaaf5cf34f"
          ],
          "data": "0x0000000000000000000000000000000000000000000c490144be52168e119fd20000000000000000000000000000000000000000002cda98440e30750f6693bc0000000000000000000000000000000000000000001bf576ad51505ceb349dd80000000000000000000000000000000000000000035312376d5f18afd65c1d72000000000000000000000000000000000000000003603eca2a27678857361a83",
          "blockHash": "0x4151441988a8026c13327f3cc0b871a3133803eb01194104253c66647c3d3b55",
          "blockNumber": "0x978391",
          "blockTimestamp": "0x66f4309f",
          "transactionHash": "0xc13f4d19fce6a70c4aceb3f2e96e82cc579d07a277ef557f63bdc240eb0d69c0",
          "transactionIndex": "0x2",
          "logIndex": "0x1f",
          "removed": false
        },
        {
          "address": "0xe5d7c2a44ffddf6b295a15c148167daaaf5cf34f",
          "topics": [
            "0xddf252ad1be2c89b69c2b068fc378daa952ba7f163c4a11628f55a4df523b3ef",
            "0x0000000000000000000000006031b77781aaba906cb8a693459dd7087029e201",
            "0x000000000000000000000000b4ffef15daf4c02787bc5332580b838ce39805f5"
          ],
          "data": "0x0000000000000000000000000000000000000000000000000197e712c9926a2a",
          "blockHash": "0x4151441988a8026c13327f3cc0b871a3133803eb01194104253c66647c3d3b55",
          "blockNumber": "0x978391",
          "blockTimestamp": "0x66f4309f",
          "transactionHash": "0xc13f4d19fce6a70c4aceb3f2e96e82cc579d07a277ef557f63bdc240eb0d69c0",
          "transactionIndex": "0x2",
          "logIndex": "0x20",
          "removed": false
        },
        {
          "address": "0x2f9bb73a8e98793e26cb2f6c4ad037bdf1c6b269",
          "topics": [
            "0xefefaba5e921573100900a3ad9cf29f222d995fb3b6045797eaea7521bd8d6f0",
            "0x0000000000000000000000006031b77781aaba906cb8a693459dd7087029e201",
            "0x000000000000000000000000e5d7c2a44ffddf6b295a15c148167daaaf5cf34f",
            "0x0000000000000000000000000000000000000000000000000000000000000000"
          ],
          "data": "0x0000000000000000000000006031b77781aaba906cb8a693459dd7087029e2010000000000000000000000000000000000000000000000000197b2e35050d69a00000000000000000000000000000000000000000000000000000000000000000000000000000000000000000000000000000000000000000000342f79419390",
          "blockHash": "0x4151441988a8026c13327f3cc0b871a3133803eb01194104253c66647c3d3b55",
          "blockNumber": "0x978391",
          "blockTimestamp": "0x66f4309f",
          "transactionHash": "0xc13f4d19fce6a70c4aceb3f2e96e82cc579d07a277ef557f63bdc240eb0d69c0",
          "transactionIndex": "0x2",
          "logIndex": "0x21",
          "removed": false
        }
      ],
      "logsBloom": "0x00000000005009040088000000000000080000004000000000000000010000000000a0002004080000001000000600000010080000100014000400000020000004000020004000000008000802000000200000000000000000000004004000000080040202000000008000112000080180400000020000000100001000000000000002008001000800100004000000000000000000000000008000040000004002080000020000000000000002000010000000000010080100000000a00001000250000208000120000000204000000000020100a0000e0000080000000020000010200000008020000000000001010040000000100002000000400000100000",
      "type": "0x2",
      "transactionHash": "0xc13f4d19fce6a70c4aceb3f2e96e82cc579d07a277ef557f63bdc240eb0d69c0",
      "transactionIndex": "0x2",
      "blockHash": "0x4151441988a8026c13327f3cc0b871a3133803eb01194104253c66647c3d3b55",
      "blockNumber": "0x978391",
      "gasUsed": "0x1193f8",
      "effectiveGasPrice": "0x8efff75",
      "blobGasPrice": "0x1",
      "from": "0xf39fd6e51aad88f6f4ce6ab8827279cfffb92266",
      "to": "0x0b306bf915c4d645ff596e518faf3f9669b97016",
      "contractAddress": null,
      "root": "0x0000000000000000000000000000000000000000000000000000000000000000"
    }
  ],
  "libraries": [],
  "pending": [],
  "returns": {},
  "timestamp": 1727279261,
  "chain": 59144,
  "commit": "a0c2ae3"
}