{
  "transactions": [
    {
      "hash": "0x04333c8886753062949f4cb49e2f02a3b83c0336ec028a48e7c17d72d400656c",
      "transactionType": "CALL",
      "contractName": null,
      "contractAddress": "0xe5d7c2a44ffddf6b295a15c148167daaaf5cf34f",
      "function": "deposit()",
      "arguments": [],
      "transaction": {
        "from": "0xf39fd6e51aad88f6f4ce6ab8827279cfffb92266",
        "to": "0xe5d7c2a44ffddf6b295a15c148167daaaf5cf34f",
        "gas": "0xf2ff",
        "value": "0xde0b6b3a7640000",
        "input": "0xd0e30db0",
        "nonce": "0x1f",
        "chainId": "0xe708"
      },
      "additionalContracts": [],
      "isFixedGasLimit": false
    },
    {
      "hash": "0xdf0466c43e6d4580b101c1c0ae5d78a48ac653687b44201113bd4473ce0d389b",
      "transactionType": "CALL",
      "contractName": null,
      "contractAddress": "0xe5d7c2a44ffddf6b295a15c148167daaaf5cf34f",
      "function": "approve(address,uint256)",
      "arguments": [
        "0x2d8879046f1559E53eb052E949e9544bCB72f414",
        "115792089237316195423570985008687907853269984665640564039457584007913129639935"
      ],
      "transaction": {
        "from": "0xf39fd6e51aad88f6f4ce6ab8827279cfffb92266",
        "to": "0xe5d7c2a44ffddf6b295a15c148167daaaf5cf34f",
        "gas": "0xfa27",
        "value": "0x0",
        "input": "0x095ea7b30000000000000000000000002d8879046f1559e53eb052e949e9544bcb72f414ffffffffffffffffffffffffffffffffffffffffffffffffffffffffffffffff",
        "nonce": "0x20",
        "chainId": "0xe708"
      },
      "additionalContracts": [],
      "isFixedGasLimit": false
    },
    {
      "hash": "0x6165b88ef6f4684cf44d139b33faa3022641e04664519a6bf8ed893fd7301fa5",
      "transactionType": "CALL",
      "contractName": null,
      "contractAddress": "0x2d8879046f1559e53eb052e949e9544bcb72f414",
      "function": null,
      "arguments": null,
      "transaction": {
        "from": "0xf39fd6e51aad88f6f4ce6ab8827279cfffb92266",
        "to": "0x2d8879046f1559e53eb052e949e9544bcb72f414",
        "gas": "0x147b28",
        "value": "0x0",
        "input": "0x83bd37f90001e5d7c2a44ffddf6b295a15c148167daaaf5cf34f0001176211869ca2b568f2a7d4ee941e073a821ee1ff080de0b6b3a7640000049ccda9ad028f5c000156c85a254dd12ee8d9c04049a4ab62769ce9821000000001f39fd6e51aad88f6f4ce6ab8827279cfffb9226600000000070203080150172efd0a0101010200013d1859bd0a010103020001427ceb840d0101040200000a0200050200040a0101060700ff0000000000000000000000000064bccad8e7302e81b09894f56f6bba85ae82cd03e5d7c2a44ffddf6b295a15c148167daaaf5cf34f586733678b9ac9da43dd7cb83bbb41d23677dfc35615a7b1619980f7d6b5e7f69f3dc093dfe0c95c27ed78122b8ef363f4ef5b3afe197e0c4a2fa5146e9ad0b8a41e2c148e7b0385d3ecbfdb8a216a9ba219439258ca9da29e9cc4ce5596924745e12b930000000000000000000000000000000000000000",
        "nonce": "0x21",
        "chainId": "0xe708"
      },
      "additionalContracts": [],
      "isFixedGasLimit": false
    },
    {
      "hash": "0xad2c620ea7f2778916f57869d23737a39c0a6bb92fda2188b3a675b2a4167d05",
      "transactionType": "CALL",
      "contractName": null,
      "contractAddress": "0x176211869ca2b568f2a7d4ee941e073a821ee1ff",
      "function": "approve(address,uint256)",
      "arguments": [
        "0x0B306BF915C4d645ff596e518fAf3F9669b97016",
        "115792089237316195423570985008687907853269984665640564039457584007913129639935"
      ],
      "transaction": {
        "from": "0xf39fd6e51aad88f6f4ce6ab8827279cfffb92266",
        "to": "0x176211869ca2b568f2a7d4ee941e073a821ee1ff",
        "gas": "0x144c0",
        "value": "0x0",
        "input": "0x095ea7b30000000000000000000000000b306bf915c4d645ff596e518faf3f9669b97016ffffffffffffffffffffffffffffffffffffffffffffffffffffffffffffffff",
        "nonce": "0x22",
        "chainId": "0xe708"
      },
      "additionalContracts": [],
      "isFixedGasLimit": false
    },
    {
      "hash": "0x60c5112016f6ae208ca9b868af7d5ca58a2c99fe030f962b0e52f0eff8dad9f0",
      "transactionType": "CALL",
      "contractName": null,
      "contractAddress": "0xe5d7c2a44ffddf6b295a15c148167daaaf5cf34f",
      "function": "approve(address,uint256)",
      "arguments": [
        "0x0B306BF915C4d645ff596e518fAf3F9669b97016",
        "115792089237316195423570985008687907853269984665640564039457584007913129639935"
      ],
      "transaction": {
        "from": "0xf39fd6e51aad88f6f4ce6ab8827279cfffb92266",
        "to": "0xe5d7c2a44ffddf6b295a15c148167daaaf5cf34f",
        "gas": "0xfa27",
        "value": "0x0",
        "input": "0x095ea7b30000000000000000000000000b306bf915c4d645ff596e518faf3f9669b97016ffffffffffffffffffffffffffffffffffffffffffffffffffffffffffffffff",
        "nonce": "0x23",
        "chainId": "0xe708"
      },
      "additionalContracts": [],
      "isFixedGasLimit": false
    },
    {
      "hash": "0xc88542b304360597e3ac918c93335388cea680f8e82a73be30cf12c9cdb53b68",
      "transactionType": "CALL",
      "contractName": null,
      "contractAddress": "0x176211869ca2b568f2a7d4ee941e073a821ee1ff",
      "function": "approve(address,uint256)",
      "arguments": [
        "0x0B306BF915C4d645ff596e518fAf3F9669b97016",
        "115792089237316195423570985008687907853269984665640564039457584007913129639935"
      ],
      "transaction": {
        "from": "0xf39fd6e51aad88f6f4ce6ab8827279cfffb92266",
        "to": "0x176211869ca2b568f2a7d4ee941e073a821ee1ff",
        "gas": "0xe62b",
        "value": "0x0",
        "input": "0x095ea7b30000000000000000000000000b306bf915c4d645ff596e518faf3f9669b97016ffffffffffffffffffffffffffffffffffffffffffffffffffffffffffffffff",
        "nonce": "0x24",
        "chainId": "0xe708"
      },
      "additionalContracts": [],
      "isFixedGasLimit": false
    },
    {
      "hash": "0x9526471edf13661c06e59e05ddb0053a4cc099eea982e6d8738f9275aed1dc79",
      "transactionType": "CALL",
      "contractName": null,
      "contractAddress": "0x0b306bf915c4d645ff596e518faf3f9669b97016",
      "function": "createAndAddToPosition((string,address,address),(uint256,uint256,bytes))",
      "arguments": [
        "(\"LONG_QUOTE_ODOS_ZEROLEND\", 0x176211869cA2b568f2A7D4EE941E073a821EE1ff, 0xe5D7C2a44FfDDf6b295A15c148167daaAf5Cf34f)",
        "(100000000, 200000000, 0x83bd37f90001176211869ca2b568f2a7d4ee941e073a821ee1ff0001e5d7c2a44ffddf6b295a15c148167daaaf5cf34f0411e1a300080195071fceab5e20028f5c000156c85a254dd12ee8d9c04049a4ab62769ce98210000000018ee06e608de47ea1b185583aca65e34f2fd79b130000000003010203000a0101010201ff000000000000000000000000000000000000000000d5539d0360438a66661148c633a9f0965e482845176211869ca2b568f2a7d4ee941e073a821ee1ff000000000000000000000000000000000000000000000000)"
      ],
      "transaction": {
        "from": "0xf39fd6e51aad88f6f4ce6ab8827279cfffb92266",
        "to": "0x0b306bf915c4d645ff596e518faf3f9669b97016",
        "gas": "0x192bf3",
        "value": "0x0",
        "input": "0x211d9b04000000000000000000000000000000000000000000000000000000000000004000000000000000000000000000000000000000000000000000000000000000e00000000000000000000000000000000000000000000000000000000000000060000000000000000000000000176211869ca2b568f2a7d4ee941e073a821ee1ff000000000000000000000000e5d7c2a44ffddf6b295a15c148167daaaf5cf34f00000000000000000000000000000000000000000000000000000000000000184c4f4e475f51554f54455f4f444f535f5a45524f4c454e4400000000000000000000000000000000000000000000000000000000000000000000000005f5e100000000000000000000000000000000000000000000000000000000000bebc200000000000000000000000000000000000000000000000000000000000000006000000000000000000000000000000000000000000000000000000000000000d483bd37f90001176211869ca2b568f2a7d4ee941e073a821ee1ff0001e5d7c2a44ffddf6b295a15c148167daaaf5cf34f0411e1a300080195071fceab5e20028f5c000156c85a254dd12ee8d9c04049a4ab62769ce98210000000018ee06e608de47ea1b185583aca65e34f2fd79b130000000003010203000a0101010201ff000000000000000000000000000000000000000000d5539d0360438a66661148c633a9f0965e482845176211869ca2b568f2a7d4ee941e073a821ee1ff000000000000000000000000000000000000000000000000000000000000000000000000",
        "nonce": "0x25",
        "chainId": "0xe708"
      },
      "additionalContracts": [
        {
          "transactionType": "CREATE2",
          "address": "0x8ee06e608de47ea1b185583aca65e34f2fd79b13",
          "initCode": "0x60a060405234801561001057600080fd5b506040516101d43803806101d483398101604081905261002f9161009a565b6001600160a01b0381166100895760405162461bcd60e51b815260206004820152601e60248201527f496e76616c696420696d706c656d656e746174696f6e20616464726573730000604482015260640160405180910390fd5b6001600160a01b03166080526100ca565b6000602082840312156100ac57600080fd5b81516001600160a01b03811681146100c357600080fd5b9392505050565b60805160ec6100e860003960008181602001526055015260ec6000f3fe608060405260043610601c5760003560e01c80635c60da1b146045575b60437f00000000000000000000000000000000000000000000000000000000000000006093565b005b348015605057600080fd5b5060777f000000000000000000000000000000000000000000000000000000000000000081565b6040516001600160a01b03909116815260200160405180910390f35b3660008037600080366000845af43d6000803e80801560b1573d6000f35b3d6000fdfea2646970667358221220ece5f241c936be627b009529639055436949a725352d983e1257a877a1e6225564736f6c6343000819003300000000000000000000000068b1d87f95878fe05b998f19b66f4baba5de1aed"
        }
      ],
      "isFixedGasLimit": false
    }
  ],
  "receipts": [
    {
      "status": "0x1",
      "cumulativeGasUsed": "0xafee",
      "logs": [
        {
          "address": "0xe5d7c2a44ffddf6b295a15c148167daaaf5cf34f",
          "topics": [
            "0xe1fffcc4923d04b559f4d29a8bfc6cda04eb5b0d3c460751c2402c5c5cc9109c",
            "0x000000000000000000000000f39fd6e51aad88f6f4ce6ab8827279cfffb92266"
          ],
          "data": "0x0000000000000000000000000000000000000000000000000de0b6b3a7640000",
          "blockHash": "0x274ab63a8ff57121ebc60c25476ec25cc618195fd4b79514aa6cefe5cdd3741c",
          "blockNumber": "0x96e59d",
          "blockTimestamp": "0x66f2f294",
          "transactionHash": "0x04333c8886753062949f4cb49e2f02a3b83c0336ec028a48e7c17d72d400656c",
          "transactionIndex": "0x0",
          "logIndex": "0x0",
          "removed": false
        }
      ],
      "logsBloom": "0x0000000000000000000000000000000000000000000000000000000000000000000000000000000000000000000000000000000000000000000000000000000000000000000000000000000000000000000000000000000000000000800000000000000000000000000000010000000000000000000000000000000000000000000000000000000000100000000000000000000100000000000000000000000000000000000000000000000000000000000000000000000000000000200000000000000000000020000000000000000000000000a000000000000000000000000000000000000000000000000000000000000000000000400000000000000000",
      "type": "0x2",
      "transactionHash": "0x04333c8886753062949f4cb49e2f02a3b83c0336ec028a48e7c17d72d400656c",
      "transactionIndex": "0x0",
      "blockHash": "0x274ab63a8ff57121ebc60c25476ec25cc618195fd4b79514aa6cefe5cdd3741c",
      "blockNumber": "0x96e59d",
      "gasUsed": "0xafee",
      "effectiveGasPrice": "0x77626ac",
      "blobGasPrice": "0x1",
      "from": "0xf39fd6e51aad88f6f4ce6ab8827279cfffb92266",
      "to": "0xe5d7c2a44ffddf6b295a15c148167daaaf5cf34f",
      "contractAddress": null,
      "root": "0x0000000000000000000000000000000000000000000000000000000000000000"
    },
    {
      "status": "0x1",
      "cumulativeGasUsed": "0xb51c",
      "logs": [
        {
          "address": "0xe5d7c2a44ffddf6b295a15c148167daaaf5cf34f",
          "topics": [
            "0x8c5be1e5ebec7d5bd14f71427d1e84f3dd0314c0f7b2291e5b200ac8c7c3b925",
            "0x000000000000000000000000f39fd6e51aad88f6f4ce6ab8827279cfffb92266",
            "0x0000000000000000000000002d8879046f1559e53eb052e949e9544bcb72f414"
          ],
          "data": "0xffffffffffffffffffffffffffffffffffffffffffffffffffffffffffffffff",
          "blockHash": "0x9073b75769de76712202057c4713bde59646080c4c6939c93126857c2421d365",
          "blockNumber": "0x96e59e",
          "blockTimestamp": "0x66f2f295",
          "transactionHash": "0xdf0466c43e6d4580b101c1c0ae5d78a48ac653687b44201113bd4473ce0d389b",
          "transactionIndex": "0x0",
          "logIndex": "0x0",
          "removed": false
        }
      ],
      "logsBloom": "0x0000000000000000000000000000000000000000000000000000000000000000000000000000000000001000000000000000000000000000000000000020000000000000000000000000000000000000000000000000000000000000000000000000000000000000008000010000000000000000000000000000000000000000000000000000000000100000000000000000000000000000000000000000000002000000020000000000000000000000000000000000000000000000200000000000000000000020000000000000000000000000a000000000000000000000000010000000000000000000000000000000000000000000000000000000000000",
      "type": "0x2",
      "transactionHash": "0xdf0466c43e6d4580b101c1c0ae5d78a48ac653687b44201113bd4473ce0d389b",
      "transactionIndex": "0x0",
      "blockHash": "0x9073b75769de76712202057c4713bde59646080c4c6939c93126857c2421d365",
      "blockNumber": "0x96e59e",
      "gasUsed": "0xb51c",
      "effectiveGasPrice": "0x77626ac",
      "blobGasPrice": "0x1",
      "from": "0xf39fd6e51aad88f6f4ce6ab8827279cfffb92266",
      "to": "0xe5d7c2a44ffddf6b295a15c148167daaaf5cf34f",
      "contractAddress": null,
      "root": "0x0000000000000000000000000000000000000000000000000000000000000000"
    },
    {
      "status": "0x1",
      "cumulativeGasUsed": "0xe16d5",
      "logs": [
        {
          "address": "0xe5d7c2a44ffddf6b295a15c148167daaaf5cf34f",
          "topics": [
            "0xddf252ad1be2c89b69c2b068fc378daa952ba7f163c4a11628f55a4df523b3ef",
            "0x000000000000000000000000f39fd6e51aad88f6f4ce6ab8827279cfffb92266",
            "0x00000000000000000000000056c85a254dd12ee8d9c04049a4ab62769ce98210"
          ],
          "data": "0x0000000000000000000000000000000000000000000000000de0b6b3a7640000",
          "blockHash": "0xc21b23d78b175afb65203c9916fe65f2187a93f82b563ca0cb0e8077331b267e",
          "blockNumber": "0x96e59f",
          "blockTimestamp": "0x66f2f296",
          "transactionHash": "0x6165b88ef6f4684cf44d139b33faa3022641e04664519a6bf8ed893fd7301fa5",
          "transactionIndex": "0x0",
          "logIndex": "0x0",
          "removed": false
        },
        {
          "address": "0x176211869ca2b568f2a7d4ee941e073a821ee1ff",
          "topics": [
            "0xddf252ad1be2c89b69c2b068fc378daa952ba7f163c4a11628f55a4df523b3ef",
            "0x00000000000000000000000064bccad8e7302e81b09894f56f6bba85ae82cd03",
            "0x0000000000000000000000002d8879046f1559e53eb052e949e9544bcb72f414"
          ],
          "data": "0x0000000000000000000000000000000000000000000000000000000031084938",
          "blockHash": "0xc21b23d78b175afb65203c9916fe65f2187a93f82b563ca0cb0e8077331b267e",
          "blockNumber": "0x96e59f",
          "blockTimestamp": "0x66f2f296",
          "transactionHash": "0x6165b88ef6f4684cf44d139b33faa3022641e04664519a6bf8ed893fd7301fa5",
          "transactionIndex": "0x0",
          "logIndex": "0x1",
          "removed": false
        },
        {
          "address": "0xe5d7c2a44ffddf6b295a15c148167daaaf5cf34f",
          "topics": [
            "0xddf252ad1be2c89b69c2b068fc378daa952ba7f163c4a11628f55a4df523b3ef",
            "0x00000000000000000000000056c85a254dd12ee8d9c04049a4ab62769ce98210",
            "0x00000000000000000000000064bccad8e7302e81b09894f56f6bba85ae82cd03"
          ],
          "data": "0x00000000000000000000000000000000000000000000000004577ad4a65c219c",
          "blockHash": "0xc21b23d78b175afb65203c9916fe65f2187a93f82b563ca0cb0e8077331b267e",
          "blockNumber": "0x96e59f",
          "blockTimestamp": "0x66f2f296",
          "transactionHash": "0x6165b88ef6f4684cf44d139b33faa3022641e04664519a6bf8ed893fd7301fa5",
          "transactionIndex": "0x0",
          "logIndex": "0x2",
          "removed": false
        },
        {
          "address": "0x64bccad8e7302e81b09894f56f6bba85ae82cd03",
          "topics": [
            "0xc42079f94a6350d7e6235f29174924f928cc2ac818eb64fed8004e115fbcca67",
            "0x00000000000000000000000056c85a254dd12ee8d9c04049a4ab62769ce98210",
            "0x0000000000000000000000002d8879046f1559e53eb052e949e9544bcb72f414"
          ],
          "data": "0xffffffffffffffffffffffffffffffffffffffffffffffffffffffffcef7b6c800000000000000000000000000000000000000000000000004577ad4a65c219c0000000000000000000000000000000000004c2a4a6505fbdf3ae5cb112d186b000000000000000000000000000000000000000000000000036cff61b33ae98400000000000000000000000000000000000000000000000000000000000303c3",
          "blockHash": "0xc21b23d78b175afb65203c9916fe65f2187a93f82b563ca0cb0e8077331b267e",
          "blockNumber": "0x96e59f",
          "blockTimestamp": "0x66f2f296",
          "transactionHash": "0x6165b88ef6f4684cf44d139b33faa3022641e04664519a6bf8ed893fd7301fa5",
          "transactionIndex": "0x0",
          "logIndex": "0x3",
          "removed": false
        },
        {
          "address": "0x176211869ca2b568f2a7d4ee941e073a821ee1ff",
          "topics": [
            "0xddf252ad1be2c89b69c2b068fc378daa952ba7f163c4a11628f55a4df523b3ef",
            "0x000000000000000000000000586733678b9ac9da43dd7cb83bbb41d23677dfc3",
            "0x0000000000000000000000002d8879046f1559e53eb052e949e9544bcb72f414"
          ],
          "data": "0x0000000000000000000000000000000000000000000000000000000019b447fa",
          "blockHash": "0xc21b23d78b175afb65203c9916fe65f2187a93f82b563ca0cb0e8077331b267e",
          "blockNumber": "0x96e59f",
          "blockTimestamp": "0x66f2f296",
          "transactionHash": "0x6165b88ef6f4684cf44d139b33faa3022641e04664519a6bf8ed893fd7301fa5",
          "transactionIndex": "0x0",
          "logIndex": "0x4",
          "removed": false
        },
        {
          "address": "0xe5d7c2a44ffddf6b295a15c148167daaaf5cf34f",
          "topics": [
            "0xddf252ad1be2c89b69c2b068fc378daa952ba7f163c4a11628f55a4df523b3ef",
            "0x00000000000000000000000056c85a254dd12ee8d9c04049a4ab62769ce98210",
            "0x000000000000000000000000586733678b9ac9da43dd7cb83bbb41d23677dfc3"
          ],
          "data": "0x00000000000000000000000000000000000000000000000002469b798048b3ba",
          "blockHash": "0xc21b23d78b175afb65203c9916fe65f2187a93f82b563ca0cb0e8077331b267e",
          "blockNumber": "0x96e59f",
          "blockTimestamp": "0x66f2f296",
          "transactionHash": "0x6165b88ef6f4684cf44d139b33faa3022641e04664519a6bf8ed893fd7301fa5",
          "transactionIndex": "0x0",
          "logIndex": "0x5",
          "removed": false
        },
        {
          "address": "0x586733678b9ac9da43dd7cb83bbb41d23677dfc3",
          "topics": [
            "0x19b47279256b2a23a1665c810c8d55a1758940ee09377d4f8d26497a3577dc83",
            "0x00000000000000000000000056c85a254dd12ee8d9c04049a4ab62769ce98210",
            "0x0000000000000000000000002d8879046f1559e53eb052e949e9544bcb72f414"
          ],
          "data": "0xffffffffffffffffffffffffffffffffffffffffffffffffffffffffe64bb80600000000000000000000000000000000000000000000000002469b798048b3ba0000000000000000000000000000000000004c2ea49f64835e334858878c96f3000000000000000000000000000000000000000000000000005d41f8b5179d2b00000000000000000000000000000000000000000000000000000000000303c70000000000000000000000000000000000000000000000000000000000000000000000000000000000000000000000000000000000000000000004ebff741da5",
          "blockHash": "0xc21b23d78b175afb65203c9916fe65f2187a93f82b563ca0cb0e8077331b267e",
          "blockNumber": "0x96e59f",
          "blockTimestamp": "0x66f2f296",
          "transactionHash": "0x6165b88ef6f4684cf44d139b33faa3022641e04664519a6bf8ed893fd7301fa5",
          "transactionIndex": "0x0",
          "logIndex": "0x6",
          "removed": false
        },
        {
          "address": "0x176211869ca2b568f2a7d4ee941e073a821ee1ff",
          "topics": [
            "0xddf252ad1be2c89b69c2b068fc378daa952ba7f163c4a11628f55a4df523b3ef",
            "0x0000000000000000000000005615a7b1619980f7d6b5e7f69f3dc093dfe0c95c",
            "0x0000000000000000000000002d8879046f1559e53eb052e949e9544bcb72f414"
          ],
          "data": "0x000000000000000000000000000000000000000000000000000000001548527a",
          "blockHash": "0xc21b23d78b175afb65203c9916fe65f2187a93f82b563ca0cb0e8077331b267e",
          "blockNumber": "0x96e59f",
          "blockTimestamp": "0x66f2f296",
          "transactionHash": "0x6165b88ef6f4684cf44d139b33faa3022641e04664519a6bf8ed893fd7301fa5",
          "transactionIndex": "0x0",
          "logIndex": "0x7",
          "removed": false
        },
        {
          "address": "0xe5d7c2a44ffddf6b295a15c148167daaaf5cf34f",
          "topics": [
            "0xddf252ad1be2c89b69c2b068fc378daa952ba7f163c4a11628f55a4df523b3ef",
            "0x00000000000000000000000056c85a254dd12ee8d9c04049a4ab62769ce98210",
            "0x0000000000000000000000005615a7b1619980f7d6b5e7f69f3dc093dfe0c95c"
          ],
          "data": "0x00000000000000000000000000000000000000000000000001e2b84dc3f33d28",
          "blockHash": "0xc21b23d78b175afb65203c9916fe65f2187a93f82b563ca0cb0e8077331b267e",
          "blockNumber": "0x96e59f",
          "blockTimestamp": "0x66f2f296",
          "transactionHash": "0x6165b88ef6f4684cf44d139b33faa3022641e04664519a6bf8ed893fd7301fa5",
          "transactionIndex": "0x0",
          "logIndex": "0x8",
          "removed": false
        },
        {
          "address": "0x5615a7b1619980f7d6b5e7f69f3dc093dfe0c95c",
          "topics": [
            "0x0fe977d619f8172f7fdbe8bb8928ef80952817d96936509f67d66346bc4cd10f",
            "0x000000000000000000000000176211869ca2b568f2a7d4ee941e073a821ee1ff",
            "0x000000000000000000000000e5d7c2a44ffddf6b295a15c148167daaaf5cf34f",
            "0x00000000000000000000000000000000000000000000000000000000000001f4"
          ],
          "data": "0x0000000000000000000000000000000000000000000000000000000000000000000000000000000000000000000000000000000000000000000000001548527a00000000000000000000000000000000000000000000000001e2b84dc3f33d2800000000000000000000000000000000000000000000000000000000000303c9",
          "blockHash": "0xc21b23d78b175afb65203c9916fe65f2187a93f82b563ca0cb0e8077331b267e",
          "blockNumber": "0x96e59f",
          "blockTimestamp": "0x66f2f296",
          "transactionHash": "0x6165b88ef6f4684cf44d139b33faa3022641e04664519a6bf8ed893fd7301fa5",
          "transactionIndex": "0x0",
          "logIndex": "0x9",
          "removed": false
        },
        {
          "address": "0xe5d7c2a44ffddf6b295a15c148167daaaf5cf34f",
          "topics": [
            "0xddf252ad1be2c89b69c2b068fc378daa952ba7f163c4a11628f55a4df523b3ef",
            "0x00000000000000000000000056c85a254dd12ee8d9c04049a4ab62769ce98210",
            "0x000000000000000000000000f39fd6e51aad88f6f4ce6ab8827279cfffb92266"
          ],
          "data": "0x00000000000000000000000000000000000000000000000000000000000049f6",
          "blockHash": "0xc21b23d78b175afb65203c9916fe65f2187a93f82b563ca0cb0e8077331b267e",
          "blockNumber": "0x96e59f",
          "blockTimestamp": "0x66f2f296",
          "transactionHash": "0x6165b88ef6f4684cf44d139b33faa3022641e04664519a6bf8ed893fd7301fa5",
          "transactionIndex": "0x0",
          "logIndex": "0xa",
          "removed": false
        },
        {
          "address": "0xa219439258ca9da29e9cc4ce5596924745e12b93",
          "topics": [
            "0xddf252ad1be2c89b69c2b068fc378daa952ba7f163c4a11628f55a4df523b3ef",
            "0x00000000000000000000000027ed78122b8ef363f4ef5b3afe197e0c4a2fa514",
            "0x00000000000000000000000056c85a254dd12ee8d9c04049a4ab62769ce98210"
          ],
          "data": "0x000000000000000000000000000000000000000000000000000000003ca3978d",
          "blockHash": "0xc21b23d78b175afb65203c9916fe65f2187a93f82b563ca0cb0e8077331b267e",
          "blockNumber": "0x96e59f",
          "blockTimestamp": "0x66f2f296",
          "transactionHash": "0x6165b88ef6f4684cf44d139b33faa3022641e04664519a6bf8ed893fd7301fa5",
          "transactionIndex": "0x0",
          "logIndex": "0xb",
          "removed": false
        },
        {
          "address": "0xe5d7c2a44ffddf6b295a15c148167daaaf5cf34f",
          "topics": [
            "0xddf252ad1be2c89b69c2b068fc378daa952ba7f163c4a11628f55a4df523b3ef",
            "0x00000000000000000000000056c85a254dd12ee8d9c04049a4ab62769ce98210",
            "0x00000000000000000000000027ed78122b8ef363f4ef5b3afe197e0c4a2fa514"
          ],
          "data": "0x000000000000000000000000000000000000000000000000055fe817bccba38c",
          "blockHash": "0xc21b23d78b175afb65203c9916fe65f2187a93f82b563ca0cb0e8077331b267e",
          "blockNumber": "0x96e59f",
          "blockTimestamp": "0x66f2f296",
          "transactionHash": "0x6165b88ef6f4684cf44d139b33faa3022641e04664519a6bf8ed893fd7301fa5",
          "transactionIndex": "0x0",
          "logIndex": "0xc",
          "removed": false
        },
        {
          "address": "0x27ed78122b8ef363f4ef5b3afe197e0c4a2fa514",
          "topics": [
            "0xc42079f94a6350d7e6235f29174924f928cc2ac818eb64fed8004e115fbcca67",
            "0x00000000000000000000000056c85a254dd12ee8d9c04049a4ab62769ce98210",
            "0x00000000000000000000000056c85a254dd12ee8d9c04049a4ab62769ce98210"
          ],
          "data": "0xffffffffffffffffffffffffffffffffffffffffffffffffffffffffc35c6873000000000000000000000000000000000000000000000000055fe817bccba38c0000000000000000000000000000000000004c37052dfce0b8cdb97f1128f48500000000000000000000000000000000000000000000000000aceb7a5b2db8dc00000000000000000000000000000000000000000000000000000000000303d0",
          "blockHash": "0xc21b23d78b175afb65203c9916fe65f2187a93f82b563ca0cb0e8077331b267e",
          "blockNumber": "0x96e59f",
          "blockTimestamp": "0x66f2f296",
          "transactionHash": "0x6165b88ef6f4684cf44d139b33faa3022641e04664519a6bf8ed893fd7301fa5",
          "transactionIndex": "0x0",
          "logIndex": "0xd",
          "removed": false
        },
        {
          "address": "0x6e9ad0b8a41e2c148e7b0385d3ecbfdb8a216a9b",
          "topics": [
            "0x598b9f043c813aa6be3426ca60d1c65d17256312890be5118dab55b0775ebe2a"
          ],
          "data": "0x0000000000000000000000000000000000000000000000000000000000000032",
          "blockHash": "0xc21b23d78b175afb65203c9916fe65f2187a93f82b563ca0cb0e8077331b267e",
          "blockNumber": "0x96e59f",
          "blockTimestamp": "0x66f2f296",
          "transactionHash": "0x6165b88ef6f4684cf44d139b33faa3022641e04664519a6bf8ed893fd7301fa5",
          "transactionIndex": "0x0",
          "logIndex": "0xe",
          "removed": false
        },
        {
          "address": "0x176211869ca2b568f2a7d4ee941e073a821ee1ff",
          "topics": [
            "0xddf252ad1be2c89b69c2b068fc378daa952ba7f163c4a11628f55a4df523b3ef",
            "0x0000000000000000000000006e9ad0b8a41e2c148e7b0385d3ecbfdb8a216a9b",
            "0x0000000000000000000000002d8879046f1559e53eb052e949e9544bcb72f414"
          ],
          "data": "0x000000000000000000000000000000000000000000000000000000003ca3c0a5",
          "blockHash": "0xc21b23d78b175afb65203c9916fe65f2187a93f82b563ca0cb0e8077331b267e",
          "blockNumber": "0x96e59f",
          "blockTimestamp": "0x66f2f296",
          "transactionHash": "0x6165b88ef6f4684cf44d139b33faa3022641e04664519a6bf8ed893fd7301fa5",
          "transactionIndex": "0x0",
          "logIndex": "0xf",
          "removed": false
        },
        {
          "address": "0xa219439258ca9da29e9cc4ce5596924745e12b93",
          "topics": [
            "0xddf252ad1be2c89b69c2b068fc378daa952ba7f163c4a11628f55a4df523b3ef",
            "0x00000000000000000000000056c85a254dd12ee8d9c04049a4ab62769ce98210",
            "0x0000000000000000000000006e9ad0b8a41e2c148e7b0385d3ecbfdb8a216a9b"
          ],
          "data": "0x000000000000000000000000000000000000000000000000000000003ca3978d",
          "blockHash": "0xc21b23d78b175afb65203c9916fe65f2187a93f82b563ca0cb0e8077331b267e",
          "blockNumber": "0x96e59f",
          "blockTimestamp": "0x66f2f296",
          "transactionHash": "0x6165b88ef6f4684cf44d139b33faa3022641e04664519a6bf8ed893fd7301fa5",
          "transactionIndex": "0x0",
          "logIndex": "0x10",
          "removed": false
        },
        {
          "address": "0xa219439258ca9da29e9cc4ce5596924745e12b93",
          "topics": [
            "0xddf252ad1be2c89b69c2b068fc378daa952ba7f163c4a11628f55a4df523b3ef",
            "0x0000000000000000000000006e9ad0b8a41e2c148e7b0385d3ecbfdb8a216a9b",
            "0x0000000000000000000000001d8b6fa722230153be08c4fa4aa4b4c7cd01a95a"
          ],
          "data": "0x00000000000000000000000000000000000000000000000000000000000005f6",
          "blockHash": "0xc21b23d78b175afb65203c9916fe65f2187a93f82b563ca0cb0e8077331b267e",
          "blockNumber": "0x96e59f",
          "blockTimestamp": "0x66f2f296",
          "transactionHash": "0x6165b88ef6f4684cf44d139b33faa3022641e04664519a6bf8ed893fd7301fa5",
          "transactionIndex": "0x0",
          "logIndex": "0x11",
          "removed": false
        },
        {
          "address": "0x6e9ad0b8a41e2c148e7b0385d3ecbfdb8a216a9b",
          "topics": [
            "0xc42079f94a6350d7e6235f29174924f928cc2ac818eb64fed8004e115fbcca67",
            "0x00000000000000000000000056c85a254dd12ee8d9c04049a4ab62769ce98210",
            "0x0000000000000000000000002d8879046f1559e53eb052e949e9544bcb72f414"
          ],
          "data": "0xffffffffffffffffffffffffffffffffffffffffffffffffffffffffc35c3f5b000000000000000000000000000000000000000000000000000000003ca3978d0000000000000000000000000000000000000000fffe0b4049d9bfc5d6150c960000000000000000000000000000000000000000000000000005945811570e11ffffffffffffffffffffffffffffffffffffffffffffffffffffffffffffffff",
          "blockHash": "0xc21b23d78b175afb65203c9916fe65f2187a93f82b563ca0cb0e8077331b267e",
          "blockNumber": "0x96e59f",
          "blockTimestamp": "0x66f2f296",
          "transactionHash": "0x6165b88ef6f4684cf44d139b33faa3022641e04664519a6bf8ed893fd7301fa5",
          "transactionIndex": "0x0",
          "logIndex": "0x12",
          "removed": false
        },
        {
          "address": "0x176211869ca2b568f2a7d4ee941e073a821ee1ff",
          "topics": [
            "0xddf252ad1be2c89b69c2b068fc378daa952ba7f163c4a11628f55a4df523b3ef",
            "0x0000000000000000000000002d8879046f1559e53eb052e949e9544bcb72f414",
            "0x000000000000000000000000f39fd6e51aad88f6f4ce6ab8827279cfffb92266"
          ],
          "data": "0x000000000000000000000000000000000000000000000000000000009ca8a451",
          "blockHash": "0xc21b23d78b175afb65203c9916fe65f2187a93f82b563ca0cb0e8077331b267e",
          "blockNumber": "0x96e59f",
          "blockTimestamp": "0x66f2f296",
          "transactionHash": "0x6165b88ef6f4684cf44d139b33faa3022641e04664519a6bf8ed893fd7301fa5",
          "transactionIndex": "0x0",
          "logIndex": "0x13",
          "removed": false
        },
        {
          "address": "0x2d8879046f1559e53eb052e949e9544bcb72f414",
          "topics": [
            "0x823eaf01002d7353fbcadb2ea3305cc46fa35d799cb0914846d185ac06f8ad05"
          ],
          "data": "0x000000000000000000000000f39fd6e51aad88f6f4ce6ab8827279cfffb922660000000000000000000000000000000000000000000000000de0b6b3a7640000000000000000000000000000e5d7c2a44ffddf6b295a15c148167daaaf5cf34f000000000000000000000000000000000000000000000000000000009ca8a451000000000000000000000000176211869ca2b568f2a7d4ee941e073a821ee1ffffffffffffffffffffffffffffffffffffffffffffffffffffffffffffdafaa40000000000000000000000000000000000000000000000000000000000000000",
          "blockHash": "0xc21b23d78b175afb65203c9916fe65f2187a93f82b563ca0cb0e8077331b267e",
          "blockNumber": "0x96e59f",
          "blockTimestamp": "0x66f2f296",
          "transactionHash": "0x6165b88ef6f4684cf44d139b33faa3022641e04664519a6bf8ed893fd7301fa5",
          "transactionIndex": "0x0",
          "logIndex": "0x14",
          "removed": false
        }
      ],
      "logsBloom": "0x0000000000400000000000000000000000000000000080000800000000400000040004000000000400001000000200000004480004002004000400000000400004000000004000080008000802001000000000000000000020000001000000000080000200100000008000012000000184000000020000000000001000480000000002000008000000101004000000000000800000000000000008040000000000000000020000140000000000000000000004020000000100000040a00000000050000208000020020008008000100000020000a0000c0000000000000000000000000200000000020000000000000000000020020002000040000000000000",
      "type": "0x2",
      "transactionHash": "0x6165b88ef6f4684cf44d139b33faa3022641e04664519a6bf8ed893fd7301fa5",
      "transactionIndex": "0x0",
      "blockHash": "0xc21b23d78b175afb65203c9916fe65f2187a93f82b563ca0cb0e8077331b267e",
      "blockNumber": "0x96e59f",
      "gasUsed": "0xe16d5",
      "effectiveGasPrice": "0x77626ac",
      "blobGasPrice": "0x1",
      "from": "0xf39fd6e51aad88f6f4ce6ab8827279cfffb92266",
      "to": "0x2d8879046f1559e53eb052e949e9544bcb72f414",
      "contractAddress": null,
      "root": "0x0000000000000000000000000000000000000000000000000000000000000000"
    },
    {
      "status": "0x1",
      "cumulativeGasUsed": "0xeb1e",
      "logs": [
        {
          "address": "0x176211869ca2b568f2a7d4ee941e073a821ee1ff",
          "topics": [
            "0x8c5be1e5ebec7d5bd14f71427d1e84f3dd0314c0f7b2291e5b200ac8c7c3b925",
            "0x000000000000000000000000f39fd6e51aad88f6f4ce6ab8827279cfffb92266",
            "0x0000000000000000000000000b306bf915c4d645ff596e518faf3f9669b97016"
          ],
          "data": "0xffffffffffffffffffffffffffffffffffffffffffffffffffffffffffffffff",
          "blockHash": "0x216509472db64e584c7640876a4962a1135560bafa376a50c109a7d6a3fbb7ae",
          "blockNumber": "0x96e5a0",
          "blockTimestamp": "0x66f2f297",
          "transactionHash": "0xad2c620ea7f2778916f57869d23737a39c0a6bb92fda2188b3a675b2a4167d05",
          "transactionIndex": "0x0",
          "logIndex": "0x0",
          "removed": false
        }
      ],
      "logsBloom": "0x00000000000000000000000000000008000000000000000000000000000000000000000000000000000000000000000000000800000000000004000000200000000000000000000000000000020000000000000000000000000000000000000000000000000000000000000300000000000000000000000000000000000000000000000000000000000000000000000000000000000000000000000000000000020000000000000000000000000000000000000000000000000000000000000000000000000000200000000000000000000000002000000000000000000000000010000000000000000000000400000000000000000000000000000000000000",
      "type": "0x2",
      "transactionHash": "0xad2c620ea7f2778916f57869d23737a39c0a6bb92fda2188b3a675b2a4167d05",
      "transactionIndex": "0x0",
      "blockHash": "0x216509472db64e584c7640876a4962a1135560bafa376a50c109a7d6a3fbb7ae",
      "blockNumber": "0x96e5a0",
      "gasUsed": "0xeb1e",
      "effectiveGasPrice": "0x77626ac",
      "blobGasPrice": "0x1",
      "from": "0xf39fd6e51aad88f6f4ce6ab8827279cfffb92266",
      "to": "0x176211869ca2b568f2a7d4ee941e073a821ee1ff",
      "contractAddress": null,
      "root": "0x0000000000000000000000000000000000000000000000000000000000000000"
    },
    {
      "status": "0x1",
      "cumulativeGasUsed": "0xb51c",
      "logs": [
        {
          "address": "0xe5d7c2a44ffddf6b295a15c148167daaaf5cf34f",
          "topics": [
            "0x8c5be1e5ebec7d5bd14f71427d1e84f3dd0314c0f7b2291e5b200ac8c7c3b925",
            "0x000000000000000000000000f39fd6e51aad88f6f4ce6ab8827279cfffb92266",
            "0x0000000000000000000000000b306bf915c4d645ff596e518faf3f9669b97016"
          ],
          "data": "0xffffffffffffffffffffffffffffffffffffffffffffffffffffffffffffffff",
          "blockHash": "0x8570220eddea09a85d2d80c80a42fd50ba6582c0cd87f81ab31e2e4aa76a3db5",
          "blockNumber": "0x96e5a1",
          "blockTimestamp": "0x66f2f298",
          "transactionHash": "0x60c5112016f6ae208ca9b868af7d5ca58a2c99fe030f962b0e52f0eff8dad9f0",
          "transactionIndex": "0x0",
          "logIndex": "0x0",
          "removed": false
        }
      ],
      "logsBloom": "0x0000000000000000000000000000000800000000000000000000000000000000000000000000000000000000000000000000000000000000000000000020000000000000000000000000000000000000000000000000000000000000000000000000000000000000000000030000000000000000000000000000000000000000000000000000000000100000000000000000000000000000000000000000000002000000000000000000000000000000000000000000000000000000200000000000000000000020000000000000000000000000a000000000000000000000000010000000000000000000000400000000000000000000000000000000000000",
      "type": "0x2",
      "transactionHash": "0x60c5112016f6ae208ca9b868af7d5ca58a2c99fe030f962b0e52f0eff8dad9f0",
      "transactionIndex": "0x0",
      "blockHash": "0x8570220eddea09a85d2d80c80a42fd50ba6582c0cd87f81ab31e2e4aa76a3db5",
      "blockNumber": "0x96e5a1",
      "gasUsed": "0xb51c",
      "effectiveGasPrice": "0x77626ac",
      "blobGasPrice": "0x1",
      "from": "0xf39fd6e51aad88f6f4ce6ab8827279cfffb92266",
      "to": "0xe5d7c2a44ffddf6b295a15c148167daaaf5cf34f",
      "contractAddress": null,
      "root": "0x0000000000000000000000000000000000000000000000000000000000000000"
    },
    {
      "status": "0x1",
      "cumulativeGasUsed": "0x1527e",
      "logs": [
        {
          "address": "0x176211869ca2b568f2a7d4ee941e073a821ee1ff",
          "topics": [
            "0x8c5be1e5ebec7d5bd14f71427d1e84f3dd0314c0f7b2291e5b200ac8c7c3b925",
            "0x000000000000000000000000f39fd6e51aad88f6f4ce6ab8827279cfffb92266",
            "0x0000000000000000000000000b306bf915c4d645ff596e518faf3f9669b97016"
          ],
          "data": "0xffffffffffffffffffffffffffffffffffffffffffffffffffffffffffffffff",
          "blockHash": "0x8570220eddea09a85d2d80c80a42fd50ba6582c0cd87f81ab31e2e4aa76a3db5",
          "blockNumber": "0x96e5a1",
          "blockTimestamp": "0x66f2f298",
          "transactionHash": "0xc88542b304360597e3ac918c93335388cea680f8e82a73be30cf12c9cdb53b68",
          "transactionIndex": "0x1",
          "logIndex": "0x1",
          "removed": false
        }
      ],
      "logsBloom": "0x00000000000000000000000000000008000000000000000000000000000000000000000000000000000000000000000000000800000000000004000000200000000000000000000000000000020000000000000000000000000000000000000000000000000000000000000300000000000000000000000000000000000000000000000000000000000000000000000000000000000000000000000000000000020000000000000000000000000000000000000000000000000000000000000000000000000000200000000000000000000000002000000000000000000000000010000000000000000000000400000000000000000000000000000000000000",
      "type": "0x2",
      "transactionHash": "0xc88542b304360597e3ac918c93335388cea680f8e82a73be30cf12c9cdb53b68",
      "transactionIndex": "0x1",
      "blockHash": "0x8570220eddea09a85d2d80c80a42fd50ba6582c0cd87f81ab31e2e4aa76a3db5",
      "blockNumber": "0x96e5a1",
      "gasUsed": "0x9d62",
      "effectiveGasPrice": "0x77626ac",
      "blobGasPrice": "0x1",
      "from": "0xf39fd6e51aad88f6f4ce6ab8827279cfffb92266",
      "to": "0x176211869ca2b568f2a7d4ee941e073a821ee1ff",
      "contractAddress": null,
      "root": "0x0000000000000000000000000000000000000000000000000000000000000000"
    },
    {
      "status": "0x1",
      "cumulativeGasUsed": "0x138bed",
      "logs": [
        {
          "address": "0x9a9f2ccfde556a7e9ff0848998aa4a0cfd8863ae",
          "topics": [
            "0xddf252ad1be2c89b69c2b068fc378daa952ba7f163c4a11628f55a4df523b3ef",
            "0x0000000000000000000000000000000000000000000000000000000000000000",
            "0x000000000000000000000000f39fd6e51aad88f6f4ce6ab8827279cfffb92266",
            "0x0000000000000000000000000000000000000000000000000000000000000000"
          ],
          "data": "0x",
          "blockHash": "0x8570220eddea09a85d2d80c80a42fd50ba6582c0cd87f81ab31e2e4aa76a3db5",
          "blockNumber": "0x96e5a1",
          "blockTimestamp": "0x66f2f298",
          "transactionHash": "0x9526471edf13661c06e59e05ddb0053a4cc099eea982e6d8738f9275aed1dc79",
          "transactionIndex": "0x2",
          "logIndex": "0x2",
          "removed": false
        },
        {
          "address": "0x176211869ca2b568f2a7d4ee941e073a821ee1ff",
          "topics": [
            "0xddf252ad1be2c89b69c2b068fc378daa952ba7f163c4a11628f55a4df523b3ef",
            "0x000000000000000000000000f39fd6e51aad88f6f4ce6ab8827279cfffb92266",
            "0x0000000000000000000000008ee06e608de47ea1b185583aca65e34f2fd79b13"
          ],
          "data": "0x0000000000000000000000000000000000000000000000000000000005f5e100",
          "blockHash": "0x8570220eddea09a85d2d80c80a42fd50ba6582c0cd87f81ab31e2e4aa76a3db5",
          "blockNumber": "0x96e5a1",
          "blockTimestamp": "0x66f2f298",
          "transactionHash": "0x9526471edf13661c06e59e05ddb0053a4cc099eea982e6d8738f9275aed1dc79",
          "transactionIndex": "0x2",
          "logIndex": "0x3",
          "removed": false
        },
        {
          "address": "0x176211869ca2b568f2a7d4ee941e073a821ee1ff",
          "topics": [
            "0xddf252ad1be2c89b69c2b068fc378daa952ba7f163c4a11628f55a4df523b3ef",
            "0x0000000000000000000000002e207eca8b6bf77a6ac82763eeed2a94de4f081d",
            "0x0000000000000000000000008ee06e608de47ea1b185583aca65e34f2fd79b13"
          ],
          "data": "0x000000000000000000000000000000000000000000000000000000000bebc200",
          "blockHash": "0x8570220eddea09a85d2d80c80a42fd50ba6582c0cd87f81ab31e2e4aa76a3db5",
          "blockNumber": "0x96e5a1",
          "blockTimestamp": "0x66f2f298",
          "transactionHash": "0x9526471edf13661c06e59e05ddb0053a4cc099eea982e6d8738f9275aed1dc79",
          "transactionIndex": "0x2",
          "logIndex": "0x4",
          "removed": false
        },
        {
          "address": "0x176211869ca2b568f2a7d4ee941e073a821ee1ff",
          "topics": [
            "0x8c5be1e5ebec7d5bd14f71427d1e84f3dd0314c0f7b2291e5b200ac8c7c3b925",
            "0x0000000000000000000000008ee06e608de47ea1b185583aca65e34f2fd79b13",
            "0x0000000000000000000000002d8879046f1559e53eb052e949e9544bcb72f414"
          ],
          "data": "0x0000000000000000000000000000000000000000000000000000000011e1a300",
          "blockHash": "0x8570220eddea09a85d2d80c80a42fd50ba6582c0cd87f81ab31e2e4aa76a3db5",
          "blockNumber": "0x96e5a1",
          "blockTimestamp": "0x66f2f298",
          "transactionHash": "0x9526471edf13661c06e59e05ddb0053a4cc099eea982e6d8738f9275aed1dc79",
          "transactionIndex": "0x2",
          "logIndex": "0x5",
          "removed": false
        },
        {
          "address": "0x176211869ca2b568f2a7d4ee941e073a821ee1ff",
          "topics": [
            "0xddf252ad1be2c89b69c2b068fc378daa952ba7f163c4a11628f55a4df523b3ef",
            "0x0000000000000000000000008ee06e608de47ea1b185583aca65e34f2fd79b13",
            "0x00000000000000000000000056c85a254dd12ee8d9c04049a4ab62769ce98210"
          ],
          "data": "0x0000000000000000000000000000000000000000000000000000000011e1a300",
          "blockHash": "0x8570220eddea09a85d2d80c80a42fd50ba6582c0cd87f81ab31e2e4aa76a3db5",
          "blockNumber": "0x96e5a1",
          "blockTimestamp": "0x66f2f298",
          "transactionHash": "0x9526471edf13661c06e59e05ddb0053a4cc099eea982e6d8738f9275aed1dc79",
          "transactionIndex": "0x2",
          "logIndex": "0x6",
          "removed": false
        },
        {
          "address": "0xe5d7c2a44ffddf6b295a15c148167daaaf5cf34f",
          "topics": [
            "0xddf252ad1be2c89b69c2b068fc378daa952ba7f163c4a11628f55a4df523b3ef",
            "0x000000000000000000000000d5539d0360438a66661148c633a9f0965e482845",
            "0x0000000000000000000000002d8879046f1559e53eb052e949e9544bcb72f414"
          ],
          "data": "0x0000000000000000000000000000000000000000000000000195071fa82fe67e",
          "blockHash": "0x8570220eddea09a85d2d80c80a42fd50ba6582c0cd87f81ab31e2e4aa76a3db5",
          "blockNumber": "0x96e5a1",
          "blockTimestamp": "0x66f2f298",
          "transactionHash": "0x9526471edf13661c06e59e05ddb0053a4cc099eea982e6d8738f9275aed1dc79",
          "transactionIndex": "0x2",
          "logIndex": "0x7",
          "removed": false
        },
        {
          "address": "0x176211869ca2b568f2a7d4ee941e073a821ee1ff",
          "topics": [
            "0xddf252ad1be2c89b69c2b068fc378daa952ba7f163c4a11628f55a4df523b3ef",
            "0x00000000000000000000000056c85a254dd12ee8d9c04049a4ab62769ce98210",
            "0x000000000000000000000000d5539d0360438a66661148c633a9f0965e482845"
          ],
          "data": "0x0000000000000000000000000000000000000000000000000000000011e1a300",
          "blockHash": "0x8570220eddea09a85d2d80c80a42fd50ba6582c0cd87f81ab31e2e4aa76a3db5",
          "blockNumber": "0x96e5a1",
          "blockTimestamp": "0x66f2f298",
          "transactionHash": "0x9526471edf13661c06e59e05ddb0053a4cc099eea982e6d8738f9275aed1dc79",
          "transactionIndex": "0x2",
          "logIndex": "0x8",
          "removed": false
        },
        {
          "address": "0xd5539d0360438a66661148c633a9f0965e482845",
          "topics": [
            "0x19b47279256b2a23a1665c810c8d55a1758940ee09377d4f8d26497a3577dc83",
            "0x00000000000000000000000056c85a254dd12ee8d9c04049a4ab62769ce98210",
            "0x0000000000000000000000002d8879046f1559e53eb052e949e9544bcb72f414"
          ],
          "data": "0x0000000000000000000000000000000000000000000000000000000011e1a300fffffffffffffffffffffffffffffffffffffffffffffffffe6af8e057d019820000000000000000000000000000000000004c274b076bca43fe62abdc8cf183000000000000000000000000000000000000000000000000003802379945acd100000000000000000000000000000000000000000000000000000000000303c0000000000000000000000000000000000000000000000000000000000000c7370000000000000000000000000000000000000000000000000000000000000000",
          "blockHash": "0x8570220eddea09a85d2d80c80a42fd50ba6582c0cd87f81ab31e2e4aa76a3db5",
          "blockNumber": "0x96e5a1",
          "blockTimestamp": "0x66f2f298",
          "transactionHash": "0x9526471edf13661c06e59e05ddb0053a4cc099eea982e6d8738f9275aed1dc79",
          "transactionIndex": "0x2",
          "logIndex": "0x9",
          "removed": false
        },
        {
          "address": "0xe5d7c2a44ffddf6b295a15c148167daaaf5cf34f",
          "topics": [
            "0xddf252ad1be2c89b69c2b068fc378daa952ba7f163c4a11628f55a4df523b3ef",
            "0x0000000000000000000000002d8879046f1559e53eb052e949e9544bcb72f414",
            "0x0000000000000000000000008ee06e608de47ea1b185583aca65e34f2fd79b13"
          ],
          "data": "0x0000000000000000000000000000000000000000000000000195071fa82fe67e",
          "blockHash": "0x8570220eddea09a85d2d80c80a42fd50ba6582c0cd87f81ab31e2e4aa76a3db5",
          "blockNumber": "0x96e5a1",
          "blockTimestamp": "0x66f2f298",
          "transactionHash": "0x9526471edf13661c06e59e05ddb0053a4cc099eea982e6d8738f9275aed1dc79",
          "transactionIndex": "0x2",
          "logIndex": "0xa",
          "removed": false
        },
        {
          "address": "0x2d8879046f1559e53eb052e949e9544bcb72f414",
          "topics": [
            "0x823eaf01002d7353fbcadb2ea3305cc46fa35d799cb0914846d185ac06f8ad05"
          ],
          "data": "0x0000000000000000000000008ee06e608de47ea1b185583aca65e34f2fd79b130000000000000000000000000000000000000000000000000000000011e1a300000000000000000000000000176211869ca2b568f2a7d4ee941e073a821ee1ff0000000000000000000000000000000000000000000000000195071fa82fe67e000000000000000000000000e5d7c2a44ffddf6b295a15c148167daaaf5cf34fffffffffffffffffffffffffffffffffffffffffffffffffffffffffd984885e0000000000000000000000000000000000000000000000000000000000000000",
          "blockHash": "0x8570220eddea09a85d2d80c80a42fd50ba6582c0cd87f81ab31e2e4aa76a3db5",
          "blockNumber": "0x96e5a1",
          "blockTimestamp": "0x66f2f298",
          "transactionHash": "0x9526471edf13661c06e59e05ddb0053a4cc099eea982e6d8738f9275aed1dc79",
          "transactionIndex": "0x2",
          "logIndex": "0xb",
          "removed": false
        },
        {
          "address": "0xe5d7c2a44ffddf6b295a15c148167daaaf5cf34f",
          "topics": [
            "0x8c5be1e5ebec7d5bd14f71427d1e84f3dd0314c0f7b2291e5b200ac8c7c3b925",
            "0x0000000000000000000000008ee06e608de47ea1b185583aca65e34f2fd79b13",
            "0x0000000000000000000000002f9bb73a8e98793e26cb2f6c4ad037bdf1c6b269"
          ],
          "data": "0x0000000000000000000000000000000000000000000000000195071fa82fe67e",
          "blockHash": "0x8570220eddea09a85d2d80c80a42fd50ba6582c0cd87f81ab31e2e4aa76a3db5",
          "blockNumber": "0x96e5a1",
          "blockTimestamp": "0x66f2f298",
          "transactionHash": "0x9526471edf13661c06e59e05ddb0053a4cc099eea982e6d8738f9275aed1dc79",
          "transactionIndex": "0x2",
          "logIndex": "0xc",
          "removed": false
        },
        {
          "address": "0x2f9bb73a8e98793e26cb2f6c4ad037bdf1c6b269",
          "topics": [
            "0x804c9b842b2748a22bb64b345453a3de7ca54a6ca45ce00d415894979e22897a",
            "0x000000000000000000000000e5d7c2a44ffddf6b295a15c148167daaaf5cf34f"
          ],
          "data": "0x0000000000000000000000000000000000000000000c22e95076488f07f7c5dd0000000000000000000000000000000000000000002cd528ef37bb0866f091470000000000000000000000000000000000000000001bc9fc069da4f7a7848a320000000000000000000000000000000000000000035309eca12a34d2d9b09dd6000000000000000000000000000000000000000003602b8e6ae0c72d6746ffa4",
          "blockHash": "0x8570220eddea09a85d2d80c80a42fd50ba6582c0cd87f81ab31e2e4aa76a3db5",
          "blockNumber": "0x96e5a1",
          "blockTimestamp": "0x66f2f298",
          "transactionHash": "0x9526471edf13661c06e59e05ddb0053a4cc099eea982e6d8738f9275aed1dc79",
          "transactionIndex": "0x2",
          "logIndex": "0xd",
          "removed": false
        },
        {
          "address": "0xe5d7c2a44ffddf6b295a15c148167daaaf5cf34f",
          "topics": [
            "0xddf252ad1be2c89b69c2b068fc378daa952ba7f163c4a11628f55a4df523b3ef",
            "0x0000000000000000000000008ee06e608de47ea1b185583aca65e34f2fd79b13",
            "0x000000000000000000000000b4ffef15daf4c02787bc5332580b838ce39805f5"
          ],
          "data": "0x0000000000000000000000000000000000000000000000000195071fa82fe67e",
          "blockHash": "0x8570220eddea09a85d2d80c80a42fd50ba6582c0cd87f81ab31e2e4aa76a3db5",
          "blockNumber": "0x96e5a1",
          "blockTimestamp": "0x66f2f298",
          "transactionHash": "0x9526471edf13661c06e59e05ddb0053a4cc099eea982e6d8738f9275aed1dc79",
          "transactionIndex": "0x2",
          "logIndex": "0xe",
          "removed": false
        },
        {
          "address": "0x28f6899ff643261ca9766ddc251b359a2d00b945",
          "topics": [
            "0x3303facd24627943a92e9dc87cfbb34b15c49b726eec3ad3487c16be9ab8efe8",
            "0x000000000000000000000000b4ffef15daf4c02787bc5332580b838ce39805f5",
            "0x00000000000000000000000040a59a3f3b16d9e74c811d24d8b7969664cfe180",
            "0x0000000000000000000000008ee06e608de47ea1b185583aca65e34f2fd79b13"
          ],
          "data": "0x000000000000000000000000000000000000000000004a6e6ce87410aa4b5006000000000000000000000000000000000000000000004a6e6ce87410aa4b50060000000000000000000000000000000000000000000000000000000000000000",
          "blockHash": "0x8570220eddea09a85d2d80c80a42fd50ba6582c0cd87f81ab31e2e4aa76a3db5",
          "blockNumber": "0x96e5a1",
          "blockTimestamp": "0x66f2f298",
          "transactionHash": "0x9526471edf13661c06e59e05ddb0053a4cc099eea982e6d8738f9275aed1dc79",
          "transactionIndex": "0x2",
          "logIndex": "0xf",
          "removed": false
        },
        {
          "address": "0x28f6899ff643261ca9766ddc251b359a2d00b945",
          "topics": [
            "0x3303facd24627943a92e9dc87cfbb34b15c49b726eec3ad3487c16be9ab8efe8",
            "0x000000000000000000000000b4ffef15daf4c02787bc5332580b838ce39805f5",
            "0x00000000000000000000000078354f8dccb269a615a7e0a24f9b0718fdc3c7a7",
            "0x0000000000000000000000008ee06e608de47ea1b185583aca65e34f2fd79b13"
          ],
          "data": "0x00000000000000000000000000000000000000000000029f144451769f7aff6100000000000000000000000000000000000000000000029f144451769f7aff610000000000000000000000000000000000000000000000000000000000000000",
          "blockHash": "0x8570220eddea09a85d2d80c80a42fd50ba6582c0cd87f81ab31e2e4aa76a3db5",
          "blockNumber": "0x96e5a1",
          "blockTimestamp": "0x66f2f298",
          "transactionHash": "0x9526471edf13661c06e59e05ddb0053a4cc099eea982e6d8738f9275aed1dc79",
          "transactionIndex": "0x2",
          "logIndex": "0x10",
          "removed": false
        },
        {
          "address": "0xb4ffef15daf4c02787bc5332580b838ce39805f5",
          "topics": [
            "0xddf252ad1be2c89b69c2b068fc378daa952ba7f163c4a11628f55a4df523b3ef",
            "0x0000000000000000000000000000000000000000000000000000000000000000",
            "0x0000000000000000000000008ee06e608de47ea1b185583aca65e34f2fd79b13"
          ],
          "data": "0x0000000000000000000000000000000000000000000000000195071fa82fe67e",
          "blockHash": "0x8570220eddea09a85d2d80c80a42fd50ba6582c0cd87f81ab31e2e4aa76a3db5",
          "blockNumber": "0x96e5a1",
          "blockTimestamp": "0x66f2f298",
          "transactionHash": "0x9526471edf13661c06e59e05ddb0053a4cc099eea982e6d8738f9275aed1dc79",
          "transactionIndex": "0x2",
          "logIndex": "0x11",
          "removed": false
        },
        {
          "address": "0xb4ffef15daf4c02787bc5332580b838ce39805f5",
          "topics": [
            "0x458f5fa412d0f69b08dd84872b0215675cc67bc1d5b6fd93300a1c3878b86196",
            "0x0000000000000000000000008ee06e608de47ea1b185583aca65e34f2fd79b13",
            "0x0000000000000000000000008ee06e608de47ea1b185583aca65e34f2fd79b13"
          ],
          "data": "0x0000000000000000000000000000000000000000000000000195071fa82fe67e00000000000000000000000000000000000000000000000000000000000000000000000000000000000000000000000000000000035309eca12a34d2d9b09dd6",
          "blockHash": "0x8570220eddea09a85d2d80c80a42fd50ba6582c0cd87f81ab31e2e4aa76a3db5",
          "blockNumber": "0x96e5a1",
          "blockTimestamp": "0x66f2f298",
          "transactionHash": "0x9526471edf13661c06e59e05ddb0053a4cc099eea982e6d8738f9275aed1dc79",
          "transactionIndex": "0x2",
          "logIndex": "0x12",
          "removed": false
        },
        {
          "address": "0x2f9bb73a8e98793e26cb2f6c4ad037bdf1c6b269",
          "topics": [
            "0x00058a56ea94653cdf4f152d227ace22d4c00ad99e2a43f58cb7d9e3feb295f2",
            "0x000000000000000000000000e5d7c2a44ffddf6b295a15c148167daaaf5cf34f",
            "0x0000000000000000000000008ee06e608de47ea1b185583aca65e34f2fd79b13"
          ],
          "data": "0x",
          "blockHash": "0x8570220eddea09a85d2d80c80a42fd50ba6582c0cd87f81ab31e2e4aa76a3db5",
          "blockNumber": "0x96e5a1",
          "blockTimestamp": "0x66f2f298",
          "transactionHash": "0x9526471edf13661c06e59e05ddb0053a4cc099eea982e6d8738f9275aed1dc79",
          "transactionIndex": "0x2",
          "logIndex": "0x13",
          "removed": false
        },
        {
          "address": "0x2f9bb73a8e98793e26cb2f6c4ad037bdf1c6b269",
          "topics": [
            "0x2b627736bca15cd5381dcf80b0bf11fd197d01a037c52b927a881a10fb73ba61",
            "0x000000000000000000000000e5d7c2a44ffddf6b295a15c148167daaaf5cf34f",
            "0x0000000000000000000000008ee06e608de47ea1b185583aca65e34f2fd79b13",
            "0x0000000000000000000000000000000000000000000000000000000000000000"
          ],
          "data": "0x0000000000000000000000008ee06e608de47ea1b185583aca65e34f2fd79b130000000000000000000000000000000000000000000000000195071fa82fe67e",
          "blockHash": "0x8570220eddea09a85d2d80c80a42fd50ba6582c0cd87f81ab31e2e4aa76a3db5",
          "blockNumber": "0x96e5a1",
          "blockTimestamp": "0x66f2f298",
          "transactionHash": "0x9526471edf13661c06e59e05ddb0053a4cc099eea982e6d8738f9275aed1dc79",
          "transactionIndex": "0x2",
          "logIndex": "0x14",
          "removed": false
        },
        {
          "address": "0x28f6899ff643261ca9766ddc251b359a2d00b945",
          "topics": [
            "0x3303facd24627943a92e9dc87cfbb34b15c49b726eec3ad3487c16be9ab8efe8",
            "0x000000000000000000000000a2703dc9fbaccd6ec2e4cbfa700989d0238133f6",
            "0x00000000000000000000000040a59a3f3b16d9e74c811d24d8b7969664cfe180",
            "0x0000000000000000000000008ee06e608de47ea1b185583aca65e34f2fd79b13"
          ],
          "data": "0x0000000000000000000000000000000000000000000000053f69899e410bb3ed0000000000000000000000000000000000000000000000053f69899e410bb3ed0000000000000000000000000000000000000000000000000000000000000000",
          "blockHash": "0x8570220eddea09a85d2d80c80a42fd50ba6582c0cd87f81ab31e2e4aa76a3db5",
          "blockNumber": "0x96e5a1",
          "blockTimestamp": "0x66f2f298",
          "transactionHash": "0x9526471edf13661c06e59e05ddb0053a4cc099eea982e6d8738f9275aed1dc79",
          "transactionIndex": "0x2",
          "logIndex": "0x15",
          "removed": false
        },
        {
          "address": "0x28f6899ff643261ca9766ddc251b359a2d00b945",
          "topics": [
            "0x3303facd24627943a92e9dc87cfbb34b15c49b726eec3ad3487c16be9ab8efe8",
            "0x000000000000000000000000a2703dc9fbaccd6ec2e4cbfa700989d0238133f6",
            "0x00000000000000000000000078354f8dccb269a615a7e0a24f9b0718fdc3c7a7",
            "0x0000000000000000000000008ee06e608de47ea1b185583aca65e34f2fd79b13"
          ],
          "data": "0x0000000000000000000000000000000000000000000000019a41fada6c83ee2b0000000000000000000000000000000000000000000000019a41fada6c83ee2b0000000000000000000000000000000000000000000000000000000000000000",
          "blockHash": "0x8570220eddea09a85d2d80c80a42fd50ba6582c0cd87f81ab31e2e4aa76a3db5",
          "blockNumber": "0x96e5a1",
          "blockTimestamp": "0x66f2f298",
          "transactionHash": "0x9526471edf13661c06e59e05ddb0053a4cc099eea982e6d8738f9275aed1dc79",
          "transactionIndex": "0x2",
          "logIndex": "0x16",
          "removed": false
        },
        {
          "address": "0xa2703dc9fbaccd6ec2e4cbfa700989d0238133f6",
          "topics": [
            "0xddf252ad1be2c89b69c2b068fc378daa952ba7f163c4a11628f55a4df523b3ef",
            "0x0000000000000000000000000000000000000000000000000000000000000000",
            "0x0000000000000000000000008ee06e608de47ea1b185583aca65e34f2fd79b13"
          ],
          "data": "0x000000000000000000000000000000000000000000000000000000000bed48a0",
          "blockHash": "0x8570220eddea09a85d2d80c80a42fd50ba6582c0cd87f81ab31e2e4aa76a3db5",
          "blockNumber": "0x96e5a1",
          "blockTimestamp": "0x66f2f298",
          "transactionHash": "0x9526471edf13661c06e59e05ddb0053a4cc099eea982e6d8738f9275aed1dc79",
          "transactionIndex": "0x2",
          "logIndex": "0x17",
          "removed": false
        },
        {
          "address": "0xa2703dc9fbaccd6ec2e4cbfa700989d0238133f6",
          "topics": [
            "0x458f5fa412d0f69b08dd84872b0215675cc67bc1d5b6fd93300a1c3878b86196",
            "0x0000000000000000000000008ee06e608de47ea1b185583aca65e34f2fd79b13",
            "0x0000000000000000000000008ee06e608de47ea1b185583aca65e34f2fd79b13"
          ],
          "data": "0x000000000000000000000000000000000000000000000000000000000bed48a000000000000000000000000000000000000000000000000000000000000000000000000000000000000000000000000000000000036d78bfe63b9cbf47aee463",
          "blockHash": "0x8570220eddea09a85d2d80c80a42fd50ba6582c0cd87f81ab31e2e4aa76a3db5",
          "blockNumber": "0x96e5a1",
          "blockTimestamp": "0x66f2f298",
          "transactionHash": "0x9526471edf13661c06e59e05ddb0053a4cc099eea982e6d8738f9275aed1dc79",
          "transactionIndex": "0x2",
          "logIndex": "0x18",
          "removed": false
        },
        {
          "address": "0x2f9bb73a8e98793e26cb2f6c4ad037bdf1c6b269",
          "topics": [
            "0x804c9b842b2748a22bb64b345453a3de7ca54a6ca45ce00d415894979e22897a",
            "0x000000000000000000000000176211869ca2b568f2a7d4ee941e073a821ee1ff"
          ],
          "data": "0x00000000000000000000000000000000000000000049e5d6c9d0d9867591e0f50000000000000000000000000000000000000000008836d9ee0a80ea24bfc1f40000000000000000000000000000000000000000007bce7a4cec7efdb5bfc1f40000000000000000000000000000000000000000035ed8acabd76de205c2fd720000000000000000000000000000000000000000036d78bfe63b9cbf47aee463",
          "blockHash": "0x8570220eddea09a85d2d80c80a42fd50ba6582c0cd87f81ab31e2e4aa76a3db5",
          "blockNumber": "0x96e5a1",
          "blockTimestamp": "0x66f2f298",
          "transactionHash": "0x9526471edf13661c06e59e05ddb0053a4cc099eea982e6d8738f9275aed1dc79",
          "transactionIndex": "0x2",
          "logIndex": "0x19",
          "removed": false
        },
        {
          "address": "0x176211869ca2b568f2a7d4ee941e073a821ee1ff",
          "topics": [
            "0xddf252ad1be2c89b69c2b068fc378daa952ba7f163c4a11628f55a4df523b3ef",
            "0x0000000000000000000000002e207eca8b6bf77a6ac82763eeed2a94de4f081d",
            "0x0000000000000000000000008ee06e608de47ea1b185583aca65e34f2fd79b13"
          ],
          "data": "0x000000000000000000000000000000000000000000000000000000000bed48a0",
          "blockHash": "0x8570220eddea09a85d2d80c80a42fd50ba6582c0cd87f81ab31e2e4aa76a3db5",
          "blockNumber": "0x96e5a1",
          "blockTimestamp": "0x66f2f298",
          "transactionHash": "0x9526471edf13661c06e59e05ddb0053a4cc099eea982e6d8738f9275aed1dc79",
          "transactionIndex": "0x2",
          "logIndex": "0x1a",
          "removed": false
        },
        {
          "address": "0x2f9bb73a8e98793e26cb2f6c4ad037bdf1c6b269",
          "topics": [
            "0xb3d084820fb1a9decffb176436bd02558d15fac9b0ddfed8c465bc7359d7dce0",
            "0x000000000000000000000000176211869ca2b568f2a7d4ee941e073a821ee1ff",
            "0x0000000000000000000000008ee06e608de47ea1b185583aca65e34f2fd79b13",
            "0x0000000000000000000000000000000000000000000000000000000000000000"
          ],
          "data": "0x0000000000000000000000008ee06e608de47ea1b185583aca65e34f2fd79b13000000000000000000000000000000000000000000000000000000000bed48a000000000000000000000000000000000000000000000000000000000000000020000000000000000000000000000000000000000007bce7a4cec7efdb5bfc1f4",
          "blockHash": "0x8570220eddea09a85d2d80c80a42fd50ba6582c0cd87f81ab31e2e4aa76a3db5",
          "blockNumber": "0x96e5a1",
          "blockTimestamp": "0x66f2f298",
          "transactionHash": "0x9526471edf13661c06e59e05ddb0053a4cc099eea982e6d8738f9275aed1dc79",
          "transactionIndex": "0x2",
          "logIndex": "0x1b",
          "removed": false
        },
        {
          "address": "0x176211869ca2b568f2a7d4ee941e073a821ee1ff",
          "topics": [
            "0x8c5be1e5ebec7d5bd14f71427d1e84f3dd0314c0f7b2291e5b200ac8c7c3b925",
            "0x0000000000000000000000008ee06e608de47ea1b185583aca65e34f2fd79b13",
            "0x0000000000000000000000002d8879046f1559e53eb052e949e9544bcb72f414"
          ],
          "data": "0x0000000000000000000000000000000000000000000000000000000000000000",
          "blockHash": "0x8570220eddea09a85d2d80c80a42fd50ba6582c0cd87f81ab31e2e4aa76a3db5",
          "blockNumber": "0x96e5a1",
          "blockTimestamp": "0x66f2f298",
          "transactionHash": "0x9526471edf13661c06e59e05ddb0053a4cc099eea982e6d8738f9275aed1dc79",
          "transactionIndex": "0x2",
          "logIndex": "0x1c",
          "removed": false
        },
        {
          "address": "0xe5d7c2a44ffddf6b295a15c148167daaaf5cf34f",
          "topics": [
            "0x8c5be1e5ebec7d5bd14f71427d1e84f3dd0314c0f7b2291e5b200ac8c7c3b925",
            "0x0000000000000000000000008ee06e608de47ea1b185583aca65e34f2fd79b13",
            "0x0000000000000000000000002f9bb73a8e98793e26cb2f6c4ad037bdf1c6b269"
          ],
          "data": "0x0000000000000000000000000000000000000000000000000000000000000000",
          "blockHash": "0x8570220eddea09a85d2d80c80a42fd50ba6582c0cd87f81ab31e2e4aa76a3db5",
          "blockNumber": "0x96e5a1",
          "blockTimestamp": "0x66f2f298",
          "transactionHash": "0x9526471edf13661c06e59e05ddb0053a4cc099eea982e6d8738f9275aed1dc79",
          "transactionIndex": "0x2",
          "logIndex": "0x1d",
          "removed": false
        },
        {
          "address": "0x176211869ca2b568f2a7d4ee941e073a821ee1ff",
          "topics": [
            "0x8c5be1e5ebec7d5bd14f71427d1e84f3dd0314c0f7b2291e5b200ac8c7c3b925",
            "0x0000000000000000000000008ee06e608de47ea1b185583aca65e34f2fd79b13",
            "0x0000000000000000000000002f9bb73a8e98793e26cb2f6c4ad037bdf1c6b269"
          ],
          "data": "0x000000000000000000000000000000000000000000000000000000000bed48a0",
          "blockHash": "0x8570220eddea09a85d2d80c80a42fd50ba6582c0cd87f81ab31e2e4aa76a3db5",
          "blockNumber": "0x96e5a1",
          "blockTimestamp": "0x66f2f298",
          "transactionHash": "0x9526471edf13661c06e59e05ddb0053a4cc099eea982e6d8738f9275aed1dc79",
          "transactionIndex": "0x2",
          "logIndex": "0x1e",
          "removed": false
        },
        {
          "address": "0x2f9bb73a8e98793e26cb2f6c4ad037bdf1c6b269",
          "topics": [
            "0x804c9b842b2748a22bb64b345453a3de7ca54a6ca45ce00d415894979e22897a",
            "0x000000000000000000000000176211869ca2b568f2a7d4ee941e073a821ee1ff"
          ],
          "data": "0x00000000000000000000000000000000000000000049d8db73d9ca150c2e700f0000000000000000000000000000000000000000008821ad40a532cc17af9d3c0000000000000000000000000000000000000000007bb94d9f8730dfa8af9d3c0000000000000000000000000000000000000000035ed8ad2f15ef8bebfe67120000000000000000000000000000000000000000036d78bfe63b9cbf47aee463",
          "blockHash": "0x8570220eddea09a85d2d80c80a42fd50ba6582c0cd87f81ab31e2e4aa76a3db5",
          "blockNumber": "0x96e5a1",
          "blockTimestamp": "0x66f2f298",
          "transactionHash": "0x9526471edf13661c06e59e05ddb0053a4cc099eea982e6d8738f9275aed1dc79",
          "transactionIndex": "0x2",
          "logIndex": "0x1f",
          "removed": false
        },
        {
          "address": "0x176211869ca2b568f2a7d4ee941e073a821ee1ff",
          "topics": [
            "0xddf252ad1be2c89b69c2b068fc378daa952ba7f163c4a11628f55a4df523b3ef",
            "0x0000000000000000000000008ee06e608de47ea1b185583aca65e34f2fd79b13",
            "0x0000000000000000000000002e207eca8b6bf77a6ac82763eeed2a94de4f081d"
          ],
          "data": "0x000000000000000000000000000000000000000000000000000000000bed48a0",
          "blockHash": "0x8570220eddea09a85d2d80c80a42fd50ba6582c0cd87f81ab31e2e4aa76a3db5",
          "blockNumber": "0x96e5a1",
          "blockTimestamp": "0x66f2f298",
          "transactionHash": "0x9526471edf13661c06e59e05ddb0053a4cc099eea982e6d8738f9275aed1dc79",
          "transactionIndex": "0x2",
          "logIndex": "0x20",
          "removed": false
        },
        {
          "address": "0x2f9bb73a8e98793e26cb2f6c4ad037bdf1c6b269",
          "topics": [
            "0xefefaba5e921573100900a3ad9cf29f222d995fb3b6045797eaea7521bd8d6f0",
            "0x0000000000000000000000008ee06e608de47ea1b185583aca65e34f2fd79b13",
            "0x000000000000000000000000176211869ca2b568f2a7d4ee941e073a821ee1ff",
            "0x0000000000000000000000000000000000000000000000000000000000000000"
          ],
          "data": "0x0000000000000000000000008ee06e608de47ea1b185583aca65e34f2fd79b13000000000000000000000000000000000000000000000000000000000bebc200000000000000000000000000000000000000000000000000000000000000000000000000000000000000000000000000000000000000000000000000000186a0",
          "blockHash": "0x8570220eddea09a85d2d80c80a42fd50ba6582c0cd87f81ab31e2e4aa76a3db5",
          "blockNumber": "0x96e5a1",
          "blockTimestamp": "0x66f2f298",
          "transactionHash": "0x9526471edf13661c06e59e05ddb0053a4cc099eea982e6d8738f9275aed1dc79",
          "transactionIndex": "0x2",
          "logIndex": "0x21",
          "removed": false
        }
      ],
      "logsBloom": "0x01000000000009040080000000080000008000104000000000000000000000000800a0012000080000001000000600000010080000100014000411000020000004000020004000000008000802000000204000000000000200000004004000000000000202000000008000012000080180400000100000000100001020040000000002008000000800100004000000000000000000000000008000040000004002080010020000040000000002000010000000000010080100004000a00001000250000200000120000000204000000000020000a000060000000000000020000010200000008020000000000001000040100000000002000000400000100000",
      "type": "0x2",
      "transactionHash": "0x9526471edf13661c06e59e05ddb0053a4cc099eea982e6d8738f9275aed1dc79",
      "transactionIndex": "0x2",
      "blockHash": "0x8570220eddea09a85d2d80c80a42fd50ba6582c0cd87f81ab31e2e4aa76a3db5",
      "blockNumber": "0x96e5a1",
      "gasUsed": "0x12396f",
      "effectiveGasPrice": "0x77626ac",
      "blobGasPrice": "0x1",
      "from": "0xf39fd6e51aad88f6f4ce6ab8827279cfffb92266",
      "to": "0x0b306bf915c4d645ff596e518faf3f9669b97016",
      "contractAddress": null,
      "root": "0x0000000000000000000000000000000000000000000000000000000000000000"
    }
  ],
  "libraries": [],
  "pending": [],
  "returns": {},
  "timestamp": 1727197847,
  "chain": 59144,
  "commit": "a0c2ae3"
}