{
  "transactions": [
    {
      "hash": "0x01d2112c158cbddf13ac8009500281e6aa005442e3cd8923b889bbd73e41e823",
      "transactionType": "CALL",
      "contractName": null,
      "contractAddress": "0xe5d7c2a44ffddf6b295a15c148167daaaf5cf34f",
      "function": "approve(address,uint256)",
      "arguments": [
        "0x0B306BF915C4d645ff596e518fAf3F9669b97016",
        "115792089237316195423570985008687907853269984665640564039457584007913129639935"
      ],
      "transaction": {
        "from": "0xf39fd6e51aad88f6f4ce6ab8827279cfffb92266",
        "to": "0xe5d7c2a44ffddf6b295a15c148167daaaf5cf34f",
        "gas": "0x8ec9",
        "value": "0x0",
        "input": "0x095ea7b30000000000000000000000000b306bf915c4d645ff596e518faf3f9669b97016ffffffffffffffffffffffffffffffffffffffffffffffffffffffffffffffff",
        "nonce": "0x26",
        "chainId": "0xe708"
      },
      "additionalContracts": [],
      "isFixedGasLimit": false
    },
    {
      "hash": "0xe0c3a864e6139d9565f5a02153fd535902b01e88a6b06f3212e5c511b3210eb0",
      "transactionType": "CALL",
      "contractName": null,
      "contractAddress": "0x176211869ca2b568f2a7d4ee941e073a821ee1ff",
      "function": "approve(address,uint256)",
      "arguments": [
        "0x0B306BF915C4d645ff596e518fAf3F9669b97016",
        "115792089237316195423570985008687907853269984665640564039457584007913129639935"
      ],
      "transaction": {
        "from": "0xf39fd6e51aad88f6f4ce6ab8827279cfffb92266",
        "to": "0x176211869ca2b568f2a7d4ee941e073a821ee1ff",
        "gas": "0xf62a",
        "value": "0x0",
        "input": "0x095ea7b30000000000000000000000000b306bf915c4d645ff596e518faf3f9669b97016ffffffffffffffffffffffffffffffffffffffffffffffffffffffffffffffff",
        "nonce": "0x27",
        "chainId": "0xe708"
      },
      "additionalContracts": [],
      "isFixedGasLimit": false
    },
    {
      "hash": "0xca12a76ace1ab37391798565440b45b56ca870b2e98d6fcc0a96c4acbd4143ae",
      "transactionType": "CALL",
      "contractName": null,
      "contractAddress": "0x0b306bf915c4d645ff596e518faf3f9669b97016",
      "function": "closePosition(uint256,bytes)",
      "arguments": [
        "0",
        "0x83bd37f90001e5d7c2a44ffddf6b295a15c148167daaaf5cf34f0001176211869ca2b568f2a7d4ee941e073a821ee1ff0801b3d699f253ccd00411e0353c028f5c000156c85a254dd12ee8d9c04049a4ab62769ce9821000000001c8c56cee6abc9b297c0f0bd1cc6ee0e8f4e4fc610000000003010203000d0101010200ff0000000000000000000000000000000000000000005615a7b1619980f7d6b5e7f69f3dc093dfe0c95ce5d7c2a44ffddf6b295a15c148167daaaf5cf34f000000000000000000000000000000000000000000000000"
      ],
      "transaction": {
        "from": "0xf39fd6e51aad88f6f4ce6ab8827279cfffb92266",
        "to": "0x0b306bf915c4d645ff596e518faf3f9669b97016",
        "gas": "0xf2bda",
        "value": "0x0",
        "input": "0x0e8261130000000000000000000000000000000000000000000000000000000000000000000000000000000000000000000000000000000000000000000000000000004000000000000000000000000000000000000000000000000000000000000000d483bd37f90001e5d7c2a44ffddf6b295a15c148167daaaf5cf34f0001176211869ca2b568f2a7d4ee941e073a821ee1ff0801b3d699f253ccd00411e0353c028f5c000156c85a254dd12ee8d9c04049a4ab62769ce9821000000001c8c56cee6abc9b297c0f0bd1cc6ee0e8f4e4fc610000000003010203000d0101010200ff0000000000000000000000000000000000000000005615a7b1619980f7d6b5e7f69f3dc093dfe0c95ce5d7c2a44ffddf6b295a15c148167daaaf5cf34f000000000000000000000000000000000000000000000000000000000000000000000000",
        "nonce": "0x28",
        "chainId": "0xe708"
      },
      "additionalContracts": [],
      "isFixedGasLimit": false
    }
  ],
  "receipts": [
    {
      "status": "0x1",
      "cumulativeGasUsed": "0x6760",
      "logs": [
        {
          "address": "0xe5d7c2a44ffddf6b295a15c148167daaaf5cf34f",
          "topics": [
            "0x8c5be1e5ebec7d5bd14f71427d1e84f3dd0314c0f7b2291e5b200ac8c7c3b925",
            "0x000000000000000000000000f39fd6e51aad88f6f4ce6ab8827279cfffb92266",
            "0x0000000000000000000000000b306bf915c4d645ff596e518faf3f9669b97016"
          ],
          "data": "0xffffffffffffffffffffffffffffffffffffffffffffffffffffffffffffffff",
          "blockHash": "0x7e33d3d1f7b02f04a69df8a0c252c69777270bd9d7ce1e7a295591dccbe2dde0",
          "blockNumber": "0x8fd794",
          "blockTimestamp": "0x66e4c767",
          "transactionHash": "0x01d2112c158cbddf13ac8009500281e6aa005442e3cd8923b889bbd73e41e823",
          "transactionIndex": "0x0",
          "logIndex": "0x0",
          "removed": false
        }
      ],
      "logsBloom": "0x0000000000000000000000000000000800000000000000000000000000000000000000000000000000000000000000000000000000000000000000000020000000000000000000000000000000000000000000000000000000000000000000000000000000000000000000030000000000000000000000000000000000000000000000000000000000100000000000000000000000000000000000000000000002000000000000000000000000000000000000000000000000000000200000000000000000000020000000000000000000000000a000000000000000000000000010000000000000000000000400000000000000000000000000000000000000",
      "type": "0x2",
      "transactionHash": "0x01d2112c158cbddf13ac8009500281e6aa005442e3cd8923b889bbd73e41e823",
      "transactionIndex": "0x0",
      "blockHash": "0x7e33d3d1f7b02f04a69df8a0c252c69777270bd9d7ce1e7a295591dccbe2dde0",
      "blockNumber": "0x8fd794",
      "gasUsed": "0x6760",
      "effectiveGasPrice": "0x3938707",
      "blobGasPrice": "0x1",
      "from": "0xf39fd6e51aad88f6f4ce6ab8827279cfffb92266",
      "to": "0xe5d7c2a44ffddf6b295a15c148167daaaf5cf34f",
      "contractAddress": null,
      "root": "0x0000000000000000000000000000000000000000000000000000000000000000"
    },
    {
      "status": "0x1",
      "cumulativeGasUsed": "0xa852",
      "logs": [
        {
          "address": "0x176211869ca2b568f2a7d4ee941e073a821ee1ff",
          "topics": [
            "0x8c5be1e5ebec7d5bd14f71427d1e84f3dd0314c0f7b2291e5b200ac8c7c3b925",
            "0x000000000000000000000000f39fd6e51aad88f6f4ce6ab8827279cfffb92266",
            "0x0000000000000000000000000b306bf915c4d645ff596e518faf3f9669b97016"
          ],
          "data": "0xffffffffffffffffffffffffffffffffffffffffffffffffffffffffffffffff",
          "blockHash": "0xa295c68cab2ce7a44b63ca0bb33ce39e6d84aeb387d4482e94e6f9cc81964ec5",
          "blockNumber": "0x8fd795",
          "blockTimestamp": "0x66e4c768",
          "transactionHash": "0xe0c3a864e6139d9565f5a02153fd535902b01e88a6b06f3212e5c511b3210eb0",
          "transactionIndex": "0x0",
          "logIndex": "0x0",
          "removed": false
        }
      ],
      "logsBloom": "0x00000000000000000000000000000008000000000000000000000000000000000000000000000000000000000000000000000800000000000004000000200000000000000000000000000000020000000000000000000000000000000000000000000000000000000000000300000000000000000000000000000000000000000000000000000000000000000000000000000000000000000000000000000000020000000000000000000000000000000000000000000000000000000000000000000000000000200000000000000000000000002000000000000000000000000010000000000000000000000400000000000000000000000000000000000000",
      "type": "0x2",
      "transactionHash": "0xe0c3a864e6139d9565f5a02153fd535902b01e88a6b06f3212e5c511b3210eb0",
      "transactionIndex": "0x0",
      "blockHash": "0xa295c68cab2ce7a44b63ca0bb33ce39e6d84aeb387d4482e94e6f9cc81964ec5",
      "blockNumber": "0x8fd795",
      "gasUsed": "0xa852",
      "effectiveGasPrice": "0x3938707",
      "blobGasPrice": "0x1",
      "from": "0xf39fd6e51aad88f6f4ce6ab8827279cfffb92266",
      "to": "0x176211869ca2b568f2a7d4ee941e073a821ee1ff",
      "contractAddress": null,
      "root": "0x0000000000000000000000000000000000000000000000000000000000000000"
    },
    {
      "status": "0x1",
      "cumulativeGasUsed": "0xba5ed",
      "logs": [
        {
          "address": "0x176211869ca2b568f2a7d4ee941e073a821ee1ff",
          "topics": [
            "0xddf252ad1be2c89b69c2b068fc378daa952ba7f163c4a11628f55a4df523b3ef",
            "0x0000000000000000000000002e207eca8b6bf77a6ac82763eeed2a94de4f081d",
            "0x000000000000000000000000c8c56cee6abc9b297c0f0bd1cc6ee0e8f4e4fc61"
          ],
          "data": "0x000000000000000000000000000000000000000000000000000000000bed48f4",
          "blockHash": "0x67035024acc82275a2ec87b0d665af1d2c9ee5cd0f7b40e04eca3d3133b2e8a1",
          "blockNumber": "0x8fd796",
          "blockTimestamp": "0x66e4c769",
          "transactionHash": "0xca12a76ace1ab37391798565440b45b56ca870b2e98d6fcc0a96c4acbd4143ae",
          "transactionIndex": "0x0",
          "logIndex": "0x0",
          "removed": false
        },
        {
          "address": "0x176211869ca2b568f2a7d4ee941e073a821ee1ff",
          "topics": [
            "0x8c5be1e5ebec7d5bd14f71427d1e84f3dd0314c0f7b2291e5b200ac8c7c3b925",
            "0x000000000000000000000000c8c56cee6abc9b297c0f0bd1cc6ee0e8f4e4fc61",
            "0x0000000000000000000000002f9bb73a8e98793e26cb2f6c4ad037bdf1c6b269"
          ],
          "data": "0x000000000000000000000000000000000000000000000000000000000bed48f4",
          "blockHash": "0x67035024acc82275a2ec87b0d665af1d2c9ee5cd0f7b40e04eca3d3133b2e8a1",
          "blockNumber": "0x8fd796",
          "blockTimestamp": "0x66e4c769",
          "transactionHash": "0xca12a76ace1ab37391798565440b45b56ca870b2e98d6fcc0a96c4acbd4143ae",
          "transactionIndex": "0x0",
          "logIndex": "0x1",
          "removed": false
        },
        {
          "address": "0x28f6899ff643261ca9766ddc251b359a2d00b945",
          "topics": [
            "0x3303facd24627943a92e9dc87cfbb34b15c49b726eec3ad3487c16be9ab8efe8",
            "0x000000000000000000000000a2703dc9fbaccd6ec2e4cbfa700989d0238133f6",
            "0x00000000000000000000000078354f8dccb269a615a7e0a24f9b0718fdc3c7a7",
            "0x000000000000000000000000c8c56cee6abc9b297c0f0bd1cc6ee0e8f4e4fc61"
          ],
          "data": "0x0000000000000000000000000000000000000000000000017358659df8e374e70000000000000000000000000000000000000000000000017358659df8e374e70000000000000000000000000000000000000000000000000082735e5729efc7",
          "blockHash": "0x67035024acc82275a2ec87b0d665af1d2c9ee5cd0f7b40e04eca3d3133b2e8a1",
          "blockNumber": "0x8fd796",
          "blockTimestamp": "0x66e4c769",
          "transactionHash": "0xca12a76ace1ab37391798565440b45b56ca870b2e98d6fcc0a96c4acbd4143ae",
          "transactionIndex": "0x0",
          "logIndex": "0x2",
          "removed": false
        },
        {
          "address": "0xa2703dc9fbaccd6ec2e4cbfa700989d0238133f6",
          "topics": [
            "0xddf252ad1be2c89b69c2b068fc378daa952ba7f163c4a11628f55a4df523b3ef",
            "0x000000000000000000000000c8c56cee6abc9b297c0f0bd1cc6ee0e8f4e4fc61",
            "0x0000000000000000000000000000000000000000000000000000000000000000"
          ],
          "data": "0x000000000000000000000000000000000000000000000000000000000bed489f",
          "blockHash": "0x67035024acc82275a2ec87b0d665af1d2c9ee5cd0f7b40e04eca3d3133b2e8a1",
          "blockNumber": "0x8fd796",
          "blockTimestamp": "0x66e4c769",
          "transactionHash": "0xca12a76ace1ab37391798565440b45b56ca870b2e98d6fcc0a96c4acbd4143ae",
          "transactionIndex": "0x0",
          "logIndex": "0x3",
          "removed": false
        },
        {
          "address": "0xa2703dc9fbaccd6ec2e4cbfa700989d0238133f6",
          "topics": [
            "0x4cf25bc1d991c17529c25213d3cc0cda295eeaad5f13f361969b12ea48015f90",
            "0x000000000000000000000000c8c56cee6abc9b297c0f0bd1cc6ee0e8f4e4fc61",
            "0x0000000000000000000000000000000000000000000000000000000000000000"
          ],
          "data": "0x000000000000000000000000000000000000000000000000000000000bed489f00000000000000000000000000000000000000000000000000000000000000550000000000000000000000000000000000000000036bba296f61fdf27e04d4ae",
          "blockHash": "0x67035024acc82275a2ec87b0d665af1d2c9ee5cd0f7b40e04eca3d3133b2e8a1",
          "blockNumber": "0x8fd796",
          "blockTimestamp": "0x66e4c769",
          "transactionHash": "0xca12a76ace1ab37391798565440b45b56ca870b2e98d6fcc0a96c4acbd4143ae",
          "transactionIndex": "0x0",
          "logIndex": "0x4",
          "removed": false
        },
        {
          "address": "0x2f9bb73a8e98793e26cb2f6c4ad037bdf1c6b269",
          "topics": [
            "0x804c9b842b2748a22bb64b345453a3de7ca54a6ca45ce00d415894979e22897a",
            "0x000000000000000000000000176211869ca2b568f2a7d4ee941e073a821ee1ff"
          ],
          "data": "0x000000000000000000000000000000000000000000660e9d0d9b696fe799feb8000000000000000000000000000000000000000000b5b3b0a3ef0072771517dc000000000000000000000000000000000000000000a94b5102d0fe86081517dc0000000000000000000000000000000000000000035dd5f44d835ef8dbfaf1580000000000000000000000000000000000000000036bba296f61fdf27e04d4ae",
          "blockHash": "0x67035024acc82275a2ec87b0d665af1d2c9ee5cd0f7b40e04eca3d3133b2e8a1",
          "blockNumber": "0x8fd796",
          "blockTimestamp": "0x66e4c769",
          "transactionHash": "0xca12a76ace1ab37391798565440b45b56ca870b2e98d6fcc0a96c4acbd4143ae",
          "transactionIndex": "0x0",
          "logIndex": "0x5",
          "removed": false
        },
        {
          "address": "0x176211869ca2b568f2a7d4ee941e073a821ee1ff",
          "topics": [
            "0xddf252ad1be2c89b69c2b068fc378daa952ba7f163c4a11628f55a4df523b3ef",
            "0x000000000000000000000000c8c56cee6abc9b297c0f0bd1cc6ee0e8f4e4fc61",
            "0x0000000000000000000000002e207eca8b6bf77a6ac82763eeed2a94de4f081d"
          ],
          "data": "0x000000000000000000000000000000000000000000000000000000000bed48f4",
          "blockHash": "0x67035024acc82275a2ec87b0d665af1d2c9ee5cd0f7b40e04eca3d3133b2e8a1",
          "blockNumber": "0x8fd796",
          "blockTimestamp": "0x66e4c769",
          "transactionHash": "0xca12a76ace1ab37391798565440b45b56ca870b2e98d6fcc0a96c4acbd4143ae",
          "transactionIndex": "0x0",
          "logIndex": "0x6",
          "removed": false
        },
        {
          "address": "0x2f9bb73a8e98793e26cb2f6c4ad037bdf1c6b269",
          "topics": [
            "0xa534c8dbe71f871f9f3530e97a74601fea17b426cae02e1c5aee42c96c784051",
            "0x000000000000000000000000176211869ca2b568f2a7d4ee941e073a821ee1ff",
            "0x000000000000000000000000c8c56cee6abc9b297c0f0bd1cc6ee0e8f4e4fc61",
            "0x000000000000000000000000c8c56cee6abc9b297c0f0bd1cc6ee0e8f4e4fc61"
          ],
          "data": "0x000000000000000000000000000000000000000000000000000000000bed48f40000000000000000000000000000000000000000000000000000000000000000",
          "blockHash": "0x67035024acc82275a2ec87b0d665af1d2c9ee5cd0f7b40e04eca3d3133b2e8a1",
          "blockNumber": "0x8fd796",
          "blockTimestamp": "0x66e4c769",
          "transactionHash": "0xca12a76ace1ab37391798565440b45b56ca870b2e98d6fcc0a96c4acbd4143ae",
          "transactionIndex": "0x0",
          "logIndex": "0x7",
          "removed": false
        },
        {
          "address": "0x2f9bb73a8e98793e26cb2f6c4ad037bdf1c6b269",
          "topics": [
            "0x804c9b842b2748a22bb64b345453a3de7ca54a6ca45ce00d415894979e22897a",
            "0x000000000000000000000000e5d7c2a44ffddf6b295a15c148167daaaf5cf34f"
          ],
          "data": "0x0000000000000000000000000000000000000000000b4790ca5690da1b3ae5590000000000000000000000000000000000000000002cb531fc3df063f069a78f0000000000000000000000000000000000000000001aca446ecf4fd3f34d3c7900000000000000000000000000000000000000000352aea42972904d99b664940000000000000000000000000000000000000000035f542440e4fc698dab779d",
          "blockHash": "0x67035024acc82275a2ec87b0d665af1d2c9ee5cd0f7b40e04eca3d3133b2e8a1",
          "blockNumber": "0x8fd796",
          "blockTimestamp": "0x66e4c769",
          "transactionHash": "0xca12a76ace1ab37391798565440b45b56ca870b2e98d6fcc0a96c4acbd4143ae",
          "transactionIndex": "0x0",
          "logIndex": "0x8",
          "removed": false
        },
        {
          "address": "0x2f9bb73a8e98793e26cb2f6c4ad037bdf1c6b269",
          "topics": [
            "0x44c58d81365b66dd4b1a7f36c25aa97b8c71c361ee4937adc1a00000227db5dd",
            "0x000000000000000000000000e5d7c2a44ffddf6b295a15c148167daaaf5cf34f",
            "0x000000000000000000000000c8c56cee6abc9b297c0f0bd1cc6ee0e8f4e4fc61"
          ],
          "data": "0x",
          "blockHash": "0x67035024acc82275a2ec87b0d665af1d2c9ee5cd0f7b40e04eca3d3133b2e8a1",
          "blockNumber": "0x8fd796",
          "blockTimestamp": "0x66e4c769",
          "transactionHash": "0xca12a76ace1ab37391798565440b45b56ca870b2e98d6fcc0a96c4acbd4143ae",
          "transactionIndex": "0x0",
          "logIndex": "0x9",
          "removed": false
        },
        {
          "address": "0x28f6899ff643261ca9766ddc251b359a2d00b945",
          "topics": [
            "0x3303facd24627943a92e9dc87cfbb34b15c49b726eec3ad3487c16be9ab8efe8",
            "0x000000000000000000000000b4ffef15daf4c02787bc5332580b838ce39805f5",
            "0x00000000000000000000000078354f8dccb269a615a7e0a24f9b0718fdc3c7a7",
            "0x000000000000000000000000c8c56cee6abc9b297c0f0bd1cc6ee0e8f4e4fc61"
          ],
          "data": "0x000000000000000000000000000000000000000000000283dcfd77fdb069e82e000000000000000000000000000000000000000000000283dcfd77fdb069e82e000000000000000000000000000000000000000000000000000e9265b3cbc49e",
          "blockHash": "0x67035024acc82275a2ec87b0d665af1d2c9ee5cd0f7b40e04eca3d3133b2e8a1",
          "blockNumber": "0x8fd796",
          "blockTimestamp": "0x66e4c769",
          "transactionHash": "0xca12a76ace1ab37391798565440b45b56ca870b2e98d6fcc0a96c4acbd4143ae",
          "transactionIndex": "0x0",
          "logIndex": "0xa",
          "removed": false
        },
        {
          "address": "0xb4ffef15daf4c02787bc5332580b838ce39805f5",
          "topics": [
            "0xddf252ad1be2c89b69c2b068fc378daa952ba7f163c4a11628f55a4df523b3ef",
            "0x000000000000000000000000c8c56cee6abc9b297c0f0bd1cc6ee0e8f4e4fc61",
            "0x0000000000000000000000000000000000000000000000000000000000000000"
          ],
          "data": "0x00000000000000000000000000000000000000000000000001b3d699f253ccd7",
          "blockHash": "0x67035024acc82275a2ec87b0d665af1d2c9ee5cd0f7b40e04eca3d3133b2e8a1",
          "blockNumber": "0x8fd796",
          "blockTimestamp": "0x66e4c769",
          "transactionHash": "0xca12a76ace1ab37391798565440b45b56ca870b2e98d6fcc0a96c4acbd4143ae",
          "transactionIndex": "0x0",
          "logIndex": "0xb",
          "removed": false
        },
        {
          "address": "0xb4ffef15daf4c02787bc5332580b838ce39805f5",
          "topics": [
            "0x4cf25bc1d991c17529c25213d3cc0cda295eeaad5f13f361969b12ea48015f90",
            "0x000000000000000000000000c8c56cee6abc9b297c0f0bd1cc6ee0e8f4e4fc61",
            "0x000000000000000000000000c8c56cee6abc9b297c0f0bd1cc6ee0e8f4e4fc61"
          ],
          "data": "0x00000000000000000000000000000000000000000000000001b3d699f253ccd700000000000000000000000000000000000000000000000000000000cd83667400000000000000000000000000000000000000000352aea42972904d99b66494",
          "blockHash": "0x67035024acc82275a2ec87b0d665af1d2c9ee5cd0f7b40e04eca3d3133b2e8a1",
          "blockNumber": "0x8fd796",
          "blockTimestamp": "0x66e4c769",
          "transactionHash": "0xca12a76ace1ab37391798565440b45b56ca870b2e98d6fcc0a96c4acbd4143ae",
          "transactionIndex": "0x0",
          "logIndex": "0xc",
          "removed": false
        },
        {
          "address": "0xe5d7c2a44ffddf6b295a15c148167daaaf5cf34f",
          "topics": [
            "0xddf252ad1be2c89b69c2b068fc378daa952ba7f163c4a11628f55a4df523b3ef",
            "0x000000000000000000000000b4ffef15daf4c02787bc5332580b838ce39805f5",
            "0x000000000000000000000000c8c56cee6abc9b297c0f0bd1cc6ee0e8f4e4fc61"
          ],
          "data": "0x00000000000000000000000000000000000000000000000001b3d69abfd7334b",
          "blockHash": "0x67035024acc82275a2ec87b0d665af1d2c9ee5cd0f7b40e04eca3d3133b2e8a1",
          "blockNumber": "0x8fd796",
          "blockTimestamp": "0x66e4c769",
          "transactionHash": "0xca12a76ace1ab37391798565440b45b56ca870b2e98d6fcc0a96c4acbd4143ae",
          "transactionIndex": "0x0",
          "logIndex": "0xd",
          "removed": false
        },
        {
          "address": "0x2f9bb73a8e98793e26cb2f6c4ad037bdf1c6b269",
          "topics": [
            "0x3115d1449a7b732c986cba18244e897a450f61e1bb8d589cd2e69e6c8924f9f7",
            "0x000000000000000000000000e5d7c2a44ffddf6b295a15c148167daaaf5cf34f",
            "0x000000000000000000000000c8c56cee6abc9b297c0f0bd1cc6ee0e8f4e4fc61",
            "0x000000000000000000000000c8c56cee6abc9b297c0f0bd1cc6ee0e8f4e4fc61"
          ],
          "data": "0x00000000000000000000000000000000000000000000000001b3d69abfd7334b",
          "blockHash": "0x67035024acc82275a2ec87b0d665af1d2c9ee5cd0f7b40e04eca3d3133b2e8a1",
          "blockNumber": "0x8fd796",
          "blockTimestamp": "0x66e4c769",
          "transactionHash": "0xca12a76ace1ab37391798565440b45b56ca870b2e98d6fcc0a96c4acbd4143ae",
          "transactionIndex": "0x0",
          "logIndex": "0xe",
          "removed": false
        },
        {
          "address": "0xe5d7c2a44ffddf6b295a15c148167daaaf5cf34f",
          "topics": [
            "0x8c5be1e5ebec7d5bd14f71427d1e84f3dd0314c0f7b2291e5b200ac8c7c3b925",
            "0x000000000000000000000000c8c56cee6abc9b297c0f0bd1cc6ee0e8f4e4fc61",
            "0x0000000000000000000000002d8879046f1559e53eb052e949e9544bcb72f414"
          ],
          "data": "0x00000000000000000000000000000000000000000000000001b3d69abfd7334b",
          "blockHash": "0x67035024acc82275a2ec87b0d665af1d2c9ee5cd0f7b40e04eca3d3133b2e8a1",
          "blockNumber": "0x8fd796",
          "blockTimestamp": "0x66e4c769",
          "transactionHash": "0xca12a76ace1ab37391798565440b45b56ca870b2e98d6fcc0a96c4acbd4143ae",
          "transactionIndex": "0x0",
          "logIndex": "0xf",
          "removed": false
        },
        {
          "address": "0xe5d7c2a44ffddf6b295a15c148167daaaf5cf34f",
          "topics": [
            "0xddf252ad1be2c89b69c2b068fc378daa952ba7f163c4a11628f55a4df523b3ef",
            "0x000000000000000000000000c8c56cee6abc9b297c0f0bd1cc6ee0e8f4e4fc61",
            "0x00000000000000000000000056c85a254dd12ee8d9c04049a4ab62769ce98210"
          ],
          "data": "0x00000000000000000000000000000000000000000000000001b3d699f253ccd0",
          "blockHash": "0x67035024acc82275a2ec87b0d665af1d2c9ee5cd0f7b40e04eca3d3133b2e8a1",
          "blockNumber": "0x8fd796",
          "blockTimestamp": "0x66e4c769",
          "transactionHash": "0xca12a76ace1ab37391798565440b45b56ca870b2e98d6fcc0a96c4acbd4143ae",
          "transactionIndex": "0x0",
          "logIndex": "0x10",
          "removed": false
        },
        {
          "address": "0x176211869ca2b568f2a7d4ee941e073a821ee1ff",
          "topics": [
            "0xddf252ad1be2c89b69c2b068fc378daa952ba7f163c4a11628f55a4df523b3ef",
            "0x0000000000000000000000005615a7b1619980f7d6b5e7f69f3dc093dfe0c95c",
            "0x0000000000000000000000002d8879046f1559e53eb052e949e9544bcb72f414"
          ],
          "data": "0x0000000000000000000000000000000000000000000000000000000011de74da",
          "blockHash": "0x67035024acc82275a2ec87b0d665af1d2c9ee5cd0f7b40e04eca3d3133b2e8a1",
          "blockNumber": "0x8fd796",
          "blockTimestamp": "0x66e4c769",
          "transactionHash": "0xca12a76ace1ab37391798565440b45b56ca870b2e98d6fcc0a96c4acbd4143ae",
          "transactionIndex": "0x0",
          "logIndex": "0x11",
          "removed": false
        },
        {
          "address": "0xe5d7c2a44ffddf6b295a15c148167daaaf5cf34f",
          "topics": [
            "0xddf252ad1be2c89b69c2b068fc378daa952ba7f163c4a11628f55a4df523b3ef",
            "0x00000000000000000000000056c85a254dd12ee8d9c04049a4ab62769ce98210",
            "0x0000000000000000000000005615a7b1619980f7d6b5e7f69f3dc093dfe0c95c"
          ],
          "data": "0x00000000000000000000000000000000000000000000000001b3d699f2538d9e",
          "blockHash": "0x67035024acc82275a2ec87b0d665af1d2c9ee5cd0f7b40e04eca3d3133b2e8a1",
          "blockNumber": "0x8fd796",
          "blockTimestamp": "0x66e4c769",
          "transactionHash": "0xca12a76ace1ab37391798565440b45b56ca870b2e98d6fcc0a96c4acbd4143ae",
          "transactionIndex": "0x0",
          "logIndex": "0x12",
          "removed": false
        },
        {
          "address": "0x5615a7b1619980f7d6b5e7f69f3dc093dfe0c95c",
          "topics": [
            "0x0fe977d619f8172f7fdbe8bb8928ef80952817d96936509f67d66346bc4cd10f",
            "0x000000000000000000000000176211869ca2b568f2a7d4ee941e073a821ee1ff",
            "0x000000000000000000000000e5d7c2a44ffddf6b295a15c148167daaaf5cf34f",
            "0x00000000000000000000000000000000000000000000000000000000000001f4"
          ],
          "data": "0x00000000000000000000000000000000000000000000000000000000000000000000000000000000000000000000000000000000000000000000000011de74da00000000000000000000000000000000000000000000000001b3d699f2538d9e00000000000000000000000000000000000000000000000000000000000306a0",
          "blockHash": "0x67035024acc82275a2ec87b0d665af1d2c9ee5cd0f7b40e04eca3d3133b2e8a1",
          "blockNumber": "0x8fd796",
          "blockTimestamp": "0x66e4c769",
          "transactionHash": "0xca12a76ace1ab37391798565440b45b56ca870b2e98d6fcc0a96c4acbd4143ae",
          "transactionIndex": "0x0",
          "logIndex": "0x13",
          "removed": false
        },
        {
          "address": "0xe5d7c2a44ffddf6b295a15c148167daaaf5cf34f",
          "topics": [
            "0xddf252ad1be2c89b69c2b068fc378daa952ba7f163c4a11628f55a4df523b3ef",
            "0x00000000000000000000000056c85a254dd12ee8d9c04049a4ab62769ce98210",
            "0x000000000000000000000000f39fd6e51aad88f6f4ce6ab8827279cfffb92266"
          ],
          "data": "0x0000000000000000000000000000000000000000000000000000000000003f32",
          "blockHash": "0x67035024acc82275a2ec87b0d665af1d2c9ee5cd0f7b40e04eca3d3133b2e8a1",
          "blockNumber": "0x8fd796",
          "blockTimestamp": "0x66e4c769",
          "transactionHash": "0xca12a76ace1ab37391798565440b45b56ca870b2e98d6fcc0a96c4acbd4143ae",
          "transactionIndex": "0x0",
          "logIndex": "0x14",
          "removed": false
        },
        {
          "address": "0x176211869ca2b568f2a7d4ee941e073a821ee1ff",
          "topics": [
            "0xddf252ad1be2c89b69c2b068fc378daa952ba7f163c4a11628f55a4df523b3ef",
            "0x0000000000000000000000002d8879046f1559e53eb052e949e9544bcb72f414",
            "0x000000000000000000000000c8c56cee6abc9b297c0f0bd1cc6ee0e8f4e4fc61"
          ],
          "data": "0x0000000000000000000000000000000000000000000000000000000011de74da",
          "blockHash": "0x67035024acc82275a2ec87b0d665af1d2c9ee5cd0f7b40e04eca3d3133b2e8a1",
          "blockNumber": "0x8fd796",
          "blockTimestamp": "0x66e4c769",
          "transactionHash": "0xca12a76ace1ab37391798565440b45b56ca870b2e98d6fcc0a96c4acbd4143ae",
          "transactionIndex": "0x0",
          "logIndex": "0x15",
          "removed": false
        },
        {
          "address": "0x2d8879046f1559e53eb052e949e9544bcb72f414",
          "topics": [
            "0x823eaf01002d7353fbcadb2ea3305cc46fa35d799cb0914846d185ac06f8ad05"
          ],
          "data": "0x000000000000000000000000c8c56cee6abc9b297c0f0bd1cc6ee0e8f4e4fc6100000000000000000000000000000000000000000000000001b3d699f253ccd0000000000000000000000000e5d7c2a44ffddf6b295a15c148167daaaf5cf34f0000000000000000000000000000000000000000000000000000000011de74da000000000000000000000000176211869ca2b568f2a7d4ee941e073a821ee1fffffffffffffffffffffffffffffffffffffffffffffffffffffffffffffe3f9e0000000000000000000000000000000000000000000000000000000000000000",
          "blockHash": "0x67035024acc82275a2ec87b0d665af1d2c9ee5cd0f7b40e04eca3d3133b2e8a1",
          "blockNumber": "0x8fd796",
          "blockTimestamp": "0x66e4c769",
          "transactionHash": "0xca12a76ace1ab37391798565440b45b56ca870b2e98d6fcc0a96c4acbd4143ae",
          "transactionIndex": "0x0",
          "logIndex": "0x16",
          "removed": false
        },
        {
          "address": "0x176211869ca2b568f2a7d4ee941e073a821ee1ff",
          "topics": [
            "0x8c5be1e5ebec7d5bd14f71427d1e84f3dd0314c0f7b2291e5b200ac8c7c3b925",
            "0x000000000000000000000000c8c56cee6abc9b297c0f0bd1cc6ee0e8f4e4fc61",
            "0x0000000000000000000000002f9bb73a8e98793e26cb2f6c4ad037bdf1c6b269"
          ],
          "data": "0x0000000000000000000000000000000000000000000000000000000011de74da",
          "blockHash": "0x67035024acc82275a2ec87b0d665af1d2c9ee5cd0f7b40e04eca3d3133b2e8a1",
          "blockNumber": "0x8fd796",
          "blockTimestamp": "0x66e4c769",
          "transactionHash": "0xca12a76ace1ab37391798565440b45b56ca870b2e98d6fcc0a96c4acbd4143ae",
          "transactionIndex": "0x0",
          "logIndex": "0x17",
          "removed": false
        },
        {
          "address": "0x176211869ca2b568f2a7d4ee941e073a821ee1ff",
          "topics": [
            "0xddf252ad1be2c89b69c2b068fc378daa952ba7f163c4a11628f55a4df523b3ef",
            "0x000000000000000000000000c8c56cee6abc9b297c0f0bd1cc6ee0e8f4e4fc61",
            "0x000000000000000000000000f39fd6e51aad88f6f4ce6ab8827279cfffb92266"
          ],
          "data": "0x0000000000000000000000000000000000000000000000000000000005efa514",
          "blockHash": "0x67035024acc82275a2ec87b0d665af1d2c9ee5cd0f7b40e04eca3d3133b2e8a1",
          "blockNumber": "0x8fd796",
          "blockTimestamp": "0x66e4c769",
          "transactionHash": "0xca12a76ace1ab37391798565440b45b56ca870b2e98d6fcc0a96c4acbd4143ae",
          "transactionIndex": "0x0",
          "logIndex": "0x18",
          "removed": false
        },
        {
          "address": "0x176211869ca2b568f2a7d4ee941e073a821ee1ff",
          "topics": [
            "0x8c5be1e5ebec7d5bd14f71427d1e84f3dd0314c0f7b2291e5b200ac8c7c3b925",
            "0x000000000000000000000000c8c56cee6abc9b297c0f0bd1cc6ee0e8f4e4fc61",
            "0x0000000000000000000000002f9bb73a8e98793e26cb2f6c4ad037bdf1c6b269"
          ],
          "data": "0x0000000000000000000000000000000000000000000000000000000000000000",
          "blockHash": "0x67035024acc82275a2ec87b0d665af1d2c9ee5cd0f7b40e04eca3d3133b2e8a1",
          "blockNumber": "0x8fd796",
          "blockTimestamp": "0x66e4c769",
          "transactionHash": "0xca12a76ace1ab37391798565440b45b56ca870b2e98d6fcc0a96c4acbd4143ae",
          "transactionIndex": "0x0",
          "logIndex": "0x19",
          "removed": false
        },
        {
          "address": "0xe5d7c2a44ffddf6b295a15c148167daaaf5cf34f",
          "topics": [
            "0x8c5be1e5ebec7d5bd14f71427d1e84f3dd0314c0f7b2291e5b200ac8c7c3b925",
            "0x000000000000000000000000c8c56cee6abc9b297c0f0bd1cc6ee0e8f4e4fc61",
            "0x0000000000000000000000002d8879046f1559e53eb052e949e9544bcb72f414"
          ],
          "data": "0x0000000000000000000000000000000000000000000000000000000000000000",
          "blockHash": "0x67035024acc82275a2ec87b0d665af1d2c9ee5cd0f7b40e04eca3d3133b2e8a1",
          "blockNumber": "0x8fd796",
          "blockTimestamp": "0x66e4c769",
          "transactionHash": "0xca12a76ace1ab37391798565440b45b56ca870b2e98d6fcc0a96c4acbd4143ae",
          "transactionIndex": "0x0",
          "logIndex": "0x1a",
          "removed": false
        },
        {
          "address": "0x176211869ca2b568f2a7d4ee941e073a821ee1ff",
          "topics": [
            "0x8c5be1e5ebec7d5bd14f71427d1e84f3dd0314c0f7b2291e5b200ac8c7c3b925",
            "0x000000000000000000000000c8c56cee6abc9b297c0f0bd1cc6ee0e8f4e4fc61",
            "0x0000000000000000000000002f9bb73a8e98793e26cb2f6c4ad037bdf1c6b269"
          ],
          "data": "0x000000000000000000000000000000000000000000000000000000000beecfc6",
          "blockHash": "0x67035024acc82275a2ec87b0d665af1d2c9ee5cd0f7b40e04eca3d3133b2e8a1",
          "blockNumber": "0x8fd796",
          "blockTimestamp": "0x66e4c769",
          "transactionHash": "0xca12a76ace1ab37391798565440b45b56ca870b2e98d6fcc0a96c4acbd4143ae",
          "transactionIndex": "0x0",
          "logIndex": "0x1b",
          "removed": false
        },
        {
          "address": "0x2f9bb73a8e98793e26cb2f6c4ad037bdf1c6b269",
          "topics": [
            "0x804c9b842b2748a22bb64b345453a3de7ca54a6ca45ce00d415894979e22897a",
            "0x000000000000000000000000176211869ca2b568f2a7d4ee941e073a821ee1ff"
          ],
          "data": "0x0000000000000000000000000000000000000000006601bece74a1691e73700e000000000000000000000000000000000000000000b59f19d88e1208dde70918000000000000000000000000000000000000000000a936ba3770101c6ee709180000000000000000000000000000000000000000035dd5f4cbb821818df085330000000000000000000000000000000000000000036bba296f61fdf27e04d4ae",
          "blockHash": "0x67035024acc82275a2ec87b0d665af1d2c9ee5cd0f7b40e04eca3d3133b2e8a1",
          "blockNumber": "0x8fd796",
          "blockTimestamp": "0x66e4c769",
          "transactionHash": "0xca12a76ace1ab37391798565440b45b56ca870b2e98d6fcc0a96c4acbd4143ae",
          "transactionIndex": "0x0",
          "logIndex": "0x1c",
          "removed": false
        },
        {
          "address": "0x176211869ca2b568f2a7d4ee941e073a821ee1ff",
          "topics": [
            "0xddf252ad1be2c89b69c2b068fc378daa952ba7f163c4a11628f55a4df523b3ef",
            "0x000000000000000000000000c8c56cee6abc9b297c0f0bd1cc6ee0e8f4e4fc61",
            "0x0000000000000000000000002e207eca8b6bf77a6ac82763eeed2a94de4f081d"
          ],
          "data": "0x000000000000000000000000000000000000000000000000000000000beecfc6",
          "blockHash": "0x67035024acc82275a2ec87b0d665af1d2c9ee5cd0f7b40e04eca3d3133b2e8a1",
          "blockNumber": "0x8fd796",
          "blockTimestamp": "0x66e4c769",
          "transactionHash": "0xca12a76ace1ab37391798565440b45b56ca870b2e98d6fcc0a96c4acbd4143ae",
          "transactionIndex": "0x0",
          "logIndex": "0x1d",
          "removed": false
        },
        {
          "address": "0x2f9bb73a8e98793e26cb2f6c4ad037bdf1c6b269",
          "topics": [
            "0xefefaba5e921573100900a3ad9cf29f222d995fb3b6045797eaea7521bd8d6f0",
            "0x000000000000000000000000c8c56cee6abc9b297c0f0bd1cc6ee0e8f4e4fc61",
            "0x000000000000000000000000176211869ca2b568f2a7d4ee941e073a821ee1ff",
            "0x0000000000000000000000000000000000000000000000000000000000000000"
          ],
          "data": "0x000000000000000000000000c8c56cee6abc9b297c0f0bd1cc6ee0e8f4e4fc61000000000000000000000000000000000000000000000000000000000bed48f4000000000000000000000000000000000000000000000000000000000000000000000000000000000000000000000000000000000000000000000000000186d2",
          "blockHash": "0x67035024acc82275a2ec87b0d665af1d2c9ee5cd0f7b40e04eca3d3133b2e8a1",
          "blockNumber": "0x8fd796",
          "blockTimestamp": "0x66e4c769",
          "transactionHash": "0xca12a76ace1ab37391798565440b45b56ca870b2e98d6fcc0a96c4acbd4143ae",
          "transactionIndex": "0x0",
          "logIndex": "0x1e",
          "removed": false
        }
      ],
      "logsBloom": "0x10000000000000000000000000000000008000004000000000000000000000000c0080002000000400001000000000000011480040100014000401000020000000000020000000008008000802000000204000000000000220000000004000000000000202100000008000012000080180400000100002000000001020440000000002000008000800100004000000000000000008000000008000040000004002080000028000140000080002000010000000000010080100000000a00001000050000200400020000000208000000000020000a000020000000000000020040010300000008020000080000000000000000020000002000040001000140000",
      "type": "0x2",
      "transactionHash": "0xca12a76ace1ab37391798565440b45b56ca870b2e98d6fcc0a96c4acbd4143ae",
      "transactionIndex": "0x0",
      "blockHash": "0x67035024acc82275a2ec87b0d665af1d2c9ee5cd0f7b40e04eca3d3133b2e8a1",
      "blockNumber": "0x8fd796",
      "gasUsed": "0xba5ed",
      "effectiveGasPrice": "0x3938707",
      "blobGasPrice": "0x1",
      "from": "0xf39fd6e51aad88f6f4ce6ab8827279cfffb92266",
      "to": "0x0b306bf915c4d645ff596e518faf3f9669b97016",
      "contractAddress": null,
      "root": "0x0000000000000000000000000000000000000000000000000000000000000000"
    }
  ],
  "libraries": [],
  "pending": [],
  "returns": {},
  "timestamp": 1726269288,
  "chain": 59144,
  "commit": "4a57ec2"
}