{
  "transactions": [
    {
      "hash": "0x6e0d6dd27bc2891e3ac5fa7fd404b904cb27758a29612b2584eb7f6b8e0e9eca",
      "transactionType": "CALL",
      "contractName": null,
      "contractAddress": "0xe5d7c2a44ffddf6b295a15c148167daaaf5cf34f",
      "function": "deposit()",
      "arguments": [],
      "transaction": {
        "from": "0x205edf0f225457fecfa22e5774e7a4c9177d56a8",
        "to": "0xe5d7c2a44ffddf6b295a15c148167daaaf5cf34f",
        "gas": "0xf2ff",
        "value": "0x38d7ea4c68000",
        "input": "0xd0e30db0",
        "nonce": "0x11",
        "chainId": "0xe708"
      },
      "additionalContracts": [],
      "isFixedGasLimit": false
    },
    {
      "hash": "0x0299d534a7f30efb684972940edc56d59bdc645740f6c71eda2eb7e2b906ed0d",
      "transactionType": "CALL",
      "contractName": null,
      "contractAddress": "0xe5d7c2a44ffddf6b295a15c148167daaaf5cf34f",
      "function": "approve(address,uint256)",
      "arguments": [
        "0xC76f1b20F72AE3B73376E035B54Ac3a97977d6B8",
        "1000000000000000"
      ],
      "transaction": {
        "from": "0x205edf0f225457fecfa22e5774e7a4c9177d56a8",
        "to": "0xe5d7c2a44ffddf6b295a15c148167daaaf5cf34f",
        "gas": "0xf879",
        "value": "0x0",
        "input": "0x095ea7b3000000000000000000000000c76f1b20f72ae3b73376e035b54ac3a97977d6b800000000000000000000000000000000000000000000000000038d7ea4c68000",
        "nonce": "0x12",
        "chainId": "0xe708"
      },
      "additionalContracts": [],
      "isFixedGasLimit": false
    },
    {
      "hash": null,
      "transactionType": "CALL",
      "contractName": null,
      "contractAddress": "0xc76f1b20f72ae3b73376e035b54ac3a97977d6b8",
      "function": "createAndAddToPosition((string,address,address),(uint256,uint256,bytes),address)",
      "arguments": [
        "(\"LONG_BASE_ODOS_ZEROLEND\", 0x176211869cA2b568f2A7D4EE941E073a821EE1ff, 0xe5D7C2a44FfDDf6b295A15c148167daaAf5Cf34f)",
        "(1000000000000000, 4882036, 0x83bd37f90001176211869ca2b568f2a7d4ee941e073a821ee1ff0001e5d7c2a44ffddf6b295a15c148167daaaf5cf34f034a7e7407071cf8bf5efb8a028f5c000156c85a254dd12ee8d9c04049a4ab62769ce9821000000001637b76f670b6de365ad8d07e2f6f4908e7e24bdd0000000003010203000a0101010201ff000000000000000000000000000000000000000000586733678b9ac9da43dd7cb83bbb41d23677dfc3176211869ca2b568f2a7d4ee941e073a821ee1ff000000000000000000000000000000000000000000000000)",
        "0x205edf0f225457feCFA22e5774E7a4C9177d56A8"
      ],
      "transaction": {
        "from": "0x205edf0f225457fecfa22e5774e7a4c9177d56a8",
        "to": "0xc76f1b20f72ae3b73376e035b54ac3a97977d6b8",
        "gas": "0x18ab5c",
        "value": "0x0",
        "input": "0x07b1ea7100000000000000000000000000000000000000000000000000000000000000600000000000000000000000000000000000000000000000000000000000000100000000000000000000000000205edf0f225457fecfa22e5774e7a4c9177d56a80000000000000000000000000000000000000000000000000000000000000060000000000000000000000000176211869ca2b568f2a7d4ee941e073a821ee1ff000000000000000000000000e5d7c2a44ffddf6b295a15c148167daaaf5cf34f00000000000000000000000000000000000000000000000000000000000000174c4f4e475f424153455f4f444f535f5a45524f4c454e4400000000000000000000000000000000000000000000000000000000000000000000038d7ea4c6800000000000000000000000000000000000000000000000000000000000004a7e74000000000000000000000000000000000000000000000000000000000000006000000000000000000000000000000000000000000000000000000000000000d283bd37f90001176211869ca2b568f2a7d4ee941e073a821ee1ff0001e5d7c2a44ffddf6b295a15c148167daaaf5cf34f034a7e7407071cf8bf5efb8a028f5c000156c85a254dd12ee8d9c04049a4ab62769ce9821000000001637b76f670b6de365ad8d07e2f6f4908e7e24bdd0000000003010203000a0101010201ff000000000000000000000000000000000000000000586733678b9ac9da43dd7cb83bbb41d23677dfc3176211869ca2b568f2a7d4ee941e073a821ee1ff0000000000000000000000000000000000000000000000000000000000000000000000000000",
        "nonce": "0x13",
        "chainId": "0xe708"
      },
      "additionalContracts": [
        {
          "transactionType": "CREATE2",
          "address": "0x637b76f670b6de365ad8d07e2f6f4908e7e24bdd",
          "initCode": "0x60a060405234801561001057600080fd5b506040516101d43803806101d483398101604081905261002f9161009a565b6001600160a01b0381166100895760405162461bcd60e51b815260206004820152601e60248201527f496e76616c696420696d706c656d656e746174696f6e20616464726573730000604482015260640160405180910390fd5b6001600160a01b03166080526100ca565b6000602082840312156100ac57600080fd5b81516001600160a01b03811681146100c357600080fd5b9392505050565b60805160ec6100e860003960008181602001526055015260ec6000f3fe608060405260043610601c5760003560e01c80635c60da1b146045575b60437f00000000000000000000000000000000000000000000000000000000000000006093565b005b348015605057600080fd5b5060777f000000000000000000000000000000000000000000000000000000000000000081565b6040516001600160a01b03909116815260200160405180910390f35b3660008037600080366000845af43d6000803e80801560b1573d6000f35b3d6000fdfea26469706673582212208707578ca412e82300ace16a4d6a5da27e470fdb5c28e2df5b7b3d3ba649c27e64736f6c634300081a0033000000000000000000000000fbf4323d9da38deab52259710d74923a6615b4f3"
        }
      ],
      "isFixedGasLimit": false
    }
  ],
  "receipts": [],
  "libraries": [],
  "pending": [
    "0x6e0d6dd27bc2891e3ac5fa7fd404b904cb27758a29612b2584eb7f6b8e0e9eca",
    "0x0299d534a7f30efb684972940edc56d59bdc645740f6c71eda2eb7e2b906ed0d"
  ],
  "returns": {},
  "timestamp": 1728233829,
  "chain": 59144,
  "commit": "63c5290"
}