{
  "transactions": [
    {
      "hash": "0x8753a850dac494f3a368a54b79b2a097fdea8786e48fb34d1f4953a949256dc9",
      "transactionType": "CALL",
      "contractName": null,
      "contractAddress": "0xe5d7c2a44ffddf6b295a15c148167daaaf5cf34f",
      "function": "approve(address,uint256)",
      "arguments": [
        "0x0B306BF915C4d645ff596e518fAf3F9669b97016",
        "115792089237316195423570985008687907853269984665640564039457584007913129639935"
      ],
      "transaction": {
        "from": "0xf39fd6e51aad88f6f4ce6ab8827279cfffb92266",
        "to": "0xe5d7c2a44ffddf6b295a15c148167daaaf5cf34f",
        "gas": "0xfa27",
        "value": "0x0",
        "input": "0x095ea7b30000000000000000000000000b306bf915c4d645ff596e518faf3f9669b97016ffffffffffffffffffffffffffffffffffffffffffffffffffffffffffffffff",
        "nonce": "0x23",
        "chainId": "0xe708"
      },
      "additionalContracts": [],
      "isFixedGasLimit": false
    },
    {
      "hash": "0x73c896ef759197893c9595ecdb773d0685658941b445aeaba1d6c01be06fee1b",
      "transactionType": "CALL",
      "contractName": null,
      "contractAddress": "0x176211869ca2b568f2a7d4ee941e073a821ee1ff",
      "function": "approve(address,uint256)",
      "arguments": [
        "0x0B306BF915C4d645ff596e518fAf3F9669b97016",
        "115792089237316195423570985008687907853269984665640564039457584007913129639935"
      ],
      "transaction": {
        "from": "0xf39fd6e51aad88f6f4ce6ab8827279cfffb92266",
        "to": "0x176211869ca2b568f2a7d4ee941e073a821ee1ff",
        "gas": "0xe62b",
        "value": "0x0",
        "input": "0x095ea7b30000000000000000000000000b306bf915c4d645ff596e518faf3f9669b97016ffffffffffffffffffffffffffffffffffffffffffffffffffffffffffffffff",
        "nonce": "0x24",
        "chainId": "0xe708"
      },
      "additionalContracts": [],
      "isFixedGasLimit": false
    },
    {
      "hash": "0xf10773d9801c04ec17b670f6ed99791d1117b534f680af31765f0ca5848336da",
      "transactionType": "CALL",
      "contractName": null,
      "contractAddress": "0x0b306bf915c4d645ff596e518faf3f9669b97016",
      "function": "createAndAddToPosition((string,address,address),(uint256,uint256,bytes))",
      "arguments": [
        "(\"LONG_QUOTE_ODOS_ZEROLEND\", 0x176211869cA2b568f2A7D4EE941E073a821EE1ff, 0xe5D7C2a44FfDDf6b295A15c148167daaAf5Cf34f)",
        "(100000000, 200000000, 0x83bd37f90001176211869ca2b568f2a7d4ee941e073a821ee1ff0001e5d7c2a44ffddf6b295a15c148167daaaf5cf34f0411e1a3000801b73a805d1a8e70028f5c000156c85a254dd12ee8d9c04049a4ab62769ce9821000000001c8c56cee6abc9b297c0f0bd1cc6ee0e8f4e4fc610000000005010306015d3a73cc0a0100010201000d0201030201020a0201040501ff000000efd5ec2cc043e3bd3c840f7998cc42ee712700ba176211869ca2b568f2a7d4ee941e073a821ee1ff564e52bbdf3adf10272f3f33b00d65b2ee48afff1947b87d35e9f1cd53cede1ad6f7be44c12212b8a219439258ca9da29e9cc4ce5596924745e12b9300000000000000000000000000000000000000000000000000000000)"
      ],
      "transaction": {
        "from": "0xf39fd6e51aad88f6f4ce6ab8827279cfffb92266",
        "to": "0x0b306bf915c4d645ff596e518faf3f9669b97016",
        "gas": "0x2008d8",
        "value": "0x0",
        "input": "0x211d9b04000000000000000000000000000000000000000000000000000000000000004000000000000000000000000000000000000000000000000000000000000000e00000000000000000000000000000000000000000000000000000000000000060000000000000000000000000176211869ca2b568f2a7d4ee941e073a821ee1ff000000000000000000000000e5d7c2a44ffddf6b295a15c148167daaaf5cf34f00000000000000000000000000000000000000000000000000000000000000184c4f4e475f51554f54455f4f444f535f5a45524f4c454e4400000000000000000000000000000000000000000000000000000000000000000000000005f5e100000000000000000000000000000000000000000000000000000000000bebc2000000000000000000000000000000000000000000000000000000000000000060000000000000000000000000000000000000000000000000000000000000011483bd37f90001176211869ca2b568f2a7d4ee941e073a821ee1ff0001e5d7c2a44ffddf6b295a15c148167daaaf5cf34f0411e1a3000801b73a805d1a8e70028f5c000156c85a254dd12ee8d9c04049a4ab62769ce9821000000001c8c56cee6abc9b297c0f0bd1cc6ee0e8f4e4fc610000000005010306015d3a73cc0a0100010201000d0201030201020a0201040501ff000000efd5ec2cc043e3bd3c840f7998cc42ee712700ba176211869ca2b568f2a7d4ee941e073a821ee1ff564e52bbdf3adf10272f3f33b00d65b2ee48afff1947b87d35e9f1cd53cede1ad6f7be44c12212b8a219439258ca9da29e9cc4ce5596924745e12b9300000000000000000000000000000000000000000000000000000000000000000000000000000000",
        "nonce": "0x25",
        "chainId": "0xe708"
      },
      "additionalContracts": [
        {
          "transactionType": "CREATE2",
          "address": "0xc8c56cee6abc9b297c0f0bd1cc6ee0e8f4e4fc61",
          "initCode": "0x60a060405234801561001057600080fd5b506040516101d43803806101d483398101604081905261002f9161009a565b6001600160a01b0381166100895760405162461bcd60e51b815260206004820152601e60248201527f496e76616c696420696d706c656d656e746174696f6e20616464726573730000604482015260640160405180910390fd5b6001600160a01b03166080526100ca565b6000602082840312156100ac57600080fd5b81516001600160a01b03811681146100c357600080fd5b9392505050565b60805160ec6100e860003960008181602001526055015260ec6000f3fe608060405260043610601c5760003560e01c80635c60da1b146045575b60437f00000000000000000000000000000000000000000000000000000000000000006093565b005b348015605057600080fd5b5060777f000000000000000000000000000000000000000000000000000000000000000081565b6040516001600160a01b03909116815260200160405180910390f35b3660008037600080366000845af43d6000803e80801560b1573d6000f35b3d6000fdfea2646970667358221220f6020ed423ab8c3633806cc507ff73ce07ea9bade45f63874f1be7c04b23516364736f6c634300081a003300000000000000000000000068b1d87f95878fe05b998f19b66f4baba5de1aed"
        }
      ],
      "isFixedGasLimit": false
    }
  ],
  "receipts": [
    {
      "status": "0x1",
      "cumulativeGasUsed": "0xb51c",
      "logs": [
        {
          "address": "0xe5d7c2a44ffddf6b295a15c148167daaaf5cf34f",
          "topics": [
            "0x8c5be1e5ebec7d5bd14f71427d1e84f3dd0314c0f7b2291e5b200ac8c7c3b925",
            "0x000000000000000000000000f39fd6e51aad88f6f4ce6ab8827279cfffb92266",
            "0x0000000000000000000000000b306bf915c4d645ff596e518faf3f9669b97016"
          ],
          "data": "0xffffffffffffffffffffffffffffffffffffffffffffffffffffffffffffffff",
          "blockHash": "0x10bbe4250225f93b3abe139676387e50fe24b75003562d095bacee6a22af8873",
          "blockNumber": "0x8fbd43",
          "blockTimestamp": "0x66e49284",
          "transactionHash": "0x8753a850dac494f3a368a54b79b2a097fdea8786e48fb34d1f4953a949256dc9",
          "transactionIndex": "0x0",
          "logIndex": "0x0",
          "removed": false
        }
      ],
      "logsBloom": "0x0000000000000000000000000000000800000000000000000000000000000000000000000000000000000000000000000000000000000000000000000020000000000000000000000000000000000000000000000000000000000000000000000000000000000000000000030000000000000000000000000000000000000000000000000000000000100000000000000000000000000000000000000000000002000000000000000000000000000000000000000000000000000000200000000000000000000020000000000000000000000000a000000000000000000000000010000000000000000000000400000000000000000000000000000000000000",
      "type": "0x2",
      "transactionHash": "0x8753a850dac494f3a368a54b79b2a097fdea8786e48fb34d1f4953a949256dc9",
      "transactionIndex": "0x0",
      "blockHash": "0x10bbe4250225f93b3abe139676387e50fe24b75003562d095bacee6a22af8873",
      "blockNumber": "0x8fbd43",
      "gasUsed": "0xb51c",
      "effectiveGasPrice": "0x3938707",
      "blobGasPrice": "0x1",
      "from": "0xf39fd6e51aad88f6f4ce6ab8827279cfffb92266",
      "to": "0xe5d7c2a44ffddf6b295a15c148167daaaf5cf34f",
      "contractAddress": null,
      "root": "0x0000000000000000000000000000000000000000000000000000000000000000"
    },
    {
      "status": "0x1",
      "cumulativeGasUsed": "0x9d62",
      "logs": [
        {
          "address": "0x176211869ca2b568f2a7d4ee941e073a821ee1ff",
          "topics": [
            "0x8c5be1e5ebec7d5bd14f71427d1e84f3dd0314c0f7b2291e5b200ac8c7c3b925",
            "0x000000000000000000000000f39fd6e51aad88f6f4ce6ab8827279cfffb92266",
            "0x0000000000000000000000000b306bf915c4d645ff596e518faf3f9669b97016"
          ],
          "data": "0xffffffffffffffffffffffffffffffffffffffffffffffffffffffffffffffff",
          "blockHash": "0x50d4d0d7c51f3d7a27a38c4483e1a5685639a25fe845d816109b887ecb4f33c8",
          "blockNumber": "0x8fbd44",
          "blockTimestamp": "0x66e49285",
          "transactionHash": "0x73c896ef759197893c9595ecdb773d0685658941b445aeaba1d6c01be06fee1b",
          "transactionIndex": "0x0",
          "logIndex": "0x0",
          "removed": false
        }
      ],
      "logsBloom": "0x00000000000000000000000000000008000000000000000000000000000000000000000000000000000000000000000000000800000000000004000000200000000000000000000000000000020000000000000000000000000000000000000000000000000000000000000300000000000000000000000000000000000000000000000000000000000000000000000000000000000000000000000000000000020000000000000000000000000000000000000000000000000000000000000000000000000000200000000000000000000000002000000000000000000000000010000000000000000000000400000000000000000000000000000000000000",
      "type": "0x2",
      "transactionHash": "0x73c896ef759197893c9595ecdb773d0685658941b445aeaba1d6c01be06fee1b",
      "transactionIndex": "0x0",
      "blockHash": "0x50d4d0d7c51f3d7a27a38c4483e1a5685639a25fe845d816109b887ecb4f33c8",
      "blockNumber": "0x8fbd44",
      "gasUsed": "0x9d62",
      "effectiveGasPrice": "0x3938707",
      "blobGasPrice": "0x1",
      "from": "0xf39fd6e51aad88f6f4ce6ab8827279cfffb92266",
      "to": "0x176211869ca2b568f2a7d4ee941e073a821ee1ff",
      "contractAddress": null,
      "root": "0x0000000000000000000000000000000000000000000000000000000000000000"
    },
    {
      "status": "0x1",
      "cumulativeGasUsed": "0x15e78b",
      "logs": [
        {
          "address": "0x9a9f2ccfde556a7e9ff0848998aa4a0cfd8863ae",
          "topics": [
            "0xddf252ad1be2c89b69c2b068fc378daa952ba7f163c4a11628f55a4df523b3ef",
            "0x0000000000000000000000000000000000000000000000000000000000000000",
            "0x000000000000000000000000f39fd6e51aad88f6f4ce6ab8827279cfffb92266",
            "0x0000000000000000000000000000000000000000000000000000000000000000"
          ],
          "data": "0x",
          "blockHash": "0xaafed6a5705cb4ed54f532c095981e046bf7192cf839b361de0ae1330025e492",
          "blockNumber": "0x8fbd45",
          "blockTimestamp": "0x66e49286",
          "transactionHash": "0xf10773d9801c04ec17b670f6ed99791d1117b534f680af31765f0ca5848336da",
          "transactionIndex": "0x0",
          "logIndex": "0x0",
          "removed": false
        },
        {
          "address": "0x176211869ca2b568f2a7d4ee941e073a821ee1ff",
          "topics": [
            "0xddf252ad1be2c89b69c2b068fc378daa952ba7f163c4a11628f55a4df523b3ef",
            "0x000000000000000000000000f39fd6e51aad88f6f4ce6ab8827279cfffb92266",
            "0x000000000000000000000000c8c56cee6abc9b297c0f0bd1cc6ee0e8f4e4fc61"
          ],
          "data": "0x0000000000000000000000000000000000000000000000000000000005f5e100",
          "blockHash": "0xaafed6a5705cb4ed54f532c095981e046bf7192cf839b361de0ae1330025e492",
          "blockNumber": "0x8fbd45",
          "blockTimestamp": "0x66e49286",
          "transactionHash": "0xf10773d9801c04ec17b670f6ed99791d1117b534f680af31765f0ca5848336da",
          "transactionIndex": "0x0",
          "logIndex": "0x1",
          "removed": false
        },
        {
          "address": "0x176211869ca2b568f2a7d4ee941e073a821ee1ff",
          "topics": [
            "0xddf252ad1be2c89b69c2b068fc378daa952ba7f163c4a11628f55a4df523b3ef",
            "0x0000000000000000000000002e207eca8b6bf77a6ac82763eeed2a94de4f081d",
            "0x000000000000000000000000c8c56cee6abc9b297c0f0bd1cc6ee0e8f4e4fc61"
          ],
          "data": "0x000000000000000000000000000000000000000000000000000000000bebc200",
          "blockHash": "0xaafed6a5705cb4ed54f532c095981e046bf7192cf839b361de0ae1330025e492",
          "blockNumber": "0x8fbd45",
          "blockTimestamp": "0x66e49286",
          "transactionHash": "0xf10773d9801c04ec17b670f6ed99791d1117b534f680af31765f0ca5848336da",
          "transactionIndex": "0x0",
          "logIndex": "0x2",
          "removed": false
        },
        {
          "address": "0x176211869ca2b568f2a7d4ee941e073a821ee1ff",
          "topics": [
            "0x8c5be1e5ebec7d5bd14f71427d1e84f3dd0314c0f7b2291e5b200ac8c7c3b925",
            "0x000000000000000000000000c8c56cee6abc9b297c0f0bd1cc6ee0e8f4e4fc61",
            "0x0000000000000000000000002d8879046f1559e53eb052e949e9544bcb72f414"
          ],
          "data": "0x0000000000000000000000000000000000000000000000000000000011e1a300",
          "blockHash": "0xaafed6a5705cb4ed54f532c095981e046bf7192cf839b361de0ae1330025e492",
          "blockNumber": "0x8fbd45",
          "blockTimestamp": "0x66e49286",
          "transactionHash": "0xf10773d9801c04ec17b670f6ed99791d1117b534f680af31765f0ca5848336da",
          "transactionIndex": "0x0",
          "logIndex": "0x3",
          "removed": false
        },
        {
          "address": "0x176211869ca2b568f2a7d4ee941e073a821ee1ff",
          "topics": [
            "0xddf252ad1be2c89b69c2b068fc378daa952ba7f163c4a11628f55a4df523b3ef",
            "0x000000000000000000000000c8c56cee6abc9b297c0f0bd1cc6ee0e8f4e4fc61",
            "0x00000000000000000000000056c85a254dd12ee8d9c04049a4ab62769ce98210"
          ],
          "data": "0x0000000000000000000000000000000000000000000000000000000011e1a300",
          "blockHash": "0xaafed6a5705cb4ed54f532c095981e046bf7192cf839b361de0ae1330025e492",
          "blockNumber": "0x8fbd45",
          "blockTimestamp": "0x66e49286",
          "transactionHash": "0xf10773d9801c04ec17b670f6ed99791d1117b534f680af31765f0ca5848336da",
          "transactionIndex": "0x0",
          "logIndex": "0x4",
          "removed": false
        },
        {
          "address": "0xa219439258ca9da29e9cc4ce5596924745e12b93",
          "topics": [
            "0xddf252ad1be2c89b69c2b068fc378daa952ba7f163c4a11628f55a4df523b3ef",
            "0x000000000000000000000000efd5ec2cc043e3bd3c840f7998cc42ee712700ba",
            "0x00000000000000000000000056c85a254dd12ee8d9c04049a4ab62769ce98210"
          ],
          "data": "0x000000000000000000000000000000000000000000000000000000000682dfcf",
          "blockHash": "0xaafed6a5705cb4ed54f532c095981e046bf7192cf839b361de0ae1330025e492",
          "blockNumber": "0x8fbd45",
          "blockTimestamp": "0x66e49286",
          "transactionHash": "0xf10773d9801c04ec17b670f6ed99791d1117b534f680af31765f0ca5848336da",
          "transactionIndex": "0x0",
          "logIndex": "0x5",
          "removed": false
        },
        {
          "address": "0x176211869ca2b568f2a7d4ee941e073a821ee1ff",
          "topics": [
            "0xddf252ad1be2c89b69c2b068fc378daa952ba7f163c4a11628f55a4df523b3ef",
            "0x00000000000000000000000056c85a254dd12ee8d9c04049a4ab62769ce98210",
            "0x000000000000000000000000efd5ec2cc043e3bd3c840f7998cc42ee712700ba"
          ],
          "data": "0x0000000000000000000000000000000000000000000000000000000006830d6c",
          "blockHash": "0xaafed6a5705cb4ed54f532c095981e046bf7192cf839b361de0ae1330025e492",
          "blockNumber": "0x8fbd45",
          "blockTimestamp": "0x66e49286",
          "transactionHash": "0xf10773d9801c04ec17b670f6ed99791d1117b534f680af31765f0ca5848336da",
          "transactionIndex": "0x0",
          "logIndex": "0x6",
          "removed": false
        },
        {
          "address": "0xefd5ec2cc043e3bd3c840f7998cc42ee712700ba",
          "topics": [
            "0xc42079f94a6350d7e6235f29174924f928cc2ac818eb64fed8004e115fbcca67",
            "0x00000000000000000000000056c85a254dd12ee8d9c04049a4ab62769ce98210",
            "0x00000000000000000000000056c85a254dd12ee8d9c04049a4ab62769ce98210"
          ],
          "data": "0x0000000000000000000000000000000000000000000000000000000006830d6cfffffffffffffffffffffffffffffffffffffffffffffffffffffffff97d20310000000000000000000000000000000000000000fffe22c70dbac0cc616af2b2000000000000000000000000000000000000000000000000002131cce63f34b5ffffffffffffffffffffffffffffffffffffffffffffffffffffffffffffffff",
          "blockHash": "0xaafed6a5705cb4ed54f532c095981e046bf7192cf839b361de0ae1330025e492",
          "blockNumber": "0x8fbd45",
          "blockTimestamp": "0x66e49286",
          "transactionHash": "0xf10773d9801c04ec17b670f6ed99791d1117b534f680af31765f0ca5848336da",
          "transactionIndex": "0x0",
          "logIndex": "0x7",
          "removed": false
        },
        {
          "address": "0xe5d7c2a44ffddf6b295a15c148167daaaf5cf34f",
          "topics": [
            "0xddf252ad1be2c89b69c2b068fc378daa952ba7f163c4a11628f55a4df523b3ef",
            "0x000000000000000000000000564e52bbdf3adf10272f3f33b00d65b2ee48afff",
            "0x0000000000000000000000002d8879046f1559e53eb052e949e9544bcb72f414"
          ],
          "data": "0x00000000000000000000000000000000000000000000000001173df657216a4c",
          "blockHash": "0xaafed6a5705cb4ed54f532c095981e046bf7192cf839b361de0ae1330025e492",
          "blockNumber": "0x8fbd45",
          "blockTimestamp": "0x66e49286",
          "transactionHash": "0xf10773d9801c04ec17b670f6ed99791d1117b534f680af31765f0ca5848336da",
          "transactionIndex": "0x0",
          "logIndex": "0x8",
          "removed": false
        },
        {
          "address": "0x176211869ca2b568f2a7d4ee941e073a821ee1ff",
          "topics": [
            "0xddf252ad1be2c89b69c2b068fc378daa952ba7f163c4a11628f55a4df523b3ef",
            "0x00000000000000000000000056c85a254dd12ee8d9c04049a4ab62769ce98210",
            "0x000000000000000000000000564e52bbdf3adf10272f3f33b00d65b2ee48afff"
          ],
          "data": "0x000000000000000000000000000000000000000000000000000000000b5e9594",
          "blockHash": "0xaafed6a5705cb4ed54f532c095981e046bf7192cf839b361de0ae1330025e492",
          "blockNumber": "0x8fbd45",
          "blockTimestamp": "0x66e49286",
          "transactionHash": "0xf10773d9801c04ec17b670f6ed99791d1117b534f680af31765f0ca5848336da",
          "transactionIndex": "0x0",
          "logIndex": "0x9",
          "removed": false
        },
        {
          "address": "0x564e52bbdf3adf10272f3f33b00d65b2ee48afff",
          "topics": [
            "0x0fe977d619f8172f7fdbe8bb8928ef80952817d96936509f67d66346bc4cd10f",
            "0x000000000000000000000000176211869ca2b568f2a7d4ee941e073a821ee1ff",
            "0x000000000000000000000000e5d7c2a44ffddf6b295a15c148167daaaf5cf34f",
            "0x0000000000000000000000000000000000000000000000000000000000000bb8"
          ],
          "data": "0x0000000000000000000000000000000000000000000000000000000000000001000000000000000000000000000000000000000000000000000000000b5e959400000000000000000000000000000000000000000000000001173df657216a4c0000000000000000000000000000000000000000000000000000000000030705",
          "blockHash": "0xaafed6a5705cb4ed54f532c095981e046bf7192cf839b361de0ae1330025e492",
          "blockNumber": "0x8fbd45",
          "blockTimestamp": "0x66e49286",
          "transactionHash": "0xf10773d9801c04ec17b670f6ed99791d1117b534f680af31765f0ca5848336da",
          "transactionIndex": "0x0",
          "logIndex": "0xa",
          "removed": false
        },
        {
          "address": "0xe5d7c2a44ffddf6b295a15c148167daaaf5cf34f",
          "topics": [
            "0xddf252ad1be2c89b69c2b068fc378daa952ba7f163c4a11628f55a4df523b3ef",
            "0x0000000000000000000000001947b87d35e9f1cd53cede1ad6f7be44c12212b8",
            "0x0000000000000000000000002d8879046f1559e53eb052e949e9544bcb72f414"
          ],
          "data": "0x00000000000000000000000000000000000000000000000000a019b3f0d370fe",
          "blockHash": "0xaafed6a5705cb4ed54f532c095981e046bf7192cf839b361de0ae1330025e492",
          "blockNumber": "0x8fbd45",
          "blockTimestamp": "0x66e49286",
          "transactionHash": "0xf10773d9801c04ec17b670f6ed99791d1117b534f680af31765f0ca5848336da",
          "transactionIndex": "0x0",
          "logIndex": "0xb",
          "removed": false
        },
        {
          "address": "0xa219439258ca9da29e9cc4ce5596924745e12b93",
          "topics": [
            "0xddf252ad1be2c89b69c2b068fc378daa952ba7f163c4a11628f55a4df523b3ef",
            "0x00000000000000000000000056c85a254dd12ee8d9c04049a4ab62769ce98210",
            "0x0000000000000000000000001947b87d35e9f1cd53cede1ad6f7be44c12212b8"
          ],
          "data": "0x000000000000000000000000000000000000000000000000000000000682dfcf",
          "blockHash": "0xaafed6a5705cb4ed54f532c095981e046bf7192cf839b361de0ae1330025e492",
          "blockNumber": "0x8fbd45",
          "blockTimestamp": "0x66e49286",
          "transactionHash": "0xf10773d9801c04ec17b670f6ed99791d1117b534f680af31765f0ca5848336da",
          "transactionIndex": "0x0",
          "logIndex": "0xc",
          "removed": false
        },
        {
          "address": "0x1947b87d35e9f1cd53cede1ad6f7be44c12212b8",
          "topics": [
            "0x19b47279256b2a23a1665c810c8d55a1758940ee09377d4f8d26497a3577dc83",
            "0x00000000000000000000000056c85a254dd12ee8d9c04049a4ab62769ce98210",
            "0x0000000000000000000000002d8879046f1559e53eb052e949e9544bcb72f414"
          ],
          "data": "0x000000000000000000000000000000000000000000000000000000000682dfcfffffffffffffffffffffffffffffffffffffffffffffffffff5fe64c0f2c8f020000000000000000000000000000000000004f547fa4a239e92bad8df9930a700000000000000000000000000000000000000000000000000018f0e4b7d1b6b600000000000000000000000000000000000000000000000000000000000306f10000000000000000000000000000000000000000000000000000000000000e140000000000000000000000000000000000000000000000000000000000000000",
          "blockHash": "0xaafed6a5705cb4ed54f532c095981e046bf7192cf839b361de0ae1330025e492",
          "blockNumber": "0x8fbd45",
          "blockTimestamp": "0x66e49286",
          "transactionHash": "0xf10773d9801c04ec17b670f6ed99791d1117b534f680af31765f0ca5848336da",
          "transactionIndex": "0x0",
          "logIndex": "0xd",
          "removed": false
        },
        {
          "address": "0xe5d7c2a44ffddf6b295a15c148167daaaf5cf34f",
          "topics": [
            "0xddf252ad1be2c89b69c2b068fc378daa952ba7f163c4a11628f55a4df523b3ef",
            "0x0000000000000000000000002d8879046f1559e53eb052e949e9544bcb72f414",
            "0x000000000000000000000000c8c56cee6abc9b297c0f0bd1cc6ee0e8f4e4fc61"
          ],
          "data": "0x00000000000000000000000000000000000000000000000001b73a805d1a8e70",
          "blockHash": "0xaafed6a5705cb4ed54f532c095981e046bf7192cf839b361de0ae1330025e492",
          "blockNumber": "0x8fbd45",
          "blockTimestamp": "0x66e49286",
          "transactionHash": "0xf10773d9801c04ec17b670f6ed99791d1117b534f680af31765f0ca5848336da",
          "transactionIndex": "0x0",
          "logIndex": "0xe",
          "removed": false
        },
        {
          "address": "0x2d8879046f1559e53eb052e949e9544bcb72f414",
          "topics": [
            "0x823eaf01002d7353fbcadb2ea3305cc46fa35d799cb0914846d185ac06f8ad05"
          ],
          "data": "0x000000000000000000000000c8c56cee6abc9b297c0f0bd1cc6ee0e8f4e4fc610000000000000000000000000000000000000000000000000000000011e1a300000000000000000000000000176211869ca2b568f2a7d4ee941e073a821ee1ff00000000000000000000000000000000000000000000000001b73a805d1a8e70000000000000000000000000e5d7c2a44ffddf6b295a15c148167daaaf5cf34f00000000000000000000000000000000000000000000000000001d29eada4cda0000000000000000000000000000000000000000000000000000000000000000",
          "blockHash": "0xaafed6a5705cb4ed54f532c095981e046bf7192cf839b361de0ae1330025e492",
          "blockNumber": "0x8fbd45",
          "blockTimestamp": "0x66e49286",
          "transactionHash": "0xf10773d9801c04ec17b670f6ed99791d1117b534f680af31765f0ca5848336da",
          "transactionIndex": "0x0",
          "logIndex": "0xf",
          "removed": false
        },
        {
          "address": "0xe5d7c2a44ffddf6b295a15c148167daaaf5cf34f",
          "topics": [
            "0x8c5be1e5ebec7d5bd14f71427d1e84f3dd0314c0f7b2291e5b200ac8c7c3b925",
            "0x000000000000000000000000c8c56cee6abc9b297c0f0bd1cc6ee0e8f4e4fc61",
            "0x0000000000000000000000002f9bb73a8e98793e26cb2f6c4ad037bdf1c6b269"
          ],
          "data": "0x00000000000000000000000000000000000000000000000001b73a805d1a8e70",
          "blockHash": "0xaafed6a5705cb4ed54f532c095981e046bf7192cf839b361de0ae1330025e492",
          "blockNumber": "0x8fbd45",
          "blockTimestamp": "0x66e49286",
          "transactionHash": "0xf10773d9801c04ec17b670f6ed99791d1117b534f680af31765f0ca5848336da",
          "transactionIndex": "0x0",
          "logIndex": "0x10",
          "removed": false
        },
        {
          "address": "0x2f9bb73a8e98793e26cb2f6c4ad037bdf1c6b269",
          "topics": [
            "0x804c9b842b2748a22bb64b345453a3de7ca54a6ca45ce00d415894979e22897a",
            "0x000000000000000000000000e5d7c2a44ffddf6b295a15c148167daaaf5cf34f"
          ],
          "data": "0x0000000000000000000000000000000000000000000b4caf3fb2a54764d899eb0000000000000000000000000000000000000000002cb5f46dc862d336a3c7f70000000000000000000000000000000000000000001ad057fb22e34e251e3fb800000000000000000000000000000000000000000352ad5d77c954e3db9fe7050000000000000000000000000000000000000000035f51112c643620307866ac",
          "blockHash": "0xaafed6a5705cb4ed54f532c095981e046bf7192cf839b361de0ae1330025e492",
          "blockNumber": "0x8fbd45",
          "blockTimestamp": "0x66e49286",
          "transactionHash": "0xf10773d9801c04ec17b670f6ed99791d1117b534f680af31765f0ca5848336da",
          "transactionIndex": "0x0",
          "logIndex": "0x11",
          "removed": false
        },
        {
          "address": "0xe5d7c2a44ffddf6b295a15c148167daaaf5cf34f",
          "topics": [
            "0xddf252ad1be2c89b69c2b068fc378daa952ba7f163c4a11628f55a4df523b3ef",
            "0x000000000000000000000000c8c56cee6abc9b297c0f0bd1cc6ee0e8f4e4fc61",
            "0x000000000000000000000000b4ffef15daf4c02787bc5332580b838ce39805f5"
          ],
          "data": "0x00000000000000000000000000000000000000000000000001b73a805d1a8e70",
          "blockHash": "0xaafed6a5705cb4ed54f532c095981e046bf7192cf839b361de0ae1330025e492",
          "blockNumber": "0x8fbd45",
          "blockTimestamp": "0x66e49286",
          "transactionHash": "0xf10773d9801c04ec17b670f6ed99791d1117b534f680af31765f0ca5848336da",
          "transactionIndex": "0x0",
          "logIndex": "0x12",
          "removed": false
        },
        {
          "address": "0x28f6899ff643261ca9766ddc251b359a2d00b945",
          "topics": [
            "0x3303facd24627943a92e9dc87cfbb34b15c49b726eec3ad3487c16be9ab8efe8",
            "0x000000000000000000000000b4ffef15daf4c02787bc5332580b838ce39805f5",
            "0x00000000000000000000000040a59a3f3b16d9e74c811d24d8b7969664cfe180",
            "0x000000000000000000000000c8c56cee6abc9b297c0f0bd1cc6ee0e8f4e4fc61"
          ],
          "data": "0x000000000000000000000000000000000000000000004a6e6ce87410aa4b5006000000000000000000000000000000000000000000004a6e6ce87410aa4b50060000000000000000000000000000000000000000000000000000000000000000",
          "blockHash": "0xaafed6a5705cb4ed54f532c095981e046bf7192cf839b361de0ae1330025e492",
          "blockNumber": "0x8fbd45",
          "blockTimestamp": "0x66e49286",
          "transactionHash": "0xf10773d9801c04ec17b670f6ed99791d1117b534f680af31765f0ca5848336da",
          "transactionIndex": "0x0",
          "logIndex": "0x13",
          "removed": false
        },
        {
          "address": "0x28f6899ff643261ca9766ddc251b359a2d00b945",
          "topics": [
            "0x3303facd24627943a92e9dc87cfbb34b15c49b726eec3ad3487c16be9ab8efe8",
            "0x000000000000000000000000b4ffef15daf4c02787bc5332580b838ce39805f5",
            "0x00000000000000000000000078354f8dccb269a615a7e0a24f9b0718fdc3c7a7",
            "0x000000000000000000000000c8c56cee6abc9b297c0f0bd1cc6ee0e8f4e4fc61"
          ],
          "data": "0x00000000000000000000000000000000000000000000028379963c1d5c8b61b000000000000000000000000000000000000000000000028379963c1d5c8b61b00000000000000000000000000000000000000000000000000000000000000000",
          "blockHash": "0xaafed6a5705cb4ed54f532c095981e046bf7192cf839b361de0ae1330025e492",
          "blockNumber": "0x8fbd45",
          "blockTimestamp": "0x66e49286",
          "transactionHash": "0xf10773d9801c04ec17b670f6ed99791d1117b534f680af31765f0ca5848336da",
          "transactionIndex": "0x0",
          "logIndex": "0x14",
          "removed": false
        },
        {
          "address": "0xb4ffef15daf4c02787bc5332580b838ce39805f5",
          "topics": [
            "0xddf252ad1be2c89b69c2b068fc378daa952ba7f163c4a11628f55a4df523b3ef",
            "0x0000000000000000000000000000000000000000000000000000000000000000",
            "0x000000000000000000000000c8c56cee6abc9b297c0f0bd1cc6ee0e8f4e4fc61"
          ],
          "data": "0x00000000000000000000000000000000000000000000000001b73a805d1a8e70",
          "blockHash": "0xaafed6a5705cb4ed54f532c095981e046bf7192cf839b361de0ae1330025e492",
          "blockNumber": "0x8fbd45",
          "blockTimestamp": "0x66e49286",
          "transactionHash": "0xf10773d9801c04ec17b670f6ed99791d1117b534f680af31765f0ca5848336da",
          "transactionIndex": "0x0",
          "logIndex": "0x15",
          "removed": false
        },
        {
          "address": "0xb4ffef15daf4c02787bc5332580b838ce39805f5",
          "topics": [
            "0x458f5fa412d0f69b08dd84872b0215675cc67bc1d5b6fd93300a1c3878b86196",
            "0x000000000000000000000000c8c56cee6abc9b297c0f0bd1cc6ee0e8f4e4fc61",
            "0x000000000000000000000000c8c56cee6abc9b297c0f0bd1cc6ee0e8f4e4fc61"
          ],
          "data": "0x00000000000000000000000000000000000000000000000001b73a805d1a8e70000000000000000000000000000000000000000000000000000000000000000000000000000000000000000000000000000000000352ad5d77c954e3db9fe705",
          "blockHash": "0xaafed6a5705cb4ed54f532c095981e046bf7192cf839b361de0ae1330025e492",
          "blockNumber": "0x8fbd45",
          "blockTimestamp": "0x66e49286",
          "transactionHash": "0xf10773d9801c04ec17b670f6ed99791d1117b534f680af31765f0ca5848336da",
          "transactionIndex": "0x0",
          "logIndex": "0x16",
          "removed": false
        },
        {
          "address": "0x2f9bb73a8e98793e26cb2f6c4ad037bdf1c6b269",
          "topics": [
            "0x00058a56ea94653cdf4f152d227ace22d4c00ad99e2a43f58cb7d9e3feb295f2",
            "0x000000000000000000000000e5d7c2a44ffddf6b295a15c148167daaaf5cf34f",
            "0x000000000000000000000000c8c56cee6abc9b297c0f0bd1cc6ee0e8f4e4fc61"
          ],
          "data": "0x",
          "blockHash": "0xaafed6a5705cb4ed54f532c095981e046bf7192cf839b361de0ae1330025e492",
          "blockNumber": "0x8fbd45",
          "blockTimestamp": "0x66e49286",
          "transactionHash": "0xf10773d9801c04ec17b670f6ed99791d1117b534f680af31765f0ca5848336da",
          "transactionIndex": "0x0",
          "logIndex": "0x17",
          "removed": false
        },
        {
          "address": "0x2f9bb73a8e98793e26cb2f6c4ad037bdf1c6b269",
          "topics": [
            "0x2b627736bca15cd5381dcf80b0bf11fd197d01a037c52b927a881a10fb73ba61",
            "0x000000000000000000000000e5d7c2a44ffddf6b295a15c148167daaaf5cf34f",
            "0x000000000000000000000000c8c56cee6abc9b297c0f0bd1cc6ee0e8f4e4fc61",
            "0x0000000000000000000000000000000000000000000000000000000000000000"
          ],
          "data": "0x000000000000000000000000c8c56cee6abc9b297c0f0bd1cc6ee0e8f4e4fc6100000000000000000000000000000000000000000000000001b73a805d1a8e70",
          "blockHash": "0xaafed6a5705cb4ed54f532c095981e046bf7192cf839b361de0ae1330025e492",
          "blockNumber": "0x8fbd45",
          "blockTimestamp": "0x66e49286",
          "transactionHash": "0xf10773d9801c04ec17b670f6ed99791d1117b534f680af31765f0ca5848336da",
          "transactionIndex": "0x0",
          "logIndex": "0x18",
          "removed": false
        },
        {
          "address": "0x28f6899ff643261ca9766ddc251b359a2d00b945",
          "topics": [
            "0x3303facd24627943a92e9dc87cfbb34b15c49b726eec3ad3487c16be9ab8efe8",
            "0x000000000000000000000000a2703dc9fbaccd6ec2e4cbfa700989d0238133f6",
            "0x00000000000000000000000040a59a3f3b16d9e74c811d24d8b7969664cfe180",
            "0x000000000000000000000000c8c56cee6abc9b297c0f0bd1cc6ee0e8f4e4fc61"
          ],
          "data": "0x0000000000000000000000000000000000000000000000053f69899e410bb3ed0000000000000000000000000000000000000000000000053f69899e410bb3ed0000000000000000000000000000000000000000000000000000000000000000",
          "blockHash": "0xaafed6a5705cb4ed54f532c095981e046bf7192cf839b361de0ae1330025e492",
          "blockNumber": "0x8fbd45",
          "blockTimestamp": "0x66e49286",
          "transactionHash": "0xf10773d9801c04ec17b670f6ed99791d1117b534f680af31765f0ca5848336da",
          "transactionIndex": "0x0",
          "logIndex": "0x19",
          "removed": false
        },
        {
          "address": "0x28f6899ff643261ca9766ddc251b359a2d00b945",
          "topics": [
            "0x3303facd24627943a92e9dc87cfbb34b15c49b726eec3ad3487c16be9ab8efe8",
            "0x000000000000000000000000a2703dc9fbaccd6ec2e4cbfa700989d0238133f6",
            "0x00000000000000000000000078354f8dccb269a615a7e0a24f9b0718fdc3c7a7",
            "0x000000000000000000000000c8c56cee6abc9b297c0f0bd1cc6ee0e8f4e4fc61"
          ],
          "data": "0x00000000000000000000000000000000000000000000000172c8a41541e6911500000000000000000000000000000000000000000000000172c8a41541e691150000000000000000000000000000000000000000000000000000000000000000",
          "blockHash": "0xaafed6a5705cb4ed54f532c095981e046bf7192cf839b361de0ae1330025e492",
          "blockNumber": "0x8fbd45",
          "blockTimestamp": "0x66e49286",
          "transactionHash": "0xf10773d9801c04ec17b670f6ed99791d1117b534f680af31765f0ca5848336da",
          "transactionIndex": "0x0",
          "logIndex": "0x1a",
          "removed": false
        },
        {
          "address": "0xa2703dc9fbaccd6ec2e4cbfa700989d0238133f6",
          "topics": [
            "0xddf252ad1be2c89b69c2b068fc378daa952ba7f163c4a11628f55a4df523b3ef",
            "0x0000000000000000000000000000000000000000000000000000000000000000",
            "0x000000000000000000000000c8c56cee6abc9b297c0f0bd1cc6ee0e8f4e4fc61"
          ],
          "data": "0x000000000000000000000000000000000000000000000000000000000bed48a0",
          "blockHash": "0xaafed6a5705cb4ed54f532c095981e046bf7192cf839b361de0ae1330025e492",
          "blockNumber": "0x8fbd45",
          "blockTimestamp": "0x66e49286",
          "transactionHash": "0xf10773d9801c04ec17b670f6ed99791d1117b534f680af31765f0ca5848336da",
          "transactionIndex": "0x0",
          "logIndex": "0x1b",
          "removed": false
        },
        {
          "address": "0xa2703dc9fbaccd6ec2e4cbfa700989d0238133f6",
          "topics": [
            "0x458f5fa412d0f69b08dd84872b0215675cc67bc1d5b6fd93300a1c3878b86196",
            "0x000000000000000000000000c8c56cee6abc9b297c0f0bd1cc6ee0e8f4e4fc61",
            "0x000000000000000000000000c8c56cee6abc9b297c0f0bd1cc6ee0e8f4e4fc61"
          ],
          "data": "0x000000000000000000000000000000000000000000000000000000000bed48a000000000000000000000000000000000000000000000000000000000000000000000000000000000000000000000000000000000036ba64e0082b607ec11f3ed",
          "blockHash": "0xaafed6a5705cb4ed54f532c095981e046bf7192cf839b361de0ae1330025e492",
          "blockNumber": "0x8fbd45",
          "blockTimestamp": "0x66e49286",
          "transactionHash": "0xf10773d9801c04ec17b670f6ed99791d1117b534f680af31765f0ca5848336da",
          "transactionIndex": "0x0",
          "logIndex": "0x1c",
          "removed": false
        },
        {
          "address": "0x2f9bb73a8e98793e26cb2f6c4ad037bdf1c6b269",
          "topics": [
            "0x804c9b842b2748a22bb64b345453a3de7ca54a6ca45ce00d415894979e22897a",
            "0x000000000000000000000000176211869ca2b568f2a7d4ee941e073a821ee1ff"
          ],
          "data": "0x000000000000000000000000000000000000000000692993d20a6fcef874b1e6000000000000000000000000000000000000000000baaa4a12bd8c8a5cec37f2000000000000000000000000000000000000000000ae41ea719f8a9dedec37f20000000000000000000000000000000000000000035dca2af77db167ad5a6a930000000000000000000000000000000000000000036ba64e0082b607ec11f3ed",
          "blockHash": "0xaafed6a5705cb4ed54f532c095981e046bf7192cf839b361de0ae1330025e492",
          "blockNumber": "0x8fbd45",
          "blockTimestamp": "0x66e49286",
          "transactionHash": "0xf10773d9801c04ec17b670f6ed99791d1117b534f680af31765f0ca5848336da",
          "transactionIndex": "0x0",
          "logIndex": "0x1d",
          "removed": false
        },
        {
          "address": "0x176211869ca2b568f2a7d4ee941e073a821ee1ff",
          "topics": [
            "0xddf252ad1be2c89b69c2b068fc378daa952ba7f163c4a11628f55a4df523b3ef",
            "0x0000000000000000000000002e207eca8b6bf77a6ac82763eeed2a94de4f081d",
            "0x000000000000000000000000c8c56cee6abc9b297c0f0bd1cc6ee0e8f4e4fc61"
          ],
          "data": "0x000000000000000000000000000000000000000000000000000000000bed48a0",
          "blockHash": "0xaafed6a5705cb4ed54f532c095981e046bf7192cf839b361de0ae1330025e492",
          "blockNumber": "0x8fbd45",
          "blockTimestamp": "0x66e49286",
          "transactionHash": "0xf10773d9801c04ec17b670f6ed99791d1117b534f680af31765f0ca5848336da",
          "transactionIndex": "0x0",
          "logIndex": "0x1e",
          "removed": false
        },
        {
          "address": "0x2f9bb73a8e98793e26cb2f6c4ad037bdf1c6b269",
          "topics": [
            "0xb3d084820fb1a9decffb176436bd02558d15fac9b0ddfed8c465bc7359d7dce0",
            "0x000000000000000000000000176211869ca2b568f2a7d4ee941e073a821ee1ff",
            "0x000000000000000000000000c8c56cee6abc9b297c0f0bd1cc6ee0e8f4e4fc61",
            "0x0000000000000000000000000000000000000000000000000000000000000000"
          ],
          "data": "0x000000000000000000000000c8c56cee6abc9b297c0f0bd1cc6ee0e8f4e4fc61000000000000000000000000000000000000000000000000000000000bed48a00000000000000000000000000000000000000000000000000000000000000002000000000000000000000000000000000000000000ae41ea719f8a9dedec37f2",
          "blockHash": "0xaafed6a5705cb4ed54f532c095981e046bf7192cf839b361de0ae1330025e492",
          "blockNumber": "0x8fbd45",
          "blockTimestamp": "0x66e49286",
          "transactionHash": "0xf10773d9801c04ec17b670f6ed99791d1117b534f680af31765f0ca5848336da",
          "transactionIndex": "0x0",
          "logIndex": "0x1f",
          "removed": false
        },
        {
          "address": "0x176211869ca2b568f2a7d4ee941e073a821ee1ff",
          "topics": [
            "0x8c5be1e5ebec7d5bd14f71427d1e84f3dd0314c0f7b2291e5b200ac8c7c3b925",
            "0x000000000000000000000000c8c56cee6abc9b297c0f0bd1cc6ee0e8f4e4fc61",
            "0x0000000000000000000000002d8879046f1559e53eb052e949e9544bcb72f414"
          ],
          "data": "0x0000000000000000000000000000000000000000000000000000000000000000",
          "blockHash": "0xaafed6a5705cb4ed54f532c095981e046bf7192cf839b361de0ae1330025e492",
          "blockNumber": "0x8fbd45",
          "blockTimestamp": "0x66e49286",
          "transactionHash": "0xf10773d9801c04ec17b670f6ed99791d1117b534f680af31765f0ca5848336da",
          "transactionIndex": "0x0",
          "logIndex": "0x20",
          "removed": false
        },
        {
          "address": "0xe5d7c2a44ffddf6b295a15c148167daaaf5cf34f",
          "topics": [
            "0x8c5be1e5ebec7d5bd14f71427d1e84f3dd0314c0f7b2291e5b200ac8c7c3b925",
            "0x000000000000000000000000c8c56cee6abc9b297c0f0bd1cc6ee0e8f4e4fc61",
            "0x0000000000000000000000002f9bb73a8e98793e26cb2f6c4ad037bdf1c6b269"
          ],
          "data": "0x0000000000000000000000000000000000000000000000000000000000000000",
          "blockHash": "0xaafed6a5705cb4ed54f532c095981e046bf7192cf839b361de0ae1330025e492",
          "blockNumber": "0x8fbd45",
          "blockTimestamp": "0x66e49286",
          "transactionHash": "0xf10773d9801c04ec17b670f6ed99791d1117b534f680af31765f0ca5848336da",
          "transactionIndex": "0x0",
          "logIndex": "0x21",
          "removed": false
        },
        {
          "address": "0x176211869ca2b568f2a7d4ee941e073a821ee1ff",
          "topics": [
            "0x8c5be1e5ebec7d5bd14f71427d1e84f3dd0314c0f7b2291e5b200ac8c7c3b925",
            "0x000000000000000000000000c8c56cee6abc9b297c0f0bd1cc6ee0e8f4e4fc61",
            "0x0000000000000000000000002f9bb73a8e98793e26cb2f6c4ad037bdf1c6b269"
          ],
          "data": "0x000000000000000000000000000000000000000000000000000000000bed48a0",
          "blockHash": "0xaafed6a5705cb4ed54f532c095981e046bf7192cf839b361de0ae1330025e492",
          "blockNumber": "0x8fbd45",
          "blockTimestamp": "0x66e49286",
          "transactionHash": "0xf10773d9801c04ec17b670f6ed99791d1117b534f680af31765f0ca5848336da",
          "transactionIndex": "0x0",
          "logIndex": "0x22",
          "removed": false
        },
        {
          "address": "0x2f9bb73a8e98793e26cb2f6c4ad037bdf1c6b269",
          "topics": [
            "0x804c9b842b2748a22bb64b345453a3de7ca54a6ca45ce00d415894979e22897a",
            "0x000000000000000000000000176211869ca2b568f2a7d4ee941e073a821ee1ff"
          ],
          "data": "0x000000000000000000000000000000000000000000691ca97ca46f42aa9b750e000000000000000000000000000000000000000000ba95aaebaf2b8e0e4ad32a000000000000000000000000000000000000000000ae2d4b4a9129a19f4ad32a0000000000000000000000000000000000000000035dca2b75c11c6eefe0999a0000000000000000000000000000000000000000036ba64e0082b607ec11f3ed",
          "blockHash": "0xaafed6a5705cb4ed54f532c095981e046bf7192cf839b361de0ae1330025e492",
          "blockNumber": "0x8fbd45",
          "blockTimestamp": "0x66e49286",
          "transactionHash": "0xf10773d9801c04ec17b670f6ed99791d1117b534f680af31765f0ca5848336da",
          "transactionIndex": "0x0",
          "logIndex": "0x23",
          "removed": false
        },
        {
          "address": "0x176211869ca2b568f2a7d4ee941e073a821ee1ff",
          "topics": [
            "0xddf252ad1be2c89b69c2b068fc378daa952ba7f163c4a11628f55a4df523b3ef",
            "0x000000000000000000000000c8c56cee6abc9b297c0f0bd1cc6ee0e8f4e4fc61",
            "0x0000000000000000000000002e207eca8b6bf77a6ac82763eeed2a94de4f081d"
          ],
          "data": "0x000000000000000000000000000000000000000000000000000000000bed48a0",
          "blockHash": "0xaafed6a5705cb4ed54f532c095981e046bf7192cf839b361de0ae1330025e492",
          "blockNumber": "0x8fbd45",
          "blockTimestamp": "0x66e49286",
          "transactionHash": "0xf10773d9801c04ec17b670f6ed99791d1117b534f680af31765f0ca5848336da",
          "transactionIndex": "0x0",
          "logIndex": "0x24",
          "removed": false
        },
        {
          "address": "0x2f9bb73a8e98793e26cb2f6c4ad037bdf1c6b269",
          "topics": [
            "0xefefaba5e921573100900a3ad9cf29f222d995fb3b6045797eaea7521bd8d6f0",
            "0x000000000000000000000000c8c56cee6abc9b297c0f0bd1cc6ee0e8f4e4fc61",
            "0x000000000000000000000000176211869ca2b568f2a7d4ee941e073a821ee1ff",
            "0x0000000000000000000000000000000000000000000000000000000000000000"
          ],
          "data": "0x000000000000000000000000c8c56cee6abc9b297c0f0bd1cc6ee0e8f4e4fc61000000000000000000000000000000000000000000000000000000000bebc200000000000000000000000000000000000000000000000000000000000000000000000000000000000000000000000000000000000000000000000000000186a0",
          "blockHash": "0xaafed6a5705cb4ed54f532c095981e046bf7192cf839b361de0ae1330025e492",
          "blockNumber": "0x8fbd45",
          "blockTimestamp": "0x66e49286",
          "transactionHash": "0xf10773d9801c04ec17b670f6ed99791d1117b534f680af31765f0ca5848336da",
          "transactionIndex": "0x0",
          "logIndex": "0x25",
          "removed": false
        }
      ],
      "logsBloom": "0x00080000000049040080000000000080008020004000000000000000000000000800a0002000080020001000000680000010080000102014000401000420000004000020104000080008002a020010002040000000000002200000040040800000000002020000000080000120000801804000001000000001000010200c000040000200800000080030108400000080000000000000000000800004000000400208000002000004000008000a000010000000000010080100000000a00001000250000200400120000000604000100000020000a000060800000000000022000010200000008024000000000001000040000020000002000000401000100000",
      "type": "0x2",
      "transactionHash": "0xf10773d9801c04ec17b670f6ed99791d1117b534f680af31765f0ca5848336da",
      "transactionIndex": "0x0",
      "blockHash": "0xaafed6a5705cb4ed54f532c095981e046bf7192cf839b361de0ae1330025e492",
      "blockNumber": "0x8fbd45",
      "gasUsed": "0x15e78b",
      "effectiveGasPrice": "0x3938707",
      "blobGasPrice": "0x1",
      "from": "0xf39fd6e51aad88f6f4ce6ab8827279cfffb92266",
      "to": "0x0b306bf915c4d645ff596e518faf3f9669b97016",
      "contractAddress": null,
      "root": "0x0000000000000000000000000000000000000000000000000000000000000000"
    }
  ],
  "libraries": [],
  "pending": [],
  "returns": {},
  "timestamp": 1726255750,
  "chain": 59144,
  "commit": "4a57ec2"
}