{
  "transactions": [
    {
      "hash": "0xedd3e3d0608ae0ae2b45217144b3131d7709f14e4cbb4241ac91b5cab8c94f0b",
      "transactionType": "CALL",
      "contractName": null,
      "contractAddress": "0xe5d7c2a44ffddf6b295a15c148167daaaf5cf34f",
      "function": "deposit()",
      "arguments": [],
      "transaction": {
        "from": "0xf39fd6e51aad88f6f4ce6ab8827279cfffb92266",
        "to": "0xe5d7c2a44ffddf6b295a15c148167daaaf5cf34f",
        "gas": "0xf2ff",
        "value": "0xde0b6b3a7640000",
        "input": "0xd0e30db0",
        "nonce": "0x1f",
        "chainId": "0xe708"
      },
      "additionalContracts": [],
      "isFixedGasLimit": false
    },
    {
      "hash": "0xcbfdcc0bdba1205386ab80ca2ea2d8c01662b1682440ac88f2db0268271d9d97",
      "transactionType": "CALL",
      "contractName": null,
      "contractAddress": "0xe5d7c2a44ffddf6b295a15c148167daaaf5cf34f",
      "function": "approve(address,uint256)",
      "arguments": [
        "0x2d8879046f1559E53eb052E949e9544bCB72f414",
        "115792089237316195423570985008687907853269984665640564039457584007913129639935"
      ],
      "transaction": {
        "from": "0xf39fd6e51aad88f6f4ce6ab8827279cfffb92266",
        "to": "0xe5d7c2a44ffddf6b295a15c148167daaaf5cf34f",
        "gas": "0xfa27",
        "value": "0x0",
        "input": "0x095ea7b30000000000000000000000002d8879046f1559e53eb052e949e9544bcb72f414ffffffffffffffffffffffffffffffffffffffffffffffffffffffffffffffff",
        "nonce": "0x20",
        "chainId": "0xe708"
      },
      "additionalContracts": [],
      "isFixedGasLimit": false
    },
    {
      "hash": "0x083f092623aec718babb47fdbc76ad82a2e6a52c21b7911af365a38b434a24ab",
      "transactionType": "CALL",
      "contractName": null,
      "contractAddress": "0x176211869ca2b568f2a7d4ee941e073a821ee1ff",
      "function": "approve(address,uint256)",
      "arguments": [
        "0x0B306BF915C4d645ff596e518fAf3F9669b97016",
        "115792089237316195423570985008687907853269984665640564039457584007913129639935"
      ],
      "transaction": {
        "from": "0xf39fd6e51aad88f6f4ce6ab8827279cfffb92266",
        "to": "0x176211869ca2b568f2a7d4ee941e073a821ee1ff",
        "gas": "0x144c0",
        "value": "0x0",
        "input": "0x095ea7b30000000000000000000000000b306bf915c4d645ff596e518faf3f9669b97016ffffffffffffffffffffffffffffffffffffffffffffffffffffffffffffffff",
        "nonce": "0x21",
        "chainId": "0xe708"
      },
      "additionalContracts": [],
      "isFixedGasLimit": false
    },
    {
      "hash": "0x769402ccec8954615de8a85fdf691601bcc9d367e1ddd52c0446860647b6ddd5",
      "transactionType": "CALL",
      "contractName": null,
      "contractAddress": "0xe5d7c2a44ffddf6b295a15c148167daaaf5cf34f",
      "function": "approve(address,uint256)",
      "arguments": [
        "0x0B306BF915C4d645ff596e518fAf3F9669b97016",
        "115792089237316195423570985008687907853269984665640564039457584007913129639935"
      ],
      "transaction": {
        "from": "0xf39fd6e51aad88f6f4ce6ab8827279cfffb92266",
        "to": "0xe5d7c2a44ffddf6b295a15c148167daaaf5cf34f",
        "gas": "0xfa27",
        "value": "0x0",
        "input": "0x095ea7b30000000000000000000000000b306bf915c4d645ff596e518faf3f9669b97016ffffffffffffffffffffffffffffffffffffffffffffffffffffffffffffffff",
        "nonce": "0x22",
        "chainId": "0xe708"
      },
      "additionalContracts": [],
      "isFixedGasLimit": false
    },
    {
      "hash": "0x17fd105722fafff3a12edd9e1f9d8eb2c2b469d2491677ee1b6e4fd434b65642",
      "transactionType": "CALL",
      "contractName": null,
      "contractAddress": "0xe5d7c2a44ffddf6b295a15c148167daaaf5cf34f",
      "function": "approve(address,uint256)",
      "arguments": [
        "0x0B306BF915C4d645ff596e518fAf3F9669b97016",
        "115792089237316195423570985008687907853269984665640564039457584007913129639935"
      ],
      "transaction": {
        "from": "0xf39fd6e51aad88f6f4ce6ab8827279cfffb92266",
        "to": "0xe5d7c2a44ffddf6b295a15c148167daaaf5cf34f",
        "gas": "0x8ec9",
        "value": "0x0",
        "input": "0x095ea7b30000000000000000000000000b306bf915c4d645ff596e518faf3f9669b97016ffffffffffffffffffffffffffffffffffffffffffffffffffffffffffffffff",
        "nonce": "0x23",
        "chainId": "0xe708"
      },
      "additionalContracts": [],
      "isFixedGasLimit": false
    },
    {
      "hash": "0xed10200742850b98f188db33855085dc253b29c1da5c0cdb9b5c0b782c4d8cb8",
      "transactionType": "CALL",
      "contractName": null,
      "contractAddress": "0x176211869ca2b568f2a7d4ee941e073a821ee1ff",
      "function": "approve(address,uint256)",
      "arguments": [
        "0x0B306BF915C4d645ff596e518fAf3F9669b97016",
        "115792089237316195423570985008687907853269984665640564039457584007913129639935"
      ],
      "transaction": {
        "from": "0xf39fd6e51aad88f6f4ce6ab8827279cfffb92266",
        "to": "0x176211869ca2b568f2a7d4ee941e073a821ee1ff",
        "gas": "0xe62b",
        "value": "0x0",
        "input": "0x095ea7b30000000000000000000000000b306bf915c4d645ff596e518faf3f9669b97016ffffffffffffffffffffffffffffffffffffffffffffffffffffffffffffffff",
        "nonce": "0x24",
        "chainId": "0xe708"
      },
      "additionalContracts": [],
      "isFixedGasLimit": false
    },
    {
      "hash": "0xf4ef748977f95adbc04fe3ad540e52ece10780c64cecb707fe875bbf43cbaf38",
      "transactionType": "CALL",
      "contractName": null,
      "contractAddress": "0x0b306bf915c4d645ff596e518faf3f9669b97016",
      "function": "createAndAddToPosition((string,address,address),(uint256,uint256,bytes))",
      "arguments": [
        "(\"SHORT_BASE_ODOS_ZEROLEND\", 0x176211869cA2b568f2A7D4EE941E073a821EE1ff, 0xe5D7C2a44FfDDf6b295A15c148167daaAf5Cf34f)",
        "(38900000000000000, 116700000000000000, 0x83bd37f90001e5d7c2a44ffddf6b295a15c148167daaaf5cf34f0001176211869ca2b568f2a7d4ee941e073a821ee1ff080228cd60270d00000418562bd1028f5c000156c85a254dd12ee8d9c04049a4ab62769ce982100000000170183197cdc073560ee5998cca37b21cc0b2e2b60000000003010203000a0101010200ff000000000000000000000000000000000000000000586733678b9ac9da43dd7cb83bbb41d23677dfc3e5d7c2a44ffddf6b295a15c148167daaaf5cf34f000000000000000000000000000000000000000000000000)"
      ],
      "transaction": {
        "from": "0xf39fd6e51aad88f6f4ce6ab8827279cfffb92266",
        "to": "0x0b306bf915c4d645ff596e518faf3f9669b97016",
        "gas": "0x1b70e5",
        "value": "0x0",
        "input": "0x211d9b04000000000000000000000000000000000000000000000000000000000000004000000000000000000000000000000000000000000000000000000000000000e00000000000000000000000000000000000000000000000000000000000000060000000000000000000000000176211869ca2b568f2a7d4ee941e073a821ee1ff000000000000000000000000e5d7c2a44ffddf6b295a15c148167daaaf5cf34f000000000000000000000000000000000000000000000000000000000000001853484f52545f424153455f4f444f535f5a45524f4c454e440000000000000000000000000000000000000000000000000000000000000000008a335809c34000000000000000000000000000000000000000000000000000019e9a081d49c000000000000000000000000000000000000000000000000000000000000000006000000000000000000000000000000000000000000000000000000000000000d483bd37f90001e5d7c2a44ffddf6b295a15c148167daaaf5cf34f0001176211869ca2b568f2a7d4ee941e073a821ee1ff080228cd60270d00000418562bd1028f5c000156c85a254dd12ee8d9c04049a4ab62769ce982100000000170183197cdc073560ee5998cca37b21cc0b2e2b60000000003010203000a0101010200ff000000000000000000000000000000000000000000586733678b9ac9da43dd7cb83bbb41d23677dfc3e5d7c2a44ffddf6b295a15c148167daaaf5cf34f000000000000000000000000000000000000000000000000000000000000000000000000",
        "nonce": "0x25",
        "chainId": "0xe708"
      },
      "additionalContracts": [
        {
          "transactionType": "CREATE2",
          "address": "0x70183197cdc073560ee5998cca37b21cc0b2e2b6",
          "initCode": "0x60a060405234801561001057600080fd5b506040516101d43803806101d483398101604081905261002f9161009a565b6001600160a01b0381166100895760405162461bcd60e51b815260206004820152601e60248201527f496e76616c696420696d706c656d656e746174696f6e20616464726573730000604482015260640160405180910390fd5b6001600160a01b03166080526100ca565b6000602082840312156100ac57600080fd5b81516001600160a01b03811681146100c357600080fd5b9392505050565b60805160ec6100e860003960008181602001526055015260ec6000f3fe608060405260043610601c5760003560e01c80635c60da1b146045575b60437f00000000000000000000000000000000000000000000000000000000000000006093565b005b348015605057600080fd5b5060777f000000000000000000000000000000000000000000000000000000000000000081565b6040516001600160a01b03909116815260200160405180910390f35b3660008037600080366000845af43d6000803e80801560b1573d6000f35b3d6000fdfea2646970667358221220ece5f241c936be627b009529639055436949a725352d983e1257a877a1e6225564736f6c6343000819003300000000000000000000000059b670e9fa9d0a427751af201d676719a970857b"
        }
      ],
      "isFixedGasLimit": false
    }
  ],
  "receipts": [
    {
      "status": "0x1",
      "cumulativeGasUsed": "0xafee",
      "logs": [
        {
          "address": "0xe5d7c2a44ffddf6b295a15c148167daaaf5cf34f",
          "topics": [
            "0xe1fffcc4923d04b559f4d29a8bfc6cda04eb5b0d3c460751c2402c5c5cc9109c",
            "0x000000000000000000000000f39fd6e51aad88f6f4ce6ab8827279cfffb92266"
          ],
          "data": "0x0000000000000000000000000000000000000000000000000de0b6b3a7640000",
          "blockHash": "0xc75f4cb2740c9e8d28760826b665cac6918d50e09e61c338b6db483ab869319c",
          "blockNumber": "0x977942",
          "blockTimestamp": "0x66f41c03",
          "transactionHash": "0xedd3e3d0608ae0ae2b45217144b3131d7709f14e4cbb4241ac91b5cab8c94f0b",
          "transactionIndex": "0x0",
          "logIndex": "0x0",
          "removed": false
        }
      ],
      "logsBloom": "0x0000000000000000000000000000000000000000000000000000000000000000000000000000000000000000000000000000000000000000000000000000000000000000000000000000000000000000000000000000000000000000800000000000000000000000000000010000000000000000000000000000000000000000000000000000000000100000000000000000000100000000000000000000000000000000000000000000000000000000000000000000000000000000200000000000000000000020000000000000000000000000a000000000000000000000000000000000000000000000000000000000000000000000400000000000000000",
      "type": "0x2",
      "transactionHash": "0xedd3e3d0608ae0ae2b45217144b3131d7709f14e4cbb4241ac91b5cab8c94f0b",
      "transactionIndex": "0x0",
      "blockHash": "0xc75f4cb2740c9e8d28760826b665cac6918d50e09e61c338b6db483ab869319c",
      "blockNumber": "0x977942",
      "gasUsed": "0xafee",
      "effectiveGasPrice": "0x888d90c",
      "blobGasPrice": "0x1",
      "from": "0xf39fd6e51aad88f6f4ce6ab8827279cfffb92266",
      "to": "0xe5d7c2a44ffddf6b295a15c148167daaaf5cf34f",
      "contractAddress": null,
      "root": "0x0000000000000000000000000000000000000000000000000000000000000000"
    },
    {
      "status": "0x1",
      "cumulativeGasUsed": "0xb51c",
      "logs": [
        {
          "address": "0xe5d7c2a44ffddf6b295a15c148167daaaf5cf34f",
          "topics": [
            "0x8c5be1e5ebec7d5bd14f71427d1e84f3dd0314c0f7b2291e5b200ac8c7c3b925",
            "0x000000000000000000000000f39fd6e51aad88f6f4ce6ab8827279cfffb92266",
            "0x0000000000000000000000002d8879046f1559e53eb052e949e9544bcb72f414"
          ],
          "data": "0xffffffffffffffffffffffffffffffffffffffffffffffffffffffffffffffff",
          "blockHash": "0x162a8a92de3c5e8bb5dc7f8a3ddbd7d73f48c5527e0dbd60c5d81d64287b5508",
          "blockNumber": "0x977943",
          "blockTimestamp": "0x66f41c04",
          "transactionHash": "0xcbfdcc0bdba1205386ab80ca2ea2d8c01662b1682440ac88f2db0268271d9d97",
          "transactionIndex": "0x0",
          "logIndex": "0x0",
          "removed": false
        }
      ],
      "logsBloom": "0x0000000000000000000000000000000000000000000000000000000000000000000000000000000000001000000000000000000000000000000000000020000000000000000000000000000000000000000000000000000000000000000000000000000000000000008000010000000000000000000000000000000000000000000000000000000000100000000000000000000000000000000000000000000002000000020000000000000000000000000000000000000000000000200000000000000000000020000000000000000000000000a000000000000000000000000010000000000000000000000000000000000000000000000000000000000000",
      "type": "0x2",
      "transactionHash": "0xcbfdcc0bdba1205386ab80ca2ea2d8c01662b1682440ac88f2db0268271d9d97",
      "transactionIndex": "0x0",
      "blockHash": "0x162a8a92de3c5e8bb5dc7f8a3ddbd7d73f48c5527e0dbd60c5d81d64287b5508",
      "blockNumber": "0x977943",
      "gasUsed": "0xb51c",
      "effectiveGasPrice": "0x888d90c",
      "blobGasPrice": "0x1",
      "from": "0xf39fd6e51aad88f6f4ce6ab8827279cfffb92266",
      "to": "0xe5d7c2a44ffddf6b295a15c148167daaaf5cf34f",
      "contractAddress": null,
      "root": "0x0000000000000000000000000000000000000000000000000000000000000000"
    },
    {
      "status": "0x1",
      "cumulativeGasUsed": "0xeb1e",
      "logs": [
        {
          "address": "0x176211869ca2b568f2a7d4ee941e073a821ee1ff",
          "topics": [
            "0x8c5be1e5ebec7d5bd14f71427d1e84f3dd0314c0f7b2291e5b200ac8c7c3b925",
            "0x000000000000000000000000f39fd6e51aad88f6f4ce6ab8827279cfffb92266",
            "0x0000000000000000000000000b306bf915c4d645ff596e518faf3f9669b97016"
          ],
          "data": "0xffffffffffffffffffffffffffffffffffffffffffffffffffffffffffffffff",
          "blockHash": "0xc4bafbd1a5d86c76d195d7425b071b970f5b9212dac8a656236e50ad9191e33a",
          "blockNumber": "0x977944",
          "blockTimestamp": "0x66f41c05",
          "transactionHash": "0x083f092623aec718babb47fdbc76ad82a2e6a52c21b7911af365a38b434a24ab",
          "transactionIndex": "0x0",
          "logIndex": "0x0",
          "removed": false
        }
      ],
      "logsBloom": "0x00000000000000000000000000000008000000000000000000000000000000000000000000000000000000000000000000000800000000000004000000200000000000000000000000000000020000000000000000000000000000000000000000000000000000000000000300000000000000000000000000000000000000000000000000000000000000000000000000000000000000000000000000000000020000000000000000000000000000000000000000000000000000000000000000000000000000200000000000000000000000002000000000000000000000000010000000000000000000000400000000000000000000000000000000000000",
      "type": "0x2",
      "transactionHash": "0x083f092623aec718babb47fdbc76ad82a2e6a52c21b7911af365a38b434a24ab",
      "transactionIndex": "0x0",
      "blockHash": "0xc4bafbd1a5d86c76d195d7425b071b970f5b9212dac8a656236e50ad9191e33a",
      "blockNumber": "0x977944",
      "gasUsed": "0xeb1e",
      "effectiveGasPrice": "0x888d90c",
      "blobGasPrice": "0x1",
      "from": "0xf39fd6e51aad88f6f4ce6ab8827279cfffb92266",
      "to": "0x176211869ca2b568f2a7d4ee941e073a821ee1ff",
      "contractAddress": null,
      "root": "0x0000000000000000000000000000000000000000000000000000000000000000"
    },
    {
      "status": "0x1",
      "cumulativeGasUsed": "0xb51c",
      "logs": [
        {
          "address": "0xe5d7c2a44ffddf6b295a15c148167daaaf5cf34f",
          "topics": [
            "0x8c5be1e5ebec7d5bd14f71427d1e84f3dd0314c0f7b2291e5b200ac8c7c3b925",
            "0x000000000000000000000000f39fd6e51aad88f6f4ce6ab8827279cfffb92266",
            "0x0000000000000000000000000b306bf915c4d645ff596e518faf3f9669b97016"
          ],
          "data": "0xffffffffffffffffffffffffffffffffffffffffffffffffffffffffffffffff",
          "blockHash": "0xe0361b58553c23009626ed083e68ace37d365677a3b0a76727f442b0f16c65f1",
          "blockNumber": "0x977945",
          "blockTimestamp": "0x66f41c06",
          "transactionHash": "0x769402ccec8954615de8a85fdf691601bcc9d367e1ddd52c0446860647b6ddd5",
          "transactionIndex": "0x0",
          "logIndex": "0x0",
          "removed": false
        }
      ],
      "logsBloom": "0x0000000000000000000000000000000800000000000000000000000000000000000000000000000000000000000000000000000000000000000000000020000000000000000000000000000000000000000000000000000000000000000000000000000000000000000000030000000000000000000000000000000000000000000000000000000000100000000000000000000000000000000000000000000002000000000000000000000000000000000000000000000000000000200000000000000000000020000000000000000000000000a000000000000000000000000010000000000000000000000400000000000000000000000000000000000000",
      "type": "0x2",
      "transactionHash": "0x769402ccec8954615de8a85fdf691601bcc9d367e1ddd52c0446860647b6ddd5",
      "transactionIndex": "0x0",
      "blockHash": "0xe0361b58553c23009626ed083e68ace37d365677a3b0a76727f442b0f16c65f1",
      "blockNumber": "0x977945",
      "gasUsed": "0xb51c",
      "effectiveGasPrice": "0x888d90c",
      "blobGasPrice": "0x1",
      "from": "0xf39fd6e51aad88f6f4ce6ab8827279cfffb92266",
      "to": "0xe5d7c2a44ffddf6b295a15c148167daaaf5cf34f",
      "contractAddress": null,
      "root": "0x0000000000000000000000000000000000000000000000000000000000000000"
    },
    {
      "status": "0x1",
      "cumulativeGasUsed": "0x11c7c",
      "logs": [
        {
          "address": "0xe5d7c2a44ffddf6b295a15c148167daaaf5cf34f",
          "topics": [
            "0x8c5be1e5ebec7d5bd14f71427d1e84f3dd0314c0f7b2291e5b200ac8c7c3b925",
            "0x000000000000000000000000f39fd6e51aad88f6f4ce6ab8827279cfffb92266",
            "0x0000000000000000000000000b306bf915c4d645ff596e518faf3f9669b97016"
          ],
          "data": "0xffffffffffffffffffffffffffffffffffffffffffffffffffffffffffffffff",
          "blockHash": "0xe0361b58553c23009626ed083e68ace37d365677a3b0a76727f442b0f16c65f1",
          "blockNumber": "0x977945",
          "blockTimestamp": "0x66f41c06",
          "transactionHash": "0x17fd105722fafff3a12edd9e1f9d8eb2c2b469d2491677ee1b6e4fd434b65642",
          "transactionIndex": "0x1",
          "logIndex": "0x1",
          "removed": false
        }
      ],
      "logsBloom": "0x0000000000000000000000000000000800000000000000000000000000000000000000000000000000000000000000000000000000000000000000000020000000000000000000000000000000000000000000000000000000000000000000000000000000000000000000030000000000000000000000000000000000000000000000000000000000100000000000000000000000000000000000000000000002000000000000000000000000000000000000000000000000000000200000000000000000000020000000000000000000000000a000000000000000000000000010000000000000000000000400000000000000000000000000000000000000",
      "type": "0x2",
      "transactionHash": "0x17fd105722fafff3a12edd9e1f9d8eb2c2b469d2491677ee1b6e4fd434b65642",
      "transactionIndex": "0x1",
      "blockHash": "0xe0361b58553c23009626ed083e68ace37d365677a3b0a76727f442b0f16c65f1",
      "blockNumber": "0x977945",
      "gasUsed": "0x6760",
      "effectiveGasPrice": "0x888d90c",
      "blobGasPrice": "0x1",
      "from": "0xf39fd6e51aad88f6f4ce6ab8827279cfffb92266",
      "to": "0xe5d7c2a44ffddf6b295a15c148167daaaf5cf34f",
      "contractAddress": null,
      "root": "0x0000000000000000000000000000000000000000000000000000000000000000"
    },
    {
      "status": "0x1",
      "cumulativeGasUsed": "0x1b9de",
      "logs": [
        {
          "address": "0x176211869ca2b568f2a7d4ee941e073a821ee1ff",
          "topics": [
            "0x8c5be1e5ebec7d5bd14f71427d1e84f3dd0314c0f7b2291e5b200ac8c7c3b925",
            "0x000000000000000000000000f39fd6e51aad88f6f4ce6ab8827279cfffb92266",
            "0x0000000000000000000000000b306bf915c4d645ff596e518faf3f9669b97016"
          ],
          "data": "0xffffffffffffffffffffffffffffffffffffffffffffffffffffffffffffffff",
          "blockHash": "0xe0361b58553c23009626ed083e68ace37d365677a3b0a76727f442b0f16c65f1",
          "blockNumber": "0x977945",
          "blockTimestamp": "0x66f41c06",
          "transactionHash": "0xed10200742850b98f188db33855085dc253b29c1da5c0cdb9b5c0b782c4d8cb8",
          "transactionIndex": "0x2",
          "logIndex": "0x2",
          "removed": false
        }
      ],
      "logsBloom": "0x00000000000000000000000000000008000000000000000000000000000000000000000000000000000000000000000000000800000000000004000000200000000000000000000000000000020000000000000000000000000000000000000000000000000000000000000300000000000000000000000000000000000000000000000000000000000000000000000000000000000000000000000000000000020000000000000000000000000000000000000000000000000000000000000000000000000000200000000000000000000000002000000000000000000000000010000000000000000000000400000000000000000000000000000000000000",
      "type": "0x2",
      "transactionHash": "0xed10200742850b98f188db33855085dc253b29c1da5c0cdb9b5c0b782c4d8cb8",
      "transactionIndex": "0x2",
      "blockHash": "0xe0361b58553c23009626ed083e68ace37d365677a3b0a76727f442b0f16c65f1",
      "blockNumber": "0x977945",
      "gasUsed": "0x9d62",
      "effectiveGasPrice": "0x888d90c",
      "blobGasPrice": "0x1",
      "from": "0xf39fd6e51aad88f6f4ce6ab8827279cfffb92266",
      "to": "0x176211869ca2b568f2a7d4ee941e073a821ee1ff",
      "contractAddress": null,
      "root": "0x0000000000000000000000000000000000000000000000000000000000000000"
    },
    {
      "status": "0x1",
      "cumulativeGasUsed": "0x147d57",
      "logs": [
        {
          "address": "0x9a9f2ccfde556a7e9ff0848998aa4a0cfd8863ae",
          "topics": [
            "0xddf252ad1be2c89b69c2b068fc378daa952ba7f163c4a11628f55a4df523b3ef",
            "0x0000000000000000000000000000000000000000000000000000000000000000",
            "0x000000000000000000000000f39fd6e51aad88f6f4ce6ab8827279cfffb92266",
            "0x0000000000000000000000000000000000000000000000000000000000000000"
          ],
          "data": "0x",
          "blockHash": "0xe0361b58553c23009626ed083e68ace37d365677a3b0a76727f442b0f16c65f1",
          "blockNumber": "0x977945",
          "blockTimestamp": "0x66f41c06",
          "transactionHash": "0xf4ef748977f95adbc04fe3ad540e52ece10780c64cecb707fe875bbf43cbaf38",
          "transactionIndex": "0x3",
          "logIndex": "0x3",
          "removed": false
        },
        {
          "address": "0xe5d7c2a44ffddf6b295a15c148167daaaf5cf34f",
          "topics": [
            "0xddf252ad1be2c89b69c2b068fc378daa952ba7f163c4a11628f55a4df523b3ef",
            "0x000000000000000000000000f39fd6e51aad88f6f4ce6ab8827279cfffb92266",
            "0x00000000000000000000000070183197cdc073560ee5998cca37b21cc0b2e2b6"
          ],
          "data": "0x000000000000000000000000000000000000000000000000008a335809c34000",
          "blockHash": "0xe0361b58553c23009626ed083e68ace37d365677a3b0a76727f442b0f16c65f1",
          "blockNumber": "0x977945",
          "blockTimestamp": "0x66f41c06",
          "transactionHash": "0xf4ef748977f95adbc04fe3ad540e52ece10780c64cecb707fe875bbf43cbaf38",
          "transactionIndex": "0x3",
          "logIndex": "0x4",
          "removed": false
        },
        {
          "address": "0xe5d7c2a44ffddf6b295a15c148167daaaf5cf34f",
          "topics": [
            "0xddf252ad1be2c89b69c2b068fc378daa952ba7f163c4a11628f55a4df523b3ef",
            "0x000000000000000000000000b4ffef15daf4c02787bc5332580b838ce39805f5",
            "0x00000000000000000000000070183197cdc073560ee5998cca37b21cc0b2e2b6"
          ],
          "data": "0x000000000000000000000000000000000000000000000000019e9a081d49c000",
          "blockHash": "0xe0361b58553c23009626ed083e68ace37d365677a3b0a76727f442b0f16c65f1",
          "blockNumber": "0x977945",
          "blockTimestamp": "0x66f41c06",
          "transactionHash": "0xf4ef748977f95adbc04fe3ad540e52ece10780c64cecb707fe875bbf43cbaf38",
          "transactionIndex": "0x3",
          "logIndex": "0x5",
          "removed": false
        },
        {
          "address": "0xe5d7c2a44ffddf6b295a15c148167daaaf5cf34f",
          "topics": [
            "0x8c5be1e5ebec7d5bd14f71427d1e84f3dd0314c0f7b2291e5b200ac8c7c3b925",
            "0x00000000000000000000000070183197cdc073560ee5998cca37b21cc0b2e2b6",
            "0x0000000000000000000000002d8879046f1559e53eb052e949e9544bcb72f414"
          ],
          "data": "0x0000000000000000000000000000000000000000000000000228cd60270d0000",
          "blockHash": "0xe0361b58553c23009626ed083e68ace37d365677a3b0a76727f442b0f16c65f1",
          "blockNumber": "0x977945",
          "blockTimestamp": "0x66f41c06",
          "transactionHash": "0xf4ef748977f95adbc04fe3ad540e52ece10780c64cecb707fe875bbf43cbaf38",
          "transactionIndex": "0x3",
          "logIndex": "0x6",
          "removed": false
        },
        {
          "address": "0xe5d7c2a44ffddf6b295a15c148167daaaf5cf34f",
          "topics": [
            "0xddf252ad1be2c89b69c2b068fc378daa952ba7f163c4a11628f55a4df523b3ef",
            "0x00000000000000000000000070183197cdc073560ee5998cca37b21cc0b2e2b6",
            "0x00000000000000000000000056c85a254dd12ee8d9c04049a4ab62769ce98210"
          ],
          "data": "0x0000000000000000000000000000000000000000000000000228cd60270d0000",
          "blockHash": "0xe0361b58553c23009626ed083e68ace37d365677a3b0a76727f442b0f16c65f1",
          "blockNumber": "0x977945",
          "blockTimestamp": "0x66f41c06",
          "transactionHash": "0xf4ef748977f95adbc04fe3ad540e52ece10780c64cecb707fe875bbf43cbaf38",
          "transactionIndex": "0x3",
          "logIndex": "0x7",
          "removed": false
        },
        {
          "address": "0x176211869ca2b568f2a7d4ee941e073a821ee1ff",
          "topics": [
            "0xddf252ad1be2c89b69c2b068fc378daa952ba7f163c4a11628f55a4df523b3ef",
            "0x000000000000000000000000586733678b9ac9da43dd7cb83bbb41d23677dfc3",
            "0x0000000000000000000000002d8879046f1559e53eb052e949e9544bcb72f414"
          ],
          "data": "0x000000000000000000000000000000000000000000000000000000001850e9a1",
          "blockHash": "0xe0361b58553c23009626ed083e68ace37d365677a3b0a76727f442b0f16c65f1",
          "blockNumber": "0x977945",
          "blockTimestamp": "0x66f41c06",
          "transactionHash": "0xf4ef748977f95adbc04fe3ad540e52ece10780c64cecb707fe875bbf43cbaf38",
          "transactionIndex": "0x3",
          "logIndex": "0x8",
          "removed": false
        },
        {
          "address": "0xe5d7c2a44ffddf6b295a15c148167daaaf5cf34f",
          "topics": [
            "0xddf252ad1be2c89b69c2b068fc378daa952ba7f163c4a11628f55a4df523b3ef",
            "0x00000000000000000000000056c85a254dd12ee8d9c04049a4ab62769ce98210",
            "0x000000000000000000000000586733678b9ac9da43dd7cb83bbb41d23677dfc3"
          ],
          "data": "0x0000000000000000000000000000000000000000000000000228cd60270d0000",
          "blockHash": "0xe0361b58553c23009626ed083e68ace37d365677a3b0a76727f442b0f16c65f1",
          "blockNumber": "0x977945",
          "blockTimestamp": "0x66f41c06",
          "transactionHash": "0xf4ef748977f95adbc04fe3ad540e52ece10780c64cecb707fe875bbf43cbaf38",
          "transactionIndex": "0x3",
          "logIndex": "0x9",
          "removed": false
        },
        {
          "address": "0x586733678b9ac9da43dd7cb83bbb41d23677dfc3",
          "topics": [
            "0x19b47279256b2a23a1665c810c8d55a1758940ee09377d4f8d26497a3577dc83",
            "0x00000000000000000000000056c85a254dd12ee8d9c04049a4ab62769ce98210",
            "0x0000000000000000000000002d8879046f1559e53eb052e949e9544bcb72f414"
          ],
          "data": "0xffffffffffffffffffffffffffffffffffffffffffffffffffffffffe7af165f0000000000000000000000000000000000000000000000000228cd60270d00000000000000000000000000000000000000004c4b408a710706ee6d4118dc1a0b000000000000000000000000000000000000000000000000007257bb8a05f77500000000000000000000000000000000000000000000000000000000000303e50000000000000000000000000000000000000000000000000000000000000000000000000000000000000000000000000000000000000000000004ab89ee1400",
          "blockHash": "0xe0361b58553c23009626ed083e68ace37d365677a3b0a76727f442b0f16c65f1",
          "blockNumber": "0x977945",
          "blockTimestamp": "0x66f41c06",
          "transactionHash": "0xf4ef748977f95adbc04fe3ad540e52ece10780c64cecb707fe875bbf43cbaf38",
          "transactionIndex": "0x3",
          "logIndex": "0xa",
          "removed": false
        },
        {
          "address": "0x176211869ca2b568f2a7d4ee941e073a821ee1ff",
          "topics": [
            "0xddf252ad1be2c89b69c2b068fc378daa952ba7f163c4a11628f55a4df523b3ef",
            "0x0000000000000000000000002d8879046f1559e53eb052e949e9544bcb72f414",
            "0x00000000000000000000000070183197cdc073560ee5998cca37b21cc0b2e2b6"
          ],
          "data": "0x000000000000000000000000000000000000000000000000000000001850e9a1",
          "blockHash": "0xe0361b58553c23009626ed083e68ace37d365677a3b0a76727f442b0f16c65f1",
          "blockNumber": "0x977945",
          "blockTimestamp": "0x66f41c06",
          "transactionHash": "0xf4ef748977f95adbc04fe3ad540e52ece10780c64cecb707fe875bbf43cbaf38",
          "transactionIndex": "0x3",
          "logIndex": "0xb",
          "removed": false
        },
        {
          "address": "0x2d8879046f1559e53eb052e949e9544bcb72f414",
          "topics": [
            "0x823eaf01002d7353fbcadb2ea3305cc46fa35d799cb0914846d185ac06f8ad05"
          ],
          "data": "0x00000000000000000000000070183197cdc073560ee5998cca37b21cc0b2e2b60000000000000000000000000000000000000000000000000228cd60270d0000000000000000000000000000e5d7c2a44ffddf6b295a15c148167daaaf5cf34f000000000000000000000000000000000000000000000000000000001850e9a1000000000000000000000000176211869ca2b568f2a7d4ee941e073a821ee1fffffffffffffffffffffffffffffffffffffffffffffffffffffffffffffabdd00000000000000000000000000000000000000000000000000000000000000000",
          "blockHash": "0xe0361b58553c23009626ed083e68ace37d365677a3b0a76727f442b0f16c65f1",
          "blockNumber": "0x977945",
          "blockTimestamp": "0x66f41c06",
          "transactionHash": "0xf4ef748977f95adbc04fe3ad540e52ece10780c64cecb707fe875bbf43cbaf38",
          "transactionIndex": "0x3",
          "logIndex": "0xc",
          "removed": false
        },
        {
          "address": "0x176211869ca2b568f2a7d4ee941e073a821ee1ff",
          "topics": [
            "0x8c5be1e5ebec7d5bd14f71427d1e84f3dd0314c0f7b2291e5b200ac8c7c3b925",
            "0x00000000000000000000000070183197cdc073560ee5998cca37b21cc0b2e2b6",
            "0x0000000000000000000000002f9bb73a8e98793e26cb2f6c4ad037bdf1c6b269"
          ],
          "data": "0x000000000000000000000000000000000000000000000000000000001850e9a1",
          "blockHash": "0xe0361b58553c23009626ed083e68ace37d365677a3b0a76727f442b0f16c65f1",
          "blockNumber": "0x977945",
          "blockTimestamp": "0x66f41c06",
          "transactionHash": "0xf4ef748977f95adbc04fe3ad540e52ece10780c64cecb707fe875bbf43cbaf38",
          "transactionIndex": "0x3",
          "logIndex": "0xd",
          "removed": false
        },
        {
          "address": "0x2f9bb73a8e98793e26cb2f6c4ad037bdf1c6b269",
          "topics": [
            "0x804c9b842b2748a22bb64b345453a3de7ca54a6ca45ce00d415894979e22897a",
            "0x000000000000000000000000176211869ca2b568f2a7d4ee941e073a821ee1ff"
          ],
          "data": "0x00000000000000000000000000000000000000000027ab51aa57e93f7be1c5ea0000000000000000000000000000000000000000004fb3f56ee0c02be7d19424000000000000000000000000000000000000000000434b95cdc2be3f78d194240000000000000000000000000000000000000000035efe0025257d51bcbf89e40000000000000000000000000000000000000000036db88c4f0807985d7ad459",
          "blockHash": "0xe0361b58553c23009626ed083e68ace37d365677a3b0a76727f442b0f16c65f1",
          "blockNumber": "0x977945",
          "blockTimestamp": "0x66f41c06",
          "transactionHash": "0xf4ef748977f95adbc04fe3ad540e52ece10780c64cecb707fe875bbf43cbaf38",
          "transactionIndex": "0x3",
          "logIndex": "0xe",
          "removed": false
        },
        {
          "address": "0x176211869ca2b568f2a7d4ee941e073a821ee1ff",
          "topics": [
            "0xddf252ad1be2c89b69c2b068fc378daa952ba7f163c4a11628f55a4df523b3ef",
            "0x00000000000000000000000070183197cdc073560ee5998cca37b21cc0b2e2b6",
            "0x0000000000000000000000002e207eca8b6bf77a6ac82763eeed2a94de4f081d"
          ],
          "data": "0x000000000000000000000000000000000000000000000000000000001850e9a1",
          "blockHash": "0xe0361b58553c23009626ed083e68ace37d365677a3b0a76727f442b0f16c65f1",
          "blockNumber": "0x977945",
          "blockTimestamp": "0x66f41c06",
          "transactionHash": "0xf4ef748977f95adbc04fe3ad540e52ece10780c64cecb707fe875bbf43cbaf38",
          "transactionIndex": "0x3",
          "logIndex": "0xf",
          "removed": false
        },
        {
          "address": "0x28f6899ff643261ca9766ddc251b359a2d00b945",
          "topics": [
            "0x3303facd24627943a92e9dc87cfbb34b15c49b726eec3ad3487c16be9ab8efe8",
            "0x0000000000000000000000002e207eca8b6bf77a6ac82763eeed2a94de4f081d",
            "0x00000000000000000000000040a59a3f3b16d9e74c811d24d8b7969664cfe180",
            "0x00000000000000000000000070183197cdc073560ee5998cca37b21cc0b2e2b6"
          ],
          "data": "0x0000000000000000000000000000000000000000000000040755b053b796c7ed0000000000000000000000000000000000000000000000040755b053b796c7ed0000000000000000000000000000000000000000000000000000000000000000",
          "blockHash": "0xe0361b58553c23009626ed083e68ace37d365677a3b0a76727f442b0f16c65f1",
          "blockNumber": "0x977945",
          "blockTimestamp": "0x66f41c06",
          "transactionHash": "0xf4ef748977f95adbc04fe3ad540e52ece10780c64cecb707fe875bbf43cbaf38",
          "transactionIndex": "0x3",
          "logIndex": "0x10",
          "removed": false
        },
        {
          "address": "0x28f6899ff643261ca9766ddc251b359a2d00b945",
          "topics": [
            "0x3303facd24627943a92e9dc87cfbb34b15c49b726eec3ad3487c16be9ab8efe8",
            "0x0000000000000000000000002e207eca8b6bf77a6ac82763eeed2a94de4f081d",
            "0x00000000000000000000000078354f8dccb269a615a7e0a24f9b0718fdc3c7a7",
            "0x00000000000000000000000070183197cdc073560ee5998cca37b21cc0b2e2b6"
          ],
          "data": "0x0000000000000000000000000000000000000000000000006b71635002e4eca70000000000000000000000000000000000000000000000006b71635002e4eca70000000000000000000000000000000000000000000000000000000000000000",
          "blockHash": "0xe0361b58553c23009626ed083e68ace37d365677a3b0a76727f442b0f16c65f1",
          "blockNumber": "0x977945",
          "blockTimestamp": "0x66f41c06",
          "transactionHash": "0xf4ef748977f95adbc04fe3ad540e52ece10780c64cecb707fe875bbf43cbaf38",
          "transactionIndex": "0x3",
          "logIndex": "0x11",
          "removed": false
        },
        {
          "address": "0x2e207eca8b6bf77a6ac82763eeed2a94de4f081d",
          "topics": [
            "0xddf252ad1be2c89b69c2b068fc378daa952ba7f163c4a11628f55a4df523b3ef",
            "0x0000000000000000000000000000000000000000000000000000000000000000",
            "0x00000000000000000000000070183197cdc073560ee5998cca37b21cc0b2e2b6"
          ],
          "data": "0x000000000000000000000000000000000000000000000000000000001850e9a1",
          "blockHash": "0xe0361b58553c23009626ed083e68ace37d365677a3b0a76727f442b0f16c65f1",
          "blockNumber": "0x977945",
          "blockTimestamp": "0x66f41c06",
          "transactionHash": "0xf4ef748977f95adbc04fe3ad540e52ece10780c64cecb707fe875bbf43cbaf38",
          "transactionIndex": "0x3",
          "logIndex": "0x12",
          "removed": false
        },
        {
          "address": "0x2e207eca8b6bf77a6ac82763eeed2a94de4f081d",
          "topics": [
            "0x458f5fa412d0f69b08dd84872b0215675cc67bc1d5b6fd93300a1c3878b86196",
            "0x00000000000000000000000070183197cdc073560ee5998cca37b21cc0b2e2b6",
            "0x00000000000000000000000070183197cdc073560ee5998cca37b21cc0b2e2b6"
          ],
          "data": "0x000000000000000000000000000000000000000000000000000000001850e9a100000000000000000000000000000000000000000000000000000000000000000000000000000000000000000000000000000000035efe0025257d51bcbf89e4",
          "blockHash": "0xe0361b58553c23009626ed083e68ace37d365677a3b0a76727f442b0f16c65f1",
          "blockNumber": "0x977945",
          "blockTimestamp": "0x66f41c06",
          "transactionHash": "0xf4ef748977f95adbc04fe3ad540e52ece10780c64cecb707fe875bbf43cbaf38",
          "transactionIndex": "0x3",
          "logIndex": "0x13",
          "removed": false
        },
        {
          "address": "0x2f9bb73a8e98793e26cb2f6c4ad037bdf1c6b269",
          "topics": [
            "0x00058a56ea94653cdf4f152d227ace22d4c00ad99e2a43f58cb7d9e3feb295f2",
            "0x000000000000000000000000176211869ca2b568f2a7d4ee941e073a821ee1ff",
            "0x00000000000000000000000070183197cdc073560ee5998cca37b21cc0b2e2b6"
          ],
          "data": "0x",
          "blockHash": "0xe0361b58553c23009626ed083e68ace37d365677a3b0a76727f442b0f16c65f1",
          "blockNumber": "0x977945",
          "blockTimestamp": "0x66f41c06",
          "transactionHash": "0xf4ef748977f95adbc04fe3ad540e52ece10780c64cecb707fe875bbf43cbaf38",
          "transactionIndex": "0x3",
          "logIndex": "0x14",
          "removed": false
        },
        {
          "address": "0x2f9bb73a8e98793e26cb2f6c4ad037bdf1c6b269",
          "topics": [
            "0x2b627736bca15cd5381dcf80b0bf11fd197d01a037c52b927a881a10fb73ba61",
            "0x000000000000000000000000176211869ca2b568f2a7d4ee941e073a821ee1ff",
            "0x00000000000000000000000070183197cdc073560ee5998cca37b21cc0b2e2b6",
            "0x0000000000000000000000000000000000000000000000000000000000000000"
          ],
          "data": "0x00000000000000000000000070183197cdc073560ee5998cca37b21cc0b2e2b6000000000000000000000000000000000000000000000000000000001850e9a1",
          "blockHash": "0xe0361b58553c23009626ed083e68ace37d365677a3b0a76727f442b0f16c65f1",
          "blockNumber": "0x977945",
          "blockTimestamp": "0x66f41c06",
          "transactionHash": "0xf4ef748977f95adbc04fe3ad540e52ece10780c64cecb707fe875bbf43cbaf38",
          "transactionIndex": "0x3",
          "logIndex": "0x15",
          "removed": false
        },
        {
          "address": "0x28f6899ff643261ca9766ddc251b359a2d00b945",
          "topics": [
            "0x3303facd24627943a92e9dc87cfbb34b15c49b726eec3ad3487c16be9ab8efe8",
            "0x000000000000000000000000cb2da0f5aece616e2cbf29576cfc795fb15c6133",
            "0x00000000000000000000000040a59a3f3b16d9e74c811d24d8b7969664cfe180",
            "0x00000000000000000000000070183197cdc073560ee5998cca37b21cc0b2e2b6"
          ],
          "data": "0x00000000000000000000000000000000000000000000b9f3a432553e843c8a7900000000000000000000000000000000000000000000b9f3a432553e843c8a790000000000000000000000000000000000000000000000000000000000000000",
          "blockHash": "0xe0361b58553c23009626ed083e68ace37d365677a3b0a76727f442b0f16c65f1",
          "blockNumber": "0x977945",
          "blockTimestamp": "0x66f41c06",
          "transactionHash": "0xf4ef748977f95adbc04fe3ad540e52ece10780c64cecb707fe875bbf43cbaf38",
          "transactionIndex": "0x3",
          "logIndex": "0x16",
          "removed": false
        },
        {
          "address": "0x28f6899ff643261ca9766ddc251b359a2d00b945",
          "topics": [
            "0x3303facd24627943a92e9dc87cfbb34b15c49b726eec3ad3487c16be9ab8efe8",
            "0x000000000000000000000000cb2da0f5aece616e2cbf29576cfc795fb15c6133",
            "0x00000000000000000000000078354f8dccb269a615a7e0a24f9b0718fdc3c7a7",
            "0x00000000000000000000000070183197cdc073560ee5998cca37b21cc0b2e2b6"
          ],
          "data": "0x000000000000000000000000000000000000000000000ea3476564a982547e93000000000000000000000000000000000000000000000ea3476564a982547e930000000000000000000000000000000000000000000000000000000000000000",
          "blockHash": "0xe0361b58553c23009626ed083e68ace37d365677a3b0a76727f442b0f16c65f1",
          "blockNumber": "0x977945",
          "blockTimestamp": "0x66f41c06",
          "transactionHash": "0xf4ef748977f95adbc04fe3ad540e52ece10780c64cecb707fe875bbf43cbaf38",
          "transactionIndex": "0x3",
          "logIndex": "0x17",
          "removed": false
        },
        {
          "address": "0xcb2da0f5aece616e2cbf29576cfc795fb15c6133",
          "topics": [
            "0xddf252ad1be2c89b69c2b068fc378daa952ba7f163c4a11628f55a4df523b3ef",
            "0x0000000000000000000000000000000000000000000000000000000000000000",
            "0x00000000000000000000000070183197cdc073560ee5998cca37b21cc0b2e2b6"
          ],
          "data": "0x000000000000000000000000000000000000000000000000019ecf19c84f8c00",
          "blockHash": "0xe0361b58553c23009626ed083e68ace37d365677a3b0a76727f442b0f16c65f1",
          "blockNumber": "0x977945",
          "blockTimestamp": "0x66f41c06",
          "transactionHash": "0xf4ef748977f95adbc04fe3ad540e52ece10780c64cecb707fe875bbf43cbaf38",
          "transactionIndex": "0x3",
          "logIndex": "0x18",
          "removed": false
        },
        {
          "address": "0xcb2da0f5aece616e2cbf29576cfc795fb15c6133",
          "topics": [
            "0x458f5fa412d0f69b08dd84872b0215675cc67bc1d5b6fd93300a1c3878b86196",
            "0x00000000000000000000000070183197cdc073560ee5998cca37b21cc0b2e2b6",
            "0x00000000000000000000000070183197cdc073560ee5998cca37b21cc0b2e2b6"
          ],
          "data": "0x000000000000000000000000000000000000000000000000019ecf19c84f8c000000000000000000000000000000000000000000000000000000000000000000000000000000000000000000000000000000000003603d8a19100cd4a5b6527e",
          "blockHash": "0xe0361b58553c23009626ed083e68ace37d365677a3b0a76727f442b0f16c65f1",
          "blockNumber": "0x977945",
          "blockTimestamp": "0x66f41c06",
          "transactionHash": "0xf4ef748977f95adbc04fe3ad540e52ece10780c64cecb707fe875bbf43cbaf38",
          "transactionIndex": "0x3",
          "logIndex": "0x19",
          "removed": false
        },
        {
          "address": "0x2f9bb73a8e98793e26cb2f6c4ad037bdf1c6b269",
          "topics": [
            "0x804c9b842b2748a22bb64b345453a3de7ca54a6ca45ce00d415894979e22897a",
            "0x000000000000000000000000e5d7c2a44ffddf6b295a15c148167daaaf5cf34f"
          ],
          "data": "0x0000000000000000000000000000000000000000000c470edb17bd52ff9114560000000000000000000000000000000000000000002cda515c7d0b7c9f5b95540000000000000000000000000000000000000000001bf33f70c828996adcaa9f0000000000000000000000000000000000000000035311acd4c5346561343aa5000000000000000000000000000000000000000003603d8a19100cd4a5b6527e",
          "blockHash": "0xe0361b58553c23009626ed083e68ace37d365677a3b0a76727f442b0f16c65f1",
          "blockNumber": "0x977945",
          "blockTimestamp": "0x66f41c06",
          "transactionHash": "0xf4ef748977f95adbc04fe3ad540e52ece10780c64cecb707fe875bbf43cbaf38",
          "transactionIndex": "0x3",
          "logIndex": "0x1a",
          "removed": false
        },
        {
          "address": "0xe5d7c2a44ffddf6b295a15c148167daaaf5cf34f",
          "topics": [
            "0xddf252ad1be2c89b69c2b068fc378daa952ba7f163c4a11628f55a4df523b3ef",
            "0x000000000000000000000000b4ffef15daf4c02787bc5332580b838ce39805f5",
            "0x00000000000000000000000070183197cdc073560ee5998cca37b21cc0b2e2b6"
          ],
          "data": "0x000000000000000000000000000000000000000000000000019ecf19c84f8c00",
          "blockHash": "0xe0361b58553c23009626ed083e68ace37d365677a3b0a76727f442b0f16c65f1",
          "blockNumber": "0x977945",
          "blockTimestamp": "0x66f41c06",
          "transactionHash": "0xf4ef748977f95adbc04fe3ad540e52ece10780c64cecb707fe875bbf43cbaf38",
          "transactionIndex": "0x3",
          "logIndex": "0x1b",
          "removed": false
        },
        {
          "address": "0x2f9bb73a8e98793e26cb2f6c4ad037bdf1c6b269",
          "topics": [
            "0xb3d084820fb1a9decffb176436bd02558d15fac9b0ddfed8c465bc7359d7dce0",
            "0x000000000000000000000000e5d7c2a44ffddf6b295a15c148167daaaf5cf34f",
            "0x00000000000000000000000070183197cdc073560ee5998cca37b21cc0b2e2b6",
            "0x0000000000000000000000000000000000000000000000000000000000000000"
          ],
          "data": "0x00000000000000000000000070183197cdc073560ee5998cca37b21cc0b2e2b6000000000000000000000000000000000000000000000000019ecf19c84f8c0000000000000000000000000000000000000000000000000000000000000000020000000000000000000000000000000000000000001bf33f70c828996adcaa9f",
          "blockHash": "0xe0361b58553c23009626ed083e68ace37d365677a3b0a76727f442b0f16c65f1",
          "blockNumber": "0x977945",
          "blockTimestamp": "0x66f41c06",
          "transactionHash": "0xf4ef748977f95adbc04fe3ad540e52ece10780c64cecb707fe875bbf43cbaf38",
          "transactionIndex": "0x3",
          "logIndex": "0x1c",
          "removed": false
        },
        {
          "address": "0xe5d7c2a44ffddf6b295a15c148167daaaf5cf34f",
          "topics": [
            "0x8c5be1e5ebec7d5bd14f71427d1e84f3dd0314c0f7b2291e5b200ac8c7c3b925",
            "0x00000000000000000000000070183197cdc073560ee5998cca37b21cc0b2e2b6",
            "0x0000000000000000000000002d8879046f1559e53eb052e949e9544bcb72f414"
          ],
          "data": "0x0000000000000000000000000000000000000000000000000000000000000000",
          "blockHash": "0xe0361b58553c23009626ed083e68ace37d365677a3b0a76727f442b0f16c65f1",
          "blockNumber": "0x977945",
          "blockTimestamp": "0x66f41c06",
          "transactionHash": "0xf4ef748977f95adbc04fe3ad540e52ece10780c64cecb707fe875bbf43cbaf38",
          "transactionIndex": "0x3",
          "logIndex": "0x1d",
          "removed": false
        },
        {
          "address": "0x176211869ca2b568f2a7d4ee941e073a821ee1ff",
          "topics": [
            "0x8c5be1e5ebec7d5bd14f71427d1e84f3dd0314c0f7b2291e5b200ac8c7c3b925",
            "0x00000000000000000000000070183197cdc073560ee5998cca37b21cc0b2e2b6",
            "0x0000000000000000000000002f9bb73a8e98793e26cb2f6c4ad037bdf1c6b269"
          ],
          "data": "0x0000000000000000000000000000000000000000000000000000000000000000",
          "blockHash": "0xe0361b58553c23009626ed083e68ace37d365677a3b0a76727f442b0f16c65f1",
          "blockNumber": "0x977945",
          "blockTimestamp": "0x66f41c06",
          "transactionHash": "0xf4ef748977f95adbc04fe3ad540e52ece10780c64cecb707fe875bbf43cbaf38",
          "transactionIndex": "0x3",
          "logIndex": "0x1e",
          "removed": false
        },
        {
          "address": "0xe5d7c2a44ffddf6b295a15c148167daaaf5cf34f",
          "topics": [
            "0x8c5be1e5ebec7d5bd14f71427d1e84f3dd0314c0f7b2291e5b200ac8c7c3b925",
            "0x00000000000000000000000070183197cdc073560ee5998cca37b21cc0b2e2b6",
            "0x0000000000000000000000002f9bb73a8e98793e26cb2f6c4ad037bdf1c6b269"
          ],
          "data": "0x000000000000000000000000000000000000000000000000019ecf19c84f8c00",
          "blockHash": "0xe0361b58553c23009626ed083e68ace37d365677a3b0a76727f442b0f16c65f1",
          "blockNumber": "0x977945",
          "blockTimestamp": "0x66f41c06",
          "transactionHash": "0xf4ef748977f95adbc04fe3ad540e52ece10780c64cecb707fe875bbf43cbaf38",
          "transactionIndex": "0x3",
          "logIndex": "0x1f",
          "removed": false
        },
        {
          "address": "0x2f9bb73a8e98793e26cb2f6c4ad037bdf1c6b269",
          "topics": [
            "0x804c9b842b2748a22bb64b345453a3de7ca54a6ca45ce00d415894979e22897a",
            "0x000000000000000000000000e5d7c2a44ffddf6b295a15c148167daaaf5cf34f"
          ],
          "data": "0x0000000000000000000000000000000000000000000c47080a9e0c0373d801890000000000000000000000000000000000000000002cda506447768738ed4b050000000000000000000000000000000000000000001bf337af1b80ee376a582a0000000000000000000000000000000000000000035311acf2f97a898df50699000000000000000000000000000000000000000003603d8a19100cd4a5b6527e",
          "blockHash": "0xe0361b58553c23009626ed083e68ace37d365677a3b0a76727f442b0f16c65f1",
          "blockNumber": "0x977945",
          "blockTimestamp": "0x66f41c06",
          "transactionHash": "0xf4ef748977f95adbc04fe3ad540e52ece10780c64cecb707fe875bbf43cbaf38",
          "transactionIndex": "0x3",
          "logIndex": "0x20",
          "removed": false
        },
        {
          "address": "0xe5d7c2a44ffddf6b295a15c148167daaaf5cf34f",
          "topics": [
            "0xddf252ad1be2c89b69c2b068fc378daa952ba7f163c4a11628f55a4df523b3ef",
            "0x00000000000000000000000070183197cdc073560ee5998cca37b21cc0b2e2b6",
            "0x000000000000000000000000b4ffef15daf4c02787bc5332580b838ce39805f5"
          ],
          "data": "0x000000000000000000000000000000000000000000000000019ecf19c84f8c00",
          "blockHash": "0xe0361b58553c23009626ed083e68ace37d365677a3b0a76727f442b0f16c65f1",
          "blockNumber": "0x977945",
          "blockTimestamp": "0x66f41c06",
          "transactionHash": "0xf4ef748977f95adbc04fe3ad540e52ece10780c64cecb707fe875bbf43cbaf38",
          "transactionIndex": "0x3",
          "logIndex": "0x21",
          "removed": false
        },
        {
          "address": "0x2f9bb73a8e98793e26cb2f6c4ad037bdf1c6b269",
          "topics": [
            "0xefefaba5e921573100900a3ad9cf29f222d995fb3b6045797eaea7521bd8d6f0",
            "0x00000000000000000000000070183197cdc073560ee5998cca37b21cc0b2e2b6",
            "0x000000000000000000000000e5d7c2a44ffddf6b295a15c148167daaaf5cf34f",
            "0x0000000000000000000000000000000000000000000000000000000000000000"
          ],
          "data": "0x00000000000000000000000070183197cdc073560ee5998cca37b21cc0b2e2b6000000000000000000000000000000000000000000000000019e9a081d49c000000000000000000000000000000000000000000000000000000000000000000000000000000000000000000000000000000000000000000000003511ab05cc00",
          "blockHash": "0xe0361b58553c23009626ed083e68ace37d365677a3b0a76727f442b0f16c65f1",
          "blockNumber": "0x977945",
          "blockTimestamp": "0x66f41c06",
          "transactionHash": "0xf4ef748977f95adbc04fe3ad540e52ece10780c64cecb707fe875bbf43cbaf38",
          "transactionIndex": "0x3",
          "logIndex": "0x22",
          "removed": false
        }
      ],
      "logsBloom": "0x00000000004009040088000000000000080000004000000000000000010000000000a0002004080000001000000600000010080000100014000400000020000004100020004000000008000802000000200000000000000000000004004000000080040202000000008000012000080180400000020000000100001000000000000002008001000800100004000000000000000000000000008000040000004002080000020000200000000002000010000000001010080100000000a00001000250000208000120000000204000000000020100a0000e0000080000000020000010200000008020000000000001000040000000100002000000400000100000",
      "type": "0x2",
      "transactionHash": "0xf4ef748977f95adbc04fe3ad540e52ece10780c64cecb707fe875bbf43cbaf38",
      "transactionIndex": "0x3",
      "blockHash": "0xe0361b58553c23009626ed083e68ace37d365677a3b0a76727f442b0f16c65f1",
      "blockNumber": "0x977945",
      "gasUsed": "0x12c379",
      "effectiveGasPrice": "0x888d90c",
      "blobGasPrice": "0x1",
      "from": "0xf39fd6e51aad88f6f4ce6ab8827279cfffb92266",
      "to": "0x0b306bf915c4d645ff596e518faf3f9669b97016",
      "contractAddress": null,
      "root": "0x0000000000000000000000000000000000000000000000000000000000000000"
    }
  ],
  "libraries": [],
  "pending": [],
  "returns": {},
  "timestamp": 1727273988,
  "chain": 59144,
  "commit": "a0c2ae3"
}