{
  "transactions": [
    {
      "hash": "0x27cfbeb353bb2e4873857a0dca56581981c67098b39bafda51d98be25e8eb4f2",
      "transactionType": "CALL",
      "contractName": null,
      "contractAddress": "0xe5d7c2a44ffddf6b295a15c148167daaaf5cf34f",
      "function": "approve(address,uint256)",
      "arguments": [
        "0x0B306BF915C4d645ff596e518fAf3F9669b97016",
        "115792089237316195423570985008687907853269984665640564039457584007913129639935"
      ],
      "transaction": {
        "from": "0xf39fd6e51aad88f6f4ce6ab8827279cfffb92266",
        "to": "0xe5d7c2a44ffddf6b295a15c148167daaaf5cf34f",
        "gas": "0x8ec9",
        "value": "0x0",
        "input": "0x095ea7b30000000000000000000000000b306bf915c4d645ff596e518faf3f9669b97016ffffffffffffffffffffffffffffffffffffffffffffffffffffffffffffffff",
        "nonce": "0x68",
        "chainId": "0xe708"
      },
      "additionalContracts": [],
      "isFixedGasLimit": false
    },
    {
      "hash": "0xf714ec307fb03c57e6f84a1a9c310838b1059687274ae6b79d31dbd2681ebd99",
      "transactionType": "CALL",
      "contractName": null,
      "contractAddress": "0x176211869ca2b568f2a7d4ee941e073a821ee1ff",
      "function": "approve(address,uint256)",
      "arguments": [
        "0x0B306BF915C4d645ff596e518fAf3F9669b97016",
        "115792089237316195423570985008687907853269984665640564039457584007913129639935"
      ],
      "transaction": {
        "from": "0xf39fd6e51aad88f6f4ce6ab8827279cfffb92266",
        "to": "0x176211869ca2b568f2a7d4ee941e073a821ee1ff",
        "gas": "0xe62b",
        "value": "0x0",
        "input": "0x095ea7b30000000000000000000000000b306bf915c4d645ff596e518faf3f9669b97016ffffffffffffffffffffffffffffffffffffffffffffffffffffffffffffffff",
        "nonce": "0x69",
        "chainId": "0xe708"
      },
      "additionalContracts": [],
      "isFixedGasLimit": false
    },
    {
      "hash": "0x7c19680d9aceb8402ae24a719adeee546fc0a276b294988a6ee515e24e4c3a52",
      "transactionType": "CALL",
      "contractName": null,
      "contractAddress": "0x0b306bf915c4d645ff596e518faf3f9669b97016",
      "function": "createAndAddToPosition((string,address,address),(uint256,uint256,bytes))",
      "arguments": [
        "(\"SHORT_QUOTE_ODOS_ZEROLEND\", 0x176211869cA2b568f2A7D4EE941E073a821EE1ff, 0xe5D7C2a44FfDDf6b295A15c148167daaAf5Cf34f)",
        "(100000000, 84676759625032000, 0x83bd37f90001e5d7c2a44ffddf6b295a15c148167daaaf5cf34f0001176211869ca2b568f2a7d4ee941e073a821ee1ff08012cd510722e6140040be94cf1028f5c000156c85a254dd12ee8d9c04049a4ab62769ce9821000000001d6588b391a6150c8ac5453d789fd0687114879810000000005020205011e5d5b650301010101020019011e2b5bc00a0101030200000d0101040200ff0000000000000000000000000000000000000000000000000000000000ecdbb2da6ba86c84f364ebbd068561c8f383fe27e5d7c2a44ffddf6b295a15c148167daaaf5cf34fa99cd4e87b9acac403540f90db07c9507540f9655615a7b1619980f7d6b5e7f69f3dc093dfe0c95c00000000000000000000000000000000)"
      ],
      "transaction": {
        "from": "0xf39fd6e51aad88f6f4ce6ab8827279cfffb92266",
        "to": "0x0b306bf915c4d645ff596e518faf3f9669b97016",
        "gas": "0x1bddc2",
        "value": "0x0",
        "input": "0x211d9b04000000000000000000000000000000000000000000000000000000000000004000000000000000000000000000000000000000000000000000000000000000e00000000000000000000000000000000000000000000000000000000000000060000000000000000000000000176211869ca2b568f2a7d4ee941e073a821ee1ff000000000000000000000000e5d7c2a44ffddf6b295a15c148167daaaf5cf34f000000000000000000000000000000000000000000000000000000000000001953484f52545f51554f54455f4f444f535f5a45524f4c454e44000000000000000000000000000000000000000000000000000000000000000000000005f5e100000000000000000000000000000000000000000000000000012cd510722e61400000000000000000000000000000000000000000000000000000000000000060000000000000000000000000000000000000000000000000000000000000011483bd37f90001e5d7c2a44ffddf6b295a15c148167daaaf5cf34f0001176211869ca2b568f2a7d4ee941e073a821ee1ff08012cd510722e6140040be94cf1028f5c000156c85a254dd12ee8d9c04049a4ab62769ce9821000000001d6588b391a6150c8ac5453d789fd0687114879810000000005020205011e5d5b650301010101020019011e2b5bc00a0101030200000d0101040200ff0000000000000000000000000000000000000000000000000000000000ecdbb2da6ba86c84f364ebbd068561c8f383fe27e5d7c2a44ffddf6b295a15c148167daaaf5cf34fa99cd4e87b9acac403540f90db07c9507540f9655615a7b1619980f7d6b5e7f69f3dc093dfe0c95c00000000000000000000000000000000000000000000000000000000",
        "nonce": "0x6a",
        "chainId": "0xe708"
      },
      "additionalContracts": [
        {
          "transactionType": "CREATE2",
          "address": "0xd6588b391a6150c8ac5453d789fd068711487981",
          "initCode": "0x60a060405234801561001057600080fd5b506040516101d43803806101d483398101604081905261002f9161009a565b6001600160a01b0381166100895760405162461bcd60e51b815260206004820152601e60248201527f496e76616c696420696d706c656d656e746174696f6e20616464726573730000604482015260640160405180910390fd5b6001600160a01b03166080526100ca565b6000602082840312156100ac57600080fd5b81516001600160a01b03811681146100c357600080fd5b9392505050565b60805160ec6100e860003960008181602001526055015260ec6000f3fe608060405260043610601c5760003560e01c80635c60da1b146045575b60437f00000000000000000000000000000000000000000000000000000000000000006093565b005b348015605057600080fd5b5060777f000000000000000000000000000000000000000000000000000000000000000081565b6040516001600160a01b03909116815260200160405180910390f35b3660008037600080366000845af43d6000803e80801560b1573d6000f35b3d6000fdfea2646970667358221220f6020ed423ab8c3633806cc507ff73ce07ea9bade45f63874f1be7c04b23516364736f6c634300081a0033000000000000000000000000c6e7df5e7b4f2a278906862b61205850344d4e7d"
        }
      ],
      "isFixedGasLimit": false
    }
  ],
  "receipts": [
    {
      "status": "0x1",
      "cumulativeGasUsed": "0x6760",
      "logs": [
        {
          "address": "0xe5d7c2a44ffddf6b295a15c148167daaaf5cf34f",
          "topics": [
            "0x8c5be1e5ebec7d5bd14f71427d1e84f3dd0314c0f7b2291e5b200ac8c7c3b925",
            "0x000000000000000000000000f39fd6e51aad88f6f4ce6ab8827279cfffb92266",
            "0x0000000000000000000000000b306bf915c4d645ff596e518faf3f9669b97016"
          ],
          "data": "0xffffffffffffffffffffffffffffffffffffffffffffffffffffffffffffffff",
          "blockHash": "0xffc76b08a83a0b5efeea2bbceebc9200f6f3ca11e3503ee93eb2c819f1335cd6",
          "blockNumber": "0x8eaaed",
          "blockTimestamp": "0x66e371cb",
          "transactionHash": "0x27cfbeb353bb2e4873857a0dca56581981c67098b39bafda51d98be25e8eb4f2",
          "transactionIndex": "0x0",
          "logIndex": "0x0",
          "removed": false
        }
      ],
      "logsBloom": "0x0000000000000000000000000000000800000000000000000000000000000000000000000000000000000000000000000000000000000000000000000020000000000000000000000000000000000000000000000000000000000000000000000000000000000000000000030000000000000000000000000000000000000000000000000000000000100000000000000000000000000000000000000000000002000000000000000000000000000000000000000000000000000000200000000000000000000020000000000000000000000000a000000000000000000000000010000000000000000000000400000000000000000000000000000000000000",
      "type": "0x2",
      "transactionHash": "0x27cfbeb353bb2e4873857a0dca56581981c67098b39bafda51d98be25e8eb4f2",
      "transactionIndex": "0x0",
      "blockHash": "0xffc76b08a83a0b5efeea2bbceebc9200f6f3ca11e3503ee93eb2c819f1335cd6",
      "blockNumber": "0x8eaaed",
      "gasUsed": "0x6760",
      "effectiveGasPrice": "0x3938707",
      "blobGasPrice": "0x1",
      "from": "0xf39fd6e51aad88f6f4ce6ab8827279cfffb92266",
      "to": "0xe5d7c2a44ffddf6b295a15c148167daaaf5cf34f",
      "contractAddress": null,
      "root": "0x0000000000000000000000000000000000000000000000000000000000000000"
    },
    {
      "status": "0x1",
      "cumulativeGasUsed": "0x9d62",
      "logs": [
        {
          "address": "0x176211869ca2b568f2a7d4ee941e073a821ee1ff",
          "topics": [
            "0x8c5be1e5ebec7d5bd14f71427d1e84f3dd0314c0f7b2291e5b200ac8c7c3b925",
            "0x000000000000000000000000f39fd6e51aad88f6f4ce6ab8827279cfffb92266",
            "0x0000000000000000000000000b306bf915c4d645ff596e518faf3f9669b97016"
          ],
          "data": "0xffffffffffffffffffffffffffffffffffffffffffffffffffffffffffffffff",
          "blockHash": "0x2de232abc100e6d8e0a4ce56250bb788a847a1dbff50c12f9348977eadbdb47c",
          "blockNumber": "0x8eaaee",
          "blockTimestamp": "0x66e371cc",
          "transactionHash": "0xf714ec307fb03c57e6f84a1a9c310838b1059687274ae6b79d31dbd2681ebd99",
          "transactionIndex": "0x0",
          "logIndex": "0x0",
          "removed": false
        }
      ],
      "logsBloom": "0x00000000000000000000000000000008000000000000000000000000000000000000000000000000000000000000000000000800000000000004000000200000000000000000000000000000020000000000000000000000000000000000000000000000000000000000000300000000000000000000000000000000000000000000000000000000000000000000000000000000000000000000000000000000020000000000000000000000000000000000000000000000000000000000000000000000000000200000000000000000000000002000000000000000000000000010000000000000000000000400000000000000000000000000000000000000",
      "type": "0x2",
      "transactionHash": "0xf714ec307fb03c57e6f84a1a9c310838b1059687274ae6b79d31dbd2681ebd99",
      "transactionIndex": "0x0",
      "blockHash": "0x2de232abc100e6d8e0a4ce56250bb788a847a1dbff50c12f9348977eadbdb47c",
      "blockNumber": "0x8eaaee",
      "gasUsed": "0x9d62",
      "effectiveGasPrice": "0x3938707",
      "blobGasPrice": "0x1",
      "from": "0xf39fd6e51aad88f6f4ce6ab8827279cfffb92266",
      "to": "0x176211869ca2b568f2a7d4ee941e073a821ee1ff",
      "contractAddress": null,
      "root": "0x0000000000000000000000000000000000000000000000000000000000000000"
    },
    {
      "status": "0x1",
      "cumulativeGasUsed": "0x1379b7",
      "logs": [
        {
          "address": "0x9a9f2ccfde556a7e9ff0848998aa4a0cfd8863ae",
          "topics": [
            "0xddf252ad1be2c89b69c2b068fc378daa952ba7f163c4a11628f55a4df523b3ef",
            "0x0000000000000000000000000000000000000000000000000000000000000000",
            "0x000000000000000000000000f39fd6e51aad88f6f4ce6ab8827279cfffb92266",
            "0x0000000000000000000000000000000000000000000000000000000000000002"
          ],
          "data": "0x",
          "blockHash": "0x5b9b9a023edfff225c67536b78f2ca9f2b80feb5e26660e693eef47af4026704",
          "blockNumber": "0x8eaaef",
          "blockTimestamp": "0x66e371cd",
          "transactionHash": "0x7c19680d9aceb8402ae24a719adeee546fc0a276b294988a6ee515e24e4c3a52",
          "transactionIndex": "0x0",
          "logIndex": "0x0",
          "removed": false
        },
        {
          "address": "0x176211869ca2b568f2a7d4ee941e073a821ee1ff",
          "topics": [
            "0xddf252ad1be2c89b69c2b068fc378daa952ba7f163c4a11628f55a4df523b3ef",
            "0x000000000000000000000000f39fd6e51aad88f6f4ce6ab8827279cfffb92266",
            "0x000000000000000000000000d6588b391a6150c8ac5453d789fd068711487981"
          ],
          "data": "0x0000000000000000000000000000000000000000000000000000000005f5e100",
          "blockHash": "0x5b9b9a023edfff225c67536b78f2ca9f2b80feb5e26660e693eef47af4026704",
          "blockNumber": "0x8eaaef",
          "blockTimestamp": "0x66e371cd",
          "transactionHash": "0x7c19680d9aceb8402ae24a719adeee546fc0a276b294988a6ee515e24e4c3a52",
          "transactionIndex": "0x0",
          "logIndex": "0x1",
          "removed": false
        },
        {
          "address": "0xe5d7c2a44ffddf6b295a15c148167daaaf5cf34f",
          "topics": [
            "0xddf252ad1be2c89b69c2b068fc378daa952ba7f163c4a11628f55a4df523b3ef",
            "0x000000000000000000000000b4ffef15daf4c02787bc5332580b838ce39805f5",
            "0x000000000000000000000000d6588b391a6150c8ac5453d789fd068711487981"
          ],
          "data": "0x000000000000000000000000000000000000000000000000012cd510722e6140",
          "blockHash": "0x5b9b9a023edfff225c67536b78f2ca9f2b80feb5e26660e693eef47af4026704",
          "blockNumber": "0x8eaaef",
          "blockTimestamp": "0x66e371cd",
          "transactionHash": "0x7c19680d9aceb8402ae24a719adeee546fc0a276b294988a6ee515e24e4c3a52",
          "transactionIndex": "0x0",
          "logIndex": "0x2",
          "removed": false
        },
        {
          "address": "0xe5d7c2a44ffddf6b295a15c148167daaaf5cf34f",
          "topics": [
            "0x8c5be1e5ebec7d5bd14f71427d1e84f3dd0314c0f7b2291e5b200ac8c7c3b925",
            "0x000000000000000000000000d6588b391a6150c8ac5453d789fd068711487981",
            "0x0000000000000000000000002d8879046f1559e53eb052e949e9544bcb72f414"
          ],
          "data": "0x000000000000000000000000000000000000000000000000012cd510722e6140",
          "blockHash": "0x5b9b9a023edfff225c67536b78f2ca9f2b80feb5e26660e693eef47af4026704",
          "blockNumber": "0x8eaaef",
          "blockTimestamp": "0x66e371cd",
          "transactionHash": "0x7c19680d9aceb8402ae24a719adeee546fc0a276b294988a6ee515e24e4c3a52",
          "transactionIndex": "0x0",
          "logIndex": "0x3",
          "removed": false
        },
        {
          "address": "0xe5d7c2a44ffddf6b295a15c148167daaaf5cf34f",
          "topics": [
            "0xddf252ad1be2c89b69c2b068fc378daa952ba7f163c4a11628f55a4df523b3ef",
            "0x000000000000000000000000d6588b391a6150c8ac5453d789fd068711487981",
            "0x00000000000000000000000056c85a254dd12ee8d9c04049a4ab62769ce98210"
          ],
          "data": "0x000000000000000000000000000000000000000000000000012cd510722e6140",
          "blockHash": "0x5b9b9a023edfff225c67536b78f2ca9f2b80feb5e26660e693eef47af4026704",
          "blockNumber": "0x8eaaef",
          "blockTimestamp": "0x66e371cd",
          "transactionHash": "0x7c19680d9aceb8402ae24a719adeee546fc0a276b294988a6ee515e24e4c3a52",
          "transactionIndex": "0x0",
          "logIndex": "0x4",
          "removed": false
        },
        {
          "address": "0xe5d7c2a44ffddf6b295a15c148167daaaf5cf34f",
          "topics": [
            "0xddf252ad1be2c89b69c2b068fc378daa952ba7f163c4a11628f55a4df523b3ef",
            "0x00000000000000000000000056c85a254dd12ee8d9c04049a4ab62769ce98210",
            "0x000000000000000000000000ecdbb2da6ba86c84f364ebbd068561c8f383fe27"
          ],
          "data": "0x0000000000000000000000000000000000000000000000000023aeacbac7d252",
          "blockHash": "0x5b9b9a023edfff225c67536b78f2ca9f2b80feb5e26660e693eef47af4026704",
          "blockNumber": "0x8eaaef",
          "blockTimestamp": "0x66e371cd",
          "transactionHash": "0x7c19680d9aceb8402ae24a719adeee546fc0a276b294988a6ee515e24e4c3a52",
          "transactionIndex": "0x0",
          "logIndex": "0x5",
          "removed": false
        },
        {
          "address": "0x176211869ca2b568f2a7d4ee941e073a821ee1ff",
          "topics": [
            "0xddf252ad1be2c89b69c2b068fc378daa952ba7f163c4a11628f55a4df523b3ef",
            "0x000000000000000000000000ecdbb2da6ba86c84f364ebbd068561c8f383fe27",
            "0x0000000000000000000000002d8879046f1559e53eb052e949e9544bcb72f414"
          ],
          "data": "0x00000000000000000000000000000000000000000000000000000000016a5dcf",
          "blockHash": "0x5b9b9a023edfff225c67536b78f2ca9f2b80feb5e26660e693eef47af4026704",
          "blockNumber": "0x8eaaef",
          "blockTimestamp": "0x66e371cd",
          "transactionHash": "0x7c19680d9aceb8402ae24a719adeee546fc0a276b294988a6ee515e24e4c3a52",
          "transactionIndex": "0x0",
          "logIndex": "0x6",
          "removed": false
        },
        {
          "address": "0xecdbb2da6ba86c84f364ebbd068561c8f383fe27",
          "topics": [
            "0x1c411e9a96e071241c2f21f7726b17ae89e3cab4c78be50e062b03a9fffbbad1"
          ],
          "data": "0x00000000000000000000000000000000000000000000000000000005cedf4175000000000000000000000000000000000000000000000000922fa0a6496caafd",
          "blockHash": "0x5b9b9a023edfff225c67536b78f2ca9f2b80feb5e26660e693eef47af4026704",
          "blockNumber": "0x8eaaef",
          "blockTimestamp": "0x66e371cd",
          "transactionHash": "0x7c19680d9aceb8402ae24a719adeee546fc0a276b294988a6ee515e24e4c3a52",
          "transactionIndex": "0x0",
          "logIndex": "0x7",
          "removed": false
        },
        {
          "address": "0xecdbb2da6ba86c84f364ebbd068561c8f383fe27",
          "topics": [
            "0xd78ad95fa46c994b6551d0da85fc275fe613ce37657fb8d5e3d130840159d822",
            "0x00000000000000000000000056c85a254dd12ee8d9c04049a4ab62769ce98210",
            "0x0000000000000000000000002d8879046f1559e53eb052e949e9544bcb72f414"
          ],
          "data": "0x00000000000000000000000000000000000000000000000000000000000000000000000000000000000000000000000000000000000000000023aeacbac7d25200000000000000000000000000000000000000000000000000000000016a5dcf0000000000000000000000000000000000000000000000000000000000000000",
          "blockHash": "0x5b9b9a023edfff225c67536b78f2ca9f2b80feb5e26660e693eef47af4026704",
          "blockNumber": "0x8eaaef",
          "blockTimestamp": "0x66e371cd",
          "transactionHash": "0x7c19680d9aceb8402ae24a719adeee546fc0a276b294988a6ee515e24e4c3a52",
          "transactionIndex": "0x0",
          "logIndex": "0x8",
          "removed": false
        },
        {
          "address": "0x176211869ca2b568f2a7d4ee941e073a821ee1ff",
          "topics": [
            "0xddf252ad1be2c89b69c2b068fc378daa952ba7f163c4a11628f55a4df523b3ef",
            "0x000000000000000000000000a99cd4e87b9acac403540f90db07c9507540f965",
            "0x0000000000000000000000002d8879046f1559e53eb052e949e9544bcb72f414"
          ],
          "data": "0x00000000000000000000000000000000000000000000000000000000013e0986",
          "blockHash": "0x5b9b9a023edfff225c67536b78f2ca9f2b80feb5e26660e693eef47af4026704",
          "blockNumber": "0x8eaaef",
          "blockTimestamp": "0x66e371cd",
          "transactionHash": "0x7c19680d9aceb8402ae24a719adeee546fc0a276b294988a6ee515e24e4c3a52",
          "transactionIndex": "0x0",
          "logIndex": "0x9",
          "removed": false
        },
        {
          "address": "0xe5d7c2a44ffddf6b295a15c148167daaaf5cf34f",
          "topics": [
            "0xddf252ad1be2c89b69c2b068fc378daa952ba7f163c4a11628f55a4df523b3ef",
            "0x00000000000000000000000056c85a254dd12ee8d9c04049a4ab62769ce98210",
            "0x000000000000000000000000a99cd4e87b9acac403540f90db07c9507540f965"
          ],
          "data": "0x000000000000000000000000000000000000000000000000001f3f6829c00ff4",
          "blockHash": "0x5b9b9a023edfff225c67536b78f2ca9f2b80feb5e26660e693eef47af4026704",
          "blockNumber": "0x8eaaef",
          "blockTimestamp": "0x66e371cd",
          "transactionHash": "0x7c19680d9aceb8402ae24a719adeee546fc0a276b294988a6ee515e24e4c3a52",
          "transactionIndex": "0x0",
          "logIndex": "0xa",
          "removed": false
        },
        {
          "address": "0xa99cd4e87b9acac403540f90db07c9507540f965",
          "topics": [
            "0xc42079f94a6350d7e6235f29174924f928cc2ac818eb64fed8004e115fbcca67",
            "0x00000000000000000000000056c85a254dd12ee8d9c04049a4ab62769ce98210",
            "0x0000000000000000000000002d8879046f1559e53eb052e949e9544bcb72f414"
          ],
          "data": "0xfffffffffffffffffffffffffffffffffffffffffffffffffffffffffec1f67a000000000000000000000000000000000000000000000000001f3f6829c00ff4000000000000000000000000000000000000504452f5ebf4df14d2a4a228eaaa0000000000000000000000000000000000000000000000000001678792ffabc200000000000000000000000000000000000000000000000000000000000307dc",
          "blockHash": "0x5b9b9a023edfff225c67536b78f2ca9f2b80feb5e26660e693eef47af4026704",
          "blockNumber": "0x8eaaef",
          "blockTimestamp": "0x66e371cd",
          "transactionHash": "0x7c19680d9aceb8402ae24a719adeee546fc0a276b294988a6ee515e24e4c3a52",
          "transactionIndex": "0x0",
          "logIndex": "0xb",
          "removed": false
        },
        {
          "address": "0x176211869ca2b568f2a7d4ee941e073a821ee1ff",
          "topics": [
            "0xddf252ad1be2c89b69c2b068fc378daa952ba7f163c4a11628f55a4df523b3ef",
            "0x0000000000000000000000005615a7b1619980f7d6b5e7f69f3dc093dfe0c95c",
            "0x0000000000000000000000002d8879046f1559e53eb052e949e9544bcb72f414"
          ],
          "data": "0x0000000000000000000000000000000000000000000000000000000009526fb3",
          "blockHash": "0x5b9b9a023edfff225c67536b78f2ca9f2b80feb5e26660e693eef47af4026704",
          "blockNumber": "0x8eaaef",
          "blockTimestamp": "0x66e371cd",
          "transactionHash": "0x7c19680d9aceb8402ae24a719adeee546fc0a276b294988a6ee515e24e4c3a52",
          "transactionIndex": "0x0",
          "logIndex": "0xc",
          "removed": false
        },
        {
          "address": "0xe5d7c2a44ffddf6b295a15c148167daaaf5cf34f",
          "topics": [
            "0xddf252ad1be2c89b69c2b068fc378daa952ba7f163c4a11628f55a4df523b3ef",
            "0x00000000000000000000000056c85a254dd12ee8d9c04049a4ab62769ce98210",
            "0x0000000000000000000000005615a7b1619980f7d6b5e7f69f3dc093dfe0c95c"
          ],
          "data": "0x00000000000000000000000000000000000000000000000000e9e6fb8da67e2e",
          "blockHash": "0x5b9b9a023edfff225c67536b78f2ca9f2b80feb5e26660e693eef47af4026704",
          "blockNumber": "0x8eaaef",
          "blockTimestamp": "0x66e371cd",
          "transactionHash": "0x7c19680d9aceb8402ae24a719adeee546fc0a276b294988a6ee515e24e4c3a52",
          "transactionIndex": "0x0",
          "logIndex": "0xd",
          "removed": false
        },
        {
          "address": "0x5615a7b1619980f7d6b5e7f69f3dc093dfe0c95c",
          "topics": [
            "0x0fe977d619f8172f7fdbe8bb8928ef80952817d96936509f67d66346bc4cd10f",
            "0x000000000000000000000000176211869ca2b568f2a7d4ee941e073a821ee1ff",
            "0x000000000000000000000000e5d7c2a44ffddf6b295a15c148167daaaf5cf34f",
            "0x00000000000000000000000000000000000000000000000000000000000001f4"
          ],
          "data": "0x00000000000000000000000000000000000000000000000000000000000000000000000000000000000000000000000000000000000000000000000009526fb300000000000000000000000000000000000000000000000000e9e6fb8da67e2e00000000000000000000000000000000000000000000000000000000000307ba",
          "blockHash": "0x5b9b9a023edfff225c67536b78f2ca9f2b80feb5e26660e693eef47af4026704",
          "blockNumber": "0x8eaaef",
          "blockTimestamp": "0x66e371cd",
          "transactionHash": "0x7c19680d9aceb8402ae24a719adeee546fc0a276b294988a6ee515e24e4c3a52",
          "transactionIndex": "0x0",
          "logIndex": "0xe",
          "removed": false
        },
        {
          "address": "0xe5d7c2a44ffddf6b295a15c148167daaaf5cf34f",
          "topics": [
            "0xddf252ad1be2c89b69c2b068fc378daa952ba7f163c4a11628f55a4df523b3ef",
            "0x00000000000000000000000056c85a254dd12ee8d9c04049a4ab62769ce98210",
            "0x000000000000000000000000f39fd6e51aad88f6f4ce6ab8827279cfffb92266"
          ],
          "data": "0x00000000000000000000000000000000000000000000000000000000000000cc",
          "blockHash": "0x5b9b9a023edfff225c67536b78f2ca9f2b80feb5e26660e693eef47af4026704",
          "blockNumber": "0x8eaaef",
          "blockTimestamp": "0x66e371cd",
          "transactionHash": "0x7c19680d9aceb8402ae24a719adeee546fc0a276b294988a6ee515e24e4c3a52",
          "transactionIndex": "0x0",
          "logIndex": "0xf",
          "removed": false
        },
        {
          "address": "0x176211869ca2b568f2a7d4ee941e073a821ee1ff",
          "topics": [
            "0xddf252ad1be2c89b69c2b068fc378daa952ba7f163c4a11628f55a4df523b3ef",
            "0x0000000000000000000000002d8879046f1559e53eb052e949e9544bcb72f414",
            "0x000000000000000000000000d6588b391a6150c8ac5453d789fd068711487981"
          ],
          "data": "0x000000000000000000000000000000000000000000000000000000000be94cf1",
          "blockHash": "0x5b9b9a023edfff225c67536b78f2ca9f2b80feb5e26660e693eef47af4026704",
          "blockNumber": "0x8eaaef",
          "blockTimestamp": "0x66e371cd",
          "transactionHash": "0x7c19680d9aceb8402ae24a719adeee546fc0a276b294988a6ee515e24e4c3a52",
          "transactionIndex": "0x0",
          "logIndex": "0x10",
          "removed": false
        },
        {
          "address": "0x2d8879046f1559e53eb052e949e9544bcb72f414",
          "topics": [
            "0x823eaf01002d7353fbcadb2ea3305cc46fa35d799cb0914846d185ac06f8ad05"
          ],
          "data": "0x000000000000000000000000d6588b391a6150c8ac5453d789fd068711487981000000000000000000000000000000000000000000000000012cd510722e6140000000000000000000000000e5d7c2a44ffddf6b295a15c148167daaaf5cf34f000000000000000000000000000000000000000000000000000000000be94cf1000000000000000000000000176211869ca2b568f2a7d4ee941e073a821ee1ff0000000000000000000000000000000000000000000000000000000000118a170000000000000000000000000000000000000000000000000000000000000000",
          "blockHash": "0x5b9b9a023edfff225c67536b78f2ca9f2b80feb5e26660e693eef47af4026704",
          "blockNumber": "0x8eaaef",
          "blockTimestamp": "0x66e371cd",
          "transactionHash": "0x7c19680d9aceb8402ae24a719adeee546fc0a276b294988a6ee515e24e4c3a52",
          "transactionIndex": "0x0",
          "logIndex": "0x11",
          "removed": false
        },
        {
          "address": "0x176211869ca2b568f2a7d4ee941e073a821ee1ff",
          "topics": [
            "0x8c5be1e5ebec7d5bd14f71427d1e84f3dd0314c0f7b2291e5b200ac8c7c3b925",
            "0x000000000000000000000000d6588b391a6150c8ac5453d789fd068711487981",
            "0x0000000000000000000000002f9bb73a8e98793e26cb2f6c4ad037bdf1c6b269"
          ],
          "data": "0x0000000000000000000000000000000000000000000000000000000011df2df1",
          "blockHash": "0x5b9b9a023edfff225c67536b78f2ca9f2b80feb5e26660e693eef47af4026704",
          "blockNumber": "0x8eaaef",
          "blockTimestamp": "0x66e371cd",
          "transactionHash": "0x7c19680d9aceb8402ae24a719adeee546fc0a276b294988a6ee515e24e4c3a52",
          "transactionIndex": "0x0",
          "logIndex": "0x12",
          "removed": false
        },
        {
          "address": "0x2f9bb73a8e98793e26cb2f6c4ad037bdf1c6b269",
          "topics": [
            "0x804c9b842b2748a22bb64b345453a3de7ca54a6ca45ce00d415894979e22897a",
            "0x000000000000000000000000176211869ca2b568f2a7d4ee941e073a821ee1ff"
          ],
          "data": "0x000000000000000000000000000000000000000000987faa09b18e2b54c1b9d500000000000000000000000000000000000000000105162aae327ce60af632be000000000000000000000000000000000000000000f8adcb0d147af99bf632be0000000000000000000000000000000000000000035dc1c3d6cddff99c6b5c310000000000000000000000000000000000000000036b94f0632cc318dd07489f",
          "blockHash": "0x5b9b9a023edfff225c67536b78f2ca9f2b80feb5e26660e693eef47af4026704",
          "blockNumber": "0x8eaaef",
          "blockTimestamp": "0x66e371cd",
          "transactionHash": "0x7c19680d9aceb8402ae24a719adeee546fc0a276b294988a6ee515e24e4c3a52",
          "transactionIndex": "0x0",
          "logIndex": "0x13",
          "removed": false
        },
        {
          "address": "0x176211869ca2b568f2a7d4ee941e073a821ee1ff",
          "topics": [
            "0xddf252ad1be2c89b69c2b068fc378daa952ba7f163c4a11628f55a4df523b3ef",
            "0x000000000000000000000000d6588b391a6150c8ac5453d789fd068711487981",
            "0x0000000000000000000000002e207eca8b6bf77a6ac82763eeed2a94de4f081d"
          ],
          "data": "0x0000000000000000000000000000000000000000000000000000000011df2df1",
          "blockHash": "0x5b9b9a023edfff225c67536b78f2ca9f2b80feb5e26660e693eef47af4026704",
          "blockNumber": "0x8eaaef",
          "blockTimestamp": "0x66e371cd",
          "transactionHash": "0x7c19680d9aceb8402ae24a719adeee546fc0a276b294988a6ee515e24e4c3a52",
          "transactionIndex": "0x0",
          "logIndex": "0x14",
          "removed": false
        },
        {
          "address": "0x28f6899ff643261ca9766ddc251b359a2d00b945",
          "topics": [
            "0x3303facd24627943a92e9dc87cfbb34b15c49b726eec3ad3487c16be9ab8efe8",
            "0x0000000000000000000000002e207eca8b6bf77a6ac82763eeed2a94de4f081d",
            "0x00000000000000000000000040a59a3f3b16d9e74c811d24d8b7969664cfe180",
            "0x000000000000000000000000d6588b391a6150c8ac5453d789fd068711487981"
          ],
          "data": "0x0000000000000000000000000000000000000000000000040755b053b796c7ed0000000000000000000000000000000000000000000000040755b053b796c7ed0000000000000000000000000000000000000000000000000000000000000000",
          "blockHash": "0x5b9b9a023edfff225c67536b78f2ca9f2b80feb5e26660e693eef47af4026704",
          "blockNumber": "0x8eaaef",
          "blockTimestamp": "0x66e371cd",
          "transactionHash": "0x7c19680d9aceb8402ae24a719adeee546fc0a276b294988a6ee515e24e4c3a52",
          "transactionIndex": "0x0",
          "logIndex": "0x15",
          "removed": false
        },
        {
          "address": "0x28f6899ff643261ca9766ddc251b359a2d00b945",
          "topics": [
            "0x3303facd24627943a92e9dc87cfbb34b15c49b726eec3ad3487c16be9ab8efe8",
            "0x0000000000000000000000002e207eca8b6bf77a6ac82763eeed2a94de4f081d",
            "0x00000000000000000000000078354f8dccb269a615a7e0a24f9b0718fdc3c7a7",
            "0x000000000000000000000000d6588b391a6150c8ac5453d789fd068711487981"
          ],
          "data": "0x0000000000000000000000000000000000000000000000005debafff63ffd0280000000000000000000000000000000000000000000000005debafff63ffd0280000000000000000000000000000000000000000000000000000000000000000",
          "blockHash": "0x5b9b9a023edfff225c67536b78f2ca9f2b80feb5e26660e693eef47af4026704",
          "blockNumber": "0x8eaaef",
          "blockTimestamp": "0x66e371cd",
          "transactionHash": "0x7c19680d9aceb8402ae24a719adeee546fc0a276b294988a6ee515e24e4c3a52",
          "transactionIndex": "0x0",
          "logIndex": "0x16",
          "removed": false
        },
        {
          "address": "0x2e207eca8b6bf77a6ac82763eeed2a94de4f081d",
          "topics": [
            "0xddf252ad1be2c89b69c2b068fc378daa952ba7f163c4a11628f55a4df523b3ef",
            "0x0000000000000000000000000000000000000000000000000000000000000000",
            "0x000000000000000000000000d6588b391a6150c8ac5453d789fd068711487981"
          ],
          "data": "0x0000000000000000000000000000000000000000000000000000000011df2df1",
          "blockHash": "0x5b9b9a023edfff225c67536b78f2ca9f2b80feb5e26660e693eef47af4026704",
          "blockNumber": "0x8eaaef",
          "blockTimestamp": "0x66e371cd",
          "transactionHash": "0x7c19680d9aceb8402ae24a719adeee546fc0a276b294988a6ee515e24e4c3a52",
          "transactionIndex": "0x0",
          "logIndex": "0x17",
          "removed": false
        },
        {
          "address": "0x2e207eca8b6bf77a6ac82763eeed2a94de4f081d",
          "topics": [
            "0x458f5fa412d0f69b08dd84872b0215675cc67bc1d5b6fd93300a1c3878b86196",
            "0x000000000000000000000000d6588b391a6150c8ac5453d789fd068711487981",
            "0x000000000000000000000000d6588b391a6150c8ac5453d789fd068711487981"
          ],
          "data": "0x0000000000000000000000000000000000000000000000000000000011df2df100000000000000000000000000000000000000000000000000000000000000000000000000000000000000000000000000000000035dc1c3d6cddff99c6b5c31",
          "blockHash": "0x5b9b9a023edfff225c67536b78f2ca9f2b80feb5e26660e693eef47af4026704",
          "blockNumber": "0x8eaaef",
          "blockTimestamp": "0x66e371cd",
          "transactionHash": "0x7c19680d9aceb8402ae24a719adeee546fc0a276b294988a6ee515e24e4c3a52",
          "transactionIndex": "0x0",
          "logIndex": "0x18",
          "removed": false
        },
        {
          "address": "0x2f9bb73a8e98793e26cb2f6c4ad037bdf1c6b269",
          "topics": [
            "0x00058a56ea94653cdf4f152d227ace22d4c00ad99e2a43f58cb7d9e3feb295f2",
            "0x000000000000000000000000176211869ca2b568f2a7d4ee941e073a821ee1ff",
            "0x000000000000000000000000d6588b391a6150c8ac5453d789fd068711487981"
          ],
          "data": "0x",
          "blockHash": "0x5b9b9a023edfff225c67536b78f2ca9f2b80feb5e26660e693eef47af4026704",
          "blockNumber": "0x8eaaef",
          "blockTimestamp": "0x66e371cd",
          "transactionHash": "0x7c19680d9aceb8402ae24a719adeee546fc0a276b294988a6ee515e24e4c3a52",
          "transactionIndex": "0x0",
          "logIndex": "0x19",
          "removed": false
        },
        {
          "address": "0x2f9bb73a8e98793e26cb2f6c4ad037bdf1c6b269",
          "topics": [
            "0x2b627736bca15cd5381dcf80b0bf11fd197d01a037c52b927a881a10fb73ba61",
            "0x000000000000000000000000176211869ca2b568f2a7d4ee941e073a821ee1ff",
            "0x000000000000000000000000d6588b391a6150c8ac5453d789fd068711487981",
            "0x0000000000000000000000000000000000000000000000000000000000000000"
          ],
          "data": "0x000000000000000000000000d6588b391a6150c8ac5453d789fd0687114879810000000000000000000000000000000000000000000000000000000011df2df1",
          "blockHash": "0x5b9b9a023edfff225c67536b78f2ca9f2b80feb5e26660e693eef47af4026704",
          "blockNumber": "0x8eaaef",
          "blockTimestamp": "0x66e371cd",
          "transactionHash": "0x7c19680d9aceb8402ae24a719adeee546fc0a276b294988a6ee515e24e4c3a52",
          "transactionIndex": "0x0",
          "logIndex": "0x1a",
          "removed": false
        },
        {
          "address": "0x28f6899ff643261ca9766ddc251b359a2d00b945",
          "topics": [
            "0x3303facd24627943a92e9dc87cfbb34b15c49b726eec3ad3487c16be9ab8efe8",
            "0x000000000000000000000000cb2da0f5aece616e2cbf29576cfc795fb15c6133",
            "0x00000000000000000000000040a59a3f3b16d9e74c811d24d8b7969664cfe180",
            "0x000000000000000000000000d6588b391a6150c8ac5453d789fd068711487981"
          ],
          "data": "0x00000000000000000000000000000000000000000000b9f3a432553e843c8a7900000000000000000000000000000000000000000000b9f3a432553e843c8a790000000000000000000000000000000000000000000000000000000000000000",
          "blockHash": "0x5b9b9a023edfff225c67536b78f2ca9f2b80feb5e26660e693eef47af4026704",
          "blockNumber": "0x8eaaef",
          "blockTimestamp": "0x66e371cd",
          "transactionHash": "0x7c19680d9aceb8402ae24a719adeee546fc0a276b294988a6ee515e24e4c3a52",
          "transactionIndex": "0x0",
          "logIndex": "0x1b",
          "removed": false
        },
        {
          "address": "0x28f6899ff643261ca9766ddc251b359a2d00b945",
          "topics": [
            "0x3303facd24627943a92e9dc87cfbb34b15c49b726eec3ad3487c16be9ab8efe8",
            "0x000000000000000000000000cb2da0f5aece616e2cbf29576cfc795fb15c6133",
            "0x00000000000000000000000078354f8dccb269a615a7e0a24f9b0718fdc3c7a7",
            "0x000000000000000000000000d6588b391a6150c8ac5453d789fd068711487981"
          ],
          "data": "0x000000000000000000000000000000000000000000000dff7af4b7e74e357c4c000000000000000000000000000000000000000000000dff7af4b7e74e357c4c0000000000000000000000000000000000000000000000000000000000000000",
          "blockHash": "0x5b9b9a023edfff225c67536b78f2ca9f2b80feb5e26660e693eef47af4026704",
          "blockNumber": "0x8eaaef",
          "blockTimestamp": "0x66e371cd",
          "transactionHash": "0x7c19680d9aceb8402ae24a719adeee546fc0a276b294988a6ee515e24e4c3a52",
          "transactionIndex": "0x0",
          "logIndex": "0x1c",
          "removed": false
        },
        {
          "address": "0xcb2da0f5aece616e2cbf29576cfc795fb15c6133",
          "topics": [
            "0xddf252ad1be2c89b69c2b068fc378daa952ba7f163c4a11628f55a4df523b3ef",
            "0x0000000000000000000000000000000000000000000000000000000000000000",
            "0x000000000000000000000000d6588b391a6150c8ac5453d789fd068711487981"
          ],
          "data": "0x000000000000000000000000000000000000000000000000012cfb921e452fe4",
          "blockHash": "0x5b9b9a023edfff225c67536b78f2ca9f2b80feb5e26660e693eef47af4026704",
          "blockNumber": "0x8eaaef",
          "blockTimestamp": "0x66e371cd",
          "transactionHash": "0x7c19680d9aceb8402ae24a719adeee546fc0a276b294988a6ee515e24e4c3a52",
          "transactionIndex": "0x0",
          "logIndex": "0x1d",
          "removed": false
        },
        {
          "address": "0xcb2da0f5aece616e2cbf29576cfc795fb15c6133",
          "topics": [
            "0x458f5fa412d0f69b08dd84872b0215675cc67bc1d5b6fd93300a1c3878b86196",
            "0x000000000000000000000000d6588b391a6150c8ac5453d789fd068711487981",
            "0x000000000000000000000000d6588b391a6150c8ac5453d789fd068711487981"
          ],
          "data": "0x000000000000000000000000000000000000000000000000012cfb921e452fe400000000000000000000000000000000000000000000000000000000000000000000000000000000000000000000000000000000035f402f6e4fa40dccfd8c90",
          "blockHash": "0x5b9b9a023edfff225c67536b78f2ca9f2b80feb5e26660e693eef47af4026704",
          "blockNumber": "0x8eaaef",
          "blockTimestamp": "0x66e371cd",
          "transactionHash": "0x7c19680d9aceb8402ae24a719adeee546fc0a276b294988a6ee515e24e4c3a52",
          "transactionIndex": "0x0",
          "logIndex": "0x1e",
          "removed": false
        },
        {
          "address": "0x2f9bb73a8e98793e26cb2f6c4ad037bdf1c6b269",
          "topics": [
            "0x804c9b842b2748a22bb64b345453a3de7ca54a6ca45ce00d415894979e22897a",
            "0x000000000000000000000000e5d7c2a44ffddf6b295a15c148167daaaf5cf34f"
          ],
          "data": "0x0000000000000000000000000000000000000000000b0c45dbce8c6d466ceca70000000000000000000000000000000000000000002cac5913c92228a3bc544b0000000000000000000000000000000000000000001a837d2b28ddf98de2a25600000000000000000000000000000000000000000352a65150f085beb414449e0000000000000000000000000000000000000000035f402f6e4fa40dccfd8c90",
          "blockHash": "0x5b9b9a023edfff225c67536b78f2ca9f2b80feb5e26660e693eef47af4026704",
          "blockNumber": "0x8eaaef",
          "blockTimestamp": "0x66e371cd",
          "transactionHash": "0x7c19680d9aceb8402ae24a719adeee546fc0a276b294988a6ee515e24e4c3a52",
          "transactionIndex": "0x0",
          "logIndex": "0x1f",
          "removed": false
        },
        {
          "address": "0xe5d7c2a44ffddf6b295a15c148167daaaf5cf34f",
          "topics": [
            "0xddf252ad1be2c89b69c2b068fc378daa952ba7f163c4a11628f55a4df523b3ef",
            "0x000000000000000000000000b4ffef15daf4c02787bc5332580b838ce39805f5",
            "0x000000000000000000000000d6588b391a6150c8ac5453d789fd068711487981"
          ],
          "data": "0x000000000000000000000000000000000000000000000000012cfb921e452fe4",
          "blockHash": "0x5b9b9a023edfff225c67536b78f2ca9f2b80feb5e26660e693eef47af4026704",
          "blockNumber": "0x8eaaef",
          "blockTimestamp": "0x66e371cd",
          "transactionHash": "0x7c19680d9aceb8402ae24a719adeee546fc0a276b294988a6ee515e24e4c3a52",
          "transactionIndex": "0x0",
          "logIndex": "0x20",
          "removed": false
        },
        {
          "address": "0x2f9bb73a8e98793e26cb2f6c4ad037bdf1c6b269",
          "topics": [
            "0xb3d084820fb1a9decffb176436bd02558d15fac9b0ddfed8c465bc7359d7dce0",
            "0x000000000000000000000000e5d7c2a44ffddf6b295a15c148167daaaf5cf34f",
            "0x000000000000000000000000d6588b391a6150c8ac5453d789fd068711487981",
            "0x0000000000000000000000000000000000000000000000000000000000000000"
          ],
          "data": "0x000000000000000000000000d6588b391a6150c8ac5453d789fd068711487981000000000000000000000000000000000000000000000000012cfb921e452fe400000000000000000000000000000000000000000000000000000000000000020000000000000000000000000000000000000000001a837d2b28ddf98de2a256",
          "blockHash": "0x5b9b9a023edfff225c67536b78f2ca9f2b80feb5e26660e693eef47af4026704",
          "blockNumber": "0x8eaaef",
          "blockTimestamp": "0x66e371cd",
          "transactionHash": "0x7c19680d9aceb8402ae24a719adeee546fc0a276b294988a6ee515e24e4c3a52",
          "transactionIndex": "0x0",
          "logIndex": "0x21",
          "removed": false
        },
        {
          "address": "0x176211869ca2b568f2a7d4ee941e073a821ee1ff",
          "topics": [
            "0x8c5be1e5ebec7d5bd14f71427d1e84f3dd0314c0f7b2291e5b200ac8c7c3b925",
            "0x000000000000000000000000d6588b391a6150c8ac5453d789fd068711487981",
            "0x0000000000000000000000002f9bb73a8e98793e26cb2f6c4ad037bdf1c6b269"
          ],
          "data": "0x0000000000000000000000000000000000000000000000000000000000000000",
          "blockHash": "0x5b9b9a023edfff225c67536b78f2ca9f2b80feb5e26660e693eef47af4026704",
          "blockNumber": "0x8eaaef",
          "blockTimestamp": "0x66e371cd",
          "transactionHash": "0x7c19680d9aceb8402ae24a719adeee546fc0a276b294988a6ee515e24e4c3a52",
          "transactionIndex": "0x0",
          "logIndex": "0x22",
          "removed": false
        },
        {
          "address": "0x176211869ca2b568f2a7d4ee941e073a821ee1ff",
          "topics": [
            "0x8c5be1e5ebec7d5bd14f71427d1e84f3dd0314c0f7b2291e5b200ac8c7c3b925",
            "0x000000000000000000000000d6588b391a6150c8ac5453d789fd068711487981",
            "0x0000000000000000000000002f9bb73a8e98793e26cb2f6c4ad037bdf1c6b269"
          ],
          "data": "0x0000000000000000000000000000000000000000000000000000000000000000",
          "blockHash": "0x5b9b9a023edfff225c67536b78f2ca9f2b80feb5e26660e693eef47af4026704",
          "blockNumber": "0x8eaaef",
          "blockTimestamp": "0x66e371cd",
          "transactionHash": "0x7c19680d9aceb8402ae24a719adeee546fc0a276b294988a6ee515e24e4c3a52",
          "transactionIndex": "0x0",
          "logIndex": "0x23",
          "removed": false
        },
        {
          "address": "0xe5d7c2a44ffddf6b295a15c148167daaaf5cf34f",
          "topics": [
            "0x8c5be1e5ebec7d5bd14f71427d1e84f3dd0314c0f7b2291e5b200ac8c7c3b925",
            "0x000000000000000000000000d6588b391a6150c8ac5453d789fd068711487981",
            "0x0000000000000000000000002f9bb73a8e98793e26cb2f6c4ad037bdf1c6b269"
          ],
          "data": "0x000000000000000000000000000000000000000000000000012cfb921e452fe4",
          "blockHash": "0x5b9b9a023edfff225c67536b78f2ca9f2b80feb5e26660e693eef47af4026704",
          "blockNumber": "0x8eaaef",
          "blockTimestamp": "0x66e371cd",
          "transactionHash": "0x7c19680d9aceb8402ae24a719adeee546fc0a276b294988a6ee515e24e4c3a52",
          "transactionIndex": "0x0",
          "logIndex": "0x24",
          "removed": false
        },
        {
          "address": "0x2f9bb73a8e98793e26cb2f6c4ad037bdf1c6b269",
          "topics": [
            "0x804c9b842b2748a22bb64b345453a3de7ca54a6ca45ce00d415894979e22897a",
            "0x000000000000000000000000e5d7c2a44ffddf6b295a15c148167daaaf5cf34f"
          ],
          "data": "0x0000000000000000000000000000000000000000000b0c41b3f324545e0ef9ca0000000000000000000000000000000000000000002cac5874372a9dbfbf84800000000000000000000000000000000000000000001a83782e9921a26dfc240000000000000000000000000000000000000000000352a65165663e7d986dd47a0000000000000000000000000000000000000000035f402f6e4fa40dccfd8c90",
          "blockHash": "0x5b9b9a023edfff225c67536b78f2ca9f2b80feb5e26660e693eef47af4026704",
          "blockNumber": "0x8eaaef",
          "blockTimestamp": "0x66e371cd",
          "transactionHash": "0x7c19680d9aceb8402ae24a719adeee546fc0a276b294988a6ee515e24e4c3a52",
          "transactionIndex": "0x0",
          "logIndex": "0x25",
          "removed": false
        },
        {
          "address": "0xe5d7c2a44ffddf6b295a15c148167daaaf5cf34f",
          "topics": [
            "0xddf252ad1be2c89b69c2b068fc378daa952ba7f163c4a11628f55a4df523b3ef",
            "0x000000000000000000000000d6588b391a6150c8ac5453d789fd068711487981",
            "0x000000000000000000000000b4ffef15daf4c02787bc5332580b838ce39805f5"
          ],
          "data": "0x000000000000000000000000000000000000000000000000012cfb921e452fe4",
          "blockHash": "0x5b9b9a023edfff225c67536b78f2ca9f2b80feb5e26660e693eef47af4026704",
          "blockNumber": "0x8eaaef",
          "blockTimestamp": "0x66e371cd",
          "transactionHash": "0x7c19680d9aceb8402ae24a719adeee546fc0a276b294988a6ee515e24e4c3a52",
          "transactionIndex": "0x0",
          "logIndex": "0x26",
          "removed": false
        },
        {
          "address": "0x2f9bb73a8e98793e26cb2f6c4ad037bdf1c6b269",
          "topics": [
            "0xefefaba5e921573100900a3ad9cf29f222d995fb3b6045797eaea7521bd8d6f0",
            "0x000000000000000000000000d6588b391a6150c8ac5453d789fd068711487981",
            "0x000000000000000000000000e5d7c2a44ffddf6b295a15c148167daaaf5cf34f",
            "0x0000000000000000000000000000000000000000000000000000000000000000"
          ],
          "data": "0x000000000000000000000000d6588b391a6150c8ac5453d789fd068711487981000000000000000000000000000000000000000000000000012cd510722e6140000000000000000000000000000000000000000000000000000000000000000000000000000000000000000000000000000000000000000000002681ac16cea4",
          "blockHash": "0x5b9b9a023edfff225c67536b78f2ca9f2b80feb5e26660e693eef47af4026704",
          "blockNumber": "0x8eaaef",
          "blockTimestamp": "0x66e371cd",
          "transactionHash": "0x7c19680d9aceb8402ae24a719adeee546fc0a276b294988a6ee515e24e4c3a52",
          "transactionIndex": "0x0",
          "logIndex": "0x27",
          "removed": false
        }
      ],
      "logsBloom": "0x44200000000009040088000080000000080000004000000000000000010000080400a0002004080400001000000400040010480000102014000400000020000000000020000000080008000802000120200000000000000020000004004000000000040a021000000080000120000801804000000000000001000010004800000000020080090008001000040000000000000000000001080080004400000040028800000a0000100010010002000010000000000010080100000000a0000110025000020100012000000020c000000000020100a000061000080000000020000010200000008020000000000001000041000020108002000040410100500000",
      "type": "0x2",
      "transactionHash": "0x7c19680d9aceb8402ae24a719adeee546fc0a276b294988a6ee515e24e4c3a52",
      "transactionIndex": "0x0",
      "blockHash": "0x5b9b9a023edfff225c67536b78f2ca9f2b80feb5e26660e693eef47af4026704",
      "blockNumber": "0x8eaaef",
      "gasUsed": "0x1379b7",
      "effectiveGasPrice": "0x3938707",
      "blobGasPrice": "0x1",
      "from": "0xf39fd6e51aad88f6f4ce6ab8827279cfffb92266",
      "to": "0x0b306bf915c4d645ff596e518faf3f9669b97016",
      "contractAddress": null,
      "root": "0x0000000000000000000000000000000000000000000000000000000000000000"
    }
  ],
  "libraries": [],
  "pending": [],
  "returns": {},
  "timestamp": 1726181836,
  "chain": 59144,
  "commit": "4a57ec2"
}