{
  "transactions": [
    {
      "hash": "0x04530cc8efe0955db3542d5d2224a4c5084e82a1306b78f146ad0605a086ad48",
      "transactionType": "CALL",
      "contractName": null,
      "contractAddress": "0xe5d7c2a44ffddf6b295a15c148167daaaf5cf34f",
      "function": "deposit()",
      "arguments": [],
      "transaction": {
        "from": "0xf39fd6e51aad88f6f4ce6ab8827279cfffb92266",
        "to": "0xe5d7c2a44ffddf6b295a15c148167daaaf5cf34f",
        "gas": "0xf2ff",
        "value": "0xde0b6b3a7640000",
        "input": "0xd0e30db0",
        "nonce": "0x1f",
        "chainId": "0xe708"
      },
      "additionalContracts": [],
      "isFixedGasLimit": false
    },
    {
      "hash": "0xb7342688c8ccac9c691205094d0bc9697055b9f6325930354d2fa3ca93bb52b6",
      "transactionType": "CALL",
      "contractName": null,
      "contractAddress": "0xe5d7c2a44ffddf6b295a15c148167daaaf5cf34f",
      "function": "approve(address,uint256)",
      "arguments": [
        "0x2d8879046f1559E53eb052E949e9544bCB72f414",
        "115792089237316195423570985008687907853269984665640564039457584007913129639935"
      ],
      "transaction": {
        "from": "0xf39fd6e51aad88f6f4ce6ab8827279cfffb92266",
        "to": "0xe5d7c2a44ffddf6b295a15c148167daaaf5cf34f",
        "gas": "0xfa27",
        "value": "0x0",
        "input": "0x095ea7b30000000000000000000000002d8879046f1559e53eb052e949e9544bcb72f414ffffffffffffffffffffffffffffffffffffffffffffffffffffffffffffffff",
        "nonce": "0x20",
        "chainId": "0xe708"
      },
      "additionalContracts": [],
      "isFixedGasLimit": false
    },
    {
      "hash": "0x896a321d4219d28b69f5d4b8b79cdfe0cd620bb081415f163a0343adf3ae887a",
      "transactionType": "CALL",
      "contractName": null,
      "contractAddress": "0x2d8879046f1559e53eb052e949e9544bcb72f414",
      "function": null,
      "arguments": null,
      "transaction": {
        "from": "0xf39fd6e51aad88f6f4ce6ab8827279cfffb92266",
        "to": "0x2d8879046f1559e53eb052e949e9544bcb72f414",
        "gas": "0x199c98",
        "value": "0x0",
        "input": "0x83bd37f90001e5d7c2a44ffddf6b295a15c148167daaaf5cf34f0001176211869ca2b568f2a7d4ee941e073a821ee1ff080de0b6b3a764000004996616c6028f5c000156c85a254dd12ee8d9c04049a4ab62769ce9821000000001f39fd6e51aad88f6f4ce6ab8827279cfffb92266000000000a03030b016a6e15de0a0100010200011315b3ce0a01000302000162e1f0e90a02010402000140ac5a120a020105020001517d4b460a0201060200000d020107020003c854b16a0a0201080900020a02010a0900ff0000000000000000000000008611456f845293edd3f5788277f00f7c05ccc291e5d7c2a44ffddf6b295a15c148167daaaf5cf34fc014414696f332c96c471634620344143325d2c064bccad8e7302e81b09894f56f6bba85ae82cd03586733678b9ac9da43dd7cb83bbb41d23677dfc37077f0cff76077d0ebb335b607db5744005105575615a7b1619980f7d6b5e7f69f3dc093dfe0c95c6e9ad0b8a41e2c148e7b0385d3ecbfdb8a216a9ba219439258ca9da29e9cc4ce5596924745e12b93efd5ec2cc043e3bd3c840f7998cc42ee712700ba000000000000000000000000000000000000000000000000",
        "nonce": "0x21",
        "chainId": "0xe708"
      },
      "additionalContracts": [],
      "isFixedGasLimit": false
    },
    {
      "hash": "0xd2ead3fd5e5aab046ad9c4ea1c8877b5ba04807f5742248abdaa040af0ff7fd6",
      "transactionType": "CALL",
      "contractName": null,
      "contractAddress": "0x176211869ca2b568f2a7d4ee941e073a821ee1ff",
      "function": "approve(address,uint256)",
      "arguments": [
        "0x0B306BF915C4d645ff596e518fAf3F9669b97016",
        "115792089237316195423570985008687907853269984665640564039457584007913129639935"
      ],
      "transaction": {
        "from": "0xf39fd6e51aad88f6f4ce6ab8827279cfffb92266",
        "to": "0x176211869ca2b568f2a7d4ee941e073a821ee1ff",
        "gas": "0x144c0",
        "value": "0x0",
        "input": "0x095ea7b30000000000000000000000000b306bf915c4d645ff596e518faf3f9669b97016ffffffffffffffffffffffffffffffffffffffffffffffffffffffffffffffff",
        "nonce": "0x22",
        "chainId": "0xe708"
      },
      "additionalContracts": [],
      "isFixedGasLimit": false
    },
    {
      "hash": "0xd19665c4aa3b3608e20c8842de7475c4b4c223e0fac16531eef9df5a72031e55",
      "transactionType": "CALL",
      "contractName": null,
      "contractAddress": "0xe5d7c2a44ffddf6b295a15c148167daaaf5cf34f",
      "function": "approve(address,uint256)",
      "arguments": [
        "0x0B306BF915C4d645ff596e518fAf3F9669b97016",
        "115792089237316195423570985008687907853269984665640564039457584007913129639935"
      ],
      "transaction": {
        "from": "0xf39fd6e51aad88f6f4ce6ab8827279cfffb92266",
        "to": "0xe5d7c2a44ffddf6b295a15c148167daaaf5cf34f",
        "gas": "0xfa27",
        "value": "0x0",
        "input": "0x095ea7b30000000000000000000000000b306bf915c4d645ff596e518faf3f9669b97016ffffffffffffffffffffffffffffffffffffffffffffffffffffffffffffffff",
        "nonce": "0x23",
        "chainId": "0xe708"
      },
      "additionalContracts": [],
      "isFixedGasLimit": false
    },
    {
      "hash": "0x81a83372abe5243d7578b0620a750a1d561d19d2e06885cd8aefba704957cd72",
      "transactionType": "CALL",
      "contractName": null,
      "contractAddress": "0x176211869ca2b568f2a7d4ee941e073a821ee1ff",
      "function": "approve(address,uint256)",
      "arguments": [
        "0x0B306BF915C4d645ff596e518fAf3F9669b97016",
        "115792089237316195423570985008687907853269984665640564039457584007913129639935"
      ],
      "transaction": {
        "from": "0xf39fd6e51aad88f6f4ce6ab8827279cfffb92266",
        "to": "0x176211869ca2b568f2a7d4ee941e073a821ee1ff",
        "gas": "0xe62b",
        "value": "0x0",
        "input": "0x095ea7b30000000000000000000000000b306bf915c4d645ff596e518faf3f9669b97016ffffffffffffffffffffffffffffffffffffffffffffffffffffffffffffffff",
        "nonce": "0x24",
        "chainId": "0xe708"
      },
      "additionalContracts": [],
      "isFixedGasLimit": false
    },
    {
      "hash": "0x1015d347434ee78e70f6d24d169dfe105f3c79caf692c42c9aa4ee2753856950",
      "transactionType": "CALL",
      "contractName": null,
      "contractAddress": "0x0b306bf915c4d645ff596e518faf3f9669b97016",
      "function": "createAndAddToPosition((string,address,address),(uint256,uint256,bytes))",
      "arguments": [
        "(\"LONG_QUOTE_ODOS_ZEROLEND\", 0x176211869cA2b568f2A7D4EE941E073a821EE1ff, 0xe5D7C2a44FfDDf6b295A15c148167daaAf5Cf34f)",
        "(100000000, 200000000, 0x83bd37f90001176211869ca2b568f2a7d4ee941e073a821ee1ff0001e5d7c2a44ffddf6b295a15c148167daaaf5cf34f0411e1a30008019e1b465e7d3dc0028f5c000156c85a254dd12ee8d9c04049a4ab62769ce98210000000018ee06e608de47ea1b185583aca65e34f2fd79b130000000003010203000a0101010201ff00000000000000000000000000000000000000000064bccad8e7302e81b09894f56f6bba85ae82cd03176211869ca2b568f2a7d4ee941e073a821ee1ff000000000000000000000000000000000000000000000000)"
      ],
      "transaction": {
        "from": "0xf39fd6e51aad88f6f4ce6ab8827279cfffb92266",
        "to": "0x0b306bf915c4d645ff596e518faf3f9669b97016",
        "gas": "0x19ad88",
        "value": "0x0",
        "input": "0x211d9b04000000000000000000000000000000000000000000000000000000000000004000000000000000000000000000000000000000000000000000000000000000e00000000000000000000000000000000000000000000000000000000000000060000000000000000000000000176211869ca2b568f2a7d4ee941e073a821ee1ff000000000000000000000000e5d7c2a44ffddf6b295a15c148167daaaf5cf34f00000000000000000000000000000000000000000000000000000000000000184c4f4e475f51554f54455f4f444f535f5a45524f4c454e4400000000000000000000000000000000000000000000000000000000000000000000000005f5e100000000000000000000000000000000000000000000000000000000000bebc200000000000000000000000000000000000000000000000000000000000000006000000000000000000000000000000000000000000000000000000000000000d483bd37f90001176211869ca2b568f2a7d4ee941e073a821ee1ff0001e5d7c2a44ffddf6b295a15c148167daaaf5cf34f0411e1a30008019e1b465e7d3dc0028f5c000156c85a254dd12ee8d9c04049a4ab62769ce98210000000018ee06e608de47ea1b185583aca65e34f2fd79b130000000003010203000a0101010201ff00000000000000000000000000000000000000000064bccad8e7302e81b09894f56f6bba85ae82cd03176211869ca2b568f2a7d4ee941e073a821ee1ff000000000000000000000000000000000000000000000000000000000000000000000000",
        "nonce": "0x25",
        "chainId": "0xe708"
      },
      "additionalContracts": [
        {
          "transactionType": "CREATE2",
          "address": "0x8ee06e608de47ea1b185583aca65e34f2fd79b13",
          "initCode": "0x60a060405234801561001057600080fd5b506040516101d43803806101d483398101604081905261002f9161009a565b6001600160a01b0381166100895760405162461bcd60e51b815260206004820152601e60248201527f496e76616c696420696d706c656d656e746174696f6e20616464726573730000604482015260640160405180910390fd5b6001600160a01b03166080526100ca565b6000602082840312156100ac57600080fd5b81516001600160a01b03811681146100c357600080fd5b9392505050565b60805160ec6100e860003960008181602001526055015260ec6000f3fe608060405260043610601c5760003560e01c80635c60da1b146045575b60437f00000000000000000000000000000000000000000000000000000000000000006093565b005b348015605057600080fd5b5060777f000000000000000000000000000000000000000000000000000000000000000081565b6040516001600160a01b03909116815260200160405180910390f35b3660008037600080366000845af43d6000803e80801560b1573d6000f35b3d6000fdfea2646970667358221220ece5f241c936be627b009529639055436949a725352d983e1257a877a1e6225564736f6c6343000819003300000000000000000000000068b1d87f95878fe05b998f19b66f4baba5de1aed"
        }
      ],
      "isFixedGasLimit": false
    }
  ],
  "receipts": [
    {
      "status": "0x1",
      "cumulativeGasUsed": "0xafee",
      "logs": [
        {
          "address": "0xe5d7c2a44ffddf6b295a15c148167daaaf5cf34f",
          "topics": [
            "0xe1fffcc4923d04b559f4d29a8bfc6cda04eb5b0d3c460751c2402c5c5cc9109c",
            "0x000000000000000000000000f39fd6e51aad88f6f4ce6ab8827279cfffb92266"
          ],
          "data": "0x0000000000000000000000000000000000000000000000000de0b6b3a7640000",
          "blockHash": "0xbcf9e2b10efdaf867a77687f553923dc2a8b8220eff5eccc61304d47d3694865",
          "blockNumber": "0x95a514",
          "blockTimestamp": "0x66f06ca5",
          "transactionHash": "0x04530cc8efe0955db3542d5d2224a4c5084e82a1306b78f146ad0605a086ad48",
          "transactionIndex": "0x0",
          "logIndex": "0x0",
          "removed": false
        }
      ],
      "logsBloom": "0x0000000000000000000000000000000000000000000000000000000000000000000000000000000000000000000000000000000000000000000000000000000000000000000000000000000000000000000000000000000000000000800000000000000000000000000000010000000000000000000000000000000000000000000000000000000000100000000000000000000100000000000000000000000000000000000000000000000000000000000000000000000000000000200000000000000000000020000000000000000000000000a000000000000000000000000000000000000000000000000000000000000000000000400000000000000000",
      "type": "0x2",
      "transactionHash": "0x04530cc8efe0955db3542d5d2224a4c5084e82a1306b78f146ad0605a086ad48",
      "transactionIndex": "0x0",
      "blockHash": "0xbcf9e2b10efdaf867a77687f553923dc2a8b8220eff5eccc61304d47d3694865",
      "blockNumber": "0x95a514",
      "gasUsed": "0xafee",
      "effectiveGasPrice": "0x6a26128",
      "blobGasPrice": "0x1",
      "from": "0xf39fd6e51aad88f6f4ce6ab8827279cfffb92266",
      "to": "0xe5d7c2a44ffddf6b295a15c148167daaaf5cf34f",
      "contractAddress": null,
      "root": "0x0000000000000000000000000000000000000000000000000000000000000000"
    },
    {
      "status": "0x1",
      "cumulativeGasUsed": "0xb51c",
      "logs": [
        {
          "address": "0xe5d7c2a44ffddf6b295a15c148167daaaf5cf34f",
          "topics": [
            "0x8c5be1e5ebec7d5bd14f71427d1e84f3dd0314c0f7b2291e5b200ac8c7c3b925",
            "0x000000000000000000000000f39fd6e51aad88f6f4ce6ab8827279cfffb92266",
            "0x0000000000000000000000002d8879046f1559e53eb052e949e9544bcb72f414"
          ],
          "data": "0xffffffffffffffffffffffffffffffffffffffffffffffffffffffffffffffff",
          "blockHash": "0x4b929d1ecfb4b2010013a2dabecda1be5f6cf456164b4448170d8a327aad4482",
          "blockNumber": "0x95a515",
          "blockTimestamp": "0x66f06ca6",
          "transactionHash": "0xb7342688c8ccac9c691205094d0bc9697055b9f6325930354d2fa3ca93bb52b6",
          "transactionIndex": "0x0",
          "logIndex": "0x0",
          "removed": false
        }
      ],
      "logsBloom": "0x0000000000000000000000000000000000000000000000000000000000000000000000000000000000001000000000000000000000000000000000000020000000000000000000000000000000000000000000000000000000000000000000000000000000000000008000010000000000000000000000000000000000000000000000000000000000100000000000000000000000000000000000000000000002000000020000000000000000000000000000000000000000000000200000000000000000000020000000000000000000000000a000000000000000000000000010000000000000000000000000000000000000000000000000000000000000",
      "type": "0x2",
      "transactionHash": "0xb7342688c8ccac9c691205094d0bc9697055b9f6325930354d2fa3ca93bb52b6",
      "transactionIndex": "0x0",
      "blockHash": "0x4b929d1ecfb4b2010013a2dabecda1be5f6cf456164b4448170d8a327aad4482",
      "blockNumber": "0x95a515",
      "gasUsed": "0xb51c",
      "effectiveGasPrice": "0x6a26128",
      "blobGasPrice": "0x1",
      "from": "0xf39fd6e51aad88f6f4ce6ab8827279cfffb92266",
      "to": "0xe5d7c2a44ffddf6b295a15c148167daaaf5cf34f",
      "contractAddress": null,
      "root": "0x0000000000000000000000000000000000000000000000000000000000000000"
    },
    {
      "status": "0x1",
      "cumulativeGasUsed": "0x1206d0",
      "logs": [
        {
          "address": "0xe5d7c2a44ffddf6b295a15c148167daaaf5cf34f",
          "topics": [
            "0xddf252ad1be2c89b69c2b068fc378daa952ba7f163c4a11628f55a4df523b3ef",
            "0x000000000000000000000000f39fd6e51aad88f6f4ce6ab8827279cfffb92266",
            "0x00000000000000000000000056c85a254dd12ee8d9c04049a4ab62769ce98210"
          ],
          "data": "0x0000000000000000000000000000000000000000000000000de0b6b3a7640000",
          "blockHash": "0xb6cd7160a1ec2025441fb25803add523a4591260e0f360ed776c08d859ab6536",
          "blockNumber": "0x95a516",
          "blockTimestamp": "0x66f06ca7",
          "transactionHash": "0x896a321d4219d28b69f5d4b8b79cdfe0cd620bb081415f163a0343adf3ae887a",
          "transactionIndex": "0x0",
          "logIndex": "0x0",
          "removed": false
        },
        {
          "address": "0x8611456f845293edd3f5788277f00f7c05ccc291",
          "topics": [
            "0x598b9f043c813aa6be3426ca60d1c65d17256312890be5118dab55b0775ebe2a"
          ],
          "data": "0x000000000000000000000000000000000000000000000000000000000000035a",
          "blockHash": "0xb6cd7160a1ec2025441fb25803add523a4591260e0f360ed776c08d859ab6536",
          "blockNumber": "0x95a516",
          "blockTimestamp": "0x66f06ca7",
          "transactionHash": "0x896a321d4219d28b69f5d4b8b79cdfe0cd620bb081415f163a0343adf3ae887a",
          "transactionIndex": "0x0",
          "logIndex": "0x1",
          "removed": false
        },
        {
          "address": "0xa219439258ca9da29e9cc4ce5596924745e12b93",
          "topics": [
            "0xddf252ad1be2c89b69c2b068fc378daa952ba7f163c4a11628f55a4df523b3ef",
            "0x0000000000000000000000008611456f845293edd3f5788277f00f7c05ccc291",
            "0x00000000000000000000000056c85a254dd12ee8d9c04049a4ab62769ce98210"
          ],
          "data": "0x000000000000000000000000000000000000000000000000000000003fc18e48",
          "blockHash": "0xb6cd7160a1ec2025441fb25803add523a4591260e0f360ed776c08d859ab6536",
          "blockNumber": "0x95a516",
          "blockTimestamp": "0x66f06ca7",
          "transactionHash": "0x896a321d4219d28b69f5d4b8b79cdfe0cd620bb081415f163a0343adf3ae887a",
          "transactionIndex": "0x0",
          "logIndex": "0x2",
          "removed": false
        },
        {
          "address": "0xe5d7c2a44ffddf6b295a15c148167daaaf5cf34f",
          "topics": [
            "0xddf252ad1be2c89b69c2b068fc378daa952ba7f163c4a11628f55a4df523b3ef",
            "0x00000000000000000000000056c85a254dd12ee8d9c04049a4ab62769ce98210",
            "0x0000000000000000000000008611456f845293edd3f5788277f00f7c05ccc291"
          ],
          "data": "0x00000000000000000000000000000000000000000000000005c503645c5c817e",
          "blockHash": "0xb6cd7160a1ec2025441fb25803add523a4591260e0f360ed776c08d859ab6536",
          "blockNumber": "0x95a516",
          "blockTimestamp": "0x66f06ca7",
          "transactionHash": "0x896a321d4219d28b69f5d4b8b79cdfe0cd620bb081415f163a0343adf3ae887a",
          "transactionIndex": "0x0",
          "logIndex": "0x3",
          "removed": false
        },
        {
          "address": "0xe5d7c2a44ffddf6b295a15c148167daaaf5cf34f",
          "topics": [
            "0xddf252ad1be2c89b69c2b068fc378daa952ba7f163c4a11628f55a4df523b3ef",
            "0x0000000000000000000000008611456f845293edd3f5788277f00f7c05ccc291",
            "0x0000000000000000000000001d8b6fa722230153be08c4fa4aa4b4c7cd01a95a"
          ],
          "data": "0x000000000000000000000000000000000000000000000000000009bb91959849",
          "blockHash": "0xb6cd7160a1ec2025441fb25803add523a4591260e0f360ed776c08d859ab6536",
          "blockNumber": "0x95a516",
          "blockTimestamp": "0x66f06ca7",
          "transactionHash": "0x896a321d4219d28b69f5d4b8b79cdfe0cd620bb081415f163a0343adf3ae887a",
          "transactionIndex": "0x0",
          "logIndex": "0x4",
          "removed": false
        },
        {
          "address": "0x8611456f845293edd3f5788277f00f7c05ccc291",
          "topics": [
            "0xc42079f94a6350d7e6235f29174924f928cc2ac818eb64fed8004e115fbcca67",
            "0x00000000000000000000000056c85a254dd12ee8d9c04049a4ab62769ce98210",
            "0x00000000000000000000000056c85a254dd12ee8d9c04049a4ab62769ce98210"
          ],
          "data": "0xffffffffffffffffffffffffffffffffffffffffffffffffffffffffc03e71b800000000000000000000000000000000000000000000000005c503645c5c817e0000000000000000000000000000000000004cfb080f6988a8492770d6005bc100000000000000000000000000000000000000000000000003e87e8de1a5fbd90000000000000000000000000000000000000000000000000000000000030498",
          "blockHash": "0xb6cd7160a1ec2025441fb25803add523a4591260e0f360ed776c08d859ab6536",
          "blockNumber": "0x95a516",
          "blockTimestamp": "0x66f06ca7",
          "transactionHash": "0x896a321d4219d28b69f5d4b8b79cdfe0cd620bb081415f163a0343adf3ae887a",
          "transactionIndex": "0x0",
          "logIndex": "0x5",
          "removed": false
        },
        {
          "address": "0xa219439258ca9da29e9cc4ce5596924745e12b93",
          "topics": [
            "0xddf252ad1be2c89b69c2b068fc378daa952ba7f163c4a11628f55a4df523b3ef",
            "0x000000000000000000000000c014414696f332c96c471634620344143325d2c0",
            "0x00000000000000000000000056c85a254dd12ee8d9c04049a4ab62769ce98210"
          ],
          "data": "0x0000000000000000000000000000000000000000000000000000000006af0e8c",
          "blockHash": "0xb6cd7160a1ec2025441fb25803add523a4591260e0f360ed776c08d859ab6536",
          "blockNumber": "0x95a516",
          "blockTimestamp": "0x66f06ca7",
          "transactionHash": "0x896a321d4219d28b69f5d4b8b79cdfe0cd620bb081415f163a0343adf3ae887a",
          "transactionIndex": "0x0",
          "logIndex": "0x6",
          "removed": false
        },
        {
          "address": "0xe5d7c2a44ffddf6b295a15c148167daaaf5cf34f",
          "topics": [
            "0xddf252ad1be2c89b69c2b068fc378daa952ba7f163c4a11628f55a4df523b3ef",
            "0x00000000000000000000000056c85a254dd12ee8d9c04049a4ab62769ce98210",
            "0x000000000000000000000000c014414696f332c96c471634620344143325d2c0"
          ],
          "data": "0x000000000000000000000000000000000000000000000000009abe467cbd7145",
          "blockHash": "0xb6cd7160a1ec2025441fb25803add523a4591260e0f360ed776c08d859ab6536",
          "blockNumber": "0x95a516",
          "blockTimestamp": "0x66f06ca7",
          "transactionHash": "0x896a321d4219d28b69f5d4b8b79cdfe0cd620bb081415f163a0343adf3ae887a",
          "transactionIndex": "0x0",
          "logIndex": "0x7",
          "removed": false
        },
        {
          "address": "0xc014414696f332c96c471634620344143325d2c0",
          "topics": [
            "0x19b47279256b2a23a1665c810c8d55a1758940ee09377d4f8d26497a3577dc83",
            "0x00000000000000000000000056c85a254dd12ee8d9c04049a4ab62769ce98210",
            "0x00000000000000000000000056c85a254dd12ee8d9c04049a4ab62769ce98210"
          ],
          "data": "0xfffffffffffffffffffffffffffffffffffffffffffffffffffffffff950f174000000000000000000000000000000000000000000000000009abe467cbd71450000000000000000000000000000000000004cfe93e90e30173bbb6056129915000000000000000000000000000000000000000000000000000b0ac0b83e086a000000000000000000000000000000000000000000000000000000000003049c0000000000000000000000000000000000000000000000000000000000000000000000000000000000000000000000000000000000000000000006bc03653173",
          "blockHash": "0xb6cd7160a1ec2025441fb25803add523a4591260e0f360ed776c08d859ab6536",
          "blockNumber": "0x95a516",
          "blockTimestamp": "0x66f06ca7",
          "transactionHash": "0x896a321d4219d28b69f5d4b8b79cdfe0cd620bb081415f163a0343adf3ae887a",
          "transactionIndex": "0x0",
          "logIndex": "0x8",
          "removed": false
        },
        {
          "address": "0x176211869ca2b568f2a7d4ee941e073a821ee1ff",
          "topics": [
            "0xddf252ad1be2c89b69c2b068fc378daa952ba7f163c4a11628f55a4df523b3ef",
            "0x00000000000000000000000064bccad8e7302e81b09894f56f6bba85ae82cd03",
            "0x0000000000000000000000002d8879046f1559e53eb052e949e9544bcb72f414"
          ],
          "data": "0x00000000000000000000000000000000000000000000000000000000200a61fb",
          "blockHash": "0xb6cd7160a1ec2025441fb25803add523a4591260e0f360ed776c08d859ab6536",
          "blockNumber": "0x95a516",
          "blockTimestamp": "0x66f06ca7",
          "transactionHash": "0x896a321d4219d28b69f5d4b8b79cdfe0cd620bb081415f163a0343adf3ae887a",
          "transactionIndex": "0x0",
          "logIndex": "0x9",
          "removed": false
        },
        {
          "address": "0xe5d7c2a44ffddf6b295a15c148167daaaf5cf34f",
          "topics": [
            "0xddf252ad1be2c89b69c2b068fc378daa952ba7f163c4a11628f55a4df523b3ef",
            "0x00000000000000000000000056c85a254dd12ee8d9c04049a4ab62769ce98210",
            "0x00000000000000000000000064bccad8e7302e81b09894f56f6bba85ae82cd03"
          ],
          "data": "0x00000000000000000000000000000000000000000000000002e5fd3475ccee90",
          "blockHash": "0xb6cd7160a1ec2025441fb25803add523a4591260e0f360ed776c08d859ab6536",
          "blockNumber": "0x95a516",
          "blockTimestamp": "0x66f06ca7",
          "transactionHash": "0x896a321d4219d28b69f5d4b8b79cdfe0cd620bb081415f163a0343adf3ae887a",
          "transactionIndex": "0x0",
          "logIndex": "0xa",
          "removed": false
        },
        {
          "address": "0x64bccad8e7302e81b09894f56f6bba85ae82cd03",
          "topics": [
            "0xc42079f94a6350d7e6235f29174924f928cc2ac818eb64fed8004e115fbcca67",
            "0x00000000000000000000000056c85a254dd12ee8d9c04049a4ab62769ce98210",
            "0x0000000000000000000000002d8879046f1559e53eb052e949e9544bcb72f414"
          ],
          "data": "0xffffffffffffffffffffffffffffffffffffffffffffffffffffffffdff59e0500000000000000000000000000000000000000000000000002e5fd3475ccee900000000000000000000000000000000000004cfb68d995c43fe3f9827c077efb000000000000000000000000000000000000000000000000041f0921020ba8170000000000000000000000000000000000000000000000000000000000030498",
          "blockHash": "0xb6cd7160a1ec2025441fb25803add523a4591260e0f360ed776c08d859ab6536",
          "blockNumber": "0x95a516",
          "blockTimestamp": "0x66f06ca7",
          "transactionHash": "0x896a321d4219d28b69f5d4b8b79cdfe0cd620bb081415f163a0343adf3ae887a",
          "transactionIndex": "0x0",
          "logIndex": "0xb",
          "removed": false
        },
        {
          "address": "0x176211869ca2b568f2a7d4ee941e073a821ee1ff",
          "topics": [
            "0xddf252ad1be2c89b69c2b068fc378daa952ba7f163c4a11628f55a4df523b3ef",
            "0x000000000000000000000000586733678b9ac9da43dd7cb83bbb41d23677dfc3",
            "0x0000000000000000000000002d8879046f1559e53eb052e949e9544bcb72f414"
          ],
          "data": "0x000000000000000000000000000000000000000000000000000000000cddfbf4",
          "blockHash": "0xb6cd7160a1ec2025441fb25803add523a4591260e0f360ed776c08d859ab6536",
          "blockNumber": "0x95a516",
          "blockTimestamp": "0x66f06ca7",
          "transactionHash": "0x896a321d4219d28b69f5d4b8b79cdfe0cd620bb081415f163a0343adf3ae887a",
          "transactionIndex": "0x0",
          "logIndex": "0xc",
          "removed": false
        },
        {
          "address": "0xe5d7c2a44ffddf6b295a15c148167daaaf5cf34f",
          "topics": [
            "0xddf252ad1be2c89b69c2b068fc378daa952ba7f163c4a11628f55a4df523b3ef",
            "0x00000000000000000000000056c85a254dd12ee8d9c04049a4ab62769ce98210",
            "0x000000000000000000000000586733678b9ac9da43dd7cb83bbb41d23677dfc3"
          ],
          "data": "0x0000000000000000000000000000000000000000000000000129d7b266d0cfc6",
          "blockHash": "0xb6cd7160a1ec2025441fb25803add523a4591260e0f360ed776c08d859ab6536",
          "blockNumber": "0x95a516",
          "blockTimestamp": "0x66f06ca7",
          "transactionHash": "0x896a321d4219d28b69f5d4b8b79cdfe0cd620bb081415f163a0343adf3ae887a",
          "transactionIndex": "0x0",
          "logIndex": "0xd",
          "removed": false
        },
        {
          "address": "0x586733678b9ac9da43dd7cb83bbb41d23677dfc3",
          "topics": [
            "0x19b47279256b2a23a1665c810c8d55a1758940ee09377d4f8d26497a3577dc83",
            "0x00000000000000000000000056c85a254dd12ee8d9c04049a4ab62769ce98210",
            "0x0000000000000000000000002d8879046f1559e53eb052e949e9544bcb72f414"
          ],
          "data": "0xfffffffffffffffffffffffffffffffffffffffffffffffffffffffff322040c0000000000000000000000000000000000000000000000000129d7b266d0cfc60000000000000000000000000000000000004cfba0f6237df739b39f1d202f53000000000000000000000000000000000000000000000000004c9e51a252ca1b000000000000000000000000000000000000000000000000000000000003049900000000000000000000000000000000000000000000000000000000000000000000000000000000000000000000000000000000000000000000028423faa485",
          "blockHash": "0xb6cd7160a1ec2025441fb25803add523a4591260e0f360ed776c08d859ab6536",
          "blockNumber": "0x95a516",
          "blockTimestamp": "0x66f06ca7",
          "transactionHash": "0x896a321d4219d28b69f5d4b8b79cdfe0cd620bb081415f163a0343adf3ae887a",
          "transactionIndex": "0x0",
          "logIndex": "0xe",
          "removed": false
        },
        {
          "address": "0x176211869ca2b568f2a7d4ee941e073a821ee1ff",
          "topics": [
            "0xddf252ad1be2c89b69c2b068fc378daa952ba7f163c4a11628f55a4df523b3ef",
            "0x0000000000000000000000007077f0cff76077d0ebb335b607db574400510557",
            "0x0000000000000000000000002d8879046f1559e53eb052e949e9544bcb72f414"
          ],
          "data": "0x000000000000000000000000000000000000000000000000000000000c1dc7d6",
          "blockHash": "0xb6cd7160a1ec2025441fb25803add523a4591260e0f360ed776c08d859ab6536",
          "blockNumber": "0x95a516",
          "blockTimestamp": "0x66f06ca7",
          "transactionHash": "0x896a321d4219d28b69f5d4b8b79cdfe0cd620bb081415f163a0343adf3ae887a",
          "transactionIndex": "0x0",
          "logIndex": "0xf",
          "removed": false
        },
        {
          "address": "0xe5d7c2a44ffddf6b295a15c148167daaaf5cf34f",
          "topics": [
            "0xddf252ad1be2c89b69c2b068fc378daa952ba7f163c4a11628f55a4df523b3ef",
            "0x00000000000000000000000056c85a254dd12ee8d9c04049a4ab62769ce98210",
            "0x0000000000000000000000007077f0cff76077d0ebb335b607db574400510557"
          ],
          "data": "0x00000000000000000000000000000000000000000000000001187a6a8363412f",
          "blockHash": "0xb6cd7160a1ec2025441fb25803add523a4591260e0f360ed776c08d859ab6536",
          "blockNumber": "0x95a516",
          "blockTimestamp": "0x66f06ca7",
          "transactionHash": "0x896a321d4219d28b69f5d4b8b79cdfe0cd620bb081415f163a0343adf3ae887a",
          "transactionIndex": "0x0",
          "logIndex": "0x10",
          "removed": false
        },
        {
          "address": "0x7077f0cff76077d0ebb335b607db574400510557",
          "topics": [
            "0xc42079f94a6350d7e6235f29174924f928cc2ac818eb64fed8004e115fbcca67",
            "0x00000000000000000000000056c85a254dd12ee8d9c04049a4ab62769ce98210",
            "0x0000000000000000000000002d8879046f1559e53eb052e949e9544bcb72f414"
          ],
          "data": "0xfffffffffffffffffffffffffffffffffffffffffffffffffffffffff3e2382a00000000000000000000000000000000000000000000000001187a6a8363412f0000000000000000000000000000000000004cfc971d473bc8352f0b8cb71cb3000000000000000000000000000000000000000000000000001608c9259a7d75000000000000000000000000000000000000000000000000000000000003049a",
          "blockHash": "0xb6cd7160a1ec2025441fb25803add523a4591260e0f360ed776c08d859ab6536",
          "blockNumber": "0x95a516",
          "blockTimestamp": "0x66f06ca7",
          "transactionHash": "0x896a321d4219d28b69f5d4b8b79cdfe0cd620bb081415f163a0343adf3ae887a",
          "transactionIndex": "0x0",
          "logIndex": "0x11",
          "removed": false
        },
        {
          "address": "0x176211869ca2b568f2a7d4ee941e073a821ee1ff",
          "topics": [
            "0xddf252ad1be2c89b69c2b068fc378daa952ba7f163c4a11628f55a4df523b3ef",
            "0x0000000000000000000000005615a7b1619980f7d6b5e7f69f3dc093dfe0c95c",
            "0x0000000000000000000000002d8879046f1559e53eb052e949e9544bcb72f414"
          ],
          "data": "0x0000000000000000000000000000000000000000000000000000000019ef1f8c",
          "blockHash": "0xb6cd7160a1ec2025441fb25803add523a4591260e0f360ed776c08d859ab6536",
          "blockNumber": "0x95a516",
          "blockTimestamp": "0x66f06ca7",
          "transactionHash": "0x896a321d4219d28b69f5d4b8b79cdfe0cd620bb081415f163a0343adf3ae887a",
          "transactionIndex": "0x0",
          "logIndex": "0x12",
          "removed": false
        },
        {
          "address": "0xe5d7c2a44ffddf6b295a15c148167daaaf5cf34f",
          "topics": [
            "0xddf252ad1be2c89b69c2b068fc378daa952ba7f163c4a11628f55a4df523b3ef",
            "0x00000000000000000000000056c85a254dd12ee8d9c04049a4ab62769ce98210",
            "0x0000000000000000000000005615a7b1619980f7d6b5e7f69f3dc093dfe0c95c"
          ],
          "data": "0x0000000000000000000000000000000000000000000000000258a5b76e48f4d3",
          "blockHash": "0xb6cd7160a1ec2025441fb25803add523a4591260e0f360ed776c08d859ab6536",
          "blockNumber": "0x95a516",
          "blockTimestamp": "0x66f06ca7",
          "transactionHash": "0x896a321d4219d28b69f5d4b8b79cdfe0cd620bb081415f163a0343adf3ae887a",
          "transactionIndex": "0x0",
          "logIndex": "0x13",
          "removed": false
        },
        {
          "address": "0x5615a7b1619980f7d6b5e7f69f3dc093dfe0c95c",
          "topics": [
            "0x0fe977d619f8172f7fdbe8bb8928ef80952817d96936509f67d66346bc4cd10f",
            "0x000000000000000000000000176211869ca2b568f2a7d4ee941e073a821ee1ff",
            "0x000000000000000000000000e5d7c2a44ffddf6b295a15c148167daaaf5cf34f",
            "0x00000000000000000000000000000000000000000000000000000000000001f4"
          ],
          "data": "0x00000000000000000000000000000000000000000000000000000000000000000000000000000000000000000000000000000000000000000000000019ef1f8c0000000000000000000000000000000000000000000000000258a5b76e48f4d3000000000000000000000000000000000000000000000000000000000003049a",
          "blockHash": "0xb6cd7160a1ec2025441fb25803add523a4591260e0f360ed776c08d859ab6536",
          "blockNumber": "0x95a516",
          "blockTimestamp": "0x66f06ca7",
          "transactionHash": "0x896a321d4219d28b69f5d4b8b79cdfe0cd620bb081415f163a0343adf3ae887a",
          "transactionIndex": "0x0",
          "logIndex": "0x14",
          "removed": false
        },
        {
          "address": "0xe5d7c2a44ffddf6b295a15c148167daaaf5cf34f",
          "topics": [
            "0xddf252ad1be2c89b69c2b068fc378daa952ba7f163c4a11628f55a4df523b3ef",
            "0x00000000000000000000000056c85a254dd12ee8d9c04049a4ab62769ce98210",
            "0x000000000000000000000000f39fd6e51aad88f6f4ce6ab8827279cfffb92266"
          ],
          "data": "0x00000000000000000000000000000000000000000000000000000000000018e5",
          "blockHash": "0xb6cd7160a1ec2025441fb25803add523a4591260e0f360ed776c08d859ab6536",
          "blockNumber": "0x95a516",
          "blockTimestamp": "0x66f06ca7",
          "transactionHash": "0x896a321d4219d28b69f5d4b8b79cdfe0cd620bb081415f163a0343adf3ae887a",
          "transactionIndex": "0x0",
          "logIndex": "0x15",
          "removed": false
        },
        {
          "address": "0x6e9ad0b8a41e2c148e7b0385d3ecbfdb8a216a9b",
          "topics": [
            "0x598b9f043c813aa6be3426ca60d1c65d17256312890be5118dab55b0775ebe2a"
          ],
          "data": "0x0000000000000000000000000000000000000000000000000000000000000032",
          "blockHash": "0xb6cd7160a1ec2025441fb25803add523a4591260e0f360ed776c08d859ab6536",
          "blockNumber": "0x95a516",
          "blockTimestamp": "0x66f06ca7",
          "transactionHash": "0x896a321d4219d28b69f5d4b8b79cdfe0cd620bb081415f163a0343adf3ae887a",
          "transactionIndex": "0x0",
          "logIndex": "0x16",
          "removed": false
        },
        {
          "address": "0x176211869ca2b568f2a7d4ee941e073a821ee1ff",
          "topics": [
            "0xddf252ad1be2c89b69c2b068fc378daa952ba7f163c4a11628f55a4df523b3ef",
            "0x0000000000000000000000006e9ad0b8a41e2c148e7b0385d3ecbfdb8a216a9b",
            "0x0000000000000000000000002d8879046f1559e53eb052e949e9544bcb72f414"
          ],
          "data": "0x00000000000000000000000000000000000000000000000000000000372220e6",
          "blockHash": "0xb6cd7160a1ec2025441fb25803add523a4591260e0f360ed776c08d859ab6536",
          "blockNumber": "0x95a516",
          "blockTimestamp": "0x66f06ca7",
          "transactionHash": "0x896a321d4219d28b69f5d4b8b79cdfe0cd620bb081415f163a0343adf3ae887a",
          "transactionIndex": "0x0",
          "logIndex": "0x17",
          "removed": false
        },
        {
          "address": "0xa219439258ca9da29e9cc4ce5596924745e12b93",
          "topics": [
            "0xddf252ad1be2c89b69c2b068fc378daa952ba7f163c4a11628f55a4df523b3ef",
            "0x00000000000000000000000056c85a254dd12ee8d9c04049a4ab62769ce98210",
            "0x0000000000000000000000006e9ad0b8a41e2c148e7b0385d3ecbfdb8a216a9b"
          ],
          "data": "0x00000000000000000000000000000000000000000000000000000000371f484a",
          "blockHash": "0xb6cd7160a1ec2025441fb25803add523a4591260e0f360ed776c08d859ab6536",
          "blockNumber": "0x95a516",
          "blockTimestamp": "0x66f06ca7",
          "transactionHash": "0x896a321d4219d28b69f5d4b8b79cdfe0cd620bb081415f163a0343adf3ae887a",
          "transactionIndex": "0x0",
          "logIndex": "0x18",
          "removed": false
        },
        {
          "address": "0xa219439258ca9da29e9cc4ce5596924745e12b93",
          "topics": [
            "0xddf252ad1be2c89b69c2b068fc378daa952ba7f163c4a11628f55a4df523b3ef",
            "0x0000000000000000000000006e9ad0b8a41e2c148e7b0385d3ecbfdb8a216a9b",
            "0x0000000000000000000000001d8b6fa722230153be08c4fa4aa4b4c7cd01a95a"
          ],
          "data": "0x000000000000000000000000000000000000000000000000000000000000056b",
          "blockHash": "0xb6cd7160a1ec2025441fb25803add523a4591260e0f360ed776c08d859ab6536",
          "blockNumber": "0x95a516",
          "blockTimestamp": "0x66f06ca7",
          "transactionHash": "0x896a321d4219d28b69f5d4b8b79cdfe0cd620bb081415f163a0343adf3ae887a",
          "transactionIndex": "0x0",
          "logIndex": "0x19",
          "removed": false
        },
        {
          "address": "0x6e9ad0b8a41e2c148e7b0385d3ecbfdb8a216a9b",
          "topics": [
            "0xc42079f94a6350d7e6235f29174924f928cc2ac818eb64fed8004e115fbcca67",
            "0x00000000000000000000000056c85a254dd12ee8d9c04049a4ab62769ce98210",
            "0x0000000000000000000000002d8879046f1559e53eb052e949e9544bcb72f414"
          ],
          "data": "0xffffffffffffffffffffffffffffffffffffffffffffffffffffffffc8dddf1a00000000000000000000000000000000000000000000000000000000371f484a0000000000000000000000000000000000000000fff7c409cb1c10a60a9f8a6b0000000000000000000000000000000000000000000000000008e4b3c131637cfffffffffffffffffffffffffffffffffffffffffffffffffffffffffffffffd",
          "blockHash": "0xb6cd7160a1ec2025441fb25803add523a4591260e0f360ed776c08d859ab6536",
          "blockNumber": "0x95a516",
          "blockTimestamp": "0x66f06ca7",
          "transactionHash": "0x896a321d4219d28b69f5d4b8b79cdfe0cd620bb081415f163a0343adf3ae887a",
          "transactionIndex": "0x0",
          "logIndex": "0x1a",
          "removed": false
        },
        {
          "address": "0x176211869ca2b568f2a7d4ee941e073a821ee1ff",
          "topics": [
            "0xddf252ad1be2c89b69c2b068fc378daa952ba7f163c4a11628f55a4df523b3ef",
            "0x000000000000000000000000efd5ec2cc043e3bd3c840f7998cc42ee712700ba",
            "0x0000000000000000000000002d8879046f1559e53eb052e949e9544bcb72f414"
          ],
          "data": "0x000000000000000000000000000000000000000000000000000000000f521ea9",
          "blockHash": "0xb6cd7160a1ec2025441fb25803add523a4591260e0f360ed776c08d859ab6536",
          "blockNumber": "0x95a516",
          "blockTimestamp": "0x66f06ca7",
          "transactionHash": "0x896a321d4219d28b69f5d4b8b79cdfe0cd620bb081415f163a0343adf3ae887a",
          "transactionIndex": "0x0",
          "logIndex": "0x1b",
          "removed": false
        },
        {
          "address": "0xa219439258ca9da29e9cc4ce5596924745e12b93",
          "topics": [
            "0xddf252ad1be2c89b69c2b068fc378daa952ba7f163c4a11628f55a4df523b3ef",
            "0x00000000000000000000000056c85a254dd12ee8d9c04049a4ab62769ce98210",
            "0x000000000000000000000000efd5ec2cc043e3bd3c840f7998cc42ee712700ba"
          ],
          "data": "0x000000000000000000000000000000000000000000000000000000000f51548a",
          "blockHash": "0xb6cd7160a1ec2025441fb25803add523a4591260e0f360ed776c08d859ab6536",
          "blockNumber": "0x95a516",
          "blockTimestamp": "0x66f06ca7",
          "transactionHash": "0x896a321d4219d28b69f5d4b8b79cdfe0cd620bb081415f163a0343adf3ae887a",
          "transactionIndex": "0x0",
          "logIndex": "0x1c",
          "removed": false
        },
        {
          "address": "0xefd5ec2cc043e3bd3c840f7998cc42ee712700ba",
          "topics": [
            "0xc42079f94a6350d7e6235f29174924f928cc2ac818eb64fed8004e115fbcca67",
            "0x00000000000000000000000056c85a254dd12ee8d9c04049a4ab62769ce98210",
            "0x0000000000000000000000002d8879046f1559e53eb052e949e9544bcb72f414"
          ],
          "data": "0xfffffffffffffffffffffffffffffffffffffffffffffffffffffffff0ade157000000000000000000000000000000000000000000000000000000000f51548a0000000000000000000000000000000000000000fff7c412fce11f03dd3f02fc0000000000000000000000000000000000000000000000000020d0819313063ffffffffffffffffffffffffffffffffffffffffffffffffffffffffffffffffd",
          "blockHash": "0xb6cd7160a1ec2025441fb25803add523a4591260e0f360ed776c08d859ab6536",
          "blockNumber": "0x95a516",
          "blockTimestamp": "0x66f06ca7",
          "transactionHash": "0x896a321d4219d28b69f5d4b8b79cdfe0cd620bb081415f163a0343adf3ae887a",
          "transactionIndex": "0x0",
          "logIndex": "0x1d",
          "removed": false
        },
        {
          "address": "0x176211869ca2b568f2a7d4ee941e073a821ee1ff",
          "topics": [
            "0xddf252ad1be2c89b69c2b068fc378daa952ba7f163c4a11628f55a4df523b3ef",
            "0x0000000000000000000000002d8879046f1559e53eb052e949e9544bcb72f414",
            "0x000000000000000000000000f39fd6e51aad88f6f4ce6ab8827279cfffb92266"
          ],
          "data": "0x00000000000000000000000000000000000000000000000000000000996616c6",
          "blockHash": "0xb6cd7160a1ec2025441fb25803add523a4591260e0f360ed776c08d859ab6536",
          "blockNumber": "0x95a516",
          "blockTimestamp": "0x66f06ca7",
          "transactionHash": "0x896a321d4219d28b69f5d4b8b79cdfe0cd620bb081415f163a0343adf3ae887a",
          "transactionIndex": "0x0",
          "logIndex": "0x1e",
          "removed": false
        },
        {
          "address": "0x2d8879046f1559e53eb052e949e9544bcb72f414",
          "topics": [
            "0x823eaf01002d7353fbcadb2ea3305cc46fa35d799cb0914846d185ac06f8ad05"
          ],
          "data": "0x000000000000000000000000f39fd6e51aad88f6f4ce6ab8827279cfffb922660000000000000000000000000000000000000000000000000de0b6b3a7640000000000000000000000000000e5d7c2a44ffddf6b295a15c148167daaaf5cf34f00000000000000000000000000000000000000000000000000000000996616c6000000000000000000000000176211869ca2b568f2a7d4ee941e073a821ee1ff0000000000000000000000000000000000000000000000000000000000036e1a0000000000000000000000000000000000000000000000000000000000000000",
          "blockHash": "0xb6cd7160a1ec2025441fb25803add523a4591260e0f360ed776c08d859ab6536",
          "blockNumber": "0x95a516",
          "blockTimestamp": "0x66f06ca7",
          "transactionHash": "0x896a321d4219d28b69f5d4b8b79cdfe0cd620bb081415f163a0343adf3ae887a",
          "transactionIndex": "0x0",
          "logIndex": "0x1f",
          "removed": false
        }
      ],
      "logsBloom": "0x000800000040000000000000000000000000000000000000080000000000000004000400000000040000108200020000000048000400200400040000000040000c00020000400008000800280200100000000000000000002000000100028000008000020010000000800001208000018c000000020000000000001000480000000002000008000000301004000000a00000800800000000000008040008000000000000020000140000000008000000000000020000000100400000a00002000050000208000020020008008000100000020800a2400c0000000001000008000400000200000000020000000000000000000020020002000040000000000000",
      "type": "0x2",
      "transactionHash": "0x896a321d4219d28b69f5d4b8b79cdfe0cd620bb081415f163a0343adf3ae887a",
      "transactionIndex": "0x0",
      "blockHash": "0xb6cd7160a1ec2025441fb25803add523a4591260e0f360ed776c08d859ab6536",
      "blockNumber": "0x95a516",
      "gasUsed": "0x1206d0",
      "effectiveGasPrice": "0x6a26128",
      "blobGasPrice": "0x1",
      "from": "0xf39fd6e51aad88f6f4ce6ab8827279cfffb92266",
      "to": "0x2d8879046f1559e53eb052e949e9544bcb72f414",
      "contractAddress": null,
      "root": "0x0000000000000000000000000000000000000000000000000000000000000000"
    },
    {
      "status": "0x1",
      "cumulativeGasUsed": "0xeb1e",
      "logs": [
        {
          "address": "0x176211869ca2b568f2a7d4ee941e073a821ee1ff",
          "topics": [
            "0x8c5be1e5ebec7d5bd14f71427d1e84f3dd0314c0f7b2291e5b200ac8c7c3b925",
            "0x000000000000000000000000f39fd6e51aad88f6f4ce6ab8827279cfffb92266",
            "0x0000000000000000000000000b306bf915c4d645ff596e518faf3f9669b97016"
          ],
          "data": "0xffffffffffffffffffffffffffffffffffffffffffffffffffffffffffffffff",
          "blockHash": "0xb39ee9702dadb8534b7a76f99a7ee47b2450571bd59bb27bfa9d1043aeb1e063",
          "blockNumber": "0x95a517",
          "blockTimestamp": "0x66f06caa",
          "transactionHash": "0xd2ead3fd5e5aab046ad9c4ea1c8877b5ba04807f5742248abdaa040af0ff7fd6",
          "transactionIndex": "0x0",
          "logIndex": "0x0",
          "removed": false
        }
      ],
      "logsBloom": "0x00000000000000000000000000000008000000000000000000000000000000000000000000000000000000000000000000000800000000000004000000200000000000000000000000000000020000000000000000000000000000000000000000000000000000000000000300000000000000000000000000000000000000000000000000000000000000000000000000000000000000000000000000000000020000000000000000000000000000000000000000000000000000000000000000000000000000200000000000000000000000002000000000000000000000000010000000000000000000000400000000000000000000000000000000000000",
      "type": "0x2",
      "transactionHash": "0xd2ead3fd5e5aab046ad9c4ea1c8877b5ba04807f5742248abdaa040af0ff7fd6",
      "transactionIndex": "0x0",
      "blockHash": "0xb39ee9702dadb8534b7a76f99a7ee47b2450571bd59bb27bfa9d1043aeb1e063",
      "blockNumber": "0x95a517",
      "gasUsed": "0xeb1e",
      "effectiveGasPrice": "0x6a26128",
      "blobGasPrice": "0x1",
      "from": "0xf39fd6e51aad88f6f4ce6ab8827279cfffb92266",
      "to": "0x176211869ca2b568f2a7d4ee941e073a821ee1ff",
      "contractAddress": null,
      "root": "0x0000000000000000000000000000000000000000000000000000000000000000"
    },
    {
      "status": "0x1",
      "cumulativeGasUsed": "0x1a03a",
      "logs": [
        {
          "address": "0xe5d7c2a44ffddf6b295a15c148167daaaf5cf34f",
          "topics": [
            "0x8c5be1e5ebec7d5bd14f71427d1e84f3dd0314c0f7b2291e5b200ac8c7c3b925",
            "0x000000000000000000000000f39fd6e51aad88f6f4ce6ab8827279cfffb92266",
            "0x0000000000000000000000000b306bf915c4d645ff596e518faf3f9669b97016"
          ],
          "data": "0xffffffffffffffffffffffffffffffffffffffffffffffffffffffffffffffff",
          "blockHash": "0xb39ee9702dadb8534b7a76f99a7ee47b2450571bd59bb27bfa9d1043aeb1e063",
          "blockNumber": "0x95a517",
          "blockTimestamp": "0x66f06caa",
          "transactionHash": "0xd19665c4aa3b3608e20c8842de7475c4b4c223e0fac16531eef9df5a72031e55",
          "transactionIndex": "0x1",
          "logIndex": "0x1",
          "removed": false
        }
      ],
      "logsBloom": "0x0000000000000000000000000000000800000000000000000000000000000000000000000000000000000000000000000000000000000000000000000020000000000000000000000000000000000000000000000000000000000000000000000000000000000000000000030000000000000000000000000000000000000000000000000000000000100000000000000000000000000000000000000000000002000000000000000000000000000000000000000000000000000000200000000000000000000020000000000000000000000000a000000000000000000000000010000000000000000000000400000000000000000000000000000000000000",
      "type": "0x2",
      "transactionHash": "0xd19665c4aa3b3608e20c8842de7475c4b4c223e0fac16531eef9df5a72031e55",
      "transactionIndex": "0x1",
      "blockHash": "0xb39ee9702dadb8534b7a76f99a7ee47b2450571bd59bb27bfa9d1043aeb1e063",
      "blockNumber": "0x95a517",
      "gasUsed": "0xb51c",
      "effectiveGasPrice": "0x6a26128",
      "blobGasPrice": "0x1",
      "from": "0xf39fd6e51aad88f6f4ce6ab8827279cfffb92266",
      "to": "0xe5d7c2a44ffddf6b295a15c148167daaaf5cf34f",
      "contractAddress": null,
      "root": "0x0000000000000000000000000000000000000000000000000000000000000000"
    },
    {
      "status": "0x1",
      "cumulativeGasUsed": "0x23d9c",
      "logs": [
        {
          "address": "0x176211869ca2b568f2a7d4ee941e073a821ee1ff",
          "topics": [
            "0x8c5be1e5ebec7d5bd14f71427d1e84f3dd0314c0f7b2291e5b200ac8c7c3b925",
            "0x000000000000000000000000f39fd6e51aad88f6f4ce6ab8827279cfffb92266",
            "0x0000000000000000000000000b306bf915c4d645ff596e518faf3f9669b97016"
          ],
          "data": "0xffffffffffffffffffffffffffffffffffffffffffffffffffffffffffffffff",
          "blockHash": "0xb39ee9702dadb8534b7a76f99a7ee47b2450571bd59bb27bfa9d1043aeb1e063",
          "blockNumber": "0x95a517",
          "blockTimestamp": "0x66f06caa",
          "transactionHash": "0x81a83372abe5243d7578b0620a750a1d561d19d2e06885cd8aefba704957cd72",
          "transactionIndex": "0x2",
          "logIndex": "0x2",
          "removed": false
        }
      ],
      "logsBloom": "0x00000000000000000000000000000008000000000000000000000000000000000000000000000000000000000000000000000800000000000004000000200000000000000000000000000000020000000000000000000000000000000000000000000000000000000000000300000000000000000000000000000000000000000000000000000000000000000000000000000000000000000000000000000000020000000000000000000000000000000000000000000000000000000000000000000000000000200000000000000000000000002000000000000000000000000010000000000000000000000400000000000000000000000000000000000000",
      "type": "0x2",
      "transactionHash": "0x81a83372abe5243d7578b0620a750a1d561d19d2e06885cd8aefba704957cd72",
      "transactionIndex": "0x2",
      "blockHash": "0xb39ee9702dadb8534b7a76f99a7ee47b2450571bd59bb27bfa9d1043aeb1e063",
      "blockNumber": "0x95a517",
      "gasUsed": "0x9d62",
      "effectiveGasPrice": "0x6a26128",
      "blobGasPrice": "0x1",
      "from": "0xf39fd6e51aad88f6f4ce6ab8827279cfffb92266",
      "to": "0x176211869ca2b568f2a7d4ee941e073a821ee1ff",
      "contractAddress": null,
      "root": "0x0000000000000000000000000000000000000000000000000000000000000000"
    },
    {
      "status": "0x1",
      "cumulativeGasUsed": "0x13cc75",
      "logs": [
        {
          "address": "0x9a9f2ccfde556a7e9ff0848998aa4a0cfd8863ae",
          "topics": [
            "0xddf252ad1be2c89b69c2b068fc378daa952ba7f163c4a11628f55a4df523b3ef",
            "0x0000000000000000000000000000000000000000000000000000000000000000",
            "0x000000000000000000000000f39fd6e51aad88f6f4ce6ab8827279cfffb92266",
            "0x0000000000000000000000000000000000000000000000000000000000000000"
          ],
          "data": "0x",
          "blockHash": "0xb39ee9702dadb8534b7a76f99a7ee47b2450571bd59bb27bfa9d1043aeb1e063",
          "blockNumber": "0x95a517",
          "blockTimestamp": "0x66f06caa",
          "transactionHash": "0x1015d347434ee78e70f6d24d169dfe105f3c79caf692c42c9aa4ee2753856950",
          "transactionIndex": "0x3",
          "logIndex": "0x3",
          "removed": false
        },
        {
          "address": "0x176211869ca2b568f2a7d4ee941e073a821ee1ff",
          "topics": [
            "0xddf252ad1be2c89b69c2b068fc378daa952ba7f163c4a11628f55a4df523b3ef",
            "0x000000000000000000000000f39fd6e51aad88f6f4ce6ab8827279cfffb92266",
            "0x0000000000000000000000008ee06e608de47ea1b185583aca65e34f2fd79b13"
          ],
          "data": "0x0000000000000000000000000000000000000000000000000000000005f5e100",
          "blockHash": "0xb39ee9702dadb8534b7a76f99a7ee47b2450571bd59bb27bfa9d1043aeb1e063",
          "blockNumber": "0x95a517",
          "blockTimestamp": "0x66f06caa",
          "transactionHash": "0x1015d347434ee78e70f6d24d169dfe105f3c79caf692c42c9aa4ee2753856950",
          "transactionIndex": "0x3",
          "logIndex": "0x4",
          "removed": false
        },
        {
          "address": "0x176211869ca2b568f2a7d4ee941e073a821ee1ff",
          "topics": [
            "0xddf252ad1be2c89b69c2b068fc378daa952ba7f163c4a11628f55a4df523b3ef",
            "0x0000000000000000000000002e207eca8b6bf77a6ac82763eeed2a94de4f081d",
            "0x0000000000000000000000008ee06e608de47ea1b185583aca65e34f2fd79b13"
          ],
          "data": "0x000000000000000000000000000000000000000000000000000000000bebc200",
          "blockHash": "0xb39ee9702dadb8534b7a76f99a7ee47b2450571bd59bb27bfa9d1043aeb1e063",
          "blockNumber": "0x95a517",
          "blockTimestamp": "0x66f06caa",
          "transactionHash": "0x1015d347434ee78e70f6d24d169dfe105f3c79caf692c42c9aa4ee2753856950",
          "transactionIndex": "0x3",
          "logIndex": "0x5",
          "removed": false
        },
        {
          "address": "0x176211869ca2b568f2a7d4ee941e073a821ee1ff",
          "topics": [
            "0x8c5be1e5ebec7d5bd14f71427d1e84f3dd0314c0f7b2291e5b200ac8c7c3b925",
            "0x0000000000000000000000008ee06e608de47ea1b185583aca65e34f2fd79b13",
            "0x0000000000000000000000002d8879046f1559e53eb052e949e9544bcb72f414"
          ],
          "data": "0x0000000000000000000000000000000000000000000000000000000011e1a300",
          "blockHash": "0xb39ee9702dadb8534b7a76f99a7ee47b2450571bd59bb27bfa9d1043aeb1e063",
          "blockNumber": "0x95a517",
          "blockTimestamp": "0x66f06caa",
          "transactionHash": "0x1015d347434ee78e70f6d24d169dfe105f3c79caf692c42c9aa4ee2753856950",
          "transactionIndex": "0x3",
          "logIndex": "0x6",
          "removed": false
        },
        {
          "address": "0x176211869ca2b568f2a7d4ee941e073a821ee1ff",
          "topics": [
            "0xddf252ad1be2c89b69c2b068fc378daa952ba7f163c4a11628f55a4df523b3ef",
            "0x0000000000000000000000008ee06e608de47ea1b185583aca65e34f2fd79b13",
            "0x00000000000000000000000056c85a254dd12ee8d9c04049a4ab62769ce98210"
          ],
          "data": "0x0000000000000000000000000000000000000000000000000000000011e1a300",
          "blockHash": "0xb39ee9702dadb8534b7a76f99a7ee47b2450571bd59bb27bfa9d1043aeb1e063",
          "blockNumber": "0x95a517",
          "blockTimestamp": "0x66f06caa",
          "transactionHash": "0x1015d347434ee78e70f6d24d169dfe105f3c79caf692c42c9aa4ee2753856950",
          "transactionIndex": "0x3",
          "logIndex": "0x7",
          "removed": false
        },
        {
          "address": "0xe5d7c2a44ffddf6b295a15c148167daaaf5cf34f",
          "topics": [
            "0xddf252ad1be2c89b69c2b068fc378daa952ba7f163c4a11628f55a4df523b3ef",
            "0x00000000000000000000000064bccad8e7302e81b09894f56f6bba85ae82cd03",
            "0x0000000000000000000000002d8879046f1559e53eb052e949e9544bcb72f414"
          ],
          "data": "0x000000000000000000000000000000000000000000000000019dc4e9d6d26cd4",
          "blockHash": "0xb39ee9702dadb8534b7a76f99a7ee47b2450571bd59bb27bfa9d1043aeb1e063",
          "blockNumber": "0x95a517",
          "blockTimestamp": "0x66f06caa",
          "transactionHash": "0x1015d347434ee78e70f6d24d169dfe105f3c79caf692c42c9aa4ee2753856950",
          "transactionIndex": "0x3",
          "logIndex": "0x8",
          "removed": false
        },
        {
          "address": "0x176211869ca2b568f2a7d4ee941e073a821ee1ff",
          "topics": [
            "0xddf252ad1be2c89b69c2b068fc378daa952ba7f163c4a11628f55a4df523b3ef",
            "0x00000000000000000000000056c85a254dd12ee8d9c04049a4ab62769ce98210",
            "0x00000000000000000000000064bccad8e7302e81b09894f56f6bba85ae82cd03"
          ],
          "data": "0x0000000000000000000000000000000000000000000000000000000011e1a300",
          "blockHash": "0xb39ee9702dadb8534b7a76f99a7ee47b2450571bd59bb27bfa9d1043aeb1e063",
          "blockNumber": "0x95a517",
          "blockTimestamp": "0x66f06caa",
          "transactionHash": "0x1015d347434ee78e70f6d24d169dfe105f3c79caf692c42c9aa4ee2753856950",
          "transactionIndex": "0x3",
          "logIndex": "0x9",
          "removed": false
        },
        {
          "address": "0x64bccad8e7302e81b09894f56f6bba85ae82cd03",
          "topics": [
            "0xc42079f94a6350d7e6235f29174924f928cc2ac818eb64fed8004e115fbcca67",
            "0x00000000000000000000000056c85a254dd12ee8d9c04049a4ab62769ce98210",
            "0x0000000000000000000000002d8879046f1559e53eb052e949e9544bcb72f414"
          ],
          "data": "0x0000000000000000000000000000000000000000000000000000000011e1a300fffffffffffffffffffffffffffffffffffffffffffffffffe623b16292d932c0000000000000000000000000000000000004cfb047358c9a95a0a0fe087de17000000000000000000000000000000000000000000000000041f0921020ba8170000000000000000000000000000000000000000000000000000000000030498",
          "blockHash": "0xb39ee9702dadb8534b7a76f99a7ee47b2450571bd59bb27bfa9d1043aeb1e063",
          "blockNumber": "0x95a517",
          "blockTimestamp": "0x66f06caa",
          "transactionHash": "0x1015d347434ee78e70f6d24d169dfe105f3c79caf692c42c9aa4ee2753856950",
          "transactionIndex": "0x3",
          "logIndex": "0xa",
          "removed": false
        },
        {
          "address": "0xe5d7c2a44ffddf6b295a15c148167daaaf5cf34f",
          "topics": [
            "0xddf252ad1be2c89b69c2b068fc378daa952ba7f163c4a11628f55a4df523b3ef",
            "0x0000000000000000000000002d8879046f1559e53eb052e949e9544bcb72f414",
            "0x0000000000000000000000008ee06e608de47ea1b185583aca65e34f2fd79b13"
          ],
          "data": "0x000000000000000000000000000000000000000000000000019dc4e9d6d26cd4",
          "blockHash": "0xb39ee9702dadb8534b7a76f99a7ee47b2450571bd59bb27bfa9d1043aeb1e063",
          "blockNumber": "0x95a517",
          "blockTimestamp": "0x66f06caa",
          "transactionHash": "0x1015d347434ee78e70f6d24d169dfe105f3c79caf692c42c9aa4ee2753856950",
          "transactionIndex": "0x3",
          "logIndex": "0xb",
          "removed": false
        },
        {
          "address": "0x2d8879046f1559e53eb052e949e9544bcb72f414",
          "topics": [
            "0x823eaf01002d7353fbcadb2ea3305cc46fa35d799cb0914846d185ac06f8ad05"
          ],
          "data": "0x0000000000000000000000008ee06e608de47ea1b185583aca65e34f2fd79b130000000000000000000000000000000000000000000000000000000011e1a300000000000000000000000000176211869ca2b568f2a7d4ee941e073a821ee1ff000000000000000000000000000000000000000000000000019dc4e9d6d26cd4000000000000000000000000e5d7c2a44ffddf6b295a15c148167daaaf5cf34fffffffffffffffffffffffffffffffffffffffffffffffffffffa9a378552f140000000000000000000000000000000000000000000000000000000000000000",
          "blockHash": "0xb39ee9702dadb8534b7a76f99a7ee47b2450571bd59bb27bfa9d1043aeb1e063",
          "blockNumber": "0x95a517",
          "blockTimestamp": "0x66f06caa",
          "transactionHash": "0x1015d347434ee78e70f6d24d169dfe105f3c79caf692c42c9aa4ee2753856950",
          "transactionIndex": "0x3",
          "logIndex": "0xc",
          "removed": false
        },
        {
          "address": "0xe5d7c2a44ffddf6b295a15c148167daaaf5cf34f",
          "topics": [
            "0x8c5be1e5ebec7d5bd14f71427d1e84f3dd0314c0f7b2291e5b200ac8c7c3b925",
            "0x0000000000000000000000008ee06e608de47ea1b185583aca65e34f2fd79b13",
            "0x0000000000000000000000002f9bb73a8e98793e26cb2f6c4ad037bdf1c6b269"
          ],
          "data": "0x000000000000000000000000000000000000000000000000019dc4e9d6d26cd4",
          "blockHash": "0xb39ee9702dadb8534b7a76f99a7ee47b2450571bd59bb27bfa9d1043aeb1e063",
          "blockNumber": "0x95a517",
          "blockTimestamp": "0x66f06caa",
          "transactionHash": "0x1015d347434ee78e70f6d24d169dfe105f3c79caf692c42c9aa4ee2753856950",
          "transactionIndex": "0x3",
          "logIndex": "0xd",
          "removed": false
        },
        {
          "address": "0x2f9bb73a8e98793e26cb2f6c4ad037bdf1c6b269",
          "topics": [
            "0x804c9b842b2748a22bb64b345453a3de7ca54a6ca45ce00d415894979e22897a",
            "0x000000000000000000000000e5d7c2a44ffddf6b295a15c148167daaaf5cf34f"
          ],
          "data": "0x0000000000000000000000000000000000000000000bdbbc43b16d025a56d21b0000000000000000000000000000000000000000002ccaea3f6df7f6d9eb41220000000000000000000000000000000000000000001b7806884f8c6b3f5a091700000000000000000000000000000000000000000352f949ac96c9fd8efe119c0000000000000000000000000000000000000000036004bc1027b83edebc7ed1",
          "blockHash": "0xb39ee9702dadb8534b7a76f99a7ee47b2450571bd59bb27bfa9d1043aeb1e063",
          "blockNumber": "0x95a517",
          "blockTimestamp": "0x66f06caa",
          "transactionHash": "0x1015d347434ee78e70f6d24d169dfe105f3c79caf692c42c9aa4ee2753856950",
          "transactionIndex": "0x3",
          "logIndex": "0xe",
          "removed": false
        },
        {
          "address": "0xe5d7c2a44ffddf6b295a15c148167daaaf5cf34f",
          "topics": [
            "0xddf252ad1be2c89b69c2b068fc378daa952ba7f163c4a11628f55a4df523b3ef",
            "0x0000000000000000000000008ee06e608de47ea1b185583aca65e34f2fd79b13",
            "0x000000000000000000000000b4ffef15daf4c02787bc5332580b838ce39805f5"
          ],
          "data": "0x000000000000000000000000000000000000000000000000019dc4e9d6d26cd4",
          "blockHash": "0xb39ee9702dadb8534b7a76f99a7ee47b2450571bd59bb27bfa9d1043aeb1e063",
          "blockNumber": "0x95a517",
          "blockTimestamp": "0x66f06caa",
          "transactionHash": "0x1015d347434ee78e70f6d24d169dfe105f3c79caf692c42c9aa4ee2753856950",
          "transactionIndex": "0x3",
          "logIndex": "0xf",
          "removed": false
        },
        {
          "address": "0x28f6899ff643261ca9766ddc251b359a2d00b945",
          "topics": [
            "0x3303facd24627943a92e9dc87cfbb34b15c49b726eec3ad3487c16be9ab8efe8",
            "0x000000000000000000000000b4ffef15daf4c02787bc5332580b838ce39805f5",
            "0x00000000000000000000000040a59a3f3b16d9e74c811d24d8b7969664cfe180",
            "0x0000000000000000000000008ee06e608de47ea1b185583aca65e34f2fd79b13"
          ],
          "data": "0x000000000000000000000000000000000000000000004a6e6ce87410aa4b5006000000000000000000000000000000000000000000004a6e6ce87410aa4b50060000000000000000000000000000000000000000000000000000000000000000",
          "blockHash": "0xb39ee9702dadb8534b7a76f99a7ee47b2450571bd59bb27bfa9d1043aeb1e063",
          "blockNumber": "0x95a517",
          "blockTimestamp": "0x66f06caa",
          "transactionHash": "0x1015d347434ee78e70f6d24d169dfe105f3c79caf692c42c9aa4ee2753856950",
          "transactionIndex": "0x3",
          "logIndex": "0x10",
          "removed": false
        },
        {
          "address": "0x28f6899ff643261ca9766ddc251b359a2d00b945",
          "topics": [
            "0x3303facd24627943a92e9dc87cfbb34b15c49b726eec3ad3487c16be9ab8efe8",
            "0x000000000000000000000000b4ffef15daf4c02787bc5332580b838ce39805f5",
            "0x00000000000000000000000078354f8dccb269a615a7e0a24f9b0718fdc3c7a7",
            "0x0000000000000000000000008ee06e608de47ea1b185583aca65e34f2fd79b13"
          ],
          "data": "0x00000000000000000000000000000000000000000000029a1e7a78e0ac362b4700000000000000000000000000000000000000000000029a1e7a78e0ac362b470000000000000000000000000000000000000000000000000000000000000000",
          "blockHash": "0xb39ee9702dadb8534b7a76f99a7ee47b2450571bd59bb27bfa9d1043aeb1e063",
          "blockNumber": "0x95a517",
          "blockTimestamp": "0x66f06caa",
          "transactionHash": "0x1015d347434ee78e70f6d24d169dfe105f3c79caf692c42c9aa4ee2753856950",
          "transactionIndex": "0x3",
          "logIndex": "0x11",
          "removed": false
        },
        {
          "address": "0xb4ffef15daf4c02787bc5332580b838ce39805f5",
          "topics": [
            "0xddf252ad1be2c89b69c2b068fc378daa952ba7f163c4a11628f55a4df523b3ef",
            "0x0000000000000000000000000000000000000000000000000000000000000000",
            "0x0000000000000000000000008ee06e608de47ea1b185583aca65e34f2fd79b13"
          ],
          "data": "0x000000000000000000000000000000000000000000000000019dc4e9d6d26cd4",
          "blockHash": "0xb39ee9702dadb8534b7a76f99a7ee47b2450571bd59bb27bfa9d1043aeb1e063",
          "blockNumber": "0x95a517",
          "blockTimestamp": "0x66f06caa",
          "transactionHash": "0x1015d347434ee78e70f6d24d169dfe105f3c79caf692c42c9aa4ee2753856950",
          "transactionIndex": "0x3",
          "logIndex": "0x12",
          "removed": false
        },
        {
          "address": "0xb4ffef15daf4c02787bc5332580b838ce39805f5",
          "topics": [
            "0x458f5fa412d0f69b08dd84872b0215675cc67bc1d5b6fd93300a1c3878b86196",
            "0x0000000000000000000000008ee06e608de47ea1b185583aca65e34f2fd79b13",
            "0x0000000000000000000000008ee06e608de47ea1b185583aca65e34f2fd79b13"
          ],
          "data": "0x000000000000000000000000000000000000000000000000019dc4e9d6d26cd4000000000000000000000000000000000000000000000000000000000000000000000000000000000000000000000000000000000352f949ac96c9fd8efe119c",
          "blockHash": "0xb39ee9702dadb8534b7a76f99a7ee47b2450571bd59bb27bfa9d1043aeb1e063",
          "blockNumber": "0x95a517",
          "blockTimestamp": "0x66f06caa",
          "transactionHash": "0x1015d347434ee78e70f6d24d169dfe105f3c79caf692c42c9aa4ee2753856950",
          "transactionIndex": "0x3",
          "logIndex": "0x13",
          "removed": false
        },
        {
          "address": "0x2f9bb73a8e98793e26cb2f6c4ad037bdf1c6b269",
          "topics": [
            "0x00058a56ea94653cdf4f152d227ace22d4c00ad99e2a43f58cb7d9e3feb295f2",
            "0x000000000000000000000000e5d7c2a44ffddf6b295a15c148167daaaf5cf34f",
            "0x0000000000000000000000008ee06e608de47ea1b185583aca65e34f2fd79b13"
          ],
          "data": "0x",
          "blockHash": "0xb39ee9702dadb8534b7a76f99a7ee47b2450571bd59bb27bfa9d1043aeb1e063",
          "blockNumber": "0x95a517",
          "blockTimestamp": "0x66f06caa",
          "transactionHash": "0x1015d347434ee78e70f6d24d169dfe105f3c79caf692c42c9aa4ee2753856950",
          "transactionIndex": "0x3",
          "logIndex": "0x14",
          "removed": false
        },
        {
          "address": "0x2f9bb73a8e98793e26cb2f6c4ad037bdf1c6b269",
          "topics": [
            "0x2b627736bca15cd5381dcf80b0bf11fd197d01a037c52b927a881a10fb73ba61",
            "0x000000000000000000000000e5d7c2a44ffddf6b295a15c148167daaaf5cf34f",
            "0x0000000000000000000000008ee06e608de47ea1b185583aca65e34f2fd79b13",
            "0x0000000000000000000000000000000000000000000000000000000000000000"
          ],
          "data": "0x0000000000000000000000008ee06e608de47ea1b185583aca65e34f2fd79b13000000000000000000000000000000000000000000000000019dc4e9d6d26cd4",
          "blockHash": "0xb39ee9702dadb8534b7a76f99a7ee47b2450571bd59bb27bfa9d1043aeb1e063",
          "blockNumber": "0x95a517",
          "blockTimestamp": "0x66f06caa",
          "transactionHash": "0x1015d347434ee78e70f6d24d169dfe105f3c79caf692c42c9aa4ee2753856950",
          "transactionIndex": "0x3",
          "logIndex": "0x15",
          "removed": false
        },
        {
          "address": "0x28f6899ff643261ca9766ddc251b359a2d00b945",
          "topics": [
            "0x3303facd24627943a92e9dc87cfbb34b15c49b726eec3ad3487c16be9ab8efe8",
            "0x000000000000000000000000a2703dc9fbaccd6ec2e4cbfa700989d0238133f6",
            "0x00000000000000000000000040a59a3f3b16d9e74c811d24d8b7969664cfe180",
            "0x0000000000000000000000008ee06e608de47ea1b185583aca65e34f2fd79b13"
          ],
          "data": "0x0000000000000000000000000000000000000000000000053f69899e410bb3ed0000000000000000000000000000000000000000000000053f69899e410bb3ed0000000000000000000000000000000000000000000000000000000000000000",
          "blockHash": "0xb39ee9702dadb8534b7a76f99a7ee47b2450571bd59bb27bfa9d1043aeb1e063",
          "blockNumber": "0x95a517",
          "blockTimestamp": "0x66f06caa",
          "transactionHash": "0x1015d347434ee78e70f6d24d169dfe105f3c79caf692c42c9aa4ee2753856950",
          "transactionIndex": "0x3",
          "logIndex": "0x16",
          "removed": false
        },
        {
          "address": "0x28f6899ff643261ca9766ddc251b359a2d00b945",
          "topics": [
            "0x3303facd24627943a92e9dc87cfbb34b15c49b726eec3ad3487c16be9ab8efe8",
            "0x000000000000000000000000a2703dc9fbaccd6ec2e4cbfa700989d0238133f6",
            "0x00000000000000000000000078354f8dccb269a615a7e0a24f9b0718fdc3c7a7",
            "0x0000000000000000000000008ee06e608de47ea1b185583aca65e34f2fd79b13"
          ],
          "data": "0x0000000000000000000000000000000000000000000000019328829f8f717d3c0000000000000000000000000000000000000000000000019328829f8f717d3c0000000000000000000000000000000000000000000000000000000000000000",
          "blockHash": "0xb39ee9702dadb8534b7a76f99a7ee47b2450571bd59bb27bfa9d1043aeb1e063",
          "blockNumber": "0x95a517",
          "blockTimestamp": "0x66f06caa",
          "transactionHash": "0x1015d347434ee78e70f6d24d169dfe105f3c79caf692c42c9aa4ee2753856950",
          "transactionIndex": "0x3",
          "logIndex": "0x17",
          "removed": false
        },
        {
          "address": "0xa2703dc9fbaccd6ec2e4cbfa700989d0238133f6",
          "topics": [
            "0xddf252ad1be2c89b69c2b068fc378daa952ba7f163c4a11628f55a4df523b3ef",
            "0x0000000000000000000000000000000000000000000000000000000000000000",
            "0x0000000000000000000000008ee06e608de47ea1b185583aca65e34f2fd79b13"
          ],
          "data": "0x000000000000000000000000000000000000000000000000000000000bed48a0",
          "blockHash": "0xb39ee9702dadb8534b7a76f99a7ee47b2450571bd59bb27bfa9d1043aeb1e063",
          "blockNumber": "0x95a517",
          "blockTimestamp": "0x66f06caa",
          "transactionHash": "0x1015d347434ee78e70f6d24d169dfe105f3c79caf692c42c9aa4ee2753856950",
          "transactionIndex": "0x3",
          "logIndex": "0x18",
          "removed": false
        },
        {
          "address": "0xa2703dc9fbaccd6ec2e4cbfa700989d0238133f6",
          "topics": [
            "0x458f5fa412d0f69b08dd84872b0215675cc67bc1d5b6fd93300a1c3878b86196",
            "0x0000000000000000000000008ee06e608de47ea1b185583aca65e34f2fd79b13",
            "0x0000000000000000000000008ee06e608de47ea1b185583aca65e34f2fd79b13"
          ],
          "data": "0x000000000000000000000000000000000000000000000000000000000bed48a000000000000000000000000000000000000000000000000000000000000000000000000000000000000000000000000000000000036ce400802d682bf190cffe",
          "blockHash": "0xb39ee9702dadb8534b7a76f99a7ee47b2450571bd59bb27bfa9d1043aeb1e063",
          "blockNumber": "0x95a517",
          "blockTimestamp": "0x66f06caa",
          "transactionHash": "0x1015d347434ee78e70f6d24d169dfe105f3c79caf692c42c9aa4ee2753856950",
          "transactionIndex": "0x3",
          "logIndex": "0x19",
          "removed": false
        },
        {
          "address": "0x2f9bb73a8e98793e26cb2f6c4ad037bdf1c6b269",
          "topics": [
            "0x804c9b842b2748a22bb64b345453a3de7ca54a6ca45ce00d415894979e22897a",
            "0x000000000000000000000000176211869ca2b568f2a7d4ee941e073a821ee1ff"
          ],
          "data": "0x00000000000000000000000000000000000000000017d46d0c1064014585d19e0000000000000000000000000000000000000000003512ca1d186f8ff3d57c5000000000000000000000000000000000000000000028aa6a7bfa6da384d57c500000000000000000000000000000000000000000035e818a08e59aa61a1400870000000000000000000000000000000000000000036ce400802d682bf190cffe",
          "blockHash": "0xb39ee9702dadb8534b7a76f99a7ee47b2450571bd59bb27bfa9d1043aeb1e063",
          "blockNumber": "0x95a517",
          "blockTimestamp": "0x66f06caa",
          "transactionHash": "0x1015d347434ee78e70f6d24d169dfe105f3c79caf692c42c9aa4ee2753856950",
          "transactionIndex": "0x3",
          "logIndex": "0x1a",
          "removed": false
        },
        {
          "address": "0x176211869ca2b568f2a7d4ee941e073a821ee1ff",
          "topics": [
            "0xddf252ad1be2c89b69c2b068fc378daa952ba7f163c4a11628f55a4df523b3ef",
            "0x0000000000000000000000002e207eca8b6bf77a6ac82763eeed2a94de4f081d",
            "0x0000000000000000000000008ee06e608de47ea1b185583aca65e34f2fd79b13"
          ],
          "data": "0x000000000000000000000000000000000000000000000000000000000bed48a0",
          "blockHash": "0xb39ee9702dadb8534b7a76f99a7ee47b2450571bd59bb27bfa9d1043aeb1e063",
          "blockNumber": "0x95a517",
          "blockTimestamp": "0x66f06caa",
          "transactionHash": "0x1015d347434ee78e70f6d24d169dfe105f3c79caf692c42c9aa4ee2753856950",
          "transactionIndex": "0x3",
          "logIndex": "0x1b",
          "removed": false
        },
        {
          "address": "0x2f9bb73a8e98793e26cb2f6c4ad037bdf1c6b269",
          "topics": [
            "0xb3d084820fb1a9decffb176436bd02558d15fac9b0ddfed8c465bc7359d7dce0",
            "0x000000000000000000000000176211869ca2b568f2a7d4ee941e073a821ee1ff",
            "0x0000000000000000000000008ee06e608de47ea1b185583aca65e34f2fd79b13",
            "0x0000000000000000000000000000000000000000000000000000000000000000"
          ],
          "data": "0x0000000000000000000000008ee06e608de47ea1b185583aca65e34f2fd79b13000000000000000000000000000000000000000000000000000000000bed48a0000000000000000000000000000000000000000000000000000000000000000200000000000000000000000000000000000000000028aa6a7bfa6da384d57c50",
          "blockHash": "0xb39ee9702dadb8534b7a76f99a7ee47b2450571bd59bb27bfa9d1043aeb1e063",
          "blockNumber": "0x95a517",
          "blockTimestamp": "0x66f06caa",
          "transactionHash": "0x1015d347434ee78e70f6d24d169dfe105f3c79caf692c42c9aa4ee2753856950",
          "transactionIndex": "0x3",
          "logIndex": "0x1c",
          "removed": false
        },
        {
          "address": "0x176211869ca2b568f2a7d4ee941e073a821ee1ff",
          "topics": [
            "0x8c5be1e5ebec7d5bd14f71427d1e84f3dd0314c0f7b2291e5b200ac8c7c3b925",
            "0x0000000000000000000000008ee06e608de47ea1b185583aca65e34f2fd79b13",
            "0x0000000000000000000000002d8879046f1559e53eb052e949e9544bcb72f414"
          ],
          "data": "0x0000000000000000000000000000000000000000000000000000000000000000",
          "blockHash": "0xb39ee9702dadb8534b7a76f99a7ee47b2450571bd59bb27bfa9d1043aeb1e063",
          "blockNumber": "0x95a517",
          "blockTimestamp": "0x66f06caa",
          "transactionHash": "0x1015d347434ee78e70f6d24d169dfe105f3c79caf692c42c9aa4ee2753856950",
          "transactionIndex": "0x3",
          "logIndex": "0x1d",
          "removed": false
        },
        {
          "address": "0xe5d7c2a44ffddf6b295a15c148167daaaf5cf34f",
          "topics": [
            "0x8c5be1e5ebec7d5bd14f71427d1e84f3dd0314c0f7b2291e5b200ac8c7c3b925",
            "0x0000000000000000000000008ee06e608de47ea1b185583aca65e34f2fd79b13",
            "0x0000000000000000000000002f9bb73a8e98793e26cb2f6c4ad037bdf1c6b269"
          ],
          "data": "0x0000000000000000000000000000000000000000000000000000000000000000",
          "blockHash": "0xb39ee9702dadb8534b7a76f99a7ee47b2450571bd59bb27bfa9d1043aeb1e063",
          "blockNumber": "0x95a517",
          "blockTimestamp": "0x66f06caa",
          "transactionHash": "0x1015d347434ee78e70f6d24d169dfe105f3c79caf692c42c9aa4ee2753856950",
          "transactionIndex": "0x3",
          "logIndex": "0x1e",
          "removed": false
        },
        {
          "address": "0x176211869ca2b568f2a7d4ee941e073a821ee1ff",
          "topics": [
            "0x8c5be1e5ebec7d5bd14f71427d1e84f3dd0314c0f7b2291e5b200ac8c7c3b925",
            "0x0000000000000000000000008ee06e608de47ea1b185583aca65e34f2fd79b13",
            "0x0000000000000000000000002f9bb73a8e98793e26cb2f6c4ad037bdf1c6b269"
          ],
          "data": "0x000000000000000000000000000000000000000000000000000000000bed48a0",
          "blockHash": "0xb39ee9702dadb8534b7a76f99a7ee47b2450571bd59bb27bfa9d1043aeb1e063",
          "blockNumber": "0x95a517",
          "blockTimestamp": "0x66f06caa",
          "transactionHash": "0x1015d347434ee78e70f6d24d169dfe105f3c79caf692c42c9aa4ee2753856950",
          "transactionIndex": "0x3",
          "logIndex": "0x1f",
          "removed": false
        },
        {
          "address": "0x2f9bb73a8e98793e26cb2f6c4ad037bdf1c6b269",
          "topics": [
            "0x804c9b842b2748a22bb64b345453a3de7ca54a6ca45ce00d415894979e22897a",
            "0x000000000000000000000000176211869ca2b568f2a7d4ee941e073a821ee1ff"
          ],
          "data": "0x00000000000000000000000000000000000000000017c8ba9a51ad18f1d27fa400000000000000000000000000000000000000000034ff020372f0cb64c2e44a0000000000000000000000000000000000000000002896a26254eedef5c2e44a0000000000000000000000000000000000000000035e818a85bc9afa4b9efdaa0000000000000000000000000000000000000000036ce400802d682bf190cffe",
          "blockHash": "0xb39ee9702dadb8534b7a76f99a7ee47b2450571bd59bb27bfa9d1043aeb1e063",
          "blockNumber": "0x95a517",
          "blockTimestamp": "0x66f06caa",
          "transactionHash": "0x1015d347434ee78e70f6d24d169dfe105f3c79caf692c42c9aa4ee2753856950",
          "transactionIndex": "0x3",
          "logIndex": "0x20",
          "removed": false
        },
        {
          "address": "0x176211869ca2b568f2a7d4ee941e073a821ee1ff",
          "topics": [
            "0xddf252ad1be2c89b69c2b068fc378daa952ba7f163c4a11628f55a4df523b3ef",
            "0x0000000000000000000000008ee06e608de47ea1b185583aca65e34f2fd79b13",
            "0x0000000000000000000000002e207eca8b6bf77a6ac82763eeed2a94de4f081d"
          ],
          "data": "0x000000000000000000000000000000000000000000000000000000000bed48a0",
          "blockHash": "0xb39ee9702dadb8534b7a76f99a7ee47b2450571bd59bb27bfa9d1043aeb1e063",
          "blockNumber": "0x95a517",
          "blockTimestamp": "0x66f06caa",
          "transactionHash": "0x1015d347434ee78e70f6d24d169dfe105f3c79caf692c42c9aa4ee2753856950",
          "transactionIndex": "0x3",
          "logIndex": "0x21",
          "removed": false
        },
        {
          "address": "0x2f9bb73a8e98793e26cb2f6c4ad037bdf1c6b269",
          "topics": [
            "0xefefaba5e921573100900a3ad9cf29f222d995fb3b6045797eaea7521bd8d6f0",
            "0x0000000000000000000000008ee06e608de47ea1b185583aca65e34f2fd79b13",
            "0x000000000000000000000000176211869ca2b568f2a7d4ee941e073a821ee1ff",
            "0x0000000000000000000000000000000000000000000000000000000000000000"
          ],
          "data": "0x0000000000000000000000008ee06e608de47ea1b185583aca65e34f2fd79b13000000000000000000000000000000000000000000000000000000000bebc200000000000000000000000000000000000000000000000000000000000000000000000000000000000000000000000000000000000000000000000000000186a0",
          "blockHash": "0xb39ee9702dadb8534b7a76f99a7ee47b2450571bd59bb27bfa9d1043aeb1e063",
          "blockNumber": "0x95a517",
          "blockTimestamp": "0x66f06caa",
          "transactionHash": "0x1015d347434ee78e70f6d24d169dfe105f3c79caf692c42c9aa4ee2753856950",
          "transactionIndex": "0x3",
          "logIndex": "0x22",
          "removed": false
        }
      ],
      "logsBloom": "0x01000000000009040080000000000000008000004000000000000000000000000800a00120000800000010000004000000100800041020140004010000200000000000200000000800080008020000002040000000000002000000050040000000000002020000000080000120000801844000001000000001000010200c0000000002008000000800100004000000000000000000000000008008040000004002080000020000040000000002000010000000000010080100004000a00001000250000200000120000000204000000000020000a000060000000000000020000010200000008020000000000001000040000000020002000000400000100000",
      "type": "0x2",
      "transactionHash": "0x1015d347434ee78e70f6d24d169dfe105f3c79caf692c42c9aa4ee2753856950",
      "transactionIndex": "0x3",
      "blockHash": "0xb39ee9702dadb8534b7a76f99a7ee47b2450571bd59bb27bfa9d1043aeb1e063",
      "blockNumber": "0x95a517",
      "gasUsed": "0x118ed9",
      "effectiveGasPrice": "0x6a26128",
      "blobGasPrice": "0x1",
      "from": "0xf39fd6e51aad88f6f4ce6ab8827279cfffb92266",
      "to": "0x0b306bf915c4d645ff596e518faf3f9669b97016",
      "contractAddress": null,
      "root": "0x0000000000000000000000000000000000000000000000000000000000000000"
    }
  ],
  "libraries": [],
  "pending": [],
  "returns": {},
  "timestamp": 1727032493,
  "chain": 59144,
  "commit": "a0c2ae3"
}