{
  "transactions": [
    {
      "hash": "0x8753a850dac494f3a368a54b79b2a097fdea8786e48fb34d1f4953a949256dc9",
      "transactionType": "CALL",
      "contractName": null,
      "contractAddress": "0xe5d7c2a44ffddf6b295a15c148167daaaf5cf34f",
      "function": "approve(address,uint256)",
      "arguments": [
        "0x0B306BF915C4d645ff596e518fAf3F9669b97016",
        "115792089237316195423570985008687907853269984665640564039457584007913129639935"
      ],
      "transaction": {
        "from": "0xf39fd6e51aad88f6f4ce6ab8827279cfffb92266",
        "to": "0xe5d7c2a44ffddf6b295a15c148167daaaf5cf34f",
        "gas": "0xfa27",
        "value": "0x0",
        "input": "0x095ea7b30000000000000000000000000b306bf915c4d645ff596e518faf3f9669b97016ffffffffffffffffffffffffffffffffffffffffffffffffffffffffffffffff",
        "nonce": "0x23",
        "chainId": "0xe708"
      },
      "additionalContracts": [],
      "isFixedGasLimit": false
    },
    {
      "hash": "0x73c896ef759197893c9595ecdb773d0685658941b445aeaba1d6c01be06fee1b",
      "transactionType": "CALL",
      "contractName": null,
      "contractAddress": "0x176211869ca2b568f2a7d4ee941e073a821ee1ff",
      "function": "approve(address,uint256)",
      "arguments": [
        "0x0B306BF915C4d645ff596e518fAf3F9669b97016",
        "115792089237316195423570985008687907853269984665640564039457584007913129639935"
      ],
      "transaction": {
        "from": "0xf39fd6e51aad88f6f4ce6ab8827279cfffb92266",
        "to": "0x176211869ca2b568f2a7d4ee941e073a821ee1ff",
        "gas": "0xe62b",
        "value": "0x0",
        "input": "0x095ea7b30000000000000000000000000b306bf915c4d645ff596e518faf3f9669b97016ffffffffffffffffffffffffffffffffffffffffffffffffffffffffffffffff",
        "nonce": "0x24",
        "chainId": "0xe708"
      },
      "additionalContracts": [],
      "isFixedGasLimit": false
    },
    {
      "hash": "0x571efc27f7d8d9211e0355f6a4cbba2371583e12f2a7a005faeca4c70591f5d3",
      "transactionType": "CALL",
      "contractName": null,
      "contractAddress": "0x0b306bf915c4d645ff596e518faf3f9669b97016",
      "function": "createAndAddToPosition((string,address,address),(uint256,uint256,bytes))",
      "arguments": [
        "(\"SHORT_QUOTE_ODOS_ZEROLEND\", 0x176211869cA2b568f2A7D4EE941E073a821EE1ff, 0xe5D7C2a44FfDDf6b295A15c148167daaAf5Cf34f)",
        "(100000000, 82322645809123232, 0x83bd37f90001e5d7c2a44ffddf6b295a15c148167daaaf5cf34f0001176211869ca2b568f2a7d4ee941e073a821ee1ff08012478029c6c4f9e040be9e955028f5c000156c85a254dd12ee8d9c04049a4ab62769ce98210000000019d1794bab9664c755ed74a7d44f3da02a5613df40000000003010203000a0101010200ff0000000000000000000000000000000000000000007077f0cff76077d0ebb335b607db574400510557e5d7c2a44ffddf6b295a15c148167daaaf5cf34f000000000000000000000000000000000000000000000000)"
      ],
      "transaction": {
        "from": "0xf39fd6e51aad88f6f4ce6ab8827279cfffb92266",
        "to": "0x0b306bf915c4d645ff596e518faf3f9669b97016",
        "gas": "0x1844ec",
        "value": "0x0",
        "input": "0x211d9b04000000000000000000000000000000000000000000000000000000000000004000000000000000000000000000000000000000000000000000000000000000e00000000000000000000000000000000000000000000000000000000000000060000000000000000000000000176211869ca2b568f2a7d4ee941e073a821ee1ff000000000000000000000000e5d7c2a44ffddf6b295a15c148167daaaf5cf34f000000000000000000000000000000000000000000000000000000000000001953484f52545f51554f54455f4f444f535f5a45524f4c454e44000000000000000000000000000000000000000000000000000000000000000000000005f5e100000000000000000000000000000000000000000000000000012478029c6c4fa0000000000000000000000000000000000000000000000000000000000000006000000000000000000000000000000000000000000000000000000000000000d483bd37f90001e5d7c2a44ffddf6b295a15c148167daaaf5cf34f0001176211869ca2b568f2a7d4ee941e073a821ee1ff08012478029c6c4f9e040be9e955028f5c000156c85a254dd12ee8d9c04049a4ab62769ce98210000000019d1794bab9664c755ed74a7d44f3da02a5613df40000000003010203000a0101010200ff0000000000000000000000000000000000000000007077f0cff76077d0ebb335b607db574400510557e5d7c2a44ffddf6b295a15c148167daaaf5cf34f000000000000000000000000000000000000000000000000000000000000000000000000",
        "nonce": "0x25",
        "chainId": "0xe708"
      },
      "additionalContracts": [
        {
          "transactionType": "CREATE2",
          "address": "0x9d1794bab9664c755ed74a7d44f3da02a5613df4",
          "initCode": "0x60a060405234801561001057600080fd5b506040516101d43803806101d483398101604081905261002f9161009a565b6001600160a01b0381166100895760405162461bcd60e51b815260206004820152601e60248201527f496e76616c696420696d706c656d656e746174696f6e20616464726573730000604482015260640160405180910390fd5b6001600160a01b03166080526100ca565b6000602082840312156100ac57600080fd5b81516001600160a01b03811681146100c357600080fd5b9392505050565b60805160ec6100e860003960008181602001526055015260ec6000f3fe608060405260043610601c5760003560e01c80635c60da1b146045575b60437f00000000000000000000000000000000000000000000000000000000000000006093565b005b348015605057600080fd5b5060777f000000000000000000000000000000000000000000000000000000000000000081565b6040516001600160a01b03909116815260200160405180910390f35b3660008037600080366000845af43d6000803e80801560b1573d6000f35b3d6000fdfea2646970667358221220f6020ed423ab8c3633806cc507ff73ce07ea9bade45f63874f1be7c04b23516364736f6c634300081a0033000000000000000000000000c6e7df5e7b4f2a278906862b61205850344d4e7d"
        }
      ],
      "isFixedGasLimit": false
    }
  ],
  "receipts": [
    {
      "status": "0x1",
      "cumulativeGasUsed": "0xb51c",
      "logs": [
        {
          "address": "0xe5d7c2a44ffddf6b295a15c148167daaaf5cf34f",
          "topics": [
            "0x8c5be1e5ebec7d5bd14f71427d1e84f3dd0314c0f7b2291e5b200ac8c7c3b925",
            "0x000000000000000000000000f39fd6e51aad88f6f4ce6ab8827279cfffb92266",
            "0x0000000000000000000000000b306bf915c4d645ff596e518faf3f9669b97016"
          ],
          "data": "0xffffffffffffffffffffffffffffffffffffffffffffffffffffffffffffffff",
          "blockHash": "0x7ecd122d9202ad49002c62a75ce505d71e914bb74495d29394f45bd3bd8a68b3",
          "blockNumber": "0x8ff092",
          "blockTimestamp": "0x66e4f993",
          "transactionHash": "0x8753a850dac494f3a368a54b79b2a097fdea8786e48fb34d1f4953a949256dc9",
          "transactionIndex": "0x0",
          "logIndex": "0x0",
          "removed": false
        }
      ],
      "logsBloom": "0x0000000000000000000000000000000800000000000000000000000000000000000000000000000000000000000000000000000000000000000000000020000000000000000000000000000000000000000000000000000000000000000000000000000000000000000000030000000000000000000000000000000000000000000000000000000000100000000000000000000000000000000000000000000002000000000000000000000000000000000000000000000000000000200000000000000000000020000000000000000000000000a000000000000000000000000010000000000000000000000400000000000000000000000000000000000000",
      "type": "0x2",
      "transactionHash": "0x8753a850dac494f3a368a54b79b2a097fdea8786e48fb34d1f4953a949256dc9",
      "transactionIndex": "0x0",
      "blockHash": "0x7ecd122d9202ad49002c62a75ce505d71e914bb74495d29394f45bd3bd8a68b3",
      "blockNumber": "0x8ff092",
      "gasUsed": "0xb51c",
      "effectiveGasPrice": "0x3938707",
      "blobGasPrice": "0x1",
      "from": "0xf39fd6e51aad88f6f4ce6ab8827279cfffb92266",
      "to": "0xe5d7c2a44ffddf6b295a15c148167daaaf5cf34f",
      "contractAddress": null,
      "root": "0x0000000000000000000000000000000000000000000000000000000000000000"
    },
    {
      "status": "0x1",
      "cumulativeGasUsed": "0x9d62",
      "logs": [
        {
          "address": "0x176211869ca2b568f2a7d4ee941e073a821ee1ff",
          "topics": [
            "0x8c5be1e5ebec7d5bd14f71427d1e84f3dd0314c0f7b2291e5b200ac8c7c3b925",
            "0x000000000000000000000000f39fd6e51aad88f6f4ce6ab8827279cfffb92266",
            "0x0000000000000000000000000b306bf915c4d645ff596e518faf3f9669b97016"
          ],
          "data": "0xffffffffffffffffffffffffffffffffffffffffffffffffffffffffffffffff",
          "blockHash": "0x7ef4497e5aac1037487002dc4c0ee0af8482815810ea59f86bc96dccbfdd8d26",
          "blockNumber": "0x8ff093",
          "blockTimestamp": "0x66e4f994",
          "transactionHash": "0x73c896ef759197893c9595ecdb773d0685658941b445aeaba1d6c01be06fee1b",
          "transactionIndex": "0x0",
          "logIndex": "0x0",
          "removed": false
        }
      ],
      "logsBloom": "0x00000000000000000000000000000008000000000000000000000000000000000000000000000000000000000000000000000800000000000004000000200000000000000000000000000000020000000000000000000000000000000000000000000000000000000000000300000000000000000000000000000000000000000000000000000000000000000000000000000000000000000000000000000000020000000000000000000000000000000000000000000000000000000000000000000000000000200000000000000000000000002000000000000000000000000010000000000000000000000400000000000000000000000000000000000000",
      "type": "0x2",
      "transactionHash": "0x73c896ef759197893c9595ecdb773d0685658941b445aeaba1d6c01be06fee1b",
      "transactionIndex": "0x0",
      "blockHash": "0x7ef4497e5aac1037487002dc4c0ee0af8482815810ea59f86bc96dccbfdd8d26",
      "blockNumber": "0x8ff093",
      "gasUsed": "0x9d62",
      "effectiveGasPrice": "0x3938707",
      "blobGasPrice": "0x1",
      "from": "0xf39fd6e51aad88f6f4ce6ab8827279cfffb92266",
      "to": "0x176211869ca2b568f2a7d4ee941e073a821ee1ff",
      "contractAddress": null,
      "root": "0x0000000000000000000000000000000000000000000000000000000000000000"
    },
    {
      "status": "0x1",
      "cumulativeGasUsed": "0x124682",
      "logs": [
        {
          "address": "0x9a9f2ccfde556a7e9ff0848998aa4a0cfd8863ae",
          "topics": [
            "0xddf252ad1be2c89b69c2b068fc378daa952ba7f163c4a11628f55a4df523b3ef",
            "0x0000000000000000000000000000000000000000000000000000000000000000",
            "0x000000000000000000000000f39fd6e51aad88f6f4ce6ab8827279cfffb92266",
            "0x0000000000000000000000000000000000000000000000000000000000000000"
          ],
          "data": "0x",
          "blockHash": "0x7ef4497e5aac1037487002dc4c0ee0af8482815810ea59f86bc96dccbfdd8d26",
          "blockNumber": "0x8ff093",
          "blockTimestamp": "0x66e4f994",
          "transactionHash": "0x571efc27f7d8d9211e0355f6a4cbba2371583e12f2a7a005faeca4c70591f5d3",
          "transactionIndex": "0x1",
          "logIndex": "0x1",
          "removed": false
        },
        {
          "address": "0x176211869ca2b568f2a7d4ee941e073a821ee1ff",
          "topics": [
            "0xddf252ad1be2c89b69c2b068fc378daa952ba7f163c4a11628f55a4df523b3ef",
            "0x000000000000000000000000f39fd6e51aad88f6f4ce6ab8827279cfffb92266",
            "0x0000000000000000000000009d1794bab9664c755ed74a7d44f3da02a5613df4"
          ],
          "data": "0x0000000000000000000000000000000000000000000000000000000005f5e100",
          "blockHash": "0x7ef4497e5aac1037487002dc4c0ee0af8482815810ea59f86bc96dccbfdd8d26",
          "blockNumber": "0x8ff093",
          "blockTimestamp": "0x66e4f994",
          "transactionHash": "0x571efc27f7d8d9211e0355f6a4cbba2371583e12f2a7a005faeca4c70591f5d3",
          "transactionIndex": "0x1",
          "logIndex": "0x2",
          "removed": false
        },
        {
          "address": "0xe5d7c2a44ffddf6b295a15c148167daaaf5cf34f",
          "topics": [
            "0xddf252ad1be2c89b69c2b068fc378daa952ba7f163c4a11628f55a4df523b3ef",
            "0x000000000000000000000000b4ffef15daf4c02787bc5332580b838ce39805f5",
            "0x0000000000000000000000009d1794bab9664c755ed74a7d44f3da02a5613df4"
          ],
          "data": "0x000000000000000000000000000000000000000000000000012478029c6c4fa0",
          "blockHash": "0x7ef4497e5aac1037487002dc4c0ee0af8482815810ea59f86bc96dccbfdd8d26",
          "blockNumber": "0x8ff093",
          "blockTimestamp": "0x66e4f994",
          "transactionHash": "0x571efc27f7d8d9211e0355f6a4cbba2371583e12f2a7a005faeca4c70591f5d3",
          "transactionIndex": "0x1",
          "logIndex": "0x3",
          "removed": false
        },
        {
          "address": "0xe5d7c2a44ffddf6b295a15c148167daaaf5cf34f",
          "topics": [
            "0x8c5be1e5ebec7d5bd14f71427d1e84f3dd0314c0f7b2291e5b200ac8c7c3b925",
            "0x0000000000000000000000009d1794bab9664c755ed74a7d44f3da02a5613df4",
            "0x0000000000000000000000002d8879046f1559e53eb052e949e9544bcb72f414"
          ],
          "data": "0x000000000000000000000000000000000000000000000000012478029c6c4fa0",
          "blockHash": "0x7ef4497e5aac1037487002dc4c0ee0af8482815810ea59f86bc96dccbfdd8d26",
          "blockNumber": "0x8ff093",
          "blockTimestamp": "0x66e4f994",
          "transactionHash": "0x571efc27f7d8d9211e0355f6a4cbba2371583e12f2a7a005faeca4c70591f5d3",
          "transactionIndex": "0x1",
          "logIndex": "0x4",
          "removed": false
        },
        {
          "address": "0xe5d7c2a44ffddf6b295a15c148167daaaf5cf34f",
          "topics": [
            "0xddf252ad1be2c89b69c2b068fc378daa952ba7f163c4a11628f55a4df523b3ef",
            "0x0000000000000000000000009d1794bab9664c755ed74a7d44f3da02a5613df4",
            "0x00000000000000000000000056c85a254dd12ee8d9c04049a4ab62769ce98210"
          ],
          "data": "0x000000000000000000000000000000000000000000000000012478029c6c4f9e",
          "blockHash": "0x7ef4497e5aac1037487002dc4c0ee0af8482815810ea59f86bc96dccbfdd8d26",
          "blockNumber": "0x8ff093",
          "blockTimestamp": "0x66e4f994",
          "transactionHash": "0x571efc27f7d8d9211e0355f6a4cbba2371583e12f2a7a005faeca4c70591f5d3",
          "transactionIndex": "0x1",
          "logIndex": "0x5",
          "removed": false
        },
        {
          "address": "0x176211869ca2b568f2a7d4ee941e073a821ee1ff",
          "topics": [
            "0xddf252ad1be2c89b69c2b068fc378daa952ba7f163c4a11628f55a4df523b3ef",
            "0x0000000000000000000000007077f0cff76077d0ebb335b607db574400510557",
            "0x0000000000000000000000002d8879046f1559e53eb052e949e9544bcb72f414"
          ],
          "data": "0x000000000000000000000000000000000000000000000000000000000be7bcce",
          "blockHash": "0x7ef4497e5aac1037487002dc4c0ee0af8482815810ea59f86bc96dccbfdd8d26",
          "blockNumber": "0x8ff093",
          "blockTimestamp": "0x66e4f994",
          "transactionHash": "0x571efc27f7d8d9211e0355f6a4cbba2371583e12f2a7a005faeca4c70591f5d3",
          "transactionIndex": "0x1",
          "logIndex": "0x6",
          "removed": false
        },
        {
          "address": "0xe5d7c2a44ffddf6b295a15c148167daaaf5cf34f",
          "topics": [
            "0xddf252ad1be2c89b69c2b068fc378daa952ba7f163c4a11628f55a4df523b3ef",
            "0x00000000000000000000000056c85a254dd12ee8d9c04049a4ab62769ce98210",
            "0x0000000000000000000000007077f0cff76077d0ebb335b607db574400510557"
          ],
          "data": "0x000000000000000000000000000000000000000000000000012478029c6c4f9e",
          "blockHash": "0x7ef4497e5aac1037487002dc4c0ee0af8482815810ea59f86bc96dccbfdd8d26",
          "blockNumber": "0x8ff093",
          "blockTimestamp": "0x66e4f994",
          "transactionHash": "0x571efc27f7d8d9211e0355f6a4cbba2371583e12f2a7a005faeca4c70591f5d3",
          "transactionIndex": "0x1",
          "logIndex": "0x7",
          "removed": false
        },
        {
          "address": "0x7077f0cff76077d0ebb335b607db574400510557",
          "topics": [
            "0xc42079f94a6350d7e6235f29174924f928cc2ac818eb64fed8004e115fbcca67",
            "0x00000000000000000000000056c85a254dd12ee8d9c04049a4ab62769ce98210",
            "0x0000000000000000000000002d8879046f1559e53eb052e949e9544bcb72f414"
          ],
          "data": "0xfffffffffffffffffffffffffffffffffffffffffffffffffffffffff4184332000000000000000000000000000000000000000000000000012478029c6c4f9e0000000000000000000000000000000000004f4a488b0d71dd4086c049c535170000000000000000000000000000000000000000000000000054879b86f45eab00000000000000000000000000000000000000000000000000000000000306e7",
          "blockHash": "0x7ef4497e5aac1037487002dc4c0ee0af8482815810ea59f86bc96dccbfdd8d26",
          "blockNumber": "0x8ff093",
          "blockTimestamp": "0x66e4f994",
          "transactionHash": "0x571efc27f7d8d9211e0355f6a4cbba2371583e12f2a7a005faeca4c70591f5d3",
          "transactionIndex": "0x1",
          "logIndex": "0x8",
          "removed": false
        },
        {
          "address": "0x176211869ca2b568f2a7d4ee941e073a821ee1ff",
          "topics": [
            "0xddf252ad1be2c89b69c2b068fc378daa952ba7f163c4a11628f55a4df523b3ef",
            "0x0000000000000000000000002d8879046f1559e53eb052e949e9544bcb72f414",
            "0x0000000000000000000000009d1794bab9664c755ed74a7d44f3da02a5613df4"
          ],
          "data": "0x000000000000000000000000000000000000000000000000000000000be7bcce",
          "blockHash": "0x7ef4497e5aac1037487002dc4c0ee0af8482815810ea59f86bc96dccbfdd8d26",
          "blockNumber": "0x8ff093",
          "blockTimestamp": "0x66e4f994",
          "transactionHash": "0x571efc27f7d8d9211e0355f6a4cbba2371583e12f2a7a005faeca4c70591f5d3",
          "transactionIndex": "0x1",
          "logIndex": "0x9",
          "removed": false
        },
        {
          "address": "0x2d8879046f1559e53eb052e949e9544bcb72f414",
          "topics": [
            "0x823eaf01002d7353fbcadb2ea3305cc46fa35d799cb0914846d185ac06f8ad05"
          ],
          "data": "0x0000000000000000000000009d1794bab9664c755ed74a7d44f3da02a5613df4000000000000000000000000000000000000000000000000012478029c6c4f9e000000000000000000000000e5d7c2a44ffddf6b295a15c148167daaaf5cf34f000000000000000000000000000000000000000000000000000000000be7bcce000000000000000000000000176211869ca2b568f2a7d4ee941e073a821ee1fffffffffffffffffffffffffffffffffffffffffffffffffffffffffffffdd3790000000000000000000000000000000000000000000000000000000000000000",
          "blockHash": "0x7ef4497e5aac1037487002dc4c0ee0af8482815810ea59f86bc96dccbfdd8d26",
          "blockNumber": "0x8ff093",
          "blockTimestamp": "0x66e4f994",
          "transactionHash": "0x571efc27f7d8d9211e0355f6a4cbba2371583e12f2a7a005faeca4c70591f5d3",
          "transactionIndex": "0x1",
          "logIndex": "0xa",
          "removed": false
        },
        {
          "address": "0x176211869ca2b568f2a7d4ee941e073a821ee1ff",
          "topics": [
            "0x8c5be1e5ebec7d5bd14f71427d1e84f3dd0314c0f7b2291e5b200ac8c7c3b925",
            "0x0000000000000000000000009d1794bab9664c755ed74a7d44f3da02a5613df4",
            "0x0000000000000000000000002f9bb73a8e98793e26cb2f6c4ad037bdf1c6b269"
          ],
          "data": "0x0000000000000000000000000000000000000000000000000000000011dd9dce",
          "blockHash": "0x7ef4497e5aac1037487002dc4c0ee0af8482815810ea59f86bc96dccbfdd8d26",
          "blockNumber": "0x8ff093",
          "blockTimestamp": "0x66e4f994",
          "transactionHash": "0x571efc27f7d8d9211e0355f6a4cbba2371583e12f2a7a005faeca4c70591f5d3",
          "transactionIndex": "0x1",
          "logIndex": "0xb",
          "removed": false
        },
        {
          "address": "0x2f9bb73a8e98793e26cb2f6c4ad037bdf1c6b269",
          "topics": [
            "0x804c9b842b2748a22bb64b345453a3de7ca54a6ca45ce00d415894979e22897a",
            "0x000000000000000000000000176211869ca2b568f2a7d4ee941e073a821ee1ff"
          ],
          "data": "0x00000000000000000000000000000000000000000011a05171ab20ff21b9fde70000000000000000000000000000000000000000002d4e49218822fff1bf164e0000000000000000000000000000000000000000001f92fd9920e4b3fdf8b2680000000000000000000000000000000000000000035ddacd728ae9231d5ac88d0000000000000000000000000000000000000000036bc284a4020ef80a404bcd",
          "blockHash": "0x7ef4497e5aac1037487002dc4c0ee0af8482815810ea59f86bc96dccbfdd8d26",
          "blockNumber": "0x8ff093",
          "blockTimestamp": "0x66e4f994",
          "transactionHash": "0x571efc27f7d8d9211e0355f6a4cbba2371583e12f2a7a005faeca4c70591f5d3",
          "transactionIndex": "0x1",
          "logIndex": "0xc",
          "removed": false
        },
        {
          "address": "0x176211869ca2b568f2a7d4ee941e073a821ee1ff",
          "topics": [
            "0xddf252ad1be2c89b69c2b068fc378daa952ba7f163c4a11628f55a4df523b3ef",
            "0x0000000000000000000000009d1794bab9664c755ed74a7d44f3da02a5613df4",
            "0x0000000000000000000000002e207eca8b6bf77a6ac82763eeed2a94de4f081d"
          ],
          "data": "0x0000000000000000000000000000000000000000000000000000000011dd9dce",
          "blockHash": "0x7ef4497e5aac1037487002dc4c0ee0af8482815810ea59f86bc96dccbfdd8d26",
          "blockNumber": "0x8ff093",
          "blockTimestamp": "0x66e4f994",
          "transactionHash": "0x571efc27f7d8d9211e0355f6a4cbba2371583e12f2a7a005faeca4c70591f5d3",
          "transactionIndex": "0x1",
          "logIndex": "0xd",
          "removed": false
        },
        {
          "address": "0x28f6899ff643261ca9766ddc251b359a2d00b945",
          "topics": [
            "0x3303facd24627943a92e9dc87cfbb34b15c49b726eec3ad3487c16be9ab8efe8",
            "0x0000000000000000000000002e207eca8b6bf77a6ac82763eeed2a94de4f081d",
            "0x00000000000000000000000040a59a3f3b16d9e74c811d24d8b7969664cfe180",
            "0x0000000000000000000000009d1794bab9664c755ed74a7d44f3da02a5613df4"
          ],
          "data": "0x0000000000000000000000000000000000000000000000040755b053b796c7ed0000000000000000000000000000000000000000000000040755b053b796c7ed0000000000000000000000000000000000000000000000000000000000000000",
          "blockHash": "0x7ef4497e5aac1037487002dc4c0ee0af8482815810ea59f86bc96dccbfdd8d26",
          "blockNumber": "0x8ff093",
          "blockTimestamp": "0x66e4f994",
          "transactionHash": "0x571efc27f7d8d9211e0355f6a4cbba2371583e12f2a7a005faeca4c70591f5d3",
          "transactionIndex": "0x1",
          "logIndex": "0xe",
          "removed": false
        },
        {
          "address": "0x28f6899ff643261ca9766ddc251b359a2d00b945",
          "topics": [
            "0x3303facd24627943a92e9dc87cfbb34b15c49b726eec3ad3487c16be9ab8efe8",
            "0x0000000000000000000000002e207eca8b6bf77a6ac82763eeed2a94de4f081d",
            "0x00000000000000000000000078354f8dccb269a615a7e0a24f9b0718fdc3c7a7",
            "0x0000000000000000000000009d1794bab9664c755ed74a7d44f3da02a5613df4"
          ],
          "data": "0x0000000000000000000000000000000000000000000000005f246ca31d6cd6a20000000000000000000000000000000000000000000000005f246ca31d6cd6a20000000000000000000000000000000000000000000000000000000000000000",
          "blockHash": "0x7ef4497e5aac1037487002dc4c0ee0af8482815810ea59f86bc96dccbfdd8d26",
          "blockNumber": "0x8ff093",
          "blockTimestamp": "0x66e4f994",
          "transactionHash": "0x571efc27f7d8d9211e0355f6a4cbba2371583e12f2a7a005faeca4c70591f5d3",
          "transactionIndex": "0x1",
          "logIndex": "0xf",
          "removed": false
        },
        {
          "address": "0x2e207eca8b6bf77a6ac82763eeed2a94de4f081d",
          "topics": [
            "0xddf252ad1be2c89b69c2b068fc378daa952ba7f163c4a11628f55a4df523b3ef",
            "0x0000000000000000000000000000000000000000000000000000000000000000",
            "0x0000000000000000000000009d1794bab9664c755ed74a7d44f3da02a5613df4"
          ],
          "data": "0x0000000000000000000000000000000000000000000000000000000011dd9dce",
          "blockHash": "0x7ef4497e5aac1037487002dc4c0ee0af8482815810ea59f86bc96dccbfdd8d26",
          "blockNumber": "0x8ff093",
          "blockTimestamp": "0x66e4f994",
          "transactionHash": "0x571efc27f7d8d9211e0355f6a4cbba2371583e12f2a7a005faeca4c70591f5d3",
          "transactionIndex": "0x1",
          "logIndex": "0x10",
          "removed": false
        },
        {
          "address": "0x2e207eca8b6bf77a6ac82763eeed2a94de4f081d",
          "topics": [
            "0x458f5fa412d0f69b08dd84872b0215675cc67bc1d5b6fd93300a1c3878b86196",
            "0x0000000000000000000000009d1794bab9664c755ed74a7d44f3da02a5613df4",
            "0x0000000000000000000000009d1794bab9664c755ed74a7d44f3da02a5613df4"
          ],
          "data": "0x0000000000000000000000000000000000000000000000000000000011dd9dce00000000000000000000000000000000000000000000000000000000000000000000000000000000000000000000000000000000035ddacd728ae9231d5ac88d",
          "blockHash": "0x7ef4497e5aac1037487002dc4c0ee0af8482815810ea59f86bc96dccbfdd8d26",
          "blockNumber": "0x8ff093",
          "blockTimestamp": "0x66e4f994",
          "transactionHash": "0x571efc27f7d8d9211e0355f6a4cbba2371583e12f2a7a005faeca4c70591f5d3",
          "transactionIndex": "0x1",
          "logIndex": "0x11",
          "removed": false
        },
        {
          "address": "0x2f9bb73a8e98793e26cb2f6c4ad037bdf1c6b269",
          "topics": [
            "0x00058a56ea94653cdf4f152d227ace22d4c00ad99e2a43f58cb7d9e3feb295f2",
            "0x000000000000000000000000176211869ca2b568f2a7d4ee941e073a821ee1ff",
            "0x0000000000000000000000009d1794bab9664c755ed74a7d44f3da02a5613df4"
          ],
          "data": "0x",
          "blockHash": "0x7ef4497e5aac1037487002dc4c0ee0af8482815810ea59f86bc96dccbfdd8d26",
          "blockNumber": "0x8ff093",
          "blockTimestamp": "0x66e4f994",
          "transactionHash": "0x571efc27f7d8d9211e0355f6a4cbba2371583e12f2a7a005faeca4c70591f5d3",
          "transactionIndex": "0x1",
          "logIndex": "0x12",
          "removed": false
        },
        {
          "address": "0x2f9bb73a8e98793e26cb2f6c4ad037bdf1c6b269",
          "topics": [
            "0x2b627736bca15cd5381dcf80b0bf11fd197d01a037c52b927a881a10fb73ba61",
            "0x000000000000000000000000176211869ca2b568f2a7d4ee941e073a821ee1ff",
            "0x0000000000000000000000009d1794bab9664c755ed74a7d44f3da02a5613df4",
            "0x0000000000000000000000000000000000000000000000000000000000000000"
          ],
          "data": "0x0000000000000000000000009d1794bab9664c755ed74a7d44f3da02a5613df40000000000000000000000000000000000000000000000000000000011dd9dce",
          "blockHash": "0x7ef4497e5aac1037487002dc4c0ee0af8482815810ea59f86bc96dccbfdd8d26",
          "blockNumber": "0x8ff093",
          "blockTimestamp": "0x66e4f994",
          "transactionHash": "0x571efc27f7d8d9211e0355f6a4cbba2371583e12f2a7a005faeca4c70591f5d3",
          "transactionIndex": "0x1",
          "logIndex": "0x13",
          "removed": false
        },
        {
          "address": "0x28f6899ff643261ca9766ddc251b359a2d00b945",
          "topics": [
            "0x3303facd24627943a92e9dc87cfbb34b15c49b726eec3ad3487c16be9ab8efe8",
            "0x000000000000000000000000cb2da0f5aece616e2cbf29576cfc795fb15c6133",
            "0x00000000000000000000000040a59a3f3b16d9e74c811d24d8b7969664cfe180",
            "0x0000000000000000000000009d1794bab9664c755ed74a7d44f3da02a5613df4"
          ],
          "data": "0x00000000000000000000000000000000000000000000b9f3a432553e843c8a7900000000000000000000000000000000000000000000b9f3a432553e843c8a790000000000000000000000000000000000000000000000000000000000000000",
          "blockHash": "0x7ef4497e5aac1037487002dc4c0ee0af8482815810ea59f86bc96dccbfdd8d26",
          "blockNumber": "0x8ff093",
          "blockTimestamp": "0x66e4f994",
          "transactionHash": "0x571efc27f7d8d9211e0355f6a4cbba2371583e12f2a7a005faeca4c70591f5d3",
          "transactionIndex": "0x1",
          "logIndex": "0x14",
          "removed": false
        },
        {
          "address": "0x28f6899ff643261ca9766ddc251b359a2d00b945",
          "topics": [
            "0x3303facd24627943a92e9dc87cfbb34b15c49b726eec3ad3487c16be9ab8efe8",
            "0x000000000000000000000000cb2da0f5aece616e2cbf29576cfc795fb15c6133",
            "0x00000000000000000000000078354f8dccb269a615a7e0a24f9b0718fdc3c7a7",
            "0x0000000000000000000000009d1794bab9664c755ed74a7d44f3da02a5613df4"
          ],
          "data": "0x000000000000000000000000000000000000000000000e0e73d66680e1278031000000000000000000000000000000000000000000000e0e73d66680e12780310000000000000000000000000000000000000000000000000000000000000000",
          "blockHash": "0x7ef4497e5aac1037487002dc4c0ee0af8482815810ea59f86bc96dccbfdd8d26",
          "blockNumber": "0x8ff093",
          "blockTimestamp": "0x66e4f994",
          "transactionHash": "0x571efc27f7d8d9211e0355f6a4cbba2371583e12f2a7a005faeca4c70591f5d3",
          "transactionIndex": "0x1",
          "logIndex": "0x15",
          "removed": false
        },
        {
          "address": "0xcb2da0f5aece616e2cbf29576cfc795fb15c6133",
          "topics": [
            "0xddf252ad1be2c89b69c2b068fc378daa952ba7f163c4a11628f55a4df523b3ef",
            "0x0000000000000000000000000000000000000000000000000000000000000000",
            "0x0000000000000000000000009d1794bab9664c755ed74a7d44f3da02a5613df4"
          ],
          "data": "0x00000000000000000000000000000000000000000000000001249d723a740b92",
          "blockHash": "0x7ef4497e5aac1037487002dc4c0ee0af8482815810ea59f86bc96dccbfdd8d26",
          "blockNumber": "0x8ff093",
          "blockTimestamp": "0x66e4f994",
          "transactionHash": "0x571efc27f7d8d9211e0355f6a4cbba2371583e12f2a7a005faeca4c70591f5d3",
          "transactionIndex": "0x1",
          "logIndex": "0x16",
          "removed": false
        },
        {
          "address": "0xcb2da0f5aece616e2cbf29576cfc795fb15c6133",
          "topics": [
            "0x458f5fa412d0f69b08dd84872b0215675cc67bc1d5b6fd93300a1c3878b86196",
            "0x0000000000000000000000009d1794bab9664c755ed74a7d44f3da02a5613df4",
            "0x0000000000000000000000009d1794bab9664c755ed74a7d44f3da02a5613df4"
          ],
          "data": "0x00000000000000000000000000000000000000000000000001249d723a740b9200000000000000000000000000000000000000000000000000000000000000000000000000000000000000000000000000000000035f5711de64ce7eea733388",
          "blockHash": "0x7ef4497e5aac1037487002dc4c0ee0af8482815810ea59f86bc96dccbfdd8d26",
          "blockNumber": "0x8ff093",
          "blockTimestamp": "0x66e4f994",
          "transactionHash": "0x571efc27f7d8d9211e0355f6a4cbba2371583e12f2a7a005faeca4c70591f5d3",
          "transactionIndex": "0x1",
          "logIndex": "0x17",
          "removed": false
        },
        {
          "address": "0x2f9bb73a8e98793e26cb2f6c4ad037bdf1c6b269",
          "topics": [
            "0x804c9b842b2748a22bb64b345453a3de7ca54a6ca45ce00d415894979e22897a",
            "0x000000000000000000000000e5d7c2a44ffddf6b295a15c148167daaaf5cf34f"
          ],
          "data": "0x0000000000000000000000000000000000000000000b70480bf55db52a67df640000000000000000000000000000000000000000002cbb37d6b74b1552a0ae9e0000000000000000000000000000000000000000001afa73429a255f050574f000000000000000000000000000000000000000000352afdc8cc41b8cae3ea64b0000000000000000000000000000000000000000035f5711de64ce7eea733388",
          "blockHash": "0x7ef4497e5aac1037487002dc4c0ee0af8482815810ea59f86bc96dccbfdd8d26",
          "blockNumber": "0x8ff093",
          "blockTimestamp": "0x66e4f994",
          "transactionHash": "0x571efc27f7d8d9211e0355f6a4cbba2371583e12f2a7a005faeca4c70591f5d3",
          "transactionIndex": "0x1",
          "logIndex": "0x18",
          "removed": false
        },
        {
          "address": "0xe5d7c2a44ffddf6b295a15c148167daaaf5cf34f",
          "topics": [
            "0xddf252ad1be2c89b69c2b068fc378daa952ba7f163c4a11628f55a4df523b3ef",
            "0x000000000000000000000000b4ffef15daf4c02787bc5332580b838ce39805f5",
            "0x0000000000000000000000009d1794bab9664c755ed74a7d44f3da02a5613df4"
          ],
          "data": "0x00000000000000000000000000000000000000000000000001249d723a740b92",
          "blockHash": "0x7ef4497e5aac1037487002dc4c0ee0af8482815810ea59f86bc96dccbfdd8d26",
          "blockNumber": "0x8ff093",
          "blockTimestamp": "0x66e4f994",
          "transactionHash": "0x571efc27f7d8d9211e0355f6a4cbba2371583e12f2a7a005faeca4c70591f5d3",
          "transactionIndex": "0x1",
          "logIndex": "0x19",
          "removed": false
        },
        {
          "address": "0x2f9bb73a8e98793e26cb2f6c4ad037bdf1c6b269",
          "topics": [
            "0xb3d084820fb1a9decffb176436bd02558d15fac9b0ddfed8c465bc7359d7dce0",
            "0x000000000000000000000000e5d7c2a44ffddf6b295a15c148167daaaf5cf34f",
            "0x0000000000000000000000009d1794bab9664c755ed74a7d44f3da02a5613df4",
            "0x0000000000000000000000000000000000000000000000000000000000000000"
          ],
          "data": "0x0000000000000000000000009d1794bab9664c755ed74a7d44f3da02a5613df400000000000000000000000000000000000000000000000001249d723a740b9200000000000000000000000000000000000000000000000000000000000000020000000000000000000000000000000000000000001afa73429a255f050574f0",
          "blockHash": "0x7ef4497e5aac1037487002dc4c0ee0af8482815810ea59f86bc96dccbfdd8d26",
          "blockNumber": "0x8ff093",
          "blockTimestamp": "0x66e4f994",
          "transactionHash": "0x571efc27f7d8d9211e0355f6a4cbba2371583e12f2a7a005faeca4c70591f5d3",
          "transactionIndex": "0x1",
          "logIndex": "0x1a",
          "removed": false
        },
        {
          "address": "0x176211869ca2b568f2a7d4ee941e073a821ee1ff",
          "topics": [
            "0x8c5be1e5ebec7d5bd14f71427d1e84f3dd0314c0f7b2291e5b200ac8c7c3b925",
            "0x0000000000000000000000009d1794bab9664c755ed74a7d44f3da02a5613df4",
            "0x0000000000000000000000002f9bb73a8e98793e26cb2f6c4ad037bdf1c6b269"
          ],
          "data": "0x0000000000000000000000000000000000000000000000000000000000000000",
          "blockHash": "0x7ef4497e5aac1037487002dc4c0ee0af8482815810ea59f86bc96dccbfdd8d26",
          "blockNumber": "0x8ff093",
          "blockTimestamp": "0x66e4f994",
          "transactionHash": "0x571efc27f7d8d9211e0355f6a4cbba2371583e12f2a7a005faeca4c70591f5d3",
          "transactionIndex": "0x1",
          "logIndex": "0x1b",
          "removed": false
        },
        {
          "address": "0x176211869ca2b568f2a7d4ee941e073a821ee1ff",
          "topics": [
            "0x8c5be1e5ebec7d5bd14f71427d1e84f3dd0314c0f7b2291e5b200ac8c7c3b925",
            "0x0000000000000000000000009d1794bab9664c755ed74a7d44f3da02a5613df4",
            "0x0000000000000000000000002f9bb73a8e98793e26cb2f6c4ad037bdf1c6b269"
          ],
          "data": "0x0000000000000000000000000000000000000000000000000000000000000000",
          "blockHash": "0x7ef4497e5aac1037487002dc4c0ee0af8482815810ea59f86bc96dccbfdd8d26",
          "blockNumber": "0x8ff093",
          "blockTimestamp": "0x66e4f994",
          "transactionHash": "0x571efc27f7d8d9211e0355f6a4cbba2371583e12f2a7a005faeca4c70591f5d3",
          "transactionIndex": "0x1",
          "logIndex": "0x1c",
          "removed": false
        },
        {
          "address": "0xe5d7c2a44ffddf6b295a15c148167daaaf5cf34f",
          "topics": [
            "0x8c5be1e5ebec7d5bd14f71427d1e84f3dd0314c0f7b2291e5b200ac8c7c3b925",
            "0x0000000000000000000000009d1794bab9664c755ed74a7d44f3da02a5613df4",
            "0x0000000000000000000000002f9bb73a8e98793e26cb2f6c4ad037bdf1c6b269"
          ],
          "data": "0x00000000000000000000000000000000000000000000000001249d723a740b92",
          "blockHash": "0x7ef4497e5aac1037487002dc4c0ee0af8482815810ea59f86bc96dccbfdd8d26",
          "blockNumber": "0x8ff093",
          "blockTimestamp": "0x66e4f994",
          "transactionHash": "0x571efc27f7d8d9211e0355f6a4cbba2371583e12f2a7a005faeca4c70591f5d3",
          "transactionIndex": "0x1",
          "logIndex": "0x1d",
          "removed": false
        },
        {
          "address": "0x2f9bb73a8e98793e26cb2f6c4ad037bdf1c6b269",
          "topics": [
            "0x804c9b842b2748a22bb64b345453a3de7ca54a6ca45ce00d415894979e22897a",
            "0x000000000000000000000000e5d7c2a44ffddf6b295a15c148167daaaf5cf34f"
          ],
          "data": "0x0000000000000000000000000000000000000000000b7043cdcf0a8f9afdbc890000000000000000000000000000000000000000002cbb37369bb49f879d15d40000000000000000000000000000000000000000001afa6e41bd71b0ace8ae9c00000000000000000000000000000000000000000352afdca0f12de0fc5734aa0000000000000000000000000000000000000000035f5711de64ce7eea733388",
          "blockHash": "0x7ef4497e5aac1037487002dc4c0ee0af8482815810ea59f86bc96dccbfdd8d26",
          "blockNumber": "0x8ff093",
          "blockTimestamp": "0x66e4f994",
          "transactionHash": "0x571efc27f7d8d9211e0355f6a4cbba2371583e12f2a7a005faeca4c70591f5d3",
          "transactionIndex": "0x1",
          "logIndex": "0x1e",
          "removed": false
        },
        {
          "address": "0xe5d7c2a44ffddf6b295a15c148167daaaf5cf34f",
          "topics": [
            "0xddf252ad1be2c89b69c2b068fc378daa952ba7f163c4a11628f55a4df523b3ef",
            "0x0000000000000000000000009d1794bab9664c755ed74a7d44f3da02a5613df4",
            "0x000000000000000000000000b4ffef15daf4c02787bc5332580b838ce39805f5"
          ],
          "data": "0x00000000000000000000000000000000000000000000000001249d723a740b92",
          "blockHash": "0x7ef4497e5aac1037487002dc4c0ee0af8482815810ea59f86bc96dccbfdd8d26",
          "blockNumber": "0x8ff093",
          "blockTimestamp": "0x66e4f994",
          "transactionHash": "0x571efc27f7d8d9211e0355f6a4cbba2371583e12f2a7a005faeca4c70591f5d3",
          "transactionIndex": "0x1",
          "logIndex": "0x1f",
          "removed": false
        },
        {
          "address": "0x2f9bb73a8e98793e26cb2f6c4ad037bdf1c6b269",
          "topics": [
            "0xefefaba5e921573100900a3ad9cf29f222d995fb3b6045797eaea7521bd8d6f0",
            "0x0000000000000000000000009d1794bab9664c755ed74a7d44f3da02a5613df4",
            "0x000000000000000000000000e5d7c2a44ffddf6b295a15c148167daaaf5cf34f",
            "0x0000000000000000000000000000000000000000000000000000000000000000"
          ],
          "data": "0x0000000000000000000000009d1794bab9664c755ed74a7d44f3da02a5613df4000000000000000000000000000000000000000000000000012478029c6c4fa000000000000000000000000000000000000000000000000000000000000000000000000000000000000000000000000000000000000000000000256f9e07bbf2",
          "blockHash": "0x7ef4497e5aac1037487002dc4c0ee0af8482815810ea59f86bc96dccbfdd8d26",
          "blockNumber": "0x8ff093",
          "blockTimestamp": "0x66e4f994",
          "transactionHash": "0x571efc27f7d8d9211e0355f6a4cbba2371583e12f2a7a005faeca4c70591f5d3",
          "transactionIndex": "0x1",
          "logIndex": "0x20",
          "removed": false
        }
      ],
      "logsBloom": "0x00000000000009040088000000000000080001004000000000000000010000000000a0002004080000001080000400000010080000102014000400000020000008000220000000080008000802000000200080000000000000000004004000000000040202000000008000012000080180400000000000000100001000080000000002008001000800100004000000200000000000000000008000040000004002080000020000000000000002000010000000000010080100000000a00001000250000200000120000000204000000000020100a200060000080000000028000010200000008020000000000001000040000000100002000000400000100000",
      "type": "0x2",
      "transactionHash": "0x571efc27f7d8d9211e0355f6a4cbba2371583e12f2a7a005faeca4c70591f5d3",
      "transactionIndex": "0x1",
      "blockHash": "0x7ef4497e5aac1037487002dc4c0ee0af8482815810ea59f86bc96dccbfdd8d26",
      "blockNumber": "0x8ff093",
      "gasUsed": "0x11a920",
      "effectiveGasPrice": "0x3938707",
      "blobGasPrice": "0x1",
      "from": "0xf39fd6e51aad88f6f4ce6ab8827279cfffb92266",
      "to": "0x0b306bf915c4d645ff596e518faf3f9669b97016",
      "contractAddress": null,
      "root": "0x0000000000000000000000000000000000000000000000000000000000000000"
    }
  ],
  "libraries": [],
  "pending": [],
  "returns": {},
  "timestamp": 1726282131,
  "chain": 59144,
  "commit": "4a57ec2"
}