{
  "transactions": [
    {
      "hash": "0x86cc663ac759cc3d1aea6860b5c3ddd79823f863b08afe9a6d59561680fb59e5",
      "transactionType": "CALL",
      "contractName": null,
      "contractAddress": "0xe5d7c2a44ffddf6b295a15c148167daaaf5cf34f",
      "function": "deposit()",
      "arguments": [],
      "transaction": {
        "from": "0xf39fd6e51aad88f6f4ce6ab8827279cfffb92266",
        "to": "0xe5d7c2a44ffddf6b295a15c148167daaaf5cf34f",
        "gas": "0xf2ff",
        "value": "0xde0b6b3a7640000",
        "input": "0xd0e30db0",
        "nonce": "0x1f",
        "chainId": "0xe708"
      },
      "additionalContracts": [],
      "isFixedGasLimit": false
    },
    {
      "hash": "0xb1173f541c0e257da2e741c12517fe9637ec49c8e8b948435e127811a21c9bf0",
      "transactionType": "CALL",
      "contractName": null,
      "contractAddress": "0xe5d7c2a44ffddf6b295a15c148167daaaf5cf34f",
      "function": "approve(address,uint256)",
      "arguments": [
        "0x2d8879046f1559E53eb052E949e9544bCB72f414",
        "115792089237316195423570985008687907853269984665640564039457584007913129639935"
      ],
      "transaction": {
        "from": "0xf39fd6e51aad88f6f4ce6ab8827279cfffb92266",
        "to": "0xe5d7c2a44ffddf6b295a15c148167daaaf5cf34f",
        "gas": "0xfa27",
        "value": "0x0",
        "input": "0x095ea7b30000000000000000000000002d8879046f1559e53eb052e949e9544bcb72f414ffffffffffffffffffffffffffffffffffffffffffffffffffffffffffffffff",
        "nonce": "0x20",
        "chainId": "0xe708"
      },
      "additionalContracts": [],
      "isFixedGasLimit": false
    },
    {
      "hash": "0x5fa7088d1aadb8a68f9cca2c9c04cb667cf4e4f6ec96e11c9912dd64061d8569",
      "transactionType": "CALL",
      "contractName": null,
      "contractAddress": "0x2d8879046f1559e53eb052e949e9544bcb72f414",
      "function": null,
      "arguments": null,
      "transaction": {
        "from": "0xf39fd6e51aad88f6f4ce6ab8827279cfffb92266",
        "to": "0x2d8879046f1559e53eb052e949e9544bcb72f414",
        "gas": "0x14c453",
        "value": "0x0",
        "input": "0x83bd37f90001e5d7c2a44ffddf6b295a15c148167daaaf5cf34f0001176211869ca2b568f2a7d4ee941e073a821ee1ff080de0b6b3a7640000049fec8e95028f5c000156c85a254dd12ee8d9c04049a4ab62769ce9821000000001f39fd6e51aad88f6f4ce6ab8827279cfffb92266000000000903030a011a722ec30a010101020001207ccc670a0101030200015c0d74ff0a01010402000171b6c5880a01010502000185483afc0d0101060200000a0200070200040a0101080900ff000000000000000000000000000000000000000000000064bccad8e7302e81b09894f56f6bba85ae82cd03e5d7c2a44ffddf6b295a15c148167daaaf5cf34fd5539d0360438a66661148c633a9f0965e482845586733678b9ac9da43dd7cb83bbb41d23677dfc3c48622190a6b91d64ee7459c62fade9abe61b48a5615a7b1619980f7d6b5e7f69f3dc093dfe0c95c1947b87d35e9f1cd53cede1ad6f7be44c12212b8efd5ec2cc043e3bd3c840f7998cc42ee712700baa219439258ca9da29e9cc4ce5596924745e12b93000000000000000000000000",
        "nonce": "0x21",
        "chainId": "0xe708"
      },
      "additionalContracts": [],
      "isFixedGasLimit": false
    },
    {
      "hash": "0xc5019c33fa5d45f0711c9a0322042322c66df96b9b99cdf7fd9e30fae36ff8d0",
      "transactionType": "CALL",
      "contractName": null,
      "contractAddress": "0x176211869ca2b568f2a7d4ee941e073a821ee1ff",
      "function": "approve(address,uint256)",
      "arguments": [
        "0x0B306BF915C4d645ff596e518fAf3F9669b97016",
        "115792089237316195423570985008687907853269984665640564039457584007913129639935"
      ],
      "transaction": {
        "from": "0xf39fd6e51aad88f6f4ce6ab8827279cfffb92266",
        "to": "0x176211869ca2b568f2a7d4ee941e073a821ee1ff",
        "gas": "0x144c0",
        "value": "0x0",
        "input": "0x095ea7b30000000000000000000000000b306bf915c4d645ff596e518faf3f9669b97016ffffffffffffffffffffffffffffffffffffffffffffffffffffffffffffffff",
        "nonce": "0x22",
        "chainId": "0xe708"
      },
      "additionalContracts": [],
      "isFixedGasLimit": false
    },
    {
      "hash": "0x8d5474da527a35158b9190be806c867519b42afff41ab5b1568d86eb251d1adc",
      "transactionType": "CALL",
      "contractName": null,
      "contractAddress": "0xe5d7c2a44ffddf6b295a15c148167daaaf5cf34f",
      "function": "approve(address,uint256)",
      "arguments": [
        "0x0B306BF915C4d645ff596e518fAf3F9669b97016",
        "115792089237316195423570985008687907853269984665640564039457584007913129639935"
      ],
      "transaction": {
        "from": "0xf39fd6e51aad88f6f4ce6ab8827279cfffb92266",
        "to": "0xe5d7c2a44ffddf6b295a15c148167daaaf5cf34f",
        "gas": "0xfa27",
        "value": "0x0",
        "input": "0x095ea7b30000000000000000000000000b306bf915c4d645ff596e518faf3f9669b97016ffffffffffffffffffffffffffffffffffffffffffffffffffffffffffffffff",
        "nonce": "0x23",
        "chainId": "0xe708"
      },
      "additionalContracts": [],
      "isFixedGasLimit": false
    },
    {
      "hash": "0x21cc5f1bd260d926f0db3a8c9a7bf3518040d8d5bb909919871ab09ec095dbed",
      "transactionType": "CALL",
      "contractName": null,
      "contractAddress": "0x176211869ca2b568f2a7d4ee941e073a821ee1ff",
      "function": "approve(address,uint256)",
      "arguments": [
        "0x0B306BF915C4d645ff596e518fAf3F9669b97016",
        "115792089237316195423570985008687907853269984665640564039457584007913129639935"
      ],
      "transaction": {
        "from": "0xf39fd6e51aad88f6f4ce6ab8827279cfffb92266",
        "to": "0x176211869ca2b568f2a7d4ee941e073a821ee1ff",
        "gas": "0xe62b",
        "value": "0x0",
        "input": "0x095ea7b30000000000000000000000000b306bf915c4d645ff596e518faf3f9669b97016ffffffffffffffffffffffffffffffffffffffffffffffffffffffffffffffff",
        "nonce": "0x24",
        "chainId": "0xe708"
      },
      "additionalContracts": [],
      "isFixedGasLimit": false
    },
    {
      "hash": "0xa24d8b9bc03c71aa425f67a91d1bd150dcfc3e937f06a84891077c8d9b2f54d5",
      "transactionType": "CALL",
      "contractName": null,
      "contractAddress": "0x0b306bf915c4d645ff596e518faf3f9669b97016",
      "function": "createAndAddToPosition((string,address,address),(uint256,uint256,bytes))",
      "arguments": [
        "(\"LONG_QUOTE_ODOS_ZEROLEND\", 0x176211869cA2b568f2A7D4EE941E073a821EE1ff, 0xe5D7C2a44FfDDf6b295A15c148167daaAf5Cf34f)",
        "(100000000, 200000000, 0x83bd37f90001176211869ca2b568f2a7d4ee941e073a821ee1ff0001e5d7c2a44ffddf6b295a15c148167daaaf5cf34f0411e1a30008018cece6ccc47be0028f5c000156c85a254dd12ee8d9c04049a4ab62769ce98210000000018ee06e608de47ea1b185583aca65e34f2fd79b130000000003010204016e6bf3360a0101010201000d0101030201ff000000000000000000007077f0cff76077d0ebb335b607db574400510557176211869ca2b568f2a7d4ee941e073a821ee1ff5615a7b1619980f7d6b5e7f69f3dc093dfe0c95c00000000)"
      ],
      "transaction": {
        "from": "0xf39fd6e51aad88f6f4ce6ab8827279cfffb92266",
        "to": "0x0b306bf915c4d645ff596e518faf3f9669b97016",
        "gas": "0x1c6da3",
        "value": "0x0",
        "input": "0x211d9b04000000000000000000000000000000000000000000000000000000000000004000000000000000000000000000000000000000000000000000000000000000e00000000000000000000000000000000000000000000000000000000000000060000000000000000000000000176211869ca2b568f2a7d4ee941e073a821ee1ff000000000000000000000000e5d7c2a44ffddf6b295a15c148167daaaf5cf34f00000000000000000000000000000000000000000000000000000000000000184c4f4e475f51554f54455f4f444f535f5a45524f4c454e4400000000000000000000000000000000000000000000000000000000000000000000000005f5e100000000000000000000000000000000000000000000000000000000000bebc200000000000000000000000000000000000000000000000000000000000000006000000000000000000000000000000000000000000000000000000000000000d483bd37f90001176211869ca2b568f2a7d4ee941e073a821ee1ff0001e5d7c2a44ffddf6b295a15c148167daaaf5cf34f0411e1a30008018cece6ccc47be0028f5c000156c85a254dd12ee8d9c04049a4ab62769ce98210000000018ee06e608de47ea1b185583aca65e34f2fd79b130000000003010204016e6bf3360a0101010201000d0101030201ff000000000000000000007077f0cff76077d0ebb335b607db574400510557176211869ca2b568f2a7d4ee941e073a821ee1ff5615a7b1619980f7d6b5e7f69f3dc093dfe0c95c00000000000000000000000000000000",
        "nonce": "0x25",
        "chainId": "0xe708"
      },
      "additionalContracts": [
        {
          "transactionType": "CREATE2",
          "address": "0x8ee06e608de47ea1b185583aca65e34f2fd79b13",
          "initCode": "0x60a060405234801561001057600080fd5b506040516101d43803806101d483398101604081905261002f9161009a565b6001600160a01b0381166100895760405162461bcd60e51b815260206004820152601e60248201527f496e76616c696420696d706c656d656e746174696f6e20616464726573730000604482015260640160405180910390fd5b6001600160a01b03166080526100ca565b6000602082840312156100ac57600080fd5b81516001600160a01b03811681146100c357600080fd5b9392505050565b60805160ec6100e860003960008181602001526055015260ec6000f3fe608060405260043610601c5760003560e01c80635c60da1b146045575b60437f00000000000000000000000000000000000000000000000000000000000000006093565b005b348015605057600080fd5b5060777f000000000000000000000000000000000000000000000000000000000000000081565b6040516001600160a01b03909116815260200160405180910390f35b3660008037600080366000845af43d6000803e80801560b1573d6000f35b3d6000fdfea2646970667358221220ece5f241c936be627b009529639055436949a725352d983e1257a877a1e6225564736f6c6343000819003300000000000000000000000068b1d87f95878fe05b998f19b66f4baba5de1aed"
        }
      ],
      "isFixedGasLimit": false
    }
  ],
  "receipts": [
    {
      "status": "0x1",
      "cumulativeGasUsed": "0xafee",
      "logs": [
        {
          "address": "0xe5d7c2a44ffddf6b295a15c148167daaaf5cf34f",
          "topics": [
            "0xe1fffcc4923d04b559f4d29a8bfc6cda04eb5b0d3c460751c2402c5c5cc9109c",
            "0x000000000000000000000000f39fd6e51aad88f6f4ce6ab8827279cfffb92266"
          ],
          "data": "0x0000000000000000000000000000000000000000000000000de0b6b3a7640000",
          "blockHash": "0x5a9fbb5b71cd88b0fb8d8ccf975592c4211c6d9f1b60792f4272ee8431e370f9",
          "blockNumber": "0x964b34",
          "blockTimestamp": "0x66f1b9f7",
          "transactionHash": "0x86cc663ac759cc3d1aea6860b5c3ddd79823f863b08afe9a6d59561680fb59e5",
          "transactionIndex": "0x0",
          "logIndex": "0x0",
          "removed": false
        }
      ],
      "logsBloom": "0x0000000000000000000000000000000000000000000000000000000000000000000000000000000000000000000000000000000000000000000000000000000000000000000000000000000000000000000000000000000000000000800000000000000000000000000000010000000000000000000000000000000000000000000000000000000000100000000000000000000100000000000000000000000000000000000000000000000000000000000000000000000000000000200000000000000000000020000000000000000000000000a000000000000000000000000000000000000000000000000000000000000000000000400000000000000000",
      "type": "0x2",
      "transactionHash": "0x86cc663ac759cc3d1aea6860b5c3ddd79823f863b08afe9a6d59561680fb59e5",
      "transactionIndex": "0x0",
      "blockHash": "0x5a9fbb5b71cd88b0fb8d8ccf975592c4211c6d9f1b60792f4272ee8431e370f9",
      "blockNumber": "0x964b34",
      "gasUsed": "0xafee",
      "effectiveGasPrice": "0x6e279c1",
      "blobGasPrice": "0x1",
      "from": "0xf39fd6e51aad88f6f4ce6ab8827279cfffb92266",
      "to": "0xe5d7c2a44ffddf6b295a15c148167daaaf5cf34f",
      "contractAddress": null,
      "root": "0x0000000000000000000000000000000000000000000000000000000000000000"
    },
    {
      "status": "0x1",
      "cumulativeGasUsed": "0xb51c",
      "logs": [
        {
          "address": "0xe5d7c2a44ffddf6b295a15c148167daaaf5cf34f",
          "topics": [
            "0x8c5be1e5ebec7d5bd14f71427d1e84f3dd0314c0f7b2291e5b200ac8c7c3b925",
            "0x000000000000000000000000f39fd6e51aad88f6f4ce6ab8827279cfffb92266",
            "0x0000000000000000000000002d8879046f1559e53eb052e949e9544bcb72f414"
          ],
          "data": "0xffffffffffffffffffffffffffffffffffffffffffffffffffffffffffffffff",
          "blockHash": "0x2fdc841b7280330efe7360a1a7282142a726b0705a5946a9b520b19c0dc781d3",
          "blockNumber": "0x964b35",
          "blockTimestamp": "0x66f1b9f8",
          "transactionHash": "0xb1173f541c0e257da2e741c12517fe9637ec49c8e8b948435e127811a21c9bf0",
          "transactionIndex": "0x0",
          "logIndex": "0x0",
          "removed": false
        }
      ],
      "logsBloom": "0x0000000000000000000000000000000000000000000000000000000000000000000000000000000000001000000000000000000000000000000000000020000000000000000000000000000000000000000000000000000000000000000000000000000000000000008000010000000000000000000000000000000000000000000000000000000000100000000000000000000000000000000000000000000002000000020000000000000000000000000000000000000000000000200000000000000000000020000000000000000000000000a000000000000000000000000010000000000000000000000000000000000000000000000000000000000000",
      "type": "0x2",
      "transactionHash": "0xb1173f541c0e257da2e741c12517fe9637ec49c8e8b948435e127811a21c9bf0",
      "transactionIndex": "0x0",
      "blockHash": "0x2fdc841b7280330efe7360a1a7282142a726b0705a5946a9b520b19c0dc781d3",
      "blockNumber": "0x964b35",
      "gasUsed": "0xb51c",
      "effectiveGasPrice": "0x6e279c1",
      "blobGasPrice": "0x1",
      "from": "0xf39fd6e51aad88f6f4ce6ab8827279cfffb92266",
      "to": "0xe5d7c2a44ffddf6b295a15c148167daaaf5cf34f",
      "contractAddress": null,
      "root": "0x0000000000000000000000000000000000000000000000000000000000000000"
    },
    {
      "status": "0x1",
      "cumulativeGasUsed": "0xf08ed",
      "logs": [
        {
          "address": "0xe5d7c2a44ffddf6b295a15c148167daaaf5cf34f",
          "topics": [
            "0xddf252ad1be2c89b69c2b068fc378daa952ba7f163c4a11628f55a4df523b3ef",
            "0x000000000000000000000000f39fd6e51aad88f6f4ce6ab8827279cfffb92266",
            "0x00000000000000000000000056c85a254dd12ee8d9c04049a4ab62769ce98210"
          ],
          "data": "0x0000000000000000000000000000000000000000000000000de0b6b3a7640000",
          "blockHash": "0x7545112e54d80f7cfefd6d5bb1cdedc6b6495ed68e9c61380d5eef73bddad7ca",
          "blockNumber": "0x964b36",
          "blockTimestamp": "0x66f1b9f9",
          "transactionHash": "0x5fa7088d1aadb8a68f9cca2c9c04cb667cf4e4f6ec96e11c9912dd64061d8569",
          "transactionIndex": "0x0",
          "logIndex": "0x0",
          "removed": false
        },
        {
          "address": "0x176211869ca2b568f2a7d4ee941e073a821ee1ff",
          "topics": [
            "0xddf252ad1be2c89b69c2b068fc378daa952ba7f163c4a11628f55a4df523b3ef",
            "0x00000000000000000000000064bccad8e7302e81b09894f56f6bba85ae82cd03",
            "0x0000000000000000000000002d8879046f1559e53eb052e949e9544bcb72f414"
          ],
          "data": "0x000000000000000000000000000000000000000000000000000000001082e037",
          "blockHash": "0x7545112e54d80f7cfefd6d5bb1cdedc6b6495ed68e9c61380d5eef73bddad7ca",
          "blockNumber": "0x964b36",
          "blockTimestamp": "0x66f1b9f9",
          "transactionHash": "0x5fa7088d1aadb8a68f9cca2c9c04cb667cf4e4f6ec96e11c9912dd64061d8569",
          "transactionIndex": "0x0",
          "logIndex": "0x1",
          "removed": false
        },
        {
          "address": "0xe5d7c2a44ffddf6b295a15c148167daaaf5cf34f",
          "topics": [
            "0xddf252ad1be2c89b69c2b068fc378daa952ba7f163c4a11628f55a4df523b3ef",
            "0x00000000000000000000000056c85a254dd12ee8d9c04049a4ab62769ce98210",
            "0x00000000000000000000000064bccad8e7302e81b09894f56f6bba85ae82cd03"
          ],
          "data": "0x000000000000000000000000000000000000000000000000016f03288e002574",
          "blockHash": "0x7545112e54d80f7cfefd6d5bb1cdedc6b6495ed68e9c61380d5eef73bddad7ca",
          "blockNumber": "0x964b36",
          "blockTimestamp": "0x66f1b9f9",
          "transactionHash": "0x5fa7088d1aadb8a68f9cca2c9c04cb667cf4e4f6ec96e11c9912dd64061d8569",
          "transactionIndex": "0x0",
          "logIndex": "0x2",
          "removed": false
        },
        {
          "address": "0x64bccad8e7302e81b09894f56f6bba85ae82cd03",
          "topics": [
            "0xc42079f94a6350d7e6235f29174924f928cc2ac818eb64fed8004e115fbcca67",
            "0x00000000000000000000000056c85a254dd12ee8d9c04049a4ab62769ce98210",
            "0x0000000000000000000000002d8879046f1559e53eb052e949e9544bcb72f414"
          ],
          "data": "0xffffffffffffffffffffffffffffffffffffffffffffffffffffffffef7d1fc9000000000000000000000000000000000000000000000000016f03288e0025740000000000000000000000000000000000004b6b9cbc5662fd9153319a030519000000000000000000000000000000000000000000000000034540a9b50bda2800000000000000000000000000000000000000000000000000000000000302fe",
          "blockHash": "0x7545112e54d80f7cfefd6d5bb1cdedc6b6495ed68e9c61380d5eef73bddad7ca",
          "blockNumber": "0x964b36",
          "blockTimestamp": "0x66f1b9f9",
          "transactionHash": "0x5fa7088d1aadb8a68f9cca2c9c04cb667cf4e4f6ec96e11c9912dd64061d8569",
          "transactionIndex": "0x0",
          "logIndex": "0x3",
          "removed": false
        },
        {
          "address": "0x176211869ca2b568f2a7d4ee941e073a821ee1ff",
          "topics": [
            "0xddf252ad1be2c89b69c2b068fc378daa952ba7f163c4a11628f55a4df523b3ef",
            "0x000000000000000000000000d5539d0360438a66661148c633a9f0965e482845",
            "0x0000000000000000000000002d8879046f1559e53eb052e949e9544bcb72f414"
          ],
          "data": "0x00000000000000000000000000000000000000000000000000000000122e901e",
          "blockHash": "0x7545112e54d80f7cfefd6d5bb1cdedc6b6495ed68e9c61380d5eef73bddad7ca",
          "blockNumber": "0x964b36",
          "blockTimestamp": "0x66f1b9f9",
          "transactionHash": "0x5fa7088d1aadb8a68f9cca2c9c04cb667cf4e4f6ec96e11c9912dd64061d8569",
          "transactionIndex": "0x0",
          "logIndex": "0x4",
          "removed": false
        },
        {
          "address": "0xe5d7c2a44ffddf6b295a15c148167daaaf5cf34f",
          "topics": [
            "0xddf252ad1be2c89b69c2b068fc378daa952ba7f163c4a11628f55a4df523b3ef",
            "0x00000000000000000000000056c85a254dd12ee8d9c04049a4ab62769ce98210",
            "0x000000000000000000000000d5539d0360438a66661148c633a9f0965e482845"
          ],
          "data": "0x00000000000000000000000000000000000000000000000001944773f75edce2",
          "blockHash": "0x7545112e54d80f7cfefd6d5bb1cdedc6b6495ed68e9c61380d5eef73bddad7ca",
          "blockNumber": "0x964b36",
          "blockTimestamp": "0x66f1b9f9",
          "transactionHash": "0x5fa7088d1aadb8a68f9cca2c9c04cb667cf4e4f6ec96e11c9912dd64061d8569",
          "transactionIndex": "0x0",
          "logIndex": "0x5",
          "removed": false
        },
        {
          "address": "0xd5539d0360438a66661148c633a9f0965e482845",
          "topics": [
            "0x19b47279256b2a23a1665c810c8d55a1758940ee09377d4f8d26497a3577dc83",
            "0x00000000000000000000000056c85a254dd12ee8d9c04049a4ab62769ce98210",
            "0x0000000000000000000000002d8879046f1559e53eb052e949e9544bcb72f414"
          ],
          "data": "0xffffffffffffffffffffffffffffffffffffffffffffffffffffffffedd16fe200000000000000000000000000000000000000000000000001944773f75edce20000000000000000000000000000000000004b718275b9c085f5b861fd888dea000000000000000000000000000000000000000000000000003358fdbdc48e5700000000000000000000000000000000000000000000000000000000000303050000000000000000000000000000000000000000000000000000000000000000000000000000000000000000000000000000000000000000000011981f42e179",
          "blockHash": "0x7545112e54d80f7cfefd6d5bb1cdedc6b6495ed68e9c61380d5eef73bddad7ca",
          "blockNumber": "0x964b36",
          "blockTimestamp": "0x66f1b9f9",
          "transactionHash": "0x5fa7088d1aadb8a68f9cca2c9c04cb667cf4e4f6ec96e11c9912dd64061d8569",
          "transactionIndex": "0x0",
          "logIndex": "0x6",
          "removed": false
        },
        {
          "address": "0x176211869ca2b568f2a7d4ee941e073a821ee1ff",
          "topics": [
            "0xddf252ad1be2c89b69c2b068fc378daa952ba7f163c4a11628f55a4df523b3ef",
            "0x000000000000000000000000586733678b9ac9da43dd7cb83bbb41d23677dfc3",
            "0x0000000000000000000000002d8879046f1559e53eb052e949e9544bcb72f414"
          ],
          "data": "0x000000000000000000000000000000000000000000000000000000002cfb3b6a",
          "blockHash": "0x7545112e54d80f7cfefd6d5bb1cdedc6b6495ed68e9c61380d5eef73bddad7ca",
          "blockNumber": "0x964b36",
          "blockTimestamp": "0x66f1b9f9",
          "transactionHash": "0x5fa7088d1aadb8a68f9cca2c9c04cb667cf4e4f6ec96e11c9912dd64061d8569",
          "transactionIndex": "0x0",
          "logIndex": "0x7",
          "removed": false
        },
        {
          "address": "0xe5d7c2a44ffddf6b295a15c148167daaaf5cf34f",
          "topics": [
            "0xddf252ad1be2c89b69c2b068fc378daa952ba7f163c4a11628f55a4df523b3ef",
            "0x00000000000000000000000056c85a254dd12ee8d9c04049a4ab62769ce98210",
            "0x000000000000000000000000586733678b9ac9da43dd7cb83bbb41d23677dfc3"
          ],
          "data": "0x00000000000000000000000000000000000000000000000003e8250df4efabdf",
          "blockHash": "0x7545112e54d80f7cfefd6d5bb1cdedc6b6495ed68e9c61380d5eef73bddad7ca",
          "blockNumber": "0x964b36",
          "blockTimestamp": "0x66f1b9f9",
          "transactionHash": "0x5fa7088d1aadb8a68f9cca2c9c04cb667cf4e4f6ec96e11c9912dd64061d8569",
          "transactionIndex": "0x0",
          "logIndex": "0x8",
          "removed": false
        },
        {
          "address": "0x586733678b9ac9da43dd7cb83bbb41d23677dfc3",
          "topics": [
            "0x19b47279256b2a23a1665c810c8d55a1758940ee09377d4f8d26497a3577dc83",
            "0x00000000000000000000000056c85a254dd12ee8d9c04049a4ab62769ce98210",
            "0x0000000000000000000000002d8879046f1559e53eb052e949e9544bcb72f414"
          ],
          "data": "0xffffffffffffffffffffffffffffffffffffffffffffffffffffffffd304c49600000000000000000000000000000000000000000000000003e8250df4efabdf0000000000000000000000000000000000004b76e9d1aceaf409bc41d31bf4370000000000000000000000000000000000000000000000000056e456a3b49dba000000000000000000000000000000000000000000000000000000000003030a0000000000000000000000000000000000000000000000000000000000000000000000000000000000000000000000000000000000000000000008730043eed2",
          "blockHash": "0x7545112e54d80f7cfefd6d5bb1cdedc6b6495ed68e9c61380d5eef73bddad7ca",
          "blockNumber": "0x964b36",
          "blockTimestamp": "0x66f1b9f9",
          "transactionHash": "0x5fa7088d1aadb8a68f9cca2c9c04cb667cf4e4f6ec96e11c9912dd64061d8569",
          "transactionIndex": "0x0",
          "logIndex": "0x9",
          "removed": false
        },
        {
          "address": "0x176211869ca2b568f2a7d4ee941e073a821ee1ff",
          "topics": [
            "0xddf252ad1be2c89b69c2b068fc378daa952ba7f163c4a11628f55a4df523b3ef",
            "0x000000000000000000000000c48622190a6b91d64ee7459c62fade9abe61b48a",
            "0x0000000000000000000000002d8879046f1559e53eb052e949e9544bcb72f414"
          ],
          "data": "0x0000000000000000000000000000000000000000000000000000000023942b9a",
          "blockHash": "0x7545112e54d80f7cfefd6d5bb1cdedc6b6495ed68e9c61380d5eef73bddad7ca",
          "blockNumber": "0x964b36",
          "blockTimestamp": "0x66f1b9f9",
          "transactionHash": "0x5fa7088d1aadb8a68f9cca2c9c04cb667cf4e4f6ec96e11c9912dd64061d8569",
          "transactionIndex": "0x0",
          "logIndex": "0xa",
          "removed": false
        },
        {
          "address": "0xe5d7c2a44ffddf6b295a15c148167daaaf5cf34f",
          "topics": [
            "0xddf252ad1be2c89b69c2b068fc378daa952ba7f163c4a11628f55a4df523b3ef",
            "0x00000000000000000000000056c85a254dd12ee8d9c04049a4ab62769ce98210",
            "0x000000000000000000000000c48622190a6b91d64ee7459c62fade9abe61b48a"
          ],
          "data": "0x00000000000000000000000000000000000000000000000003173c19ff6442d4",
          "blockHash": "0x7545112e54d80f7cfefd6d5bb1cdedc6b6495ed68e9c61380d5eef73bddad7ca",
          "blockNumber": "0x964b36",
          "blockTimestamp": "0x66f1b9f9",
          "transactionHash": "0x5fa7088d1aadb8a68f9cca2c9c04cb667cf4e4f6ec96e11c9912dd64061d8569",
          "transactionIndex": "0x0",
          "logIndex": "0xb",
          "removed": false
        },
        {
          "address": "0xc48622190a6b91d64ee7459c62fade9abe61b48a",
          "topics": [
            "0xc42079f94a6350d7e6235f29174924f928cc2ac818eb64fed8004e115fbcca67",
            "0x00000000000000000000000056c85a254dd12ee8d9c04049a4ab62769ce98210",
            "0x0000000000000000000000002d8879046f1559e53eb052e949e9544bcb72f414"
          ],
          "data": "0xffffffffffffffffffffffffffffffffffffffffffffffffffffffffdc6bd46600000000000000000000000000000000000000000000000003173c19ff6442d40000000000000000000000000000000000004b75603e3add30f1acb204a742fe000000000000000000000000000000000000000000000000003fa8dd3ea544e50000000000000000000000000000000000000000000000000000000000030309",
          "blockHash": "0x7545112e54d80f7cfefd6d5bb1cdedc6b6495ed68e9c61380d5eef73bddad7ca",
          "blockNumber": "0x964b36",
          "blockTimestamp": "0x66f1b9f9",
          "transactionHash": "0x5fa7088d1aadb8a68f9cca2c9c04cb667cf4e4f6ec96e11c9912dd64061d8569",
          "transactionIndex": "0x0",
          "logIndex": "0xc",
          "removed": false
        },
        {
          "address": "0x176211869ca2b568f2a7d4ee941e073a821ee1ff",
          "topics": [
            "0xddf252ad1be2c89b69c2b068fc378daa952ba7f163c4a11628f55a4df523b3ef",
            "0x0000000000000000000000005615a7b1619980f7d6b5e7f69f3dc093dfe0c95c",
            "0x0000000000000000000000002d8879046f1559e53eb052e949e9544bcb72f414"
          ],
          "data": "0x0000000000000000000000000000000000000000000000000000000017324270",
          "blockHash": "0x7545112e54d80f7cfefd6d5bb1cdedc6b6495ed68e9c61380d5eef73bddad7ca",
          "blockNumber": "0x964b36",
          "blockTimestamp": "0x66f1b9f9",
          "transactionHash": "0x5fa7088d1aadb8a68f9cca2c9c04cb667cf4e4f6ec96e11c9912dd64061d8569",
          "transactionIndex": "0x0",
          "logIndex": "0xd",
          "removed": false
        },
        {
          "address": "0xe5d7c2a44ffddf6b295a15c148167daaaf5cf34f",
          "topics": [
            "0xddf252ad1be2c89b69c2b068fc378daa952ba7f163c4a11628f55a4df523b3ef",
            "0x00000000000000000000000056c85a254dd12ee8d9c04049a4ab62769ce98210",
            "0x0000000000000000000000005615a7b1619980f7d6b5e7f69f3dc093dfe0c95c"
          ],
          "data": "0x00000000000000000000000000000000000000000000000002037305730eb478",
          "blockHash": "0x7545112e54d80f7cfefd6d5bb1cdedc6b6495ed68e9c61380d5eef73bddad7ca",
          "blockNumber": "0x964b36",
          "blockTimestamp": "0x66f1b9f9",
          "transactionHash": "0x5fa7088d1aadb8a68f9cca2c9c04cb667cf4e4f6ec96e11c9912dd64061d8569",
          "transactionIndex": "0x0",
          "logIndex": "0xe",
          "removed": false
        },
        {
          "address": "0x5615a7b1619980f7d6b5e7f69f3dc093dfe0c95c",
          "topics": [
            "0x0fe977d619f8172f7fdbe8bb8928ef80952817d96936509f67d66346bc4cd10f",
            "0x000000000000000000000000176211869ca2b568f2a7d4ee941e073a821ee1ff",
            "0x000000000000000000000000e5d7c2a44ffddf6b295a15c148167daaaf5cf34f",
            "0x00000000000000000000000000000000000000000000000000000000000001f4"
          ],
          "data": "0x0000000000000000000000000000000000000000000000000000000000000000000000000000000000000000000000000000000000000000000000001732427000000000000000000000000000000000000000000000000002037305730eb47800000000000000000000000000000000000000000000000000000000000302fc",
          "blockHash": "0x7545112e54d80f7cfefd6d5bb1cdedc6b6495ed68e9c61380d5eef73bddad7ca",
          "blockNumber": "0x964b36",
          "blockTimestamp": "0x66f1b9f9",
          "transactionHash": "0x5fa7088d1aadb8a68f9cca2c9c04cb667cf4e4f6ec96e11c9912dd64061d8569",
          "transactionIndex": "0x0",
          "logIndex": "0xf",
          "removed": false
        },
        {
          "address": "0xe5d7c2a44ffddf6b295a15c148167daaaf5cf34f",
          "topics": [
            "0xddf252ad1be2c89b69c2b068fc378daa952ba7f163c4a11628f55a4df523b3ef",
            "0x00000000000000000000000056c85a254dd12ee8d9c04049a4ab62769ce98210",
            "0x000000000000000000000000f39fd6e51aad88f6f4ce6ab8827279cfffb92266"
          ],
          "data": "0x00000000000000000000000000000000000000000000000000000000000015e5",
          "blockHash": "0x7545112e54d80f7cfefd6d5bb1cdedc6b6495ed68e9c61380d5eef73bddad7ca",
          "blockNumber": "0x964b36",
          "blockTimestamp": "0x66f1b9f9",
          "transactionHash": "0x5fa7088d1aadb8a68f9cca2c9c04cb667cf4e4f6ec96e11c9912dd64061d8569",
          "transactionIndex": "0x0",
          "logIndex": "0x10",
          "removed": false
        },
        {
          "address": "0xa219439258ca9da29e9cc4ce5596924745e12b93",
          "topics": [
            "0xddf252ad1be2c89b69c2b068fc378daa952ba7f163c4a11628f55a4df523b3ef",
            "0x0000000000000000000000001947b87d35e9f1cd53cede1ad6f7be44c12212b8",
            "0x00000000000000000000000056c85a254dd12ee8d9c04049a4ab62769ce98210"
          ],
          "data": "0x000000000000000000000000000000000000000000000000000000001557bf8c",
          "blockHash": "0x7545112e54d80f7cfefd6d5bb1cdedc6b6495ed68e9c61380d5eef73bddad7ca",
          "blockNumber": "0x964b36",
          "blockTimestamp": "0x66f1b9f9",
          "transactionHash": "0x5fa7088d1aadb8a68f9cca2c9c04cb667cf4e4f6ec96e11c9912dd64061d8569",
          "transactionIndex": "0x0",
          "logIndex": "0x11",
          "removed": false
        },
        {
          "address": "0xe5d7c2a44ffddf6b295a15c148167daaaf5cf34f",
          "topics": [
            "0xddf252ad1be2c89b69c2b068fc378daa952ba7f163c4a11628f55a4df523b3ef",
            "0x00000000000000000000000056c85a254dd12ee8d9c04049a4ab62769ce98210",
            "0x0000000000000000000000001947b87d35e9f1cd53cede1ad6f7be44c12212b8"
          ],
          "data": "0x00000000000000000000000000000000000000000000000001da97e9baa2449a",
          "blockHash": "0x7545112e54d80f7cfefd6d5bb1cdedc6b6495ed68e9c61380d5eef73bddad7ca",
          "blockNumber": "0x964b36",
          "blockTimestamp": "0x66f1b9f9",
          "transactionHash": "0x5fa7088d1aadb8a68f9cca2c9c04cb667cf4e4f6ec96e11c9912dd64061d8569",
          "transactionIndex": "0x0",
          "logIndex": "0x12",
          "removed": false
        },
        {
          "address": "0x1947b87d35e9f1cd53cede1ad6f7be44c12212b8",
          "topics": [
            "0x19b47279256b2a23a1665c810c8d55a1758940ee09377d4f8d26497a3577dc83",
            "0x00000000000000000000000056c85a254dd12ee8d9c04049a4ab62769ce98210",
            "0x00000000000000000000000056c85a254dd12ee8d9c04049a4ab62769ce98210"
          ],
          "data": "0xffffffffffffffffffffffffffffffffffffffffffffffffffffffffeaa8407400000000000000000000000000000000000000000000000001da97e9baa2449a0000000000000000000000000000000000004b79df05507c196b49235f5b3abd000000000000000000000000000000000000000000000000001dcafdafb6d070000000000000000000000000000000000000000000000000000000000003030d00000000000000000000000000000000000000000000000000000000000000000000000000000000000000000000000000000000000000000000040265c0cb59",
          "blockHash": "0x7545112e54d80f7cfefd6d5bb1cdedc6b6495ed68e9c61380d5eef73bddad7ca",
          "blockNumber": "0x964b36",
          "blockTimestamp": "0x66f1b9f9",
          "transactionHash": "0x5fa7088d1aadb8a68f9cca2c9c04cb667cf4e4f6ec96e11c9912dd64061d8569",
          "transactionIndex": "0x0",
          "logIndex": "0x13",
          "removed": false
        },
        {
          "address": "0x176211869ca2b568f2a7d4ee941e073a821ee1ff",
          "topics": [
            "0xddf252ad1be2c89b69c2b068fc378daa952ba7f163c4a11628f55a4df523b3ef",
            "0x000000000000000000000000efd5ec2cc043e3bd3c840f7998cc42ee712700ba",
            "0x0000000000000000000000002d8879046f1559e53eb052e949e9544bcb72f414"
          ],
          "data": "0x000000000000000000000000000000000000000000000000000000001558d3b7",
          "blockHash": "0x7545112e54d80f7cfefd6d5bb1cdedc6b6495ed68e9c61380d5eef73bddad7ca",
          "blockNumber": "0x964b36",
          "blockTimestamp": "0x66f1b9f9",
          "transactionHash": "0x5fa7088d1aadb8a68f9cca2c9c04cb667cf4e4f6ec96e11c9912dd64061d8569",
          "transactionIndex": "0x0",
          "logIndex": "0x14",
          "removed": false
        },
        {
          "address": "0xa219439258ca9da29e9cc4ce5596924745e12b93",
          "topics": [
            "0xddf252ad1be2c89b69c2b068fc378daa952ba7f163c4a11628f55a4df523b3ef",
            "0x00000000000000000000000056c85a254dd12ee8d9c04049a4ab62769ce98210",
            "0x000000000000000000000000efd5ec2cc043e3bd3c840f7998cc42ee712700ba"
          ],
          "data": "0x000000000000000000000000000000000000000000000000000000001557bf8c",
          "blockHash": "0x7545112e54d80f7cfefd6d5bb1cdedc6b6495ed68e9c61380d5eef73bddad7ca",
          "blockNumber": "0x964b36",
          "blockTimestamp": "0x66f1b9f9",
          "transactionHash": "0x5fa7088d1aadb8a68f9cca2c9c04cb667cf4e4f6ec96e11c9912dd64061d8569",
          "transactionIndex": "0x0",
          "logIndex": "0x15",
          "removed": false
        },
        {
          "address": "0xefd5ec2cc043e3bd3c840f7998cc42ee712700ba",
          "topics": [
            "0xc42079f94a6350d7e6235f29174924f928cc2ac818eb64fed8004e115fbcca67",
            "0x00000000000000000000000056c85a254dd12ee8d9c04049a4ab62769ce98210",
            "0x0000000000000000000000002d8879046f1559e53eb052e949e9544bcb72f414"
          ],
          "data": "0xffffffffffffffffffffffffffffffffffffffffffffffffffffffffeaa72c49000000000000000000000000000000000000000000000000000000001557bf8c0000000000000000000000000000000000000000fff7e4df86ef9cd18445170900000000000000000000000000000000000000000000000000228cdcfa15abccfffffffffffffffffffffffffffffffffffffffffffffffffffffffffffffffd",
          "blockHash": "0x7545112e54d80f7cfefd6d5bb1cdedc6b6495ed68e9c61380d5eef73bddad7ca",
          "blockNumber": "0x964b36",
          "blockTimestamp": "0x66f1b9f9",
          "transactionHash": "0x5fa7088d1aadb8a68f9cca2c9c04cb667cf4e4f6ec96e11c9912dd64061d8569",
          "transactionIndex": "0x0",
          "logIndex": "0x16",
          "removed": false
        },
        {
          "address": "0x176211869ca2b568f2a7d4ee941e073a821ee1ff",
          "topics": [
            "0xddf252ad1be2c89b69c2b068fc378daa952ba7f163c4a11628f55a4df523b3ef",
            "0x0000000000000000000000002d8879046f1559e53eb052e949e9544bcb72f414",
            "0x000000000000000000000000f39fd6e51aad88f6f4ce6ab8827279cfffb92266"
          ],
          "data": "0x000000000000000000000000000000000000000000000000000000009fcbed80",
          "blockHash": "0x7545112e54d80f7cfefd6d5bb1cdedc6b6495ed68e9c61380d5eef73bddad7ca",
          "blockNumber": "0x964b36",
          "blockTimestamp": "0x66f1b9f9",
          "transactionHash": "0x5fa7088d1aadb8a68f9cca2c9c04cb667cf4e4f6ec96e11c9912dd64061d8569",
          "transactionIndex": "0x0",
          "logIndex": "0x17",
          "removed": false
        },
        {
          "address": "0x2d8879046f1559e53eb052e949e9544bcb72f414",
          "topics": [
            "0x823eaf01002d7353fbcadb2ea3305cc46fa35d799cb0914846d185ac06f8ad05"
          ],
          "data": "0x000000000000000000000000f39fd6e51aad88f6f4ce6ab8827279cfffb922660000000000000000000000000000000000000000000000000de0b6b3a7640000000000000000000000000000e5d7c2a44ffddf6b295a15c148167daaaf5cf34f000000000000000000000000000000000000000000000000000000009fcbed80000000000000000000000000176211869ca2b568f2a7d4ee941e073a821ee1ffffffffffffffffffffffffffffffffffffffffffffffffffffffffffffdf5eeb0000000000000000000000000000000000000000000000000000000000000000",
          "blockHash": "0x7545112e54d80f7cfefd6d5bb1cdedc6b6495ed68e9c61380d5eef73bddad7ca",
          "blockNumber": "0x964b36",
          "blockTimestamp": "0x66f1b9f9",
          "transactionHash": "0x5fa7088d1aadb8a68f9cca2c9c04cb667cf4e4f6ec96e11c9912dd64061d8569",
          "transactionIndex": "0x0",
          "logIndex": "0x18",
          "removed": false
        }
      ],
      "logsBloom": "0x0008000000400000000000000008000000002010000000000000000000000000040000000000000420001000000280000000480004002004000410000400000004000000104008080008002802001000000000000000000020000001000080000080000200100000008000012400000184000000020000000000001000480000000002000008000000301080000000800000000000000000000008040000004000000010020000140000000008000000000000000000000100000000a22000000050000208000020000000408000100000020000a0000c0000000000000000000000000000000000000000000000000000100020020002000040080000000000",
      "type": "0x2",
      "transactionHash": "0x5fa7088d1aadb8a68f9cca2c9c04cb667cf4e4f6ec96e11c9912dd64061d8569",
      "transactionIndex": "0x0",
      "blockHash": "0x7545112e54d80f7cfefd6d5bb1cdedc6b6495ed68e9c61380d5eef73bddad7ca",
      "blockNumber": "0x964b36",
      "gasUsed": "0xf08ed",
      "effectiveGasPrice": "0x6e279c1",
      "blobGasPrice": "0x1",
      "from": "0xf39fd6e51aad88f6f4ce6ab8827279cfffb92266",
      "to": "0x2d8879046f1559e53eb052e949e9544bcb72f414",
      "contractAddress": null,
      "root": "0x0000000000000000000000000000000000000000000000000000000000000000"
    },
    {
      "status": "0x1",
      "cumulativeGasUsed": "0xeb1e",
      "logs": [
        {
          "address": "0x176211869ca2b568f2a7d4ee941e073a821ee1ff",
          "topics": [
            "0x8c5be1e5ebec7d5bd14f71427d1e84f3dd0314c0f7b2291e5b200ac8c7c3b925",
            "0x000000000000000000000000f39fd6e51aad88f6f4ce6ab8827279cfffb92266",
            "0x0000000000000000000000000b306bf915c4d645ff596e518faf3f9669b97016"
          ],
          "data": "0xffffffffffffffffffffffffffffffffffffffffffffffffffffffffffffffff",
          "blockHash": "0xf2ce4589d27060df6ce0692b218a55030f391ad75f5a1963e4575c1833725b12",
          "blockNumber": "0x964b37",
          "blockTimestamp": "0x66f1b9fa",
          "transactionHash": "0xc5019c33fa5d45f0711c9a0322042322c66df96b9b99cdf7fd9e30fae36ff8d0",
          "transactionIndex": "0x0",
          "logIndex": "0x0",
          "removed": false
        }
      ],
      "logsBloom": "0x00000000000000000000000000000008000000000000000000000000000000000000000000000000000000000000000000000800000000000004000000200000000000000000000000000000020000000000000000000000000000000000000000000000000000000000000300000000000000000000000000000000000000000000000000000000000000000000000000000000000000000000000000000000020000000000000000000000000000000000000000000000000000000000000000000000000000200000000000000000000000002000000000000000000000000010000000000000000000000400000000000000000000000000000000000000",
      "type": "0x2",
      "transactionHash": "0xc5019c33fa5d45f0711c9a0322042322c66df96b9b99cdf7fd9e30fae36ff8d0",
      "transactionIndex": "0x0",
      "blockHash": "0xf2ce4589d27060df6ce0692b218a55030f391ad75f5a1963e4575c1833725b12",
      "blockNumber": "0x964b37",
      "gasUsed": "0xeb1e",
      "effectiveGasPrice": "0x6e279c1",
      "blobGasPrice": "0x1",
      "from": "0xf39fd6e51aad88f6f4ce6ab8827279cfffb92266",
      "to": "0x176211869ca2b568f2a7d4ee941e073a821ee1ff",
      "contractAddress": null,
      "root": "0x0000000000000000000000000000000000000000000000000000000000000000"
    },
    {
      "status": "0x1",
      "cumulativeGasUsed": "0x1a03a",
      "logs": [
        {
          "address": "0xe5d7c2a44ffddf6b295a15c148167daaaf5cf34f",
          "topics": [
            "0x8c5be1e5ebec7d5bd14f71427d1e84f3dd0314c0f7b2291e5b200ac8c7c3b925",
            "0x000000000000000000000000f39fd6e51aad88f6f4ce6ab8827279cfffb92266",
            "0x0000000000000000000000000b306bf915c4d645ff596e518faf3f9669b97016"
          ],
          "data": "0xffffffffffffffffffffffffffffffffffffffffffffffffffffffffffffffff",
          "blockHash": "0xf2ce4589d27060df6ce0692b218a55030f391ad75f5a1963e4575c1833725b12",
          "blockNumber": "0x964b37",
          "blockTimestamp": "0x66f1b9fa",
          "transactionHash": "0x8d5474da527a35158b9190be806c867519b42afff41ab5b1568d86eb251d1adc",
          "transactionIndex": "0x1",
          "logIndex": "0x1",
          "removed": false
        }
      ],
      "logsBloom": "0x0000000000000000000000000000000800000000000000000000000000000000000000000000000000000000000000000000000000000000000000000020000000000000000000000000000000000000000000000000000000000000000000000000000000000000000000030000000000000000000000000000000000000000000000000000000000100000000000000000000000000000000000000000000002000000000000000000000000000000000000000000000000000000200000000000000000000020000000000000000000000000a000000000000000000000000010000000000000000000000400000000000000000000000000000000000000",
      "type": "0x2",
      "transactionHash": "0x8d5474da527a35158b9190be806c867519b42afff41ab5b1568d86eb251d1adc",
      "transactionIndex": "0x1",
      "blockHash": "0xf2ce4589d27060df6ce0692b218a55030f391ad75f5a1963e4575c1833725b12",
      "blockNumber": "0x964b37",
      "gasUsed": "0xb51c",
      "effectiveGasPrice": "0x6e279c1",
      "blobGasPrice": "0x1",
      "from": "0xf39fd6e51aad88f6f4ce6ab8827279cfffb92266",
      "to": "0xe5d7c2a44ffddf6b295a15c148167daaaf5cf34f",
      "contractAddress": null,
      "root": "0x0000000000000000000000000000000000000000000000000000000000000000"
    },
    {
      "status": "0x1",
      "cumulativeGasUsed": "0x23d9c",
      "logs": [
        {
          "address": "0x176211869ca2b568f2a7d4ee941e073a821ee1ff",
          "topics": [
            "0x8c5be1e5ebec7d5bd14f71427d1e84f3dd0314c0f7b2291e5b200ac8c7c3b925",
            "0x000000000000000000000000f39fd6e51aad88f6f4ce6ab8827279cfffb92266",
            "0x0000000000000000000000000b306bf915c4d645ff596e518faf3f9669b97016"
          ],
          "data": "0xffffffffffffffffffffffffffffffffffffffffffffffffffffffffffffffff",
          "blockHash": "0xf2ce4589d27060df6ce0692b218a55030f391ad75f5a1963e4575c1833725b12",
          "blockNumber": "0x964b37",
          "blockTimestamp": "0x66f1b9fa",
          "transactionHash": "0x21cc5f1bd260d926f0db3a8c9a7bf3518040d8d5bb909919871ab09ec095dbed",
          "transactionIndex": "0x2",
          "logIndex": "0x2",
          "removed": false
        }
      ],
      "logsBloom": "0x00000000000000000000000000000008000000000000000000000000000000000000000000000000000000000000000000000800000000000004000000200000000000000000000000000000020000000000000000000000000000000000000000000000000000000000000300000000000000000000000000000000000000000000000000000000000000000000000000000000000000000000000000000000020000000000000000000000000000000000000000000000000000000000000000000000000000200000000000000000000000002000000000000000000000000010000000000000000000000400000000000000000000000000000000000000",
      "type": "0x2",
      "transactionHash": "0x21cc5f1bd260d926f0db3a8c9a7bf3518040d8d5bb909919871ab09ec095dbed",
      "transactionIndex": "0x2",
      "blockHash": "0xf2ce4589d27060df6ce0692b218a55030f391ad75f5a1963e4575c1833725b12",
      "blockNumber": "0x964b37",
      "gasUsed": "0x9d62",
      "effectiveGasPrice": "0x6e279c1",
      "blobGasPrice": "0x1",
      "from": "0xf39fd6e51aad88f6f4ce6ab8827279cfffb92266",
      "to": "0x176211869ca2b568f2a7d4ee941e073a821ee1ff",
      "contractAddress": null,
      "root": "0x0000000000000000000000000000000000000000000000000000000000000000"
    },
    {
      "status": "0x1",
      "cumulativeGasUsed": "0x138124",
      "logs": [
        {
          "address": "0x9a9f2ccfde556a7e9ff0848998aa4a0cfd8863ae",
          "topics": [
            "0xddf252ad1be2c89b69c2b068fc378daa952ba7f163c4a11628f55a4df523b3ef",
            "0x0000000000000000000000000000000000000000000000000000000000000000",
            "0x000000000000000000000000f39fd6e51aad88f6f4ce6ab8827279cfffb92266",
            "0x0000000000000000000000000000000000000000000000000000000000000000"
          ],
          "data": "0x",
          "blockHash": "0xab64311a4b1ecff0a45e0055cef504b8f82b1de48c4bee01a6ebc0a3fb8a3875",
          "blockNumber": "0x964b38",
          "blockTimestamp": "0x66f1b9fb",
          "transactionHash": "0xa24d8b9bc03c71aa425f67a91d1bd150dcfc3e937f06a84891077c8d9b2f54d5",
          "transactionIndex": "0x0",
          "logIndex": "0x0",
          "removed": false
        },
        {
          "address": "0x176211869ca2b568f2a7d4ee941e073a821ee1ff",
          "topics": [
            "0xddf252ad1be2c89b69c2b068fc378daa952ba7f163c4a11628f55a4df523b3ef",
            "0x000000000000000000000000f39fd6e51aad88f6f4ce6ab8827279cfffb92266",
            "0x0000000000000000000000008ee06e608de47ea1b185583aca65e34f2fd79b13"
          ],
          "data": "0x0000000000000000000000000000000000000000000000000000000005f5e100",
          "blockHash": "0xab64311a4b1ecff0a45e0055cef504b8f82b1de48c4bee01a6ebc0a3fb8a3875",
          "blockNumber": "0x964b38",
          "blockTimestamp": "0x66f1b9fb",
          "transactionHash": "0xa24d8b9bc03c71aa425f67a91d1bd150dcfc3e937f06a84891077c8d9b2f54d5",
          "transactionIndex": "0x0",
          "logIndex": "0x1",
          "removed": false
        },
        {
          "address": "0x176211869ca2b568f2a7d4ee941e073a821ee1ff",
          "topics": [
            "0xddf252ad1be2c89b69c2b068fc378daa952ba7f163c4a11628f55a4df523b3ef",
            "0x0000000000000000000000002e207eca8b6bf77a6ac82763eeed2a94de4f081d",
            "0x0000000000000000000000008ee06e608de47ea1b185583aca65e34f2fd79b13"
          ],
          "data": "0x000000000000000000000000000000000000000000000000000000000bebc200",
          "blockHash": "0xab64311a4b1ecff0a45e0055cef504b8f82b1de48c4bee01a6ebc0a3fb8a3875",
          "blockNumber": "0x964b38",
          "blockTimestamp": "0x66f1b9fb",
          "transactionHash": "0xa24d8b9bc03c71aa425f67a91d1bd150dcfc3e937f06a84891077c8d9b2f54d5",
          "transactionIndex": "0x0",
          "logIndex": "0x2",
          "removed": false
        },
        {
          "address": "0x176211869ca2b568f2a7d4ee941e073a821ee1ff",
          "topics": [
            "0x8c5be1e5ebec7d5bd14f71427d1e84f3dd0314c0f7b2291e5b200ac8c7c3b925",
            "0x0000000000000000000000008ee06e608de47ea1b185583aca65e34f2fd79b13",
            "0x0000000000000000000000002d8879046f1559e53eb052e949e9544bcb72f414"
          ],
          "data": "0x0000000000000000000000000000000000000000000000000000000011e1a300",
          "blockHash": "0xab64311a4b1ecff0a45e0055cef504b8f82b1de48c4bee01a6ebc0a3fb8a3875",
          "blockNumber": "0x964b38",
          "blockTimestamp": "0x66f1b9fb",
          "transactionHash": "0xa24d8b9bc03c71aa425f67a91d1bd150dcfc3e937f06a84891077c8d9b2f54d5",
          "transactionIndex": "0x0",
          "logIndex": "0x3",
          "removed": false
        },
        {
          "address": "0x176211869ca2b568f2a7d4ee941e073a821ee1ff",
          "topics": [
            "0xddf252ad1be2c89b69c2b068fc378daa952ba7f163c4a11628f55a4df523b3ef",
            "0x0000000000000000000000008ee06e608de47ea1b185583aca65e34f2fd79b13",
            "0x00000000000000000000000056c85a254dd12ee8d9c04049a4ab62769ce98210"
          ],
          "data": "0x0000000000000000000000000000000000000000000000000000000011e1a300",
          "blockHash": "0xab64311a4b1ecff0a45e0055cef504b8f82b1de48c4bee01a6ebc0a3fb8a3875",
          "blockNumber": "0x964b38",
          "blockTimestamp": "0x66f1b9fb",
          "transactionHash": "0xa24d8b9bc03c71aa425f67a91d1bd150dcfc3e937f06a84891077c8d9b2f54d5",
          "transactionIndex": "0x0",
          "logIndex": "0x4",
          "removed": false
        },
        {
          "address": "0xe5d7c2a44ffddf6b295a15c148167daaaf5cf34f",
          "topics": [
            "0xddf252ad1be2c89b69c2b068fc378daa952ba7f163c4a11628f55a4df523b3ef",
            "0x0000000000000000000000007077f0cff76077d0ebb335b607db574400510557",
            "0x0000000000000000000000002d8879046f1559e53eb052e949e9544bcb72f414"
          ],
          "data": "0x00000000000000000000000000000000000000000000000000ab40b0084e22ac",
          "blockHash": "0xab64311a4b1ecff0a45e0055cef504b8f82b1de48c4bee01a6ebc0a3fb8a3875",
          "blockNumber": "0x964b38",
          "blockTimestamp": "0x66f1b9fb",
          "transactionHash": "0xa24d8b9bc03c71aa425f67a91d1bd150dcfc3e937f06a84891077c8d9b2f54d5",
          "transactionIndex": "0x0",
          "logIndex": "0x5",
          "removed": false
        },
        {
          "address": "0x176211869ca2b568f2a7d4ee941e073a821ee1ff",
          "topics": [
            "0xddf252ad1be2c89b69c2b068fc378daa952ba7f163c4a11628f55a4df523b3ef",
            "0x00000000000000000000000056c85a254dd12ee8d9c04049a4ab62769ce98210",
            "0x0000000000000000000000007077f0cff76077d0ebb335b607db574400510557"
          ],
          "data": "0x0000000000000000000000000000000000000000000000000000000007b67e56",
          "blockHash": "0xab64311a4b1ecff0a45e0055cef504b8f82b1de48c4bee01a6ebc0a3fb8a3875",
          "blockNumber": "0x964b38",
          "blockTimestamp": "0x66f1b9fb",
          "transactionHash": "0xa24d8b9bc03c71aa425f67a91d1bd150dcfc3e937f06a84891077c8d9b2f54d5",
          "transactionIndex": "0x0",
          "logIndex": "0x6",
          "removed": false
        },
        {
          "address": "0x7077f0cff76077d0ebb335b607db574400510557",
          "topics": [
            "0xc42079f94a6350d7e6235f29174924f928cc2ac818eb64fed8004e115fbcca67",
            "0x00000000000000000000000056c85a254dd12ee8d9c04049a4ab62769ce98210",
            "0x0000000000000000000000002d8879046f1559e53eb052e949e9544bcb72f414"
          ],
          "data": "0x0000000000000000000000000000000000000000000000000000000007b67e56ffffffffffffffffffffffffffffffffffffffffffffffffff54bf4ff7b1dd540000000000000000000000000000000000004b6445814132a27525ef47faa4ad0000000000000000000000000000000000000000000000000011129dd2a4391c00000000000000000000000000000000000000000000000000000000000302f7",
          "blockHash": "0xab64311a4b1ecff0a45e0055cef504b8f82b1de48c4bee01a6ebc0a3fb8a3875",
          "blockNumber": "0x964b38",
          "blockTimestamp": "0x66f1b9fb",
          "transactionHash": "0xa24d8b9bc03c71aa425f67a91d1bd150dcfc3e937f06a84891077c8d9b2f54d5",
          "transactionIndex": "0x0",
          "logIndex": "0x7",
          "removed": false
        },
        {
          "address": "0xe5d7c2a44ffddf6b295a15c148167daaaf5cf34f",
          "topics": [
            "0xddf252ad1be2c89b69c2b068fc378daa952ba7f163c4a11628f55a4df523b3ef",
            "0x0000000000000000000000005615a7b1619980f7d6b5e7f69f3dc093dfe0c95c",
            "0x0000000000000000000000002d8879046f1559e53eb052e949e9544bcb72f414"
          ],
          "data": "0x00000000000000000000000000000000000000000000000000e1c0b0a6fc8e00",
          "blockHash": "0xab64311a4b1ecff0a45e0055cef504b8f82b1de48c4bee01a6ebc0a3fb8a3875",
          "blockNumber": "0x964b38",
          "blockTimestamp": "0x66f1b9fb",
          "transactionHash": "0xa24d8b9bc03c71aa425f67a91d1bd150dcfc3e937f06a84891077c8d9b2f54d5",
          "transactionIndex": "0x0",
          "logIndex": "0x8",
          "removed": false
        },
        {
          "address": "0x176211869ca2b568f2a7d4ee941e073a821ee1ff",
          "topics": [
            "0xddf252ad1be2c89b69c2b068fc378daa952ba7f163c4a11628f55a4df523b3ef",
            "0x00000000000000000000000056c85a254dd12ee8d9c04049a4ab62769ce98210",
            "0x0000000000000000000000005615a7b1619980f7d6b5e7f69f3dc093dfe0c95c"
          ],
          "data": "0x000000000000000000000000000000000000000000000000000000000a2b24aa",
          "blockHash": "0xab64311a4b1ecff0a45e0055cef504b8f82b1de48c4bee01a6ebc0a3fb8a3875",
          "blockNumber": "0x964b38",
          "blockTimestamp": "0x66f1b9fb",
          "transactionHash": "0xa24d8b9bc03c71aa425f67a91d1bd150dcfc3e937f06a84891077c8d9b2f54d5",
          "transactionIndex": "0x0",
          "logIndex": "0x9",
          "removed": false
        },
        {
          "address": "0x5615a7b1619980f7d6b5e7f69f3dc093dfe0c95c",
          "topics": [
            "0x0fe977d619f8172f7fdbe8bb8928ef80952817d96936509f67d66346bc4cd10f",
            "0x000000000000000000000000176211869ca2b568f2a7d4ee941e073a821ee1ff",
            "0x000000000000000000000000e5d7c2a44ffddf6b295a15c148167daaaf5cf34f",
            "0x00000000000000000000000000000000000000000000000000000000000001f4"
          ],
          "data": "0x0000000000000000000000000000000000000000000000000000000000000001000000000000000000000000000000000000000000000000000000000a2b24aa00000000000000000000000000000000000000000000000000e1c0b0a6fc8e0000000000000000000000000000000000000000000000000000000000000302fb",
          "blockHash": "0xab64311a4b1ecff0a45e0055cef504b8f82b1de48c4bee01a6ebc0a3fb8a3875",
          "blockNumber": "0x964b38",
          "blockTimestamp": "0x66f1b9fb",
          "transactionHash": "0xa24d8b9bc03c71aa425f67a91d1bd150dcfc3e937f06a84891077c8d9b2f54d5",
          "transactionIndex": "0x0",
          "logIndex": "0xa",
          "removed": false
        },
        {
          "address": "0xe5d7c2a44ffddf6b295a15c148167daaaf5cf34f",
          "topics": [
            "0xddf252ad1be2c89b69c2b068fc378daa952ba7f163c4a11628f55a4df523b3ef",
            "0x0000000000000000000000002d8879046f1559e53eb052e949e9544bcb72f414",
            "0x0000000000000000000000008ee06e608de47ea1b185583aca65e34f2fd79b13"
          ],
          "data": "0x000000000000000000000000000000000000000000000000018cece6ccc47be0",
          "blockHash": "0xab64311a4b1ecff0a45e0055cef504b8f82b1de48c4bee01a6ebc0a3fb8a3875",
          "blockNumber": "0x964b38",
          "blockTimestamp": "0x66f1b9fb",
          "transactionHash": "0xa24d8b9bc03c71aa425f67a91d1bd150dcfc3e937f06a84891077c8d9b2f54d5",
          "transactionIndex": "0x0",
          "logIndex": "0xb",
          "removed": false
        },
        {
          "address": "0x2d8879046f1559e53eb052e949e9544bcb72f414",
          "topics": [
            "0x823eaf01002d7353fbcadb2ea3305cc46fa35d799cb0914846d185ac06f8ad05"
          ],
          "data": "0x0000000000000000000000008ee06e608de47ea1b185583aca65e34f2fd79b130000000000000000000000000000000000000000000000000000000011e1a300000000000000000000000000176211869ca2b568f2a7d4ee941e073a821ee1ff000000000000000000000000000000000000000000000000018cece6ccc47be0000000000000000000000000e5d7c2a44ffddf6b295a15c148167daaaf5cf34f00000000000000000000000000000000000000000000000000001479e28634cc0000000000000000000000000000000000000000000000000000000000000000",
          "blockHash": "0xab64311a4b1ecff0a45e0055cef504b8f82b1de48c4bee01a6ebc0a3fb8a3875",
          "blockNumber": "0x964b38",
          "blockTimestamp": "0x66f1b9fb",
          "transactionHash": "0xa24d8b9bc03c71aa425f67a91d1bd150dcfc3e937f06a84891077c8d9b2f54d5",
          "transactionIndex": "0x0",
          "logIndex": "0xc",
          "removed": false
        },
        {
          "address": "0xe5d7c2a44ffddf6b295a15c148167daaaf5cf34f",
          "topics": [
            "0x8c5be1e5ebec7d5bd14f71427d1e84f3dd0314c0f7b2291e5b200ac8c7c3b925",
            "0x0000000000000000000000008ee06e608de47ea1b185583aca65e34f2fd79b13",
            "0x0000000000000000000000002f9bb73a8e98793e26cb2f6c4ad037bdf1c6b269"
          ],
          "data": "0x000000000000000000000000000000000000000000000000018cece6ccc47be0",
          "blockHash": "0xab64311a4b1ecff0a45e0055cef504b8f82b1de48c4bee01a6ebc0a3fb8a3875",
          "blockNumber": "0x964b38",
          "blockTimestamp": "0x66f1b9fb",
          "transactionHash": "0xa24d8b9bc03c71aa425f67a91d1bd150dcfc3e937f06a84891077c8d9b2f54d5",
          "transactionIndex": "0x0",
          "logIndex": "0xd",
          "removed": false
        },
        {
          "address": "0x2f9bb73a8e98793e26cb2f6c4ad037bdf1c6b269",
          "topics": [
            "0x804c9b842b2748a22bb64b345453a3de7ca54a6ca45ce00d415894979e22897a",
            "0x000000000000000000000000e5d7c2a44ffddf6b295a15c148167daaaf5cf34f"
          ],
          "data": "0x0000000000000000000000000000000000000000000c14a7d27a65570e61890b0000000000000000000000000000000000000000002cd31e0ff079753d92eecb0000000000000000000000000000000000000000001bb9a50c63985e5c97765a0000000000000000000000000000000000000000035301c9ab549668ff07bd1c0000000000000000000000000000000000000000036018aaf2b89386f3856675",
          "blockHash": "0xab64311a4b1ecff0a45e0055cef504b8f82b1de48c4bee01a6ebc0a3fb8a3875",
          "blockNumber": "0x964b38",
          "blockTimestamp": "0x66f1b9fb",
          "transactionHash": "0xa24d8b9bc03c71aa425f67a91d1bd150dcfc3e937f06a84891077c8d9b2f54d5",
          "transactionIndex": "0x0",
          "logIndex": "0xe",
          "removed": false
        },
        {
          "address": "0xe5d7c2a44ffddf6b295a15c148167daaaf5cf34f",
          "topics": [
            "0xddf252ad1be2c89b69c2b068fc378daa952ba7f163c4a11628f55a4df523b3ef",
            "0x0000000000000000000000008ee06e608de47ea1b185583aca65e34f2fd79b13",
            "0x000000000000000000000000b4ffef15daf4c02787bc5332580b838ce39805f5"
          ],
          "data": "0x000000000000000000000000000000000000000000000000018cece6ccc47be0",
          "blockHash": "0xab64311a4b1ecff0a45e0055cef504b8f82b1de48c4bee01a6ebc0a3fb8a3875",
          "blockNumber": "0x964b38",
          "blockTimestamp": "0x66f1b9fb",
          "transactionHash": "0xa24d8b9bc03c71aa425f67a91d1bd150dcfc3e937f06a84891077c8d9b2f54d5",
          "transactionIndex": "0x0",
          "logIndex": "0xf",
          "removed": false
        },
        {
          "address": "0x28f6899ff643261ca9766ddc251b359a2d00b945",
          "topics": [
            "0x3303facd24627943a92e9dc87cfbb34b15c49b726eec3ad3487c16be9ab8efe8",
            "0x000000000000000000000000b4ffef15daf4c02787bc5332580b838ce39805f5",
            "0x00000000000000000000000040a59a3f3b16d9e74c811d24d8b7969664cfe180",
            "0x0000000000000000000000008ee06e608de47ea1b185583aca65e34f2fd79b13"
          ],
          "data": "0x000000000000000000000000000000000000000000004a6e6ce87410aa4b5006000000000000000000000000000000000000000000004a6e6ce87410aa4b50060000000000000000000000000000000000000000000000000000000000000000",
          "blockHash": "0xab64311a4b1ecff0a45e0055cef504b8f82b1de48c4bee01a6ebc0a3fb8a3875",
          "blockNumber": "0x964b38",
          "blockTimestamp": "0x66f1b9fb",
          "transactionHash": "0xa24d8b9bc03c71aa425f67a91d1bd150dcfc3e937f06a84891077c8d9b2f54d5",
          "transactionIndex": "0x0",
          "logIndex": "0x10",
          "removed": false
        },
        {
          "address": "0x28f6899ff643261ca9766ddc251b359a2d00b945",
          "topics": [
            "0x3303facd24627943a92e9dc87cfbb34b15c49b726eec3ad3487c16be9ab8efe8",
            "0x000000000000000000000000b4ffef15daf4c02787bc5332580b838ce39805f5",
            "0x00000000000000000000000078354f8dccb269a615a7e0a24f9b0718fdc3c7a7",
            "0x0000000000000000000000008ee06e608de47ea1b185583aca65e34f2fd79b13"
          ],
          "data": "0x00000000000000000000000000000000000000000000029caa60e3a34e68033d00000000000000000000000000000000000000000000029caa60e3a34e68033d0000000000000000000000000000000000000000000000000000000000000000",
          "blockHash": "0xab64311a4b1ecff0a45e0055cef504b8f82b1de48c4bee01a6ebc0a3fb8a3875",
          "blockNumber": "0x964b38",
          "blockTimestamp": "0x66f1b9fb",
          "transactionHash": "0xa24d8b9bc03c71aa425f67a91d1bd150dcfc3e937f06a84891077c8d9b2f54d5",
          "transactionIndex": "0x0",
          "logIndex": "0x11",
          "removed": false
        },
        {
          "address": "0xb4ffef15daf4c02787bc5332580b838ce39805f5",
          "topics": [
            "0xddf252ad1be2c89b69c2b068fc378daa952ba7f163c4a11628f55a4df523b3ef",
            "0x0000000000000000000000000000000000000000000000000000000000000000",
            "0x0000000000000000000000008ee06e608de47ea1b185583aca65e34f2fd79b13"
          ],
          "data": "0x000000000000000000000000000000000000000000000000018cece6ccc47be0",
          "blockHash": "0xab64311a4b1ecff0a45e0055cef504b8f82b1de48c4bee01a6ebc0a3fb8a3875",
          "blockNumber": "0x964b38",
          "blockTimestamp": "0x66f1b9fb",
          "transactionHash": "0xa24d8b9bc03c71aa425f67a91d1bd150dcfc3e937f06a84891077c8d9b2f54d5",
          "transactionIndex": "0x0",
          "logIndex": "0x12",
          "removed": false
        },
        {
          "address": "0xb4ffef15daf4c02787bc5332580b838ce39805f5",
          "topics": [
            "0x458f5fa412d0f69b08dd84872b0215675cc67bc1d5b6fd93300a1c3878b86196",
            "0x0000000000000000000000008ee06e608de47ea1b185583aca65e34f2fd79b13",
            "0x0000000000000000000000008ee06e608de47ea1b185583aca65e34f2fd79b13"
          ],
          "data": "0x000000000000000000000000000000000000000000000000018cece6ccc47be000000000000000000000000000000000000000000000000000000000000000000000000000000000000000000000000000000000035301c9ab549668ff07bd1c",
          "blockHash": "0xab64311a4b1ecff0a45e0055cef504b8f82b1de48c4bee01a6ebc0a3fb8a3875",
          "blockNumber": "0x964b38",
          "blockTimestamp": "0x66f1b9fb",
          "transactionHash": "0xa24d8b9bc03c71aa425f67a91d1bd150dcfc3e937f06a84891077c8d9b2f54d5",
          "transactionIndex": "0x0",
          "logIndex": "0x13",
          "removed": false
        },
        {
          "address": "0x2f9bb73a8e98793e26cb2f6c4ad037bdf1c6b269",
          "topics": [
            "0x00058a56ea94653cdf4f152d227ace22d4c00ad99e2a43f58cb7d9e3feb295f2",
            "0x000000000000000000000000e5d7c2a44ffddf6b295a15c148167daaaf5cf34f",
            "0x0000000000000000000000008ee06e608de47ea1b185583aca65e34f2fd79b13"
          ],
          "data": "0x",
          "blockHash": "0xab64311a4b1ecff0a45e0055cef504b8f82b1de48c4bee01a6ebc0a3fb8a3875",
          "blockNumber": "0x964b38",
          "blockTimestamp": "0x66f1b9fb",
          "transactionHash": "0xa24d8b9bc03c71aa425f67a91d1bd150dcfc3e937f06a84891077c8d9b2f54d5",
          "transactionIndex": "0x0",
          "logIndex": "0x14",
          "removed": false
        },
        {
          "address": "0x2f9bb73a8e98793e26cb2f6c4ad037bdf1c6b269",
          "topics": [
            "0x2b627736bca15cd5381dcf80b0bf11fd197d01a037c52b927a881a10fb73ba61",
            "0x000000000000000000000000e5d7c2a44ffddf6b295a15c148167daaaf5cf34f",
            "0x0000000000000000000000008ee06e608de47ea1b185583aca65e34f2fd79b13",
            "0x0000000000000000000000000000000000000000000000000000000000000000"
          ],
          "data": "0x0000000000000000000000008ee06e608de47ea1b185583aca65e34f2fd79b13000000000000000000000000000000000000000000000000018cece6ccc47be0",
          "blockHash": "0xab64311a4b1ecff0a45e0055cef504b8f82b1de48c4bee01a6ebc0a3fb8a3875",
          "blockNumber": "0x964b38",
          "blockTimestamp": "0x66f1b9fb",
          "transactionHash": "0xa24d8b9bc03c71aa425f67a91d1bd150dcfc3e937f06a84891077c8d9b2f54d5",
          "transactionIndex": "0x0",
          "logIndex": "0x15",
          "removed": false
        },
        {
          "address": "0x28f6899ff643261ca9766ddc251b359a2d00b945",
          "topics": [
            "0x3303facd24627943a92e9dc87cfbb34b15c49b726eec3ad3487c16be9ab8efe8",
            "0x000000000000000000000000a2703dc9fbaccd6ec2e4cbfa700989d0238133f6",
            "0x00000000000000000000000040a59a3f3b16d9e74c811d24d8b7969664cfe180",
            "0x0000000000000000000000008ee06e608de47ea1b185583aca65e34f2fd79b13"
          ],
          "data": "0x0000000000000000000000000000000000000000000000053f69899e410bb3ed0000000000000000000000000000000000000000000000053f69899e410bb3ed0000000000000000000000000000000000000000000000000000000000000000",
          "blockHash": "0xab64311a4b1ecff0a45e0055cef504b8f82b1de48c4bee01a6ebc0a3fb8a3875",
          "blockNumber": "0x964b38",
          "blockTimestamp": "0x66f1b9fb",
          "transactionHash": "0xa24d8b9bc03c71aa425f67a91d1bd150dcfc3e937f06a84891077c8d9b2f54d5",
          "transactionIndex": "0x0",
          "logIndex": "0x16",
          "removed": false
        },
        {
          "address": "0x28f6899ff643261ca9766ddc251b359a2d00b945",
          "topics": [
            "0x3303facd24627943a92e9dc87cfbb34b15c49b726eec3ad3487c16be9ab8efe8",
            "0x000000000000000000000000a2703dc9fbaccd6ec2e4cbfa700989d0238133f6",
            "0x00000000000000000000000078354f8dccb269a615a7e0a24f9b0718fdc3c7a7",
            "0x0000000000000000000000008ee06e608de47ea1b185583aca65e34f2fd79b13"
          ],
          "data": "0x00000000000000000000000000000000000000000000000196c1790102c378b600000000000000000000000000000000000000000000000196c1790102c378b60000000000000000000000000000000000000000000000000000000000000000",
          "blockHash": "0xab64311a4b1ecff0a45e0055cef504b8f82b1de48c4bee01a6ebc0a3fb8a3875",
          "blockNumber": "0x964b38",
          "blockTimestamp": "0x66f1b9fb",
          "transactionHash": "0xa24d8b9bc03c71aa425f67a91d1bd150dcfc3e937f06a84891077c8d9b2f54d5",
          "transactionIndex": "0x0",
          "logIndex": "0x17",
          "removed": false
        },
        {
          "address": "0xa2703dc9fbaccd6ec2e4cbfa700989d0238133f6",
          "topics": [
            "0xddf252ad1be2c89b69c2b068fc378daa952ba7f163c4a11628f55a4df523b3ef",
            "0x0000000000000000000000000000000000000000000000000000000000000000",
            "0x0000000000000000000000008ee06e608de47ea1b185583aca65e34f2fd79b13"
          ],
          "data": "0x000000000000000000000000000000000000000000000000000000000bed48a0",
          "blockHash": "0xab64311a4b1ecff0a45e0055cef504b8f82b1de48c4bee01a6ebc0a3fb8a3875",
          "blockNumber": "0x964b38",
          "blockTimestamp": "0x66f1b9fb",
          "transactionHash": "0xa24d8b9bc03c71aa425f67a91d1bd150dcfc3e937f06a84891077c8d9b2f54d5",
          "transactionIndex": "0x0",
          "logIndex": "0x18",
          "removed": false
        },
        {
          "address": "0xa2703dc9fbaccd6ec2e4cbfa700989d0238133f6",
          "topics": [
            "0x458f5fa412d0f69b08dd84872b0215675cc67bc1d5b6fd93300a1c3878b86196",
            "0x0000000000000000000000008ee06e608de47ea1b185583aca65e34f2fd79b13",
            "0x0000000000000000000000008ee06e608de47ea1b185583aca65e34f2fd79b13"
          ],
          "data": "0x000000000000000000000000000000000000000000000000000000000bed48a000000000000000000000000000000000000000000000000000000000000000000000000000000000000000000000000000000000036d35dd6831c5f810046817",
          "blockHash": "0xab64311a4b1ecff0a45e0055cef504b8f82b1de48c4bee01a6ebc0a3fb8a3875",
          "blockNumber": "0x964b38",
          "blockTimestamp": "0x66f1b9fb",
          "transactionHash": "0xa24d8b9bc03c71aa425f67a91d1bd150dcfc3e937f06a84891077c8d9b2f54d5",
          "transactionIndex": "0x0",
          "logIndex": "0x19",
          "removed": false
        },
        {
          "address": "0x2f9bb73a8e98793e26cb2f6c4ad037bdf1c6b269",
          "topics": [
            "0x804c9b842b2748a22bb64b345453a3de7ca54a6ca45ce00d415894979e22897a",
            "0x000000000000000000000000176211869ca2b568f2a7d4ee941e073a821ee1ff"
          ],
          "data": "0x000000000000000000000000000000000000000000511d63bc836c851208ce7800000000000000000000000000000000000000000093f4ca1465779e77c296ec000000000000000000000000000000000000000000878c6a734775b208c296ec0000000000000000000000000000000000000000035eb19ee8737b328075ff3f0000000000000000000000000000000000000000036d35dd6831c5f810046817",
          "blockHash": "0xab64311a4b1ecff0a45e0055cef504b8f82b1de48c4bee01a6ebc0a3fb8a3875",
          "blockNumber": "0x964b38",
          "blockTimestamp": "0x66f1b9fb",
          "transactionHash": "0xa24d8b9bc03c71aa425f67a91d1bd150dcfc3e937f06a84891077c8d9b2f54d5",
          "transactionIndex": "0x0",
          "logIndex": "0x1a",
          "removed": false
        },
        {
          "address": "0x176211869ca2b568f2a7d4ee941e073a821ee1ff",
          "topics": [
            "0xddf252ad1be2c89b69c2b068fc378daa952ba7f163c4a11628f55a4df523b3ef",
            "0x0000000000000000000000002e207eca8b6bf77a6ac82763eeed2a94de4f081d",
            "0x0000000000000000000000008ee06e608de47ea1b185583aca65e34f2fd79b13"
          ],
          "data": "0x000000000000000000000000000000000000000000000000000000000bed48a0",
          "blockHash": "0xab64311a4b1ecff0a45e0055cef504b8f82b1de48c4bee01a6ebc0a3fb8a3875",
          "blockNumber": "0x964b38",
          "blockTimestamp": "0x66f1b9fb",
          "transactionHash": "0xa24d8b9bc03c71aa425f67a91d1bd150dcfc3e937f06a84891077c8d9b2f54d5",
          "transactionIndex": "0x0",
          "logIndex": "0x1b",
          "removed": false
        },
        {
          "address": "0x2f9bb73a8e98793e26cb2f6c4ad037bdf1c6b269",
          "topics": [
            "0xb3d084820fb1a9decffb176436bd02558d15fac9b0ddfed8c465bc7359d7dce0",
            "0x000000000000000000000000176211869ca2b568f2a7d4ee941e073a821ee1ff",
            "0x0000000000000000000000008ee06e608de47ea1b185583aca65e34f2fd79b13",
            "0x0000000000000000000000000000000000000000000000000000000000000000"
          ],
          "data": "0x0000000000000000000000008ee06e608de47ea1b185583aca65e34f2fd79b13000000000000000000000000000000000000000000000000000000000bed48a00000000000000000000000000000000000000000000000000000000000000002000000000000000000000000000000000000000000878c6a734775b208c296ec",
          "blockHash": "0xab64311a4b1ecff0a45e0055cef504b8f82b1de48c4bee01a6ebc0a3fb8a3875",
          "blockNumber": "0x964b38",
          "blockTimestamp": "0x66f1b9fb",
          "transactionHash": "0xa24d8b9bc03c71aa425f67a91d1bd150dcfc3e937f06a84891077c8d9b2f54d5",
          "transactionIndex": "0x0",
          "logIndex": "0x1c",
          "removed": false
        },
        {
          "address": "0x176211869ca2b568f2a7d4ee941e073a821ee1ff",
          "topics": [
            "0x8c5be1e5ebec7d5bd14f71427d1e84f3dd0314c0f7b2291e5b200ac8c7c3b925",
            "0x0000000000000000000000008ee06e608de47ea1b185583aca65e34f2fd79b13",
            "0x0000000000000000000000002d8879046f1559e53eb052e949e9544bcb72f414"
          ],
          "data": "0x0000000000000000000000000000000000000000000000000000000000000000",
          "blockHash": "0xab64311a4b1ecff0a45e0055cef504b8f82b1de48c4bee01a6ebc0a3fb8a3875",
          "blockNumber": "0x964b38",
          "blockTimestamp": "0x66f1b9fb",
          "transactionHash": "0xa24d8b9bc03c71aa425f67a91d1bd150dcfc3e937f06a84891077c8d9b2f54d5",
          "transactionIndex": "0x0",
          "logIndex": "0x1d",
          "removed": false
        },
        {
          "address": "0xe5d7c2a44ffddf6b295a15c148167daaaf5cf34f",
          "topics": [
            "0x8c5be1e5ebec7d5bd14f71427d1e84f3dd0314c0f7b2291e5b200ac8c7c3b925",
            "0x0000000000000000000000008ee06e608de47ea1b185583aca65e34f2fd79b13",
            "0x0000000000000000000000002f9bb73a8e98793e26cb2f6c4ad037bdf1c6b269"
          ],
          "data": "0x0000000000000000000000000000000000000000000000000000000000000000",
          "blockHash": "0xab64311a4b1ecff0a45e0055cef504b8f82b1de48c4bee01a6ebc0a3fb8a3875",
          "blockNumber": "0x964b38",
          "blockTimestamp": "0x66f1b9fb",
          "transactionHash": "0xa24d8b9bc03c71aa425f67a91d1bd150dcfc3e937f06a84891077c8d9b2f54d5",
          "transactionIndex": "0x0",
          "logIndex": "0x1e",
          "removed": false
        },
        {
          "address": "0x176211869ca2b568f2a7d4ee941e073a821ee1ff",
          "topics": [
            "0x8c5be1e5ebec7d5bd14f71427d1e84f3dd0314c0f7b2291e5b200ac8c7c3b925",
            "0x0000000000000000000000008ee06e608de47ea1b185583aca65e34f2fd79b13",
            "0x0000000000000000000000002f9bb73a8e98793e26cb2f6c4ad037bdf1c6b269"
          ],
          "data": "0x000000000000000000000000000000000000000000000000000000000bed48a0",
          "blockHash": "0xab64311a4b1ecff0a45e0055cef504b8f82b1de48c4bee01a6ebc0a3fb8a3875",
          "blockNumber": "0x964b38",
          "blockTimestamp": "0x66f1b9fb",
          "transactionHash": "0xa24d8b9bc03c71aa425f67a91d1bd150dcfc3e937f06a84891077c8d9b2f54d5",
          "transactionIndex": "0x0",
          "logIndex": "0x1f",
          "removed": false
        },
        {
          "address": "0x2f9bb73a8e98793e26cb2f6c4ad037bdf1c6b269",
          "topics": [
            "0x804c9b842b2748a22bb64b345453a3de7ca54a6ca45ce00d415894979e22897a",
            "0x000000000000000000000000176211869ca2b568f2a7d4ee941e073a821ee1ff"
          ],
          "data": "0x000000000000000000000000000000000000000000511055484c7863b1edd83500000000000000000000000000000000000000000093df996e9fa63d30e2f040000000000000000000000000000000000000000000877739cd81a450c1e2f0400000000000000000000000000000000000000000035eb19f6b6e43348e8b84e50000000000000000000000000000000000000000036d35dd6831c5f810046817",
          "blockHash": "0xab64311a4b1ecff0a45e0055cef504b8f82b1de48c4bee01a6ebc0a3fb8a3875",
          "blockNumber": "0x964b38",
          "blockTimestamp": "0x66f1b9fb",
          "transactionHash": "0xa24d8b9bc03c71aa425f67a91d1bd150dcfc3e937f06a84891077c8d9b2f54d5",
          "transactionIndex": "0x0",
          "logIndex": "0x20",
          "removed": false
        },
        {
          "address": "0x176211869ca2b568f2a7d4ee941e073a821ee1ff",
          "topics": [
            "0xddf252ad1be2c89b69c2b068fc378daa952ba7f163c4a11628f55a4df523b3ef",
            "0x0000000000000000000000008ee06e608de47ea1b185583aca65e34f2fd79b13",
            "0x0000000000000000000000002e207eca8b6bf77a6ac82763eeed2a94de4f081d"
          ],
          "data": "0x000000000000000000000000000000000000000000000000000000000bed48a0",
          "blockHash": "0xab64311a4b1ecff0a45e0055cef504b8f82b1de48c4bee01a6ebc0a3fb8a3875",
          "blockNumber": "0x964b38",
          "blockTimestamp": "0x66f1b9fb",
          "transactionHash": "0xa24d8b9bc03c71aa425f67a91d1bd150dcfc3e937f06a84891077c8d9b2f54d5",
          "transactionIndex": "0x0",
          "logIndex": "0x21",
          "removed": false
        },
        {
          "address": "0x2f9bb73a8e98793e26cb2f6c4ad037bdf1c6b269",
          "topics": [
            "0xefefaba5e921573100900a3ad9cf29f222d995fb3b6045797eaea7521bd8d6f0",
            "0x0000000000000000000000008ee06e608de47ea1b185583aca65e34f2fd79b13",
            "0x000000000000000000000000176211869ca2b568f2a7d4ee941e073a821ee1ff",
            "0x0000000000000000000000000000000000000000000000000000000000000000"
          ],
          "data": "0x0000000000000000000000008ee06e608de47ea1b185583aca65e34f2fd79b13000000000000000000000000000000000000000000000000000000000bebc200000000000000000000000000000000000000000000000000000000000000000000000000000000000000000000000000000000000000000000000000000186a0",
          "blockHash": "0xab64311a4b1ecff0a45e0055cef504b8f82b1de48c4bee01a6ebc0a3fb8a3875",
          "blockNumber": "0x964b38",
          "blockTimestamp": "0x66f1b9fb",
          "transactionHash": "0xa24d8b9bc03c71aa425f67a91d1bd150dcfc3e937f06a84891077c8d9b2f54d5",
          "transactionIndex": "0x0",
          "logIndex": "0x22",
          "removed": false
        }
      ],
      "logsBloom": "0x01000000000009040080000000000000008000004000000000000000000000000c00a00120000804000010800004000000104800001020140004010000200000080002200000000800080008020000002040000000000002200000040040000000000002021000000080000120000801804000001000000001000010204c0000000002008008000800100004000000200000000000000000008000040000004002080000020000140000000002000010000000000010080100004000a0000100025000020000012000000020c000000000020000a200060000000000000028000010200000008020000000000001000040000020000002000040400000100000",
      "type": "0x2",
      "transactionHash": "0xa24d8b9bc03c71aa425f67a91d1bd150dcfc3e937f06a84891077c8d9b2f54d5",
      "transactionIndex": "0x0",
      "blockHash": "0xab64311a4b1ecff0a45e0055cef504b8f82b1de48c4bee01a6ebc0a3fb8a3875",
      "blockNumber": "0x964b38",
      "gasUsed": "0x138124",
      "effectiveGasPrice": "0x6e279c1",
      "blobGasPrice": "0x1",
      "from": "0xf39fd6e51aad88f6f4ce6ab8827279cfffb92266",
      "to": "0x0b306bf915c4d645ff596e518faf3f9669b97016",
      "contractAddress": null,
      "root": "0x0000000000000000000000000000000000000000000000000000000000000000"
    }
  ],
  "libraries": [],
  "pending": [],
  "returns": {},
  "timestamp": 1727117817,
  "chain": 59144,
  "commit": "a0c2ae3"
}