{
  "transactions": [
    {
      "hash": "0x8fe6e84412351d46e157f09ecd1121a64eb9a075a8629b500439dd77f8996cab",
      "transactionType": "CALL",
      "contractName": null,
      "contractAddress": "0xe5d7c2a44ffddf6b295a15c148167daaaf5cf34f",
      "function": "deposit()",
      "arguments": [],
      "transaction": {
        "from": "0xf39fd6e51aad88f6f4ce6ab8827279cfffb92266",
        "to": "0xe5d7c2a44ffddf6b295a15c148167daaaf5cf34f",
        "gas": "0xf2ff",
        "value": "0xde0b6b3a7640000",
        "input": "0xd0e30db0",
        "nonce": "0x1f",
        "chainId": "0xe708"
      },
      "additionalContracts": [],
      "isFixedGasLimit": false
    },
    {
      "hash": "0xcee0eb0e34aa1c1d1dcf8f6929c248a2562a02083d6e5349e6ab71c2c751279b",
      "transactionType": "CALL",
      "contractName": null,
      "contractAddress": "0xe5d7c2a44ffddf6b295a15c148167daaaf5cf34f",
      "function": "approve(address,uint256)",
      "arguments": [
        "0x2d8879046f1559E53eb052E949e9544bCB72f414",
        "115792089237316195423570985008687907853269984665640564039457584007913129639935"
      ],
      "transaction": {
        "from": "0xf39fd6e51aad88f6f4ce6ab8827279cfffb92266",
        "to": "0xe5d7c2a44ffddf6b295a15c148167daaaf5cf34f",
        "gas": "0xfa27",
        "value": "0x0",
        "input": "0x095ea7b30000000000000000000000002d8879046f1559e53eb052e949e9544bcb72f414ffffffffffffffffffffffffffffffffffffffffffffffffffffffffffffffff",
        "nonce": "0x20",
        "chainId": "0xe708"
      },
      "additionalContracts": [],
      "isFixedGasLimit": false
    },
    {
      "hash": "0x5b347ba4d98cf06133573838b607d849b0164c8f5511919deb1d84dd3dd77c36",
      "transactionType": "CALL",
      "contractName": null,
      "contractAddress": "0x2d8879046f1559e53eb052e949e9544bcb72f414",
      "function": null,
      "arguments": null,
      "transaction": {
        "from": "0xf39fd6e51aad88f6f4ce6ab8827279cfffb92266",
        "to": "0x2d8879046f1559e53eb052e949e9544bcb72f414",
        "gas": "0x13e3b4",
        "value": "0x0",
        "input": "0x83bd37f90001e5d7c2a44ffddf6b295a15c148167daaaf5cf34f0001176211869ca2b568f2a7d4ee941e073a821ee1ff080de0b6b3a7640000049dd7c067028f5c000156c85a254dd12ee8d9c04049a4ab62769ce9821000000001f39fd6e51aad88f6f4ce6ab8827279cfffb922660000000007020308019481ce0c0a0101010200017060e6b00a010103020001b75b59d10a0200040200000a0200050200040a0101060700ff0000000000000000000000000064bccad8e7302e81b09894f56f6bba85ae82cd03e5d7c2a44ffddf6b295a15c148167daaaf5cf34f586733678b9ac9da43dd7cb83bbb41d23677dfc327ed78122b8ef363f4ef5b3afe197e0c4a2fa5141947b87d35e9f1cd53cede1ad6f7be44c12212b86e9ad0b8a41e2c148e7b0385d3ecbfdb8a216a9ba219439258ca9da29e9cc4ce5596924745e12b930000000000000000000000000000000000000000",
        "nonce": "0x21",
        "chainId": "0xe708"
      },
      "additionalContracts": [],
      "isFixedGasLimit": false
    },
    {
      "hash": "0xa6089f00d8c037bf26a06cb01be7b5ed2d69dd71d1c10c19facc6687773dba24",
      "transactionType": "CALL",
      "contractName": null,
      "contractAddress": "0xe5d7c2a44ffddf6b295a15c148167daaaf5cf34f",
      "function": "approve(address,uint256)",
      "arguments": [
        "0x0B306BF915C4d645ff596e518fAf3F9669b97016",
        "115792089237316195423570985008687907853269984665640564039457584007913129639935"
      ],
      "transaction": {
        "from": "0xf39fd6e51aad88f6f4ce6ab8827279cfffb92266",
        "to": "0xe5d7c2a44ffddf6b295a15c148167daaaf5cf34f",
        "gas": "0xfa27",
        "value": "0x0",
        "input": "0x095ea7b30000000000000000000000000b306bf915c4d645ff596e518faf3f9669b97016ffffffffffffffffffffffffffffffffffffffffffffffffffffffffffffffff",
        "nonce": "0x22",
        "chainId": "0xe708"
      },
      "additionalContracts": [],
      "isFixedGasLimit": false
    },
    {
      "hash": "0x3204e114d0e0dc93ac0395f0e16c0a59b7be3e18667b2694025cb4159659b6cd",
      "transactionType": "CALL",
      "contractName": null,
      "contractAddress": "0x176211869ca2b568f2a7d4ee941e073a821ee1ff",
      "function": "approve(address,uint256)",
      "arguments": [
        "0x0B306BF915C4d645ff596e518fAf3F9669b97016",
        "115792089237316195423570985008687907853269984665640564039457584007913129639935"
      ],
      "transaction": {
        "from": "0xf39fd6e51aad88f6f4ce6ab8827279cfffb92266",
        "to": "0x176211869ca2b568f2a7d4ee941e073a821ee1ff",
        "gas": "0x144c0",
        "value": "0x0",
        "input": "0x095ea7b30000000000000000000000000b306bf915c4d645ff596e518faf3f9669b97016ffffffffffffffffffffffffffffffffffffffffffffffffffffffffffffffff",
        "nonce": "0x23",
        "chainId": "0xe708"
      },
      "additionalContracts": [],
      "isFixedGasLimit": false
    },
    {
      "hash": "0xe424bed3400e2bc39164f8a74d369e7957adfbed80921123c94ad5203ba39dcc",
      "transactionType": "CALL",
      "contractName": null,
      "contractAddress": "0x0b306bf915c4d645ff596e518faf3f9669b97016",
      "function": "createAndAddToPosition((string,address,address),(uint256,uint256,bytes))",
      "arguments": [
        "(\"LONG_QUOTE_ODOS_ZEROLEND\", 0x176211869cA2b568f2A7D4EE941E073a821EE1ff, 0xe5D7C2a44FfDDf6b295A15c148167daaAf5Cf34f)",
        "(100000000, 300000000, 0x83bd37f90001176211869ca2b568f2a7d4ee941e073a821ee1ff0001e5d7c2a44ffddf6b295a15c148167daaaf5cf34f0417d7840008021845aa2b08c340028f5c000156c85a254dd12ee8d9c04049a4ab62769ce98210000000018ee06e608de47ea1b185583aca65e34f2fd79b130000000003010204018a874ab40a0101010201000a0101030201ff00000000000000000000586733678b9ac9da43dd7cb83bbb41d23677dfc3176211869ca2b568f2a7d4ee941e073a821ee1ff7077f0cff76077d0ebb335b607db57440051055700000000)"
      ],
      "transaction": {
        "from": "0xf39fd6e51aad88f6f4ce6ab8827279cfffb92266",
        "to": "0x0b306bf915c4d645ff596e518faf3f9669b97016",
        "gas": "0x1a4325",
        "value": "0x0",
        "input": "0x211d9b04000000000000000000000000000000000000000000000000000000000000004000000000000000000000000000000000000000000000000000000000000000e00000000000000000000000000000000000000000000000000000000000000060000000000000000000000000176211869ca2b568f2a7d4ee941e073a821ee1ff000000000000000000000000e5d7c2a44ffddf6b295a15c148167daaaf5cf34f00000000000000000000000000000000000000000000000000000000000000184c4f4e475f51554f54455f4f444f535f5a45524f4c454e4400000000000000000000000000000000000000000000000000000000000000000000000005f5e1000000000000000000000000000000000000000000000000000000000011e1a300000000000000000000000000000000000000000000000000000000000000006000000000000000000000000000000000000000000000000000000000000000d483bd37f90001176211869ca2b568f2a7d4ee941e073a821ee1ff0001e5d7c2a44ffddf6b295a15c148167daaaf5cf34f0417d7840008021845aa2b08c340028f5c000156c85a254dd12ee8d9c04049a4ab62769ce98210000000018ee06e608de47ea1b185583aca65e34f2fd79b130000000003010204018a874ab40a0101010201000a0101030201ff00000000000000000000586733678b9ac9da43dd7cb83bbb41d23677dfc3176211869ca2b568f2a7d4ee941e073a821ee1ff7077f0cff76077d0ebb335b607db57440051055700000000000000000000000000000000",
        "nonce": "0x24",
        "chainId": "0xe708"
      },
      "additionalContracts": [
        {
          "transactionType": "CREATE2",
          "address": "0x8ee06e608de47ea1b185583aca65e34f2fd79b13",
          "initCode": "0x60a060405234801561001057600080fd5b506040516101d43803806101d483398101604081905261002f9161009a565b6001600160a01b0381166100895760405162461bcd60e51b815260206004820152601e60248201527f496e76616c696420696d706c656d656e746174696f6e20616464726573730000604482015260640160405180910390fd5b6001600160a01b03166080526100ca565b6000602082840312156100ac57600080fd5b81516001600160a01b03811681146100c357600080fd5b9392505050565b60805160ec6100e860003960008181602001526055015260ec6000f3fe608060405260043610601c5760003560e01c80635c60da1b146045575b60437f00000000000000000000000000000000000000000000000000000000000000006093565b005b348015605057600080fd5b5060777f000000000000000000000000000000000000000000000000000000000000000081565b6040516001600160a01b03909116815260200160405180910390f35b3660008037600080366000845af43d6000803e80801560b1573d6000f35b3d6000fdfea2646970667358221220ece5f241c936be627b009529639055436949a725352d983e1257a877a1e6225564736f6c6343000819003300000000000000000000000068b1d87f95878fe05b998f19b66f4baba5de1aed"
        }
      ],
      "isFixedGasLimit": false
    }
  ],
  "receipts": [
    {
      "status": "0x1",
      "cumulativeGasUsed": "0xafee",
      "logs": [
        {
          "address": "0xe5d7c2a44ffddf6b295a15c148167daaaf5cf34f",
          "topics": [
            "0xe1fffcc4923d04b559f4d29a8bfc6cda04eb5b0d3c460751c2402c5c5cc9109c",
            "0x000000000000000000000000f39fd6e51aad88f6f4ce6ab8827279cfffb92266"
          ],
          "data": "0x0000000000000000000000000000000000000000000000000de0b6b3a7640000",
          "blockHash": "0xc43771d852b99ffa983cc4a4dfefaa09d0e149933356608bb0a8d7434fdef9c7",
          "blockNumber": "0x98b5b4",
          "blockTimestamp": "0x66f69c0b",
          "transactionHash": "0x8fe6e84412351d46e157f09ecd1121a64eb9a075a8629b500439dd77f8996cab",
          "transactionIndex": "0x0",
          "logIndex": "0x0",
          "removed": false
        }
      ],
      "logsBloom": "0x0000000000000000000000000000000000000000000000000000000000000000000000000000000000000000000000000000000000000000000000000000000000000000000000000000000000000000000000000000000000000000800000000000000000000000000000010000000000000000000000000000000000000000000000000000000000100000000000000000000100000000000000000000000000000000000000000000000000000000000000000000000000000000200000000000000000000020000000000000000000000000a000000000000000000000000000000000000000000000000000000000000000000000400000000000000000",
      "type": "0x2",
      "transactionHash": "0x8fe6e84412351d46e157f09ecd1121a64eb9a075a8629b500439dd77f8996cab",
      "transactionIndex": "0x0",
      "blockHash": "0xc43771d852b99ffa983cc4a4dfefaa09d0e149933356608bb0a8d7434fdef9c7",
      "blockNumber": "0x98b5b4",
      "gasUsed": "0xafee",
      "effectiveGasPrice": "0x57bcf00",
      "blobGasPrice": "0x1",
      "from": "0xf39fd6e51aad88f6f4ce6ab8827279cfffb92266",
      "to": "0xe5d7c2a44ffddf6b295a15c148167daaaf5cf34f",
      "contractAddress": null,
      "root": "0x0000000000000000000000000000000000000000000000000000000000000000"
    },
    {
      "status": "0x1",
      "cumulativeGasUsed": "0xb51c",
      "logs": [
        {
          "address": "0xe5d7c2a44ffddf6b295a15c148167daaaf5cf34f",
          "topics": [
            "0x8c5be1e5ebec7d5bd14f71427d1e84f3dd0314c0f7b2291e5b200ac8c7c3b925",
            "0x000000000000000000000000f39fd6e51aad88f6f4ce6ab8827279cfffb92266",
            "0x0000000000000000000000002d8879046f1559e53eb052e949e9544bcb72f414"
          ],
          "data": "0xffffffffffffffffffffffffffffffffffffffffffffffffffffffffffffffff",
          "blockHash": "0x131261c79f40047b67bb951d2b9a9313845ecf4d4d9e856e322273ff1612fb80",
          "blockNumber": "0x98b5b5",
          "blockTimestamp": "0x66f69c0c",
          "transactionHash": "0xcee0eb0e34aa1c1d1dcf8f6929c248a2562a02083d6e5349e6ab71c2c751279b",
          "transactionIndex": "0x0",
          "logIndex": "0x0",
          "removed": false
        }
      ],
      "logsBloom": "0x0000000000000000000000000000000000000000000000000000000000000000000000000000000000001000000000000000000000000000000000000020000000000000000000000000000000000000000000000000000000000000000000000000000000000000008000010000000000000000000000000000000000000000000000000000000000100000000000000000000000000000000000000000000002000000020000000000000000000000000000000000000000000000200000000000000000000020000000000000000000000000a000000000000000000000000010000000000000000000000000000000000000000000000000000000000000",
      "type": "0x2",
      "transactionHash": "0xcee0eb0e34aa1c1d1dcf8f6929c248a2562a02083d6e5349e6ab71c2c751279b",
      "transactionIndex": "0x0",
      "blockHash": "0x131261c79f40047b67bb951d2b9a9313845ecf4d4d9e856e322273ff1612fb80",
      "blockNumber": "0x98b5b5",
      "gasUsed": "0xb51c",
      "effectiveGasPrice": "0x57bcf00",
      "blobGasPrice": "0x1",
      "from": "0xf39fd6e51aad88f6f4ce6ab8827279cfffb92266",
      "to": "0xe5d7c2a44ffddf6b295a15c148167daaaf5cf34f",
      "contractAddress": null,
      "root": "0x0000000000000000000000000000000000000000000000000000000000000000"
    },
    {
      "status": "0x1",
      "cumulativeGasUsed": "0xe4ef3",
      "logs": [
        {
          "address": "0xe5d7c2a44ffddf6b295a15c148167daaaf5cf34f",
          "topics": [
            "0xddf252ad1be2c89b69c2b068fc378daa952ba7f163c4a11628f55a4df523b3ef",
            "0x000000000000000000000000f39fd6e51aad88f6f4ce6ab8827279cfffb92266",
            "0x00000000000000000000000056c85a254dd12ee8d9c04049a4ab62769ce98210"
          ],
          "data": "0x0000000000000000000000000000000000000000000000000de0b6b3a7640000",
          "blockHash": "0xa8c399acbe5e73857cb6c3f9d721cfc197431d8b393c15d6719eb1e53028a364",
          "blockNumber": "0x98b5b6",
          "blockTimestamp": "0x66f69c0d",
          "transactionHash": "0x5b347ba4d98cf06133573838b607d849b0164c8f5511919deb1d84dd3dd77c36",
          "transactionIndex": "0x0",
          "logIndex": "0x0",
          "removed": false
        },
        {
          "address": "0x176211869ca2b568f2a7d4ee941e073a821ee1ff",
          "topics": [
            "0xddf252ad1be2c89b69c2b068fc378daa952ba7f163c4a11628f55a4df523b3ef",
            "0x00000000000000000000000064bccad8e7302e81b09894f56f6bba85ae82cd03",
            "0x0000000000000000000000002d8879046f1559e53eb052e949e9544bcb72f414"
          ],
          "data": "0x000000000000000000000000000000000000000000000000000000005b8ee281",
          "blockHash": "0xa8c399acbe5e73857cb6c3f9d721cfc197431d8b393c15d6719eb1e53028a364",
          "blockNumber": "0x98b5b6",
          "blockTimestamp": "0x66f69c0d",
          "transactionHash": "0x5b347ba4d98cf06133573838b607d849b0164c8f5511919deb1d84dd3dd77c36",
          "transactionIndex": "0x0",
          "logIndex": "0x1",
          "removed": false
        },
        {
          "address": "0xe5d7c2a44ffddf6b295a15c148167daaaf5cf34f",
          "topics": [
            "0xddf252ad1be2c89b69c2b068fc378daa952ba7f163c4a11628f55a4df523b3ef",
            "0x00000000000000000000000056c85a254dd12ee8d9c04049a4ab62769ce98210",
            "0x00000000000000000000000064bccad8e7302e81b09894f56f6bba85ae82cd03"
          ],
          "data": "0x000000000000000000000000000000000000000000000000080cf30766da4a82",
          "blockHash": "0xa8c399acbe5e73857cb6c3f9d721cfc197431d8b393c15d6719eb1e53028a364",
          "blockNumber": "0x98b5b6",
          "blockTimestamp": "0x66f69c0d",
          "transactionHash": "0x5b347ba4d98cf06133573838b607d849b0164c8f5511919deb1d84dd3dd77c36",
          "transactionIndex": "0x0",
          "logIndex": "0x2",
          "removed": false
        },
        {
          "address": "0x64bccad8e7302e81b09894f56f6bba85ae82cd03",
          "topics": [
            "0xc42079f94a6350d7e6235f29174924f928cc2ac818eb64fed8004e115fbcca67",
            "0x00000000000000000000000056c85a254dd12ee8d9c04049a4ab62769ce98210",
            "0x0000000000000000000000002d8879046f1559e53eb052e949e9544bcb72f414"
          ],
          "data": "0xffffffffffffffffffffffffffffffffffffffffffffffffffffffffa4711d7f000000000000000000000000000000000000000000000000080cf30766da4a820000000000000000000000000000000000004be67ed5e05c67a343b387412ba50000000000000000000000000000000000000000000000000382343ad8b35747000000000000000000000000000000000000000000000000000000000003037d",
          "blockHash": "0xa8c399acbe5e73857cb6c3f9d721cfc197431d8b393c15d6719eb1e53028a364",
          "blockNumber": "0x98b5b6",
          "blockTimestamp": "0x66f69c0d",
          "transactionHash": "0x5b347ba4d98cf06133573838b607d849b0164c8f5511919deb1d84dd3dd77c36",
          "transactionIndex": "0x0",
          "logIndex": "0x3",
          "removed": false
        },
        {
          "address": "0x176211869ca2b568f2a7d4ee941e073a821ee1ff",
          "topics": [
            "0xddf252ad1be2c89b69c2b068fc378daa952ba7f163c4a11628f55a4df523b3ef",
            "0x000000000000000000000000586733678b9ac9da43dd7cb83bbb41d23677dfc3",
            "0x0000000000000000000000002d8879046f1559e53eb052e949e9544bcb72f414"
          ],
          "data": "0x000000000000000000000000000000000000000000000000000000001d19507e",
          "blockHash": "0xa8c399acbe5e73857cb6c3f9d721cfc197431d8b393c15d6719eb1e53028a364",
          "blockNumber": "0x98b5b6",
          "blockTimestamp": "0x66f69c0d",
          "transactionHash": "0x5b347ba4d98cf06133573838b607d849b0164c8f5511919deb1d84dd3dd77c36",
          "transactionIndex": "0x0",
          "logIndex": "0x4",
          "removed": false
        },
        {
          "address": "0xe5d7c2a44ffddf6b295a15c148167daaaf5cf34f",
          "topics": [
            "0xddf252ad1be2c89b69c2b068fc378daa952ba7f163c4a11628f55a4df523b3ef",
            "0x00000000000000000000000056c85a254dd12ee8d9c04049a4ab62769ce98210",
            "0x000000000000000000000000586733678b9ac9da43dd7cb83bbb41d23677dfc3"
          ],
          "data": "0x000000000000000000000000000000000000000000000000028eda450037bb73",
          "blockHash": "0xa8c399acbe5e73857cb6c3f9d721cfc197431d8b393c15d6719eb1e53028a364",
          "blockNumber": "0x98b5b6",
          "blockTimestamp": "0x66f69c0d",
          "transactionHash": "0x5b347ba4d98cf06133573838b607d849b0164c8f5511919deb1d84dd3dd77c36",
          "transactionIndex": "0x0",
          "logIndex": "0x5",
          "removed": false
        },
        {
          "address": "0x586733678b9ac9da43dd7cb83bbb41d23677dfc3",
          "topics": [
            "0x19b47279256b2a23a1665c810c8d55a1758940ee09377d4f8d26497a3577dc83",
            "0x00000000000000000000000056c85a254dd12ee8d9c04049a4ab62769ce98210",
            "0x0000000000000000000000002d8879046f1559e53eb052e949e9544bcb72f414"
          ],
          "data": "0xffffffffffffffffffffffffffffffffffffffffffffffffffffffffe2e6af82000000000000000000000000000000000000000000000000028eda450037bb730000000000000000000000000000000000004be8a42775cc0933dbc2af556403000000000000000000000000000000000000000000000000007a7bb66d937ce500000000000000000000000000000000000000000000000000000000000303800000000000000000000000000000000000000000000000000000000000000000000000000000000000000000000000000000000000000000000005883decb393",
          "blockHash": "0xa8c399acbe5e73857cb6c3f9d721cfc197431d8b393c15d6719eb1e53028a364",
          "blockNumber": "0x98b5b6",
          "blockTimestamp": "0x66f69c0d",
          "transactionHash": "0x5b347ba4d98cf06133573838b607d849b0164c8f5511919deb1d84dd3dd77c36",
          "transactionIndex": "0x0",
          "logIndex": "0x6",
          "removed": false
        },
        {
          "address": "0xa219439258ca9da29e9cc4ce5596924745e12b93",
          "topics": [
            "0xddf252ad1be2c89b69c2b068fc378daa952ba7f163c4a11628f55a4df523b3ef",
            "0x00000000000000000000000027ed78122b8ef363f4ef5b3afe197e0c4a2fa514",
            "0x00000000000000000000000056c85a254dd12ee8d9c04049a4ab62769ce98210"
          ],
          "data": "0x000000000000000000000000000000000000000000000000000000001aa2d8ab",
          "blockHash": "0xa8c399acbe5e73857cb6c3f9d721cfc197431d8b393c15d6719eb1e53028a364",
          "blockNumber": "0x98b5b6",
          "blockTimestamp": "0x66f69c0d",
          "transactionHash": "0x5b347ba4d98cf06133573838b607d849b0164c8f5511919deb1d84dd3dd77c36",
          "transactionIndex": "0x0",
          "logIndex": "0x7",
          "removed": false
        },
        {
          "address": "0xe5d7c2a44ffddf6b295a15c148167daaaf5cf34f",
          "topics": [
            "0xddf252ad1be2c89b69c2b068fc378daa952ba7f163c4a11628f55a4df523b3ef",
            "0x00000000000000000000000056c85a254dd12ee8d9c04049a4ab62769ce98210",
            "0x00000000000000000000000027ed78122b8ef363f4ef5b3afe197e0c4a2fa514"
          ],
          "data": "0x00000000000000000000000000000000000000000000000002576d7d6715e989",
          "blockHash": "0xa8c399acbe5e73857cb6c3f9d721cfc197431d8b393c15d6719eb1e53028a364",
          "blockNumber": "0x98b5b6",
          "blockTimestamp": "0x66f69c0d",
          "transactionHash": "0x5b347ba4d98cf06133573838b607d849b0164c8f5511919deb1d84dd3dd77c36",
          "transactionIndex": "0x0",
          "logIndex": "0x8",
          "removed": false
        },
        {
          "address": "0x27ed78122b8ef363f4ef5b3afe197e0c4a2fa514",
          "topics": [
            "0xc42079f94a6350d7e6235f29174924f928cc2ac818eb64fed8004e115fbcca67",
            "0x00000000000000000000000056c85a254dd12ee8d9c04049a4ab62769ce98210",
            "0x00000000000000000000000056c85a254dd12ee8d9c04049a4ab62769ce98210"
          ],
          "data": "0xffffffffffffffffffffffffffffffffffffffffffffffffffffffffe55d275500000000000000000000000000000000000000000000000002576d7d6715e9890000000000000000000000000000000000004be600cb6f25842021d507fef979000000000000000000000000000000000000000000000000006429916639eda7000000000000000000000000000000000000000000000000000000000003037d",
          "blockHash": "0xa8c399acbe5e73857cb6c3f9d721cfc197431d8b393c15d6719eb1e53028a364",
          "blockNumber": "0x98b5b6",
          "blockTimestamp": "0x66f69c0d",
          "transactionHash": "0x5b347ba4d98cf06133573838b607d849b0164c8f5511919deb1d84dd3dd77c36",
          "transactionIndex": "0x0",
          "logIndex": "0x9",
          "removed": false
        },
        {
          "address": "0xa219439258ca9da29e9cc4ce5596924745e12b93",
          "topics": [
            "0xddf252ad1be2c89b69c2b068fc378daa952ba7f163c4a11628f55a4df523b3ef",
            "0x0000000000000000000000001947b87d35e9f1cd53cede1ad6f7be44c12212b8",
            "0x00000000000000000000000056c85a254dd12ee8d9c04049a4ab62769ce98210"
          ],
          "data": "0x000000000000000000000000000000000000000000000000000000000a8dc71e",
          "blockHash": "0xa8c399acbe5e73857cb6c3f9d721cfc197431d8b393c15d6719eb1e53028a364",
          "blockNumber": "0x98b5b6",
          "blockTimestamp": "0x66f69c0d",
          "transactionHash": "0x5b347ba4d98cf06133573838b607d849b0164c8f5511919deb1d84dd3dd77c36",
          "transactionIndex": "0x0",
          "logIndex": "0xa",
          "removed": false
        },
        {
          "address": "0xe5d7c2a44ffddf6b295a15c148167daaaf5cf34f",
          "topics": [
            "0xddf252ad1be2c89b69c2b068fc378daa952ba7f163c4a11628f55a4df523b3ef",
            "0x00000000000000000000000056c85a254dd12ee8d9c04049a4ab62769ce98210",
            "0x0000000000000000000000001947b87d35e9f1cd53cede1ad6f7be44c12212b8"
          ],
          "data": "0x00000000000000000000000000000000000000000000000000ed7be9d93c1082",
          "blockHash": "0xa8c399acbe5e73857cb6c3f9d721cfc197431d8b393c15d6719eb1e53028a364",
          "blockNumber": "0x98b5b6",
          "blockTimestamp": "0x66f69c0d",
          "transactionHash": "0x5b347ba4d98cf06133573838b607d849b0164c8f5511919deb1d84dd3dd77c36",
          "transactionIndex": "0x0",
          "logIndex": "0xb",
          "removed": false
        },
        {
          "address": "0x1947b87d35e9f1cd53cede1ad6f7be44c12212b8",
          "topics": [
            "0x19b47279256b2a23a1665c810c8d55a1758940ee09377d4f8d26497a3577dc83",
            "0x00000000000000000000000056c85a254dd12ee8d9c04049a4ab62769ce98210",
            "0x00000000000000000000000056c85a254dd12ee8d9c04049a4ab62769ce98210"
          ],
          "data": "0xfffffffffffffffffffffffffffffffffffffffffffffffffffffffff57238e200000000000000000000000000000000000000000000000000ed7be9d93c10820000000000000000000000000000000000004be8eb3c2708c469e6127ebe5c3a000000000000000000000000000000000000000000000000001e5b413885a9a900000000000000000000000000000000000000000000000000000000000303800000000000000000000000000000000000000000000000000000000000000000000000000000000000000000000000000000000000000000000002019a97aeea",
          "blockHash": "0xa8c399acbe5e73857cb6c3f9d721cfc197431d8b393c15d6719eb1e53028a364",
          "blockNumber": "0x98b5b6",
          "blockTimestamp": "0x66f69c0d",
          "transactionHash": "0x5b347ba4d98cf06133573838b607d849b0164c8f5511919deb1d84dd3dd77c36",
          "transactionIndex": "0x0",
          "logIndex": "0xc",
          "removed": false
        },
        {
          "address": "0x6e9ad0b8a41e2c148e7b0385d3ecbfdb8a216a9b",
          "topics": [
            "0x598b9f043c813aa6be3426ca60d1c65d17256312890be5118dab55b0775ebe2a"
          ],
          "data": "0x0000000000000000000000000000000000000000000000000000000000000032",
          "blockHash": "0xa8c399acbe5e73857cb6c3f9d721cfc197431d8b393c15d6719eb1e53028a364",
          "blockNumber": "0x98b5b6",
          "blockTimestamp": "0x66f69c0d",
          "transactionHash": "0x5b347ba4d98cf06133573838b607d849b0164c8f5511919deb1d84dd3dd77c36",
          "transactionIndex": "0x0",
          "logIndex": "0xd",
          "removed": false
        },
        {
          "address": "0x176211869ca2b568f2a7d4ee941e073a821ee1ff",
          "topics": [
            "0xddf252ad1be2c89b69c2b068fc378daa952ba7f163c4a11628f55a4df523b3ef",
            "0x0000000000000000000000006e9ad0b8a41e2c148e7b0385d3ecbfdb8a216a9b",
            "0x0000000000000000000000002d8879046f1559e53eb052e949e9544bcb72f414"
          ],
          "data": "0x0000000000000000000000000000000000000000000000000000000025302591",
          "blockHash": "0xa8c399acbe5e73857cb6c3f9d721cfc197431d8b393c15d6719eb1e53028a364",
          "blockNumber": "0x98b5b6",
          "blockTimestamp": "0x66f69c0d",
          "transactionHash": "0x5b347ba4d98cf06133573838b607d849b0164c8f5511919deb1d84dd3dd77c36",
          "transactionIndex": "0x0",
          "logIndex": "0xe",
          "removed": false
        },
        {
          "address": "0xa219439258ca9da29e9cc4ce5596924745e12b93",
          "topics": [
            "0xddf252ad1be2c89b69c2b068fc378daa952ba7f163c4a11628f55a4df523b3ef",
            "0x00000000000000000000000056c85a254dd12ee8d9c04049a4ab62769ce98210",
            "0x0000000000000000000000006e9ad0b8a41e2c148e7b0385d3ecbfdb8a216a9b"
          ],
          "data": "0x0000000000000000000000000000000000000000000000000000000025309fc9",
          "blockHash": "0xa8c399acbe5e73857cb6c3f9d721cfc197431d8b393c15d6719eb1e53028a364",
          "blockNumber": "0x98b5b6",
          "blockTimestamp": "0x66f69c0d",
          "transactionHash": "0x5b347ba4d98cf06133573838b607d849b0164c8f5511919deb1d84dd3dd77c36",
          "transactionIndex": "0x0",
          "logIndex": "0xf",
          "removed": false
        },
        {
          "address": "0xa219439258ca9da29e9cc4ce5596924745e12b93",
          "topics": [
            "0xddf252ad1be2c89b69c2b068fc378daa952ba7f163c4a11628f55a4df523b3ef",
            "0x0000000000000000000000006e9ad0b8a41e2c148e7b0385d3ecbfdb8a216a9b",
            "0x0000000000000000000000001d8b6fa722230153be08c4fa4aa4b4c7cd01a95a"
          ],
          "data": "0x00000000000000000000000000000000000000000000000000000000000003a7",
          "blockHash": "0xa8c399acbe5e73857cb6c3f9d721cfc197431d8b393c15d6719eb1e53028a364",
          "blockNumber": "0x98b5b6",
          "blockTimestamp": "0x66f69c0d",
          "transactionHash": "0x5b347ba4d98cf06133573838b607d849b0164c8f5511919deb1d84dd3dd77c36",
          "transactionIndex": "0x0",
          "logIndex": "0x10",
          "removed": false
        },
        {
          "address": "0x6e9ad0b8a41e2c148e7b0385d3ecbfdb8a216a9b",
          "topics": [
            "0xc42079f94a6350d7e6235f29174924f928cc2ac818eb64fed8004e115fbcca67",
            "0x00000000000000000000000056c85a254dd12ee8d9c04049a4ab62769ce98210",
            "0x0000000000000000000000002d8879046f1559e53eb052e949e9544bcb72f414"
          ],
          "data": "0xffffffffffffffffffffffffffffffffffffffffffffffffffffffffdacfda6f0000000000000000000000000000000000000000000000000000000025309fc900000000000000000000000000000000000000010000034b821d33584656ac9e0000000000000000000000000000000000000000000000000008d0e5e14708030000000000000000000000000000000000000000000000000000000000000000",
          "blockHash": "0xa8c399acbe5e73857cb6c3f9d721cfc197431d8b393c15d6719eb1e53028a364",
          "blockNumber": "0x98b5b6",
          "blockTimestamp": "0x66f69c0d",
          "transactionHash": "0x5b347ba4d98cf06133573838b607d849b0164c8f5511919deb1d84dd3dd77c36",
          "transactionIndex": "0x0",
          "logIndex": "0x11",
          "removed": false
        },
        {
          "address": "0x176211869ca2b568f2a7d4ee941e073a821ee1ff",
          "topics": [
            "0xddf252ad1be2c89b69c2b068fc378daa952ba7f163c4a11628f55a4df523b3ef",
            "0x0000000000000000000000002d8879046f1559e53eb052e949e9544bcb72f414",
            "0x000000000000000000000000f39fd6e51aad88f6f4ce6ab8827279cfffb92266"
          ],
          "data": "0x000000000000000000000000000000000000000000000000000000009dd7c067",
          "blockHash": "0xa8c399acbe5e73857cb6c3f9d721cfc197431d8b393c15d6719eb1e53028a364",
          "blockNumber": "0x98b5b6",
          "blockTimestamp": "0x66f69c0d",
          "transactionHash": "0x5b347ba4d98cf06133573838b607d849b0164c8f5511919deb1d84dd3dd77c36",
          "transactionIndex": "0x0",
          "logIndex": "0x12",
          "removed": false
        },
        {
          "address": "0x2d8879046f1559e53eb052e949e9544bcb72f414",
          "topics": [
            "0x823eaf01002d7353fbcadb2ea3305cc46fa35d799cb0914846d185ac06f8ad05"
          ],
          "data": "0x000000000000000000000000f39fd6e51aad88f6f4ce6ab8827279cfffb922660000000000000000000000000000000000000000000000000de0b6b3a7640000000000000000000000000000e5d7c2a44ffddf6b295a15c148167daaaf5cf34f000000000000000000000000000000000000000000000000000000009dd7c067000000000000000000000000176211869ca2b568f2a7d4ee941e073a821ee1ff00000000000000000000000000000000000000000000000000000000000098290000000000000000000000000000000000000000000000000000000000000000",
          "blockHash": "0xa8c399acbe5e73857cb6c3f9d721cfc197431d8b393c15d6719eb1e53028a364",
          "blockNumber": "0x98b5b6",
          "blockTimestamp": "0x66f69c0d",
          "transactionHash": "0x5b347ba4d98cf06133573838b607d849b0164c8f5511919deb1d84dd3dd77c36",
          "transactionIndex": "0x0",
          "logIndex": "0x13",
          "removed": false
        }
      ],
      "logsBloom": "0x0000000000400000000000000000000000000000000080000800000000400000000004000000000020001000000280000004080004002000000400000400400004000000104000080000000802001000000000000000000000000001000000000080000200000000008000012000000104000000020000000000001000080000000000000000000000101084000000000000800000000000000008040000000000000000020000040000000000000000000004020000000100000040a00000000010000208000020020008400000100000000000a0000c0000000000000000000000000200000000020000000000000000000000020002000000000000000000",
      "type": "0x2",
      "transactionHash": "0x5b347ba4d98cf06133573838b607d849b0164c8f5511919deb1d84dd3dd77c36",
      "transactionIndex": "0x0",
      "blockHash": "0xa8c399acbe5e73857cb6c3f9d721cfc197431d8b393c15d6719eb1e53028a364",
      "blockNumber": "0x98b5b6",
      "gasUsed": "0xe4ef3",
      "effectiveGasPrice": "0x57bcf00",
      "blobGasPrice": "0x1",
      "from": "0xf39fd6e51aad88f6f4ce6ab8827279cfffb92266",
      "to": "0x2d8879046f1559e53eb052e949e9544bcb72f414",
      "contractAddress": null,
      "root": "0x0000000000000000000000000000000000000000000000000000000000000000"
    },
    {
      "status": "0x1",
      "cumulativeGasUsed": "0xb51c",
      "logs": [
        {
          "address": "0xe5d7c2a44ffddf6b295a15c148167daaaf5cf34f",
          "topics": [
            "0x8c5be1e5ebec7d5bd14f71427d1e84f3dd0314c0f7b2291e5b200ac8c7c3b925",
            "0x000000000000000000000000f39fd6e51aad88f6f4ce6ab8827279cfffb92266",
            "0x0000000000000000000000000b306bf915c4d645ff596e518faf3f9669b97016"
          ],
          "data": "0xffffffffffffffffffffffffffffffffffffffffffffffffffffffffffffffff",
          "blockHash": "0x56afb8b594112d3d4bcb9b928d7276cdda8e863727f1e8814ac76b1e4eba0674",
          "blockNumber": "0x98b5b7",
          "blockTimestamp": "0x66f69c0e",
          "transactionHash": "0xa6089f00d8c037bf26a06cb01be7b5ed2d69dd71d1c10c19facc6687773dba24",
          "transactionIndex": "0x0",
          "logIndex": "0x0",
          "removed": false
        }
      ],
      "logsBloom": "0x0000000000000000000000000000000800000000000000000000000000000000000000000000000000000000000000000000000000000000000000000020000000000000000000000000000000000000000000000000000000000000000000000000000000000000000000030000000000000000000000000000000000000000000000000000000000100000000000000000000000000000000000000000000002000000000000000000000000000000000000000000000000000000200000000000000000000020000000000000000000000000a000000000000000000000000010000000000000000000000400000000000000000000000000000000000000",
      "type": "0x2",
      "transactionHash": "0xa6089f00d8c037bf26a06cb01be7b5ed2d69dd71d1c10c19facc6687773dba24",
      "transactionIndex": "0x0",
      "blockHash": "0x56afb8b594112d3d4bcb9b928d7276cdda8e863727f1e8814ac76b1e4eba0674",
      "blockNumber": "0x98b5b7",
      "gasUsed": "0xb51c",
      "effectiveGasPrice": "0x57bcf00",
      "blobGasPrice": "0x1",
      "from": "0xf39fd6e51aad88f6f4ce6ab8827279cfffb92266",
      "to": "0xe5d7c2a44ffddf6b295a15c148167daaaf5cf34f",
      "contractAddress": null,
      "root": "0x0000000000000000000000000000000000000000000000000000000000000000"
    },
    {
      "status": "0x1",
      "cumulativeGasUsed": "0x1a03a",
      "logs": [
        {
          "address": "0x176211869ca2b568f2a7d4ee941e073a821ee1ff",
          "topics": [
            "0x8c5be1e5ebec7d5bd14f71427d1e84f3dd0314c0f7b2291e5b200ac8c7c3b925",
            "0x000000000000000000000000f39fd6e51aad88f6f4ce6ab8827279cfffb92266",
            "0x0000000000000000000000000b306bf915c4d645ff596e518faf3f9669b97016"
          ],
          "data": "0xffffffffffffffffffffffffffffffffffffffffffffffffffffffffffffffff",
          "blockHash": "0x56afb8b594112d3d4bcb9b928d7276cdda8e863727f1e8814ac76b1e4eba0674",
          "blockNumber": "0x98b5b7",
          "blockTimestamp": "0x66f69c0e",
          "transactionHash": "0x3204e114d0e0dc93ac0395f0e16c0a59b7be3e18667b2694025cb4159659b6cd",
          "transactionIndex": "0x1",
          "logIndex": "0x1",
          "removed": false
        }
      ],
      "logsBloom": "0x00000000000000000000000000000008000000000000000000000000000000000000000000000000000000000000000000000800000000000004000000200000000000000000000000000000020000000000000000000000000000000000000000000000000000000000000300000000000000000000000000000000000000000000000000000000000000000000000000000000000000000000000000000000020000000000000000000000000000000000000000000000000000000000000000000000000000200000000000000000000000002000000000000000000000000010000000000000000000000400000000000000000000000000000000000000",
      "type": "0x2",
      "transactionHash": "0x3204e114d0e0dc93ac0395f0e16c0a59b7be3e18667b2694025cb4159659b6cd",
      "transactionIndex": "0x1",
      "blockHash": "0x56afb8b594112d3d4bcb9b928d7276cdda8e863727f1e8814ac76b1e4eba0674",
      "blockNumber": "0x98b5b7",
      "gasUsed": "0xeb1e",
      "effectiveGasPrice": "0x57bcf00",
      "blobGasPrice": "0x1",
      "from": "0xf39fd6e51aad88f6f4ce6ab8827279cfffb92266",
      "to": "0x176211869ca2b568f2a7d4ee941e073a821ee1ff",
      "contractAddress": null,
      "root": "0x0000000000000000000000000000000000000000000000000000000000000000"
    },
    {
      "status": "0x1",
      "cumulativeGasUsed": "0x1518ef",
      "logs": [
        {
          "address": "0x9a9f2ccfde556a7e9ff0848998aa4a0cfd8863ae",
          "topics": [
            "0xddf252ad1be2c89b69c2b068fc378daa952ba7f163c4a11628f55a4df523b3ef",
            "0x0000000000000000000000000000000000000000000000000000000000000000",
            "0x000000000000000000000000f39fd6e51aad88f6f4ce6ab8827279cfffb92266",
            "0x0000000000000000000000000000000000000000000000000000000000000000"
          ],
          "data": "0x",
          "blockHash": "0x56afb8b594112d3d4bcb9b928d7276cdda8e863727f1e8814ac76b1e4eba0674",
          "blockNumber": "0x98b5b7",
          "blockTimestamp": "0x66f69c0e",
          "transactionHash": "0xe424bed3400e2bc39164f8a74d369e7957adfbed80921123c94ad5203ba39dcc",
          "transactionIndex": "0x2",
          "logIndex": "0x2",
          "removed": false
        },
        {
          "address": "0x176211869ca2b568f2a7d4ee941e073a821ee1ff",
          "topics": [
            "0xddf252ad1be2c89b69c2b068fc378daa952ba7f163c4a11628f55a4df523b3ef",
            "0x000000000000000000000000f39fd6e51aad88f6f4ce6ab8827279cfffb92266",
            "0x0000000000000000000000008ee06e608de47ea1b185583aca65e34f2fd79b13"
          ],
          "data": "0x0000000000000000000000000000000000000000000000000000000005f5e100",
          "blockHash": "0x56afb8b594112d3d4bcb9b928d7276cdda8e863727f1e8814ac76b1e4eba0674",
          "blockNumber": "0x98b5b7",
          "blockTimestamp": "0x66f69c0e",
          "transactionHash": "0xe424bed3400e2bc39164f8a74d369e7957adfbed80921123c94ad5203ba39dcc",
          "transactionIndex": "0x2",
          "logIndex": "0x3",
          "removed": false
        },
        {
          "address": "0x176211869ca2b568f2a7d4ee941e073a821ee1ff",
          "topics": [
            "0xddf252ad1be2c89b69c2b068fc378daa952ba7f163c4a11628f55a4df523b3ef",
            "0x0000000000000000000000002e207eca8b6bf77a6ac82763eeed2a94de4f081d",
            "0x0000000000000000000000008ee06e608de47ea1b185583aca65e34f2fd79b13"
          ],
          "data": "0x0000000000000000000000000000000000000000000000000000000011e1a300",
          "blockHash": "0x56afb8b594112d3d4bcb9b928d7276cdda8e863727f1e8814ac76b1e4eba0674",
          "blockNumber": "0x98b5b7",
          "blockTimestamp": "0x66f69c0e",
          "transactionHash": "0xe424bed3400e2bc39164f8a74d369e7957adfbed80921123c94ad5203ba39dcc",
          "transactionIndex": "0x2",
          "logIndex": "0x4",
          "removed": false
        },
        {
          "address": "0x176211869ca2b568f2a7d4ee941e073a821ee1ff",
          "topics": [
            "0x8c5be1e5ebec7d5bd14f71427d1e84f3dd0314c0f7b2291e5b200ac8c7c3b925",
            "0x0000000000000000000000008ee06e608de47ea1b185583aca65e34f2fd79b13",
            "0x0000000000000000000000002d8879046f1559e53eb052e949e9544bcb72f414"
          ],
          "data": "0x0000000000000000000000000000000000000000000000000000000017d78400",
          "blockHash": "0x56afb8b594112d3d4bcb9b928d7276cdda8e863727f1e8814ac76b1e4eba0674",
          "blockNumber": "0x98b5b7",
          "blockTimestamp": "0x66f69c0e",
          "transactionHash": "0xe424bed3400e2bc39164f8a74d369e7957adfbed80921123c94ad5203ba39dcc",
          "transactionIndex": "0x2",
          "logIndex": "0x5",
          "removed": false
        },
        {
          "address": "0x176211869ca2b568f2a7d4ee941e073a821ee1ff",
          "topics": [
            "0xddf252ad1be2c89b69c2b068fc378daa952ba7f163c4a11628f55a4df523b3ef",
            "0x0000000000000000000000008ee06e608de47ea1b185583aca65e34f2fd79b13",
            "0x00000000000000000000000056c85a254dd12ee8d9c04049a4ab62769ce98210"
          ],
          "data": "0x0000000000000000000000000000000000000000000000000000000017d78400",
          "blockHash": "0x56afb8b594112d3d4bcb9b928d7276cdda8e863727f1e8814ac76b1e4eba0674",
          "blockNumber": "0x98b5b7",
          "blockTimestamp": "0x66f69c0e",
          "transactionHash": "0xe424bed3400e2bc39164f8a74d369e7957adfbed80921123c94ad5203ba39dcc",
          "transactionIndex": "0x2",
          "logIndex": "0x6",
          "removed": false
        },
        {
          "address": "0xe5d7c2a44ffddf6b295a15c148167daaaf5cf34f",
          "topics": [
            "0xddf252ad1be2c89b69c2b068fc378daa952ba7f163c4a11628f55a4df523b3ef",
            "0x000000000000000000000000586733678b9ac9da43dd7cb83bbb41d23677dfc3",
            "0x0000000000000000000000002d8879046f1559e53eb052e949e9544bcb72f414"
          ],
          "data": "0x000000000000000000000000000000000000000000000000012253909e4a263f",
          "blockHash": "0x56afb8b594112d3d4bcb9b928d7276cdda8e863727f1e8814ac76b1e4eba0674",
          "blockNumber": "0x98b5b7",
          "blockTimestamp": "0x66f69c0e",
          "transactionHash": "0xe424bed3400e2bc39164f8a74d369e7957adfbed80921123c94ad5203ba39dcc",
          "transactionIndex": "0x2",
          "logIndex": "0x7",
          "removed": false
        },
        {
          "address": "0x176211869ca2b568f2a7d4ee941e073a821ee1ff",
          "topics": [
            "0xddf252ad1be2c89b69c2b068fc378daa952ba7f163c4a11628f55a4df523b3ef",
            "0x00000000000000000000000056c85a254dd12ee8d9c04049a4ab62769ce98210",
            "0x000000000000000000000000586733678b9ac9da43dd7cb83bbb41d23677dfc3"
          ],
          "data": "0x000000000000000000000000000000000000000000000000000000000ce6c6c3",
          "blockHash": "0x56afb8b594112d3d4bcb9b928d7276cdda8e863727f1e8814ac76b1e4eba0674",
          "blockNumber": "0x98b5b7",
          "blockTimestamp": "0x66f69c0e",
          "transactionHash": "0xe424bed3400e2bc39164f8a74d369e7957adfbed80921123c94ad5203ba39dcc",
          "transactionIndex": "0x2",
          "logIndex": "0x8",
          "removed": false
        },
        {
          "address": "0x586733678b9ac9da43dd7cb83bbb41d23677dfc3",
          "topics": [
            "0x19b47279256b2a23a1665c810c8d55a1758940ee09377d4f8d26497a3577dc83",
            "0x00000000000000000000000056c85a254dd12ee8d9c04049a4ab62769ce98210",
            "0x0000000000000000000000002d8879046f1559e53eb052e949e9544bcb72f414"
          ],
          "data": "0x000000000000000000000000000000000000000000000000000000000ce6c6c3fffffffffffffffffffffffffffffffffffffffffffffffffeddac6f61b5d9c10000000000000000000000000000000000004be645593090837070227bd97362000000000000000000000000000000000000000000000000007a7bc723cf4e9b000000000000000000000000000000000000000000000000000000000003037d0000000000000000000000000000000000000000000000000000000000001be60000000000000000000000000000000000000000000000000000000000000000",
          "blockHash": "0x56afb8b594112d3d4bcb9b928d7276cdda8e863727f1e8814ac76b1e4eba0674",
          "blockNumber": "0x98b5b7",
          "blockTimestamp": "0x66f69c0e",
          "transactionHash": "0xe424bed3400e2bc39164f8a74d369e7957adfbed80921123c94ad5203ba39dcc",
          "transactionIndex": "0x2",
          "logIndex": "0x9",
          "removed": false
        },
        {
          "address": "0xe5d7c2a44ffddf6b295a15c148167daaaf5cf34f",
          "topics": [
            "0xddf252ad1be2c89b69c2b068fc378daa952ba7f163c4a11628f55a4df523b3ef",
            "0x0000000000000000000000007077f0cff76077d0ebb335b607db574400510557",
            "0x0000000000000000000000002d8879046f1559e53eb052e949e9544bcb72f414"
          ],
          "data": "0x00000000000000000000000000000000000000000000000000f6175d67552bd8",
          "blockHash": "0x56afb8b594112d3d4bcb9b928d7276cdda8e863727f1e8814ac76b1e4eba0674",
          "blockNumber": "0x98b5b7",
          "blockTimestamp": "0x66f69c0e",
          "transactionHash": "0xe424bed3400e2bc39164f8a74d369e7957adfbed80921123c94ad5203ba39dcc",
          "transactionIndex": "0x2",
          "logIndex": "0xa",
          "removed": false
        },
        {
          "address": "0x176211869ca2b568f2a7d4ee941e073a821ee1ff",
          "topics": [
            "0xddf252ad1be2c89b69c2b068fc378daa952ba7f163c4a11628f55a4df523b3ef",
            "0x00000000000000000000000056c85a254dd12ee8d9c04049a4ab62769ce98210",
            "0x0000000000000000000000007077f0cff76077d0ebb335b607db574400510557"
          ],
          "data": "0x000000000000000000000000000000000000000000000000000000000af0bd3d",
          "blockHash": "0x56afb8b594112d3d4bcb9b928d7276cdda8e863727f1e8814ac76b1e4eba0674",
          "blockNumber": "0x98b5b7",
          "blockTimestamp": "0x66f69c0e",
          "transactionHash": "0xe424bed3400e2bc39164f8a74d369e7957adfbed80921123c94ad5203ba39dcc",
          "transactionIndex": "0x2",
          "logIndex": "0xb",
          "removed": false
        },
        {
          "address": "0x7077f0cff76077d0ebb335b607db574400510557",
          "topics": [
            "0xc42079f94a6350d7e6235f29174924f928cc2ac818eb64fed8004e115fbcca67",
            "0x00000000000000000000000056c85a254dd12ee8d9c04049a4ab62769ce98210",
            "0x0000000000000000000000002d8879046f1559e53eb052e949e9544bcb72f414"
          ],
          "data": "0x000000000000000000000000000000000000000000000000000000000af0bd3dffffffffffffffffffffffffffffffffffffffffffffffffff09e8a298aad4280000000000000000000000000000000000004be4ebe143b877895395bb03e40800000000000000000000000000000000000000000000000000354a061fc8a483000000000000000000000000000000000000000000000000000000000003037c",
          "blockHash": "0x56afb8b594112d3d4bcb9b928d7276cdda8e863727f1e8814ac76b1e4eba0674",
          "blockNumber": "0x98b5b7",
          "blockTimestamp": "0x66f69c0e",
          "transactionHash": "0xe424bed3400e2bc39164f8a74d369e7957adfbed80921123c94ad5203ba39dcc",
          "transactionIndex": "0x2",
          "logIndex": "0xc",
          "removed": false
        },
        {
          "address": "0xe5d7c2a44ffddf6b295a15c148167daaaf5cf34f",
          "topics": [
            "0xddf252ad1be2c89b69c2b068fc378daa952ba7f163c4a11628f55a4df523b3ef",
            "0x0000000000000000000000002d8879046f1559e53eb052e949e9544bcb72f414",
            "0x0000000000000000000000008ee06e608de47ea1b185583aca65e34f2fd79b13"
          ],
          "data": "0x000000000000000000000000000000000000000000000000021845aa2b08c340",
          "blockHash": "0x56afb8b594112d3d4bcb9b928d7276cdda8e863727f1e8814ac76b1e4eba0674",
          "blockNumber": "0x98b5b7",
          "blockTimestamp": "0x66f69c0e",
          "transactionHash": "0xe424bed3400e2bc39164f8a74d369e7957adfbed80921123c94ad5203ba39dcc",
          "transactionIndex": "0x2",
          "logIndex": "0xd",
          "removed": false
        },
        {
          "address": "0x2d8879046f1559e53eb052e949e9544bcb72f414",
          "topics": [
            "0x823eaf01002d7353fbcadb2ea3305cc46fa35d799cb0914846d185ac06f8ad05"
          ],
          "data": "0x0000000000000000000000008ee06e608de47ea1b185583aca65e34f2fd79b130000000000000000000000000000000000000000000000000000000017d78400000000000000000000000000176211869ca2b568f2a7d4ee941e073a821ee1ff000000000000000000000000000000000000000000000000021845aa2b08c340000000000000000000000000e5d7c2a44ffddf6b295a15c148167daaaf5cf34f00000000000000000000000000000000000000000000000000002543da968ed70000000000000000000000000000000000000000000000000000000000000000",
          "blockHash": "0x56afb8b594112d3d4bcb9b928d7276cdda8e863727f1e8814ac76b1e4eba0674",
          "blockNumber": "0x98b5b7",
          "blockTimestamp": "0x66f69c0e",
          "transactionHash": "0xe424bed3400e2bc39164f8a74d369e7957adfbed80921123c94ad5203ba39dcc",
          "transactionIndex": "0x2",
          "logIndex": "0xe",
          "removed": false
        },
        {
          "address": "0xe5d7c2a44ffddf6b295a15c148167daaaf5cf34f",
          "topics": [
            "0x8c5be1e5ebec7d5bd14f71427d1e84f3dd0314c0f7b2291e5b200ac8c7c3b925",
            "0x0000000000000000000000008ee06e608de47ea1b185583aca65e34f2fd79b13",
            "0x0000000000000000000000002f9bb73a8e98793e26cb2f6c4ad037bdf1c6b269"
          ],
          "data": "0x000000000000000000000000000000000000000000000000021845aa2b08c340",
          "blockHash": "0x56afb8b594112d3d4bcb9b928d7276cdda8e863727f1e8814ac76b1e4eba0674",
          "blockNumber": "0x98b5b7",
          "blockTimestamp": "0x66f69c0e",
          "transactionHash": "0xe424bed3400e2bc39164f8a74d369e7957adfbed80921123c94ad5203ba39dcc",
          "transactionIndex": "0x2",
          "logIndex": "0xf",
          "removed": false
        },
        {
          "address": "0x2f9bb73a8e98793e26cb2f6c4ad037bdf1c6b269",
          "topics": [
            "0x804c9b842b2748a22bb64b345453a3de7ca54a6ca45ce00d415894979e22897a",
            "0x000000000000000000000000e5d7c2a44ffddf6b295a15c148167daaaf5cf34f"
          ],
          "data": "0x0000000000000000000000000000000000000000000c7a32023b1da712a70dd10000000000000000000000000000000000000000002ce1907dd0099a7d6d5c050000000000000000000000000000000000000000001c2d387b6019885b6ae02600000000000000000000000000000000000000000353229e84601808201ac9c500000000000000000000000000000000000000000360647e43ff5fa5c9fbbc02",
          "blockHash": "0x56afb8b594112d3d4bcb9b928d7276cdda8e863727f1e8814ac76b1e4eba0674",
          "blockNumber": "0x98b5b7",
          "blockTimestamp": "0x66f69c0e",
          "transactionHash": "0xe424bed3400e2bc39164f8a74d369e7957adfbed80921123c94ad5203ba39dcc",
          "transactionIndex": "0x2",
          "logIndex": "0x10",
          "removed": false
        },
        {
          "address": "0xe5d7c2a44ffddf6b295a15c148167daaaf5cf34f",
          "topics": [
            "0xddf252ad1be2c89b69c2b068fc378daa952ba7f163c4a11628f55a4df523b3ef",
            "0x0000000000000000000000008ee06e608de47ea1b185583aca65e34f2fd79b13",
            "0x000000000000000000000000b4ffef15daf4c02787bc5332580b838ce39805f5"
          ],
          "data": "0x000000000000000000000000000000000000000000000000021845aa2b08c340",
          "blockHash": "0x56afb8b594112d3d4bcb9b928d7276cdda8e863727f1e8814ac76b1e4eba0674",
          "blockNumber": "0x98b5b7",
          "blockTimestamp": "0x66f69c0e",
          "transactionHash": "0xe424bed3400e2bc39164f8a74d369e7957adfbed80921123c94ad5203ba39dcc",
          "transactionIndex": "0x2",
          "logIndex": "0x11",
          "removed": false
        },
        {
          "address": "0x28f6899ff643261ca9766ddc251b359a2d00b945",
          "topics": [
            "0x3303facd24627943a92e9dc87cfbb34b15c49b726eec3ad3487c16be9ab8efe8",
            "0x000000000000000000000000b4ffef15daf4c02787bc5332580b838ce39805f5",
            "0x00000000000000000000000040a59a3f3b16d9e74c811d24d8b7969664cfe180",
            "0x0000000000000000000000008ee06e608de47ea1b185583aca65e34f2fd79b13"
          ],
          "data": "0x000000000000000000000000000000000000000000004a6e6ce87410aa4b5006000000000000000000000000000000000000000000004a6e6ce87410aa4b50060000000000000000000000000000000000000000000000000000000000000000",
          "blockHash": "0x56afb8b594112d3d4bcb9b928d7276cdda8e863727f1e8814ac76b1e4eba0674",
          "blockNumber": "0x98b5b7",
          "blockTimestamp": "0x66f69c0e",
          "transactionHash": "0xe424bed3400e2bc39164f8a74d369e7957adfbed80921123c94ad5203ba39dcc",
          "transactionIndex": "0x2",
          "logIndex": "0x12",
          "removed": false
        },
        {
          "address": "0x28f6899ff643261ca9766ddc251b359a2d00b945",
          "topics": [
            "0x3303facd24627943a92e9dc87cfbb34b15c49b726eec3ad3487c16be9ab8efe8",
            "0x000000000000000000000000b4ffef15daf4c02787bc5332580b838ce39805f5",
            "0x00000000000000000000000078354f8dccb269a615a7e0a24f9b0718fdc3c7a7",
            "0x0000000000000000000000008ee06e608de47ea1b185583aca65e34f2fd79b13"
          ],
          "data": "0x0000000000000000000000000000000000000000000002a65c89b6d0d760ed370000000000000000000000000000000000000000000002a65c89b6d0d760ed370000000000000000000000000000000000000000000000000000000000000000",
          "blockHash": "0x56afb8b594112d3d4bcb9b928d7276cdda8e863727f1e8814ac76b1e4eba0674",
          "blockNumber": "0x98b5b7",
          "blockTimestamp": "0x66f69c0e",
          "transactionHash": "0xe424bed3400e2bc39164f8a74d369e7957adfbed80921123c94ad5203ba39dcc",
          "transactionIndex": "0x2",
          "logIndex": "0x13",
          "removed": false
        },
        {
          "address": "0xb4ffef15daf4c02787bc5332580b838ce39805f5",
          "topics": [
            "0xddf252ad1be2c89b69c2b068fc378daa952ba7f163c4a11628f55a4df523b3ef",
            "0x0000000000000000000000000000000000000000000000000000000000000000",
            "0x0000000000000000000000008ee06e608de47ea1b185583aca65e34f2fd79b13"
          ],
          "data": "0x000000000000000000000000000000000000000000000000021845aa2b08c340",
          "blockHash": "0x56afb8b594112d3d4bcb9b928d7276cdda8e863727f1e8814ac76b1e4eba0674",
          "blockNumber": "0x98b5b7",
          "blockTimestamp": "0x66f69c0e",
          "transactionHash": "0xe424bed3400e2bc39164f8a74d369e7957adfbed80921123c94ad5203ba39dcc",
          "transactionIndex": "0x2",
          "logIndex": "0x14",
          "removed": false
        },
        {
          "address": "0xb4ffef15daf4c02787bc5332580b838ce39805f5",
          "topics": [
            "0x458f5fa412d0f69b08dd84872b0215675cc67bc1d5b6fd93300a1c3878b86196",
            "0x0000000000000000000000008ee06e608de47ea1b185583aca65e34f2fd79b13",
            "0x0000000000000000000000008ee06e608de47ea1b185583aca65e34f2fd79b13"
          ],
          "data": "0x000000000000000000000000000000000000000000000000021845aa2b08c340000000000000000000000000000000000000000000000000000000000000000000000000000000000000000000000000000000000353229e84601808201ac9c5",
          "blockHash": "0x56afb8b594112d3d4bcb9b928d7276cdda8e863727f1e8814ac76b1e4eba0674",
          "blockNumber": "0x98b5b7",
          "blockTimestamp": "0x66f69c0e",
          "transactionHash": "0xe424bed3400e2bc39164f8a74d369e7957adfbed80921123c94ad5203ba39dcc",
          "transactionIndex": "0x2",
          "logIndex": "0x15",
          "removed": false
        },
        {
          "address": "0x2f9bb73a8e98793e26cb2f6c4ad037bdf1c6b269",
          "topics": [
            "0x00058a56ea94653cdf4f152d227ace22d4c00ad99e2a43f58cb7d9e3feb295f2",
            "0x000000000000000000000000e5d7c2a44ffddf6b295a15c148167daaaf5cf34f",
            "0x0000000000000000000000008ee06e608de47ea1b185583aca65e34f2fd79b13"
          ],
          "data": "0x",
          "blockHash": "0x56afb8b594112d3d4bcb9b928d7276cdda8e863727f1e8814ac76b1e4eba0674",
          "blockNumber": "0x98b5b7",
          "blockTimestamp": "0x66f69c0e",
          "transactionHash": "0xe424bed3400e2bc39164f8a74d369e7957adfbed80921123c94ad5203ba39dcc",
          "transactionIndex": "0x2",
          "logIndex": "0x16",
          "removed": false
        },
        {
          "address": "0x2f9bb73a8e98793e26cb2f6c4ad037bdf1c6b269",
          "topics": [
            "0x2b627736bca15cd5381dcf80b0bf11fd197d01a037c52b927a881a10fb73ba61",
            "0x000000000000000000000000e5d7c2a44ffddf6b295a15c148167daaaf5cf34f",
            "0x0000000000000000000000008ee06e608de47ea1b185583aca65e34f2fd79b13",
            "0x0000000000000000000000000000000000000000000000000000000000000000"
          ],
          "data": "0x0000000000000000000000008ee06e608de47ea1b185583aca65e34f2fd79b13000000000000000000000000000000000000000000000000021845aa2b08c340",
          "blockHash": "0x56afb8b594112d3d4bcb9b928d7276cdda8e863727f1e8814ac76b1e4eba0674",
          "blockNumber": "0x98b5b7",
          "blockTimestamp": "0x66f69c0e",
          "transactionHash": "0xe424bed3400e2bc39164f8a74d369e7957adfbed80921123c94ad5203ba39dcc",
          "transactionIndex": "0x2",
          "logIndex": "0x17",
          "removed": false
        },
        {
          "address": "0x28f6899ff643261ca9766ddc251b359a2d00b945",
          "topics": [
            "0x3303facd24627943a92e9dc87cfbb34b15c49b726eec3ad3487c16be9ab8efe8",
            "0x000000000000000000000000a2703dc9fbaccd6ec2e4cbfa700989d0238133f6",
            "0x00000000000000000000000040a59a3f3b16d9e74c811d24d8b7969664cfe180",
            "0x0000000000000000000000008ee06e608de47ea1b185583aca65e34f2fd79b13"
          ],
          "data": "0x0000000000000000000000000000000000000000000000053f69899e410bb3ed0000000000000000000000000000000000000000000000053f69899e410bb3ed0000000000000000000000000000000000000000000000000000000000000000",
          "blockHash": "0x56afb8b594112d3d4bcb9b928d7276cdda8e863727f1e8814ac76b1e4eba0674",
          "blockNumber": "0x98b5b7",
          "blockTimestamp": "0x66f69c0e",
          "transactionHash": "0xe424bed3400e2bc39164f8a74d369e7957adfbed80921123c94ad5203ba39dcc",
          "transactionIndex": "0x2",
          "logIndex": "0x18",
          "removed": false
        },
        {
          "address": "0x28f6899ff643261ca9766ddc251b359a2d00b945",
          "topics": [
            "0x3303facd24627943a92e9dc87cfbb34b15c49b726eec3ad3487c16be9ab8efe8",
            "0x000000000000000000000000a2703dc9fbaccd6ec2e4cbfa700989d0238133f6",
            "0x00000000000000000000000078354f8dccb269a615a7e0a24f9b0718fdc3c7a7",
            "0x0000000000000000000000008ee06e608de47ea1b185583aca65e34f2fd79b13"
          ],
          "data": "0x000000000000000000000000000000000000000000000001a4b821cd68be902a000000000000000000000000000000000000000000000001a4b821cd68be902a0000000000000000000000000000000000000000000000000000000000000000",
          "blockHash": "0x56afb8b594112d3d4bcb9b928d7276cdda8e863727f1e8814ac76b1e4eba0674",
          "blockNumber": "0x98b5b7",
          "blockTimestamp": "0x66f69c0e",
          "transactionHash": "0xe424bed3400e2bc39164f8a74d369e7957adfbed80921123c94ad5203ba39dcc",
          "transactionIndex": "0x2",
          "logIndex": "0x19",
          "removed": false
        },
        {
          "address": "0xa2703dc9fbaccd6ec2e4cbfa700989d0238133f6",
          "topics": [
            "0xddf252ad1be2c89b69c2b068fc378daa952ba7f163c4a11628f55a4df523b3ef",
            "0x0000000000000000000000000000000000000000000000000000000000000000",
            "0x0000000000000000000000008ee06e608de47ea1b185583aca65e34f2fd79b13"
          ],
          "data": "0x0000000000000000000000000000000000000000000000000000000011e3ecf0",
          "blockHash": "0x56afb8b594112d3d4bcb9b928d7276cdda8e863727f1e8814ac76b1e4eba0674",
          "blockNumber": "0x98b5b7",
          "blockTimestamp": "0x66f69c0e",
          "transactionHash": "0xe424bed3400e2bc39164f8a74d369e7957adfbed80921123c94ad5203ba39dcc",
          "transactionIndex": "0x2",
          "logIndex": "0x1a",
          "removed": false
        },
        {
          "address": "0xa2703dc9fbaccd6ec2e4cbfa700989d0238133f6",
          "topics": [
            "0x458f5fa412d0f69b08dd84872b0215675cc67bc1d5b6fd93300a1c3878b86196",
            "0x0000000000000000000000008ee06e608de47ea1b185583aca65e34f2fd79b13",
            "0x0000000000000000000000008ee06e608de47ea1b185583aca65e34f2fd79b13"
          ],
          "data": "0x0000000000000000000000000000000000000000000000000000000011e3ecf000000000000000000000000000000000000000000000000000000000000000000000000000000000000000000000000000000000036e29051a7493b41accb8d8",
          "blockHash": "0x56afb8b594112d3d4bcb9b928d7276cdda8e863727f1e8814ac76b1e4eba0674",
          "blockNumber": "0x98b5b7",
          "blockTimestamp": "0x66f69c0e",
          "transactionHash": "0xe424bed3400e2bc39164f8a74d369e7957adfbed80921123c94ad5203ba39dcc",
          "transactionIndex": "0x2",
          "logIndex": "0x1b",
          "removed": false
        },
        {
          "address": "0x2f9bb73a8e98793e26cb2f6c4ad037bdf1c6b269",
          "topics": [
            "0x804c9b842b2748a22bb64b345453a3de7ca54a6ca45ce00d415894979e22897a",
            "0x000000000000000000000000176211869ca2b568f2a7d4ee941e073a821ee1ff"
          ],
          "data": "0x0000000000000000000000000000000000000000004865624d36d9e14353a56000000000000000000000000000000000000000000085c3737d4e74f8ac90b4f4000000000000000000000000000000000000000000795b13dc30730c3d90b4f40000000000000000000000000000000000000000035f3f8c6fbef2a74bc091c50000000000000000000000000000000000000000036e29051a7493b41accb8d8",
          "blockHash": "0x56afb8b594112d3d4bcb9b928d7276cdda8e863727f1e8814ac76b1e4eba0674",
          "blockNumber": "0x98b5b7",
          "blockTimestamp": "0x66f69c0e",
          "transactionHash": "0xe424bed3400e2bc39164f8a74d369e7957adfbed80921123c94ad5203ba39dcc",
          "transactionIndex": "0x2",
          "logIndex": "0x1c",
          "removed": false
        },
        {
          "address": "0x176211869ca2b568f2a7d4ee941e073a821ee1ff",
          "topics": [
            "0xddf252ad1be2c89b69c2b068fc378daa952ba7f163c4a11628f55a4df523b3ef",
            "0x0000000000000000000000002e207eca8b6bf77a6ac82763eeed2a94de4f081d",
            "0x0000000000000000000000008ee06e608de47ea1b185583aca65e34f2fd79b13"
          ],
          "data": "0x0000000000000000000000000000000000000000000000000000000011e3ecf0",
          "blockHash": "0x56afb8b594112d3d4bcb9b928d7276cdda8e863727f1e8814ac76b1e4eba0674",
          "blockNumber": "0x98b5b7",
          "blockTimestamp": "0x66f69c0e",
          "transactionHash": "0xe424bed3400e2bc39164f8a74d369e7957adfbed80921123c94ad5203ba39dcc",
          "transactionIndex": "0x2",
          "logIndex": "0x1d",
          "removed": false
        },
        {
          "address": "0x2f9bb73a8e98793e26cb2f6c4ad037bdf1c6b269",
          "topics": [
            "0xb3d084820fb1a9decffb176436bd02558d15fac9b0ddfed8c465bc7359d7dce0",
            "0x000000000000000000000000176211869ca2b568f2a7d4ee941e073a821ee1ff",
            "0x0000000000000000000000008ee06e608de47ea1b185583aca65e34f2fd79b13",
            "0x0000000000000000000000000000000000000000000000000000000000000000"
          ],
          "data": "0x0000000000000000000000008ee06e608de47ea1b185583aca65e34f2fd79b130000000000000000000000000000000000000000000000000000000011e3ecf00000000000000000000000000000000000000000000000000000000000000002000000000000000000000000000000000000000000795b13dc30730c3d90b4f4",
          "blockHash": "0x56afb8b594112d3d4bcb9b928d7276cdda8e863727f1e8814ac76b1e4eba0674",
          "blockNumber": "0x98b5b7",
          "blockTimestamp": "0x66f69c0e",
          "transactionHash": "0xe424bed3400e2bc39164f8a74d369e7957adfbed80921123c94ad5203ba39dcc",
          "transactionIndex": "0x2",
          "logIndex": "0x1e",
          "removed": false
        },
        {
          "address": "0x176211869ca2b568f2a7d4ee941e073a821ee1ff",
          "topics": [
            "0x8c5be1e5ebec7d5bd14f71427d1e84f3dd0314c0f7b2291e5b200ac8c7c3b925",
            "0x0000000000000000000000008ee06e608de47ea1b185583aca65e34f2fd79b13",
            "0x0000000000000000000000002d8879046f1559e53eb052e949e9544bcb72f414"
          ],
          "data": "0x0000000000000000000000000000000000000000000000000000000000000000",
          "blockHash": "0x56afb8b594112d3d4bcb9b928d7276cdda8e863727f1e8814ac76b1e4eba0674",
          "blockNumber": "0x98b5b7",
          "blockTimestamp": "0x66f69c0e",
          "transactionHash": "0xe424bed3400e2bc39164f8a74d369e7957adfbed80921123c94ad5203ba39dcc",
          "transactionIndex": "0x2",
          "logIndex": "0x1f",
          "removed": false
        },
        {
          "address": "0xe5d7c2a44ffddf6b295a15c148167daaaf5cf34f",
          "topics": [
            "0x8c5be1e5ebec7d5bd14f71427d1e84f3dd0314c0f7b2291e5b200ac8c7c3b925",
            "0x0000000000000000000000008ee06e608de47ea1b185583aca65e34f2fd79b13",
            "0x0000000000000000000000002f9bb73a8e98793e26cb2f6c4ad037bdf1c6b269"
          ],
          "data": "0x0000000000000000000000000000000000000000000000000000000000000000",
          "blockHash": "0x56afb8b594112d3d4bcb9b928d7276cdda8e863727f1e8814ac76b1e4eba0674",
          "blockNumber": "0x98b5b7",
          "blockTimestamp": "0x66f69c0e",
          "transactionHash": "0xe424bed3400e2bc39164f8a74d369e7957adfbed80921123c94ad5203ba39dcc",
          "transactionIndex": "0x2",
          "logIndex": "0x20",
          "removed": false
        },
        {
          "address": "0x176211869ca2b568f2a7d4ee941e073a821ee1ff",
          "topics": [
            "0x8c5be1e5ebec7d5bd14f71427d1e84f3dd0314c0f7b2291e5b200ac8c7c3b925",
            "0x0000000000000000000000008ee06e608de47ea1b185583aca65e34f2fd79b13",
            "0x0000000000000000000000002f9bb73a8e98793e26cb2f6c4ad037bdf1c6b269"
          ],
          "data": "0x0000000000000000000000000000000000000000000000000000000011e3ecf0",
          "blockHash": "0x56afb8b594112d3d4bcb9b928d7276cdda8e863727f1e8814ac76b1e4eba0674",
          "blockNumber": "0x98b5b7",
          "blockTimestamp": "0x66f69c0e",
          "transactionHash": "0xe424bed3400e2bc39164f8a74d369e7957adfbed80921123c94ad5203ba39dcc",
          "transactionIndex": "0x2",
          "logIndex": "0x21",
          "removed": false
        },
        {
          "address": "0x2f9bb73a8e98793e26cb2f6c4ad037bdf1c6b269",
          "topics": [
            "0x804c9b842b2748a22bb64b345453a3de7ca54a6ca45ce00d415894979e22897a",
            "0x000000000000000000000000176211869ca2b568f2a7d4ee941e073a821ee1ff"
          ],
          "data": "0x0000000000000000000000000000000000000000004852e54d6366eb41bfab9a00000000000000000000000000000000000000000085a5435ddb9fcb248ffa8a000000000000000000000000000000000000000000793ce3bcbd9ddeb58ffa8a0000000000000000000000000000000000000000035f3f8d2b0b956740af0be20000000000000000000000000000000000000000036e29051a7493b41accb8d8",
          "blockHash": "0x56afb8b594112d3d4bcb9b928d7276cdda8e863727f1e8814ac76b1e4eba0674",
          "blockNumber": "0x98b5b7",
          "blockTimestamp": "0x66f69c0e",
          "transactionHash": "0xe424bed3400e2bc39164f8a74d369e7957adfbed80921123c94ad5203ba39dcc",
          "transactionIndex": "0x2",
          "logIndex": "0x22",
          "removed": false
        },
        {
          "address": "0x176211869ca2b568f2a7d4ee941e073a821ee1ff",
          "topics": [
            "0xddf252ad1be2c89b69c2b068fc378daa952ba7f163c4a11628f55a4df523b3ef",
            "0x0000000000000000000000008ee06e608de47ea1b185583aca65e34f2fd79b13",
            "0x0000000000000000000000002e207eca8b6bf77a6ac82763eeed2a94de4f081d"
          ],
          "data": "0x0000000000000000000000000000000000000000000000000000000011e3ecf0",
          "blockHash": "0x56afb8b594112d3d4bcb9b928d7276cdda8e863727f1e8814ac76b1e4eba0674",
          "blockNumber": "0x98b5b7",
          "blockTimestamp": "0x66f69c0e",
          "transactionHash": "0xe424bed3400e2bc39164f8a74d369e7957adfbed80921123c94ad5203ba39dcc",
          "transactionIndex": "0x2",
          "logIndex": "0x23",
          "removed": false
        },
        {
          "address": "0x2f9bb73a8e98793e26cb2f6c4ad037bdf1c6b269",
          "topics": [
            "0xefefaba5e921573100900a3ad9cf29f222d995fb3b6045797eaea7521bd8d6f0",
            "0x0000000000000000000000008ee06e608de47ea1b185583aca65e34f2fd79b13",
            "0x000000000000000000000000176211869ca2b568f2a7d4ee941e073a821ee1ff",
            "0x0000000000000000000000000000000000000000000000000000000000000000"
          ],
          "data": "0x0000000000000000000000008ee06e608de47ea1b185583aca65e34f2fd79b130000000000000000000000000000000000000000000000000000000011e1a300000000000000000000000000000000000000000000000000000000000000000000000000000000000000000000000000000000000000000000000000000249f0",
          "blockHash": "0x56afb8b594112d3d4bcb9b928d7276cdda8e863727f1e8814ac76b1e4eba0674",
          "blockNumber": "0x98b5b7",
          "blockTimestamp": "0x66f69c0e",
          "transactionHash": "0xe424bed3400e2bc39164f8a74d369e7957adfbed80921123c94ad5203ba39dcc",
          "transactionIndex": "0x2",
          "logIndex": "0x24",
          "removed": false
        }
      ],
      "logsBloom": "0x01000000004009040080000000000000008000004000000000000000000000000800a001200008000000108000060000001008000010201400040100002000000c0002200040000800080008020000002040000000000002000000040040000000800002020000000080000120000801804000001200000001000010200c0000000002008000000800100004000000200000000000000000008000040000004002080000020000040000000002000010000000000010080100004000a00001000250000208000120000000204000000000020000a2000e0000000000000028000010200000008020000000000001000040000000000002000000400000100000",
      "type": "0x2",
      "transactionHash": "0xe424bed3400e2bc39164f8a74d369e7957adfbed80921123c94ad5203ba39dcc",
      "transactionIndex": "0x2",
      "blockHash": "0x56afb8b594112d3d4bcb9b928d7276cdda8e863727f1e8814ac76b1e4eba0674",
      "blockNumber": "0x98b5b7",
      "gasUsed": "0x1378b5",
      "effectiveGasPrice": "0x57bcf00",
      "blobGasPrice": "0x1",
      "from": "0xf39fd6e51aad88f6f4ce6ab8827279cfffb92266",
      "to": "0x0b306bf915c4d645ff596e518faf3f9669b97016",
      "contractAddress": null,
      "root": "0x0000000000000000000000000000000000000000000000000000000000000000"
    }
  ],
  "libraries": [],
  "pending": [],
  "returns": {},
  "timestamp": 1727437837,
  "chain": 59144,
  "commit": "a0c2ae3"
}