{
  "transactions": [
    {
      "hash": "0x019ccfc0dd18a6ed64da0ab09cf41977eda049eba22ad7af0d493e44b36f4a09",
      "transactionType": "CALL",
      "contractName": null,
      "contractAddress": "0xe5d7c2a44ffddf6b295a15c148167daaaf5cf34f",
      "function": "deposit()",
      "arguments": [],
      "transaction": {
        "from": "0xf39fd6e51aad88f6f4ce6ab8827279cfffb92266",
        "to": "0xe5d7c2a44ffddf6b295a15c148167daaaf5cf34f",
        "gas": "0xf2ff",
        "value": "0xde0b6b3a7640000",
        "input": "0xd0e30db0",
        "nonce": "0x1f",
        "chainId": "0xe708"
      },
      "additionalContracts": [],
      "isFixedGasLimit": false
    },
    {
      "hash": "0x4eb4cc8444937877cf966315729038735aca1cf5a4ba30cec6b7101c70ec600a",
      "transactionType": "CALL",
      "contractName": null,
      "contractAddress": "0xe5d7c2a44ffddf6b295a15c148167daaaf5cf34f",
      "function": "approve(address,uint256)",
      "arguments": [
        "0x2d8879046f1559E53eb052E949e9544bCB72f414",
        "115792089237316195423570985008687907853269984665640564039457584007913129639935"
      ],
      "transaction": {
        "from": "0xf39fd6e51aad88f6f4ce6ab8827279cfffb92266",
        "to": "0xe5d7c2a44ffddf6b295a15c148167daaaf5cf34f",
        "gas": "0xfa27",
        "value": "0x0",
        "input": "0x095ea7b30000000000000000000000002d8879046f1559e53eb052e949e9544bcb72f414ffffffffffffffffffffffffffffffffffffffffffffffffffffffffffffffff",
        "nonce": "0x20",
        "chainId": "0xe708"
      },
      "additionalContracts": [],
      "isFixedGasLimit": false
    },
    {
      "hash": "0x0daf3d9bf4036f0c2d36a30888bdb8f78cac1d698c99a4b7f52ede97b00a6564",
      "transactionType": "CALL",
      "contractName": null,
      "contractAddress": "0x2d8879046f1559e53eb052e949e9544bcb72f414",
      "function": null,
      "arguments": null,
      "transaction": {
        "from": "0xf39fd6e51aad88f6f4ce6ab8827279cfffb92266",
        "to": "0x2d8879046f1559e53eb052e949e9544bcb72f414",
        "gas": "0x6ea01",
        "value": "0x0",
        "input": "0x83bd37f90001e5d7c2a44ffddf6b295a15c148167daaaf5cf34f0001176211869ca2b568f2a7d4ee941e073a821ee1ff080de0b6b3a7640000049c596eab028f5c000156c85a254dd12ee8d9c04049a4ab62769ce9821000000001f39fd6e51aad88f6f4ce6ab8827279cfffb922660000000003010203000a0101010200ff0000000000000000000000000000000000000000003cb104f044db23d6513f2a6100a1997fa5e3f587e5d7c2a44ffddf6b295a15c148167daaaf5cf34f000000000000000000000000000000000000000000000000",
        "nonce": "0x21",
        "chainId": "0xe708"
      },
      "additionalContracts": [],
      "isFixedGasLimit": false
    },
    {
      "hash": "0x70b7c32faf19521409c3688579a1e972375e15b9ff4e9eba96596a5c356095c5",
      "transactionType": "CALL",
      "contractName": null,
      "contractAddress": "0x176211869ca2b568f2a7d4ee941e073a821ee1ff",
      "function": "approve(address,uint256)",
      "arguments": [
        "0x0B306BF915C4d645ff596e518fAf3F9669b97016",
        "115792089237316195423570985008687907853269984665640564039457584007913129639935"
      ],
      "transaction": {
        "from": "0xf39fd6e51aad88f6f4ce6ab8827279cfffb92266",
        "to": "0x176211869ca2b568f2a7d4ee941e073a821ee1ff",
        "gas": "0x144c0",
        "value": "0x0",
        "input": "0x095ea7b30000000000000000000000000b306bf915c4d645ff596e518faf3f9669b97016ffffffffffffffffffffffffffffffffffffffffffffffffffffffffffffffff",
        "nonce": "0x22",
        "chainId": "0xe708"
      },
      "additionalContracts": [],
      "isFixedGasLimit": false
    },
    {
      "hash": "0x7324cd8b507a30b9e344941bb0792ae3fd6660961a5baad3bdc6bb63d6ea5215",
      "transactionType": "CALL",
      "contractName": null,
      "contractAddress": "0xe5d7c2a44ffddf6b295a15c148167daaaf5cf34f",
      "function": "approve(address,uint256)",
      "arguments": [
        "0x0B306BF915C4d645ff596e518fAf3F9669b97016",
        "115792089237316195423570985008687907853269984665640564039457584007913129639935"
      ],
      "transaction": {
        "from": "0xf39fd6e51aad88f6f4ce6ab8827279cfffb92266",
        "to": "0xe5d7c2a44ffddf6b295a15c148167daaaf5cf34f",
        "gas": "0xfa27",
        "value": "0x0",
        "input": "0x095ea7b30000000000000000000000000b306bf915c4d645ff596e518faf3f9669b97016ffffffffffffffffffffffffffffffffffffffffffffffffffffffffffffffff",
        "nonce": "0x23",
        "chainId": "0xe708"
      },
      "additionalContracts": [],
      "isFixedGasLimit": false
    },
    {
      "hash": "0x71e4c684871d1730f485b463bb6f1fc0fbd350a347d5fb5e93336ca1ea3406ab",
      "transactionType": "CALL",
      "contractName": null,
      "contractAddress": "0xe5d7c2a44ffddf6b295a15c148167daaaf5cf34f",
      "function": "approve(address,uint256)",
      "arguments": [
        "0x0B306BF915C4d645ff596e518fAf3F9669b97016",
        "115792089237316195423570985008687907853269984665640564039457584007913129639935"
      ],
      "transaction": {
        "from": "0xf39fd6e51aad88f6f4ce6ab8827279cfffb92266",
        "to": "0xe5d7c2a44ffddf6b295a15c148167daaaf5cf34f",
        "gas": "0x8ec9",
        "value": "0x0",
        "input": "0x095ea7b30000000000000000000000000b306bf915c4d645ff596e518faf3f9669b97016ffffffffffffffffffffffffffffffffffffffffffffffffffffffffffffffff",
        "nonce": "0x24",
        "chainId": "0xe708"
      },
      "additionalContracts": [],
      "isFixedGasLimit": false
    },
    {
      "hash": "0xba9149f25b18189502a79410174a3a3569726d7da871f7ebd5635c294f07ffef",
      "transactionType": "CALL",
      "contractName": null,
      "contractAddress": "0x176211869ca2b568f2a7d4ee941e073a821ee1ff",
      "function": "approve(address,uint256)",
      "arguments": [
        "0x0B306BF915C4d645ff596e518fAf3F9669b97016",
        "115792089237316195423570985008687907853269984665640564039457584007913129639935"
      ],
      "transaction": {
        "from": "0xf39fd6e51aad88f6f4ce6ab8827279cfffb92266",
        "to": "0x176211869ca2b568f2a7d4ee941e073a821ee1ff",
        "gas": "0xe62b",
        "value": "0x0",
        "input": "0x095ea7b30000000000000000000000000b306bf915c4d645ff596e518faf3f9669b97016ffffffffffffffffffffffffffffffffffffffffffffffffffffffffffffffff",
        "nonce": "0x25",
        "chainId": "0xe708"
      },
      "additionalContracts": [],
      "isFixedGasLimit": false
    },
    {
      "hash": "0x04fde3609bc84bcb75c6e0a891ca544f48675c807e3a21fa1fff0ac4a1eb4b36",
      "transactionType": "CALL",
      "contractName": null,
      "contractAddress": "0x0b306bf915c4d645ff596e518faf3f9669b97016",
      "function": "createAndAddToPosition((string,address,address),(uint256,uint256,bytes))",
      "arguments": [
        "(\"LONG_QUOTE_ODOS_ZEROLEND\", 0x176211869cA2b568f2A7D4EE941E073a821EE1ff, 0xe5D7C2a44FfDDf6b295A15c148167daaAf5Cf34f)",
        "(100000000, 300000000, 0x83bd37f90001176211869ca2b568f2a7d4ee941e073a821ee1ff0001e5d7c2a44ffddf6b295a15c148167daaaf5cf34f0417d7840008021d66c37622a440028f5c000156c85a254dd12ee8d9c04049a4ab62769ce98210000000018ee06e608de47ea1b185583aca65e34f2fd79b130000000003010203000a0101010201ff000000000000000000000000000000000000000000586733678b9ac9da43dd7cb83bbb41d23677dfc3176211869ca2b568f2a7d4ee941e073a821ee1ff000000000000000000000000000000000000000000000000)"
      ],
      "transaction": {
        "from": "0xf39fd6e51aad88f6f4ce6ab8827279cfffb92266",
        "to": "0x0b306bf915c4d645ff596e518faf3f9669b97016",
        "gas": "0x188683",
        "value": "0x0",
        "input": "0x211d9b04000000000000000000000000000000000000000000000000000000000000004000000000000000000000000000000000000000000000000000000000000000e00000000000000000000000000000000000000000000000000000000000000060000000000000000000000000176211869ca2b568f2a7d4ee941e073a821ee1ff000000000000000000000000e5d7c2a44ffddf6b295a15c148167daaaf5cf34f00000000000000000000000000000000000000000000000000000000000000184c4f4e475f51554f54455f4f444f535f5a45524f4c454e4400000000000000000000000000000000000000000000000000000000000000000000000005f5e1000000000000000000000000000000000000000000000000000000000011e1a300000000000000000000000000000000000000000000000000000000000000006000000000000000000000000000000000000000000000000000000000000000d483bd37f90001176211869ca2b568f2a7d4ee941e073a821ee1ff0001e5d7c2a44ffddf6b295a15c148167daaaf5cf34f0417d7840008021d66c37622a440028f5c000156c85a254dd12ee8d9c04049a4ab62769ce98210000000018ee06e608de47ea1b185583aca65e34f2fd79b130000000003010203000a0101010201ff000000000000000000000000000000000000000000586733678b9ac9da43dd7cb83bbb41d23677dfc3176211869ca2b568f2a7d4ee941e073a821ee1ff000000000000000000000000000000000000000000000000000000000000000000000000",
        "nonce": "0x26",
        "chainId": "0xe708"
      },
      "additionalContracts": [
        {
          "transactionType": "CREATE2",
          "address": "0x8ee06e608de47ea1b185583aca65e34f2fd79b13",
          "initCode": "0x60a060405234801561001057600080fd5b506040516101d43803806101d483398101604081905261002f9161009a565b6001600160a01b0381166100895760405162461bcd60e51b815260206004820152601e60248201527f496e76616c696420696d706c656d656e746174696f6e20616464726573730000604482015260640160405180910390fd5b6001600160a01b03166080526100ca565b6000602082840312156100ac57600080fd5b81516001600160a01b03811681146100c357600080fd5b9392505050565b60805160ec6100e860003960008181602001526055015260ec6000f3fe608060405260043610601c5760003560e01c80635c60da1b146045575b60437f00000000000000000000000000000000000000000000000000000000000000006093565b005b348015605057600080fd5b5060777f000000000000000000000000000000000000000000000000000000000000000081565b6040516001600160a01b03909116815260200160405180910390f35b3660008037600080366000845af43d6000803e80801560b1573d6000f35b3d6000fdfea2646970667358221220ece5f241c936be627b009529639055436949a725352d983e1257a877a1e6225564736f6c6343000819003300000000000000000000000068b1d87f95878fe05b998f19b66f4baba5de1aed"
        }
      ],
      "isFixedGasLimit": false
    }
  ],
  "receipts": [
    {
      "status": "0x1",
      "cumulativeGasUsed": "0xafee",
      "logs": [
        {
          "address": "0xe5d7c2a44ffddf6b295a15c148167daaaf5cf34f",
          "topics": [
            "0xe1fffcc4923d04b559f4d29a8bfc6cda04eb5b0d3c460751c2402c5c5cc9109c",
            "0x000000000000000000000000f39fd6e51aad88f6f4ce6ab8827279cfffb92266"
          ],
          "data": "0x0000000000000000000000000000000000000000000000000de0b6b3a7640000",
          "blockHash": "0x56a5027f20f572b1b6c0fd6ea17cc50ce6af8a8dfab87ef17cee57ad9e89e6ea",
          "blockNumber": "0x976c86",
          "blockTimestamp": "0x66f4028d",
          "transactionHash": "0x019ccfc0dd18a6ed64da0ab09cf41977eda049eba22ad7af0d493e44b36f4a09",
          "transactionIndex": "0x0",
          "logIndex": "0x0",
          "removed": false
        }
      ],
      "logsBloom": "0x0000000000000000000000000000000000000000000000000000000000000000000000000000000000000000000000000000000000000000000000000000000000000000000000000000000000000000000000000000000000000000800000000000000000000000000000010000000000000000000000000000000000000000000000000000000000100000000000000000000100000000000000000000000000000000000000000000000000000000000000000000000000000000200000000000000000000020000000000000000000000000a000000000000000000000000000000000000000000000000000000000000000000000400000000000000000",
      "type": "0x2",
      "transactionHash": "0x019ccfc0dd18a6ed64da0ab09cf41977eda049eba22ad7af0d493e44b36f4a09",
      "transactionIndex": "0x0",
      "blockHash": "0x56a5027f20f572b1b6c0fd6ea17cc50ce6af8a8dfab87ef17cee57ad9e89e6ea",
      "blockNumber": "0x976c86",
      "gasUsed": "0xafee",
      "effectiveGasPrice": "0xcef2840",
      "blobGasPrice": "0x1",
      "from": "0xf39fd6e51aad88f6f4ce6ab8827279cfffb92266",
      "to": "0xe5d7c2a44ffddf6b295a15c148167daaaf5cf34f",
      "contractAddress": null,
      "root": "0x0000000000000000000000000000000000000000000000000000000000000000"
    },
    {
      "status": "0x1",
      "cumulativeGasUsed": "0xb51c",
      "logs": [
        {
          "address": "0xe5d7c2a44ffddf6b295a15c148167daaaf5cf34f",
          "topics": [
            "0x8c5be1e5ebec7d5bd14f71427d1e84f3dd0314c0f7b2291e5b200ac8c7c3b925",
            "0x000000000000000000000000f39fd6e51aad88f6f4ce6ab8827279cfffb92266",
            "0x0000000000000000000000002d8879046f1559e53eb052e949e9544bcb72f414"
          ],
          "data": "0xffffffffffffffffffffffffffffffffffffffffffffffffffffffffffffffff",
          "blockHash": "0xf370efc2cb2535841f2246617bf26e12c3d1af4b15010481494a838364b930e9",
          "blockNumber": "0x976c87",
          "blockTimestamp": "0x66f4028e",
          "transactionHash": "0x4eb4cc8444937877cf966315729038735aca1cf5a4ba30cec6b7101c70ec600a",
          "transactionIndex": "0x0",
          "logIndex": "0x0",
          "removed": false
        }
      ],
      "logsBloom": "0x0000000000000000000000000000000000000000000000000000000000000000000000000000000000001000000000000000000000000000000000000020000000000000000000000000000000000000000000000000000000000000000000000000000000000000008000010000000000000000000000000000000000000000000000000000000000100000000000000000000000000000000000000000000002000000020000000000000000000000000000000000000000000000200000000000000000000020000000000000000000000000a000000000000000000000000010000000000000000000000000000000000000000000000000000000000000",
      "type": "0x2",
      "transactionHash": "0x4eb4cc8444937877cf966315729038735aca1cf5a4ba30cec6b7101c70ec600a",
      "transactionIndex": "0x0",
      "blockHash": "0xf370efc2cb2535841f2246617bf26e12c3d1af4b15010481494a838364b930e9",
      "blockNumber": "0x976c87",
      "gasUsed": "0xb51c",
      "effectiveGasPrice": "0xcef2840",
      "blobGasPrice": "0x1",
      "from": "0xf39fd6e51aad88f6f4ce6ab8827279cfffb92266",
      "to": "0xe5d7c2a44ffddf6b295a15c148167daaaf5cf34f",
      "contractAddress": null,
      "root": "0x0000000000000000000000000000000000000000000000000000000000000000"
    },
    {
      "status": "0x1",
      "cumulativeGasUsed": "0x4ffdd",
      "logs": [
        {
          "address": "0xe5d7c2a44ffddf6b295a15c148167daaaf5cf34f",
          "topics": [
            "0xddf252ad1be2c89b69c2b068fc378daa952ba7f163c4a11628f55a4df523b3ef",
            "0x000000000000000000000000f39fd6e51aad88f6f4ce6ab8827279cfffb92266",
            "0x00000000000000000000000056c85a254dd12ee8d9c04049a4ab62769ce98210"
          ],
          "data": "0x0000000000000000000000000000000000000000000000000de0b6b3a7640000",
          "blockHash": "0x7404708f66decccae8ce6eccf49532387231b691636b2aaa6ea97eff4d5f2c9f",
          "blockNumber": "0x976c88",
          "blockTimestamp": "0x66f4028f",
          "transactionHash": "0x0daf3d9bf4036f0c2d36a30888bdb8f78cac1d698c99a4b7f52ede97b00a6564",
          "transactionIndex": "0x0",
          "logIndex": "0x0",
          "removed": false
        },
        {
          "address": "0x3cb104f044db23d6513f2a6100a1997fa5e3f587",
          "topics": [
            "0x598b9f043c813aa6be3426ca60d1c65d17256312890be5118dab55b0775ebe2a"
          ],
          "data": "0x0000000000000000000000000000000000000000000000000000000000000248",
          "blockHash": "0x7404708f66decccae8ce6eccf49532387231b691636b2aaa6ea97eff4d5f2c9f",
          "blockNumber": "0x976c88",
          "blockTimestamp": "0x66f4028f",
          "transactionHash": "0x0daf3d9bf4036f0c2d36a30888bdb8f78cac1d698c99a4b7f52ede97b00a6564",
          "transactionIndex": "0x0",
          "logIndex": "0x1",
          "removed": false
        },
        {
          "address": "0x176211869ca2b568f2a7d4ee941e073a821ee1ff",
          "topics": [
            "0xddf252ad1be2c89b69c2b068fc378daa952ba7f163c4a11628f55a4df523b3ef",
            "0x0000000000000000000000003cb104f044db23d6513f2a6100a1997fa5e3f587",
            "0x0000000000000000000000002d8879046f1559e53eb052e949e9544bcb72f414"
          ],
          "data": "0x000000000000000000000000000000000000000000000000000000009c596eab",
          "blockHash": "0x7404708f66decccae8ce6eccf49532387231b691636b2aaa6ea97eff4d5f2c9f",
          "blockNumber": "0x976c88",
          "blockTimestamp": "0x66f4028f",
          "transactionHash": "0x0daf3d9bf4036f0c2d36a30888bdb8f78cac1d698c99a4b7f52ede97b00a6564",
          "transactionIndex": "0x0",
          "logIndex": "0x2",
          "removed": false
        },
        {
          "address": "0xe5d7c2a44ffddf6b295a15c148167daaaf5cf34f",
          "topics": [
            "0xddf252ad1be2c89b69c2b068fc378daa952ba7f163c4a11628f55a4df523b3ef",
            "0x00000000000000000000000056c85a254dd12ee8d9c04049a4ab62769ce98210",
            "0x0000000000000000000000003cb104f044db23d6513f2a6100a1997fa5e3f587"
          ],
          "data": "0x0000000000000000000000000000000000000000000000000de0b6b3a7640000",
          "blockHash": "0x7404708f66decccae8ce6eccf49532387231b691636b2aaa6ea97eff4d5f2c9f",
          "blockNumber": "0x976c88",
          "blockTimestamp": "0x66f4028f",
          "transactionHash": "0x0daf3d9bf4036f0c2d36a30888bdb8f78cac1d698c99a4b7f52ede97b00a6564",
          "transactionIndex": "0x0",
          "logIndex": "0x3",
          "removed": false
        },
        {
          "address": "0xe5d7c2a44ffddf6b295a15c148167daaaf5cf34f",
          "topics": [
            "0xddf252ad1be2c89b69c2b068fc378daa952ba7f163c4a11628f55a4df523b3ef",
            "0x0000000000000000000000003cb104f044db23d6513f2a6100a1997fa5e3f587",
            "0x0000000000000000000000001d8b6fa722230153be08c4fa4aa4b4c7cd01a95a"
          ],
          "data": "0x00000000000000000000000000000000000000000000000000000fef31606000",
          "blockHash": "0x7404708f66decccae8ce6eccf49532387231b691636b2aaa6ea97eff4d5f2c9f",
          "blockNumber": "0x976c88",
          "blockTimestamp": "0x66f4028f",
          "transactionHash": "0x0daf3d9bf4036f0c2d36a30888bdb8f78cac1d698c99a4b7f52ede97b00a6564",
          "transactionIndex": "0x0",
          "logIndex": "0x4",
          "removed": false
        },
        {
          "address": "0x3cb104f044db23d6513f2a6100a1997fa5e3f587",
          "topics": [
            "0xc42079f94a6350d7e6235f29174924f928cc2ac818eb64fed8004e115fbcca67",
            "0x00000000000000000000000056c85a254dd12ee8d9c04049a4ab62769ce98210",
            "0x0000000000000000000000002d8879046f1559e53eb052e949e9544bcb72f414"
          ],
          "data": "0xffffffffffffffffffffffffffffffffffffffffffffffffffffffff63a691550000000000000000000000000000000000000000000000000de0b6b3a76400000000000000000000000000000000000000004c403899177226a2aed825442dd600000000000000000000000000000000000000000000000007e2fdb0e004415700000000000000000000000000000000000000000000000000000000000303da",
          "blockHash": "0x7404708f66decccae8ce6eccf49532387231b691636b2aaa6ea97eff4d5f2c9f",
          "blockNumber": "0x976c88",
          "blockTimestamp": "0x66f4028f",
          "transactionHash": "0x0daf3d9bf4036f0c2d36a30888bdb8f78cac1d698c99a4b7f52ede97b00a6564",
          "transactionIndex": "0x0",
          "logIndex": "0x5",
          "removed": false
        },
        {
          "address": "0x176211869ca2b568f2a7d4ee941e073a821ee1ff",
          "topics": [
            "0xddf252ad1be2c89b69c2b068fc378daa952ba7f163c4a11628f55a4df523b3ef",
            "0x0000000000000000000000002d8879046f1559e53eb052e949e9544bcb72f414",
            "0x000000000000000000000000f39fd6e51aad88f6f4ce6ab8827279cfffb92266"
          ],
          "data": "0x000000000000000000000000000000000000000000000000000000009c596eab",
          "blockHash": "0x7404708f66decccae8ce6eccf49532387231b691636b2aaa6ea97eff4d5f2c9f",
          "blockNumber": "0x976c88",
          "blockTimestamp": "0x66f4028f",
          "transactionHash": "0x0daf3d9bf4036f0c2d36a30888bdb8f78cac1d698c99a4b7f52ede97b00a6564",
          "transactionIndex": "0x0",
          "logIndex": "0x6",
          "removed": false
        },
        {
          "address": "0x2d8879046f1559e53eb052e949e9544bcb72f414",
          "topics": [
            "0x823eaf01002d7353fbcadb2ea3305cc46fa35d799cb0914846d185ac06f8ad05"
          ],
          "data": "0x000000000000000000000000f39fd6e51aad88f6f4ce6ab8827279cfffb922660000000000000000000000000000000000000000000000000de0b6b3a7640000000000000000000000000000e5d7c2a44ffddf6b295a15c148167daaaf5cf34f000000000000000000000000000000000000000000000000000000009c596eab000000000000000000000000176211869ca2b568f2a7d4ee941e073a821ee1ff00000000000000000000000000000000000000000000000000000000000000000000000000000000000000000000000000000000000000000000000000000000",
          "blockHash": "0x7404708f66decccae8ce6eccf49532387231b691636b2aaa6ea97eff4d5f2c9f",
          "blockNumber": "0x976c88",
          "blockTimestamp": "0x66f4028f",
          "transactionHash": "0x0daf3d9bf4036f0c2d36a30888bdb8f78cac1d698c99a4b7f52ede97b00a6564",
          "transactionIndex": "0x0",
          "logIndex": "0x7",
          "removed": false
        }
      ],
      "logsBloom": "0x0000000000000000000000000004000000000000200000000000000000000000000004000000000000001000000000000000080000002000000400000000400000000000000000080000000802000030000000000000000000000000000000000000000200000000008000012000000100000000000000000000001000080000000000000000000000100004000000000000000000000000000000040000000000000000020000000000000000000000000000000000000100000000a00000000010002200000020020008000000000000000000a000000000000000000000000000000000000000000000000000000000000000000002000200000000000000",
      "type": "0x2",
      "transactionHash": "0x0daf3d9bf4036f0c2d36a30888bdb8f78cac1d698c99a4b7f52ede97b00a6564",
      "transactionIndex": "0x0",
      "blockHash": "0x7404708f66decccae8ce6eccf49532387231b691636b2aaa6ea97eff4d5f2c9f",
      "blockNumber": "0x976c88",
      "gasUsed": "0x4ffdd",
      "effectiveGasPrice": "0xcef2840",
      "blobGasPrice": "0x1",
      "from": "0xf39fd6e51aad88f6f4ce6ab8827279cfffb92266",
      "to": "0x2d8879046f1559e53eb052e949e9544bcb72f414",
      "contractAddress": null,
      "root": "0x0000000000000000000000000000000000000000000000000000000000000000"
    },
    {
      "status": "0x1",
      "cumulativeGasUsed": "0x5eafb",
      "logs": [
        {
          "address": "0x176211869ca2b568f2a7d4ee941e073a821ee1ff",
          "topics": [
            "0x8c5be1e5ebec7d5bd14f71427d1e84f3dd0314c0f7b2291e5b200ac8c7c3b925",
            "0x000000000000000000000000f39fd6e51aad88f6f4ce6ab8827279cfffb92266",
            "0x0000000000000000000000000b306bf915c4d645ff596e518faf3f9669b97016"
          ],
          "data": "0xffffffffffffffffffffffffffffffffffffffffffffffffffffffffffffffff",
          "blockHash": "0x7404708f66decccae8ce6eccf49532387231b691636b2aaa6ea97eff4d5f2c9f",
          "blockNumber": "0x976c88",
          "blockTimestamp": "0x66f4028f",
          "transactionHash": "0x70b7c32faf19521409c3688579a1e972375e15b9ff4e9eba96596a5c356095c5",
          "transactionIndex": "0x1",
          "logIndex": "0x8",
          "removed": false
        }
      ],
      "logsBloom": "0x00000000000000000000000000000008000000000000000000000000000000000000000000000000000000000000000000000800000000000004000000200000000000000000000000000000020000000000000000000000000000000000000000000000000000000000000300000000000000000000000000000000000000000000000000000000000000000000000000000000000000000000000000000000020000000000000000000000000000000000000000000000000000000000000000000000000000200000000000000000000000002000000000000000000000000010000000000000000000000400000000000000000000000000000000000000",
      "type": "0x2",
      "transactionHash": "0x70b7c32faf19521409c3688579a1e972375e15b9ff4e9eba96596a5c356095c5",
      "transactionIndex": "0x1",
      "blockHash": "0x7404708f66decccae8ce6eccf49532387231b691636b2aaa6ea97eff4d5f2c9f",
      "blockNumber": "0x976c88",
      "gasUsed": "0xeb1e",
      "effectiveGasPrice": "0xcef2840",
      "blobGasPrice": "0x1",
      "from": "0xf39fd6e51aad88f6f4ce6ab8827279cfffb92266",
      "to": "0x176211869ca2b568f2a7d4ee941e073a821ee1ff",
      "contractAddress": null,
      "root": "0x0000000000000000000000000000000000000000000000000000000000000000"
    },
    {
      "status": "0x1",
      "cumulativeGasUsed": "0xb51c",
      "logs": [
        {
          "address": "0xe5d7c2a44ffddf6b295a15c148167daaaf5cf34f",
          "topics": [
            "0x8c5be1e5ebec7d5bd14f71427d1e84f3dd0314c0f7b2291e5b200ac8c7c3b925",
            "0x000000000000000000000000f39fd6e51aad88f6f4ce6ab8827279cfffb92266",
            "0x0000000000000000000000000b306bf915c4d645ff596e518faf3f9669b97016"
          ],
          "data": "0xffffffffffffffffffffffffffffffffffffffffffffffffffffffffffffffff",
          "blockHash": "0x2bd70af694fb811fec2a206fd5acaded823adc45dabdbcb1e302ee2dc3c943b3",
          "blockNumber": "0x976c89",
          "blockTimestamp": "0x66f40290",
          "transactionHash": "0x7324cd8b507a30b9e344941bb0792ae3fd6660961a5baad3bdc6bb63d6ea5215",
          "transactionIndex": "0x0",
          "logIndex": "0x0",
          "removed": false
        }
      ],
      "logsBloom": "0x0000000000000000000000000000000800000000000000000000000000000000000000000000000000000000000000000000000000000000000000000020000000000000000000000000000000000000000000000000000000000000000000000000000000000000000000030000000000000000000000000000000000000000000000000000000000100000000000000000000000000000000000000000000002000000000000000000000000000000000000000000000000000000200000000000000000000020000000000000000000000000a000000000000000000000000010000000000000000000000400000000000000000000000000000000000000",
      "type": "0x2",
      "transactionHash": "0x7324cd8b507a30b9e344941bb0792ae3fd6660961a5baad3bdc6bb63d6ea5215",
      "transactionIndex": "0x0",
      "blockHash": "0x2bd70af694fb811fec2a206fd5acaded823adc45dabdbcb1e302ee2dc3c943b3",
      "blockNumber": "0x976c89",
      "gasUsed": "0xb51c",
      "effectiveGasPrice": "0xcef2840",
      "blobGasPrice": "0x1",
      "from": "0xf39fd6e51aad88f6f4ce6ab8827279cfffb92266",
      "to": "0xe5d7c2a44ffddf6b295a15c148167daaaf5cf34f",
      "contractAddress": null,
      "root": "0x0000000000000000000000000000000000000000000000000000000000000000"
    },
    {
      "status": "0x1",
      "cumulativeGasUsed": "0x11c7c",
      "logs": [
        {
          "address": "0xe5d7c2a44ffddf6b295a15c148167daaaf5cf34f",
          "topics": [
            "0x8c5be1e5ebec7d5bd14f71427d1e84f3dd0314c0f7b2291e5b200ac8c7c3b925",
            "0x000000000000000000000000f39fd6e51aad88f6f4ce6ab8827279cfffb92266",
            "0x0000000000000000000000000b306bf915c4d645ff596e518faf3f9669b97016"
          ],
          "data": "0xffffffffffffffffffffffffffffffffffffffffffffffffffffffffffffffff",
          "blockHash": "0x2bd70af694fb811fec2a206fd5acaded823adc45dabdbcb1e302ee2dc3c943b3",
          "blockNumber": "0x976c89",
          "blockTimestamp": "0x66f40290",
          "transactionHash": "0x71e4c684871d1730f485b463bb6f1fc0fbd350a347d5fb5e93336ca1ea3406ab",
          "transactionIndex": "0x1",
          "logIndex": "0x1",
          "removed": false
        }
      ],
      "logsBloom": "0x0000000000000000000000000000000800000000000000000000000000000000000000000000000000000000000000000000000000000000000000000020000000000000000000000000000000000000000000000000000000000000000000000000000000000000000000030000000000000000000000000000000000000000000000000000000000100000000000000000000000000000000000000000000002000000000000000000000000000000000000000000000000000000200000000000000000000020000000000000000000000000a000000000000000000000000010000000000000000000000400000000000000000000000000000000000000",
      "type": "0x2",
      "transactionHash": "0x71e4c684871d1730f485b463bb6f1fc0fbd350a347d5fb5e93336ca1ea3406ab",
      "transactionIndex": "0x1",
      "blockHash": "0x2bd70af694fb811fec2a206fd5acaded823adc45dabdbcb1e302ee2dc3c943b3",
      "blockNumber": "0x976c89",
      "gasUsed": "0x6760",
      "effectiveGasPrice": "0xcef2840",
      "blobGasPrice": "0x1",
      "from": "0xf39fd6e51aad88f6f4ce6ab8827279cfffb92266",
      "to": "0xe5d7c2a44ffddf6b295a15c148167daaaf5cf34f",
      "contractAddress": null,
      "root": "0x0000000000000000000000000000000000000000000000000000000000000000"
    },
    {
      "status": "0x1",
      "cumulativeGasUsed": "0x1b9de",
      "logs": [
        {
          "address": "0x176211869ca2b568f2a7d4ee941e073a821ee1ff",
          "topics": [
            "0x8c5be1e5ebec7d5bd14f71427d1e84f3dd0314c0f7b2291e5b200ac8c7c3b925",
            "0x000000000000000000000000f39fd6e51aad88f6f4ce6ab8827279cfffb92266",
            "0x0000000000000000000000000b306bf915c4d645ff596e518faf3f9669b97016"
          ],
          "data": "0xffffffffffffffffffffffffffffffffffffffffffffffffffffffffffffffff",
          "blockHash": "0x2bd70af694fb811fec2a206fd5acaded823adc45dabdbcb1e302ee2dc3c943b3",
          "blockNumber": "0x976c89",
          "blockTimestamp": "0x66f40290",
          "transactionHash": "0xba9149f25b18189502a79410174a3a3569726d7da871f7ebd5635c294f07ffef",
          "transactionIndex": "0x2",
          "logIndex": "0x2",
          "removed": false
        }
      ],
      "logsBloom": "0x00000000000000000000000000000008000000000000000000000000000000000000000000000000000000000000000000000800000000000004000000200000000000000000000000000000020000000000000000000000000000000000000000000000000000000000000300000000000000000000000000000000000000000000000000000000000000000000000000000000000000000000000000000000020000000000000000000000000000000000000000000000000000000000000000000000000000200000000000000000000000002000000000000000000000000010000000000000000000000400000000000000000000000000000000000000",
      "type": "0x2",
      "transactionHash": "0xba9149f25b18189502a79410174a3a3569726d7da871f7ebd5635c294f07ffef",
      "transactionIndex": "0x2",
      "blockHash": "0x2bd70af694fb811fec2a206fd5acaded823adc45dabdbcb1e302ee2dc3c943b3",
      "blockNumber": "0x976c89",
      "gasUsed": "0x9d62",
      "effectiveGasPrice": "0xcef2840",
      "blobGasPrice": "0x1",
      "from": "0xf39fd6e51aad88f6f4ce6ab8827279cfffb92266",
      "to": "0x176211869ca2b568f2a7d4ee941e073a821ee1ff",
      "contractAddress": null,
      "root": "0x0000000000000000000000000000000000000000000000000000000000000000"
    },
    {
      "status": "0x1",
      "cumulativeGasUsed": "0x137b86",
      "logs": [
        {
          "address": "0x9a9f2ccfde556a7e9ff0848998aa4a0cfd8863ae",
          "topics": [
            "0xddf252ad1be2c89b69c2b068fc378daa952ba7f163c4a11628f55a4df523b3ef",
            "0x0000000000000000000000000000000000000000000000000000000000000000",
            "0x000000000000000000000000f39fd6e51aad88f6f4ce6ab8827279cfffb92266",
            "0x0000000000000000000000000000000000000000000000000000000000000000"
          ],
          "data": "0x",
          "blockHash": "0x2bd70af694fb811fec2a206fd5acaded823adc45dabdbcb1e302ee2dc3c943b3",
          "blockNumber": "0x976c89",
          "blockTimestamp": "0x66f40290",
          "transactionHash": "0x04fde3609bc84bcb75c6e0a891ca544f48675c807e3a21fa1fff0ac4a1eb4b36",
          "transactionIndex": "0x3",
          "logIndex": "0x3",
          "removed": false
        },
        {
          "address": "0x176211869ca2b568f2a7d4ee941e073a821ee1ff",
          "topics": [
            "0xddf252ad1be2c89b69c2b068fc378daa952ba7f163c4a11628f55a4df523b3ef",
            "0x000000000000000000000000f39fd6e51aad88f6f4ce6ab8827279cfffb92266",
            "0x0000000000000000000000008ee06e608de47ea1b185583aca65e34f2fd79b13"
          ],
          "data": "0x0000000000000000000000000000000000000000000000000000000005f5e100",
          "blockHash": "0x2bd70af694fb811fec2a206fd5acaded823adc45dabdbcb1e302ee2dc3c943b3",
          "blockNumber": "0x976c89",
          "blockTimestamp": "0x66f40290",
          "transactionHash": "0x04fde3609bc84bcb75c6e0a891ca544f48675c807e3a21fa1fff0ac4a1eb4b36",
          "transactionIndex": "0x3",
          "logIndex": "0x4",
          "removed": false
        },
        {
          "address": "0x176211869ca2b568f2a7d4ee941e073a821ee1ff",
          "topics": [
            "0xddf252ad1be2c89b69c2b068fc378daa952ba7f163c4a11628f55a4df523b3ef",
            "0x0000000000000000000000002e207eca8b6bf77a6ac82763eeed2a94de4f081d",
            "0x0000000000000000000000008ee06e608de47ea1b185583aca65e34f2fd79b13"
          ],
          "data": "0x0000000000000000000000000000000000000000000000000000000011e1a300",
          "blockHash": "0x2bd70af694fb811fec2a206fd5acaded823adc45dabdbcb1e302ee2dc3c943b3",
          "blockNumber": "0x976c89",
          "blockTimestamp": "0x66f40290",
          "transactionHash": "0x04fde3609bc84bcb75c6e0a891ca544f48675c807e3a21fa1fff0ac4a1eb4b36",
          "transactionIndex": "0x3",
          "logIndex": "0x5",
          "removed": false
        },
        {
          "address": "0x176211869ca2b568f2a7d4ee941e073a821ee1ff",
          "topics": [
            "0x8c5be1e5ebec7d5bd14f71427d1e84f3dd0314c0f7b2291e5b200ac8c7c3b925",
            "0x0000000000000000000000008ee06e608de47ea1b185583aca65e34f2fd79b13",
            "0x0000000000000000000000002d8879046f1559e53eb052e949e9544bcb72f414"
          ],
          "data": "0x0000000000000000000000000000000000000000000000000000000017d78400",
          "blockHash": "0x2bd70af694fb811fec2a206fd5acaded823adc45dabdbcb1e302ee2dc3c943b3",
          "blockNumber": "0x976c89",
          "blockTimestamp": "0x66f40290",
          "transactionHash": "0x04fde3609bc84bcb75c6e0a891ca544f48675c807e3a21fa1fff0ac4a1eb4b36",
          "transactionIndex": "0x3",
          "logIndex": "0x6",
          "removed": false
        },
        {
          "address": "0x176211869ca2b568f2a7d4ee941e073a821ee1ff",
          "topics": [
            "0xddf252ad1be2c89b69c2b068fc378daa952ba7f163c4a11628f55a4df523b3ef",
            "0x0000000000000000000000008ee06e608de47ea1b185583aca65e34f2fd79b13",
            "0x00000000000000000000000056c85a254dd12ee8d9c04049a4ab62769ce98210"
          ],
          "data": "0x0000000000000000000000000000000000000000000000000000000017d78400",
          "blockHash": "0x2bd70af694fb811fec2a206fd5acaded823adc45dabdbcb1e302ee2dc3c943b3",
          "blockNumber": "0x976c89",
          "blockTimestamp": "0x66f40290",
          "transactionHash": "0x04fde3609bc84bcb75c6e0a891ca544f48675c807e3a21fa1fff0ac4a1eb4b36",
          "transactionIndex": "0x3",
          "logIndex": "0x7",
          "removed": false
        },
        {
          "address": "0xe5d7c2a44ffddf6b295a15c148167daaaf5cf34f",
          "topics": [
            "0xddf252ad1be2c89b69c2b068fc378daa952ba7f163c4a11628f55a4df523b3ef",
            "0x000000000000000000000000586733678b9ac9da43dd7cb83bbb41d23677dfc3",
            "0x0000000000000000000000002d8879046f1559e53eb052e949e9544bcb72f414"
          ],
          "data": "0x000000000000000000000000000000000000000000000000021d66c376235ff5",
          "blockHash": "0x2bd70af694fb811fec2a206fd5acaded823adc45dabdbcb1e302ee2dc3c943b3",
          "blockNumber": "0x976c89",
          "blockTimestamp": "0x66f40290",
          "transactionHash": "0x04fde3609bc84bcb75c6e0a891ca544f48675c807e3a21fa1fff0ac4a1eb4b36",
          "transactionIndex": "0x3",
          "logIndex": "0x8",
          "removed": false
        },
        {
          "address": "0x176211869ca2b568f2a7d4ee941e073a821ee1ff",
          "topics": [
            "0xddf252ad1be2c89b69c2b068fc378daa952ba7f163c4a11628f55a4df523b3ef",
            "0x00000000000000000000000056c85a254dd12ee8d9c04049a4ab62769ce98210",
            "0x000000000000000000000000586733678b9ac9da43dd7cb83bbb41d23677dfc3"
          ],
          "data": "0x0000000000000000000000000000000000000000000000000000000017d78400",
          "blockHash": "0x2bd70af694fb811fec2a206fd5acaded823adc45dabdbcb1e302ee2dc3c943b3",
          "blockNumber": "0x976c89",
          "blockTimestamp": "0x66f40290",
          "transactionHash": "0x04fde3609bc84bcb75c6e0a891ca544f48675c807e3a21fa1fff0ac4a1eb4b36",
          "transactionIndex": "0x3",
          "logIndex": "0x9",
          "removed": false
        },
        {
          "address": "0x586733678b9ac9da43dd7cb83bbb41d23677dfc3",
          "topics": [
            "0x19b47279256b2a23a1665c810c8d55a1758940ee09377d4f8d26497a3577dc83",
            "0x00000000000000000000000056c85a254dd12ee8d9c04049a4ab62769ce98210",
            "0x0000000000000000000000002d8879046f1559e53eb052e949e9544bcb72f414"
          ],
          "data": "0x0000000000000000000000000000000000000000000000000000000017d78400fffffffffffffffffffffffffffffffffffffffffffffffffde2993c89dca00b0000000000000000000000000000000000004c3d44f50a2367267d496c4baafe0000000000000000000000000000000000000000000000000073421746dc416500000000000000000000000000000000000000000000000000000000000303d600000000000000000000000000000000000000000000000000000000000033900000000000000000000000000000000000000000000000000000000000000000",
          "blockHash": "0x2bd70af694fb811fec2a206fd5acaded823adc45dabdbcb1e302ee2dc3c943b3",
          "blockNumber": "0x976c89",
          "blockTimestamp": "0x66f40290",
          "transactionHash": "0x04fde3609bc84bcb75c6e0a891ca544f48675c807e3a21fa1fff0ac4a1eb4b36",
          "transactionIndex": "0x3",
          "logIndex": "0xa",
          "removed": false
        },
        {
          "address": "0xe5d7c2a44ffddf6b295a15c148167daaaf5cf34f",
          "topics": [
            "0xddf252ad1be2c89b69c2b068fc378daa952ba7f163c4a11628f55a4df523b3ef",
            "0x0000000000000000000000002d8879046f1559e53eb052e949e9544bcb72f414",
            "0x0000000000000000000000008ee06e608de47ea1b185583aca65e34f2fd79b13"
          ],
          "data": "0x000000000000000000000000000000000000000000000000021d66c37622a440",
          "blockHash": "0x2bd70af694fb811fec2a206fd5acaded823adc45dabdbcb1e302ee2dc3c943b3",
          "blockNumber": "0x976c89",
          "blockTimestamp": "0x66f40290",
          "transactionHash": "0x04fde3609bc84bcb75c6e0a891ca544f48675c807e3a21fa1fff0ac4a1eb4b36",
          "transactionIndex": "0x3",
          "logIndex": "0xb",
          "removed": false
        },
        {
          "address": "0x2d8879046f1559e53eb052e949e9544bcb72f414",
          "topics": [
            "0x823eaf01002d7353fbcadb2ea3305cc46fa35d799cb0914846d185ac06f8ad05"
          ],
          "data": "0x0000000000000000000000008ee06e608de47ea1b185583aca65e34f2fd79b130000000000000000000000000000000000000000000000000000000017d78400000000000000000000000000176211869ca2b568f2a7d4ee941e073a821ee1ff000000000000000000000000000000000000000000000000021d66c37622a440000000000000000000000000e5d7c2a44ffddf6b295a15c148167daaaf5cf34f000000000000000000000000000000000000000000000000000000000000bbb50000000000000000000000000000000000000000000000000000000000000000",
          "blockHash": "0x2bd70af694fb811fec2a206fd5acaded823adc45dabdbcb1e302ee2dc3c943b3",
          "blockNumber": "0x976c89",
          "blockTimestamp": "0x66f40290",
          "transactionHash": "0x04fde3609bc84bcb75c6e0a891ca544f48675c807e3a21fa1fff0ac4a1eb4b36",
          "transactionIndex": "0x3",
          "logIndex": "0xc",
          "removed": false
        },
        {
          "address": "0xe5d7c2a44ffddf6b295a15c148167daaaf5cf34f",
          "topics": [
            "0x8c5be1e5ebec7d5bd14f71427d1e84f3dd0314c0f7b2291e5b200ac8c7c3b925",
            "0x0000000000000000000000008ee06e608de47ea1b185583aca65e34f2fd79b13",
            "0x0000000000000000000000002f9bb73a8e98793e26cb2f6c4ad037bdf1c6b269"
          ],
          "data": "0x000000000000000000000000000000000000000000000000021d66c37622a440",
          "blockHash": "0x2bd70af694fb811fec2a206fd5acaded823adc45dabdbcb1e302ee2dc3c943b3",
          "blockNumber": "0x976c89",
          "blockTimestamp": "0x66f40290",
          "transactionHash": "0x04fde3609bc84bcb75c6e0a891ca544f48675c807e3a21fa1fff0ac4a1eb4b36",
          "transactionIndex": "0x3",
          "logIndex": "0xd",
          "removed": false
        },
        {
          "address": "0x2f9bb73a8e98793e26cb2f6c4ad037bdf1c6b269",
          "topics": [
            "0x804c9b842b2748a22bb64b345453a3de7ca54a6ca45ce00d415894979e22897a",
            "0x000000000000000000000000e5d7c2a44ffddf6b295a15c148167daaaf5cf34f"
          ],
          "data": "0x0000000000000000000000000000000000000000000c43d6f2caff5483a05bfd0000000000000000000000000000000000000000002cd9dc1a7a8506639dd0250000000000000000000000000000000000000000001bef9560b3f4e78cee8127000000000000000000000000000000000000000003531101c332d0af3a47d1ff000000000000000000000000000000000000000003603bfe964cd466a398c9df",
          "blockHash": "0x2bd70af694fb811fec2a206fd5acaded823adc45dabdbcb1e302ee2dc3c943b3",
          "blockNumber": "0x976c89",
          "blockTimestamp": "0x66f40290",
          "transactionHash": "0x04fde3609bc84bcb75c6e0a891ca544f48675c807e3a21fa1fff0ac4a1eb4b36",
          "transactionIndex": "0x3",
          "logIndex": "0xe",
          "removed": false
        },
        {
          "address": "0xe5d7c2a44ffddf6b295a15c148167daaaf5cf34f",
          "topics": [
            "0xddf252ad1be2c89b69c2b068fc378daa952ba7f163c4a11628f55a4df523b3ef",
            "0x0000000000000000000000008ee06e608de47ea1b185583aca65e34f2fd79b13",
            "0x000000000000000000000000b4ffef15daf4c02787bc5332580b838ce39805f5"
          ],
          "data": "0x000000000000000000000000000000000000000000000000021d66c37622a440",
          "blockHash": "0x2bd70af694fb811fec2a206fd5acaded823adc45dabdbcb1e302ee2dc3c943b3",
          "blockNumber": "0x976c89",
          "blockTimestamp": "0x66f40290",
          "transactionHash": "0x04fde3609bc84bcb75c6e0a891ca544f48675c807e3a21fa1fff0ac4a1eb4b36",
          "transactionIndex": "0x3",
          "logIndex": "0xf",
          "removed": false
        },
        {
          "address": "0x28f6899ff643261ca9766ddc251b359a2d00b945",
          "topics": [
            "0x3303facd24627943a92e9dc87cfbb34b15c49b726eec3ad3487c16be9ab8efe8",
            "0x000000000000000000000000b4ffef15daf4c02787bc5332580b838ce39805f5",
            "0x00000000000000000000000040a59a3f3b16d9e74c811d24d8b7969664cfe180",
            "0x0000000000000000000000008ee06e608de47ea1b185583aca65e34f2fd79b13"
          ],
          "data": "0x000000000000000000000000000000000000000000004a6e6ce87410aa4b5006000000000000000000000000000000000000000000004a6e6ce87410aa4b50060000000000000000000000000000000000000000000000000000000000000000",
          "blockHash": "0x2bd70af694fb811fec2a206fd5acaded823adc45dabdbcb1e302ee2dc3c943b3",
          "blockNumber": "0x976c89",
          "blockTimestamp": "0x66f40290",
          "transactionHash": "0x04fde3609bc84bcb75c6e0a891ca544f48675c807e3a21fa1fff0ac4a1eb4b36",
          "transactionIndex": "0x3",
          "logIndex": "0x10",
          "removed": false
        },
        {
          "address": "0x28f6899ff643261ca9766ddc251b359a2d00b945",
          "topics": [
            "0x3303facd24627943a92e9dc87cfbb34b15c49b726eec3ad3487c16be9ab8efe8",
            "0x000000000000000000000000b4ffef15daf4c02787bc5332580b838ce39805f5",
            "0x00000000000000000000000078354f8dccb269a615a7e0a24f9b0718fdc3c7a7",
            "0x0000000000000000000000008ee06e608de47ea1b185583aca65e34f2fd79b13"
          ],
          "data": "0x0000000000000000000000000000000000000000000002a12f216ab5f30891900000000000000000000000000000000000000000000002a12f216ab5f30891900000000000000000000000000000000000000000000000000000000000000000",
          "blockHash": "0x2bd70af694fb811fec2a206fd5acaded823adc45dabdbcb1e302ee2dc3c943b3",
          "blockNumber": "0x976c89",
          "blockTimestamp": "0x66f40290",
          "transactionHash": "0x04fde3609bc84bcb75c6e0a891ca544f48675c807e3a21fa1fff0ac4a1eb4b36",
          "transactionIndex": "0x3",
          "logIndex": "0x11",
          "removed": false
        },
        {
          "address": "0xb4ffef15daf4c02787bc5332580b838ce39805f5",
          "topics": [
            "0xddf252ad1be2c89b69c2b068fc378daa952ba7f163c4a11628f55a4df523b3ef",
            "0x0000000000000000000000000000000000000000000000000000000000000000",
            "0x0000000000000000000000008ee06e608de47ea1b185583aca65e34f2fd79b13"
          ],
          "data": "0x000000000000000000000000000000000000000000000000021d66c37622a440",
          "blockHash": "0x2bd70af694fb811fec2a206fd5acaded823adc45dabdbcb1e302ee2dc3c943b3",
          "blockNumber": "0x976c89",
          "blockTimestamp": "0x66f40290",
          "transactionHash": "0x04fde3609bc84bcb75c6e0a891ca544f48675c807e3a21fa1fff0ac4a1eb4b36",
          "transactionIndex": "0x3",
          "logIndex": "0x12",
          "removed": false
        },
        {
          "address": "0xb4ffef15daf4c02787bc5332580b838ce39805f5",
          "topics": [
            "0x458f5fa412d0f69b08dd84872b0215675cc67bc1d5b6fd93300a1c3878b86196",
            "0x0000000000000000000000008ee06e608de47ea1b185583aca65e34f2fd79b13",
            "0x0000000000000000000000008ee06e608de47ea1b185583aca65e34f2fd79b13"
          ],
          "data": "0x000000000000000000000000000000000000000000000000021d66c37622a4400000000000000000000000000000000000000000000000000000000000000000000000000000000000000000000000000000000003531101c332d0af3a47d1ff",
          "blockHash": "0x2bd70af694fb811fec2a206fd5acaded823adc45dabdbcb1e302ee2dc3c943b3",
          "blockNumber": "0x976c89",
          "blockTimestamp": "0x66f40290",
          "transactionHash": "0x04fde3609bc84bcb75c6e0a891ca544f48675c807e3a21fa1fff0ac4a1eb4b36",
          "transactionIndex": "0x3",
          "logIndex": "0x13",
          "removed": false
        },
        {
          "address": "0x2f9bb73a8e98793e26cb2f6c4ad037bdf1c6b269",
          "topics": [
            "0x00058a56ea94653cdf4f152d227ace22d4c00ad99e2a43f58cb7d9e3feb295f2",
            "0x000000000000000000000000e5d7c2a44ffddf6b295a15c148167daaaf5cf34f",
            "0x0000000000000000000000008ee06e608de47ea1b185583aca65e34f2fd79b13"
          ],
          "data": "0x",
          "blockHash": "0x2bd70af694fb811fec2a206fd5acaded823adc45dabdbcb1e302ee2dc3c943b3",
          "blockNumber": "0x976c89",
          "blockTimestamp": "0x66f40290",
          "transactionHash": "0x04fde3609bc84bcb75c6e0a891ca544f48675c807e3a21fa1fff0ac4a1eb4b36",
          "transactionIndex": "0x3",
          "logIndex": "0x14",
          "removed": false
        },
        {
          "address": "0x2f9bb73a8e98793e26cb2f6c4ad037bdf1c6b269",
          "topics": [
            "0x2b627736bca15cd5381dcf80b0bf11fd197d01a037c52b927a881a10fb73ba61",
            "0x000000000000000000000000e5d7c2a44ffddf6b295a15c148167daaaf5cf34f",
            "0x0000000000000000000000008ee06e608de47ea1b185583aca65e34f2fd79b13",
            "0x0000000000000000000000000000000000000000000000000000000000000000"
          ],
          "data": "0x0000000000000000000000008ee06e608de47ea1b185583aca65e34f2fd79b13000000000000000000000000000000000000000000000000021d66c37622a440",
          "blockHash": "0x2bd70af694fb811fec2a206fd5acaded823adc45dabdbcb1e302ee2dc3c943b3",
          "blockNumber": "0x976c89",
          "blockTimestamp": "0x66f40290",
          "transactionHash": "0x04fde3609bc84bcb75c6e0a891ca544f48675c807e3a21fa1fff0ac4a1eb4b36",
          "transactionIndex": "0x3",
          "logIndex": "0x15",
          "removed": false
        },
        {
          "address": "0x28f6899ff643261ca9766ddc251b359a2d00b945",
          "topics": [
            "0x3303facd24627943a92e9dc87cfbb34b15c49b726eec3ad3487c16be9ab8efe8",
            "0x000000000000000000000000a2703dc9fbaccd6ec2e4cbfa700989d0238133f6",
            "0x00000000000000000000000040a59a3f3b16d9e74c811d24d8b7969664cfe180",
            "0x0000000000000000000000008ee06e608de47ea1b185583aca65e34f2fd79b13"
          ],
          "data": "0x0000000000000000000000000000000000000000000000053f69899e410bb3ed0000000000000000000000000000000000000000000000053f69899e410bb3ed0000000000000000000000000000000000000000000000000000000000000000",
          "blockHash": "0x2bd70af694fb811fec2a206fd5acaded823adc45dabdbcb1e302ee2dc3c943b3",
          "blockNumber": "0x976c89",
          "blockTimestamp": "0x66f40290",
          "transactionHash": "0x04fde3609bc84bcb75c6e0a891ca544f48675c807e3a21fa1fff0ac4a1eb4b36",
          "transactionIndex": "0x3",
          "logIndex": "0x16",
          "removed": false
        },
        {
          "address": "0x28f6899ff643261ca9766ddc251b359a2d00b945",
          "topics": [
            "0x3303facd24627943a92e9dc87cfbb34b15c49b726eec3ad3487c16be9ab8efe8",
            "0x000000000000000000000000a2703dc9fbaccd6ec2e4cbfa700989d0238133f6",
            "0x00000000000000000000000078354f8dccb269a615a7e0a24f9b0718fdc3c7a7",
            "0x0000000000000000000000008ee06e608de47ea1b185583aca65e34f2fd79b13"
          ],
          "data": "0x0000000000000000000000000000000000000000000000019d4ec9db2b6d09c20000000000000000000000000000000000000000000000019d4ec9db2b6d09c20000000000000000000000000000000000000000000000000000000000000000",
          "blockHash": "0x2bd70af694fb811fec2a206fd5acaded823adc45dabdbcb1e302ee2dc3c943b3",
          "blockNumber": "0x976c89",
          "blockTimestamp": "0x66f40290",
          "transactionHash": "0x04fde3609bc84bcb75c6e0a891ca544f48675c807e3a21fa1fff0ac4a1eb4b36",
          "transactionIndex": "0x3",
          "logIndex": "0x17",
          "removed": false
        },
        {
          "address": "0xa2703dc9fbaccd6ec2e4cbfa700989d0238133f6",
          "topics": [
            "0xddf252ad1be2c89b69c2b068fc378daa952ba7f163c4a11628f55a4df523b3ef",
            "0x0000000000000000000000000000000000000000000000000000000000000000",
            "0x0000000000000000000000008ee06e608de47ea1b185583aca65e34f2fd79b13"
          ],
          "data": "0x0000000000000000000000000000000000000000000000000000000011e3ecf0",
          "blockHash": "0x2bd70af694fb811fec2a206fd5acaded823adc45dabdbcb1e302ee2dc3c943b3",
          "blockNumber": "0x976c89",
          "blockTimestamp": "0x66f40290",
          "transactionHash": "0x04fde3609bc84bcb75c6e0a891ca544f48675c807e3a21fa1fff0ac4a1eb4b36",
          "transactionIndex": "0x3",
          "logIndex": "0x18",
          "removed": false
        },
        {
          "address": "0xa2703dc9fbaccd6ec2e4cbfa700989d0238133f6",
          "topics": [
            "0x458f5fa412d0f69b08dd84872b0215675cc67bc1d5b6fd93300a1c3878b86196",
            "0x0000000000000000000000008ee06e608de47ea1b185583aca65e34f2fd79b13",
            "0x0000000000000000000000008ee06e608de47ea1b185583aca65e34f2fd79b13"
          ],
          "data": "0x0000000000000000000000000000000000000000000000000000000011e3ecf000000000000000000000000000000000000000000000000000000000000000000000000000000000000000000000000000000000036db46d7a748e32063f34d1",
          "blockHash": "0x2bd70af694fb811fec2a206fd5acaded823adc45dabdbcb1e302ee2dc3c943b3",
          "blockNumber": "0x976c89",
          "blockTimestamp": "0x66f40290",
          "transactionHash": "0x04fde3609bc84bcb75c6e0a891ca544f48675c807e3a21fa1fff0ac4a1eb4b36",
          "transactionIndex": "0x3",
          "logIndex": "0x19",
          "removed": false
        },
        {
          "address": "0x2f9bb73a8e98793e26cb2f6c4ad037bdf1c6b269",
          "topics": [
            "0x804c9b842b2748a22bb64b345453a3de7ca54a6ca45ce00d415894979e22897a",
            "0x000000000000000000000000176211869ca2b568f2a7d4ee941e073a821ee1ff"
          ],
          "data": "0x00000000000000000000000000000000000000000030a4503418183ed66f37cc0000000000000000000000000000000000000000005ea6ae0b0d295f80b4f590000000000000000000000000000000000000000000523e4e69ef277311b4f5900000000000000000000000000000000000000000035efb9bc4fa91773abf1a000000000000000000000000000000000000000000036db46d7a748e32063f34d1",
          "blockHash": "0x2bd70af694fb811fec2a206fd5acaded823adc45dabdbcb1e302ee2dc3c943b3",
          "blockNumber": "0x976c89",
          "blockTimestamp": "0x66f40290",
          "transactionHash": "0x04fde3609bc84bcb75c6e0a891ca544f48675c807e3a21fa1fff0ac4a1eb4b36",
          "transactionIndex": "0x3",
          "logIndex": "0x1a",
          "removed": false
        },
        {
          "address": "0x176211869ca2b568f2a7d4ee941e073a821ee1ff",
          "topics": [
            "0xddf252ad1be2c89b69c2b068fc378daa952ba7f163c4a11628f55a4df523b3ef",
            "0x0000000000000000000000002e207eca8b6bf77a6ac82763eeed2a94de4f081d",
            "0x0000000000000000000000008ee06e608de47ea1b185583aca65e34f2fd79b13"
          ],
          "data": "0x0000000000000000000000000000000000000000000000000000000011e3ecf0",
          "blockHash": "0x2bd70af694fb811fec2a206fd5acaded823adc45dabdbcb1e302ee2dc3c943b3",
          "blockNumber": "0x976c89",
          "blockTimestamp": "0x66f40290",
          "transactionHash": "0x04fde3609bc84bcb75c6e0a891ca544f48675c807e3a21fa1fff0ac4a1eb4b36",
          "transactionIndex": "0x3",
          "logIndex": "0x1b",
          "removed": false
        },
        {
          "address": "0x2f9bb73a8e98793e26cb2f6c4ad037bdf1c6b269",
          "topics": [
            "0xb3d084820fb1a9decffb176436bd02558d15fac9b0ddfed8c465bc7359d7dce0",
            "0x000000000000000000000000176211869ca2b568f2a7d4ee941e073a821ee1ff",
            "0x0000000000000000000000008ee06e608de47ea1b185583aca65e34f2fd79b13",
            "0x0000000000000000000000000000000000000000000000000000000000000000"
          ],
          "data": "0x0000000000000000000000008ee06e608de47ea1b185583aca65e34f2fd79b130000000000000000000000000000000000000000000000000000000011e3ecf00000000000000000000000000000000000000000000000000000000000000002000000000000000000000000000000000000000000523e4e69ef277311b4f590",
          "blockHash": "0x2bd70af694fb811fec2a206fd5acaded823adc45dabdbcb1e302ee2dc3c943b3",
          "blockNumber": "0x976c89",
          "blockTimestamp": "0x66f40290",
          "transactionHash": "0x04fde3609bc84bcb75c6e0a891ca544f48675c807e3a21fa1fff0ac4a1eb4b36",
          "transactionIndex": "0x3",
          "logIndex": "0x1c",
          "removed": false
        },
        {
          "address": "0x176211869ca2b568f2a7d4ee941e073a821ee1ff",
          "topics": [
            "0x8c5be1e5ebec7d5bd14f71427d1e84f3dd0314c0f7b2291e5b200ac8c7c3b925",
            "0x0000000000000000000000008ee06e608de47ea1b185583aca65e34f2fd79b13",
            "0x0000000000000000000000002d8879046f1559e53eb052e949e9544bcb72f414"
          ],
          "data": "0x0000000000000000000000000000000000000000000000000000000000000000",
          "blockHash": "0x2bd70af694fb811fec2a206fd5acaded823adc45dabdbcb1e302ee2dc3c943b3",
          "blockNumber": "0x976c89",
          "blockTimestamp": "0x66f40290",
          "transactionHash": "0x04fde3609bc84bcb75c6e0a891ca544f48675c807e3a21fa1fff0ac4a1eb4b36",
          "transactionIndex": "0x3",
          "logIndex": "0x1d",
          "removed": false
        },
        {
          "address": "0xe5d7c2a44ffddf6b295a15c148167daaaf5cf34f",
          "topics": [
            "0x8c5be1e5ebec7d5bd14f71427d1e84f3dd0314c0f7b2291e5b200ac8c7c3b925",
            "0x0000000000000000000000008ee06e608de47ea1b185583aca65e34f2fd79b13",
            "0x0000000000000000000000002f9bb73a8e98793e26cb2f6c4ad037bdf1c6b269"
          ],
          "data": "0x0000000000000000000000000000000000000000000000000000000000000000",
          "blockHash": "0x2bd70af694fb811fec2a206fd5acaded823adc45dabdbcb1e302ee2dc3c943b3",
          "blockNumber": "0x976c89",
          "blockTimestamp": "0x66f40290",
          "transactionHash": "0x04fde3609bc84bcb75c6e0a891ca544f48675c807e3a21fa1fff0ac4a1eb4b36",
          "transactionIndex": "0x3",
          "logIndex": "0x1e",
          "removed": false
        },
        {
          "address": "0x176211869ca2b568f2a7d4ee941e073a821ee1ff",
          "topics": [
            "0x8c5be1e5ebec7d5bd14f71427d1e84f3dd0314c0f7b2291e5b200ac8c7c3b925",
            "0x0000000000000000000000008ee06e608de47ea1b185583aca65e34f2fd79b13",
            "0x0000000000000000000000002f9bb73a8e98793e26cb2f6c4ad037bdf1c6b269"
          ],
          "data": "0x0000000000000000000000000000000000000000000000000000000011e3ecf0",
          "blockHash": "0x2bd70af694fb811fec2a206fd5acaded823adc45dabdbcb1e302ee2dc3c943b3",
          "blockNumber": "0x976c89",
          "blockTimestamp": "0x66f40290",
          "transactionHash": "0x04fde3609bc84bcb75c6e0a891ca544f48675c807e3a21fa1fff0ac4a1eb4b36",
          "transactionIndex": "0x3",
          "logIndex": "0x1f",
          "removed": false
        },
        {
          "address": "0x2f9bb73a8e98793e26cb2f6c4ad037bdf1c6b269",
          "topics": [
            "0x804c9b842b2748a22bb64b345453a3de7ca54a6ca45ce00d415894979e22897a",
            "0x000000000000000000000000176211869ca2b568f2a7d4ee941e073a821ee1ff"
          ],
          "data": "0x00000000000000000000000000000000000000000030916e1afd65eb537cdbb20000000000000000000000000000000000000000005e87528d8f3c1ee8a942ac000000000000000000000000000000000000000000521ef2ec713a3279a942ac0000000000000000000000000000000000000000035efb9c892888a4da222cfa0000000000000000000000000000000000000000036db46d7a748e32063f34d1",
          "blockHash": "0x2bd70af694fb811fec2a206fd5acaded823adc45dabdbcb1e302ee2dc3c943b3",
          "blockNumber": "0x976c89",
          "blockTimestamp": "0x66f40290",
          "transactionHash": "0x04fde3609bc84bcb75c6e0a891ca544f48675c807e3a21fa1fff0ac4a1eb4b36",
          "transactionIndex": "0x3",
          "logIndex": "0x20",
          "removed": false
        },
        {
          "address": "0x176211869ca2b568f2a7d4ee941e073a821ee1ff",
          "topics": [
            "0xddf252ad1be2c89b69c2b068fc378daa952ba7f163c4a11628f55a4df523b3ef",
            "0x0000000000000000000000008ee06e608de47ea1b185583aca65e34f2fd79b13",
            "0x0000000000000000000000002e207eca8b6bf77a6ac82763eeed2a94de4f081d"
          ],
          "data": "0x0000000000000000000000000000000000000000000000000000000011e3ecf0",
          "blockHash": "0x2bd70af694fb811fec2a206fd5acaded823adc45dabdbcb1e302ee2dc3c943b3",
          "blockNumber": "0x976c89",
          "blockTimestamp": "0x66f40290",
          "transactionHash": "0x04fde3609bc84bcb75c6e0a891ca544f48675c807e3a21fa1fff0ac4a1eb4b36",
          "transactionIndex": "0x3",
          "logIndex": "0x21",
          "removed": false
        },
        {
          "address": "0x2f9bb73a8e98793e26cb2f6c4ad037bdf1c6b269",
          "topics": [
            "0xefefaba5e921573100900a3ad9cf29f222d995fb3b6045797eaea7521bd8d6f0",
            "0x0000000000000000000000008ee06e608de47ea1b185583aca65e34f2fd79b13",
            "0x000000000000000000000000176211869ca2b568f2a7d4ee941e073a821ee1ff",
            "0x0000000000000000000000000000000000000000000000000000000000000000"
          ],
          "data": "0x0000000000000000000000008ee06e608de47ea1b185583aca65e34f2fd79b130000000000000000000000000000000000000000000000000000000011e1a300000000000000000000000000000000000000000000000000000000000000000000000000000000000000000000000000000000000000000000000000000249f0",
          "blockHash": "0x2bd70af694fb811fec2a206fd5acaded823adc45dabdbcb1e302ee2dc3c943b3",
          "blockNumber": "0x976c89",
          "blockTimestamp": "0x66f40290",
          "transactionHash": "0x04fde3609bc84bcb75c6e0a891ca544f48675c807e3a21fa1fff0ac4a1eb4b36",
          "transactionIndex": "0x3",
          "logIndex": "0x22",
          "removed": false
        }
      ],
      "logsBloom": "0x01000000004009040080000000000000008000004000000000000000000000000800a0012000080000001000000600000010080000100014000401000020000004000020004000000008000802000000204000000000000200000004004000000080000202000000008000012000080180400000120000000100001020040000000002008000000800100004000000000000000000000000008000040000004002080000020000040000000002000010000000000010080100004000a00001000250000208000120000000204000000000020000a0000e0000000000000020000010200000008020000000000001000040000000000002000000400000100000",
      "type": "0x2",
      "transactionHash": "0x04fde3609bc84bcb75c6e0a891ca544f48675c807e3a21fa1fff0ac4a1eb4b36",
      "transactionIndex": "0x3",
      "blockHash": "0x2bd70af694fb811fec2a206fd5acaded823adc45dabdbcb1e302ee2dc3c943b3",
      "blockNumber": "0x976c89",
      "gasUsed": "0x11c1a8",
      "effectiveGasPrice": "0xcef2840",
      "blobGasPrice": "0x1",
      "from": "0xf39fd6e51aad88f6f4ce6ab8827279cfffb92266",
      "to": "0x0b306bf915c4d645ff596e518faf3f9669b97016",
      "contractAddress": null,
      "root": "0x0000000000000000000000000000000000000000000000000000000000000000"
    }
  ],
  "libraries": [],
  "pending": [],
  "returns": {},
  "timestamp": 1727267471,
  "chain": 59144,
  "commit": "a0c2ae3"
}