{
  "transactions": [
    {
      "hash": "0xab36755e4afc7958def49c66502f5b3d535cb7c27b61009373e36b84606d136b",
      "transactionType": "CALL",
      "contractName": null,
      "contractAddress": "0xc76f1b20f72ae3b73376e035b54ac3a97977d6b8",
      "function": "createAndAddToPosition((string,address,address),(uint256,uint256,bytes),address)",
      "arguments": [
        "(\"LONG_BASE_ODOS_ZEROLEND\", 0x176211869cA2b568f2A7D4EE941E073a821EE1ff, 0xe5D7C2a44FfDDf6b295A15c148167daaAf5Cf34f)",
        "(1000000000000000, 4882114, 0x83bd37f90001176211869ca2b568f2a7d4ee941e073a821ee1ff0001e5d7c2a44ffddf6b295a15c148167daaaf5cf34f034a7ec207071cbb714818b4028f5c000156c85a254dd12ee8d9c04049a4ab62769ce9821000000001637b76f670b6de365ad8d07e2f6f4908e7e24bdd0000000003010203000a0101010201ff000000000000000000000000000000000000000000586733678b9ac9da43dd7cb83bbb41d23677dfc3176211869ca2b568f2a7d4ee941e073a821ee1ff000000000000000000000000000000000000000000000000)",
        "0x205edf0f225457feCFA22e5774E7a4C9177d56A8"
      ],
      "transaction": {
        "from": "0x205edf0f225457fecfa22e5774e7a4c9177d56a8",
        "to": "0xc76f1b20f72ae3b73376e035b54ac3a97977d6b8",
        "gas": "0x1a6673",
        "value": "0x0",
        "input": "0x07b1ea7100000000000000000000000000000000000000000000000000000000000000600000000000000000000000000000000000000000000000000000000000000100000000000000000000000000205edf0f225457fecfa22e5774e7a4c9177d56a80000000000000000000000000000000000000000000000000000000000000060000000000000000000000000176211869ca2b568f2a7d4ee941e073a821ee1ff000000000000000000000000e5d7c2a44ffddf6b295a15c148167daaaf5cf34f00000000000000000000000000000000000000000000000000000000000000174c4f4e475f424153455f4f444f535f5a45524f4c454e4400000000000000000000000000000000000000000000000000000000000000000000038d7ea4c6800000000000000000000000000000000000000000000000000000000000004a7ec2000000000000000000000000000000000000000000000000000000000000006000000000000000000000000000000000000000000000000000000000000000d283bd37f90001176211869ca2b568f2a7d4ee941e073a821ee1ff0001e5d7c2a44ffddf6b295a15c148167daaaf5cf34f034a7ec207071cbb714818b4028f5c000156c85a254dd12ee8d9c04049a4ab62769ce9821000000001637b76f670b6de365ad8d07e2f6f4908e7e24bdd0000000003010203000a0101010201ff000000000000000000000000000000000000000000586733678b9ac9da43dd7cb83bbb41d23677dfc3176211869ca2b568f2a7d4ee941e073a821ee1ff0000000000000000000000000000000000000000000000000000000000000000000000000000",
        "nonce": "0x13",
        "chainId": "0xe708"
      },
      "additionalContracts": [
        {
          "transactionType": "CREATE2",
          "address": "0x637b76f670b6de365ad8d07e2f6f4908e7e24bdd",
          "initCode": "0x60a060405234801561001057600080fd5b506040516101d43803806101d483398101604081905261002f9161009a565b6001600160a01b0381166100895760405162461bcd60e51b815260206004820152601e60248201527f496e76616c696420696d706c656d656e746174696f6e20616464726573730000604482015260640160405180910390fd5b6001600160a01b03166080526100ca565b6000602082840312156100ac57600080fd5b81516001600160a01b03811681146100c357600080fd5b9392505050565b60805160ec6100e860003960008181602001526055015260ec6000f3fe608060405260043610601c5760003560e01c80635c60da1b146045575b60437f00000000000000000000000000000000000000000000000000000000000000006093565b005b348015605057600080fd5b5060777f000000000000000000000000000000000000000000000000000000000000000081565b6040516001600160a01b03909116815260200160405180910390f35b3660008037600080366000845af43d6000803e80801560b1573d6000f35b3d6000fdfea26469706673582212208707578ca412e82300ace16a4d6a5da27e470fdb5c28e2df5b7b3d3ba649c27e64736f6c634300081a0033000000000000000000000000fbf4323d9da38deab52259710d74923a6615b4f3"
        }
      ],
      "isFixedGasLimit": false
    }
  ],
  "receipts": [
    {
      "status": "0x1",
      "cumulativeGasUsed": "0x16642b",
      "logs": [
        {
          "address": "0x213715479832da5d25f42a8ea0fc224066f85e1b",
          "topics": [
            "0xddf252ad1be2c89b69c2b068fc378daa952ba7f163c4a11628f55a4df523b3ef",
            "0x0000000000000000000000000000000000000000000000000000000000000000",
            "0x000000000000000000000000205edf0f225457fecfa22e5774e7a4c9177d56a8",
            "0x0000000000000000000000000000000000000000000000000000000000000000"
          ],
          "data": "0x",
          "blockHash": "0x0419e0082c3722bae4088ca2195c8d0f3def382c00aa992875486d952c2ae270",
          "blockNumber": "0x9ebb9f",
          "transactionHash": "0xab36755e4afc7958def49c66502f5b3d535cb7c27b61009373e36b84606d136b",
          "transactionIndex": "0x3",
          "logIndex": "0x8",
          "removed": false
        },
        {
          "address": "0xe5d7c2a44ffddf6b295a15c148167daaaf5cf34f",
          "topics": [
            "0xddf252ad1be2c89b69c2b068fc378daa952ba7f163c4a11628f55a4df523b3ef",
            "0x000000000000000000000000205edf0f225457fecfa22e5774e7a4c9177d56a8",
            "0x000000000000000000000000637b76f670b6de365ad8d07e2f6f4908e7e24bdd"
          ],
          "data": "0x00000000000000000000000000000000000000000000000000038d7ea4c68000",
          "blockHash": "0x0419e0082c3722bae4088ca2195c8d0f3def382c00aa992875486d952c2ae270",
          "blockNumber": "0x9ebb9f",
          "transactionHash": "0xab36755e4afc7958def49c66502f5b3d535cb7c27b61009373e36b84606d136b",
          "transactionIndex": "0x3",
          "logIndex": "0x9",
          "removed": false
        },
        {
          "address": "0x176211869ca2b568f2a7d4ee941e073a821ee1ff",
          "topics": [
            "0xddf252ad1be2c89b69c2b068fc378daa952ba7f163c4a11628f55a4df523b3ef",
            "0x0000000000000000000000002e207eca8b6bf77a6ac82763eeed2a94de4f081d",
            "0x000000000000000000000000637b76f670b6de365ad8d07e2f6f4908e7e24bdd"
          ],
          "data": "0x00000000000000000000000000000000000000000000000000000000004a7ec2",
          "blockHash": "0x0419e0082c3722bae4088ca2195c8d0f3def382c00aa992875486d952c2ae270",
          "blockNumber": "0x9ebb9f",
          "transactionHash": "0xab36755e4afc7958def49c66502f5b3d535cb7c27b61009373e36b84606d136b",
          "transactionIndex": "0x3",
          "logIndex": "0xa",
          "removed": false
        },
        {
          "address": "0x176211869ca2b568f2a7d4ee941e073a821ee1ff",
          "topics": [
            "0x8c5be1e5ebec7d5bd14f71427d1e84f3dd0314c0f7b2291e5b200ac8c7c3b925",
            "0x000000000000000000000000637b76f670b6de365ad8d07e2f6f4908e7e24bdd",
            "0x0000000000000000000000002d8879046f1559e53eb052e949e9544bcb72f414"
          ],
          "data": "0x00000000000000000000000000000000000000000000000000000000004a7ec2",
          "blockHash": "0x0419e0082c3722bae4088ca2195c8d0f3def382c00aa992875486d952c2ae270",
          "blockNumber": "0x9ebb9f",
          "transactionHash": "0xab36755e4afc7958def49c66502f5b3d535cb7c27b61009373e36b84606d136b",
          "transactionIndex": "0x3",
          "logIndex": "0xb",
          "removed": false
        },
        {
          "address": "0x176211869ca2b568f2a7d4ee941e073a821ee1ff",
          "topics": [
            "0xddf252ad1be2c89b69c2b068fc378daa952ba7f163c4a11628f55a4df523b3ef",
            "0x000000000000000000000000637b76f670b6de365ad8d07e2f6f4908e7e24bdd",
            "0x00000000000000000000000056c85a254dd12ee8d9c04049a4ab62769ce98210"
          ],
          "data": "0x00000000000000000000000000000000000000000000000000000000004a7ec2",
          "blockHash": "0x0419e0082c3722bae4088ca2195c8d0f3def382c00aa992875486d952c2ae270",
          "blockNumber": "0x9ebb9f",
          "transactionHash": "0xab36755e4afc7958def49c66502f5b3d535cb7c27b61009373e36b84606d136b",
          "transactionIndex": "0x3",
          "logIndex": "0xc",
          "removed": false
        },
        {
          "address": "0xe5d7c2a44ffddf6b295a15c148167daaaf5cf34f",
          "topics": [
            "0xddf252ad1be2c89b69c2b068fc378daa952ba7f163c4a11628f55a4df523b3ef",
            "0x000000000000000000000000586733678b9ac9da43dd7cb83bbb41d23677dfc3",
            "0x0000000000000000000000002d8879046f1559e53eb052e949e9544bcb72f414"
          ],
          "data": "0x00000000000000000000000000000000000000000000000000071d7c2ecdbc24",
          "blockHash": "0x0419e0082c3722bae4088ca2195c8d0f3def382c00aa992875486d952c2ae270",
          "blockNumber": "0x9ebb9f",
          "transactionHash": "0xab36755e4afc7958def49c66502f5b3d535cb7c27b61009373e36b84606d136b",
          "transactionIndex": "0x3",
          "logIndex": "0xd",
          "removed": false
        },
        {
          "address": "0x176211869ca2b568f2a7d4ee941e073a821ee1ff",
          "topics": [
            "0xddf252ad1be2c89b69c2b068fc378daa952ba7f163c4a11628f55a4df523b3ef",
            "0x00000000000000000000000056c85a254dd12ee8d9c04049a4ab62769ce98210",
            "0x000000000000000000000000586733678b9ac9da43dd7cb83bbb41d23677dfc3"
          ],
          "data": "0x00000000000000000000000000000000000000000000000000000000004a7ec2",
          "blockHash": "0x0419e0082c3722bae4088ca2195c8d0f3def382c00aa992875486d952c2ae270",
          "blockNumber": "0x9ebb9f",
          "transactionHash": "0xab36755e4afc7958def49c66502f5b3d535cb7c27b61009373e36b84606d136b",
          "transactionIndex": "0x3",
          "logIndex": "0xe",
          "removed": false
        },
        {
          "address": "0x586733678b9ac9da43dd7cb83bbb41d23677dfc3",
          "topics": [
            "0x19b47279256b2a23a1665c810c8d55a1758940ee09377d4f8d26497a3577dc83",
            "0x00000000000000000000000056c85a254dd12ee8d9c04049a4ab62769ce98210",
            "0x0000000000000000000000002d8879046f1559e53eb052e949e9544bcb72f414"
          ],
          "data": "0x00000000000000000000000000000000000000000000000000000000004a7ec2fffffffffffffffffffffffffffffffffffffffffffffffffff8e283d13243dc0000000000000000000000000000000000004f1ee23059f51839599e9979f5b50000000000000000000000000000000000000000000000000063a24db67f47d000000000000000000000000000000000000000000000000000000000000306bc00000000000000000000000000000000000000000000000000000000000000a10000000000000000000000000000000000000000000000000000000000000000",
          "blockHash": "0x0419e0082c3722bae4088ca2195c8d0f3def382c00aa992875486d952c2ae270",
          "blockNumber": "0x9ebb9f",
          "transactionHash": "0xab36755e4afc7958def49c66502f5b3d535cb7c27b61009373e36b84606d136b",
          "transactionIndex": "0x3",
          "logIndex": "0xf",
          "removed": false
        },
        {
          "address": "0xe5d7c2a44ffddf6b295a15c148167daaaf5cf34f",
          "topics": [
            "0xddf252ad1be2c89b69c2b068fc378daa952ba7f163c4a11628f55a4df523b3ef",
            "0x0000000000000000000000002d8879046f1559e53eb052e949e9544bcb72f414",
            "0x000000000000000000000000637b76f670b6de365ad8d07e2f6f4908e7e24bdd"
          ],
          "data": "0x00000000000000000000000000000000000000000000000000071cbb714818b4",
          "blockHash": "0x0419e0082c3722bae4088ca2195c8d0f3def382c00aa992875486d952c2ae270",
          "blockNumber": "0x9ebb9f",
          "transactionHash": "0xab36755e4afc7958def49c66502f5b3d535cb7c27b61009373e36b84606d136b",
          "transactionIndex": "0x3",
          "logIndex": "0x10",
          "removed": false
        },
        {
          "address": "0x2d8879046f1559e53eb052e949e9544bcb72f414",
          "topics": [
            "0x823eaf01002d7353fbcadb2ea3305cc46fa35d799cb0914846d185ac06f8ad05"
          ],
          "data": "0x000000000000000000000000637b76f670b6de365ad8d07e2f6f4908e7e24bdd00000000000000000000000000000000000000000000000000000000004a7ec2000000000000000000000000176211869ca2b568f2a7d4ee941e073a821ee1ff00000000000000000000000000000000000000000000000000071cbb714818b4000000000000000000000000e5d7c2a44ffddf6b295a15c148167daaaf5cf34f000000000000000000000000000000000000000000000000000000c0bd85a3700000000000000000000000000000000000000000000000000000000000000000",
          "blockHash": "0x0419e0082c3722bae4088ca2195c8d0f3def382c00aa992875486d952c2ae270",
          "blockNumber": "0x9ebb9f",
          "transactionHash": "0xab36755e4afc7958def49c66502f5b3d535cb7c27b61009373e36b84606d136b",
          "transactionIndex": "0x3",
          "logIndex": "0x11",
          "removed": false
        },
        {
          "address": "0xe5d7c2a44ffddf6b295a15c148167daaaf5cf34f",
          "topics": [
            "0x8c5be1e5ebec7d5bd14f71427d1e84f3dd0314c0f7b2291e5b200ac8c7c3b925",
            "0x000000000000000000000000637b76f670b6de365ad8d07e2f6f4908e7e24bdd",
            "0x0000000000000000000000002f9bb73a8e98793e26cb2f6c4ad037bdf1c6b269"
          ],
          "data": "0x000000000000000000000000000000000000000000000000000aaa3a160e98b4",
          "blockHash": "0x0419e0082c3722bae4088ca2195c8d0f3def382c00aa992875486d952c2ae270",
          "blockNumber": "0x9ebb9f",
          "transactionHash": "0xab36755e4afc7958def49c66502f5b3d535cb7c27b61009373e36b84606d136b",
          "transactionIndex": "0x3",
          "logIndex": "0x12",
          "removed": false
        },
        {
          "address": "0x637b76f670b6de365ad8d07e2f6f4908e7e24bdd",
          "topics": [
            "0x65403746361bf13bf4f49a7c15ec03fc6f2031a41e21f26e2669d077c77904a6"
          ],
          "data": "0x0000000000000000000000000000000000000000000000000000000000000040000000000000000000000000000000000000000000000000000aaa3a160e98b4000000000000000000000000000000000000000000000000000000000000000c424153452042414c414e43450000000000000000000000000000000000000000",
          "blockHash": "0x0419e0082c3722bae4088ca2195c8d0f3def382c00aa992875486d952c2ae270",
          "blockNumber": "0x9ebb9f",
          "transactionHash": "0xab36755e4afc7958def49c66502f5b3d535cb7c27b61009373e36b84606d136b",
          "transactionIndex": "0x3",
          "logIndex": "0x13",
          "removed": false
        },
        {
          "address": "0x637b76f670b6de365ad8d07e2f6f4908e7e24bdd",
          "topics": [
            "0x3f3ae6f5b388815a148026d664cba04008c4307646f90d942d399aa183fc7b92"
          ],
          "data": "0x0000000000000000000000000000000000000000000000000000000000000040000000000000000000000000637b76f670b6de365ad8d07e2f6f4908e7e24bdd000000000000000000000000000000000000000000000000000000000000000c5448495320414444524553530000000000000000000000000000000000000000",
          "blockHash": "0x0419e0082c3722bae4088ca2195c8d0f3def382c00aa992875486d952c2ae270",
          "blockNumber": "0x9ebb9f",
          "transactionHash": "0xab36755e4afc7958def49c66502f5b3d535cb7c27b61009373e36b84606d136b",
          "transactionIndex": "0x3",
          "logIndex": "0x14",
          "removed": false
        },
        {
          "address": "0x2f9bb73a8e98793e26cb2f6c4ad037bdf1c6b269",
          "topics": [
            "0x804c9b842b2748a22bb64b345453a3de7ca54a6ca45ce00d415894979e22897a",
            "0x000000000000000000000000e5d7c2a44ffddf6b295a15c148167daaaf5cf34f"
          ],
          "data": "0x0000000000000000000000000000000000000000000d05e86bde57b30307ebb10000000000000000000000000000000000000000002cf51282d2dc4ace5871f60000000000000000000000000000000000000000001cc948a376af0ae2c38fad0000000000000000000000000000000000000000035374ca16a1d7938ef88d2f0000000000000000000000000000000000000000036121e152fd6c1ddc553e20",
          "blockHash": "0x0419e0082c3722bae4088ca2195c8d0f3def382c00aa992875486d952c2ae270",
          "blockNumber": "0x9ebb9f",
          "transactionHash": "0xab36755e4afc7958def49c66502f5b3d535cb7c27b61009373e36b84606d136b",
          "transactionIndex": "0x3",
          "logIndex": "0x15",
          "removed": false
        },
        {
          "address": "0xe5d7c2a44ffddf6b295a15c148167daaaf5cf34f",
          "topics": [
            "0xddf252ad1be2c89b69c2b068fc378daa952ba7f163c4a11628f55a4df523b3ef",
            "0x000000000000000000000000637b76f670b6de365ad8d07e2f6f4908e7e24bdd",
            "0x000000000000000000000000b4ffef15daf4c02787bc5332580b838ce39805f5"
          ],
          "data": "0x000000000000000000000000000000000000000000000000000aaa3a160e98b4",
          "blockHash": "0x0419e0082c3722bae4088ca2195c8d0f3def382c00aa992875486d952c2ae270",
          "blockNumber": "0x9ebb9f",
          "transactionHash": "0xab36755e4afc7958def49c66502f5b3d535cb7c27b61009373e36b84606d136b",
          "transactionIndex": "0x3",
          "logIndex": "0x16",
          "removed": false
        },
        {
          "address": "0x28f6899ff643261ca9766ddc251b359a2d00b945",
          "topics": [
            "0x3303facd24627943a92e9dc87cfbb34b15c49b726eec3ad3487c16be9ab8efe8",
            "0x000000000000000000000000b4ffef15daf4c02787bc5332580b838ce39805f5",
            "0x00000000000000000000000040a59a3f3b16d9e74c811d24d8b7969664cfe180",
            "0x000000000000000000000000637b76f670b6de365ad8d07e2f6f4908e7e24bdd"
          ],
          "data": "0x000000000000000000000000000000000000000000004a6e6ce87410aa4b5006000000000000000000000000000000000000000000004a6e6ce87410aa4b50060000000000000000000000000000000000000000000000000000000000000000",
          "blockHash": "0x0419e0082c3722bae4088ca2195c8d0f3def382c00aa992875486d952c2ae270",
          "blockNumber": "0x9ebb9f",
          "transactionHash": "0xab36755e4afc7958def49c66502f5b3d535cb7c27b61009373e36b84606d136b",
          "transactionIndex": "0x3",
          "logIndex": "0x17",
          "removed": false
        },
        {
          "address": "0x28f6899ff643261ca9766ddc251b359a2d00b945",
          "topics": [
            "0x3303facd24627943a92e9dc87cfbb34b15c49b726eec3ad3487c16be9ab8efe8",
            "0x000000000000000000000000b4ffef15daf4c02787bc5332580b838ce39805f5",
            "0x00000000000000000000000078354f8dccb269a615a7e0a24f9b0718fdc3c7a7",
            "0x000000000000000000000000637b76f670b6de365ad8d07e2f6f4908e7e24bdd"
          ],
          "data": "0x0000000000000000000000000000000000000000000002bf3e3787f7eb7f21b90000000000000000000000000000000000000000000002bf3e3787f7eb7f21b90000000000000000000000000000000000000000000000000000000000000000",
          "blockHash": "0x0419e0082c3722bae4088ca2195c8d0f3def382c00aa992875486d952c2ae270",
          "blockNumber": "0x9ebb9f",
          "transactionHash": "0xab36755e4afc7958def49c66502f5b3d535cb7c27b61009373e36b84606d136b",
          "transactionIndex": "0x3",
          "logIndex": "0x18",
          "removed": false
        },
        {
          "address": "0xb4ffef15daf4c02787bc5332580b838ce39805f5",
          "topics": [
            "0xddf252ad1be2c89b69c2b068fc378daa952ba7f163c4a11628f55a4df523b3ef",
            "0x0000000000000000000000000000000000000000000000000000000000000000",
            "0x000000000000000000000000637b76f670b6de365ad8d07e2f6f4908e7e24bdd"
          ],
          "data": "0x000000000000000000000000000000000000000000000000000aaa3a160e98b4",
          "blockHash": "0x0419e0082c3722bae4088ca2195c8d0f3def382c00aa992875486d952c2ae270",
          "blockNumber": "0x9ebb9f",
          "transactionHash": "0xab36755e4afc7958def49c66502f5b3d535cb7c27b61009373e36b84606d136b",
          "transactionIndex": "0x3",
          "logIndex": "0x19",
          "removed": false
        },
        {
          "address": "0xb4ffef15daf4c02787bc5332580b838ce39805f5",
          "topics": [
            "0x458f5fa412d0f69b08dd84872b0215675cc67bc1d5b6fd93300a1c3878b86196",
            "0x000000000000000000000000637b76f670b6de365ad8d07e2f6f4908e7e24bdd",
            "0x000000000000000000000000637b76f670b6de365ad8d07e2f6f4908e7e24bdd"
          ],
          "data": "0x000000000000000000000000000000000000000000000000000aaa3a160e98b400000000000000000000000000000000000000000000000000000000000000000000000000000000000000000000000000000000035374ca16a1d7938ef88d2f",
          "blockHash": "0x0419e0082c3722bae4088ca2195c8d0f3def382c00aa992875486d952c2ae270",
          "blockNumber": "0x9ebb9f",
          "transactionHash": "0xab36755e4afc7958def49c66502f5b3d535cb7c27b61009373e36b84606d136b",
          "transactionIndex": "0x3",
          "logIndex": "0x1a",
          "removed": false
        },
        {
          "address": "0x2f9bb73a8e98793e26cb2f6c4ad037bdf1c6b269",
          "topics": [
            "0x00058a56ea94653cdf4f152d227ace22d4c00ad99e2a43f58cb7d9e3feb295f2",
            "0x000000000000000000000000e5d7c2a44ffddf6b295a15c148167daaaf5cf34f",
            "0x000000000000000000000000637b76f670b6de365ad8d07e2f6f4908e7e24bdd"
          ],
          "data": "0x",
          "blockHash": "0x0419e0082c3722bae4088ca2195c8d0f3def382c00aa992875486d952c2ae270",
          "blockNumber": "0x9ebb9f",
          "transactionHash": "0xab36755e4afc7958def49c66502f5b3d535cb7c27b61009373e36b84606d136b",
          "transactionIndex": "0x3",
          "logIndex": "0x1b",
          "removed": false
        },
        {
          "address": "0x2f9bb73a8e98793e26cb2f6c4ad037bdf1c6b269",
          "topics": [
            "0x2b627736bca15cd5381dcf80b0bf11fd197d01a037c52b927a881a10fb73ba61",
            "0x000000000000000000000000e5d7c2a44ffddf6b295a15c148167daaaf5cf34f",
            "0x000000000000000000000000637b76f670b6de365ad8d07e2f6f4908e7e24bdd",
            "0x0000000000000000000000000000000000000000000000000000000000000000"
          ],
          "data": "0x000000000000000000000000637b76f670b6de365ad8d07e2f6f4908e7e24bdd000000000000000000000000000000000000000000000000000aaa3a160e98b4",
          "blockHash": "0x0419e0082c3722bae4088ca2195c8d0f3def382c00aa992875486d952c2ae270",
          "blockNumber": "0x9ebb9f",
          "transactionHash": "0xab36755e4afc7958def49c66502f5b3d535cb7c27b61009373e36b84606d136b",
          "transactionIndex": "0x3",
          "logIndex": "0x1c",
          "removed": false
        },
        {
          "address": "0x28f6899ff643261ca9766ddc251b359a2d00b945",
          "topics": [
            "0x3303facd24627943a92e9dc87cfbb34b15c49b726eec3ad3487c16be9ab8efe8",
            "0x000000000000000000000000a2703dc9fbaccd6ec2e4cbfa700989d0238133f6",
            "0x00000000000000000000000040a59a3f3b16d9e74c811d24d8b7969664cfe180",
            "0x000000000000000000000000637b76f670b6de365ad8d07e2f6f4908e7e24bdd"
          ],
          "data": "0x0000000000000000000000000000000000000000000000053f69899e410bb3ed0000000000000000000000000000000000000000000000053f69899e410bb3ed0000000000000000000000000000000000000000000000000000000000000000",
          "blockHash": "0x0419e0082c3722bae4088ca2195c8d0f3def382c00aa992875486d952c2ae270",
          "blockNumber": "0x9ebb9f",
          "transactionHash": "0xab36755e4afc7958def49c66502f5b3d535cb7c27b61009373e36b84606d136b",
          "transactionIndex": "0x3",
          "logIndex": "0x1d",
          "removed": false
        },
        {
          "address": "0x28f6899ff643261ca9766ddc251b359a2d00b945",
          "topics": [
            "0x3303facd24627943a92e9dc87cfbb34b15c49b726eec3ad3487c16be9ab8efe8",
            "0x000000000000000000000000a2703dc9fbaccd6ec2e4cbfa700989d0238133f6",
            "0x00000000000000000000000078354f8dccb269a615a7e0a24f9b0718fdc3c7a7",
            "0x000000000000000000000000637b76f670b6de365ad8d07e2f6f4908e7e24bdd"
          ],
          "data": "0x000000000000000000000000000000000000000000000001c8327219fff6bf0d000000000000000000000000000000000000000000000001c8327219fff6bf0d0000000000000000000000000000000000000000000000000000000000000000",
          "blockHash": "0x0419e0082c3722bae4088ca2195c8d0f3def382c00aa992875486d952c2ae270",
          "blockNumber": "0x9ebb9f",
          "transactionHash": "0xab36755e4afc7958def49c66502f5b3d535cb7c27b61009373e36b84606d136b",
          "transactionIndex": "0x3",
          "logIndex": "0x1e",
          "removed": false
        },
        {
          "address": "0xa2703dc9fbaccd6ec2e4cbfa700989d0238133f6",
          "topics": [
            "0xddf252ad1be2c89b69c2b068fc378daa952ba7f163c4a11628f55a4df523b3ef",
            "0x0000000000000000000000000000000000000000000000000000000000000000",
            "0x000000000000000000000000637b76f670b6de365ad8d07e2f6f4908e7e24bdd"
          ],
          "data": "0x00000000000000000000000000000000000000000000000000000000004a884b",
          "blockHash": "0x0419e0082c3722bae4088ca2195c8d0f3def382c00aa992875486d952c2ae270",
          "blockNumber": "0x9ebb9f",
          "transactionHash": "0xab36755e4afc7958def49c66502f5b3d535cb7c27b61009373e36b84606d136b",
          "transactionIndex": "0x3",
          "logIndex": "0x1f",
          "removed": false
        },
        {
          "address": "0xa2703dc9fbaccd6ec2e4cbfa700989d0238133f6",
          "topics": [
            "0x458f5fa412d0f69b08dd84872b0215675cc67bc1d5b6fd93300a1c3878b86196",
            "0x000000000000000000000000637b76f670b6de365ad8d07e2f6f4908e7e24bdd",
            "0x000000000000000000000000637b76f670b6de365ad8d07e2f6f4908e7e24bdd"
          ],
          "data": "0x00000000000000000000000000000000000000000000000000000000004a884b000000000000000000000000000000000000000000000000000000000000000000000000000000000000000000000000000000000371e5fe84430294244a59a0",
          "blockHash": "0x0419e0082c3722bae4088ca2195c8d0f3def382c00aa992875486d952c2ae270",
          "blockNumber": "0x9ebb9f",
          "transactionHash": "0xab36755e4afc7958def49c66502f5b3d535cb7c27b61009373e36b84606d136b",
          "transactionIndex": "0x3",
          "logIndex": "0x20",
          "removed": false
        },
        {
          "address": "0x2f9bb73a8e98793e26cb2f6c4ad037bdf1c6b269",
          "topics": [
            "0x804c9b842b2748a22bb64b345453a3de7ca54a6ca45ce00d415894979e22897a",
            "0x000000000000000000000000176211869ca2b568f2a7d4ee941e073a821ee1ff"
          ],
          "data": "0x000000000000000000000000000000000000000000089fd6490ee885b104f6cd0000000000000000000000000000000000000000002c1ea96635f12d52c882a60000000000000000000000000000000000000000001615ffbe8f561f064415320000000000000000000000000000000000000000036173fdf36d89ee3bfd17e400000000000000000000000000000000000000000371e5fe84430294244a59a0",
          "blockHash": "0x0419e0082c3722bae4088ca2195c8d0f3def382c00aa992875486d952c2ae270",
          "blockNumber": "0x9ebb9f",
          "transactionHash": "0xab36755e4afc7958def49c66502f5b3d535cb7c27b61009373e36b84606d136b",
          "transactionIndex": "0x3",
          "logIndex": "0x21",
          "removed": false
        },
        {
          "address": "0x176211869ca2b568f2a7d4ee941e073a821ee1ff",
          "topics": [
            "0xddf252ad1be2c89b69c2b068fc378daa952ba7f163c4a11628f55a4df523b3ef",
            "0x0000000000000000000000002e207eca8b6bf77a6ac82763eeed2a94de4f081d",
            "0x000000000000000000000000637b76f670b6de365ad8d07e2f6f4908e7e24bdd"
          ],
          "data": "0x00000000000000000000000000000000000000000000000000000000004a884b",
          "blockHash": "0x0419e0082c3722bae4088ca2195c8d0f3def382c00aa992875486d952c2ae270",
          "blockNumber": "0x9ebb9f",
          "transactionHash": "0xab36755e4afc7958def49c66502f5b3d535cb7c27b61009373e36b84606d136b",
          "transactionIndex": "0x3",
          "logIndex": "0x22",
          "removed": false
        },
        {
          "address": "0x2f9bb73a8e98793e26cb2f6c4ad037bdf1c6b269",
          "topics": [
            "0xb3d084820fb1a9decffb176436bd02558d15fac9b0ddfed8c465bc7359d7dce0",
            "0x000000000000000000000000176211869ca2b568f2a7d4ee941e073a821ee1ff",
            "0x000000000000000000000000637b76f670b6de365ad8d07e2f6f4908e7e24bdd",
            "0x0000000000000000000000000000000000000000000000000000000000000000"
          ],
          "data": "0x000000000000000000000000637b76f670b6de365ad8d07e2f6f4908e7e24bdd00000000000000000000000000000000000000000000000000000000004a884b00000000000000000000000000000000000000000000000000000000000000020000000000000000000000000000000000000000001615ffbe8f561f06441532",
          "blockHash": "0x0419e0082c3722bae4088ca2195c8d0f3def382c00aa992875486d952c2ae270",
          "blockNumber": "0x9ebb9f",
          "transactionHash": "0xab36755e4afc7958def49c66502f5b3d535cb7c27b61009373e36b84606d136b",
          "transactionIndex": "0x3",
          "logIndex": "0x23",
          "removed": false
        },
        {
          "address": "0x176211869ca2b568f2a7d4ee941e073a821ee1ff",
          "topics": [
            "0x8c5be1e5ebec7d5bd14f71427d1e84f3dd0314c0f7b2291e5b200ac8c7c3b925",
            "0x000000000000000000000000637b76f670b6de365ad8d07e2f6f4908e7e24bdd",
            "0x0000000000000000000000002f9bb73a8e98793e26cb2f6c4ad037bdf1c6b269"
          ],
          "data": "0x00000000000000000000000000000000000000000000000000000000004a884b",
          "blockHash": "0x0419e0082c3722bae4088ca2195c8d0f3def382c00aa992875486d952c2ae270",
          "blockNumber": "0x9ebb9f",
          "transactionHash": "0xab36755e4afc7958def49c66502f5b3d535cb7c27b61009373e36b84606d136b",
          "transactionIndex": "0x3",
          "logIndex": "0x24",
          "removed": false
        },
        {
          "address": "0x176211869ca2b568f2a7d4ee941e073a821ee1ff",
          "topics": [
            "0x8c5be1e5ebec7d5bd14f71427d1e84f3dd0314c0f7b2291e5b200ac8c7c3b925",
            "0x000000000000000000000000637b76f670b6de365ad8d07e2f6f4908e7e24bdd",
            "0x0000000000000000000000002f9bb73a8e98793e26cb2f6c4ad037bdf1c6b269"
          ],
          "data": "0x0000000000000000000000000000000000000000000000000000000000000000",
          "blockHash": "0x0419e0082c3722bae4088ca2195c8d0f3def382c00aa992875486d952c2ae270",
          "blockNumber": "0x9ebb9f",
          "transactionHash": "0xab36755e4afc7958def49c66502f5b3d535cb7c27b61009373e36b84606d136b",
          "transactionIndex": "0x3",
          "logIndex": "0x25",
          "removed": false
        },
        {
          "address": "0x176211869ca2b568f2a7d4ee941e073a821ee1ff",
          "topics": [
            "0x8c5be1e5ebec7d5bd14f71427d1e84f3dd0314c0f7b2291e5b200ac8c7c3b925",
            "0x000000000000000000000000637b76f670b6de365ad8d07e2f6f4908e7e24bdd",
            "0x0000000000000000000000002d8879046f1559e53eb052e949e9544bcb72f414"
          ],
          "data": "0x0000000000000000000000000000000000000000000000000000000000000000",
          "blockHash": "0x0419e0082c3722bae4088ca2195c8d0f3def382c00aa992875486d952c2ae270",
          "blockNumber": "0x9ebb9f",
          "transactionHash": "0xab36755e4afc7958def49c66502f5b3d535cb7c27b61009373e36b84606d136b",
          "transactionIndex": "0x3",
          "logIndex": "0x26",
          "removed": false
        },
        {
          "address": "0xe5d7c2a44ffddf6b295a15c148167daaaf5cf34f",
          "topics": [
            "0x8c5be1e5ebec7d5bd14f71427d1e84f3dd0314c0f7b2291e5b200ac8c7c3b925",
            "0x000000000000000000000000637b76f670b6de365ad8d07e2f6f4908e7e24bdd",
            "0x0000000000000000000000002f9bb73a8e98793e26cb2f6c4ad037bdf1c6b269"
          ],
          "data": "0x0000000000000000000000000000000000000000000000000000000000000000",
          "blockHash": "0x0419e0082c3722bae4088ca2195c8d0f3def382c00aa992875486d952c2ae270",
          "blockNumber": "0x9ebb9f",
          "transactionHash": "0xab36755e4afc7958def49c66502f5b3d535cb7c27b61009373e36b84606d136b",
          "transactionIndex": "0x3",
          "logIndex": "0x27",
          "removed": false
        },
        {
          "address": "0x176211869ca2b568f2a7d4ee941e073a821ee1ff",
          "topics": [
            "0x8c5be1e5ebec7d5bd14f71427d1e84f3dd0314c0f7b2291e5b200ac8c7c3b925",
            "0x000000000000000000000000637b76f670b6de365ad8d07e2f6f4908e7e24bdd",
            "0x0000000000000000000000002f9bb73a8e98793e26cb2f6c4ad037bdf1c6b269"
          ],
          "data": "0x00000000000000000000000000000000000000000000000000000000004a884b",
          "blockHash": "0x0419e0082c3722bae4088ca2195c8d0f3def382c00aa992875486d952c2ae270",
          "blockNumber": "0x9ebb9f",
          "transactionHash": "0xab36755e4afc7958def49c66502f5b3d535cb7c27b61009373e36b84606d136b",
          "transactionIndex": "0x3",
          "logIndex": "0x28",
          "removed": false
        },
        {
          "address": "0x2f9bb73a8e98793e26cb2f6c4ad037bdf1c6b269",
          "topics": [
            "0x804c9b842b2748a22bb64b345453a3de7ca54a6ca45ce00d415894979e22897a",
            "0x000000000000000000000000176211869ca2b568f2a7d4ee941e073a821ee1ff"
          ],
          "data": "0x000000000000000000000000000000000000000000089fd5d874f3bcce99b8690000000000000000000000000000000000000000002c1ea95430355274db85770000000000000000000000000000000000000000001615ff2e61774816dc2bba0000000000000000000000000000000000000000036173fdf64008c4b570439500000000000000000000000000000000000000000371e5fe84430294244a59a0",
          "blockHash": "0x0419e0082c3722bae4088ca2195c8d0f3def382c00aa992875486d952c2ae270",
          "blockNumber": "0x9ebb9f",
          "transactionHash": "0xab36755e4afc7958def49c66502f5b3d535cb7c27b61009373e36b84606d136b",
          "transactionIndex": "0x3",
          "logIndex": "0x29",
          "removed": false
        },
        {
          "address": "0x176211869ca2b568f2a7d4ee941e073a821ee1ff",
          "topics": [
            "0xddf252ad1be2c89b69c2b068fc378daa952ba7f163c4a11628f55a4df523b3ef",
            "0x000000000000000000000000637b76f670b6de365ad8d07e2f6f4908e7e24bdd",
            "0x0000000000000000000000002e207eca8b6bf77a6ac82763eeed2a94de4f081d"
          ],
          "data": "0x00000000000000000000000000000000000000000000000000000000004a884b",
          "blockHash": "0x0419e0082c3722bae4088ca2195c8d0f3def382c00aa992875486d952c2ae270",
          "blockNumber": "0x9ebb9f",
          "transactionHash": "0xab36755e4afc7958def49c66502f5b3d535cb7c27b61009373e36b84606d136b",
          "transactionIndex": "0x3",
          "logIndex": "0x2a",
          "removed": false
        },
        {
          "address": "0x2f9bb73a8e98793e26cb2f6c4ad037bdf1c6b269",
          "topics": [
            "0xefefaba5e921573100900a3ad9cf29f222d995fb3b6045797eaea7521bd8d6f0",
            "0x000000000000000000000000637b76f670b6de365ad8d07e2f6f4908e7e24bdd",
            "0x000000000000000000000000176211869ca2b568f2a7d4ee941e073a821ee1ff",
            "0x0000000000000000000000000000000000000000000000000000000000000000"
          ],
          "data": "0x000000000000000000000000637b76f670b6de365ad8d07e2f6f4908e7e24bdd00000000000000000000000000000000000000000000000000000000004a7ec200000000000000000000000000000000000000000000000000000000000000000000000000000000000000000000000000000000000000000000000000000989",
          "blockHash": "0x0419e0082c3722bae4088ca2195c8d0f3def382c00aa992875486d952c2ae270",
          "blockNumber": "0x9ebb9f",
          "transactionHash": "0xab36755e4afc7958def49c66502f5b3d535cb7c27b61009373e36b84606d136b",
          "transactionIndex": "0x3",
          "logIndex": "0x2b",
          "removed": false
        }
      ],
      "logsBloom": "0x10000000004008040080000000000000008000004000000000000000000000000800a000280008000000100008c6000004100800001000140004010000200000040000200040000000080008020000002040000000008002000000040041000000800002020000000080000020000801c0400002120000000100001020040000000002008000000800100004000000000000000000000000008000040000004002080000020000042800008002000010000000000010080100000000a0000100025020020800010000000020400200000002000080000e0000000000000020000010200000008020100000000001000040000000000002000000400000100000",
      "type": "0x2",
      "transactionHash": "0xab36755e4afc7958def49c66502f5b3d535cb7c27b61009373e36b84606d136b",
      "transactionIndex": "0x3",
      "blockHash": "0x0419e0082c3722bae4088ca2195c8d0f3def382c00aa992875486d952c2ae270",
      "blockNumber": "0x9ebb9f",
      "gasUsed": "0x120d2a",
      "effectiveGasPrice": "0xe4e1c07",
      "from": "0x205edf0f225457fecfa22e5774e7a4c9177d56a8",
      "to": "0xc76f1b20f72ae3b73376e035b54ac3a97977d6b8",
      "contractAddress": null
    }
  ],
  "libraries": [],
  "pending": [],
  "returns": {},
  "timestamp": 1728234010,
  "chain": 59144,
  "commit": "63c5290"
}