{
  "transactions": [
    {
      "hash": "0x4d577c3d0fae7219887df6eb689aa850989a1b6083f23d0e16180e41f8168940",
      "transactionType": "CALL",
      "contractName": null,
      "contractAddress": "0xe5d7c2a44ffddf6b295a15c148167daaaf5cf34f",
      "function": "approve(address,uint256)",
      "arguments": [
        "0x0B306BF915C4d645ff596e518fAf3F9669b97016",
        "115792089237316195423570985008687907853269984665640564039457584007913129639935"
      ],
      "transaction": {
        "from": "0xf39fd6e51aad88f6f4ce6ab8827279cfffb92266",
        "to": "0xe5d7c2a44ffddf6b295a15c148167daaaf5cf34f",
        "gas": "0x8ec9",
        "value": "0x0",
        "input": "0x095ea7b30000000000000000000000000b306bf915c4d645ff596e518faf3f9669b97016ffffffffffffffffffffffffffffffffffffffffffffffffffffffffffffffff",
        "nonce": "0x3e",
        "chainId": "0xe708"
      },
      "additionalContracts": [],
      "isFixedGasLimit": false
    },
    {
      "hash": "0x700f4da2dda852051f8f08a676da9609ae20e8cbb58054bcb880479538de8e6e",
      "transactionType": "CALL",
      "contractName": null,
      "contractAddress": "0x176211869ca2b568f2a7d4ee941e073a821ee1ff",
      "function": "approve(address,uint256)",
      "arguments": [
        "0x0B306BF915C4d645ff596e518fAf3F9669b97016",
        "115792089237316195423570985008687907853269984665640564039457584007913129639935"
      ],
      "transaction": {
        "from": "0xf39fd6e51aad88f6f4ce6ab8827279cfffb92266",
        "to": "0x176211869ca2b568f2a7d4ee941e073a821ee1ff",
        "gas": "0xe62b",
        "value": "0x0",
        "input": "0x095ea7b30000000000000000000000000b306bf915c4d645ff596e518faf3f9669b97016ffffffffffffffffffffffffffffffffffffffffffffffffffffffffffffffff",
        "nonce": "0x3f",
        "chainId": "0xe708"
      },
      "additionalContracts": [],
      "isFixedGasLimit": false
    },
    {
      "hash": "0x752e779bc33b066cecf174b137733e38b216405f2c4842f9eb01dc36a96ddb13",
      "transactionType": "CALL",
      "contractName": null,
      "contractAddress": "0x0b306bf915c4d645ff596e518faf3f9669b97016",
      "function": "createAndAddToPosition((string,address,address),(uint256,uint256,bytes))",
      "arguments": [
        "(\"SHORT_BASE_ODOS_ZEROLEND\", 0x176211869cA2b568f2A7D4EE941E073a821EE1ff, 0xe5D7C2a44FfDDf6b295A15c148167daaAf5Cf34f)",
        "(10000000000000000, 20000000000000004, 0x83bd37f90001e5d7c2a44ffddf6b295a15c148167daaaf5cf34f0001176211869ca2b568f2a7d4ee941e073a821ee1ff076a94d74f430004040459c021028f5c000156c85a254dd12ee8d9c04049a4ab62769ce982100000000160c6a2e4827196bb34c304e90553b51017d89fdd0000000003010203000a0101010200ff000000000000000000000000000000000000000000586733678b9ac9da43dd7cb83bbb41d23677dfc3e5d7c2a44ffddf6b295a15c148167daaaf5cf34f000000000000000000000000000000000000000000000000)"
      ],
      "transaction": {
        "from": "0xf39fd6e51aad88f6f4ce6ab8827279cfffb92266",
        "to": "0x0b306bf915c4d645ff596e518faf3f9669b97016",
        "gas": "0x173bbf",
        "value": "0x0",
        "input": "0x211d9b04000000000000000000000000000000000000000000000000000000000000004000000000000000000000000000000000000000000000000000000000000000e00000000000000000000000000000000000000000000000000000000000000060000000000000000000000000176211869ca2b568f2a7d4ee941e073a821ee1ff000000000000000000000000e5d7c2a44ffddf6b295a15c148167daaaf5cf34f000000000000000000000000000000000000000000000000000000000000001853484f52545f424153455f4f444f535f5a45524f4c454e440000000000000000000000000000000000000000000000000000000000000000002386f26fc1000000000000000000000000000000000000000000000000000000470de4df820004000000000000000000000000000000000000000000000000000000000000006000000000000000000000000000000000000000000000000000000000000000d383bd37f90001e5d7c2a44ffddf6b295a15c148167daaaf5cf34f0001176211869ca2b568f2a7d4ee941e073a821ee1ff076a94d74f430004040459c021028f5c000156c85a254dd12ee8d9c04049a4ab62769ce982100000000160c6a2e4827196bb34c304e90553b51017d89fdd0000000003010203000a0101010200ff000000000000000000000000000000000000000000586733678b9ac9da43dd7cb83bbb41d23677dfc3e5d7c2a44ffddf6b295a15c148167daaaf5cf34f00000000000000000000000000000000000000000000000000000000000000000000000000",
        "nonce": "0x40",
        "chainId": "0xe708"
      },
      "additionalContracts": [
        {
          "transactionType": "CREATE2",
          "address": "0x60c6a2e4827196bb34c304e90553b51017d89fdd",
          "initCode": "0x60a060405234801561001057600080fd5b506040516101d43803806101d483398101604081905261002f9161009a565b6001600160a01b0381166100895760405162461bcd60e51b815260206004820152601e60248201527f496e76616c696420696d706c656d656e746174696f6e20616464726573730000604482015260640160405180910390fd5b6001600160a01b03166080526100ca565b6000602082840312156100ac57600080fd5b81516001600160a01b03811681146100c357600080fd5b9392505050565b60805160ec6100e860003960008181602001526055015260ec6000f3fe608060405260043610601c5760003560e01c80635c60da1b146045575b60437f00000000000000000000000000000000000000000000000000000000000000006093565b005b348015605057600080fd5b5060777f000000000000000000000000000000000000000000000000000000000000000081565b6040516001600160a01b03909116815260200160405180910390f35b3660008037600080366000845af43d6000803e80801560b1573d6000f35b3d6000fdfea2646970667358221220f6020ed423ab8c3633806cc507ff73ce07ea9bade45f63874f1be7c04b23516364736f6c634300081a003300000000000000000000000059b670e9fa9d0a427751af201d676719a970857b"
        }
      ],
      "isFixedGasLimit": false
    }
  ],
  "receipts": [
    {
      "status": "0x1",
      "cumulativeGasUsed": "0x6760",
      "logs": [
        {
          "address": "0xe5d7c2a44ffddf6b295a15c148167daaaf5cf34f",
          "topics": [
            "0x8c5be1e5ebec7d5bd14f71427d1e84f3dd0314c0f7b2291e5b200ac8c7c3b925",
            "0x000000000000000000000000f39fd6e51aad88f6f4ce6ab8827279cfffb92266",
            "0x0000000000000000000000000b306bf915c4d645ff596e518faf3f9669b97016"
          ],
          "data": "0xffffffffffffffffffffffffffffffffffffffffffffffffffffffffffffffff",
          "blockHash": "0x43667eb4dbcc67ff3de1e5cc8a197ab8def43e3c7d481f19318995f0d7d7218d",
          "blockNumber": "0x8fe2bf",
          "blockTimestamp": "0x66e4ea0d",
          "transactionHash": "0x4d577c3d0fae7219887df6eb689aa850989a1b6083f23d0e16180e41f8168940",
          "transactionIndex": "0x0",
          "logIndex": "0x0",
          "removed": false
        }
      ],
      "logsBloom": "0x0000000000000000000000000000000800000000000000000000000000000000000000000000000000000000000000000000000000000000000000000020000000000000000000000000000000000000000000000000000000000000000000000000000000000000000000030000000000000000000000000000000000000000000000000000000000100000000000000000000000000000000000000000000002000000000000000000000000000000000000000000000000000000200000000000000000000020000000000000000000000000a000000000000000000000000010000000000000000000000400000000000000000000000000000000000000",
      "type": "0x2",
      "transactionHash": "0x4d577c3d0fae7219887df6eb689aa850989a1b6083f23d0e16180e41f8168940",
      "transactionIndex": "0x0",
      "blockHash": "0x43667eb4dbcc67ff3de1e5cc8a197ab8def43e3c7d481f19318995f0d7d7218d",
      "blockNumber": "0x8fe2bf",
      "gasUsed": "0x6760",
      "effectiveGasPrice": "0x3938707",
      "blobGasPrice": "0x1",
      "from": "0xf39fd6e51aad88f6f4ce6ab8827279cfffb92266",
      "to": "0xe5d7c2a44ffddf6b295a15c148167daaaf5cf34f",
      "contractAddress": null,
      "root": "0x0000000000000000000000000000000000000000000000000000000000000000"
    },
    {
      "status": "0x1",
      "cumulativeGasUsed": "0x9d62",
      "logs": [
        {
          "address": "0x176211869ca2b568f2a7d4ee941e073a821ee1ff",
          "topics": [
            "0x8c5be1e5ebec7d5bd14f71427d1e84f3dd0314c0f7b2291e5b200ac8c7c3b925",
            "0x000000000000000000000000f39fd6e51aad88f6f4ce6ab8827279cfffb92266",
            "0x0000000000000000000000000b306bf915c4d645ff596e518faf3f9669b97016"
          ],
          "data": "0xffffffffffffffffffffffffffffffffffffffffffffffffffffffffffffffff",
          "blockHash": "0xcc8f384bc43ada5ea89e0f1022d12ac88aa46d62be1793f28491fbb1c013a9ce",
          "blockNumber": "0x8fe2c0",
          "blockTimestamp": "0x66e4ea0e",
          "transactionHash": "0x700f4da2dda852051f8f08a676da9609ae20e8cbb58054bcb880479538de8e6e",
          "transactionIndex": "0x0",
          "logIndex": "0x0",
          "removed": false
        }
      ],
      "logsBloom": "0x00000000000000000000000000000008000000000000000000000000000000000000000000000000000000000000000000000800000000000004000000200000000000000000000000000000020000000000000000000000000000000000000000000000000000000000000300000000000000000000000000000000000000000000000000000000000000000000000000000000000000000000000000000000020000000000000000000000000000000000000000000000000000000000000000000000000000200000000000000000000000002000000000000000000000000010000000000000000000000400000000000000000000000000000000000000",
      "type": "0x2",
      "transactionHash": "0x700f4da2dda852051f8f08a676da9609ae20e8cbb58054bcb880479538de8e6e",
      "transactionIndex": "0x0",
      "blockHash": "0xcc8f384bc43ada5ea89e0f1022d12ac88aa46d62be1793f28491fbb1c013a9ce",
      "blockNumber": "0x8fe2c0",
      "gasUsed": "0x9d62",
      "effectiveGasPrice": "0x3938707",
      "blobGasPrice": "0x1",
      "from": "0xf39fd6e51aad88f6f4ce6ab8827279cfffb92266",
      "to": "0x176211869ca2b568f2a7d4ee941e073a821ee1ff",
      "contractAddress": null,
      "root": "0x0000000000000000000000000000000000000000000000000000000000000000"
    },
    {
      "status": "0x1",
      "cumulativeGasUsed": "0x114556",
      "logs": [
        {
          "address": "0x9a9f2ccfde556a7e9ff0848998aa4a0cfd8863ae",
          "topics": [
            "0xddf252ad1be2c89b69c2b068fc378daa952ba7f163c4a11628f55a4df523b3ef",
            "0x0000000000000000000000000000000000000000000000000000000000000000",
            "0x000000000000000000000000f39fd6e51aad88f6f4ce6ab8827279cfffb92266",
            "0x0000000000000000000000000000000000000000000000000000000000000001"
          ],
          "data": "0x",
          "blockHash": "0x6b3e5d6a9b891345a68d76c1cfc6fb4547febf7519abaac0c60fff7c1a8c618f",
          "blockNumber": "0x8fe2c1",
          "blockTimestamp": "0x66e4ea0f",
          "transactionHash": "0x752e779bc33b066cecf174b137733e38b216405f2c4842f9eb01dc36a96ddb13",
          "transactionIndex": "0x0",
          "logIndex": "0x0",
          "removed": false
        },
        {
          "address": "0xe5d7c2a44ffddf6b295a15c148167daaaf5cf34f",
          "topics": [
            "0xddf252ad1be2c89b69c2b068fc378daa952ba7f163c4a11628f55a4df523b3ef",
            "0x000000000000000000000000f39fd6e51aad88f6f4ce6ab8827279cfffb92266",
            "0x00000000000000000000000060c6a2e4827196bb34c304e90553b51017d89fdd"
          ],
          "data": "0x000000000000000000000000000000000000000000000000002386f26fc10000",
          "blockHash": "0x6b3e5d6a9b891345a68d76c1cfc6fb4547febf7519abaac0c60fff7c1a8c618f",
          "blockNumber": "0x8fe2c1",
          "blockTimestamp": "0x66e4ea0f",
          "transactionHash": "0x752e779bc33b066cecf174b137733e38b216405f2c4842f9eb01dc36a96ddb13",
          "transactionIndex": "0x0",
          "logIndex": "0x1",
          "removed": false
        },
        {
          "address": "0xe5d7c2a44ffddf6b295a15c148167daaaf5cf34f",
          "topics": [
            "0xddf252ad1be2c89b69c2b068fc378daa952ba7f163c4a11628f55a4df523b3ef",
            "0x000000000000000000000000b4ffef15daf4c02787bc5332580b838ce39805f5",
            "0x00000000000000000000000060c6a2e4827196bb34c304e90553b51017d89fdd"
          ],
          "data": "0x00000000000000000000000000000000000000000000000000470de4df820004",
          "blockHash": "0x6b3e5d6a9b891345a68d76c1cfc6fb4547febf7519abaac0c60fff7c1a8c618f",
          "blockNumber": "0x8fe2c1",
          "blockTimestamp": "0x66e4ea0f",
          "transactionHash": "0x752e779bc33b066cecf174b137733e38b216405f2c4842f9eb01dc36a96ddb13",
          "transactionIndex": "0x0",
          "logIndex": "0x2",
          "removed": false
        },
        {
          "address": "0xe5d7c2a44ffddf6b295a15c148167daaaf5cf34f",
          "topics": [
            "0x8c5be1e5ebec7d5bd14f71427d1e84f3dd0314c0f7b2291e5b200ac8c7c3b925",
            "0x00000000000000000000000060c6a2e4827196bb34c304e90553b51017d89fdd",
            "0x0000000000000000000000002d8879046f1559e53eb052e949e9544bcb72f414"
          ],
          "data": "0x000000000000000000000000000000000000000000000000006a94d74f430004",
          "blockHash": "0x6b3e5d6a9b891345a68d76c1cfc6fb4547febf7519abaac0c60fff7c1a8c618f",
          "blockNumber": "0x8fe2c1",
          "blockTimestamp": "0x66e4ea0f",
          "transactionHash": "0x752e779bc33b066cecf174b137733e38b216405f2c4842f9eb01dc36a96ddb13",
          "transactionIndex": "0x0",
          "logIndex": "0x3",
          "removed": false
        },
        {
          "address": "0xe5d7c2a44ffddf6b295a15c148167daaaf5cf34f",
          "topics": [
            "0xddf252ad1be2c89b69c2b068fc378daa952ba7f163c4a11628f55a4df523b3ef",
            "0x00000000000000000000000060c6a2e4827196bb34c304e90553b51017d89fdd",
            "0x00000000000000000000000056c85a254dd12ee8d9c04049a4ab62769ce98210"
          ],
          "data": "0x000000000000000000000000000000000000000000000000006a94d74f430004",
          "blockHash": "0x6b3e5d6a9b891345a68d76c1cfc6fb4547febf7519abaac0c60fff7c1a8c618f",
          "blockNumber": "0x8fe2c1",
          "blockTimestamp": "0x66e4ea0f",
          "transactionHash": "0x752e779bc33b066cecf174b137733e38b216405f2c4842f9eb01dc36a96ddb13",
          "transactionIndex": "0x0",
          "logIndex": "0x4",
          "removed": false
        },
        {
          "address": "0x176211869ca2b568f2a7d4ee941e073a821ee1ff",
          "topics": [
            "0xddf252ad1be2c89b69c2b068fc378daa952ba7f163c4a11628f55a4df523b3ef",
            "0x000000000000000000000000586733678b9ac9da43dd7cb83bbb41d23677dfc3",
            "0x0000000000000000000000002d8879046f1559e53eb052e949e9544bcb72f414"
          ],
          "data": "0x000000000000000000000000000000000000000000000000000000000457be9d",
          "blockHash": "0x6b3e5d6a9b891345a68d76c1cfc6fb4547febf7519abaac0c60fff7c1a8c618f",
          "blockNumber": "0x8fe2c1",
          "blockTimestamp": "0x66e4ea0f",
          "transactionHash": "0x752e779bc33b066cecf174b137733e38b216405f2c4842f9eb01dc36a96ddb13",
          "transactionIndex": "0x0",
          "logIndex": "0x5",
          "removed": false
        },
        {
          "address": "0xe5d7c2a44ffddf6b295a15c148167daaaf5cf34f",
          "topics": [
            "0xddf252ad1be2c89b69c2b068fc378daa952ba7f163c4a11628f55a4df523b3ef",
            "0x00000000000000000000000056c85a254dd12ee8d9c04049a4ab62769ce98210",
            "0x000000000000000000000000586733678b9ac9da43dd7cb83bbb41d23677dfc3"
          ],
          "data": "0x000000000000000000000000000000000000000000000000006a94d74f430004",
          "blockHash": "0x6b3e5d6a9b891345a68d76c1cfc6fb4547febf7519abaac0c60fff7c1a8c618f",
          "blockNumber": "0x8fe2c1",
          "blockTimestamp": "0x66e4ea0f",
          "transactionHash": "0x752e779bc33b066cecf174b137733e38b216405f2c4842f9eb01dc36a96ddb13",
          "transactionIndex": "0x0",
          "logIndex": "0x6",
          "removed": false
        },
        {
          "address": "0x586733678b9ac9da43dd7cb83bbb41d23677dfc3",
          "topics": [
            "0x19b47279256b2a23a1665c810c8d55a1758940ee09377d4f8d26497a3577dc83",
            "0x00000000000000000000000056c85a254dd12ee8d9c04049a4ab62769ce98210",
            "0x0000000000000000000000002d8879046f1559e53eb052e949e9544bcb72f414"
          ],
          "data": "0xfffffffffffffffffffffffffffffffffffffffffffffffffffffffffba84163000000000000000000000000000000000000000000000000006a94d74f4300040000000000000000000000000000000000004f437c6ef12e7f36ebd32803a3060000000000000000000000000000000000000000000000000041789204b34bdc00000000000000000000000000000000000000000000000000000000000306e10000000000000000000000000000000000000000000000000000000000000000000000000000000000000000000000000000000000000000000000e680992c00",
          "blockHash": "0x6b3e5d6a9b891345a68d76c1cfc6fb4547febf7519abaac0c60fff7c1a8c618f",
          "blockNumber": "0x8fe2c1",
          "blockTimestamp": "0x66e4ea0f",
          "transactionHash": "0x752e779bc33b066cecf174b137733e38b216405f2c4842f9eb01dc36a96ddb13",
          "transactionIndex": "0x0",
          "logIndex": "0x7",
          "removed": false
        },
        {
          "address": "0x176211869ca2b568f2a7d4ee941e073a821ee1ff",
          "topics": [
            "0xddf252ad1be2c89b69c2b068fc378daa952ba7f163c4a11628f55a4df523b3ef",
            "0x0000000000000000000000002d8879046f1559e53eb052e949e9544bcb72f414",
            "0x00000000000000000000000060c6a2e4827196bb34c304e90553b51017d89fdd"
          ],
          "data": "0x000000000000000000000000000000000000000000000000000000000457be9d",
          "blockHash": "0x6b3e5d6a9b891345a68d76c1cfc6fb4547febf7519abaac0c60fff7c1a8c618f",
          "blockNumber": "0x8fe2c1",
          "blockTimestamp": "0x66e4ea0f",
          "transactionHash": "0x752e779bc33b066cecf174b137733e38b216405f2c4842f9eb01dc36a96ddb13",
          "transactionIndex": "0x0",
          "logIndex": "0x8",
          "removed": false
        },
        {
          "address": "0x2d8879046f1559e53eb052e949e9544bcb72f414",
          "topics": [
            "0x823eaf01002d7353fbcadb2ea3305cc46fa35d799cb0914846d185ac06f8ad05"
          ],
          "data": "0x00000000000000000000000060c6a2e4827196bb34c304e90553b51017d89fdd000000000000000000000000000000000000000000000000006a94d74f430004000000000000000000000000e5d7c2a44ffddf6b295a15c148167daaaf5cf34f000000000000000000000000000000000000000000000000000000000457be9d000000000000000000000000176211869ca2b568f2a7d4ee941e073a821ee1fffffffffffffffffffffffffffffffffffffffffffffffffffffffffffffdfe7c0000000000000000000000000000000000000000000000000000000000000000",
          "blockHash": "0x6b3e5d6a9b891345a68d76c1cfc6fb4547febf7519abaac0c60fff7c1a8c618f",
          "blockNumber": "0x8fe2c1",
          "blockTimestamp": "0x66e4ea0f",
          "transactionHash": "0x752e779bc33b066cecf174b137733e38b216405f2c4842f9eb01dc36a96ddb13",
          "transactionIndex": "0x0",
          "logIndex": "0x9",
          "removed": false
        },
        {
          "address": "0x176211869ca2b568f2a7d4ee941e073a821ee1ff",
          "topics": [
            "0x8c5be1e5ebec7d5bd14f71427d1e84f3dd0314c0f7b2291e5b200ac8c7c3b925",
            "0x00000000000000000000000060c6a2e4827196bb34c304e90553b51017d89fdd",
            "0x0000000000000000000000002f9bb73a8e98793e26cb2f6c4ad037bdf1c6b269"
          ],
          "data": "0x000000000000000000000000000000000000000000000000000000000457be9d",
          "blockHash": "0x6b3e5d6a9b891345a68d76c1cfc6fb4547febf7519abaac0c60fff7c1a8c618f",
          "blockNumber": "0x8fe2c1",
          "blockTimestamp": "0x66e4ea0f",
          "transactionHash": "0x752e779bc33b066cecf174b137733e38b216405f2c4842f9eb01dc36a96ddb13",
          "transactionIndex": "0x0",
          "logIndex": "0xa",
          "removed": false
        },
        {
          "address": "0x2f9bb73a8e98793e26cb2f6c4ad037bdf1c6b269",
          "topics": [
            "0x804c9b842b2748a22bb64b345453a3de7ca54a6ca45ce00d415894979e22897a",
            "0x000000000000000000000000176211869ca2b568f2a7d4ee941e073a821ee1ff"
          ],
          "data": "0x0000000000000000000000000000000000000000001180b6aad3fc02203f82ef0000000000000000000000000000000000000000002d4abdb7c54a1d6e12c3540000000000000000000000000000000000000000001f76a24b0a1d9fe0961a9a0000000000000000000000000000000000000000035dda36869121f40c381dc60000000000000000000000000000000000000000036bc17115bababbf1bfb397",
          "blockHash": "0x6b3e5d6a9b891345a68d76c1cfc6fb4547febf7519abaac0c60fff7c1a8c618f",
          "blockNumber": "0x8fe2c1",
          "blockTimestamp": "0x66e4ea0f",
          "transactionHash": "0x752e779bc33b066cecf174b137733e38b216405f2c4842f9eb01dc36a96ddb13",
          "transactionIndex": "0x0",
          "logIndex": "0xb",
          "removed": false
        },
        {
          "address": "0x176211869ca2b568f2a7d4ee941e073a821ee1ff",
          "topics": [
            "0xddf252ad1be2c89b69c2b068fc378daa952ba7f163c4a11628f55a4df523b3ef",
            "0x00000000000000000000000060c6a2e4827196bb34c304e90553b51017d89fdd",
            "0x0000000000000000000000002e207eca8b6bf77a6ac82763eeed2a94de4f081d"
          ],
          "data": "0x000000000000000000000000000000000000000000000000000000000457be9d",
          "blockHash": "0x6b3e5d6a9b891345a68d76c1cfc6fb4547febf7519abaac0c60fff7c1a8c618f",
          "blockNumber": "0x8fe2c1",
          "blockTimestamp": "0x66e4ea0f",
          "transactionHash": "0x752e779bc33b066cecf174b137733e38b216405f2c4842f9eb01dc36a96ddb13",
          "transactionIndex": "0x0",
          "logIndex": "0xc",
          "removed": false
        },
        {
          "address": "0x28f6899ff643261ca9766ddc251b359a2d00b945",
          "topics": [
            "0x3303facd24627943a92e9dc87cfbb34b15c49b726eec3ad3487c16be9ab8efe8",
            "0x0000000000000000000000002e207eca8b6bf77a6ac82763eeed2a94de4f081d",
            "0x00000000000000000000000040a59a3f3b16d9e74c811d24d8b7969664cfe180",
            "0x00000000000000000000000060c6a2e4827196bb34c304e90553b51017d89fdd"
          ],
          "data": "0x0000000000000000000000000000000000000000000000040755b053b796c7ed0000000000000000000000000000000000000000000000040755b053b796c7ed0000000000000000000000000000000000000000000000000000000000000000",
          "blockHash": "0x6b3e5d6a9b891345a68d76c1cfc6fb4547febf7519abaac0c60fff7c1a8c618f",
          "blockNumber": "0x8fe2c1",
          "blockTimestamp": "0x66e4ea0f",
          "transactionHash": "0x752e779bc33b066cecf174b137733e38b216405f2c4842f9eb01dc36a96ddb13",
          "transactionIndex": "0x0",
          "logIndex": "0xd",
          "removed": false
        },
        {
          "address": "0x28f6899ff643261ca9766ddc251b359a2d00b945",
          "topics": [
            "0x3303facd24627943a92e9dc87cfbb34b15c49b726eec3ad3487c16be9ab8efe8",
            "0x0000000000000000000000002e207eca8b6bf77a6ac82763eeed2a94de4f081d",
            "0x00000000000000000000000078354f8dccb269a615a7e0a24f9b0718fdc3c7a7",
            "0x00000000000000000000000060c6a2e4827196bb34c304e90553b51017d89fdd"
          ],
          "data": "0x0000000000000000000000000000000000000000000000005f18946c0e0771e10000000000000000000000000000000000000000000000005f18946c0e0771e10000000000000000000000000000000000000000000000000000000000000000",
          "blockHash": "0x6b3e5d6a9b891345a68d76c1cfc6fb4547febf7519abaac0c60fff7c1a8c618f",
          "blockNumber": "0x8fe2c1",
          "blockTimestamp": "0x66e4ea0f",
          "transactionHash": "0x752e779bc33b066cecf174b137733e38b216405f2c4842f9eb01dc36a96ddb13",
          "transactionIndex": "0x0",
          "logIndex": "0xe",
          "removed": false
        },
        {
          "address": "0x2e207eca8b6bf77a6ac82763eeed2a94de4f081d",
          "topics": [
            "0xddf252ad1be2c89b69c2b068fc378daa952ba7f163c4a11628f55a4df523b3ef",
            "0x0000000000000000000000000000000000000000000000000000000000000000",
            "0x00000000000000000000000060c6a2e4827196bb34c304e90553b51017d89fdd"
          ],
          "data": "0x000000000000000000000000000000000000000000000000000000000457be9d",
          "blockHash": "0x6b3e5d6a9b891345a68d76c1cfc6fb4547febf7519abaac0c60fff7c1a8c618f",
          "blockNumber": "0x8fe2c1",
          "blockTimestamp": "0x66e4ea0f",
          "transactionHash": "0x752e779bc33b066cecf174b137733e38b216405f2c4842f9eb01dc36a96ddb13",
          "transactionIndex": "0x0",
          "logIndex": "0xf",
          "removed": false
        },
        {
          "address": "0x2e207eca8b6bf77a6ac82763eeed2a94de4f081d",
          "topics": [
            "0x458f5fa412d0f69b08dd84872b0215675cc67bc1d5b6fd93300a1c3878b86196",
            "0x00000000000000000000000060c6a2e4827196bb34c304e90553b51017d89fdd",
            "0x00000000000000000000000060c6a2e4827196bb34c304e90553b51017d89fdd"
          ],
          "data": "0x000000000000000000000000000000000000000000000000000000000457be9d00000000000000000000000000000000000000000000000000000000000000000000000000000000000000000000000000000000035dda36869121f40c381dc6",
          "blockHash": "0x6b3e5d6a9b891345a68d76c1cfc6fb4547febf7519abaac0c60fff7c1a8c618f",
          "blockNumber": "0x8fe2c1",
          "blockTimestamp": "0x66e4ea0f",
          "transactionHash": "0x752e779bc33b066cecf174b137733e38b216405f2c4842f9eb01dc36a96ddb13",
          "transactionIndex": "0x0",
          "logIndex": "0x10",
          "removed": false
        },
        {
          "address": "0x2f9bb73a8e98793e26cb2f6c4ad037bdf1c6b269",
          "topics": [
            "0x00058a56ea94653cdf4f152d227ace22d4c00ad99e2a43f58cb7d9e3feb295f2",
            "0x000000000000000000000000176211869ca2b568f2a7d4ee941e073a821ee1ff",
            "0x00000000000000000000000060c6a2e4827196bb34c304e90553b51017d89fdd"
          ],
          "data": "0x",
          "blockHash": "0x6b3e5d6a9b891345a68d76c1cfc6fb4547febf7519abaac0c60fff7c1a8c618f",
          "blockNumber": "0x8fe2c1",
          "blockTimestamp": "0x66e4ea0f",
          "transactionHash": "0x752e779bc33b066cecf174b137733e38b216405f2c4842f9eb01dc36a96ddb13",
          "transactionIndex": "0x0",
          "logIndex": "0x11",
          "removed": false
        },
        {
          "address": "0x2f9bb73a8e98793e26cb2f6c4ad037bdf1c6b269",
          "topics": [
            "0x2b627736bca15cd5381dcf80b0bf11fd197d01a037c52b927a881a10fb73ba61",
            "0x000000000000000000000000176211869ca2b568f2a7d4ee941e073a821ee1ff",
            "0x00000000000000000000000060c6a2e4827196bb34c304e90553b51017d89fdd",
            "0x0000000000000000000000000000000000000000000000000000000000000000"
          ],
          "data": "0x00000000000000000000000060c6a2e4827196bb34c304e90553b51017d89fdd000000000000000000000000000000000000000000000000000000000457be9d",
          "blockHash": "0x6b3e5d6a9b891345a68d76c1cfc6fb4547febf7519abaac0c60fff7c1a8c618f",
          "blockNumber": "0x8fe2c1",
          "blockTimestamp": "0x66e4ea0f",
          "transactionHash": "0x752e779bc33b066cecf174b137733e38b216405f2c4842f9eb01dc36a96ddb13",
          "transactionIndex": "0x0",
          "logIndex": "0x12",
          "removed": false
        },
        {
          "address": "0x28f6899ff643261ca9766ddc251b359a2d00b945",
          "topics": [
            "0x3303facd24627943a92e9dc87cfbb34b15c49b726eec3ad3487c16be9ab8efe8",
            "0x000000000000000000000000cb2da0f5aece616e2cbf29576cfc795fb15c6133",
            "0x00000000000000000000000040a59a3f3b16d9e74c811d24d8b7969664cfe180",
            "0x00000000000000000000000060c6a2e4827196bb34c304e90553b51017d89fdd"
          ],
          "data": "0x00000000000000000000000000000000000000000000b9f3a432553e843c8a7900000000000000000000000000000000000000000000b9f3a432553e843c8a790000000000000000000000000000000000000000000000000000000000000000",
          "blockHash": "0x6b3e5d6a9b891345a68d76c1cfc6fb4547febf7519abaac0c60fff7c1a8c618f",
          "blockNumber": "0x8fe2c1",
          "blockTimestamp": "0x66e4ea0f",
          "transactionHash": "0x752e779bc33b066cecf174b137733e38b216405f2c4842f9eb01dc36a96ddb13",
          "transactionIndex": "0x0",
          "logIndex": "0x13",
          "removed": false
        },
        {
          "address": "0x28f6899ff643261ca9766ddc251b359a2d00b945",
          "topics": [
            "0x3303facd24627943a92e9dc87cfbb34b15c49b726eec3ad3487c16be9ab8efe8",
            "0x000000000000000000000000cb2da0f5aece616e2cbf29576cfc795fb15c6133",
            "0x00000000000000000000000078354f8dccb269a615a7e0a24f9b0718fdc3c7a7",
            "0x00000000000000000000000060c6a2e4827196bb34c304e90553b51017d89fdd"
          ],
          "data": "0x000000000000000000000000000000000000000000000e0ddc9559d692669f7a000000000000000000000000000000000000000000000e0ddc9559d692669f7a0000000000000000000000000000000000000000000000000000000000000000",
          "blockHash": "0x6b3e5d6a9b891345a68d76c1cfc6fb4547febf7519abaac0c60fff7c1a8c618f",
          "blockNumber": "0x8fe2c1",
          "blockTimestamp": "0x66e4ea0f",
          "transactionHash": "0x752e779bc33b066cecf174b137733e38b216405f2c4842f9eb01dc36a96ddb13",
          "transactionIndex": "0x0",
          "logIndex": "0x14",
          "removed": false
        },
        {
          "address": "0xcb2da0f5aece616e2cbf29576cfc795fb15c6133",
          "topics": [
            "0xddf252ad1be2c89b69c2b068fc378daa952ba7f163c4a11628f55a4df523b3ef",
            "0x0000000000000000000000000000000000000000000000000000000000000000",
            "0x00000000000000000000000060c6a2e4827196bb34c304e90553b51017d89fdd"
          ],
          "data": "0x000000000000000000000000000000000000000000000000004716fd2df4a004",
          "blockHash": "0x6b3e5d6a9b891345a68d76c1cfc6fb4547febf7519abaac0c60fff7c1a8c618f",
          "blockNumber": "0x8fe2c1",
          "blockTimestamp": "0x66e4ea0f",
          "transactionHash": "0x752e779bc33b066cecf174b137733e38b216405f2c4842f9eb01dc36a96ddb13",
          "transactionIndex": "0x0",
          "logIndex": "0x15",
          "removed": false
        },
        {
          "address": "0xcb2da0f5aece616e2cbf29576cfc795fb15c6133",
          "topics": [
            "0x458f5fa412d0f69b08dd84872b0215675cc67bc1d5b6fd93300a1c3878b86196",
            "0x00000000000000000000000060c6a2e4827196bb34c304e90553b51017d89fdd",
            "0x00000000000000000000000060c6a2e4827196bb34c304e90553b51017d89fdd"
          ],
          "data": "0x000000000000000000000000000000000000000000000000004716fd2df4a00400000000000000000000000000000000000000000000000000000000000000000000000000000000000000000000000000000000035f56290a7dac14135c95e6",
          "blockHash": "0x6b3e5d6a9b891345a68d76c1cfc6fb4547febf7519abaac0c60fff7c1a8c618f",
          "blockNumber": "0x8fe2c1",
          "blockTimestamp": "0x66e4ea0f",
          "transactionHash": "0x752e779bc33b066cecf174b137733e38b216405f2c4842f9eb01dc36a96ddb13",
          "transactionIndex": "0x0",
          "logIndex": "0x16",
          "removed": false
        },
        {
          "address": "0x2f9bb73a8e98793e26cb2f6c4ad037bdf1c6b269",
          "topics": [
            "0x804c9b842b2748a22bb64b345453a3de7ca54a6ca45ce00d415894979e22897a",
            "0x000000000000000000000000e5d7c2a44ffddf6b295a15c148167daaaf5cf34f"
          ],
          "data": "0x0000000000000000000000000000000000000000000b616151cb21c6507d6a640000000000000000000000000000000000000000002cb904cc835326abeb1be20000000000000000000000000000000000000000001ae8daf0fa65e9cf58df0d00000000000000000000000000000000000000000352af7b228e1ab2d5b16fe50000000000000000000000000000000000000000035f56290a7dac14135c95e6",
          "blockHash": "0x6b3e5d6a9b891345a68d76c1cfc6fb4547febf7519abaac0c60fff7c1a8c618f",
          "blockNumber": "0x8fe2c1",
          "blockTimestamp": "0x66e4ea0f",
          "transactionHash": "0x752e779bc33b066cecf174b137733e38b216405f2c4842f9eb01dc36a96ddb13",
          "transactionIndex": "0x0",
          "logIndex": "0x17",
          "removed": false
        },
        {
          "address": "0xe5d7c2a44ffddf6b295a15c148167daaaf5cf34f",
          "topics": [
            "0xddf252ad1be2c89b69c2b068fc378daa952ba7f163c4a11628f55a4df523b3ef",
            "0x000000000000000000000000b4ffef15daf4c02787bc5332580b838ce39805f5",
            "0x00000000000000000000000060c6a2e4827196bb34c304e90553b51017d89fdd"
          ],
          "data": "0x000000000000000000000000000000000000000000000000004716fd2df4a004",
          "blockHash": "0x6b3e5d6a9b891345a68d76c1cfc6fb4547febf7519abaac0c60fff7c1a8c618f",
          "blockNumber": "0x8fe2c1",
          "blockTimestamp": "0x66e4ea0f",
          "transactionHash": "0x752e779bc33b066cecf174b137733e38b216405f2c4842f9eb01dc36a96ddb13",
          "transactionIndex": "0x0",
          "logIndex": "0x18",
          "removed": false
        },
        {
          "address": "0x2f9bb73a8e98793e26cb2f6c4ad037bdf1c6b269",
          "topics": [
            "0xb3d084820fb1a9decffb176436bd02558d15fac9b0ddfed8c465bc7359d7dce0",
            "0x000000000000000000000000e5d7c2a44ffddf6b295a15c148167daaaf5cf34f",
            "0x00000000000000000000000060c6a2e4827196bb34c304e90553b51017d89fdd",
            "0x0000000000000000000000000000000000000000000000000000000000000000"
          ],
          "data": "0x00000000000000000000000060c6a2e4827196bb34c304e90553b51017d89fdd000000000000000000000000000000000000000000000000004716fd2df4a00400000000000000000000000000000000000000000000000000000000000000020000000000000000000000000000000000000000001ae8daf0fa65e9cf58df0d",
          "blockHash": "0x6b3e5d6a9b891345a68d76c1cfc6fb4547febf7519abaac0c60fff7c1a8c618f",
          "blockNumber": "0x8fe2c1",
          "blockTimestamp": "0x66e4ea0f",
          "transactionHash": "0x752e779bc33b066cecf174b137733e38b216405f2c4842f9eb01dc36a96ddb13",
          "transactionIndex": "0x0",
          "logIndex": "0x19",
          "removed": false
        },
        {
          "address": "0xe5d7c2a44ffddf6b295a15c148167daaaf5cf34f",
          "topics": [
            "0x8c5be1e5ebec7d5bd14f71427d1e84f3dd0314c0f7b2291e5b200ac8c7c3b925",
            "0x00000000000000000000000060c6a2e4827196bb34c304e90553b51017d89fdd",
            "0x0000000000000000000000002d8879046f1559e53eb052e949e9544bcb72f414"
          ],
          "data": "0x0000000000000000000000000000000000000000000000000000000000000000",
          "blockHash": "0x6b3e5d6a9b891345a68d76c1cfc6fb4547febf7519abaac0c60fff7c1a8c618f",
          "blockNumber": "0x8fe2c1",
          "blockTimestamp": "0x66e4ea0f",
          "transactionHash": "0x752e779bc33b066cecf174b137733e38b216405f2c4842f9eb01dc36a96ddb13",
          "transactionIndex": "0x0",
          "logIndex": "0x1a",
          "removed": false
        },
        {
          "address": "0x176211869ca2b568f2a7d4ee941e073a821ee1ff",
          "topics": [
            "0x8c5be1e5ebec7d5bd14f71427d1e84f3dd0314c0f7b2291e5b200ac8c7c3b925",
            "0x00000000000000000000000060c6a2e4827196bb34c304e90553b51017d89fdd",
            "0x0000000000000000000000002f9bb73a8e98793e26cb2f6c4ad037bdf1c6b269"
          ],
          "data": "0x0000000000000000000000000000000000000000000000000000000000000000",
          "blockHash": "0x6b3e5d6a9b891345a68d76c1cfc6fb4547febf7519abaac0c60fff7c1a8c618f",
          "blockNumber": "0x8fe2c1",
          "blockTimestamp": "0x66e4ea0f",
          "transactionHash": "0x752e779bc33b066cecf174b137733e38b216405f2c4842f9eb01dc36a96ddb13",
          "transactionIndex": "0x0",
          "logIndex": "0x1b",
          "removed": false
        },
        {
          "address": "0xe5d7c2a44ffddf6b295a15c148167daaaf5cf34f",
          "topics": [
            "0x8c5be1e5ebec7d5bd14f71427d1e84f3dd0314c0f7b2291e5b200ac8c7c3b925",
            "0x00000000000000000000000060c6a2e4827196bb34c304e90553b51017d89fdd",
            "0x0000000000000000000000002f9bb73a8e98793e26cb2f6c4ad037bdf1c6b269"
          ],
          "data": "0x000000000000000000000000000000000000000000000000004716fd2df4a004",
          "blockHash": "0x6b3e5d6a9b891345a68d76c1cfc6fb4547febf7519abaac0c60fff7c1a8c618f",
          "blockNumber": "0x8fe2c1",
          "blockTimestamp": "0x66e4ea0f",
          "transactionHash": "0x752e779bc33b066cecf174b137733e38b216405f2c4842f9eb01dc36a96ddb13",
          "transactionIndex": "0x0",
          "logIndex": "0x1c",
          "removed": false
        },
        {
          "address": "0x2f9bb73a8e98793e26cb2f6c4ad037bdf1c6b269",
          "topics": [
            "0x804c9b842b2748a22bb64b345453a3de7ca54a6ca45ce00d415894979e22897a",
            "0x000000000000000000000000e5d7c2a44ffddf6b295a15c148167daaaf5cf34f"
          ],
          "data": "0x0000000000000000000000000000000000000000000b61604b546ff2fe5779bc0000000000000000000000000000000000000000002cb904a5b98df9aff45e520000000000000000000000000000000000000000001ae8d9baac3c81efa2f29000000000000000000000000000000000000000000352af7b27749a64f909f86c0000000000000000000000000000000000000000035f56290a7dac14135c95e6",
          "blockHash": "0x6b3e5d6a9b891345a68d76c1cfc6fb4547febf7519abaac0c60fff7c1a8c618f",
          "blockNumber": "0x8fe2c1",
          "blockTimestamp": "0x66e4ea0f",
          "transactionHash": "0x752e779bc33b066cecf174b137733e38b216405f2c4842f9eb01dc36a96ddb13",
          "transactionIndex": "0x0",
          "logIndex": "0x1d",
          "removed": false
        },
        {
          "address": "0xe5d7c2a44ffddf6b295a15c148167daaaf5cf34f",
          "topics": [
            "0xddf252ad1be2c89b69c2b068fc378daa952ba7f163c4a11628f55a4df523b3ef",
            "0x00000000000000000000000060c6a2e4827196bb34c304e90553b51017d89fdd",
            "0x000000000000000000000000b4ffef15daf4c02787bc5332580b838ce39805f5"
          ],
          "data": "0x000000000000000000000000000000000000000000000000004716fd2df4a004",
          "blockHash": "0x6b3e5d6a9b891345a68d76c1cfc6fb4547febf7519abaac0c60fff7c1a8c618f",
          "blockNumber": "0x8fe2c1",
          "blockTimestamp": "0x66e4ea0f",
          "transactionHash": "0x752e779bc33b066cecf174b137733e38b216405f2c4842f9eb01dc36a96ddb13",
          "transactionIndex": "0x0",
          "logIndex": "0x1e",
          "removed": false
        },
        {
          "address": "0x2f9bb73a8e98793e26cb2f6c4ad037bdf1c6b269",
          "topics": [
            "0xefefaba5e921573100900a3ad9cf29f222d995fb3b6045797eaea7521bd8d6f0",
            "0x00000000000000000000000060c6a2e4827196bb34c304e90553b51017d89fdd",
            "0x000000000000000000000000e5d7c2a44ffddf6b295a15c148167daaaf5cf34f",
            "0x0000000000000000000000000000000000000000000000000000000000000000"
          ],
          "data": "0x00000000000000000000000060c6a2e4827196bb34c304e90553b51017d89fdd00000000000000000000000000000000000000000000000000470de4df8200040000000000000000000000000000000000000000000000000000000000000000000000000000000000000000000000000000000000000000000009184e72a000",
          "blockHash": "0x6b3e5d6a9b891345a68d76c1cfc6fb4547febf7519abaac0c60fff7c1a8c618f",
          "blockNumber": "0x8fe2c1",
          "blockTimestamp": "0x66e4ea0f",
          "transactionHash": "0x752e779bc33b066cecf174b137733e38b216405f2c4842f9eb01dc36a96ddb13",
          "transactionIndex": "0x0",
          "logIndex": "0x1f",
          "removed": false
        }
      ],
      "logsBloom": "0x00000000004009040088000000000000080000004000000000000000010000000000a0002004080000001000000600000010080000100014800400000024001004000020004000000008000802000000200010000004000000000004004000000080040202000000008000012000080180400000020000000100001000000000000002008001000800100004000000000000000000000000008000040000004002080000020000000000000002000010000000000010080100000000a00001000250000208000120000000204000000000020100a0000e0000080000000060000010200000008020000000000001000040000000100002000000400000100000",
      "type": "0x2",
      "transactionHash": "0x752e779bc33b066cecf174b137733e38b216405f2c4842f9eb01dc36a96ddb13",
      "transactionIndex": "0x0",
      "blockHash": "0x6b3e5d6a9b891345a68d76c1cfc6fb4547febf7519abaac0c60fff7c1a8c618f",
      "blockNumber": "0x8fe2c1",
      "gasUsed": "0x114556",
      "effectiveGasPrice": "0x3938707",
      "blobGasPrice": "0x1",
      "from": "0xf39fd6e51aad88f6f4ce6ab8827279cfffb92266",
      "to": "0x0b306bf915c4d645ff596e518faf3f9669b97016",
      "contractAddress": null,
      "root": "0x0000000000000000000000000000000000000000000000000000000000000000"
    }
  ],
  "libraries": [],
  "pending": [],
  "returns": {},
  "timestamp": 1726278157,
  "chain": 59144,
  "commit": "4a57ec2"
}