{
  "transactions": [
    {
      "hash": "0xc15f8df6653b4792f0e72676f669a739c4a33f69ef875f304349be6fd7139e20",
      "transactionType": "CALL",
      "contractName": null,
      "contractAddress": "0xe5d7c2a44ffddf6b295a15c148167daaaf5cf34f",
      "function": "approve(address,uint256)",
      "arguments": [
        "0x0B306BF915C4d645ff596e518fAf3F9669b97016",
        "115792089237316195423570985008687907853269984665640564039457584007913129639935"
      ],
      "transaction": {
        "from": "0xf39fd6e51aad88f6f4ce6ab8827279cfffb92266",
        "to": "0xe5d7c2a44ffddf6b295a15c148167daaaf5cf34f",
        "gas": "0x8ec9",
        "value": "0x0",
        "input": "0x095ea7b30000000000000000000000000b306bf915c4d645ff596e518faf3f9669b97016ffffffffffffffffffffffffffffffffffffffffffffffffffffffffffffffff",
        "nonce": "0x29",
        "chainId": "0xe708"
      },
      "additionalContracts": [],
      "isFixedGasLimit": false
    },
    {
      "hash": "0x83bf2786fe9bcddc4dd17d3e2fd35c0479e538530eb98506760868fb4f71561c",
      "transactionType": "CALL",
      "contractName": null,
      "contractAddress": "0x176211869ca2b568f2a7d4ee941e073a821ee1ff",
      "function": "approve(address,uint256)",
      "arguments": [
        "0x0B306BF915C4d645ff596e518fAf3F9669b97016",
        "115792089237316195423570985008687907853269984665640564039457584007913129639935"
      ],
      "transaction": {
        "from": "0xf39fd6e51aad88f6f4ce6ab8827279cfffb92266",
        "to": "0x176211869ca2b568f2a7d4ee941e073a821ee1ff",
        "gas": "0xe62b",
        "value": "0x0",
        "input": "0x095ea7b30000000000000000000000000b306bf915c4d645ff596e518faf3f9669b97016ffffffffffffffffffffffffffffffffffffffffffffffffffffffffffffffff",
        "nonce": "0x2a",
        "chainId": "0xe708"
      },
      "additionalContracts": [],
      "isFixedGasLimit": false
    },
    {
      "hash": "0xd34ea1ca92aa76c02cfa80f8ae55830f04c3c6cfc2048f7ea80a29b454042cf4",
      "transactionType": "CALL",
      "contractName": null,
      "contractAddress": "0x0b306bf915c4d645ff596e518faf3f9669b97016",
      "function": "closePosition(uint256,bytes)",
      "arguments": [
        "0",
        "0x83bd37f90001176211869ca2b568f2a7d4ee941e073a821ee1ff0001e5d7c2a44ffddf6b295a15c148167daaaf5cf34f0404566c5a076a90fc0afba29c028f5c000156c85a254dd12ee8d9c04049a4ab62769ce9821000000001e2dc6a3a24e40932f498fc6f4d705281e59a583c0000000003010203000a0101010201ff000000000000000000000000000000000000000000586733678b9ac9da43dd7cb83bbb41d23677dfc3176211869ca2b568f2a7d4ee941e073a821ee1ff000000000000000000000000000000000000000000000000"
      ],
      "transaction": {
        "from": "0xf39fd6e51aad88f6f4ce6ab8827279cfffb92266",
        "to": "0x0b306bf915c4d645ff596e518faf3f9669b97016",
        "gas": "0xfe144",
        "value": "0x0",
        "input": "0x0e8261130000000000000000000000000000000000000000000000000000000000000000000000000000000000000000000000000000000000000000000000000000004000000000000000000000000000000000000000000000000000000000000000d383bd37f90001176211869ca2b568f2a7d4ee941e073a821ee1ff0001e5d7c2a44ffddf6b295a15c148167daaaf5cf34f0404566c5a076a90fc0afba29c028f5c000156c85a254dd12ee8d9c04049a4ab62769ce9821000000001e2dc6a3a24e40932f498fc6f4d705281e59a583c0000000003010203000a0101010201ff000000000000000000000000000000000000000000586733678b9ac9da43dd7cb83bbb41d23677dfc3176211869ca2b568f2a7d4ee941e073a821ee1ff00000000000000000000000000000000000000000000000000000000000000000000000000",
        "nonce": "0x2b",
        "chainId": "0xe708"
      },
      "additionalContracts": [],
      "isFixedGasLimit": false
    }
  ],
  "receipts": [
    {
      "status": "0x1",
      "cumulativeGasUsed": "0x6760",
      "logs": [
        {
          "address": "0xe5d7c2a44ffddf6b295a15c148167daaaf5cf34f",
          "topics": [
            "0x8c5be1e5ebec7d5bd14f71427d1e84f3dd0314c0f7b2291e5b200ac8c7c3b925",
            "0x000000000000000000000000f39fd6e51aad88f6f4ce6ab8827279cfffb92266",
            "0x0000000000000000000000000b306bf915c4d645ff596e518faf3f9669b97016"
          ],
          "data": "0xffffffffffffffffffffffffffffffffffffffffffffffffffffffffffffffff",
          "blockHash": "0x4d282d5918db8b693fad6345d6493d67c5459bac451f9585e3baa0f51ac97807",
          "blockNumber": "0x8feadd",
          "blockTimestamp": "0x66e4ee29",
          "transactionHash": "0xc15f8df6653b4792f0e72676f669a739c4a33f69ef875f304349be6fd7139e20",
          "transactionIndex": "0x0",
          "logIndex": "0x0",
          "removed": false
        }
      ],
      "logsBloom": "0x0000000000000000000000000000000800000000000000000000000000000000000000000000000000000000000000000000000000000000000000000020000000000000000000000000000000000000000000000000000000000000000000000000000000000000000000030000000000000000000000000000000000000000000000000000000000100000000000000000000000000000000000000000000002000000000000000000000000000000000000000000000000000000200000000000000000000020000000000000000000000000a000000000000000000000000010000000000000000000000400000000000000000000000000000000000000",
      "type": "0x2",
      "transactionHash": "0xc15f8df6653b4792f0e72676f669a739c4a33f69ef875f304349be6fd7139e20",
      "transactionIndex": "0x0",
      "blockHash": "0x4d282d5918db8b693fad6345d6493d67c5459bac451f9585e3baa0f51ac97807",
      "blockNumber": "0x8feadd",
      "gasUsed": "0x6760",
      "effectiveGasPrice": "0x3938707",
      "blobGasPrice": "0x1",
      "from": "0xf39fd6e51aad88f6f4ce6ab8827279cfffb92266",
      "to": "0xe5d7c2a44ffddf6b295a15c148167daaaf5cf34f",
      "contractAddress": null,
      "root": "0x0000000000000000000000000000000000000000000000000000000000000000"
    },
    {
      "status": "0x1",
      "cumulativeGasUsed": "0x9d62",
      "logs": [
        {
          "address": "0x176211869ca2b568f2a7d4ee941e073a821ee1ff",
          "topics": [
            "0x8c5be1e5ebec7d5bd14f71427d1e84f3dd0314c0f7b2291e5b200ac8c7c3b925",
            "0x000000000000000000000000f39fd6e51aad88f6f4ce6ab8827279cfffb92266",
            "0x0000000000000000000000000b306bf915c4d645ff596e518faf3f9669b97016"
          ],
          "data": "0xffffffffffffffffffffffffffffffffffffffffffffffffffffffffffffffff",
          "blockHash": "0xc79b7b7ad2ef673522ac1aee97d7e4441d9d57ddb049682f3801918874a3927a",
          "blockNumber": "0x8feade",
          "blockTimestamp": "0x66e4ee2a",
          "transactionHash": "0x83bf2786fe9bcddc4dd17d3e2fd35c0479e538530eb98506760868fb4f71561c",
          "transactionIndex": "0x0",
          "logIndex": "0x0",
          "removed": false
        }
      ],
      "logsBloom": "0x00000000000000000000000000000008000000000000000000000000000000000000000000000000000000000000000000000800000000000004000000200000000000000000000000000000020000000000000000000000000000000000000000000000000000000000000300000000000000000000000000000000000000000000000000000000000000000000000000000000000000000000000000000000020000000000000000000000000000000000000000000000000000000000000000000000000000200000000000000000000000002000000000000000000000000010000000000000000000000400000000000000000000000000000000000000",
      "type": "0x2",
      "transactionHash": "0x83bf2786fe9bcddc4dd17d3e2fd35c0479e538530eb98506760868fb4f71561c",
      "transactionIndex": "0x0",
      "blockHash": "0xc79b7b7ad2ef673522ac1aee97d7e4441d9d57ddb049682f3801918874a3927a",
      "blockNumber": "0x8feade",
      "gasUsed": "0x9d62",
      "effectiveGasPrice": "0x3938707",
      "blobGasPrice": "0x1",
      "from": "0xf39fd6e51aad88f6f4ce6ab8827279cfffb92266",
      "to": "0x176211869ca2b568f2a7d4ee941e073a821ee1ff",
      "contractAddress": null,
      "root": "0x0000000000000000000000000000000000000000000000000000000000000000"
    },
    {
      "status": "0x1",
      "cumulativeGasUsed": "0xc1c91",
      "logs": [
        {
          "address": "0xe5d7c2a44ffddf6b295a15c148167daaaf5cf34f",
          "topics": [
            "0xddf252ad1be2c89b69c2b068fc378daa952ba7f163c4a11628f55a4df523b3ef",
            "0x000000000000000000000000b4ffef15daf4c02787bc5332580b838ce39805f5",
            "0x000000000000000000000000e2dc6a3a24e40932f498fc6f4d705281e59a583c"
          ],
          "data": "0x000000000000000000000000000000000000000000000000004716fdae2c4f1a",
          "blockHash": "0xc79b7b7ad2ef673522ac1aee97d7e4441d9d57ddb049682f3801918874a3927a",
          "blockNumber": "0x8feade",
          "blockTimestamp": "0x66e4ee2a",
          "transactionHash": "0xd34ea1ca92aa76c02cfa80f8ae55830f04c3c6cfc2048f7ea80a29b454042cf4",
          "transactionIndex": "0x1",
          "logIndex": "0x1",
          "removed": false
        },
        {
          "address": "0xe5d7c2a44ffddf6b295a15c148167daaaf5cf34f",
          "topics": [
            "0x8c5be1e5ebec7d5bd14f71427d1e84f3dd0314c0f7b2291e5b200ac8c7c3b925",
            "0x000000000000000000000000e2dc6a3a24e40932f498fc6f4d705281e59a583c",
            "0x0000000000000000000000002f9bb73a8e98793e26cb2f6c4ad037bdf1c6b269"
          ],
          "data": "0x000000000000000000000000000000000000000000000000004716fdae2c4f1a",
          "blockHash": "0xc79b7b7ad2ef673522ac1aee97d7e4441d9d57ddb049682f3801918874a3927a",
          "blockNumber": "0x8feade",
          "blockTimestamp": "0x66e4ee2a",
          "transactionHash": "0xd34ea1ca92aa76c02cfa80f8ae55830f04c3c6cfc2048f7ea80a29b454042cf4",
          "transactionIndex": "0x1",
          "logIndex": "0x2",
          "removed": false
        },
        {
          "address": "0x28f6899ff643261ca9766ddc251b359a2d00b945",
          "topics": [
            "0x3303facd24627943a92e9dc87cfbb34b15c49b726eec3ad3487c16be9ab8efe8",
            "0x000000000000000000000000cb2da0f5aece616e2cbf29576cfc795fb15c6133",
            "0x00000000000000000000000078354f8dccb269a615a7e0a24f9b0718fdc3c7a7",
            "0x000000000000000000000000e2dc6a3a24e40932f498fc6f4d705281e59a583c"
          ],
          "data": "0x000000000000000000000000000000000000000000000e0e045fffd1398e1fd8000000000000000000000000000000000000000000000e0e045fffd1398e1fd80000000000000000000000000000000000000000000000000013785250428383",
          "blockHash": "0xc79b7b7ad2ef673522ac1aee97d7e4441d9d57ddb049682f3801918874a3927a",
          "blockNumber": "0x8feade",
          "blockTimestamp": "0x66e4ee2a",
          "transactionHash": "0xd34ea1ca92aa76c02cfa80f8ae55830f04c3c6cfc2048f7ea80a29b454042cf4",
          "transactionIndex": "0x1",
          "logIndex": "0x3",
          "removed": false
        },
        {
          "address": "0xcb2da0f5aece616e2cbf29576cfc795fb15c6133",
          "topics": [
            "0xddf252ad1be2c89b69c2b068fc378daa952ba7f163c4a11628f55a4df523b3ef",
            "0x000000000000000000000000e2dc6a3a24e40932f498fc6f4d705281e59a583c",
            "0x0000000000000000000000000000000000000000000000000000000000000000"
          ],
          "data": "0x000000000000000000000000000000000000000000000000004716fd2df49ffc",
          "blockHash": "0xc79b7b7ad2ef673522ac1aee97d7e4441d9d57ddb049682f3801918874a3927a",
          "blockNumber": "0x8feade",
          "blockTimestamp": "0x66e4ee2a",
          "transactionHash": "0xd34ea1ca92aa76c02cfa80f8ae55830f04c3c6cfc2048f7ea80a29b454042cf4",
          "transactionIndex": "0x1",
          "logIndex": "0x4",
          "removed": false
        },
        {
          "address": "0xcb2da0f5aece616e2cbf29576cfc795fb15c6133",
          "topics": [
            "0x4cf25bc1d991c17529c25213d3cc0cda295eeaad5f13f361969b12ea48015f90",
            "0x000000000000000000000000e2dc6a3a24e40932f498fc6f4d705281e59a583c",
            "0x0000000000000000000000000000000000000000000000000000000000000000"
          ],
          "data": "0x000000000000000000000000000000000000000000000000004716fd2df49ffc000000000000000000000000000000000000000000000000000000008037af1e0000000000000000000000000000000000000000035f5666ee88fe5950bf20e8",
          "blockHash": "0xc79b7b7ad2ef673522ac1aee97d7e4441d9d57ddb049682f3801918874a3927a",
          "blockNumber": "0x8feade",
          "blockTimestamp": "0x66e4ee2a",
          "transactionHash": "0xd34ea1ca92aa76c02cfa80f8ae55830f04c3c6cfc2048f7ea80a29b454042cf4",
          "transactionIndex": "0x1",
          "logIndex": "0x5",
          "removed": false
        },
        {
          "address": "0x2f9bb73a8e98793e26cb2f6c4ad037bdf1c6b269",
          "topics": [
            "0x804c9b842b2748a22bb64b345453a3de7ca54a6ca45ce00d415894979e22897a",
            "0x000000000000000000000000e5d7c2a44ffddf6b295a15c148167daaaf5cf34f"
          ],
          "data": "0x0000000000000000000000000000000000000000000b6d4c6f0cc368e964db0d0000000000000000000000000000000000000000002cbac73f4408979fa830340000000000000000000000000000000000000000001af6ee870011716d41819e00000000000000000000000000000000000000000352af952c81f51df33145f40000000000000000000000000000000000000000035f5666ee88fe5950bf20e8",
          "blockHash": "0xc79b7b7ad2ef673522ac1aee97d7e4441d9d57ddb049682f3801918874a3927a",
          "blockNumber": "0x8feade",
          "blockTimestamp": "0x66e4ee2a",
          "transactionHash": "0xd34ea1ca92aa76c02cfa80f8ae55830f04c3c6cfc2048f7ea80a29b454042cf4",
          "transactionIndex": "0x1",
          "logIndex": "0x6",
          "removed": false
        },
        {
          "address": "0xe5d7c2a44ffddf6b295a15c148167daaaf5cf34f",
          "topics": [
            "0xddf252ad1be2c89b69c2b068fc378daa952ba7f163c4a11628f55a4df523b3ef",
            "0x000000000000000000000000e2dc6a3a24e40932f498fc6f4d705281e59a583c",
            "0x000000000000000000000000b4ffef15daf4c02787bc5332580b838ce39805f5"
          ],
          "data": "0x000000000000000000000000000000000000000000000000004716fdae2c4f1a",
          "blockHash": "0xc79b7b7ad2ef673522ac1aee97d7e4441d9d57ddb049682f3801918874a3927a",
          "blockNumber": "0x8feade",
          "blockTimestamp": "0x66e4ee2a",
          "transactionHash": "0xd34ea1ca92aa76c02cfa80f8ae55830f04c3c6cfc2048f7ea80a29b454042cf4",
          "transactionIndex": "0x1",
          "logIndex": "0x7",
          "removed": false
        },
        {
          "address": "0x2f9bb73a8e98793e26cb2f6c4ad037bdf1c6b269",
          "topics": [
            "0xa534c8dbe71f871f9f3530e97a74601fea17b426cae02e1c5aee42c96c784051",
            "0x000000000000000000000000e5d7c2a44ffddf6b295a15c148167daaaf5cf34f",
            "0x000000000000000000000000e2dc6a3a24e40932f498fc6f4d705281e59a583c",
            "0x000000000000000000000000e2dc6a3a24e40932f498fc6f4d705281e59a583c"
          ],
          "data": "0x000000000000000000000000000000000000000000000000004716fdae2c4f1a0000000000000000000000000000000000000000000000000000000000000000",
          "blockHash": "0xc79b7b7ad2ef673522ac1aee97d7e4441d9d57ddb049682f3801918874a3927a",
          "blockNumber": "0x8feade",
          "blockTimestamp": "0x66e4ee2a",
          "transactionHash": "0xd34ea1ca92aa76c02cfa80f8ae55830f04c3c6cfc2048f7ea80a29b454042cf4",
          "transactionIndex": "0x1",
          "logIndex": "0x8",
          "removed": false
        },
        {
          "address": "0x2e207eca8b6bf77a6ac82763eeed2a94de4f081d",
          "topics": [
            "0x8c5be1e5ebec7d5bd14f71427d1e84f3dd0314c0f7b2291e5b200ac8c7c3b925",
            "0x000000000000000000000000e2dc6a3a24e40932f498fc6f4d705281e59a583c",
            "0x0000000000000000000000002f9bb73a8e98793e26cb2f6c4ad037bdf1c6b269"
          ],
          "data": "0x0000000000000000000000000000000000000000000000000000000004566c5f",
          "blockHash": "0xc79b7b7ad2ef673522ac1aee97d7e4441d9d57ddb049682f3801918874a3927a",
          "blockNumber": "0x8feade",
          "blockTimestamp": "0x66e4ee2a",
          "transactionHash": "0xd34ea1ca92aa76c02cfa80f8ae55830f04c3c6cfc2048f7ea80a29b454042cf4",
          "transactionIndex": "0x1",
          "logIndex": "0x9",
          "removed": false
        },
        {
          "address": "0x2f9bb73a8e98793e26cb2f6c4ad037bdf1c6b269",
          "topics": [
            "0x804c9b842b2748a22bb64b345453a3de7ca54a6ca45ce00d415894979e22897a",
            "0x000000000000000000000000176211869ca2b568f2a7d4ee941e073a821ee1ff"
          ],
          "data": "0x00000000000000000000000000000000000000000011886a5a2c3a05f419a4e10000000000000000000000000000000000000000002d4b9b24f6804f41c14af50000000000000000000000000000000000000000001f7d8db493cf2e7e0a57a80000000000000000000000000000000000000000035dda5e49f1ff5b5229829c0000000000000000000000000000000000000000036bc1b9fb15b8279797e436",
          "blockHash": "0xc79b7b7ad2ef673522ac1aee97d7e4441d9d57ddb049682f3801918874a3927a",
          "blockNumber": "0x8feade",
          "blockTimestamp": "0x66e4ee2a",
          "transactionHash": "0xd34ea1ca92aa76c02cfa80f8ae55830f04c3c6cfc2048f7ea80a29b454042cf4",
          "transactionIndex": "0x1",
          "logIndex": "0xa",
          "removed": false
        },
        {
          "address": "0x2f9bb73a8e98793e26cb2f6c4ad037bdf1c6b269",
          "topics": [
            "0x44c58d81365b66dd4b1a7f36c25aa97b8c71c361ee4937adc1a00000227db5dd",
            "0x000000000000000000000000176211869ca2b568f2a7d4ee941e073a821ee1ff",
            "0x000000000000000000000000e2dc6a3a24e40932f498fc6f4d705281e59a583c"
          ],
          "data": "0x",
          "blockHash": "0xc79b7b7ad2ef673522ac1aee97d7e4441d9d57ddb049682f3801918874a3927a",
          "blockNumber": "0x8feade",
          "blockTimestamp": "0x66e4ee2a",
          "transactionHash": "0xd34ea1ca92aa76c02cfa80f8ae55830f04c3c6cfc2048f7ea80a29b454042cf4",
          "transactionIndex": "0x1",
          "logIndex": "0xb",
          "removed": false
        },
        {
          "address": "0x28f6899ff643261ca9766ddc251b359a2d00b945",
          "topics": [
            "0x3303facd24627943a92e9dc87cfbb34b15c49b726eec3ad3487c16be9ab8efe8",
            "0x0000000000000000000000002e207eca8b6bf77a6ac82763eeed2a94de4f081d",
            "0x00000000000000000000000078354f8dccb269a615a7e0a24f9b0718fdc3c7a7",
            "0x000000000000000000000000e2dc6a3a24e40932f498fc6f4d705281e59a583c"
          ],
          "data": "0x0000000000000000000000000000000000000000000000005f1bb701c48717730000000000000000000000000000000000000000000000005f1bb701c48717730000000000000000000000000000000000000000000000000015a9a8dd7f9f55",
          "blockHash": "0xc79b7b7ad2ef673522ac1aee97d7e4441d9d57ddb049682f3801918874a3927a",
          "blockNumber": "0x8feade",
          "blockTimestamp": "0x66e4ee2a",
          "transactionHash": "0xd34ea1ca92aa76c02cfa80f8ae55830f04c3c6cfc2048f7ea80a29b454042cf4",
          "transactionIndex": "0x1",
          "logIndex": "0xc",
          "removed": false
        },
        {
          "address": "0x2e207eca8b6bf77a6ac82763eeed2a94de4f081d",
          "topics": [
            "0xddf252ad1be2c89b69c2b068fc378daa952ba7f163c4a11628f55a4df523b3ef",
            "0x000000000000000000000000e2dc6a3a24e40932f498fc6f4d705281e59a583c",
            "0x0000000000000000000000000000000000000000000000000000000000000000"
          ],
          "data": "0x0000000000000000000000000000000000000000000000000000000004566c5a",
          "blockHash": "0xc79b7b7ad2ef673522ac1aee97d7e4441d9d57ddb049682f3801918874a3927a",
          "blockNumber": "0x8feade",
          "blockTimestamp": "0x66e4ee2a",
          "transactionHash": "0xd34ea1ca92aa76c02cfa80f8ae55830f04c3c6cfc2048f7ea80a29b454042cf4",
          "transactionIndex": "0x1",
          "logIndex": "0xd",
          "removed": false
        },
        {
          "address": "0x2e207eca8b6bf77a6ac82763eeed2a94de4f081d",
          "topics": [
            "0x4cf25bc1d991c17529c25213d3cc0cda295eeaad5f13f361969b12ea48015f90",
            "0x000000000000000000000000e2dc6a3a24e40932f498fc6f4d705281e59a583c",
            "0x000000000000000000000000e2dc6a3a24e40932f498fc6f4d705281e59a583c"
          ],
          "data": "0x0000000000000000000000000000000000000000000000000000000004566c5a00000000000000000000000000000000000000000000000000000000000000050000000000000000000000000000000000000000035dda5e49f1ff5b5229829c",
          "blockHash": "0xc79b7b7ad2ef673522ac1aee97d7e4441d9d57ddb049682f3801918874a3927a",
          "blockNumber": "0x8feade",
          "blockTimestamp": "0x66e4ee2a",
          "transactionHash": "0xd34ea1ca92aa76c02cfa80f8ae55830f04c3c6cfc2048f7ea80a29b454042cf4",
          "transactionIndex": "0x1",
          "logIndex": "0xe",
          "removed": false
        },
        {
          "address": "0x176211869ca2b568f2a7d4ee941e073a821ee1ff",
          "topics": [
            "0xddf252ad1be2c89b69c2b068fc378daa952ba7f163c4a11628f55a4df523b3ef",
            "0x0000000000000000000000002e207eca8b6bf77a6ac82763eeed2a94de4f081d",
            "0x000000000000000000000000e2dc6a3a24e40932f498fc6f4d705281e59a583c"
          ],
          "data": "0x0000000000000000000000000000000000000000000000000000000004566c5f",
          "blockHash": "0xc79b7b7ad2ef673522ac1aee97d7e4441d9d57ddb049682f3801918874a3927a",
          "blockNumber": "0x8feade",
          "blockTimestamp": "0x66e4ee2a",
          "transactionHash": "0xd34ea1ca92aa76c02cfa80f8ae55830f04c3c6cfc2048f7ea80a29b454042cf4",
          "transactionIndex": "0x1",
          "logIndex": "0xf",
          "removed": false
        },
        {
          "address": "0x2f9bb73a8e98793e26cb2f6c4ad037bdf1c6b269",
          "topics": [
            "0x3115d1449a7b732c986cba18244e897a450f61e1bb8d589cd2e69e6c8924f9f7",
            "0x000000000000000000000000176211869ca2b568f2a7d4ee941e073a821ee1ff",
            "0x000000000000000000000000e2dc6a3a24e40932f498fc6f4d705281e59a583c",
            "0x000000000000000000000000e2dc6a3a24e40932f498fc6f4d705281e59a583c"
          ],
          "data": "0x0000000000000000000000000000000000000000000000000000000004566c5f",
          "blockHash": "0xc79b7b7ad2ef673522ac1aee97d7e4441d9d57ddb049682f3801918874a3927a",
          "blockNumber": "0x8feade",
          "blockTimestamp": "0x66e4ee2a",
          "transactionHash": "0xd34ea1ca92aa76c02cfa80f8ae55830f04c3c6cfc2048f7ea80a29b454042cf4",
          "transactionIndex": "0x1",
          "logIndex": "0x10",
          "removed": false
        },
        {
          "address": "0x176211869ca2b568f2a7d4ee941e073a821ee1ff",
          "topics": [
            "0x8c5be1e5ebec7d5bd14f71427d1e84f3dd0314c0f7b2291e5b200ac8c7c3b925",
            "0x000000000000000000000000e2dc6a3a24e40932f498fc6f4d705281e59a583c",
            "0x0000000000000000000000002d8879046f1559e53eb052e949e9544bcb72f414"
          ],
          "data": "0x0000000000000000000000000000000000000000000000000000000004566c5f",
          "blockHash": "0xc79b7b7ad2ef673522ac1aee97d7e4441d9d57ddb049682f3801918874a3927a",
          "blockNumber": "0x8feade",
          "blockTimestamp": "0x66e4ee2a",
          "transactionHash": "0xd34ea1ca92aa76c02cfa80f8ae55830f04c3c6cfc2048f7ea80a29b454042cf4",
          "transactionIndex": "0x1",
          "logIndex": "0x11",
          "removed": false
        },
        {
          "address": "0x176211869ca2b568f2a7d4ee941e073a821ee1ff",
          "topics": [
            "0xddf252ad1be2c89b69c2b068fc378daa952ba7f163c4a11628f55a4df523b3ef",
            "0x000000000000000000000000e2dc6a3a24e40932f498fc6f4d705281e59a583c",
            "0x00000000000000000000000056c85a254dd12ee8d9c04049a4ab62769ce98210"
          ],
          "data": "0x0000000000000000000000000000000000000000000000000000000004566c5a",
          "blockHash": "0xc79b7b7ad2ef673522ac1aee97d7e4441d9d57ddb049682f3801918874a3927a",
          "blockNumber": "0x8feade",
          "blockTimestamp": "0x66e4ee2a",
          "transactionHash": "0xd34ea1ca92aa76c02cfa80f8ae55830f04c3c6cfc2048f7ea80a29b454042cf4",
          "transactionIndex": "0x1",
          "logIndex": "0x12",
          "removed": false
        },
        {
          "address": "0xe5d7c2a44ffddf6b295a15c148167daaaf5cf34f",
          "topics": [
            "0xddf252ad1be2c89b69c2b068fc378daa952ba7f163c4a11628f55a4df523b3ef",
            "0x000000000000000000000000586733678b9ac9da43dd7cb83bbb41d23677dfc3",
            "0x0000000000000000000000002d8879046f1559e53eb052e949e9544bcb72f414"
          ],
          "data": "0x000000000000000000000000000000000000000000000000006a8eaa2d0760f0",
          "blockHash": "0xc79b7b7ad2ef673522ac1aee97d7e4441d9d57ddb049682f3801918874a3927a",
          "blockNumber": "0x8feade",
          "blockTimestamp": "0x66e4ee2a",
          "transactionHash": "0xd34ea1ca92aa76c02cfa80f8ae55830f04c3c6cfc2048f7ea80a29b454042cf4",
          "transactionIndex": "0x1",
          "logIndex": "0x13",
          "removed": false
        },
        {
          "address": "0x176211869ca2b568f2a7d4ee941e073a821ee1ff",
          "topics": [
            "0xddf252ad1be2c89b69c2b068fc378daa952ba7f163c4a11628f55a4df523b3ef",
            "0x00000000000000000000000056c85a254dd12ee8d9c04049a4ab62769ce98210",
            "0x000000000000000000000000586733678b9ac9da43dd7cb83bbb41d23677dfc3"
          ],
          "data": "0x0000000000000000000000000000000000000000000000000000000004566c5a",
          "blockHash": "0xc79b7b7ad2ef673522ac1aee97d7e4441d9d57ddb049682f3801918874a3927a",
          "blockNumber": "0x8feade",
          "blockTimestamp": "0x66e4ee2a",
          "transactionHash": "0xd34ea1ca92aa76c02cfa80f8ae55830f04c3c6cfc2048f7ea80a29b454042cf4",
          "transactionIndex": "0x1",
          "logIndex": "0x14",
          "removed": false
        },
        {
          "address": "0x586733678b9ac9da43dd7cb83bbb41d23677dfc3",
          "topics": [
            "0x19b47279256b2a23a1665c810c8d55a1758940ee09377d4f8d26497a3577dc83",
            "0x00000000000000000000000056c85a254dd12ee8d9c04049a4ab62769ce98210",
            "0x0000000000000000000000002d8879046f1559e53eb052e949e9544bcb72f414"
          ],
          "data": "0x0000000000000000000000000000000000000000000000000000000004566c5affffffffffffffffffffffffffffffffffffffffffffffffff957155d2f89f100000000000000000000000000000000000004f4dad52f206be8d3c9b62b8580b0000000000000000000000000000000000000000000000000042e9cbd6f1a65300000000000000000000000000000000000000000000000000000000000306eb00000000000000000000000000000000000000000000000000000000000009610000000000000000000000000000000000000000000000000000000000000000",
          "blockHash": "0xc79b7b7ad2ef673522ac1aee97d7e4441d9d57ddb049682f3801918874a3927a",
          "blockNumber": "0x8feade",
          "blockTimestamp": "0x66e4ee2a",
          "transactionHash": "0xd34ea1ca92aa76c02cfa80f8ae55830f04c3c6cfc2048f7ea80a29b454042cf4",
          "transactionIndex": "0x1",
          "logIndex": "0x15",
          "removed": false
        },
        {
          "address": "0xe5d7c2a44ffddf6b295a15c148167daaaf5cf34f",
          "topics": [
            "0xddf252ad1be2c89b69c2b068fc378daa952ba7f163c4a11628f55a4df523b3ef",
            "0x0000000000000000000000002d8879046f1559e53eb052e949e9544bcb72f414",
            "0x000000000000000000000000e2dc6a3a24e40932f498fc6f4d705281e59a583c"
          ],
          "data": "0x000000000000000000000000000000000000000000000000006a8eaa2d0760f0",
          "blockHash": "0xc79b7b7ad2ef673522ac1aee97d7e4441d9d57ddb049682f3801918874a3927a",
          "blockNumber": "0x8feade",
          "blockTimestamp": "0x66e4ee2a",
          "transactionHash": "0xd34ea1ca92aa76c02cfa80f8ae55830f04c3c6cfc2048f7ea80a29b454042cf4",
          "transactionIndex": "0x1",
          "logIndex": "0x16",
          "removed": false
        },
        {
          "address": "0x2d8879046f1559e53eb052e949e9544bcb72f414",
          "topics": [
            "0x823eaf01002d7353fbcadb2ea3305cc46fa35d799cb0914846d185ac06f8ad05"
          ],
          "data": "0x000000000000000000000000e2dc6a3a24e40932f498fc6f4d705281e59a583c0000000000000000000000000000000000000000000000000000000004566c5a000000000000000000000000176211869ca2b568f2a7d4ee941e073a821ee1ff000000000000000000000000000000000000000000000000006a8eaa2d0760f0000000000000000000000000e5d7c2a44ffddf6b295a15c148167daaaf5cf34ffffffffffffffffffffffffffffffffffffffffffffffffffffffdae220bbe540000000000000000000000000000000000000000000000000000000000000000",
          "blockHash": "0xc79b7b7ad2ef673522ac1aee97d7e4441d9d57ddb049682f3801918874a3927a",
          "blockNumber": "0x8feade",
          "blockTimestamp": "0x66e4ee2a",
          "transactionHash": "0xd34ea1ca92aa76c02cfa80f8ae55830f04c3c6cfc2048f7ea80a29b454042cf4",
          "transactionIndex": "0x1",
          "logIndex": "0x17",
          "removed": false
        },
        {
          "address": "0xe5d7c2a44ffddf6b295a15c148167daaaf5cf34f",
          "topics": [
            "0xddf252ad1be2c89b69c2b068fc378daa952ba7f163c4a11628f55a4df523b3ef",
            "0x000000000000000000000000e2dc6a3a24e40932f498fc6f4d705281e59a583c",
            "0x000000000000000000000000f39fd6e51aad88f6f4ce6ab8827279cfffb92266"
          ],
          "data": "0x00000000000000000000000000000000000000000000000000236e9306521668",
          "blockHash": "0xc79b7b7ad2ef673522ac1aee97d7e4441d9d57ddb049682f3801918874a3927a",
          "blockNumber": "0x8feade",
          "blockTimestamp": "0x66e4ee2a",
          "transactionHash": "0xd34ea1ca92aa76c02cfa80f8ae55830f04c3c6cfc2048f7ea80a29b454042cf4",
          "transactionIndex": "0x1",
          "logIndex": "0x18",
          "removed": false
        },
        {
          "address": "0x176211869ca2b568f2a7d4ee941e073a821ee1ff",
          "topics": [
            "0xddf252ad1be2c89b69c2b068fc378daa952ba7f163c4a11628f55a4df523b3ef",
            "0x000000000000000000000000e2dc6a3a24e40932f498fc6f4d705281e59a583c",
            "0x000000000000000000000000f39fd6e51aad88f6f4ce6ab8827279cfffb92266"
          ],
          "data": "0x0000000000000000000000000000000000000000000000000000000000000005",
          "blockHash": "0xc79b7b7ad2ef673522ac1aee97d7e4441d9d57ddb049682f3801918874a3927a",
          "blockNumber": "0x8feade",
          "blockTimestamp": "0x66e4ee2a",
          "transactionHash": "0xd34ea1ca92aa76c02cfa80f8ae55830f04c3c6cfc2048f7ea80a29b454042cf4",
          "transactionIndex": "0x1",
          "logIndex": "0x19",
          "removed": false
        },
        {
          "address": "0xe5d7c2a44ffddf6b295a15c148167daaaf5cf34f",
          "topics": [
            "0x8c5be1e5ebec7d5bd14f71427d1e84f3dd0314c0f7b2291e5b200ac8c7c3b925",
            "0x000000000000000000000000e2dc6a3a24e40932f498fc6f4d705281e59a583c",
            "0x0000000000000000000000002f9bb73a8e98793e26cb2f6c4ad037bdf1c6b269"
          ],
          "data": "0x0000000000000000000000000000000000000000000000000000000000000000",
          "blockHash": "0xc79b7b7ad2ef673522ac1aee97d7e4441d9d57ddb049682f3801918874a3927a",
          "blockNumber": "0x8feade",
          "blockTimestamp": "0x66e4ee2a",
          "transactionHash": "0xd34ea1ca92aa76c02cfa80f8ae55830f04c3c6cfc2048f7ea80a29b454042cf4",
          "transactionIndex": "0x1",
          "logIndex": "0x1a",
          "removed": false
        },
        {
          "address": "0x176211869ca2b568f2a7d4ee941e073a821ee1ff",
          "topics": [
            "0x8c5be1e5ebec7d5bd14f71427d1e84f3dd0314c0f7b2291e5b200ac8c7c3b925",
            "0x000000000000000000000000e2dc6a3a24e40932f498fc6f4d705281e59a583c",
            "0x0000000000000000000000002d8879046f1559e53eb052e949e9544bcb72f414"
          ],
          "data": "0x0000000000000000000000000000000000000000000000000000000000000000",
          "blockHash": "0xc79b7b7ad2ef673522ac1aee97d7e4441d9d57ddb049682f3801918874a3927a",
          "blockNumber": "0x8feade",
          "blockTimestamp": "0x66e4ee2a",
          "transactionHash": "0xd34ea1ca92aa76c02cfa80f8ae55830f04c3c6cfc2048f7ea80a29b454042cf4",
          "transactionIndex": "0x1",
          "logIndex": "0x1b",
          "removed": false
        },
        {
          "address": "0xe5d7c2a44ffddf6b295a15c148167daaaf5cf34f",
          "topics": [
            "0x8c5be1e5ebec7d5bd14f71427d1e84f3dd0314c0f7b2291e5b200ac8c7c3b925",
            "0x000000000000000000000000e2dc6a3a24e40932f498fc6f4d705281e59a583c",
            "0x0000000000000000000000002f9bb73a8e98793e26cb2f6c4ad037bdf1c6b269"
          ],
          "data": "0x0000000000000000000000000000000000000000000000000047201726b54a88",
          "blockHash": "0xc79b7b7ad2ef673522ac1aee97d7e4441d9d57ddb049682f3801918874a3927a",
          "blockNumber": "0x8feade",
          "blockTimestamp": "0x66e4ee2a",
          "transactionHash": "0xd34ea1ca92aa76c02cfa80f8ae55830f04c3c6cfc2048f7ea80a29b454042cf4",
          "transactionIndex": "0x1",
          "logIndex": "0x1c",
          "removed": false
        },
        {
          "address": "0x2f9bb73a8e98793e26cb2f6c4ad037bdf1c6b269",
          "topics": [
            "0x804c9b842b2748a22bb64b345453a3de7ca54a6ca45ce00d415894979e22897a",
            "0x000000000000000000000000e5d7c2a44ffddf6b295a15c148167daaaf5cf34f"
          ],
          "data": "0x0000000000000000000000000000000000000000000b6d4b6776a413210c39010000000000000000000000000000000000000000002cbac718641f10163c7b6a0000000000000000000000000000000000000000001af6ed5000c53521e3db5500000000000000000000000000000000000000000352af953168b0bb3850e0d70000000000000000000000000000000000000000035f5666ee88fe5950bf20e8",
          "blockHash": "0xc79b7b7ad2ef673522ac1aee97d7e4441d9d57ddb049682f3801918874a3927a",
          "blockNumber": "0x8feade",
          "blockTimestamp": "0x66e4ee2a",
          "transactionHash": "0xd34ea1ca92aa76c02cfa80f8ae55830f04c3c6cfc2048f7ea80a29b454042cf4",
          "transactionIndex": "0x1",
          "logIndex": "0x1d",
          "removed": false
        },
        {
          "address": "0xe5d7c2a44ffddf6b295a15c148167daaaf5cf34f",
          "topics": [
            "0xddf252ad1be2c89b69c2b068fc378daa952ba7f163c4a11628f55a4df523b3ef",
            "0x000000000000000000000000e2dc6a3a24e40932f498fc6f4d705281e59a583c",
            "0x000000000000000000000000b4ffef15daf4c02787bc5332580b838ce39805f5"
          ],
          "data": "0x0000000000000000000000000000000000000000000000000047201726b54a88",
          "blockHash": "0xc79b7b7ad2ef673522ac1aee97d7e4441d9d57ddb049682f3801918874a3927a",
          "blockNumber": "0x8feade",
          "blockTimestamp": "0x66e4ee2a",
          "transactionHash": "0xd34ea1ca92aa76c02cfa80f8ae55830f04c3c6cfc2048f7ea80a29b454042cf4",
          "transactionIndex": "0x1",
          "logIndex": "0x1e",
          "removed": false
        },
        {
          "address": "0x2f9bb73a8e98793e26cb2f6c4ad037bdf1c6b269",
          "topics": [
            "0xefefaba5e921573100900a3ad9cf29f222d995fb3b6045797eaea7521bd8d6f0",
            "0x000000000000000000000000e2dc6a3a24e40932f498fc6f4d705281e59a583c",
            "0x000000000000000000000000e5d7c2a44ffddf6b295a15c148167daaaf5cf34f",
            "0x0000000000000000000000000000000000000000000000000000000000000000"
          ],
          "data": "0x000000000000000000000000e2dc6a3a24e40932f498fc6f4d705281e59a583c000000000000000000000000000000000000000000000000004716fdae2c4f1a0000000000000000000000000000000000000000000000000000000000000000000000000000000000000000000000000000000000000000000009197888fb6e",
          "blockHash": "0xc79b7b7ad2ef673522ac1aee97d7e4441d9d57ddb049682f3801918874a3927a",
          "blockNumber": "0x8feade",
          "blockTimestamp": "0x66e4ee2a",
          "transactionHash": "0xd34ea1ca92aa76c02cfa80f8ae55830f04c3c6cfc2048f7ea80a29b454042cf4",
          "transactionIndex": "0x1",
          "logIndex": "0x1f",
          "removed": false
        }
      ],
      "logsBloom": "0x1000000000400000000800000000000008800000400000000000000001000000000080002004000000001000000200000011080040102014000400000020000004000020004000008008000802000020200000000000000000000000004000000080040212000000008000012000080180400000020002000000001000000000000002000001000800100004000000000000000008000000008000040000004002080000028000000000000002000010000000000010080100000000a00001000050000208000020000000200000000000020100a0000e0000080000000020040010300000008020000080000000000000000000100002000000000000140000",
      "type": "0x2",
      "transactionHash": "0xd34ea1ca92aa76c02cfa80f8ae55830f04c3c6cfc2048f7ea80a29b454042cf4",
      "transactionIndex": "0x1",
      "blockHash": "0xc79b7b7ad2ef673522ac1aee97d7e4441d9d57ddb049682f3801918874a3927a",
      "blockNumber": "0x8feade",
      "gasUsed": "0xb7f2f",
      "effectiveGasPrice": "0x3938707",
      "blobGasPrice": "0x1",
      "from": "0xf39fd6e51aad88f6f4ce6ab8827279cfffb92266",
      "to": "0x0b306bf915c4d645ff596e518faf3f9669b97016",
      "contractAddress": null,
      "root": "0x0000000000000000000000000000000000000000000000000000000000000000"
    }
  ],
  "libraries": [],
  "pending": [],
  "returns": {},
  "timestamp": 1726279210,
  "chain": 59144,
  "commit": "4a57ec2"
}